{
	"data": {
		"bytecode": {
			"linkReferences": {
				"XENIUM/Math.sol": {
					"Math": [
						{
							"length": 20,
							"start": 7427
						},
						{
							"length": 20,
							"start": 8735
						},
						{
							"length": 20,
							"start": 9636
						},
						{
							"length": 20,
							"start": 10337
						}
					]
				}
			},
			"object": "60a060405260016005553480156200001657600080fd5b506040518060400160405280600a81526020016958454e2043727970746f60b01b815250604051806040016040528060038152602001622c22a760e91b815250816003908162000067919062000128565b50600462000076828262000128565b50504260805250620001f4565b634e487b7160e01b600052604160045260246000fd5b600181811c90821680620000ae57607f821691505b602082108103620000cf57634e487b7160e01b600052602260045260246000fd5b50919050565b601f8211156200012357600081815260208120601f850160051c81016020861015620000fe5750805b601f850160051c820191505b818110156200011f578281556001016200010a565b5050505b505050565b81516001600160401b0381111562000144576200014462000083565b6200015c8162000155845462000099565b84620000d5565b602080601f8311600181146200019457600084156200017b5750858301515b600019600386901b1c1916600185901b1785556200011f565b600085815260208120601f198616915b82811015620001c557888601518255948401946001909101908401620001a4565b5085821015620001e45787850151600019600388901b60f8161c191681555b5050505050600190811b01905550565b608051612a1b6200021e600039600081816106fd015281816122e601526123490152612a1b6000f3fe608060405234801561001057600080fd5b50600436106103425760003560e01c80637e7aa62e116101b8578063b4800cdc11610104578063df282331116100a2578063ed2f23691161007c578063ed2f236914610728578063f060482914610731578063f340faed14610739578063fed742691461074357600080fd5b8063df28233114610674578063e3af6d0a146106f8578063e81917b41461071f57600080fd5b8063c0c65259116100de578063c0c6525914610631578063c56f0bab14610639578063ce653d5f14610641578063dd62ed3e1461066157600080fd5b8063b4800cdc14610620578063ba3ec74114610629578063bcfe394f1461041d57600080fd5b80639920245411610171578063a457c2d71161014b578063a457c2d7146105de578063a9059cbb146105f1578063b0fd1fc214610604578063b21d35f21461061757600080fd5b806399202454146105b05780639dc29fac146105b85780639ff054df146105cb57600080fd5b80637e7aa62e146105335780638979c87c1461053b5780638da7ad2314610543578063909a2ff61461059857806395d89b41146105a0578063962ca496146105a857600080fd5b80632a62d96611610292578063543d3652116102305780637010d7a11161020a5780637010d7a11461049757806370a08231146104ef57806372475f94146105185780637b0472f01461052057600080fd5b8063543d36521461041d5780635bccb4c41461047a57806361a52a361461048d57600080fd5b8063395093511161026c578063395093511461044f5780633ccfd60b14610462578063451257151461046a57806352c7f8dc1461047257600080fd5b80632a62d966146103b4578063313ce5671461043857806332870fda1461044757600080fd5b8063110d7fc2116102ff5780631c244082116102d95780631c244082146103ff5780631c560305146104085780631c6f212e1461041d57806323b872dd1461042557600080fd5b8063110d7fc2146103b457806316f9c8fd146103bc57806318160ddd146103f757600080fd5b80630237893214610347578063069612a51461036357806306fdde031461036c578063095ea7b3146103815780630bfae56b146103a45780630f2e1228146103ac575b600080fd5b61035061016d81565b6040519081526020015b60405180910390f35b61035060085481565b61037461074b565b60405161035a91906126a1565b61039461038f36600461270b565b6107dd565b604051901515815260200161035a565b6103506107f7565b610350606381565b610350600081565b6103c4610808565b60405161035a91908151815260208083015190820152604080830151908201526060918201519181019190915260800190565b600254610350565b61035060055481565b61041b61041636600461270b565b610879565b005b610350600181565b610394610433366004612735565b610ada565b6040516012815260200161035a565b610350605a81565b61039461045d36600461270b565b610afe565b61041b610b20565b610350610c74565b61041b610c83565b61041b610488366004612771565b610da6565b6103506201518081565b61049f6110fd565b60405161035a919081516001600160a01b031681526020808301519082015260408083015190820152606080830151908201526080808301519082015260a0918201519181019190915260c00190565b6103506104fd366004612793565b6001600160a01b031660009081526020819052604090205490565b610350600f81565b61041b61052e366004612771565b6111a2565b610350600281565b6103506113c0565b610578610551366004612793565b600a6020526000908152604090208054600182015460028301546003909301549192909184565b60408051948552602085019390935291830152606082015260800161035a565b610350606481565b6103746113ca565b6103506113d9565b6103506113e3565b61041b6105c636600461270b565b6113ed565b61041b6105d93660046127ae565b61159f565b6103946105ec36600461270b565b611818565b6103946105ff36600461270b565b611893565b6103506106123660046127c7565b6118a1565b61035061138881565b61035060065481565b610374611931565b61035061194d565b610350600781565b61035061064f366004612793565b600b6020526000908152604090205481565b61035061066f3660046127f9565b61195c565b6106c1610682366004612793565b6009602052600090815260409020805460018201546002830154600384015460048501546005909501546001600160a01b039094169492939192909186565b604080516001600160a01b0390971687526020870195909552938501929092526060840152608083015260a082015260c00161035a565b6103507f000000000000000000000000000000000000000000000000000000000000000081565b610350610bb881565b61035060075481565b610350611987565b610350620186a081565b610350601481565b60606003805461075a9061282c565b80601f01602080910402602001604051908101604052809291908181526020018280546107869061282c565b80156107d35780601f106107a8576101008083540402835291602001916107d3565b820191906000526020600020905b8154815290600101906020018083116107b657829003601f168201915b5050505050905090565b6000336107eb8185856119a0565b60019150505b92915050565b61080562015180606461287c565b81565b6108336040518060800160405280600081526020016000815260200160008152602001600081525090565b50336000908152600a6020908152604091829020825160808101845281548152600182015492810192909252600281015492820192909252600390910154606082015290565b33600090815260096020908152604091829020825160c08101845281546001600160a01b03908116825260018301549382019390935260028201549381019390935260038101546060840152600481015460808401526005015460a083015283166109395760405162461bcd60e51b815260206004820152602560248201527f4352616e6b3a2043616e6e6f742073686172652077697468207a65726f206164604482015264647265737360d81b60648201526084015b60405180910390fd5b600082116109895760405162461bcd60e51b815260206004820181905260248201527f4352616e6b3a2043616e6e6f74207368617265207a65726f2070657263656e746044820152606401610930565b606582106109d95760405162461bcd60e51b815260206004820181905260248201527f4352616e6b3a2043616e6e6f74207368617265203130302b2070657263656e746044820152606401610930565b60008160600151116109fd5760405162461bcd60e51b815260040161093090612893565b80604001514211610a205760405162461bcd60e51b8152600401610930906128c2565b6000610a4382606001518360200151846040015185608001518660a00151611ac5565b610a5590670de0b6b3a764000061287c565b905060006064610a65858461287c565b610a6f919061290d565b90506000610a7d828461292f565b9050610a8a335b82611bc3565b610a948683611bc3565b610a9c611ca2565b60405183815233907fd74752b13281df13701575f3a507e9b1242e0b5fb040143211c481c1fce573a6906020015b60405180910390a2505050505050565b600033610ae8858285611cf6565b610af3858585611d70565b506001949350505050565b6000336107eb818585610b11838361195c565b610b1b9190612942565b6119a0565b336000908152600a6020908152604091829020825160808101845281548152600182015492810192909252600281015492820183905260030154606082015290610ba35760405162461bcd60e51b815260206004820152601460248201527358454e3a206e6f207374616b652065786973747360601b6044820152606401610930565b6000610bc18260400151836000015184602001518560600151611f3e565b600780549192506000610bd383612955565b9190505550816040015160086000828254610bee919061292f565b90915550610c0d905033828460400151610c089190612942565b611bc3565b60408083015181519081526020810183905233917f92ccf450a286a957af52509bc1c9939d1a6a481783e142e41e2499f0bb66ebc6910160405180910390a25050336000908152600a60205260408120818155600181018290556002810182905560030155565b6000610c7e611f9c565b905090565b33600090815260096020908152604091829020825160c08101845281546001600160a01b031681526001820154928101929092526002810154928201929092526003820154606082018190526004830154608083015260059092015460a082015290610d015760405162461bcd60e51b815260040161093090612893565b80604001514211610d245760405162461bcd60e51b8152600401610930906128c2565b6000610d4782606001518360200151846040015185608001518660a00151611ac5565b610d5990670de0b6b3a764000061287c565b9050610d6433610a84565b610d6c611ca2565b60405181815233907fd74752b13281df13701575f3a507e9b1242e0b5fb040143211c481c1fce573a6906020015b60405180910390a25050565b33600090815260096020908152604091829020825160c08101845281546001600160a01b03168152600182015492810192909252600281015492820192909252600382015460608201526004820154608082015260059091015460a082015260658310610e555760405162461bcd60e51b815260206004820181905260248201527f4352616e6b3a2043616e6e6f74207368617265203e3130302070657263656e746044820152606401610930565b6000816060015111610e795760405162461bcd60e51b815260040161093090612893565b80604001514211610e9c5760405162461bcd60e51b8152600401610930906128c2565b6000610ebf82606001518360200151846040015185608001518660a00151611ac5565b610ed190670de0b6b3a764000061287c565b905060006064610ee1868461287c565b610eeb919061290d565b90506000610ef9828461292f565b9050610f0433610a84565b610f0c611ca2565b60405183815233907fd74752b13281df13701575f3a507e9b1242e0b5fb040143211c481c1fce573a69060200160405180910390a260008211610f885760405162461bcd60e51b815260206004820152601460248201527358454e3a2042656c6f77206d696e207374616b6560601b6044820152606401610930565b6001610f97620151808261287c565b610fa1919061292f565b610fae620151808761287c565b11610ff75760405162461bcd60e51b815260206004820152601960248201527858454e3a2042656c6f77206d696e207374616b65207465726d60381b6044820152606401610930565b611006620151806103e861287c565b611011906001612942565b61101e620151808761287c565b106110675760405162461bcd60e51b815260206004820152601960248201527858454e3a2041626f7665206d6178207374616b65207465726d60381b6044820152606401610930565b336000908152600a6020526040902060020154156110bb5760405162461bcd60e51b815260206004820152601160248201527058454e3a207374616b652065786973747360781b6044820152606401610930565b6110c582866120a3565b604080518381526020810187905233917f1449c6dd7851abc30abf37f57715f492010519147cc2652fbc38202c18a6ee909101610aca565b61113f6040518060c0016040528060006001600160a01b0316815260200160008152602001600081526020016000815260200160008152602001600081525090565b5033600090815260096020908152604091829020825160c08101845281546001600160a01b03168152600182015492810192909252600281015492820192909252600382015460608201526004820154608082015260059091015460a082015290565b816111ac336104fd565b10156111fa5760405162461bcd60e51b815260206004820152601760248201527f58454e3a206e6f7420656e6f7567682062616c616e63650000000000000000006044820152606401610930565b600082116112415760405162461bcd60e51b815260206004820152601460248201527358454e3a2042656c6f77206d696e207374616b6560601b6044820152606401610930565b6001611250620151808261287c565b61125a919061292f565b611267620151808361287c565b116112b05760405162461bcd60e51b815260206004820152601960248201527858454e3a2042656c6f77206d696e207374616b65207465726d60381b6044820152606401610930565b6112bf620151806103e861287c565b6112ca906001612942565b6112d7620151808361287c565b106113205760405162461bcd60e51b815260206004820152601960248201527858454e3a2041626f7665206d6178207374616b65207465726d60381b6044820152606401610930565b336000908152600a6020526040902060020154156113745760405162461bcd60e51b815260206004820152601160248201527058454e3a207374616b652065786973747360781b6044820152606401610930565b61137e3383612146565b61138882826120a3565b604080518381526020810183905233917f1449c6dd7851abc30abf37f57715f492010519147cc2652fbc38202c18a6ee909101610d9a565b6000610c7e61228c565b60606004805461075a9061282c565b6000610c7e6122d0565b6000610c7e61233d565b600081116114355760405162461bcd60e51b8152602060048201526015602482015274109d5c9b8e8810995b1bddc81b5a5b881b1a5b5a5d605a1b6044820152606401610930565b336040516301ffc9a760e01b815263543746b160e01b60048201526001600160a01b0391909116906301ffc9a790602401602060405180830381865afa158015611483573d6000803e3d6000fd5b505050506040513d601f19601f820116820180604052508101906114a7919061296c565b6114f35760405162461bcd60e51b815260206004820152601e60248201527f4275726e3a206e6f74206120737570706f7274656420636f6e747261637400006044820152606401610930565b6114fe823383611cf6565b6115088282612146565b6001600160a01b0382166000908152600b602052604081208054839290611530908490612942565b9091555033905060405163543746b160e01b81526001600160a01b03848116600483015260248201849052919091169063543746b190604401600060405180830381600087803b15801561158357600080fd5b505af1158015611597573d6000803e3d6000fd5b505050505050565b60006115ae620151808361287c565b905060016115bf620151808261287c565b6115c9919061292f565b81116116175760405162461bcd60e51b815260206004820152601960248201527f4352616e6b3a205465726d206c657373207468616e206d696e000000000000006044820152606401610930565b61161f611f9c565b61162a906001612942565b81106116875760405162461bcd60e51b815260206004820152602660248201527f4352616e6b3a205465726d206d6f7265207468616e2063757272656e74206d6160448201526578207465726d60d01b6064820152608401610930565b33600090815260096020526040902060030154156116e75760405162461bcd60e51b815260206004820152601f60248201527f4352616e6b3a204d696e7420616c726561647920696e2070726f6772657373006044820152606401610930565b60006040518060c001604052806116fb3390565b6001600160a01b031681526020810185905260400161171a8442612942565b8152602001600554815260200161172f61233d565b815260200161173c61228c565b9052336000908152600960209081526040808320845181546001600160a01b0319166001600160a01b039091161781559184015160018301558301516002820155606083015160038201556080830151600482015560a083015160059091015560068054929350906117ad8361298e565b91905055506117b93390565b6001600160a01b03167fe9149e1b5059238baed02fa659dbf4bd932fbcf760a431330df4d934bc942f3784600560008154809291906117f79061298e565b909155506040805192835260208301919091520160405180910390a2505050565b60003381611826828661195c565b9050838110156118865760405162461bcd60e51b815260206004820152602560248201527f45524332303a2064656372656173656420616c6c6f77616e63652062656c6f77604482015264207a65726f60d81b6064820152608401610930565b610af382868684036119a0565b6000336107eb818585611d70565b6000806118b86118b087612419565b600f0b612437565b905060006118f46118c885612419565b6118eb6118d488612419565b6118eb6118e08b612419565b600f88900b9061251b565b600f0b9061251b565b905061191a6119126119076103e8612419565b600f84900b90612559565b600f0b6125b0565b67ffffffffffffffff16925050505b949350505050565b6040518060600160405280602581526020016129c16025913981565b610805620151806103e861287c565b6001600160a01b03918216600090815260016020908152604080832093909416825291909152205490565b6001611996620151808261287c565b610805919061292f565b6001600160a01b038316611a025760405162461bcd60e51b8152602060048201526024808201527f45524332303a20617070726f76652066726f6d20746865207a65726f206164646044820152637265737360e01b6064820152608401610930565b6001600160a01b038216611a635760405162461bcd60e51b815260206004820152602260248201527f45524332303a20617070726f766520746f20746865207a65726f206164647265604482015261737360f01b6064820152608401610930565b6001600160a01b0383811660008181526001602090815260408083209487168084529482529182902085905590518481527f8c5be1e5ebec7d5bd14f71427d1e84f3dd0314c0f7b2291e5b200ac8c7c3b92591015b60405180910390a3505050565b600080611ad2854261292f565b90506000611adf826125cc565b9050600073__$16c37ee633210877eaced9daf60cfcca02$__636d5433e68a600554611b0b919061292f565b6040516001600160e01b031960e084901b168152600481019190915260026024820152604401602060405180830381865af4158015611b4e573d6000803e3d6000fd5b505050506040513d601f19601f82011682018060405250810190611b7291906129a7565b90506000611b82866103e8612942565b90506000611b9283898c856118a1565b90506064611ba0858261292f565b611baa908361287c565b611bb4919061290d565b9b9a5050505050505050505050565b6001600160a01b038216611c195760405162461bcd60e51b815260206004820152601f60248201527f45524332303a206d696e7420746f20746865207a65726f2061646472657373006044820152606401610930565b8060026000828254611c2b9190612942565b90915550506001600160a01b03821660009081526020819052604081208054839290611c58908490612942565b90915550506040518181526001600160a01b038316906000907fddf252ad1be2c89b69c2b068fc378daa952ba7f163c4a11628f55a4df523b3ef9060200160405180910390a35050565b33600090815260096020526040812080546001600160a01b0319168155600181018290556002810182905560038101829055600481018290556005018190556006805491611cef83612955565b9190505550565b6000611d02848461195c565b90506000198114611d6a5781811015611d5d5760405162461bcd60e51b815260206004820152601d60248201527f45524332303a20696e73756666696369656e7420616c6c6f77616e63650000006044820152606401610930565b611d6a84848484036119a0565b50505050565b6001600160a01b038316611dd45760405162461bcd60e51b815260206004820152602560248201527f45524332303a207472616e736665722066726f6d20746865207a65726f206164604482015264647265737360d81b6064820152608401610930565b6001600160a01b038216611e365760405162461bcd60e51b815260206004820152602360248201527f45524332303a207472616e7366657220746f20746865207a65726f206164647260448201526265737360e81b6064820152608401610930565b6001600160a01b03831660009081526020819052604090205481811015611eae5760405162461bcd60e51b815260206004820152602660248201527f45524332303a207472616e7366657220616d6f756e7420657863656564732062604482015265616c616e636560d01b6064820152608401610930565b6001600160a01b03808516600090815260208190526040808220858503905591851681529081208054849290611ee5908490612942565b92505081905550826001600160a01b0316846001600160a01b03167fddf252ad1be2c89b69c2b068fc378daa952ba7f163c4a11628f55a4df523b3ef84604051611f3191815260200190565b60405180910390a3611d6a565b600082421115611f9157600061016d611f57868561287c565b611f6490620f424061287c565b611f6e919061290d565b90506305f5e100611f7f828861287c565b611f89919061290d565b915050611929565b506000949350505050565b60006113886005541115612095576000611fca611912611fbc600f612419565b6118eb6118b0600554612419565b67ffffffffffffffff1690506000611fe5620151808361287c565b611ff362015180606461287c565b611ffd9190612942565b905073__$16c37ee633210877eaced9daf60cfcca02$__637ae2b5c782612029620151806103e861287c565b6040516001600160e01b031960e085901b16815260048101929092526024820152604401602060405180830381865af415801561206a573d6000803e3d6000fd5b505050506040513d601f19601f8201168201806040525081019061208e91906129a7565b9250505090565b610c7e62015180606461287c565b604051806080016040528082815260200162015180836120c3919061287c565b6120cd9042612942565b81526020018381526020016120e06122d0565b9052336000908152600a6020908152604080832084518155918401516001830155830151600282015560609092015160039092019190915560078054916121268361298e565b9190505550816008600082825461213d9190612942565b90915550505050565b6001600160a01b0382166121a65760405162461bcd60e51b815260206004820152602160248201527f45524332303a206275726e2066726f6d20746865207a65726f206164647265736044820152607360f81b6064820152608401610930565b6001600160a01b0382166000908152602081905260409020548181101561221a5760405162461bcd60e51b815260206004820152602260248201527f45524332303a206275726e20616d6f756e7420657863656564732062616c616e604482015261636560f01b6064820152608401610930565b6001600160a01b038316600090815260208190526040812083830390556002805484929061224990849061292f565b90915550506040518281526000906001600160a01b038516907fddf252ad1be2c89b69c2b068fc378daa952ba7f163c4a11628f55a4df523b3ef90602001611ab8565b600080620186a060055460016122a2919061287c565b6122ac919061290d565b905060648111156122bf57600091505090565b6122ca81606461292f565b91505090565b6000806122e1605a6201518061287c565b61230b7f00000000000000000000000000000000000000000000000000000000000000004261292f565b612315919061290d565b9050806123246002601461292f565b101561233257600291505090565b6122ca81601461292f565b6000806201518061236e7f00000000000000000000000000000000000000000000000000000000000000004261292f565b612378919061290d565b9050610bb88110156124115773__$16c37ee633210877eaced9daf60cfcca02$__636d5433e66123aa83610bb861292f565b6040516001600160e01b031960e084901b168152600481019190915260016024820152604401602060405180830381865af41580156123ed573d6000803e3d6000fd5b505050506040513d601f19601f820116820180604052508101906122ca91906129a7565b600191505090565b6000677fffffffffffffff82111561243057600080fd5b5060401b90565b60008082600f0b1361244857600080fd5b6000600f83900b680100000000000000008112612467576040918201911d5b640100000000811261247b576020918201911d5b62010000811261248d576010918201911d5b610100811261249e576008918201911d5b601081126124ae576004918201911d5b600481126124be576002918201911d5b600281126124cd576001820191505b603f19820160401b600f85900b607f8490031b6780000000000000005b60008113156125105790800260ff81901c8281029390930192607f011c9060011d6124ea565b509095945050505050565b6000600f83810b9083900b0260401d60016001607f1b03198112801590612549575060016001607f1b038113155b61255257600080fd5b9392505050565b600081600f0b60000361256b57600080fd5b600082600f0b604085600f0b901b81612586576125866128f7565b05905060016001607f1b03198112801590612549575060016001607f1b0381131561255257600080fd5b60008082600f0b12156125c257600080fd5b50600f0b60401d90565b6000806125dc620151808461290d565b90506125ea6001600761292f565b8111156125fa5750606392915050565b60006001600761260b846003612942565b6001901b612619919061290d565b612623919061292f565b604051637ae2b5c760e01b8152600481018290526063602482015290915073__$16c37ee633210877eaced9daf60cfcca02$__90637ae2b5c790604401602060405180830381865af415801561267d573d6000803e3d6000fd5b505050506040513d601f19601f8201168201806040525081019061192991906129a7565b600060208083528351808285015260005b818110156126ce578581018301518582016040015282016126b2565b506000604082860101526040601f19601f8301168501019250505092915050565b80356001600160a01b038116811461270657600080fd5b919050565b6000806040838503121561271e57600080fd5b612727836126ef565b946020939093013593505050565b60008060006060848603121561274a57600080fd5b612753846126ef565b9250612761602085016126ef565b9150604084013590509250925092565b6000806040838503121561278457600080fd5b50508035926020909101359150565b6000602082840312156127a557600080fd5b612552826126ef565b6000602082840312156127c057600080fd5b5035919050565b600080600080608085870312156127dd57600080fd5b5050823594602084013594506040840135936060013592509050565b6000806040838503121561280c57600080fd5b612815836126ef565b9150612823602084016126ef565b90509250929050565b600181811c9082168061284057607f821691505b60208210810361286057634e487b7160e01b600052602260045260246000fd5b50919050565b634e487b7160e01b600052601160045260246000fd5b80820281158282048414176107f1576107f1612866565b6020808252601590820152744352616e6b3a204e6f206d696e742065786973747360581b604082015260600190565b6020808252818101527f4352616e6b3a204d696e74206d61747572697479206e6f742072656163686564604082015260600190565b634e487b7160e01b600052601260045260246000fd5b60008261292a57634e487b7160e01b600052601260045260246000fd5b500490565b818103818111156107f1576107f1612866565b808201808211156107f1576107f1612866565b60008161296457612964612866565b506000190190565b60006020828403121561297e57600080fd5b8151801515811461255257600080fd5b6000600182016129a0576129a0612866565b5060010190565b6000602082840312156129b957600080fd5b505191905056fe404d724a61636b4c6576696e20406c62656c79616576206661697263727970746f2e6f7267a26469706673582212201f2c5c474040de95aac177b93517516affd8b29ffc5203bfa3403a9ee5b112ae64736f6c63430008120033",
			"opcodes": "PUSH1 0xA0 PUSH1 0x40 MSTORE PUSH1 0x1 PUSH1 0x5 SSTORE CALLVALUE DUP1 ISZERO PUSH3 0x16 JUMPI PUSH1 0x0 DUP1 REVERT JUMPDEST POP PUSH1 0x40 MLOAD DUP1 PUSH1 0x40 ADD PUSH1 0x40 MSTORE DUP1 PUSH1 0xA DUP2 MSTORE PUSH1 0x20 ADD PUSH10 0x58454E2043727970746F PUSH1 0xB0 SHL DUP2 MSTORE POP PUSH1 0x40 MLOAD DUP1 PUSH1 0x40 ADD PUSH1 0x40 MSTORE DUP1 PUSH1 0x3 DUP2 MSTORE PUSH1 0x20 ADD PUSH3 0x2C22A7 PUSH1 0xE9 SHL DUP2 MSTORE POP DUP2 PUSH1 0x3 SWAP1 DUP2 PUSH3 0x67 SWAP2 SWAP1 PUSH3 0x128 JUMP JUMPDEST POP PUSH1 0x4 PUSH3 0x76 DUP3 DUP3 PUSH3 0x128 JUMP JUMPDEST POP POP TIMESTAMP PUSH1 0x80 MSTORE POP PUSH3 0x1F4 JUMP JUMPDEST PUSH4 0x4E487B71 PUSH1 0xE0 SHL PUSH1 0x0 MSTORE PUSH1 0x41 PUSH1 0x4 MSTORE PUSH1 0x24 PUSH1 0x0 REVERT JUMPDEST PUSH1 0x1 DUP2 DUP2 SHR SWAP1 DUP3 AND DUP1 PUSH3 0xAE JUMPI PUSH1 0x7F DUP3 AND SWAP2 POP JUMPDEST PUSH1 0x20 DUP3 LT DUP2 SUB PUSH3 0xCF JUMPI PUSH4 0x4E487B71 PUSH1 0xE0 SHL PUSH1 0x0 MSTORE PUSH1 0x22 PUSH1 0x4 MSTORE PUSH1 0x24 PUSH1 0x0 REVERT JUMPDEST POP SWAP2 SWAP1 POP JUMP JUMPDEST PUSH1 0x1F DUP3 GT ISZERO PUSH3 0x123 JUMPI PUSH1 0x0 DUP2 DUP2 MSTORE PUSH1 0x20 DUP2 KECCAK256 PUSH1 0x1F DUP6 ADD PUSH1 0x5 SHR DUP2 ADD PUSH1 0x20 DUP7 LT ISZERO PUSH3 0xFE JUMPI POP DUP1 JUMPDEST PUSH1 0x1F DUP6 ADD PUSH1 0x5 SHR DUP3 ADD SWAP2 POP JUMPDEST DUP2 DUP2 LT ISZERO PUSH3 0x11F JUMPI DUP3 DUP2 SSTORE PUSH1 0x1 ADD PUSH3 0x10A JUMP JUMPDEST POP POP POP JUMPDEST POP POP POP JUMP JUMPDEST DUP2 MLOAD PUSH1 0x1 PUSH1 0x1 PUSH1 0x40 SHL SUB DUP2 GT ISZERO PUSH3 0x144 JUMPI PUSH3 0x144 PUSH3 0x83 JUMP JUMPDEST PUSH3 0x15C DUP2 PUSH3 0x155 DUP5 SLOAD PUSH3 0x99 JUMP JUMPDEST DUP5 PUSH3 0xD5 JUMP JUMPDEST PUSH1 0x20 DUP1 PUSH1 0x1F DUP4 GT PUSH1 0x1 DUP2 EQ PUSH3 0x194 JUMPI PUSH1 0x0 DUP5 ISZERO PUSH3 0x17B JUMPI POP DUP6 DUP4 ADD MLOAD JUMPDEST PUSH1 0x0 NOT PUSH1 0x3 DUP7 SWAP1 SHL SHR NOT AND PUSH1 0x1 DUP6 SWAP1 SHL OR DUP6 SSTORE PUSH3 0x11F JUMP JUMPDEST PUSH1 0x0 DUP6 DUP2 MSTORE PUSH1 0x20 DUP2 KECCAK256 PUSH1 0x1F NOT DUP7 AND SWAP2 JUMPDEST DUP3 DUP2 LT ISZERO PUSH3 0x1C5 JUMPI DUP9 DUP7 ADD MLOAD DUP3 SSTORE SWAP5 DUP5 ADD SWAP5 PUSH1 0x1 SWAP1 SWAP2 ADD SWAP1 DUP5 ADD PUSH3 0x1A4 JUMP JUMPDEST POP DUP6 DUP3 LT ISZERO PUSH3 0x1E4 JUMPI DUP8 DUP6 ADD MLOAD PUSH1 0x0 NOT PUSH1 0x3 DUP9 SWAP1 SHL PUSH1 0xF8 AND SHR NOT AND DUP2 SSTORE JUMPDEST POP POP POP POP POP PUSH1 0x1 SWAP1 DUP2 SHL ADD SWAP1 SSTORE POP JUMP JUMPDEST PUSH1 0x80 MLOAD PUSH2 0x2A1B PUSH3 0x21E PUSH1 0x0 CODECOPY PUSH1 0x0 DUP2 DUP2 PUSH2 0x6FD ADD MSTORE DUP2 DUP2 PUSH2 0x22E6 ADD MSTORE PUSH2 0x2349 ADD MSTORE PUSH2 0x2A1B PUSH1 0x0 RETURN INVALID PUSH1 0x80 PUSH1 0x40 MSTORE CALLVALUE DUP1 ISZERO PUSH2 0x10 JUMPI PUSH1 0x0 DUP1 REVERT JUMPDEST POP PUSH1 0x4 CALLDATASIZE LT PUSH2 0x342 JUMPI PUSH1 0x0 CALLDATALOAD PUSH1 0xE0 SHR DUP1 PUSH4 0x7E7AA62E GT PUSH2 0x1B8 JUMPI DUP1 PUSH4 0xB4800CDC GT PUSH2 0x104 JUMPI DUP1 PUSH4 0xDF282331 GT PUSH2 0xA2 JUMPI DUP1 PUSH4 0xED2F2369 GT PUSH2 0x7C JUMPI DUP1 PUSH4 0xED2F2369 EQ PUSH2 0x728 JUMPI DUP1 PUSH4 0xF0604829 EQ PUSH2 0x731 JUMPI DUP1 PUSH4 0xF340FAED EQ PUSH2 0x739 JUMPI DUP1 PUSH4 0xFED74269 EQ PUSH2 0x743 JUMPI PUSH1 0x0 DUP1 REVERT JUMPDEST DUP1 PUSH4 0xDF282331 EQ PUSH2 0x674 JUMPI DUP1 PUSH4 0xE3AF6D0A EQ PUSH2 0x6F8 JUMPI DUP1 PUSH4 0xE81917B4 EQ PUSH2 0x71F JUMPI PUSH1 0x0 DUP1 REVERT JUMPDEST DUP1 PUSH4 0xC0C65259 GT PUSH2 0xDE JUMPI DUP1 PUSH4 0xC0C65259 EQ PUSH2 0x631 JUMPI DUP1 PUSH4 0xC56F0BAB EQ PUSH2 0x639 JUMPI DUP1 PUSH4 0xCE653D5F EQ PUSH2 0x641 JUMPI DUP1 PUSH4 0xDD62ED3E EQ PUSH2 0x661 JUMPI PUSH1 0x0 DUP1 REVERT JUMPDEST DUP1 PUSH4 0xB4800CDC EQ PUSH2 0x620 JUMPI DUP1 PUSH4 0xBA3EC741 EQ PUSH2 0x629 JUMPI DUP1 PUSH4 0xBCFE394F EQ PUSH2 0x41D JUMPI PUSH1 0x0 DUP1 REVERT JUMPDEST DUP1 PUSH4 0x99202454 GT PUSH2 0x171 JUMPI DUP1 PUSH4 0xA457C2D7 GT PUSH2 0x14B JUMPI DUP1 PUSH4 0xA457C2D7 EQ PUSH2 0x5DE JUMPI DUP1 PUSH4 0xA9059CBB EQ PUSH2 0x5F1 JUMPI DUP1 PUSH4 0xB0FD1FC2 EQ PUSH2 0x604 JUMPI DUP1 PUSH4 0xB21D35F2 EQ PUSH2 0x617 JUMPI PUSH1 0x0 DUP1 REVERT JUMPDEST DUP1 PUSH4 0x99202454 EQ PUSH2 0x5B0 JUMPI DUP1 PUSH4 0x9DC29FAC EQ PUSH2 0x5B8 JUMPI DUP1 PUSH4 0x9FF054DF EQ PUSH2 0x5CB JUMPI PUSH1 0x0 DUP1 REVERT JUMPDEST DUP1 PUSH4 0x7E7AA62E EQ PUSH2 0x533 JUMPI DUP1 PUSH4 0x8979C87C EQ PUSH2 0x53B JUMPI DUP1 PUSH4 0x8DA7AD23 EQ PUSH2 0x543 JUMPI DUP1 PUSH4 0x909A2FF6 EQ PUSH2 0x598 JUMPI DUP1 PUSH4 0x95D89B41 EQ PUSH2 0x5A0 JUMPI DUP1 PUSH4 0x962CA496 EQ PUSH2 0x5A8 JUMPI PUSH1 0x0 DUP1 REVERT JUMPDEST DUP1 PUSH4 0x2A62D966 GT PUSH2 0x292 JUMPI DUP1 PUSH4 0x543D3652 GT PUSH2 0x230 JUMPI DUP1 PUSH4 0x7010D7A1 GT PUSH2 0x20A JUMPI DUP1 PUSH4 0x7010D7A1 EQ PUSH2 0x497 JUMPI DUP1 PUSH4 0x70A08231 EQ PUSH2 0x4EF JUMPI DUP1 PUSH4 0x72475F94 EQ PUSH2 0x518 JUMPI DUP1 PUSH4 0x7B0472F0 EQ PUSH2 0x520 JUMPI PUSH1 0x0 DUP1 REVERT JUMPDEST DUP1 PUSH4 0x543D3652 EQ PUSH2 0x41D JUMPI DUP1 PUSH4 0x5BCCB4C4 EQ PUSH2 0x47A JUMPI DUP1 PUSH4 0x61A52A36 EQ PUSH2 0x48D JUMPI PUSH1 0x0 DUP1 REVERT JUMPDEST DUP1 PUSH4 0x39509351 GT PUSH2 0x26C JUMPI DUP1 PUSH4 0x39509351 EQ PUSH2 0x44F JUMPI DUP1 PUSH4 0x3CCFD60B EQ PUSH2 0x462 JUMPI DUP1 PUSH4 0x45125715 EQ PUSH2 0x46A JUMPI DUP1 PUSH4 0x52C7F8DC EQ PUSH2 0x472 JUMPI PUSH1 0x0 DUP1 REVERT JUMPDEST DUP1 PUSH4 0x2A62D966 EQ PUSH2 0x3B4 JUMPI DUP1 PUSH4 0x313CE567 EQ PUSH2 0x438 JUMPI DUP1 PUSH4 0x32870FDA EQ PUSH2 0x447 JUMPI PUSH1 0x0 DUP1 REVERT JUMPDEST DUP1 PUSH4 0x110D7FC2 GT PUSH2 0x2FF JUMPI DUP1 PUSH4 0x1C244082 GT PUSH2 0x2D9 JUMPI DUP1 PUSH4 0x1C244082 EQ PUSH2 0x3FF JUMPI DUP1 PUSH4 0x1C560305 EQ PUSH2 0x408 JUMPI DUP1 PUSH4 0x1C6F212E EQ PUSH2 0x41D JUMPI DUP1 PUSH4 0x23B872DD EQ PUSH2 0x425 JUMPI PUSH1 0x0 DUP1 REVERT JUMPDEST DUP1 PUSH4 0x110D7FC2 EQ PUSH2 0x3B4 JUMPI DUP1 PUSH4 0x16F9C8FD EQ PUSH2 0x3BC JUMPI DUP1 PUSH4 0x18160DDD EQ PUSH2 0x3F7 JUMPI PUSH1 0x0 DUP1 REVERT JUMPDEST DUP1 PUSH4 0x2378932 EQ PUSH2 0x347 JUMPI DUP1 PUSH4 0x69612A5 EQ PUSH2 0x363 JUMPI DUP1 PUSH4 0x6FDDE03 EQ PUSH2 0x36C JUMPI DUP1 PUSH4 0x95EA7B3 EQ PUSH2 0x381 JUMPI DUP1 PUSH4 0xBFAE56B EQ PUSH2 0x3A4 JUMPI DUP1 PUSH4 0xF2E1228 EQ PUSH2 0x3AC JUMPI JUMPDEST PUSH1 0x0 DUP1 REVERT JUMPDEST PUSH2 0x350 PUSH2 0x16D DUP2 JUMP JUMPDEST PUSH1 0x40 MLOAD SWAP1 DUP2 MSTORE PUSH1 0x20 ADD JUMPDEST PUSH1 0x40 MLOAD DUP1 SWAP2 SUB SWAP1 RETURN JUMPDEST PUSH2 0x350 PUSH1 0x8 SLOAD DUP2 JUMP JUMPDEST PUSH2 0x374 PUSH2 0x74B JUMP JUMPDEST PUSH1 0x40 MLOAD PUSH2 0x35A SWAP2 SWAP1 PUSH2 0x26A1 JUMP JUMPDEST PUSH2 0x394 PUSH2 0x38F CALLDATASIZE PUSH1 0x4 PUSH2 0x270B JUMP JUMPDEST PUSH2 0x7DD JUMP JUMPDEST PUSH1 0x40 MLOAD SWAP1 ISZERO ISZERO DUP2 MSTORE PUSH1 0x20 ADD PUSH2 0x35A JUMP JUMPDEST PUSH2 0x350 PUSH2 0x7F7 JUMP JUMPDEST PUSH2 0x350 PUSH1 0x63 DUP2 JUMP JUMPDEST PUSH2 0x350 PUSH1 0x0 DUP2 JUMP JUMPDEST PUSH2 0x3C4 PUSH2 0x808 JUMP JUMPDEST PUSH1 0x40 MLOAD PUSH2 0x35A SWAP2 SWAP1 DUP2 MLOAD DUP2 MSTORE PUSH1 0x20 DUP1 DUP4 ADD MLOAD SWAP1 DUP3 ADD MSTORE PUSH1 0x40 DUP1 DUP4 ADD MLOAD SWAP1 DUP3 ADD MSTORE PUSH1 0x60 SWAP2 DUP3 ADD MLOAD SWAP2 DUP2 ADD SWAP2 SWAP1 SWAP2 MSTORE PUSH1 0x80 ADD SWAP1 JUMP JUMPDEST PUSH1 0x2 SLOAD PUSH2 0x350 JUMP JUMPDEST PUSH2 0x350 PUSH1 0x5 SLOAD DUP2 JUMP JUMPDEST PUSH2 0x41B PUSH2 0x416 CALLDATASIZE PUSH1 0x4 PUSH2 0x270B JUMP JUMPDEST PUSH2 0x879 JUMP JUMPDEST STOP JUMPDEST PUSH2 0x350 PUSH1 0x1 DUP2 JUMP JUMPDEST PUSH2 0x394 PUSH2 0x433 CALLDATASIZE PUSH1 0x4 PUSH2 0x2735 JUMP JUMPDEST PUSH2 0xADA JUMP JUMPDEST PUSH1 0x40 MLOAD PUSH1 0x12 DUP2 MSTORE PUSH1 0x20 ADD PUSH2 0x35A JUMP JUMPDEST PUSH2 0x350 PUSH1 0x5A DUP2 JUMP JUMPDEST PUSH2 0x394 PUSH2 0x45D CALLDATASIZE PUSH1 0x4 PUSH2 0x270B JUMP JUMPDEST PUSH2 0xAFE JUMP JUMPDEST PUSH2 0x41B PUSH2 0xB20 JUMP JUMPDEST PUSH2 0x350 PUSH2 0xC74 JUMP JUMPDEST PUSH2 0x41B PUSH2 0xC83 JUMP JUMPDEST PUSH2 0x41B PUSH2 0x488 CALLDATASIZE PUSH1 0x4 PUSH2 0x2771 JUMP JUMPDEST PUSH2 0xDA6 JUMP JUMPDEST PUSH2 0x350 PUSH3 0x15180 DUP2 JUMP JUMPDEST PUSH2 0x49F PUSH2 0x10FD JUMP JUMPDEST PUSH1 0x40 MLOAD PUSH2 0x35A SWAP2 SWAP1 DUP2 MLOAD PUSH1 0x1 PUSH1 0x1 PUSH1 0xA0 SHL SUB AND DUP2 MSTORE PUSH1 0x20 DUP1 DUP4 ADD MLOAD SWAP1 DUP3 ADD MSTORE PUSH1 0x40 DUP1 DUP4 ADD MLOAD SWAP1 DUP3 ADD MSTORE PUSH1 0x60 DUP1 DUP4 ADD MLOAD SWAP1 DUP3 ADD MSTORE PUSH1 0x80 DUP1 DUP4 ADD MLOAD SWAP1 DUP3 ADD MSTORE PUSH1 0xA0 SWAP2 DUP3 ADD MLOAD SWAP2 DUP2 ADD SWAP2 SWAP1 SWAP2 MSTORE PUSH1 0xC0 ADD SWAP1 JUMP JUMPDEST PUSH2 0x350 PUSH2 0x4FD CALLDATASIZE PUSH1 0x4 PUSH2 0x2793 JUMP JUMPDEST PUSH1 0x1 PUSH1 0x1 PUSH1 0xA0 SHL SUB AND PUSH1 0x0 SWAP1 DUP2 MSTORE PUSH1 0x20 DUP2 SWAP1 MSTORE PUSH1 0x40 SWAP1 KECCAK256 SLOAD SWAP1 JUMP JUMPDEST PUSH2 0x350 PUSH1 0xF DUP2 JUMP JUMPDEST PUSH2 0x41B PUSH2 0x52E CALLDATASIZE PUSH1 0x4 PUSH2 0x2771 JUMP JUMPDEST PUSH2 0x11A2 JUMP JUMPDEST PUSH2 0x350 PUSH1 0x2 DUP2 JUMP JUMPDEST PUSH2 0x350 PUSH2 0x13C0 JUMP JUMPDEST PUSH2 0x578 PUSH2 0x551 CALLDATASIZE PUSH1 0x4 PUSH2 0x2793 JUMP JUMPDEST PUSH1 0xA PUSH1 0x20 MSTORE PUSH1 0x0 SWAP1 DUP2 MSTORE PUSH1 0x40 SWAP1 KECCAK256 DUP1 SLOAD PUSH1 0x1 DUP3 ADD SLOAD PUSH1 0x2 DUP4 ADD SLOAD PUSH1 0x3 SWAP1 SWAP4 ADD SLOAD SWAP2 SWAP3 SWAP1 SWAP2 DUP5 JUMP JUMPDEST PUSH1 0x40 DUP1 MLOAD SWAP5 DUP6 MSTORE PUSH1 0x20 DUP6 ADD SWAP4 SWAP1 SWAP4 MSTORE SWAP2 DUP4 ADD MSTORE PUSH1 0x60 DUP3 ADD MSTORE PUSH1 0x80 ADD PUSH2 0x35A JUMP JUMPDEST PUSH2 0x350 PUSH1 0x64 DUP2 JUMP JUMPDEST PUSH2 0x374 PUSH2 0x13CA JUMP JUMPDEST PUSH2 0x350 PUSH2 0x13D9 JUMP JUMPDEST PUSH2 0x350 PUSH2 0x13E3 JUMP JUMPDEST PUSH2 0x41B PUSH2 0x5C6 CALLDATASIZE PUSH1 0x4 PUSH2 0x270B JUMP JUMPDEST PUSH2 0x13ED JUMP JUMPDEST PUSH2 0x41B PUSH2 0x5D9 CALLDATASIZE PUSH1 0x4 PUSH2 0x27AE JUMP JUMPDEST PUSH2 0x159F JUMP JUMPDEST PUSH2 0x394 PUSH2 0x5EC CALLDATASIZE PUSH1 0x4 PUSH2 0x270B JUMP JUMPDEST PUSH2 0x1818 JUMP JUMPDEST PUSH2 0x394 PUSH2 0x5FF CALLDATASIZE PUSH1 0x4 PUSH2 0x270B JUMP JUMPDEST PUSH2 0x1893 JUMP JUMPDEST PUSH2 0x350 PUSH2 0x612 CALLDATASIZE PUSH1 0x4 PUSH2 0x27C7 JUMP JUMPDEST PUSH2 0x18A1 JUMP JUMPDEST PUSH2 0x350 PUSH2 0x1388 DUP2 JUMP JUMPDEST PUSH2 0x350 PUSH1 0x6 SLOAD DUP2 JUMP JUMPDEST PUSH2 0x374 PUSH2 0x1931 JUMP JUMPDEST PUSH2 0x350 PUSH2 0x194D JUMP JUMPDEST PUSH2 0x350 PUSH1 0x7 DUP2 JUMP JUMPDEST PUSH2 0x350 PUSH2 0x64F CALLDATASIZE PUSH1 0x4 PUSH2 0x2793 JUMP JUMPDEST PUSH1 0xB PUSH1 0x20 MSTORE PUSH1 0x0 SWAP1 DUP2 MSTORE PUSH1 0x40 SWAP1 KECCAK256 SLOAD DUP2 JUMP JUMPDEST PUSH2 0x350 PUSH2 0x66F CALLDATASIZE PUSH1 0x4 PUSH2 0x27F9 JUMP JUMPDEST PUSH2 0x195C JUMP JUMPDEST PUSH2 0x6C1 PUSH2 0x682 CALLDATASIZE PUSH1 0x4 PUSH2 0x2793 JUMP JUMPDEST PUSH1 0x9 PUSH1 0x20 MSTORE PUSH1 0x0 SWAP1 DUP2 MSTORE PUSH1 0x40 SWAP1 KECCAK256 DUP1 SLOAD PUSH1 0x1 DUP3 ADD SLOAD PUSH1 0x2 DUP4 ADD SLOAD PUSH1 0x3 DUP5 ADD SLOAD PUSH1 0x4 DUP6 ADD SLOAD PUSH1 0x5 SWAP1 SWAP6 ADD SLOAD PUSH1 0x1 PUSH1 0x1 PUSH1 0xA0 SHL SUB SWAP1 SWAP5 AND SWAP5 SWAP3 SWAP4 SWAP2 SWAP3 SWAP1 SWAP2 DUP7 JUMP JUMPDEST PUSH1 0x40 DUP1 MLOAD PUSH1 0x1 PUSH1 0x1 PUSH1 0xA0 SHL SUB SWAP1 SWAP8 AND DUP8 MSTORE PUSH1 0x20 DUP8 ADD SWAP6 SWAP1 SWAP6 MSTORE SWAP4 DUP6 ADD SWAP3 SWAP1 SWAP3 MSTORE PUSH1 0x60 DUP5 ADD MSTORE PUSH1 0x80 DUP4 ADD MSTORE PUSH1 0xA0 DUP3 ADD MSTORE PUSH1 0xC0 ADD PUSH2 0x35A JUMP JUMPDEST PUSH2 0x350 PUSH32 0x0 DUP2 JUMP JUMPDEST PUSH2 0x350 PUSH2 0xBB8 DUP2 JUMP JUMPDEST PUSH2 0x350 PUSH1 0x7 SLOAD DUP2 JUMP JUMPDEST PUSH2 0x350 PUSH2 0x1987 JUMP JUMPDEST PUSH2 0x350 PUSH3 0x186A0 DUP2 JUMP JUMPDEST PUSH2 0x350 PUSH1 0x14 DUP2 JUMP JUMPDEST PUSH1 0x60 PUSH1 0x3 DUP1 SLOAD PUSH2 0x75A SWAP1 PUSH2 0x282C JUMP JUMPDEST DUP1 PUSH1 0x1F ADD PUSH1 0x20 DUP1 SWAP2 DIV MUL PUSH1 0x20 ADD PUSH1 0x40 MLOAD SWAP1 DUP2 ADD PUSH1 0x40 MSTORE DUP1 SWAP3 SWAP2 SWAP1 DUP2 DUP2 MSTORE PUSH1 0x20 ADD DUP3 DUP1 SLOAD PUSH2 0x786 SWAP1 PUSH2 0x282C JUMP JUMPDEST DUP1 ISZERO PUSH2 0x7D3 JUMPI DUP1 PUSH1 0x1F LT PUSH2 0x7A8 JUMPI PUSH2 0x100 DUP1 DUP4 SLOAD DIV MUL DUP4 MSTORE SWAP2 PUSH1 0x20 ADD SWAP2 PUSH2 0x7D3 JUMP JUMPDEST DUP3 ADD SWAP2 SWAP1 PUSH1 0x0 MSTORE PUSH1 0x20 PUSH1 0x0 KECCAK256 SWAP1 JUMPDEST DUP2 SLOAD DUP2 MSTORE SWAP1 PUSH1 0x1 ADD SWAP1 PUSH1 0x20 ADD DUP1 DUP4 GT PUSH2 0x7B6 JUMPI DUP3 SWAP1 SUB PUSH1 0x1F AND DUP3 ADD SWAP2 JUMPDEST POP POP POP POP POP SWAP1 POP SWAP1 JUMP JUMPDEST PUSH1 0x0 CALLER PUSH2 0x7EB DUP2 DUP6 DUP6 PUSH2 0x19A0 JUMP JUMPDEST PUSH1 0x1 SWAP2 POP POP JUMPDEST SWAP3 SWAP2 POP POP JUMP JUMPDEST PUSH2 0x805 PUSH3 0x15180 PUSH1 0x64 PUSH2 0x287C JUMP JUMPDEST DUP2 JUMP JUMPDEST PUSH2 0x833 PUSH1 0x40 MLOAD DUP1 PUSH1 0x80 ADD PUSH1 0x40 MSTORE DUP1 PUSH1 0x0 DUP2 MSTORE PUSH1 0x20 ADD PUSH1 0x0 DUP2 MSTORE PUSH1 0x20 ADD PUSH1 0x0 DUP2 MSTORE PUSH1 0x20 ADD PUSH1 0x0 DUP2 MSTORE POP SWAP1 JUMP JUMPDEST POP CALLER PUSH1 0x0 SWAP1 DUP2 MSTORE PUSH1 0xA PUSH1 0x20 SWAP1 DUP2 MSTORE PUSH1 0x40 SWAP2 DUP3 SWAP1 KECCAK256 DUP3 MLOAD PUSH1 0x80 DUP2 ADD DUP5 MSTORE DUP2 SLOAD DUP2 MSTORE PUSH1 0x1 DUP3 ADD SLOAD SWAP3 DUP2 ADD SWAP3 SWAP1 SWAP3 MSTORE PUSH1 0x2 DUP2 ADD SLOAD SWAP3 DUP3 ADD SWAP3 SWAP1 SWAP3 MSTORE PUSH1 0x3 SWAP1 SWAP2 ADD SLOAD PUSH1 0x60 DUP3 ADD MSTORE SWAP1 JUMP JUMPDEST CALLER PUSH1 0x0 SWAP1 DUP2 MSTORE PUSH1 0x9 PUSH1 0x20 SWAP1 DUP2 MSTORE PUSH1 0x40 SWAP2 DUP3 SWAP1 KECCAK256 DUP3 MLOAD PUSH1 0xC0 DUP2 ADD DUP5 MSTORE DUP2 SLOAD PUSH1 0x1 PUSH1 0x1 PUSH1 0xA0 SHL SUB SWAP1 DUP2 AND DUP3 MSTORE PUSH1 0x1 DUP4 ADD SLOAD SWAP4 DUP3 ADD SWAP4 SWAP1 SWAP4 MSTORE PUSH1 0x2 DUP3 ADD SLOAD SWAP4 DUP2 ADD SWAP4 SWAP1 SWAP4 MSTORE PUSH1 0x3 DUP2 ADD SLOAD PUSH1 0x60 DUP5 ADD MSTORE PUSH1 0x4 DUP2 ADD SLOAD PUSH1 0x80 DUP5 ADD MSTORE PUSH1 0x5 ADD SLOAD PUSH1 0xA0 DUP4 ADD MSTORE DUP4 AND PUSH2 0x939 JUMPI PUSH1 0x40 MLOAD PUSH3 0x461BCD PUSH1 0xE5 SHL DUP2 MSTORE PUSH1 0x20 PUSH1 0x4 DUP3 ADD MSTORE PUSH1 0x25 PUSH1 0x24 DUP3 ADD MSTORE PUSH32 0x4352616E6B3A2043616E6E6F742073686172652077697468207A65726F206164 PUSH1 0x44 DUP3 ADD MSTORE PUSH5 0x6472657373 PUSH1 0xD8 SHL PUSH1 0x64 DUP3 ADD MSTORE PUSH1 0x84 ADD JUMPDEST PUSH1 0x40 MLOAD DUP1 SWAP2 SUB SWAP1 REVERT JUMPDEST PUSH1 0x0 DUP3 GT PUSH2 0x989 JUMPI PUSH1 0x40 MLOAD PUSH3 0x461BCD PUSH1 0xE5 SHL DUP2 MSTORE PUSH1 0x20 PUSH1 0x4 DUP3 ADD DUP2 SWAP1 MSTORE PUSH1 0x24 DUP3 ADD MSTORE PUSH32 0x4352616E6B3A2043616E6E6F74207368617265207A65726F2070657263656E74 PUSH1 0x44 DUP3 ADD MSTORE PUSH1 0x64 ADD PUSH2 0x930 JUMP JUMPDEST PUSH1 0x65 DUP3 LT PUSH2 0x9D9 JUMPI PUSH1 0x40 MLOAD PUSH3 0x461BCD PUSH1 0xE5 SHL DUP2 MSTORE PUSH1 0x20 PUSH1 0x4 DUP3 ADD DUP2 SWAP1 MSTORE PUSH1 0x24 DUP3 ADD MSTORE PUSH32 0x4352616E6B3A2043616E6E6F74207368617265203130302B2070657263656E74 PUSH1 0x44 DUP3 ADD MSTORE PUSH1 0x64 ADD PUSH2 0x930 JUMP JUMPDEST PUSH1 0x0 DUP2 PUSH1 0x60 ADD MLOAD GT PUSH2 0x9FD JUMPI PUSH1 0x40 MLOAD PUSH3 0x461BCD PUSH1 0xE5 SHL DUP2 MSTORE PUSH1 0x4 ADD PUSH2 0x930 SWAP1 PUSH2 0x2893 JUMP JUMPDEST DUP1 PUSH1 0x40 ADD MLOAD TIMESTAMP GT PUSH2 0xA20 JUMPI PUSH1 0x40 MLOAD PUSH3 0x461BCD PUSH1 0xE5 SHL DUP2 MSTORE PUSH1 0x4 ADD PUSH2 0x930 SWAP1 PUSH2 0x28C2 JUMP JUMPDEST PUSH1 0x0 PUSH2 0xA43 DUP3 PUSH1 0x60 ADD MLOAD DUP4 PUSH1 0x20 ADD MLOAD DUP5 PUSH1 0x40 ADD MLOAD DUP6 PUSH1 0x80 ADD MLOAD DUP7 PUSH1 0xA0 ADD MLOAD PUSH2 0x1AC5 JUMP JUMPDEST PUSH2 0xA55 SWAP1 PUSH8 0xDE0B6B3A7640000 PUSH2 0x287C JUMP JUMPDEST SWAP1 POP PUSH1 0x0 PUSH1 0x64 PUSH2 0xA65 DUP6 DUP5 PUSH2 0x287C JUMP JUMPDEST PUSH2 0xA6F SWAP2 SWAP1 PUSH2 0x290D JUMP JUMPDEST SWAP1 POP PUSH1 0x0 PUSH2 0xA7D DUP3 DUP5 PUSH2 0x292F JUMP JUMPDEST SWAP1 POP PUSH2 0xA8A CALLER JUMPDEST DUP3 PUSH2 0x1BC3 JUMP JUMPDEST PUSH2 0xA94 DUP7 DUP4 PUSH2 0x1BC3 JUMP JUMPDEST PUSH2 0xA9C PUSH2 0x1CA2 JUMP JUMPDEST PUSH1 0x40 MLOAD DUP4 DUP2 MSTORE CALLER SWAP1 PUSH32 0xD74752B13281DF13701575F3A507E9B1242E0B5FB040143211C481C1FCE573A6 SWAP1 PUSH1 0x20 ADD JUMPDEST PUSH1 0x40 MLOAD DUP1 SWAP2 SUB SWAP1 LOG2 POP POP POP POP POP POP JUMP JUMPDEST PUSH1 0x0 CALLER PUSH2 0xAE8 DUP6 DUP3 DUP6 PUSH2 0x1CF6 JUMP JUMPDEST PUSH2 0xAF3 DUP6 DUP6 DUP6 PUSH2 0x1D70 JUMP JUMPDEST POP PUSH1 0x1 SWAP5 SWAP4 POP POP POP POP JUMP JUMPDEST PUSH1 0x0 CALLER PUSH2 0x7EB DUP2 DUP6 DUP6 PUSH2 0xB11 DUP4 DUP4 PUSH2 0x195C JUMP JUMPDEST PUSH2 0xB1B SWAP2 SWAP1 PUSH2 0x2942 JUMP JUMPDEST PUSH2 0x19A0 JUMP JUMPDEST CALLER PUSH1 0x0 SWAP1 DUP2 MSTORE PUSH1 0xA PUSH1 0x20 SWAP1 DUP2 MSTORE PUSH1 0x40 SWAP2 DUP3 SWAP1 KECCAK256 DUP3 MLOAD PUSH1 0x80 DUP2 ADD DUP5 MSTORE DUP2 SLOAD DUP2 MSTORE PUSH1 0x1 DUP3 ADD SLOAD SWAP3 DUP2 ADD SWAP3 SWAP1 SWAP3 MSTORE PUSH1 0x2 DUP2 ADD SLOAD SWAP3 DUP3 ADD DUP4 SWAP1 MSTORE PUSH1 0x3 ADD SLOAD PUSH1 0x60 DUP3 ADD MSTORE SWAP1 PUSH2 0xBA3 JUMPI PUSH1 0x40 MLOAD PUSH3 0x461BCD PUSH1 0xE5 SHL DUP2 MSTORE PUSH1 0x20 PUSH1 0x4 DUP3 ADD MSTORE PUSH1 0x14 PUSH1 0x24 DUP3 ADD MSTORE PUSH20 0x58454E3A206E6F207374616B6520657869737473 PUSH1 0x60 SHL PUSH1 0x44 DUP3 ADD MSTORE PUSH1 0x64 ADD PUSH2 0x930 JUMP JUMPDEST PUSH1 0x0 PUSH2 0xBC1 DUP3 PUSH1 0x40 ADD MLOAD DUP4 PUSH1 0x0 ADD MLOAD DUP5 PUSH1 0x20 ADD MLOAD DUP6 PUSH1 0x60 ADD MLOAD PUSH2 0x1F3E JUMP JUMPDEST PUSH1 0x7 DUP1 SLOAD SWAP2 SWAP3 POP PUSH1 0x0 PUSH2 0xBD3 DUP4 PUSH2 0x2955 JUMP JUMPDEST SWAP2 SWAP1 POP SSTORE POP DUP2 PUSH1 0x40 ADD MLOAD PUSH1 0x8 PUSH1 0x0 DUP3 DUP3 SLOAD PUSH2 0xBEE SWAP2 SWAP1 PUSH2 0x292F JUMP JUMPDEST SWAP1 SWAP2 SSTORE POP PUSH2 0xC0D SWAP1 POP CALLER DUP3 DUP5 PUSH1 0x40 ADD MLOAD PUSH2 0xC08 SWAP2 SWAP1 PUSH2 0x2942 JUMP JUMPDEST PUSH2 0x1BC3 JUMP JUMPDEST PUSH1 0x40 DUP1 DUP4 ADD MLOAD DUP2 MLOAD SWAP1 DUP2 MSTORE PUSH1 0x20 DUP2 ADD DUP4 SWAP1 MSTORE CALLER SWAP2 PUSH32 0x92CCF450A286A957AF52509BC1C9939D1A6A481783E142E41E2499F0BB66EBC6 SWAP2 ADD PUSH1 0x40 MLOAD DUP1 SWAP2 SUB SWAP1 LOG2 POP POP CALLER PUSH1 0x0 SWAP1 DUP2 MSTORE PUSH1 0xA PUSH1 0x20 MSTORE PUSH1 0x40 DUP2 KECCAK256 DUP2 DUP2 SSTORE PUSH1 0x1 DUP2 ADD DUP3 SWAP1 SSTORE PUSH1 0x2 DUP2 ADD DUP3 SWAP1 SSTORE PUSH1 0x3 ADD SSTORE JUMP JUMPDEST PUSH1 0x0 PUSH2 0xC7E PUSH2 0x1F9C JUMP JUMPDEST SWAP1 POP SWAP1 JUMP JUMPDEST CALLER PUSH1 0x0 SWAP1 DUP2 MSTORE PUSH1 0x9 PUSH1 0x20 SWAP1 DUP2 MSTORE PUSH1 0x40 SWAP2 DUP3 SWAP1 KECCAK256 DUP3 MLOAD PUSH1 0xC0 DUP2 ADD DUP5 MSTORE DUP2 SLOAD PUSH1 0x1 PUSH1 0x1 PUSH1 0xA0 SHL SUB AND DUP2 MSTORE PUSH1 0x1 DUP3 ADD SLOAD SWAP3 DUP2 ADD SWAP3 SWAP1 SWAP3 MSTORE PUSH1 0x2 DUP2 ADD SLOAD SWAP3 DUP3 ADD SWAP3 SWAP1 SWAP3 MSTORE PUSH1 0x3 DUP3 ADD SLOAD PUSH1 0x60 DUP3 ADD DUP2 SWAP1 MSTORE PUSH1 0x4 DUP4 ADD SLOAD PUSH1 0x80 DUP4 ADD MSTORE PUSH1 0x5 SWAP1 SWAP3 ADD SLOAD PUSH1 0xA0 DUP3 ADD MSTORE SWAP1 PUSH2 0xD01 JUMPI PUSH1 0x40 MLOAD PUSH3 0x461BCD PUSH1 0xE5 SHL DUP2 MSTORE PUSH1 0x4 ADD PUSH2 0x930 SWAP1 PUSH2 0x2893 JUMP JUMPDEST DUP1 PUSH1 0x40 ADD MLOAD TIMESTAMP GT PUSH2 0xD24 JUMPI PUSH1 0x40 MLOAD PUSH3 0x461BCD PUSH1 0xE5 SHL DUP2 MSTORE PUSH1 0x4 ADD PUSH2 0x930 SWAP1 PUSH2 0x28C2 JUMP JUMPDEST PUSH1 0x0 PUSH2 0xD47 DUP3 PUSH1 0x60 ADD MLOAD DUP4 PUSH1 0x20 ADD MLOAD DUP5 PUSH1 0x40 ADD MLOAD DUP6 PUSH1 0x80 ADD MLOAD DUP7 PUSH1 0xA0 ADD MLOAD PUSH2 0x1AC5 JUMP JUMPDEST PUSH2 0xD59 SWAP1 PUSH8 0xDE0B6B3A7640000 PUSH2 0x287C JUMP JUMPDEST SWAP1 POP PUSH2 0xD64 CALLER PUSH2 0xA84 JUMP JUMPDEST PUSH2 0xD6C PUSH2 0x1CA2 JUMP JUMPDEST PUSH1 0x40 MLOAD DUP2 DUP2 MSTORE CALLER SWAP1 PUSH32 0xD74752B13281DF13701575F3A507E9B1242E0B5FB040143211C481C1FCE573A6 SWAP1 PUSH1 0x20 ADD JUMPDEST PUSH1 0x40 MLOAD DUP1 SWAP2 SUB SWAP1 LOG2 POP POP JUMP JUMPDEST CALLER PUSH1 0x0 SWAP1 DUP2 MSTORE PUSH1 0x9 PUSH1 0x20 SWAP1 DUP2 MSTORE PUSH1 0x40 SWAP2 DUP3 SWAP1 KECCAK256 DUP3 MLOAD PUSH1 0xC0 DUP2 ADD DUP5 MSTORE DUP2 SLOAD PUSH1 0x1 PUSH1 0x1 PUSH1 0xA0 SHL SUB AND DUP2 MSTORE PUSH1 0x1 DUP3 ADD SLOAD SWAP3 DUP2 ADD SWAP3 SWAP1 SWAP3 MSTORE PUSH1 0x2 DUP2 ADD SLOAD SWAP3 DUP3 ADD SWAP3 SWAP1 SWAP3 MSTORE PUSH1 0x3 DUP3 ADD SLOAD PUSH1 0x60 DUP3 ADD MSTORE PUSH1 0x4 DUP3 ADD SLOAD PUSH1 0x80 DUP3 ADD MSTORE PUSH1 0x5 SWAP1 SWAP2 ADD SLOAD PUSH1 0xA0 DUP3 ADD MSTORE PUSH1 0x65 DUP4 LT PUSH2 0xE55 JUMPI PUSH1 0x40 MLOAD PUSH3 0x461BCD PUSH1 0xE5 SHL DUP2 MSTORE PUSH1 0x20 PUSH1 0x4 DUP3 ADD DUP2 SWAP1 MSTORE PUSH1 0x24 DUP3 ADD MSTORE PUSH32 0x4352616E6B3A2043616E6E6F74207368617265203E3130302070657263656E74 PUSH1 0x44 DUP3 ADD MSTORE PUSH1 0x64 ADD PUSH2 0x930 JUMP JUMPDEST PUSH1 0x0 DUP2 PUSH1 0x60 ADD MLOAD GT PUSH2 0xE79 JUMPI PUSH1 0x40 MLOAD PUSH3 0x461BCD PUSH1 0xE5 SHL DUP2 MSTORE PUSH1 0x4 ADD PUSH2 0x930 SWAP1 PUSH2 0x2893 JUMP JUMPDEST DUP1 PUSH1 0x40 ADD MLOAD TIMESTAMP GT PUSH2 0xE9C JUMPI PUSH1 0x40 MLOAD PUSH3 0x461BCD PUSH1 0xE5 SHL DUP2 MSTORE PUSH1 0x4 ADD PUSH2 0x930 SWAP1 PUSH2 0x28C2 JUMP JUMPDEST PUSH1 0x0 PUSH2 0xEBF DUP3 PUSH1 0x60 ADD MLOAD DUP4 PUSH1 0x20 ADD MLOAD DUP5 PUSH1 0x40 ADD MLOAD DUP6 PUSH1 0x80 ADD MLOAD DUP7 PUSH1 0xA0 ADD MLOAD PUSH2 0x1AC5 JUMP JUMPDEST PUSH2 0xED1 SWAP1 PUSH8 0xDE0B6B3A7640000 PUSH2 0x287C JUMP JUMPDEST SWAP1 POP PUSH1 0x0 PUSH1 0x64 PUSH2 0xEE1 DUP7 DUP5 PUSH2 0x287C JUMP JUMPDEST PUSH2 0xEEB SWAP2 SWAP1 PUSH2 0x290D JUMP JUMPDEST SWAP1 POP PUSH1 0x0 PUSH2 0xEF9 DUP3 DUP5 PUSH2 0x292F JUMP JUMPDEST SWAP1 POP PUSH2 0xF04 CALLER PUSH2 0xA84 JUMP JUMPDEST PUSH2 0xF0C PUSH2 0x1CA2 JUMP JUMPDEST PUSH1 0x40 MLOAD DUP4 DUP2 MSTORE CALLER SWAP1 PUSH32 0xD74752B13281DF13701575F3A507E9B1242E0B5FB040143211C481C1FCE573A6 SWAP1 PUSH1 0x20 ADD PUSH1 0x40 MLOAD DUP1 SWAP2 SUB SWAP1 LOG2 PUSH1 0x0 DUP3 GT PUSH2 0xF88 JUMPI PUSH1 0x40 MLOAD PUSH3 0x461BCD PUSH1 0xE5 SHL DUP2 MSTORE PUSH1 0x20 PUSH1 0x4 DUP3 ADD MSTORE PUSH1 0x14 PUSH1 0x24 DUP3 ADD MSTORE PUSH20 0x58454E3A2042656C6F77206D696E207374616B65 PUSH1 0x60 SHL PUSH1 0x44 DUP3 ADD MSTORE PUSH1 0x64 ADD PUSH2 0x930 JUMP JUMPDEST PUSH1 0x1 PUSH2 0xF97 PUSH3 0x15180 DUP3 PUSH2 0x287C JUMP JUMPDEST PUSH2 0xFA1 SWAP2 SWAP1 PUSH2 0x292F JUMP JUMPDEST PUSH2 0xFAE PUSH3 0x15180 DUP8 PUSH2 0x287C JUMP JUMPDEST GT PUSH2 0xFF7 JUMPI PUSH1 0x40 MLOAD PUSH3 0x461BCD PUSH1 0xE5 SHL DUP2 MSTORE PUSH1 0x20 PUSH1 0x4 DUP3 ADD MSTORE PUSH1 0x19 PUSH1 0x24 DUP3 ADD MSTORE PUSH25 0x58454E3A2042656C6F77206D696E207374616B65207465726D PUSH1 0x38 SHL PUSH1 0x44 DUP3 ADD MSTORE PUSH1 0x64 ADD PUSH2 0x930 JUMP JUMPDEST PUSH2 0x1006 PUSH3 0x15180 PUSH2 0x3E8 PUSH2 0x287C JUMP JUMPDEST PUSH2 0x1011 SWAP1 PUSH1 0x1 PUSH2 0x2942 JUMP JUMPDEST PUSH2 0x101E PUSH3 0x15180 DUP8 PUSH2 0x287C JUMP JUMPDEST LT PUSH2 0x1067 JUMPI PUSH1 0x40 MLOAD PUSH3 0x461BCD PUSH1 0xE5 SHL DUP2 MSTORE PUSH1 0x20 PUSH1 0x4 DUP3 ADD MSTORE PUSH1 0x19 PUSH1 0x24 DUP3 ADD MSTORE PUSH25 0x58454E3A2041626F7665206D6178207374616B65207465726D PUSH1 0x38 SHL PUSH1 0x44 DUP3 ADD MSTORE PUSH1 0x64 ADD PUSH2 0x930 JUMP JUMPDEST CALLER PUSH1 0x0 SWAP1 DUP2 MSTORE PUSH1 0xA PUSH1 0x20 MSTORE PUSH1 0x40 SWAP1 KECCAK256 PUSH1 0x2 ADD SLOAD ISZERO PUSH2 0x10BB JUMPI PUSH1 0x40 MLOAD PUSH3 0x461BCD PUSH1 0xE5 SHL DUP2 MSTORE PUSH1 0x20 PUSH1 0x4 DUP3 ADD MSTORE PUSH1 0x11 PUSH1 0x24 DUP3 ADD MSTORE PUSH17 0x58454E3A207374616B6520657869737473 PUSH1 0x78 SHL PUSH1 0x44 DUP3 ADD MSTORE PUSH1 0x64 ADD PUSH2 0x930 JUMP JUMPDEST PUSH2 0x10C5 DUP3 DUP7 PUSH2 0x20A3 JUMP JUMPDEST PUSH1 0x40 DUP1 MLOAD DUP4 DUP2 MSTORE PUSH1 0x20 DUP2 ADD DUP8 SWAP1 MSTORE CALLER SWAP2 PUSH32 0x1449C6DD7851ABC30ABF37F57715F492010519147CC2652FBC38202C18A6EE90 SWAP2 ADD PUSH2 0xACA JUMP JUMPDEST PUSH2 0x113F PUSH1 0x40 MLOAD DUP1 PUSH1 0xC0 ADD PUSH1 0x40 MSTORE DUP1 PUSH1 0x0 PUSH1 0x1 PUSH1 0x1 PUSH1 0xA0 SHL SUB AND DUP2 MSTORE PUSH1 0x20 ADD PUSH1 0x0 DUP2 MSTORE PUSH1 0x20 ADD PUSH1 0x0 DUP2 MSTORE PUSH1 0x20 ADD PUSH1 0x0 DUP2 MSTORE PUSH1 0x20 ADD PUSH1 0x0 DUP2 MSTORE PUSH1 0x20 ADD PUSH1 0x0 DUP2 MSTORE POP SWAP1 JUMP JUMPDEST POP CALLER PUSH1 0x0 SWAP1 DUP2 MSTORE PUSH1 0x9 PUSH1 0x20 SWAP1 DUP2 MSTORE PUSH1 0x40 SWAP2 DUP3 SWAP1 KECCAK256 DUP3 MLOAD PUSH1 0xC0 DUP2 ADD DUP5 MSTORE DUP2 SLOAD PUSH1 0x1 PUSH1 0x1 PUSH1 0xA0 SHL SUB AND DUP2 MSTORE PUSH1 0x1 DUP3 ADD SLOAD SWAP3 DUP2 ADD SWAP3 SWAP1 SWAP3 MSTORE PUSH1 0x2 DUP2 ADD SLOAD SWAP3 DUP3 ADD SWAP3 SWAP1 SWAP3 MSTORE PUSH1 0x3 DUP3 ADD SLOAD PUSH1 0x60 DUP3 ADD MSTORE PUSH1 0x4 DUP3 ADD SLOAD PUSH1 0x80 DUP3 ADD MSTORE PUSH1 0x5 SWAP1 SWAP2 ADD SLOAD PUSH1 0xA0 DUP3 ADD MSTORE SWAP1 JUMP JUMPDEST DUP2 PUSH2 0x11AC CALLER PUSH2 0x4FD JUMP JUMPDEST LT ISZERO PUSH2 0x11FA JUMPI PUSH1 0x40 MLOAD PUSH3 0x461BCD PUSH1 0xE5 SHL DUP2 MSTORE PUSH1 0x20 PUSH1 0x4 DUP3 ADD MSTORE PUSH1 0x17 PUSH1 0x24 DUP3 ADD MSTORE PUSH32 0x58454E3A206E6F7420656E6F7567682062616C616E6365000000000000000000 PUSH1 0x44 DUP3 ADD MSTORE PUSH1 0x64 ADD PUSH2 0x930 JUMP JUMPDEST PUSH1 0x0 DUP3 GT PUSH2 0x1241 JUMPI PUSH1 0x40 MLOAD PUSH3 0x461BCD PUSH1 0xE5 SHL DUP2 MSTORE PUSH1 0x20 PUSH1 0x4 DUP3 ADD MSTORE PUSH1 0x14 PUSH1 0x24 DUP3 ADD MSTORE PUSH20 0x58454E3A2042656C6F77206D696E207374616B65 PUSH1 0x60 SHL PUSH1 0x44 DUP3 ADD MSTORE PUSH1 0x64 ADD PUSH2 0x930 JUMP JUMPDEST PUSH1 0x1 PUSH2 0x1250 PUSH3 0x15180 DUP3 PUSH2 0x287C JUMP JUMPDEST PUSH2 0x125A SWAP2 SWAP1 PUSH2 0x292F JUMP JUMPDEST PUSH2 0x1267 PUSH3 0x15180 DUP4 PUSH2 0x287C JUMP JUMPDEST GT PUSH2 0x12B0 JUMPI PUSH1 0x40 MLOAD PUSH3 0x461BCD PUSH1 0xE5 SHL DUP2 MSTORE PUSH1 0x20 PUSH1 0x4 DUP3 ADD MSTORE PUSH1 0x19 PUSH1 0x24 DUP3 ADD MSTORE PUSH25 0x58454E3A2042656C6F77206D696E207374616B65207465726D PUSH1 0x38 SHL PUSH1 0x44 DUP3 ADD MSTORE PUSH1 0x64 ADD PUSH2 0x930 JUMP JUMPDEST PUSH2 0x12BF PUSH3 0x15180 PUSH2 0x3E8 PUSH2 0x287C JUMP JUMPDEST PUSH2 0x12CA SWAP1 PUSH1 0x1 PUSH2 0x2942 JUMP JUMPDEST PUSH2 0x12D7 PUSH3 0x15180 DUP4 PUSH2 0x287C JUMP JUMPDEST LT PUSH2 0x1320 JUMPI PUSH1 0x40 MLOAD PUSH3 0x461BCD PUSH1 0xE5 SHL DUP2 MSTORE PUSH1 0x20 PUSH1 0x4 DUP3 ADD MSTORE PUSH1 0x19 PUSH1 0x24 DUP3 ADD MSTORE PUSH25 0x58454E3A2041626F7665206D6178207374616B65207465726D PUSH1 0x38 SHL PUSH1 0x44 DUP3 ADD MSTORE PUSH1 0x64 ADD PUSH2 0x930 JUMP JUMPDEST CALLER PUSH1 0x0 SWAP1 DUP2 MSTORE PUSH1 0xA PUSH1 0x20 MSTORE PUSH1 0x40 SWAP1 KECCAK256 PUSH1 0x2 ADD SLOAD ISZERO PUSH2 0x1374 JUMPI PUSH1 0x40 MLOAD PUSH3 0x461BCD PUSH1 0xE5 SHL DUP2 MSTORE PUSH1 0x20 PUSH1 0x4 DUP3 ADD MSTORE PUSH1 0x11 PUSH1 0x24 DUP3 ADD MSTORE PUSH17 0x58454E3A207374616B6520657869737473 PUSH1 0x78 SHL PUSH1 0x44 DUP3 ADD MSTORE PUSH1 0x64 ADD PUSH2 0x930 JUMP JUMPDEST PUSH2 0x137E CALLER DUP4 PUSH2 0x2146 JUMP JUMPDEST PUSH2 0x1388 DUP3 DUP3 PUSH2 0x20A3 JUMP JUMPDEST PUSH1 0x40 DUP1 MLOAD DUP4 DUP2 MSTORE PUSH1 0x20 DUP2 ADD DUP4 SWAP1 MSTORE CALLER SWAP2 PUSH32 0x1449C6DD7851ABC30ABF37F57715F492010519147CC2652FBC38202C18A6EE90 SWAP2 ADD PUSH2 0xD9A JUMP JUMPDEST PUSH1 0x0 PUSH2 0xC7E PUSH2 0x228C JUMP JUMPDEST PUSH1 0x60 PUSH1 0x4 DUP1 SLOAD PUSH2 0x75A SWAP1 PUSH2 0x282C JUMP JUMPDEST PUSH1 0x0 PUSH2 0xC7E PUSH2 0x22D0 JUMP JUMPDEST PUSH1 0x0 PUSH2 0xC7E PUSH2 0x233D JUMP JUMPDEST PUSH1 0x0 DUP2 GT PUSH2 0x1435 JUMPI PUSH1 0x40 MLOAD PUSH3 0x461BCD PUSH1 0xE5 SHL DUP2 MSTORE PUSH1 0x20 PUSH1 0x4 DUP3 ADD MSTORE PUSH1 0x15 PUSH1 0x24 DUP3 ADD MSTORE PUSH21 0x109D5C9B8E8810995B1BDDC81B5A5B881B1A5B5A5D PUSH1 0x5A SHL PUSH1 0x44 DUP3 ADD MSTORE PUSH1 0x64 ADD PUSH2 0x930 JUMP JUMPDEST CALLER PUSH1 0x40 MLOAD PUSH4 0x1FFC9A7 PUSH1 0xE0 SHL DUP2 MSTORE PUSH4 0x543746B1 PUSH1 0xE0 SHL PUSH1 0x4 DUP3 ADD MSTORE PUSH1 0x1 PUSH1 0x1 PUSH1 0xA0 SHL SUB SWAP2 SWAP1 SWAP2 AND SWAP1 PUSH4 0x1FFC9A7 SWAP1 PUSH1 0x24 ADD PUSH1 0x20 PUSH1 0x40 MLOAD DUP1 DUP4 SUB DUP2 DUP7 GAS STATICCALL ISZERO DUP1 ISZERO PUSH2 0x1483 JUMPI RETURNDATASIZE PUSH1 0x0 DUP1 RETURNDATACOPY RETURNDATASIZE PUSH1 0x0 REVERT JUMPDEST POP POP POP POP PUSH1 0x40 MLOAD RETURNDATASIZE PUSH1 0x1F NOT PUSH1 0x1F DUP3 ADD AND DUP3 ADD DUP1 PUSH1 0x40 MSTORE POP DUP2 ADD SWAP1 PUSH2 0x14A7 SWAP2 SWAP1 PUSH2 0x296C JUMP JUMPDEST PUSH2 0x14F3 JUMPI PUSH1 0x40 MLOAD PUSH3 0x461BCD PUSH1 0xE5 SHL DUP2 MSTORE PUSH1 0x20 PUSH1 0x4 DUP3 ADD MSTORE PUSH1 0x1E PUSH1 0x24 DUP3 ADD MSTORE PUSH32 0x4275726E3A206E6F74206120737570706F7274656420636F6E74726163740000 PUSH1 0x44 DUP3 ADD MSTORE PUSH1 0x64 ADD PUSH2 0x930 JUMP JUMPDEST PUSH2 0x14FE DUP3 CALLER DUP4 PUSH2 0x1CF6 JUMP JUMPDEST PUSH2 0x1508 DUP3 DUP3 PUSH2 0x2146 JUMP JUMPDEST PUSH1 0x1 PUSH1 0x1 PUSH1 0xA0 SHL SUB DUP3 AND PUSH1 0x0 SWAP1 DUP2 MSTORE PUSH1 0xB PUSH1 0x20 MSTORE PUSH1 0x40 DUP2 KECCAK256 DUP1 SLOAD DUP4 SWAP3 SWAP1 PUSH2 0x1530 SWAP1 DUP5 SWAP1 PUSH2 0x2942 JUMP JUMPDEST SWAP1 SWAP2 SSTORE POP CALLER SWAP1 POP PUSH1 0x40 MLOAD PUSH4 0x543746B1 PUSH1 0xE0 SHL DUP2 MSTORE PUSH1 0x1 PUSH1 0x1 PUSH1 0xA0 SHL SUB DUP5 DUP2 AND PUSH1 0x4 DUP4 ADD MSTORE PUSH1 0x24 DUP3 ADD DUP5 SWAP1 MSTORE SWAP2 SWAP1 SWAP2 AND SWAP1 PUSH4 0x543746B1 SWAP1 PUSH1 0x44 ADD PUSH1 0x0 PUSH1 0x40 MLOAD DUP1 DUP4 SUB DUP2 PUSH1 0x0 DUP8 DUP1 EXTCODESIZE ISZERO DUP1 ISZERO PUSH2 0x1583 JUMPI PUSH1 0x0 DUP1 REVERT JUMPDEST POP GAS CALL ISZERO DUP1 ISZERO PUSH2 0x1597 JUMPI RETURNDATASIZE PUSH1 0x0 DUP1 RETURNDATACOPY RETURNDATASIZE PUSH1 0x0 REVERT JUMPDEST POP POP POP POP POP POP JUMP JUMPDEST PUSH1 0x0 PUSH2 0x15AE PUSH3 0x15180 DUP4 PUSH2 0x287C JUMP JUMPDEST SWAP1 POP PUSH1 0x1 PUSH2 0x15BF PUSH3 0x15180 DUP3 PUSH2 0x287C JUMP JUMPDEST PUSH2 0x15C9 SWAP2 SWAP1 PUSH2 0x292F JUMP JUMPDEST DUP2 GT PUSH2 0x1617 JUMPI PUSH1 0x40 MLOAD PUSH3 0x461BCD PUSH1 0xE5 SHL DUP2 MSTORE PUSH1 0x20 PUSH1 0x4 DUP3 ADD MSTORE PUSH1 0x19 PUSH1 0x24 DUP3 ADD MSTORE PUSH32 0x4352616E6B3A205465726D206C657373207468616E206D696E00000000000000 PUSH1 0x44 DUP3 ADD MSTORE PUSH1 0x64 ADD PUSH2 0x930 JUMP JUMPDEST PUSH2 0x161F PUSH2 0x1F9C JUMP JUMPDEST PUSH2 0x162A SWAP1 PUSH1 0x1 PUSH2 0x2942 JUMP JUMPDEST DUP2 LT PUSH2 0x1687 JUMPI PUSH1 0x40 MLOAD PUSH3 0x461BCD PUSH1 0xE5 SHL DUP2 MSTORE PUSH1 0x20 PUSH1 0x4 DUP3 ADD MSTORE PUSH1 0x26 PUSH1 0x24 DUP3 ADD MSTORE PUSH32 0x4352616E6B3A205465726D206D6F7265207468616E2063757272656E74206D61 PUSH1 0x44 DUP3 ADD MSTORE PUSH6 0x78207465726D PUSH1 0xD0 SHL PUSH1 0x64 DUP3 ADD MSTORE PUSH1 0x84 ADD PUSH2 0x930 JUMP JUMPDEST CALLER PUSH1 0x0 SWAP1 DUP2 MSTORE PUSH1 0x9 PUSH1 0x20 MSTORE PUSH1 0x40 SWAP1 KECCAK256 PUSH1 0x3 ADD SLOAD ISZERO PUSH2 0x16E7 JUMPI PUSH1 0x40 MLOAD PUSH3 0x461BCD PUSH1 0xE5 SHL DUP2 MSTORE PUSH1 0x20 PUSH1 0x4 DUP3 ADD MSTORE PUSH1 0x1F PUSH1 0x24 DUP3 ADD MSTORE PUSH32 0x4352616E6B3A204D696E7420616C726561647920696E2070726F677265737300 PUSH1 0x44 DUP3 ADD MSTORE PUSH1 0x64 ADD PUSH2 0x930 JUMP JUMPDEST PUSH1 0x0 PUSH1 0x40 MLOAD DUP1 PUSH1 0xC0 ADD PUSH1 0x40 MSTORE DUP1 PUSH2 0x16FB CALLER SWAP1 JUMP JUMPDEST PUSH1 0x1 PUSH1 0x1 PUSH1 0xA0 SHL SUB AND DUP2 MSTORE PUSH1 0x20 DUP2 ADD DUP6 SWAP1 MSTORE PUSH1 0x40 ADD PUSH2 0x171A DUP5 TIMESTAMP PUSH2 0x2942 JUMP JUMPDEST DUP2 MSTORE PUSH1 0x20 ADD PUSH1 0x5 SLOAD DUP2 MSTORE PUSH1 0x20 ADD PUSH2 0x172F PUSH2 0x233D JUMP JUMPDEST DUP2 MSTORE PUSH1 0x20 ADD PUSH2 0x173C PUSH2 0x228C JUMP JUMPDEST SWAP1 MSTORE CALLER PUSH1 0x0 SWAP1 DUP2 MSTORE PUSH1 0x9 PUSH1 0x20 SWAP1 DUP2 MSTORE PUSH1 0x40 DUP1 DUP4 KECCAK256 DUP5 MLOAD DUP2 SLOAD PUSH1 0x1 PUSH1 0x1 PUSH1 0xA0 SHL SUB NOT AND PUSH1 0x1 PUSH1 0x1 PUSH1 0xA0 SHL SUB SWAP1 SWAP2 AND OR DUP2 SSTORE SWAP2 DUP5 ADD MLOAD PUSH1 0x1 DUP4 ADD SSTORE DUP4 ADD MLOAD PUSH1 0x2 DUP3 ADD SSTORE PUSH1 0x60 DUP4 ADD MLOAD PUSH1 0x3 DUP3 ADD SSTORE PUSH1 0x80 DUP4 ADD MLOAD PUSH1 0x4 DUP3 ADD SSTORE PUSH1 0xA0 DUP4 ADD MLOAD PUSH1 0x5 SWAP1 SWAP2 ADD SSTORE PUSH1 0x6 DUP1 SLOAD SWAP3 SWAP4 POP SWAP1 PUSH2 0x17AD DUP4 PUSH2 0x298E JUMP JUMPDEST SWAP2 SWAP1 POP SSTORE POP PUSH2 0x17B9 CALLER SWAP1 JUMP JUMPDEST PUSH1 0x1 PUSH1 0x1 PUSH1 0xA0 SHL SUB AND PUSH32 0xE9149E1B5059238BAED02FA659DBF4BD932FBCF760A431330DF4D934BC942F37 DUP5 PUSH1 0x5 PUSH1 0x0 DUP2 SLOAD DUP1 SWAP3 SWAP2 SWAP1 PUSH2 0x17F7 SWAP1 PUSH2 0x298E JUMP JUMPDEST SWAP1 SWAP2 SSTORE POP PUSH1 0x40 DUP1 MLOAD SWAP3 DUP4 MSTORE PUSH1 0x20 DUP4 ADD SWAP2 SWAP1 SWAP2 MSTORE ADD PUSH1 0x40 MLOAD DUP1 SWAP2 SUB SWAP1 LOG2 POP POP POP JUMP JUMPDEST PUSH1 0x0 CALLER DUP2 PUSH2 0x1826 DUP3 DUP7 PUSH2 0x195C JUMP JUMPDEST SWAP1 POP DUP4 DUP2 LT ISZERO PUSH2 0x1886 JUMPI PUSH1 0x40 MLOAD PUSH3 0x461BCD PUSH1 0xE5 SHL DUP2 MSTORE PUSH1 0x20 PUSH1 0x4 DUP3 ADD MSTORE PUSH1 0x25 PUSH1 0x24 DUP3 ADD MSTORE PUSH32 0x45524332303A2064656372656173656420616C6C6F77616E63652062656C6F77 PUSH1 0x44 DUP3 ADD MSTORE PUSH5 0x207A65726F PUSH1 0xD8 SHL PUSH1 0x64 DUP3 ADD MSTORE PUSH1 0x84 ADD PUSH2 0x930 JUMP JUMPDEST PUSH2 0xAF3 DUP3 DUP7 DUP7 DUP5 SUB PUSH2 0x19A0 JUMP JUMPDEST PUSH1 0x0 CALLER PUSH2 0x7EB DUP2 DUP6 DUP6 PUSH2 0x1D70 JUMP JUMPDEST PUSH1 0x0 DUP1 PUSH2 0x18B8 PUSH2 0x18B0 DUP8 PUSH2 0x2419 JUMP JUMPDEST PUSH1 0xF SIGNEXTEND PUSH2 0x2437 JUMP JUMPDEST SWAP1 POP PUSH1 0x0 PUSH2 0x18F4 PUSH2 0x18C8 DUP6 PUSH2 0x2419 JUMP JUMPDEST PUSH2 0x18EB PUSH2 0x18D4 DUP9 PUSH2 0x2419 JUMP JUMPDEST PUSH2 0x18EB PUSH2 0x18E0 DUP12 PUSH2 0x2419 JUMP JUMPDEST PUSH1 0xF DUP9 SWAP1 SIGNEXTEND SWAP1 PUSH2 0x251B JUMP JUMPDEST PUSH1 0xF SIGNEXTEND SWAP1 PUSH2 0x251B JUMP JUMPDEST SWAP1 POP PUSH2 0x191A PUSH2 0x1912 PUSH2 0x1907 PUSH2 0x3E8 PUSH2 0x2419 JUMP JUMPDEST PUSH1 0xF DUP5 SWAP1 SIGNEXTEND SWAP1 PUSH2 0x2559 JUMP JUMPDEST PUSH1 0xF SIGNEXTEND PUSH2 0x25B0 JUMP JUMPDEST PUSH8 0xFFFFFFFFFFFFFFFF AND SWAP3 POP POP POP JUMPDEST SWAP5 SWAP4 POP POP POP POP JUMP JUMPDEST PUSH1 0x40 MLOAD DUP1 PUSH1 0x60 ADD PUSH1 0x40 MSTORE DUP1 PUSH1 0x25 DUP2 MSTORE PUSH1 0x20 ADD PUSH2 0x29C1 PUSH1 0x25 SWAP2 CODECOPY DUP2 JUMP JUMPDEST PUSH2 0x805 PUSH3 0x15180 PUSH2 0x3E8 PUSH2 0x287C JUMP JUMPDEST PUSH1 0x1 PUSH1 0x1 PUSH1 0xA0 SHL SUB SWAP2 DUP3 AND PUSH1 0x0 SWAP1 DUP2 MSTORE PUSH1 0x1 PUSH1 0x20 SWAP1 DUP2 MSTORE PUSH1 0x40 DUP1 DUP4 KECCAK256 SWAP4 SWAP1 SWAP5 AND DUP3 MSTORE SWAP2 SWAP1 SWAP2 MSTORE KECCAK256 SLOAD SWAP1 JUMP JUMPDEST PUSH1 0x1 PUSH2 0x1996 PUSH3 0x15180 DUP3 PUSH2 0x287C JUMP JUMPDEST PUSH2 0x805 SWAP2 SWAP1 PUSH2 0x292F JUMP JUMPDEST PUSH1 0x1 PUSH1 0x1 PUSH1 0xA0 SHL SUB DUP4 AND PUSH2 0x1A02 JUMPI PUSH1 0x40 MLOAD PUSH3 0x461BCD PUSH1 0xE5 SHL DUP2 MSTORE PUSH1 0x20 PUSH1 0x4 DUP3 ADD MSTORE PUSH1 0x24 DUP1 DUP3 ADD MSTORE PUSH32 0x45524332303A20617070726F76652066726F6D20746865207A65726F20616464 PUSH1 0x44 DUP3 ADD MSTORE PUSH4 0x72657373 PUSH1 0xE0 SHL PUSH1 0x64 DUP3 ADD MSTORE PUSH1 0x84 ADD PUSH2 0x930 JUMP JUMPDEST PUSH1 0x1 PUSH1 0x1 PUSH1 0xA0 SHL SUB DUP3 AND PUSH2 0x1A63 JUMPI PUSH1 0x40 MLOAD PUSH3 0x461BCD PUSH1 0xE5 SHL DUP2 MSTORE PUSH1 0x20 PUSH1 0x4 DUP3 ADD MSTORE PUSH1 0x22 PUSH1 0x24 DUP3 ADD MSTORE PUSH32 0x45524332303A20617070726F766520746F20746865207A65726F206164647265 PUSH1 0x44 DUP3 ADD MSTORE PUSH2 0x7373 PUSH1 0xF0 SHL PUSH1 0x64 DUP3 ADD MSTORE PUSH1 0x84 ADD PUSH2 0x930 JUMP JUMPDEST PUSH1 0x1 PUSH1 0x1 PUSH1 0xA0 SHL SUB DUP4 DUP2 AND PUSH1 0x0 DUP2 DUP2 MSTORE PUSH1 0x1 PUSH1 0x20 SWAP1 DUP2 MSTORE PUSH1 0x40 DUP1 DUP4 KECCAK256 SWAP5 DUP8 AND DUP1 DUP5 MSTORE SWAP5 DUP3 MSTORE SWAP2 DUP3 SWAP1 KECCAK256 DUP6 SWAP1 SSTORE SWAP1 MLOAD DUP5 DUP2 MSTORE PUSH32 0x8C5BE1E5EBEC7D5BD14F71427D1E84F3DD0314C0F7B2291E5B200AC8C7C3B925 SWAP2 ADD JUMPDEST PUSH1 0x40 MLOAD DUP1 SWAP2 SUB SWAP1 LOG3 POP POP POP JUMP JUMPDEST PUSH1 0x0 DUP1 PUSH2 0x1AD2 DUP6 TIMESTAMP PUSH2 0x292F JUMP JUMPDEST SWAP1 POP PUSH1 0x0 PUSH2 0x1ADF DUP3 PUSH2 0x25CC JUMP JUMPDEST SWAP1 POP PUSH1 0x0 PUSH20 0x0 PUSH4 0x6D5433E6 DUP11 PUSH1 0x5 SLOAD PUSH2 0x1B0B SWAP2 SWAP1 PUSH2 0x292F JUMP JUMPDEST PUSH1 0x40 MLOAD PUSH1 0x1 PUSH1 0x1 PUSH1 0xE0 SHL SUB NOT PUSH1 0xE0 DUP5 SWAP1 SHL AND DUP2 MSTORE PUSH1 0x4 DUP2 ADD SWAP2 SWAP1 SWAP2 MSTORE PUSH1 0x2 PUSH1 0x24 DUP3 ADD MSTORE PUSH1 0x44 ADD PUSH1 0x20 PUSH1 0x40 MLOAD DUP1 DUP4 SUB DUP2 DUP7 GAS DELEGATECALL ISZERO DUP1 ISZERO PUSH2 0x1B4E JUMPI RETURNDATASIZE PUSH1 0x0 DUP1 RETURNDATACOPY RETURNDATASIZE PUSH1 0x0 REVERT JUMPDEST POP POP POP POP PUSH1 0x40 MLOAD RETURNDATASIZE PUSH1 0x1F NOT PUSH1 0x1F DUP3 ADD AND DUP3 ADD DUP1 PUSH1 0x40 MSTORE POP DUP2 ADD SWAP1 PUSH2 0x1B72 SWAP2 SWAP1 PUSH2 0x29A7 JUMP JUMPDEST SWAP1 POP PUSH1 0x0 PUSH2 0x1B82 DUP7 PUSH2 0x3E8 PUSH2 0x2942 JUMP JUMPDEST SWAP1 POP PUSH1 0x0 PUSH2 0x1B92 DUP4 DUP10 DUP13 DUP6 PUSH2 0x18A1 JUMP JUMPDEST SWAP1 POP PUSH1 0x64 PUSH2 0x1BA0 DUP6 DUP3 PUSH2 0x292F JUMP JUMPDEST PUSH2 0x1BAA SWAP1 DUP4 PUSH2 0x287C JUMP JUMPDEST PUSH2 0x1BB4 SWAP2 SWAP1 PUSH2 0x290D JUMP JUMPDEST SWAP12 SWAP11 POP POP POP POP POP POP POP POP POP POP POP JUMP JUMPDEST PUSH1 0x1 PUSH1 0x1 PUSH1 0xA0 SHL SUB DUP3 AND PUSH2 0x1C19 JUMPI PUSH1 0x40 MLOAD PUSH3 0x461BCD PUSH1 0xE5 SHL DUP2 MSTORE PUSH1 0x20 PUSH1 0x4 DUP3 ADD MSTORE PUSH1 0x1F PUSH1 0x24 DUP3 ADD MSTORE PUSH32 0x45524332303A206D696E7420746F20746865207A65726F206164647265737300 PUSH1 0x44 DUP3 ADD MSTORE PUSH1 0x64 ADD PUSH2 0x930 JUMP JUMPDEST DUP1 PUSH1 0x2 PUSH1 0x0 DUP3 DUP3 SLOAD PUSH2 0x1C2B SWAP2 SWAP1 PUSH2 0x2942 JUMP JUMPDEST SWAP1 SWAP2 SSTORE POP POP PUSH1 0x1 PUSH1 0x1 PUSH1 0xA0 SHL SUB DUP3 AND PUSH1 0x0 SWAP1 DUP2 MSTORE PUSH1 0x20 DUP2 SWAP1 MSTORE PUSH1 0x40 DUP2 KECCAK256 DUP1 SLOAD DUP4 SWAP3 SWAP1 PUSH2 0x1C58 SWAP1 DUP5 SWAP1 PUSH2 0x2942 JUMP JUMPDEST SWAP1 SWAP2 SSTORE POP POP PUSH1 0x40 MLOAD DUP2 DUP2 MSTORE PUSH1 0x1 PUSH1 0x1 PUSH1 0xA0 SHL SUB DUP4 AND SWAP1 PUSH1 0x0 SWAP1 PUSH32 0xDDF252AD1BE2C89B69C2B068FC378DAA952BA7F163C4A11628F55A4DF523B3EF SWAP1 PUSH1 0x20 ADD PUSH1 0x40 MLOAD DUP1 SWAP2 SUB SWAP1 LOG3 POP POP JUMP JUMPDEST CALLER PUSH1 0x0 SWAP1 DUP2 MSTORE PUSH1 0x9 PUSH1 0x20 MSTORE PUSH1 0x40 DUP2 KECCAK256 DUP1 SLOAD PUSH1 0x1 PUSH1 0x1 PUSH1 0xA0 SHL SUB NOT AND DUP2 SSTORE PUSH1 0x1 DUP2 ADD DUP3 SWAP1 SSTORE PUSH1 0x2 DUP2 ADD DUP3 SWAP1 SSTORE PUSH1 0x3 DUP2 ADD DUP3 SWAP1 SSTORE PUSH1 0x4 DUP2 ADD DUP3 SWAP1 SSTORE PUSH1 0x5 ADD DUP2 SWAP1 SSTORE PUSH1 0x6 DUP1 SLOAD SWAP2 PUSH2 0x1CEF DUP4 PUSH2 0x2955 JUMP JUMPDEST SWAP2 SWAP1 POP SSTORE POP JUMP JUMPDEST PUSH1 0x0 PUSH2 0x1D02 DUP5 DUP5 PUSH2 0x195C JUMP JUMPDEST SWAP1 POP PUSH1 0x0 NOT DUP2 EQ PUSH2 0x1D6A JUMPI DUP2 DUP2 LT ISZERO PUSH2 0x1D5D JUMPI PUSH1 0x40 MLOAD PUSH3 0x461BCD PUSH1 0xE5 SHL DUP2 MSTORE PUSH1 0x20 PUSH1 0x4 DUP3 ADD MSTORE PUSH1 0x1D PUSH1 0x24 DUP3 ADD MSTORE PUSH32 0x45524332303A20696E73756666696369656E7420616C6C6F77616E6365000000 PUSH1 0x44 DUP3 ADD MSTORE PUSH1 0x64 ADD PUSH2 0x930 JUMP JUMPDEST PUSH2 0x1D6A DUP5 DUP5 DUP5 DUP5 SUB PUSH2 0x19A0 JUMP JUMPDEST POP POP POP POP JUMP JUMPDEST PUSH1 0x1 PUSH1 0x1 PUSH1 0xA0 SHL SUB DUP4 AND PUSH2 0x1DD4 JUMPI PUSH1 0x40 MLOAD PUSH3 0x461BCD PUSH1 0xE5 SHL DUP2 MSTORE PUSH1 0x20 PUSH1 0x4 DUP3 ADD MSTORE PUSH1 0x25 PUSH1 0x24 DUP3 ADD MSTORE PUSH32 0x45524332303A207472616E736665722066726F6D20746865207A65726F206164 PUSH1 0x44 DUP3 ADD MSTORE PUSH5 0x6472657373 PUSH1 0xD8 SHL PUSH1 0x64 DUP3 ADD MSTORE PUSH1 0x84 ADD PUSH2 0x930 JUMP JUMPDEST PUSH1 0x1 PUSH1 0x1 PUSH1 0xA0 SHL SUB DUP3 AND PUSH2 0x1E36 JUMPI PUSH1 0x40 MLOAD PUSH3 0x461BCD PUSH1 0xE5 SHL DUP2 MSTORE PUSH1 0x20 PUSH1 0x4 DUP3 ADD MSTORE PUSH1 0x23 PUSH1 0x24 DUP3 ADD MSTORE PUSH32 0x45524332303A207472616E7366657220746F20746865207A65726F2061646472 PUSH1 0x44 DUP3 ADD MSTORE PUSH3 0x657373 PUSH1 0xE8 SHL PUSH1 0x64 DUP3 ADD MSTORE PUSH1 0x84 ADD PUSH2 0x930 JUMP JUMPDEST PUSH1 0x1 PUSH1 0x1 PUSH1 0xA0 SHL SUB DUP4 AND PUSH1 0x0 SWAP1 DUP2 MSTORE PUSH1 0x20 DUP2 SWAP1 MSTORE PUSH1 0x40 SWAP1 KECCAK256 SLOAD DUP2 DUP2 LT ISZERO PUSH2 0x1EAE JUMPI PUSH1 0x40 MLOAD PUSH3 0x461BCD PUSH1 0xE5 SHL DUP2 MSTORE PUSH1 0x20 PUSH1 0x4 DUP3 ADD MSTORE PUSH1 0x26 PUSH1 0x24 DUP3 ADD MSTORE PUSH32 0x45524332303A207472616E7366657220616D6F756E7420657863656564732062 PUSH1 0x44 DUP3 ADD MSTORE PUSH6 0x616C616E6365 PUSH1 0xD0 SHL PUSH1 0x64 DUP3 ADD MSTORE PUSH1 0x84 ADD PUSH2 0x930 JUMP JUMPDEST PUSH1 0x1 PUSH1 0x1 PUSH1 0xA0 SHL SUB DUP1 DUP6 AND PUSH1 0x0 SWAP1 DUP2 MSTORE PUSH1 0x20 DUP2 SWAP1 MSTORE PUSH1 0x40 DUP1 DUP3 KECCAK256 DUP6 DUP6 SUB SWAP1 SSTORE SWAP2 DUP6 AND DUP2 MSTORE SWAP1 DUP2 KECCAK256 DUP1 SLOAD DUP5 SWAP3 SWAP1 PUSH2 0x1EE5 SWAP1 DUP5 SWAP1 PUSH2 0x2942 JUMP JUMPDEST SWAP3 POP POP DUP2 SWAP1 SSTORE POP DUP3 PUSH1 0x1 PUSH1 0x1 PUSH1 0xA0 SHL SUB AND DUP5 PUSH1 0x1 PUSH1 0x1 PUSH1 0xA0 SHL SUB AND PUSH32 0xDDF252AD1BE2C89B69C2B068FC378DAA952BA7F163C4A11628F55A4DF523B3EF DUP5 PUSH1 0x40 MLOAD PUSH2 0x1F31 SWAP2 DUP2 MSTORE PUSH1 0x20 ADD SWAP1 JUMP JUMPDEST PUSH1 0x40 MLOAD DUP1 SWAP2 SUB SWAP1 LOG3 PUSH2 0x1D6A JUMP JUMPDEST PUSH1 0x0 DUP3 TIMESTAMP GT ISZERO PUSH2 0x1F91 JUMPI PUSH1 0x0 PUSH2 0x16D PUSH2 0x1F57 DUP7 DUP6 PUSH2 0x287C JUMP JUMPDEST PUSH2 0x1F64 SWAP1 PUSH3 0xF4240 PUSH2 0x287C JUMP JUMPDEST PUSH2 0x1F6E SWAP2 SWAP1 PUSH2 0x290D JUMP JUMPDEST SWAP1 POP PUSH4 0x5F5E100 PUSH2 0x1F7F DUP3 DUP9 PUSH2 0x287C JUMP JUMPDEST PUSH2 0x1F89 SWAP2 SWAP1 PUSH2 0x290D JUMP JUMPDEST SWAP2 POP POP PUSH2 0x1929 JUMP JUMPDEST POP PUSH1 0x0 SWAP5 SWAP4 POP POP POP POP JUMP JUMPDEST PUSH1 0x0 PUSH2 0x1388 PUSH1 0x5 SLOAD GT ISZERO PUSH2 0x2095 JUMPI PUSH1 0x0 PUSH2 0x1FCA PUSH2 0x1912 PUSH2 0x1FBC PUSH1 0xF PUSH2 0x2419 JUMP JUMPDEST PUSH2 0x18EB PUSH2 0x18B0 PUSH1 0x5 SLOAD PUSH2 0x2419 JUMP JUMPDEST PUSH8 0xFFFFFFFFFFFFFFFF AND SWAP1 POP PUSH1 0x0 PUSH2 0x1FE5 PUSH3 0x15180 DUP4 PUSH2 0x287C JUMP JUMPDEST PUSH2 0x1FF3 PUSH3 0x15180 PUSH1 0x64 PUSH2 0x287C JUMP JUMPDEST PUSH2 0x1FFD SWAP2 SWAP1 PUSH2 0x2942 JUMP JUMPDEST SWAP1 POP PUSH20 0x0 PUSH4 0x7AE2B5C7 DUP3 PUSH2 0x2029 PUSH3 0x15180 PUSH2 0x3E8 PUSH2 0x287C JUMP JUMPDEST PUSH1 0x40 MLOAD PUSH1 0x1 PUSH1 0x1 PUSH1 0xE0 SHL SUB NOT PUSH1 0xE0 DUP6 SWAP1 SHL AND DUP2 MSTORE PUSH1 0x4 DUP2 ADD SWAP3 SWAP1 SWAP3 MSTORE PUSH1 0x24 DUP3 ADD MSTORE PUSH1 0x44 ADD PUSH1 0x20 PUSH1 0x40 MLOAD DUP1 DUP4 SUB DUP2 DUP7 GAS DELEGATECALL ISZERO DUP1 ISZERO PUSH2 0x206A JUMPI RETURNDATASIZE PUSH1 0x0 DUP1 RETURNDATACOPY RETURNDATASIZE PUSH1 0x0 REVERT JUMPDEST POP POP POP POP PUSH1 0x40 MLOAD RETURNDATASIZE PUSH1 0x1F NOT PUSH1 0x1F DUP3 ADD AND DUP3 ADD DUP1 PUSH1 0x40 MSTORE POP DUP2 ADD SWAP1 PUSH2 0x208E SWAP2 SWAP1 PUSH2 0x29A7 JUMP JUMPDEST SWAP3 POP POP POP SWAP1 JUMP JUMPDEST PUSH2 0xC7E PUSH3 0x15180 PUSH1 0x64 PUSH2 0x287C JUMP JUMPDEST PUSH1 0x40 MLOAD DUP1 PUSH1 0x80 ADD PUSH1 0x40 MSTORE DUP1 DUP3 DUP2 MSTORE PUSH1 0x20 ADD PUSH3 0x15180 DUP4 PUSH2 0x20C3 SWAP2 SWAP1 PUSH2 0x287C JUMP JUMPDEST PUSH2 0x20CD SWAP1 TIMESTAMP PUSH2 0x2942 JUMP JUMPDEST DUP2 MSTORE PUSH1 0x20 ADD DUP4 DUP2 MSTORE PUSH1 0x20 ADD PUSH2 0x20E0 PUSH2 0x22D0 JUMP JUMPDEST SWAP1 MSTORE CALLER PUSH1 0x0 SWAP1 DUP2 MSTORE PUSH1 0xA PUSH1 0x20 SWAP1 DUP2 MSTORE PUSH1 0x40 DUP1 DUP4 KECCAK256 DUP5 MLOAD DUP2 SSTORE SWAP2 DUP5 ADD MLOAD PUSH1 0x1 DUP4 ADD SSTORE DUP4 ADD MLOAD PUSH1 0x2 DUP3 ADD SSTORE PUSH1 0x60 SWAP1 SWAP3 ADD MLOAD PUSH1 0x3 SWAP1 SWAP3 ADD SWAP2 SWAP1 SWAP2 SSTORE PUSH1 0x7 DUP1 SLOAD SWAP2 PUSH2 0x2126 DUP4 PUSH2 0x298E JUMP JUMPDEST SWAP2 SWAP1 POP SSTORE POP DUP2 PUSH1 0x8 PUSH1 0x0 DUP3 DUP3 SLOAD PUSH2 0x213D SWAP2 SWAP1 PUSH2 0x2942 JUMP JUMPDEST SWAP1 SWAP2 SSTORE POP POP POP POP JUMP JUMPDEST PUSH1 0x1 PUSH1 0x1 PUSH1 0xA0 SHL SUB DUP3 AND PUSH2 0x21A6 JUMPI PUSH1 0x40 MLOAD PUSH3 0x461BCD PUSH1 0xE5 SHL DUP2 MSTORE PUSH1 0x20 PUSH1 0x4 DUP3 ADD MSTORE PUSH1 0x21 PUSH1 0x24 DUP3 ADD MSTORE PUSH32 0x45524332303A206275726E2066726F6D20746865207A65726F20616464726573 PUSH1 0x44 DUP3 ADD MSTORE PUSH1 0x73 PUSH1 0xF8 SHL PUSH1 0x64 DUP3 ADD MSTORE PUSH1 0x84 ADD PUSH2 0x930 JUMP JUMPDEST PUSH1 0x1 PUSH1 0x1 PUSH1 0xA0 SHL SUB DUP3 AND PUSH1 0x0 SWAP1 DUP2 MSTORE PUSH1 0x20 DUP2 SWAP1 MSTORE PUSH1 0x40 SWAP1 KECCAK256 SLOAD DUP2 DUP2 LT ISZERO PUSH2 0x221A JUMPI PUSH1 0x40 MLOAD PUSH3 0x461BCD PUSH1 0xE5 SHL DUP2 MSTORE PUSH1 0x20 PUSH1 0x4 DUP3 ADD MSTORE PUSH1 0x22 PUSH1 0x24 DUP3 ADD MSTORE PUSH32 0x45524332303A206275726E20616D6F756E7420657863656564732062616C616E PUSH1 0x44 DUP3 ADD MSTORE PUSH2 0x6365 PUSH1 0xF0 SHL PUSH1 0x64 DUP3 ADD MSTORE PUSH1 0x84 ADD PUSH2 0x930 JUMP JUMPDEST PUSH1 0x1 PUSH1 0x1 PUSH1 0xA0 SHL SUB DUP4 AND PUSH1 0x0 SWAP1 DUP2 MSTORE PUSH1 0x20 DUP2 SWAP1 MSTORE PUSH1 0x40 DUP2 KECCAK256 DUP4 DUP4 SUB SWAP1 SSTORE PUSH1 0x2 DUP1 SLOAD DUP5 SWAP3 SWAP1 PUSH2 0x2249 SWAP1 DUP5 SWAP1 PUSH2 0x292F JUMP JUMPDEST SWAP1 SWAP2 SSTORE POP POP PUSH1 0x40 MLOAD DUP3 DUP2 MSTORE PUSH1 0x0 SWAP1 PUSH1 0x1 PUSH1 0x1 PUSH1 0xA0 SHL SUB DUP6 AND SWAP1 PUSH32 0xDDF252AD1BE2C89B69C2B068FC378DAA952BA7F163C4A11628F55A4DF523B3EF SWAP1 PUSH1 0x20 ADD PUSH2 0x1AB8 JUMP JUMPDEST PUSH1 0x0 DUP1 PUSH3 0x186A0 PUSH1 0x5 SLOAD PUSH1 0x1 PUSH2 0x22A2 SWAP2 SWAP1 PUSH2 0x287C JUMP JUMPDEST PUSH2 0x22AC SWAP2 SWAP1 PUSH2 0x290D JUMP JUMPDEST SWAP1 POP PUSH1 0x64 DUP2 GT ISZERO PUSH2 0x22BF JUMPI PUSH1 0x0 SWAP2 POP POP SWAP1 JUMP JUMPDEST PUSH2 0x22CA DUP2 PUSH1 0x64 PUSH2 0x292F JUMP JUMPDEST SWAP2 POP POP SWAP1 JUMP JUMPDEST PUSH1 0x0 DUP1 PUSH2 0x22E1 PUSH1 0x5A PUSH3 0x15180 PUSH2 0x287C JUMP JUMPDEST PUSH2 0x230B PUSH32 0x0 TIMESTAMP PUSH2 0x292F JUMP JUMPDEST PUSH2 0x2315 SWAP2 SWAP1 PUSH2 0x290D JUMP JUMPDEST SWAP1 POP DUP1 PUSH2 0x2324 PUSH1 0x2 PUSH1 0x14 PUSH2 0x292F JUMP JUMPDEST LT ISZERO PUSH2 0x2332 JUMPI PUSH1 0x2 SWAP2 POP POP SWAP1 JUMP JUMPDEST PUSH2 0x22CA DUP2 PUSH1 0x14 PUSH2 0x292F JUMP JUMPDEST PUSH1 0x0 DUP1 PUSH3 0x15180 PUSH2 0x236E PUSH32 0x0 TIMESTAMP PUSH2 0x292F JUMP JUMPDEST PUSH2 0x2378 SWAP2 SWAP1 PUSH2 0x290D JUMP JUMPDEST SWAP1 POP PUSH2 0xBB8 DUP2 LT ISZERO PUSH2 0x2411 JUMPI PUSH20 0x0 PUSH4 0x6D5433E6 PUSH2 0x23AA DUP4 PUSH2 0xBB8 PUSH2 0x292F JUMP JUMPDEST PUSH1 0x40 MLOAD PUSH1 0x1 PUSH1 0x1 PUSH1 0xE0 SHL SUB NOT PUSH1 0xE0 DUP5 SWAP1 SHL AND DUP2 MSTORE PUSH1 0x4 DUP2 ADD SWAP2 SWAP1 SWAP2 MSTORE PUSH1 0x1 PUSH1 0x24 DUP3 ADD MSTORE PUSH1 0x44 ADD PUSH1 0x20 PUSH1 0x40 MLOAD DUP1 DUP4 SUB DUP2 DUP7 GAS DELEGATECALL ISZERO DUP1 ISZERO PUSH2 0x23ED JUMPI RETURNDATASIZE PUSH1 0x0 DUP1 RETURNDATACOPY RETURNDATASIZE PUSH1 0x0 REVERT JUMPDEST POP POP POP POP PUSH1 0x40 MLOAD RETURNDATASIZE PUSH1 0x1F NOT PUSH1 0x1F DUP3 ADD AND DUP3 ADD DUP1 PUSH1 0x40 MSTORE POP DUP2 ADD SWAP1 PUSH2 0x22CA SWAP2 SWAP1 PUSH2 0x29A7 JUMP JUMPDEST PUSH1 0x1 SWAP2 POP POP SWAP1 JUMP JUMPDEST PUSH1 0x0 PUSH8 0x7FFFFFFFFFFFFFFF DUP3 GT ISZERO PUSH2 0x2430 JUMPI PUSH1 0x0 DUP1 REVERT JUMPDEST POP PUSH1 0x40 SHL SWAP1 JUMP JUMPDEST PUSH1 0x0 DUP1 DUP3 PUSH1 0xF SIGNEXTEND SGT PUSH2 0x2448 JUMPI PUSH1 0x0 DUP1 REVERT JUMPDEST PUSH1 0x0 PUSH1 0xF DUP4 SWAP1 SIGNEXTEND PUSH9 0x10000000000000000 DUP2 SLT PUSH2 0x2467 JUMPI PUSH1 0x40 SWAP2 DUP3 ADD SWAP2 SAR JUMPDEST PUSH5 0x100000000 DUP2 SLT PUSH2 0x247B JUMPI PUSH1 0x20 SWAP2 DUP3 ADD SWAP2 SAR JUMPDEST PUSH3 0x10000 DUP2 SLT PUSH2 0x248D JUMPI PUSH1 0x10 SWAP2 DUP3 ADD SWAP2 SAR JUMPDEST PUSH2 0x100 DUP2 SLT PUSH2 0x249E JUMPI PUSH1 0x8 SWAP2 DUP3 ADD SWAP2 SAR JUMPDEST PUSH1 0x10 DUP2 SLT PUSH2 0x24AE JUMPI PUSH1 0x4 SWAP2 DUP3 ADD SWAP2 SAR JUMPDEST PUSH1 0x4 DUP2 SLT PUSH2 0x24BE JUMPI PUSH1 0x2 SWAP2 DUP3 ADD SWAP2 SAR JUMPDEST PUSH1 0x2 DUP2 SLT PUSH2 0x24CD JUMPI PUSH1 0x1 DUP3 ADD SWAP2 POP JUMPDEST PUSH1 0x3F NOT DUP3 ADD PUSH1 0x40 SHL PUSH1 0xF DUP6 SWAP1 SIGNEXTEND PUSH1 0x7F DUP5 SWAP1 SUB SHL PUSH8 0x8000000000000000 JUMPDEST PUSH1 0x0 DUP2 SGT ISZERO PUSH2 0x2510 JUMPI SWAP1 DUP1 MUL PUSH1 0xFF DUP2 SWAP1 SHR DUP3 DUP2 MUL SWAP4 SWAP1 SWAP4 ADD SWAP3 PUSH1 0x7F ADD SHR SWAP1 PUSH1 0x1 SAR PUSH2 0x24EA JUMP JUMPDEST POP SWAP1 SWAP6 SWAP5 POP POP POP POP POP JUMP JUMPDEST PUSH1 0x0 PUSH1 0xF DUP4 DUP2 SIGNEXTEND SWAP1 DUP4 SWAP1 SIGNEXTEND MUL PUSH1 0x40 SAR PUSH1 0x1 PUSH1 0x1 PUSH1 0x7F SHL SUB NOT DUP2 SLT DUP1 ISZERO SWAP1 PUSH2 0x2549 JUMPI POP PUSH1 0x1 PUSH1 0x1 PUSH1 0x7F SHL SUB DUP2 SGT ISZERO JUMPDEST PUSH2 0x2552 JUMPI PUSH1 0x0 DUP1 REVERT JUMPDEST SWAP4 SWAP3 POP POP POP JUMP JUMPDEST PUSH1 0x0 DUP2 PUSH1 0xF SIGNEXTEND PUSH1 0x0 SUB PUSH2 0x256B JUMPI PUSH1 0x0 DUP1 REVERT JUMPDEST PUSH1 0x0 DUP3 PUSH1 0xF SIGNEXTEND PUSH1 0x40 DUP6 PUSH1 0xF SIGNEXTEND SWAP1 SHL DUP2 PUSH2 0x2586 JUMPI PUSH2 0x2586 PUSH2 0x28F7 JUMP JUMPDEST SDIV SWAP1 POP PUSH1 0x1 PUSH1 0x1 PUSH1 0x7F SHL SUB NOT DUP2 SLT DUP1 ISZERO SWAP1 PUSH2 0x2549 JUMPI POP PUSH1 0x1 PUSH1 0x1 PUSH1 0x7F SHL SUB DUP2 SGT ISZERO PUSH2 0x2552 JUMPI PUSH1 0x0 DUP1 REVERT JUMPDEST PUSH1 0x0 DUP1 DUP3 PUSH1 0xF SIGNEXTEND SLT ISZERO PUSH2 0x25C2 JUMPI PUSH1 0x0 DUP1 REVERT JUMPDEST POP PUSH1 0xF SIGNEXTEND PUSH1 0x40 SAR SWAP1 JUMP JUMPDEST PUSH1 0x0 DUP1 PUSH2 0x25DC PUSH3 0x15180 DUP5 PUSH2 0x290D JUMP JUMPDEST SWAP1 POP PUSH2 0x25EA PUSH1 0x1 PUSH1 0x7 PUSH2 0x292F JUMP JUMPDEST DUP2 GT ISZERO PUSH2 0x25FA JUMPI POP PUSH1 0x63 SWAP3 SWAP2 POP POP JUMP JUMPDEST PUSH1 0x0 PUSH1 0x1 PUSH1 0x7 PUSH2 0x260B DUP5 PUSH1 0x3 PUSH2 0x2942 JUMP JUMPDEST PUSH1 0x1 SWAP1 SHL PUSH2 0x2619 SWAP2 SWAP1 PUSH2 0x290D JUMP JUMPDEST PUSH2 0x2623 SWAP2 SWAP1 PUSH2 0x292F JUMP JUMPDEST PUSH1 0x40 MLOAD PUSH4 0x7AE2B5C7 PUSH1 0xE0 SHL DUP2 MSTORE PUSH1 0x4 DUP2 ADD DUP3 SWAP1 MSTORE PUSH1 0x63 PUSH1 0x24 DUP3 ADD MSTORE SWAP1 SWAP2 POP PUSH20 0x0 SWAP1 PUSH4 0x7AE2B5C7 SWAP1 PUSH1 0x44 ADD PUSH1 0x20 PUSH1 0x40 MLOAD DUP1 DUP4 SUB DUP2 DUP7 GAS DELEGATECALL ISZERO DUP1 ISZERO PUSH2 0x267D JUMPI RETURNDATASIZE PUSH1 0x0 DUP1 RETURNDATACOPY RETURNDATASIZE PUSH1 0x0 REVERT JUMPDEST POP POP POP POP PUSH1 0x40 MLOAD RETURNDATASIZE PUSH1 0x1F NOT PUSH1 0x1F DUP3 ADD AND DUP3 ADD DUP1 PUSH1 0x40 MSTORE POP DUP2 ADD SWAP1 PUSH2 0x1929 SWAP2 SWAP1 PUSH2 0x29A7 JUMP JUMPDEST PUSH1 0x0 PUSH1 0x20 DUP1 DUP4 MSTORE DUP4 MLOAD DUP1 DUP3 DUP6 ADD MSTORE PUSH1 0x0 JUMPDEST DUP2 DUP2 LT ISZERO PUSH2 0x26CE JUMPI DUP6 DUP2 ADD DUP4 ADD MLOAD DUP6 DUP3 ADD PUSH1 0x40 ADD MSTORE DUP3 ADD PUSH2 0x26B2 JUMP JUMPDEST POP PUSH1 0x0 PUSH1 0x40 DUP3 DUP7 ADD ADD MSTORE PUSH1 0x40 PUSH1 0x1F NOT PUSH1 0x1F DUP4 ADD AND DUP6 ADD ADD SWAP3 POP POP POP SWAP3 SWAP2 POP POP JUMP JUMPDEST DUP1 CALLDATALOAD PUSH1 0x1 PUSH1 0x1 PUSH1 0xA0 SHL SUB DUP2 AND DUP2 EQ PUSH2 0x2706 JUMPI PUSH1 0x0 DUP1 REVERT JUMPDEST SWAP2 SWAP1 POP JUMP JUMPDEST PUSH1 0x0 DUP1 PUSH1 0x40 DUP4 DUP6 SUB SLT ISZERO PUSH2 0x271E JUMPI PUSH1 0x0 DUP1 REVERT JUMPDEST PUSH2 0x2727 DUP4 PUSH2 0x26EF JUMP JUMPDEST SWAP5 PUSH1 0x20 SWAP4 SWAP1 SWAP4 ADD CALLDATALOAD SWAP4 POP POP POP JUMP JUMPDEST PUSH1 0x0 DUP1 PUSH1 0x0 PUSH1 0x60 DUP5 DUP7 SUB SLT ISZERO PUSH2 0x274A JUMPI PUSH1 0x0 DUP1 REVERT JUMPDEST PUSH2 0x2753 DUP5 PUSH2 0x26EF JUMP JUMPDEST SWAP3 POP PUSH2 0x2761 PUSH1 0x20 DUP6 ADD PUSH2 0x26EF JUMP JUMPDEST SWAP2 POP PUSH1 0x40 DUP5 ADD CALLDATALOAD SWAP1 POP SWAP3 POP SWAP3 POP SWAP3 JUMP JUMPDEST PUSH1 0x0 DUP1 PUSH1 0x40 DUP4 DUP6 SUB SLT ISZERO PUSH2 0x2784 JUMPI PUSH1 0x0 DUP1 REVERT JUMPDEST POP POP DUP1 CALLDATALOAD SWAP3 PUSH1 0x20 SWAP1 SWAP2 ADD CALLDATALOAD SWAP2 POP JUMP JUMPDEST PUSH1 0x0 PUSH1 0x20 DUP3 DUP5 SUB SLT ISZERO PUSH2 0x27A5 JUMPI PUSH1 0x0 DUP1 REVERT JUMPDEST PUSH2 0x2552 DUP3 PUSH2 0x26EF JUMP JUMPDEST PUSH1 0x0 PUSH1 0x20 DUP3 DUP5 SUB SLT ISZERO PUSH2 0x27C0 JUMPI PUSH1 0x0 DUP1 REVERT JUMPDEST POP CALLDATALOAD SWAP2 SWAP1 POP JUMP JUMPDEST PUSH1 0x0 DUP1 PUSH1 0x0 DUP1 PUSH1 0x80 DUP6 DUP8 SUB SLT ISZERO PUSH2 0x27DD JUMPI PUSH1 0x0 DUP1 REVERT JUMPDEST POP POP DUP3 CALLDATALOAD SWAP5 PUSH1 0x20 DUP5 ADD CALLDATALOAD SWAP5 POP PUSH1 0x40 DUP5 ADD CALLDATALOAD SWAP4 PUSH1 0x60 ADD CALLDATALOAD SWAP3 POP SWAP1 POP JUMP JUMPDEST PUSH1 0x0 DUP1 PUSH1 0x40 DUP4 DUP6 SUB SLT ISZERO PUSH2 0x280C JUMPI PUSH1 0x0 DUP1 REVERT JUMPDEST PUSH2 0x2815 DUP4 PUSH2 0x26EF JUMP JUMPDEST SWAP2 POP PUSH2 0x2823 PUSH1 0x20 DUP5 ADD PUSH2 0x26EF JUMP JUMPDEST SWAP1 POP SWAP3 POP SWAP3 SWAP1 POP JUMP JUMPDEST PUSH1 0x1 DUP2 DUP2 SHR SWAP1 DUP3 AND DUP1 PUSH2 0x2840 JUMPI PUSH1 0x7F DUP3 AND SWAP2 POP JUMPDEST PUSH1 0x20 DUP3 LT DUP2 SUB PUSH2 0x2860 JUMPI PUSH4 0x4E487B71 PUSH1 0xE0 SHL PUSH1 0x0 MSTORE PUSH1 0x22 PUSH1 0x4 MSTORE PUSH1 0x24 PUSH1 0x0 REVERT JUMPDEST POP SWAP2 SWAP1 POP JUMP JUMPDEST PUSH4 0x4E487B71 PUSH1 0xE0 SHL PUSH1 0x0 MSTORE PUSH1 0x11 PUSH1 0x4 MSTORE PUSH1 0x24 PUSH1 0x0 REVERT JUMPDEST DUP1 DUP3 MUL DUP2 ISZERO DUP3 DUP3 DIV DUP5 EQ OR PUSH2 0x7F1 JUMPI PUSH2 0x7F1 PUSH2 0x2866 JUMP JUMPDEST PUSH1 0x20 DUP1 DUP3 MSTORE PUSH1 0x15 SWAP1 DUP3 ADD MSTORE PUSH21 0x4352616E6B3A204E6F206D696E7420657869737473 PUSH1 0x58 SHL PUSH1 0x40 DUP3 ADD MSTORE PUSH1 0x60 ADD SWAP1 JUMP JUMPDEST PUSH1 0x20 DUP1 DUP3 MSTORE DUP2 DUP2 ADD MSTORE PUSH32 0x4352616E6B3A204D696E74206D61747572697479206E6F742072656163686564 PUSH1 0x40 DUP3 ADD MSTORE PUSH1 0x60 ADD SWAP1 JUMP JUMPDEST PUSH4 0x4E487B71 PUSH1 0xE0 SHL PUSH1 0x0 MSTORE PUSH1 0x12 PUSH1 0x4 MSTORE PUSH1 0x24 PUSH1 0x0 REVERT JUMPDEST PUSH1 0x0 DUP3 PUSH2 0x292A JUMPI PUSH4 0x4E487B71 PUSH1 0xE0 SHL PUSH1 0x0 MSTORE PUSH1 0x12 PUSH1 0x4 MSTORE PUSH1 0x24 PUSH1 0x0 REVERT JUMPDEST POP DIV SWAP1 JUMP JUMPDEST DUP2 DUP2 SUB DUP2 DUP2 GT ISZERO PUSH2 0x7F1 JUMPI PUSH2 0x7F1 PUSH2 0x2866 JUMP JUMPDEST DUP1 DUP3 ADD DUP1 DUP3 GT ISZERO PUSH2 0x7F1 JUMPI PUSH2 0x7F1 PUSH2 0x2866 JUMP JUMPDEST PUSH1 0x0 DUP2 PUSH2 0x2964 JUMPI PUSH2 0x2964 PUSH2 0x2866 JUMP JUMPDEST POP PUSH1 0x0 NOT ADD SWAP1 JUMP JUMPDEST PUSH1 0x0 PUSH1 0x20 DUP3 DUP5 SUB SLT ISZERO PUSH2 0x297E JUMPI PUSH1 0x0 DUP1 REVERT JUMPDEST DUP2 MLOAD DUP1 ISZERO ISZERO DUP2 EQ PUSH2 0x2552 JUMPI PUSH1 0x0 DUP1 REVERT JUMPDEST PUSH1 0x0 PUSH1 0x1 DUP3 ADD PUSH2 0x29A0 JUMPI PUSH2 0x29A0 PUSH2 0x2866 JUMP JUMPDEST POP PUSH1 0x1 ADD SWAP1 JUMP JUMPDEST PUSH1 0x0 PUSH1 0x20 DUP3 DUP5 SUB SLT ISZERO PUSH2 0x29B9 JUMPI PUSH1 0x0 DUP1 REVERT JUMPDEST POP MLOAD SWAP2 SWAP1 POP JUMP INVALID BLOCKHASH 0x4D PUSH19 0x4A61636B4C6576696E20406C62656C79616576 KECCAK256 PUSH7 0x61697263727970 PUSH21 0x6F2E6F7267A26469706673582212201F2C5C474040 0xDE SWAP6 0xAA 0xC1 PUSH24 0xB93517516AFFD8B29FFC5203BFA3403A9EE5B112AE64736F PUSH13 0x63430008120033000000000000 "
		},
		"gasEstimates": {
			"creation": {
				"codeDepositCost": "2155800",
				"executionCost": "infinite",
				"totalCost": "infinite"
			},
			"external": {
				"AUTHORS()": "infinite",
				"DAYS_IN_YEAR()": "231",
				"EAA_PM_START()": "296",
				"EAA_PM_STEP()": "296",
				"EAA_RANK_STEP()": "294",
				"GENESIS_RANK()": "296",
				"MAX_PENALTY_PCT()": "341",
				"MAX_TERM_END()": "351",
				"MAX_TERM_START()": "419",
				"MIN_TERM()": "infinite",
				"REWARD_AMPLIFIER_END()": "252",
				"REWARD_AMPLIFIER_START()": "295",
				"SECONDS_IN_DAY()": "296",
				"TERM_AMPLIFIER()": "295",
				"TERM_AMPLIFIER_THRESHOLD()": "317",
				"WITHDRAWAL_WINDOW_DAYS()": "273",
				"XEN_APY_DAYS_STEP()": "297",
				"XEN_APY_END()": "230",
				"XEN_APY_START()": "316",
				"XEN_MIN_BURN()": "253",
				"XEN_MIN_STAKE()": "253",
				"activeMinters()": "2352",
				"activeStakes()": "2350",
				"allowance(address,address)": "infinite",
				"approve(address,uint256)": "24719",
				"balanceOf(address)": "2618",
				"burn(address,uint256)": "infinite",
				"claimMintReward()": "infinite",
				"claimMintRewardAndShare(address,uint256)": "infinite",
				"claimMintRewardAndStake(uint256,uint256)": "infinite",
				"claimRank(uint256)": "infinite",
				"decimals()": "268",
				"decreaseAllowance(address,uint256)": "27018",
				"genesisTs()": "infinite",
				"getCurrentAMP()": "infinite",
				"getCurrentAPY()": "infinite",
				"getCurrentEAAR()": "infinite",
				"getCurrentMaxTerm()": "infinite",
				"getGrossReward(uint256,uint256,uint256,uint256)": "infinite",
				"getUserMint()": "13498",
				"getUserStake()": "9124",
				"globalRank()": "2352",
				"increaseAllowance(address,uint256)": "infinite",
				"name()": "infinite",
				"stake(uint256,uint256)": "infinite",
				"symbol()": "infinite",
				"totalSupply()": "2394",
				"totalXenStaked()": "2353",
				"transfer(address,uint256)": "infinite",
				"transferFrom(address,address,uint256)": "infinite",
				"userBurns(address)": "2619",
				"userMints(address)": "13299",
				"userStakes(address)": "9011",
				"withdraw()": "infinite"
			},
			"internal": {
				"_calculateAPY()": "infinite",
				"_calculateEAARate()": "infinite",
				"_calculateMaxTerm()": "infinite",
				"_calculateMintReward(uint256,uint256,uint256,uint256,uint256)": "infinite",
				"_calculateRewardAmplifier()": "infinite",
				"_calculateStakeReward(uint256,uint256,uint256,uint256)": "infinite",
				"_cleanUpUserMint()": "73665",
				"_createStake(uint256,uint256)": "infinite",
				"_penalty(uint256)": "infinite"
			}
		},
		"methodIdentifiers": {
			"AUTHORS()": "ba3ec741",
			"DAYS_IN_YEAR()": "02378932",
			"EAA_PM_START()": "909a2ff6",
			"EAA_PM_STEP()": "bcfe394f",
			"EAA_RANK_STEP()": "f340faed",
			"GENESIS_RANK()": "1c6f212e",
			"MAX_PENALTY_PCT()": "0f2e1228",
			"MAX_TERM_END()": "c0c65259",
			"MAX_TERM_START()": "0bfae56b",
			"MIN_TERM()": "f0604829",
			"REWARD_AMPLIFIER_END()": "543d3652",
			"REWARD_AMPLIFIER_START()": "e81917b4",
			"SECONDS_IN_DAY()": "61a52a36",
			"TERM_AMPLIFIER()": "72475f94",
			"TERM_AMPLIFIER_THRESHOLD()": "b21d35f2",
			"WITHDRAWAL_WINDOW_DAYS()": "c56f0bab",
			"XEN_APY_DAYS_STEP()": "32870fda",
			"XEN_APY_END()": "7e7aa62e",
			"XEN_APY_START()": "fed74269",
			"XEN_MIN_BURN()": "110d7fc2",
			"XEN_MIN_STAKE()": "2a62d966",
			"activeMinters()": "b4800cdc",
			"activeStakes()": "ed2f2369",
			"allowance(address,address)": "dd62ed3e",
			"approve(address,uint256)": "095ea7b3",
			"balanceOf(address)": "70a08231",
			"burn(address,uint256)": "9dc29fac",
			"claimMintReward()": "52c7f8dc",
			"claimMintRewardAndShare(address,uint256)": "1c560305",
			"claimMintRewardAndStake(uint256,uint256)": "5bccb4c4",
			"claimRank(uint256)": "9ff054df",
			"decimals()": "313ce567",
			"decreaseAllowance(address,uint256)": "a457c2d7",
			"genesisTs()": "e3af6d0a",
			"getCurrentAMP()": "99202454",
			"getCurrentAPY()": "962ca496",
			"getCurrentEAAR()": "8979c87c",
			"getCurrentMaxTerm()": "45125715",
			"getGrossReward(uint256,uint256,uint256,uint256)": "b0fd1fc2",
			"getUserMint()": "7010d7a1",
			"getUserStake()": "16f9c8fd",
			"globalRank()": "1c244082",
			"increaseAllowance(address,uint256)": "39509351",
			"name()": "06fdde03",
			"stake(uint256,uint256)": "7b0472f0",
			"symbol()": "95d89b41",
			"totalSupply()": "18160ddd",
			"totalXenStaked()": "069612a5",
			"transfer(address,uint256)": "a9059cbb",
			"transferFrom(address,address,uint256)": "23b872dd",
			"userBurns(address)": "ce653d5f",
			"userMints(address)": "df282331",
			"userStakes(address)": "8da7ad23",
			"withdraw()": "3ccfd60b"
		}
	},
	"abi": [
		{
			"inputs": [],
			"stateMutability": "nonpayable",
			"type": "constructor"
		},
		{
			"anonymous": false,
			"inputs": [
				{
					"indexed": true,
					"internalType": "address",
					"name": "owner",
					"type": "address"
				},
				{
					"indexed": true,
					"internalType": "address",
					"name": "spender",
					"type": "address"
				},
				{
					"indexed": false,
					"internalType": "uint256",
					"name": "value",
					"type": "uint256"
				}
			],
			"name": "Approval",
			"type": "event"
		},
		{
			"anonymous": false,
			"inputs": [
				{
					"indexed": true,
					"internalType": "address",
					"name": "user",
					"type": "address"
				},
				{
					"indexed": false,
					"internalType": "uint256",
					"name": "rewardAmount",
					"type": "uint256"
				}
			],
			"name": "MintClaimed",
			"type": "event"
		},
		{
			"anonymous": false,
			"inputs": [
				{
					"indexed": true,
					"internalType": "address",
					"name": "user",
					"type": "address"
				},
				{
					"indexed": false,
					"internalType": "uint256",
					"name": "term",
					"type": "uint256"
				},
				{
					"indexed": false,
					"internalType": "uint256",
					"name": "rank",
					"type": "uint256"
				}
			],
			"name": "RankClaimed",
			"type": "event"
		},
		{
			"anonymous": false,
			"inputs": [
				{
					"indexed": true,
					"internalType": "address",
					"name": "user",
					"type": "address"
				},
				{
					"indexed": false,
					"internalType": "uint256",
					"name": "amount",
					"type": "uint256"
				},
				{
					"indexed": false,
					"internalType": "uint256",
					"name": "term",
					"type": "uint256"
				}
			],
			"name": "Staked",
			"type": "event"
		},
		{
			"anonymous": false,
			"inputs": [
				{
					"indexed": true,
					"internalType": "address",
					"name": "from",
					"type": "address"
				},
				{
					"indexed": true,
					"internalType": "address",
					"name": "to",
					"type": "address"
				},
				{
					"indexed": false,
					"internalType": "uint256",
					"name": "value",
					"type": "uint256"
				}
			],
			"name": "Transfer",
			"type": "event"
		},
		{
			"anonymous": false,
			"inputs": [
				{
					"indexed": true,
					"internalType": "address",
					"name": "user",
					"type": "address"
				},
				{
					"indexed": false,
					"internalType": "uint256",
					"name": "amount",
					"type": "uint256"
				},
				{
					"indexed": false,
					"internalType": "uint256",
					"name": "reward",
					"type": "uint256"
				}
			],
			"name": "Withdrawn",
			"type": "event"
		},
		{
			"inputs": [],
			"name": "AUTHORS",
			"outputs": [
				{
					"internalType": "string",
					"name": "",
					"type": "string"
				}
			],
			"stateMutability": "view",
			"type": "function"
		},
		{
			"inputs": [],
			"name": "DAYS_IN_YEAR",
			"outputs": [
				{
					"internalType": "uint256",
					"name": "",
					"type": "uint256"
				}
			],
			"stateMutability": "view",
			"type": "function"
		},
		{
			"inputs": [],
			"name": "EAA_PM_START",
			"outputs": [
				{
					"internalType": "uint256",
					"name": "",
					"type": "uint256"
				}
			],
			"stateMutability": "view",
			"type": "function"
		},
		{
			"inputs": [],
			"name": "EAA_PM_STEP",
			"outputs": [
				{
					"internalType": "uint256",
					"name": "",
					"type": "uint256"
				}
			],
			"stateMutability": "view",
			"type": "function"
		},
		{
			"inputs": [],
			"name": "EAA_RANK_STEP",
			"outputs": [
				{
					"internalType": "uint256",
					"name": "",
					"type": "uint256"
				}
			],
			"stateMutability": "view",
			"type": "function"
		},
		{
			"inputs": [],
			"name": "GENESIS_RANK",
			"outputs": [
				{
					"internalType": "uint256",
					"name": "",
					"type": "uint256"
				}
			],
			"stateMutability": "view",
			"type": "function"
		},
		{
			"inputs": [],
			"name": "MAX_PENALTY_PCT",
			"outputs": [
				{
					"internalType": "uint256",
					"name": "",
					"type": "uint256"
				}
			],
			"stateMutability": "view",
			"type": "function"
		},
		{
			"inputs": [],
			"name": "MAX_TERM_END",
			"outputs": [
				{
					"internalType": "uint256",
					"name": "",
					"type": "uint256"
				}
			],
			"stateMutability": "view",
			"type": "function"
		},
		{
			"inputs": [],
			"name": "MAX_TERM_START",
			"outputs": [
				{
					"internalType": "uint256",
					"name": "",
					"type": "uint256"
				}
			],
			"stateMutability": "view",
			"type": "function"
		},
		{
			"inputs": [],
			"name": "MIN_TERM",
			"outputs": [
				{
					"internalType": "uint256",
					"name": "",
					"type": "uint256"
				}
			],
			"stateMutability": "view",
			"type": "function"
		},
		{
			"inputs": [],
			"name": "REWARD_AMPLIFIER_END",
			"outputs": [
				{
					"internalType": "uint256",
					"name": "",
					"type": "uint256"
				}
			],
			"stateMutability": "view",
			"type": "function"
		},
		{
			"inputs": [],
			"name": "REWARD_AMPLIFIER_START",
			"outputs": [
				{
					"internalType": "uint256",
					"name": "",
					"type": "uint256"
				}
			],
			"stateMutability": "view",
			"type": "function"
		},
		{
			"inputs": [],
			"name": "SECONDS_IN_DAY",
			"outputs": [
				{
					"internalType": "uint256",
					"name": "",
					"type": "uint256"
				}
			],
			"stateMutability": "view",
			"type": "function"
		},
		{
			"inputs": [],
			"name": "TERM_AMPLIFIER",
			"outputs": [
				{
					"internalType": "uint256",
					"name": "",
					"type": "uint256"
				}
			],
			"stateMutability": "view",
			"type": "function"
		},
		{
			"inputs": [],
			"name": "TERM_AMPLIFIER_THRESHOLD",
			"outputs": [
				{
					"internalType": "uint256",
					"name": "",
					"type": "uint256"
				}
			],
			"stateMutability": "view",
			"type": "function"
		},
		{
			"inputs": [],
			"name": "WITHDRAWAL_WINDOW_DAYS",
			"outputs": [
				{
					"internalType": "uint256",
					"name": "",
					"type": "uint256"
				}
			],
			"stateMutability": "view",
			"type": "function"
		},
		{
			"inputs": [],
			"name": "XEN_APY_DAYS_STEP",
			"outputs": [
				{
					"internalType": "uint256",
					"name": "",
					"type": "uint256"
				}
			],
			"stateMutability": "view",
			"type": "function"
		},
		{
			"inputs": [],
			"name": "XEN_APY_END",
			"outputs": [
				{
					"internalType": "uint256",
					"name": "",
					"type": "uint256"
				}
			],
			"stateMutability": "view",
			"type": "function"
		},
		{
			"inputs": [],
			"name": "XEN_APY_START",
			"outputs": [
				{
					"internalType": "uint256",
					"name": "",
					"type": "uint256"
				}
			],
			"stateMutability": "view",
			"type": "function"
		},
		{
			"inputs": [],
			"name": "XEN_MIN_BURN",
			"outputs": [
				{
					"internalType": "uint256",
					"name": "",
					"type": "uint256"
				}
			],
			"stateMutability": "view",
			"type": "function"
		},
		{
			"inputs": [],
			"name": "XEN_MIN_STAKE",
			"outputs": [
				{
					"internalType": "uint256",
					"name": "",
					"type": "uint256"
				}
			],
			"stateMutability": "view",
			"type": "function"
		},
		{
			"inputs": [],
			"name": "activeMinters",
			"outputs": [
				{
					"internalType": "uint256",
					"name": "",
					"type": "uint256"
				}
			],
			"stateMutability": "view",
			"type": "function"
		},
		{
			"inputs": [],
			"name": "activeStakes",
			"outputs": [
				{
					"internalType": "uint256",
					"name": "",
					"type": "uint256"
				}
			],
			"stateMutability": "view",
			"type": "function"
		},
		{
			"inputs": [
				{
					"internalType": "address",
					"name": "owner",
					"type": "address"
				},
				{
					"internalType": "address",
					"name": "spender",
					"type": "address"
				}
			],
			"name": "allowance",
			"outputs": [
				{
					"internalType": "uint256",
					"name": "",
					"type": "uint256"
				}
			],
			"stateMutability": "view",
			"type": "function"
		},
		{
			"inputs": [
				{
					"internalType": "address",
					"name": "spender",
					"type": "address"
				},
				{
					"internalType": "uint256",
					"name": "amount",
					"type": "uint256"
				}
			],
			"name": "approve",
			"outputs": [
				{
					"internalType": "bool",
					"name": "",
					"type": "bool"
				}
			],
			"stateMutability": "nonpayable",
			"type": "function"
		},
		{
			"inputs": [
				{
					"internalType": "address",
					"name": "account",
					"type": "address"
				}
			],
			"name": "balanceOf",
			"outputs": [
				{
					"internalType": "uint256",
					"name": "",
					"type": "uint256"
				}
			],
			"stateMutability": "view",
			"type": "function"
		},
		{
			"inputs": [
				{
					"internalType": "address",
					"name": "user",
					"type": "address"
				},
				{
					"internalType": "uint256",
					"name": "amount",
					"type": "uint256"
				}
			],
			"name": "burn",
			"outputs": [],
			"stateMutability": "nonpayable",
			"type": "function"
		},
		{
			"inputs": [],
			"name": "claimMintReward",
			"outputs": [],
			"stateMutability": "nonpayable",
			"type": "function"
		},
		{
			"inputs": [
				{
					"internalType": "address",
					"name": "other",
					"type": "address"
				},
				{
					"internalType": "uint256",
					"name": "pct",
					"type": "uint256"
				}
			],
			"name": "claimMintRewardAndShare",
			"outputs": [],
			"stateMutability": "nonpayable",
			"type": "function"
		},
		{
			"inputs": [
				{
					"internalType": "uint256",
					"name": "pct",
					"type": "uint256"
				},
				{
					"internalType": "uint256",
					"name": "term",
					"type": "uint256"
				}
			],
			"name": "claimMintRewardAndStake",
			"outputs": [],
			"stateMutability": "nonpayable",
			"type": "function"
		},
		{
			"inputs": [
				{
					"internalType": "uint256",
					"name": "term",
					"type": "uint256"
				}
			],
			"name": "claimRank",
			"outputs": [],
			"stateMutability": "nonpayable",
			"type": "function"
		},
		{
			"inputs": [],
			"name": "decimals",
			"outputs": [
				{
					"internalType": "uint8",
					"name": "",
					"type": "uint8"
				}
			],
			"stateMutability": "view",
			"type": "function"
		},
		{
			"inputs": [
				{
					"internalType": "address",
					"name": "spender",
					"type": "address"
				},
				{
					"internalType": "uint256",
					"name": "subtractedValue",
					"type": "uint256"
				}
			],
			"name": "decreaseAllowance",
			"outputs": [
				{
					"internalType": "bool",
					"name": "",
					"type": "bool"
				}
			],
			"stateMutability": "nonpayable",
			"type": "function"
		},
		{
			"inputs": [],
			"name": "genesisTs",
			"outputs": [
				{
					"internalType": "uint256",
					"name": "",
					"type": "uint256"
				}
			],
			"stateMutability": "view",
			"type": "function"
		},
		{
			"inputs": [],
			"name": "getCurrentAMP",
			"outputs": [
				{
					"internalType": "uint256",
					"name": "",
					"type": "uint256"
				}
			],
			"stateMutability": "view",
			"type": "function"
		},
		{
			"inputs": [],
			"name": "getCurrentAPY",
			"outputs": [
				{
					"internalType": "uint256",
					"name": "",
					"type": "uint256"
				}
			],
			"stateMutability": "view",
			"type": "function"
		},
		{
			"inputs": [],
			"name": "getCurrentEAAR",
			"outputs": [
				{
					"internalType": "uint256",
					"name": "",
					"type": "uint256"
				}
			],
			"stateMutability": "view",
			"type": "function"
		},
		{
			"inputs": [],
			"name": "getCurrentMaxTerm",
			"outputs": [
				{
					"internalType": "uint256",
					"name": "",
					"type": "uint256"
				}
			],
			"stateMutability": "view",
			"type": "function"
		},
		{
			"inputs": [
				{
					"internalType": "uint256",
					"name": "rankDelta",
					"type": "uint256"
				},
				{
					"internalType": "uint256",
					"name": "amplifier",
					"type": "uint256"
				},
				{
					"internalType": "uint256",
					"name": "term",
					"type": "uint256"
				},
				{
					"internalType": "uint256",
					"name": "eaa",
					"type": "uint256"
				}
			],
			"name": "getGrossReward",
			"outputs": [
				{
					"internalType": "uint256",
					"name": "",
					"type": "uint256"
				}
			],
			"stateMutability": "pure",
			"type": "function"
		},
		{
			"inputs": [],
			"name": "getUserMint",
			"outputs": [
				{
					"components": [
						{
							"internalType": "address",
							"name": "user",
							"type": "address"
						},
						{
							"internalType": "uint256",
							"name": "term",
							"type": "uint256"
						},
						{
							"internalType": "uint256",
							"name": "maturityTs",
							"type": "uint256"
						},
						{
							"internalType": "uint256",
							"name": "rank",
							"type": "uint256"
						},
						{
							"internalType": "uint256",
							"name": "amplifier",
							"type": "uint256"
						},
						{
							"internalType": "uint256",
							"name": "eaaRate",
							"type": "uint256"
						}
					],
					"internalType": "struct XENCrypto.MintInfo",
					"name": "",
					"type": "tuple"
				}
			],
			"stateMutability": "view",
			"type": "function"
		},
		{
			"inputs": [],
			"name": "getUserStake",
			"outputs": [
				{
					"components": [
						{
							"internalType": "uint256",
							"name": "term",
							"type": "uint256"
						},
						{
							"internalType": "uint256",
							"name": "maturityTs",
							"type": "uint256"
						},
						{
							"internalType": "uint256",
							"name": "amount",
							"type": "uint256"
						},
						{
							"internalType": "uint256",
							"name": "apy",
							"type": "uint256"
						}
					],
					"internalType": "struct XENCrypto.StakeInfo",
					"name": "",
					"type": "tuple"
				}
			],
			"stateMutability": "view",
			"type": "function"
		},
		{
			"inputs": [],
			"name": "globalRank",
			"outputs": [
				{
					"internalType": "uint256",
					"name": "",
					"type": "uint256"
				}
			],
			"stateMutability": "view",
			"type": "function"
		},
		{
			"inputs": [
				{
					"internalType": "address",
					"name": "spender",
					"type": "address"
				},
				{
					"internalType": "uint256",
					"name": "addedValue",
					"type": "uint256"
				}
			],
			"name": "increaseAllowance",
			"outputs": [
				{
					"internalType": "bool",
					"name": "",
					"type": "bool"
				}
			],
			"stateMutability": "nonpayable",
			"type": "function"
		},
		{
			"inputs": [],
			"name": "name",
			"outputs": [
				{
					"internalType": "string",
					"name": "",
					"type": "string"
				}
			],
			"stateMutability": "view",
			"type": "function"
		},
		{
			"inputs": [
				{
					"internalType": "uint256",
					"name": "amount",
					"type": "uint256"
				},
				{
					"internalType": "uint256",
					"name": "term",
					"type": "uint256"
				}
			],
			"name": "stake",
			"outputs": [],
			"stateMutability": "nonpayable",
			"type": "function"
		},
		{
			"inputs": [],
			"name": "symbol",
			"outputs": [
				{
					"internalType": "string",
					"name": "",
					"type": "string"
				}
			],
			"stateMutability": "view",
			"type": "function"
		},
		{
			"inputs": [],
			"name": "totalSupply",
			"outputs": [
				{
					"internalType": "uint256",
					"name": "",
					"type": "uint256"
				}
			],
			"stateMutability": "view",
			"type": "function"
		},
		{
			"inputs": [],
			"name": "totalXenStaked",
			"outputs": [
				{
					"internalType": "uint256",
					"name": "",
					"type": "uint256"
				}
			],
			"stateMutability": "view",
			"type": "function"
		},
		{
			"inputs": [
				{
					"internalType": "address",
					"name": "to",
					"type": "address"
				},
				{
					"internalType": "uint256",
					"name": "amount",
					"type": "uint256"
				}
			],
			"name": "transfer",
			"outputs": [
				{
					"internalType": "bool",
					"name": "",
					"type": "bool"
				}
			],
			"stateMutability": "nonpayable",
			"type": "function"
		},
		{
			"inputs": [
				{
					"internalType": "address",
					"name": "from",
					"type": "address"
				},
				{
					"internalType": "address",
					"name": "to",
					"type": "address"
				},
				{
					"internalType": "uint256",
					"name": "amount",
					"type": "uint256"
				}
			],
			"name": "transferFrom",
			"outputs": [
				{
					"internalType": "bool",
					"name": "",
					"type": "bool"
				}
			],
			"stateMutability": "nonpayable",
			"type": "function"
		},
		{
			"inputs": [
				{
					"internalType": "address",
					"name": "",
					"type": "address"
				}
			],
			"name": "userBurns",
			"outputs": [
				{
					"internalType": "uint256",
					"name": "",
					"type": "uint256"
				}
			],
			"stateMutability": "view",
			"type": "function"
		},
		{
			"inputs": [
				{
					"internalType": "address",
					"name": "",
					"type": "address"
				}
			],
			"name": "userMints",
			"outputs": [
				{
					"internalType": "address",
					"name": "user",
					"type": "address"
				},
				{
					"internalType": "uint256",
					"name": "term",
					"type": "uint256"
				},
				{
					"internalType": "uint256",
					"name": "maturityTs",
					"type": "uint256"
				},
				{
					"internalType": "uint256",
					"name": "rank",
					"type": "uint256"
				},
				{
					"internalType": "uint256",
					"name": "amplifier",
					"type": "uint256"
				},
				{
					"internalType": "uint256",
					"name": "eaaRate",
					"type": "uint256"
				}
			],
			"stateMutability": "view",
			"type": "function"
		},
		{
			"inputs": [
				{
					"internalType": "address",
					"name": "",
					"type": "address"
				}
			],
			"name": "userStakes",
			"outputs": [
				{
					"internalType": "uint256",
					"name": "term",
					"type": "uint256"
				},
				{
					"internalType": "uint256",
					"name": "maturityTs",
					"type": "uint256"
				},
				{
					"internalType": "uint256",
					"name": "amount",
					"type": "uint256"
				},
				{
					"internalType": "uint256",
					"name": "apy",
					"type": "uint256"
				}
			],
			"stateMutability": "view",
			"type": "function"
		},
		{
			"inputs": [],
			"name": "withdraw",
			"outputs": [],
			"stateMutability": "nonpayable",
			"type": "function"
		}
	]
}