{
	"data": {
		"bytecode": {
			"linkReferences": {
				"XENIUM/Math.sol": {
					"Math": [
						{
							"length": 20,
							"start": 9454
						},
						{
							"length": 20,
							"start": 10762
						},
						{
							"length": 20,
							"start": 11663
						},
						{
							"length": 20,
							"start": 12585
						}
					]
				}
			},
			"object": "60c0604052620000156201518061012c620001e7565b60055560016006553480156200002a57600080fd5b506040516200361e3803806200361e8339810160408190526200004d9162000213565b6040518060400160405280600b81526020016a58454e455643727970746f60a81b815250604051806040016040528060058152602001642c22a722ab60d91b8152508160039081620000a09190620002ea565b506004620000af8282620002ea565b5050506001600160a01b038116620000fb5760405162461bcd60e51b815260206004820152600b60248201526a626164206164647265737360a81b604482015260640160405180910390fd5b6001600160a01b03811660a081905260408051630e12204160e11b81529051631c244082916004808201926020929091908290030181865afa15801562000146573d6000803e3d6000fd5b505050506040513d601f19601f820116820180604052508101906200016c9190620003b6565b60068190555060a0516001600160a01b031663451257156040518163ffffffff1660e01b8152600401602060405180830381865afa158015620001b3573d6000803e3d6000fd5b505050506040513d601f19601f82011682018060405250810190620001d99190620003b6565b6005555042608052620003d0565b80820281158282048414176200020d57634e487b7160e01b600052601160045260246000fd5b92915050565b6000602082840312156200022657600080fd5b81516001600160a01b03811681146200023e57600080fd5b9392505050565b634e487b7160e01b600052604160045260246000fd5b600181811c908216806200027057607f821691505b6020821081036200029157634e487b7160e01b600052602260045260246000fd5b50919050565b601f821115620002e557600081815260208120601f850160051c81016020861015620002c05750805b601f850160051c820191505b81811015620002e157828155600101620002cc565b5050505b505050565b81516001600160401b0381111562000306576200030662000245565b6200031e816200031784546200025b565b8462000297565b602080601f8311600181146200035657600084156200033d5750858301515b600019600386901b1c1916600185901b178555620002e1565b600085815260208120601f198616915b82811015620003875788860151825594840194600190910190840162000366565b5085821015620003a65787850151600019600388901b60f8161c191681555b5050505050600190811b01905550565b600060208284031215620003c957600080fd5b5051919050565b60805160a0516131f7620004276000396000818161060301528181611cc801528181611db401528181611eb601526129ff015260008181610842015281816128c80152818161292b0152612c4f01526131f76000f3fe608060405234801561001057600080fd5b50600436106103ba5760003560e01c806372475f94116101f4578063b4800cdc1161011a578063df282331116100ad578063f06048291161007c578063f060482914610876578063f27a62641461087e578063f340faed14610891578063fed742691461089b57600080fd5b8063df282331146107b9578063e3af6d0a1461083d578063e81917b414610864578063ed2f23691461086d57600080fd5b8063c56f0bab116100e9578063c56f0bab1461075e578063ce653d5f14610766578063cf7a862614610786578063dd62ed3e146107a657600080fd5b8063b4800cdc14610745578063ba3ec7411461074e578063bcfe394f146104a8578063c0c652591461075657600080fd5b8063962ca49611610192578063a457c2d711610161578063a457c2d714610703578063a9059cbb14610716578063b0fd1fc214610729578063b21d35f21461073c57600080fd5b8063962ca496146106cd57806399202454146106d55780639dc29fac146106dd5780639ff054df146106f057600080fd5b80638979c87c116101ce5780638979c87c146106605780638da7ad2314610668578063909a2ff6146106bd57806395d89b41146106c557600080fd5b806372475f941461063d5780637b0472f0146106455780637e7aa62e1461065857600080fd5b80632a6485a5116102e4578063543746b1116102775780636a5e0766116102465780636a5e07661461055d5780637010d7a11461057d57806370a08231146105d557806371141a58146105fe57600080fd5b8063543746b11461052e578063543d3652146104a85780635bccb4c41461054057806361a52a361461055357600080fd5b80633ccfd60b116102b35780633ccfd60b146104f657806345125715146104fe57806352c7f8dc14610506578063539313b81461050e57600080fd5b80632a6485a5146104c3578063313ce567146104cc57806332870fda146104db57806339509351146104e357600080fd5b8063110d7fc21161035c5780631c5603051161032b5780631c560305146104935780631c6f212e146104a857806323b872dd146104b05780632a62d9661461043f57600080fd5b8063110d7fc21461043f57806316f9c8fd1461044757806318160ddd146104825780631c2440821461048a57600080fd5b806306fdde031161039857806306fdde0314610407578063095ea7b31461041c5780630bfae56b1461042f5780630f2e12281461043757600080fd5b806301ffc9a7146103bf57806302378932146103e7578063069612a5146103fe575b600080fd5b6103d26103cd366004612d60565b6108a3565b60405190151581526020015b60405180910390f35b6103f061016d81565b6040519081526020016103de565b6103f060095481565b61040f6108da565b6040516103de9190612d8a565b6103d261042a366004612df4565b61096c565b6103f0610984565b6103f0606381565b6103f0600081565b61044f610995565b6040516103de91908151815260208083015190820152604080830151908201526060918201519181019190915260800190565b6002546103f0565b6103f060065481565b6104a66104a1366004612df4565b610a06565b005b6103f0600181565b6103d26104be366004612e1e565b610c67565b6103f060055481565b604051601281526020016103de565b6103f0605a81565b6103d26104f1366004612df4565b610c8b565b6104a6610cad565b6103f0610e03565b6104a6610e12565b6103f061051c366004612e5a565b600e6020526000908152604090205481565b6104a661053c366004612df4565b5050565b6104a661054e366004612e75565b610f35565b6103f06201518081565b6103f061056b366004612e5a565b600f6020526000908152604090205481565b610585611298565b6040516103de919081516001600160a01b031681526020808301519082015260408083015190820152606080830151908201526080808301519082015260a0918201519181019190915260c00190565b6103f06105e3366004612e5a565b6001600160a01b031660009081526020819052604090205490565b6106257f000000000000000000000000000000000000000000000000000000000000000081565b6040516001600160a01b0390911681526020016103de565b6103f0600f81565b6104a6610653366004612e75565b61133d565b6103f0600281565b6103f0611567565b61069d610676366004612e5a565b600b6020526000908152604090208054600182015460028301546003909301549192909184565b6040805194855260208501939093529183015260608201526080016103de565b6103f0606481565b61040f611571565b6103f0611580565b6103f061158a565b6104a66106eb366004612df4565b611594565b6104a66106fe366004612e97565b611746565b6103d2610711366004612df4565b6119c7565b6103d2610724366004612df4565b611a42565b6103f0610737366004612eb0565b611a50565b6103f061138881565b6103f060075481565b61040f611ae0565b6103f0611afc565b6103f0600781565b6103f0610774366004612e5a565b600c6020526000908152604090205481565b6103f0610794366004612e5a565b600d6020526000908152604090205481565b6103f06107b4366004612ee2565b611b0b565b6108066107c7366004612e5a565b600a602052600090815260409020805460018201546002830154600384015460048501546005909501546001600160a01b039094169492939192909186565b604080516001600160a01b0390971687526020870195909552938501929092526060840152608083015260a082015260c0016103de565b6103f07f000000000000000000000000000000000000000000000000000000000000000081565b6103f061012c81565b6103f060085481565b6103f0611b36565b6104a661088c366004612df4565b611b4f565b6103f0620186a081565b6103f0601481565b60006001600160e01b0319821663543746b160e01b14806108d457506001600160e01b031982166301ffc9a760e01b145b92915050565b6060600380546108e990612f15565b80601f016020809104026020016040519081016040528092919081815260200182805461091590612f15565b80156109625780601f1061093757610100808354040283529160200191610962565b820191906000526020600020905b81548152906001019060200180831161094557829003601f168201915b5050505050905090565b60003361097a818585611f82565b5060019392505050565b610992620151806064612f5f565b81565b6109c06040518060800160405280600081526020016000815260200160008152602001600081525090565b50336000908152600b6020908152604091829020825160808101845281548152600182015492810192909252600281015492820192909252600390910154606082015290565b336000908152600a6020908152604091829020825160c08101845281546001600160a01b03908116825260018301549382019390935260028201549381019390935260038101546060840152600481015460808401526005015460a08301528316610ac65760405162461bcd60e51b815260206004820152602560248201527f4352616e6b3a2043616e6e6f742073686172652077697468207a65726f206164604482015264647265737360d81b60648201526084015b60405180910390fd5b60008211610b165760405162461bcd60e51b815260206004820181905260248201527f4352616e6b3a2043616e6e6f74207368617265207a65726f2070657263656e746044820152606401610abd565b60658210610b665760405162461bcd60e51b815260206004820181905260248201527f4352616e6b3a2043616e6e6f74207368617265203130302b2070657263656e746044820152606401610abd565b6000816060015111610b8a5760405162461bcd60e51b8152600401610abd90612f76565b80604001514211610bad5760405162461bcd60e51b8152600401610abd90612fa5565b6000610bd082606001518360200151846040015185608001518660a001516120a7565b610be290670de0b6b3a7640000612f5f565b905060006064610bf28584612f5f565b610bfc9190612ff0565b90506000610c0a8284613012565b9050610c17335b826121a5565b610c2186836121a5565b610c29612284565b60405183815233907fd74752b13281df13701575f3a507e9b1242e0b5fb040143211c481c1fce573a6906020015b60405180910390a2505050505050565b600033610c758582856122d8565b610c80858585612352565b506001949350505050565b60003361097a818585610c9e8383611b0b565b610ca89190613025565b611f82565b336000908152600b6020908152604091829020825160808101845281548152600182015492810192909252600281015492820183905260030154606082015290610d325760405162461bcd60e51b815260206004820152601660248201527558454e45563a206e6f207374616b652065786973747360501b6044820152606401610abd565b6000610d508260400151836000015184602001518560600151612520565b600880549192506000610d6283613038565b9190505550816040015160096000828254610d7d9190613012565b90915550610d9c905033828460400151610d979190613025565b6121a5565b60408083015181519081526020810183905233917f92ccf450a286a957af52509bc1c9939d1a6a481783e142e41e2499f0bb66ebc6910160405180910390a25050336000908152600b60205260408120818155600181018290556002810182905560030155565b6000610e0d61257e565b905090565b336000908152600a6020908152604091829020825160c08101845281546001600160a01b031681526001820154928101929092526002810154928201929092526003820154606082018190526004830154608083015260059092015460a082015290610e905760405162461bcd60e51b8152600401610abd90612f76565b80604001514211610eb35760405162461bcd60e51b8152600401610abd90612fa5565b6000610ed682606001518360200151846040015185608001518660a001516120a7565b610ee890670de0b6b3a7640000612f5f565b9050610ef333610c11565b610efb612284565b60405181815233907fd74752b13281df13701575f3a507e9b1242e0b5fb040143211c481c1fce573a6906020015b60405180910390a25050565b336000908152600a6020908152604091829020825160c08101845281546001600160a01b03168152600182015492810192909252600281015492820192909252600382015460608201526004820154608082015260059091015460a082015260658310610fe45760405162461bcd60e51b815260206004820181905260248201527f4352616e6b3a2043616e6e6f74207368617265203e3130302070657263656e746044820152606401610abd565b60008160600151116110085760405162461bcd60e51b8152600401610abd90612f76565b8060400151421161102b5760405162461bcd60e51b8152600401610abd90612fa5565b600061104e82606001518360200151846040015185608001518660a001516120a7565b61106090670de0b6b3a7640000612f5f565b9050600060646110708684612f5f565b61107a9190612ff0565b905060006110888284613012565b905061109333610c11565b61109b612284565b60405183815233907fd74752b13281df13701575f3a507e9b1242e0b5fb040143211c481c1fce573a69060200160405180910390a2600082116111195760405162461bcd60e51b815260206004820152601660248201527558454e45563a2042656c6f77206d696e207374616b6560501b6044820152606401610abd565b60016111286201518082612f5f565b6111329190613012565b61113f6201518087612f5f565b1161118c5760405162461bcd60e51b815260206004820152601b60248201527f58454e45563a2042656c6f77206d696e207374616b65207465726d00000000006044820152606401610abd565b61119b620151806103e8612f5f565b6111a6906001613025565b6111b36201518087612f5f565b106112005760405162461bcd60e51b815260206004820152601b60248201527f58454e454f3a2041626f7665206d6178207374616b65207465726d00000000006044820152606401610abd565b336000908152600b6020526040902060020154156112565760405162461bcd60e51b815260206004820152601360248201527258454e45563a207374616b652065786973747360681b6044820152606401610abd565b6112608286612685565b604080518381526020810187905233917f1449c6dd7851abc30abf37f57715f492010519147cc2652fbc38202c18a6ee909101610c57565b6112da6040518060c0016040528060006001600160a01b0316815260200160008152602001600081526020016000815260200160008152602001600081525090565b50336000908152600a6020908152604091829020825160c08101845281546001600160a01b03168152600182015492810192909252600281015492820192909252600382015460608201526004820154608082015260059091015460a082015290565b81611347336105e3565b10156113955760405162461bcd60e51b815260206004820152601960248201527f58454e45563a206e6f7420656e6f7567682062616c616e6365000000000000006044820152606401610abd565b600082116113de5760405162461bcd60e51b815260206004820152601660248201527558454e45563a2042656c6f77206d696e207374616b6560501b6044820152606401610abd565b60016113ed6201518082612f5f565b6113f79190613012565b6114046201518083612f5f565b116114515760405162461bcd60e51b815260206004820152601b60248201527f58454e45563a2042656c6f77206d696e207374616b65207465726d00000000006044820152606401610abd565b611460620151806103e8612f5f565b61146b906001613025565b6114786201518083612f5f565b106114c55760405162461bcd60e51b815260206004820152601b60248201527f58454e45563a2041626f7665206d6178207374616b65207465726d00000000006044820152606401610abd565b336000908152600b60205260409020600201541561151b5760405162461bcd60e51b815260206004820152601360248201527258454e45563a207374616b652065786973747360681b6044820152606401610abd565b6115253383612728565b61152f8282612685565b604080518381526020810183905233917f1449c6dd7851abc30abf37f57715f492010519147cc2652fbc38202c18a6ee909101610f29565b6000610e0d61286e565b6060600480546108e990612f15565b6000610e0d6128b2565b6000610e0d61291f565b600081116115dc5760405162461bcd60e51b8152602060048201526015602482015274109d5c9b8e8810995b1bddc81b5a5b881b1a5b5a5d605a1b6044820152606401610abd565b336040516301ffc9a760e01b815263543746b160e01b60048201526001600160a01b0391909116906301ffc9a790602401602060405180830381865afa15801561162a573d6000803e3d6000fd5b505050506040513d601f19601f8201168201806040525081019061164e919061304f565b61169a5760405162461bcd60e51b815260206004820152601e60248201527f4275726e3a206e6f74206120737570706f7274656420636f6e747261637400006044820152606401610abd565b6116a58233836122d8565b6116af8282612728565b6001600160a01b0382166000908152600c6020526040812080548392906116d7908490613025565b9091555033905060405163543746b160e01b81526001600160a01b03848116600483015260248201849052919091169063543746b190604401600060405180830381600087803b15801561172a57600080fd5b505af115801561173e573d6000803e3d6000fd5b505050505050565b61174e6129fb565b600061175d6201518083612f5f565b9050600161176e6201518082612f5f565b6117789190613012565b81116117c65760405162461bcd60e51b815260206004820152601960248201527f4352616e6b3a205465726d206c657373207468616e206d696e000000000000006044820152606401610abd565b6117ce61257e565b6117d9906001613025565b81106118365760405162461bcd60e51b815260206004820152602660248201527f4352616e6b3a205465726d206d6f7265207468616e2063757272656e74206d6160448201526578207465726d60d01b6064820152608401610abd565b336000908152600a6020526040902060030154156118965760405162461bcd60e51b815260206004820152601f60248201527f4352616e6b3a204d696e7420616c726561647920696e2070726f6772657373006044820152606401610abd565b60006040518060c001604052806118aa3390565b6001600160a01b03168152602081018590526040016118c98442613025565b815260200160065481526020016118de61291f565b81526020016118eb61286e565b9052336000908152600a60209081526040808320845181546001600160a01b0319166001600160a01b039091161781559184015160018301558301516002820155606083015160038201556080830151600482015560a0830151600590910155600780549293509061195c83613071565b91905055506119683390565b6001600160a01b03167fe9149e1b5059238baed02fa659dbf4bd932fbcf760a431330df4d934bc942f3784600660008154809291906119a690613071565b909155506040805192835260208301919091520160405180910390a2505050565b600033816119d58286611b0b565b905083811015611a355760405162461bcd60e51b815260206004820152602560248201527f45524332303a2064656372656173656420616c6c6f77616e63652062656c6f77604482015264207a65726f60d81b6064820152608401610abd565b610c808286868403611f82565b60003361097a818585612352565b600080611a67611a5f87612a93565b600f0b612ab1565b90506000611aa3611a7785612a93565b611a9a611a8388612a93565b611a9a611a8f8b612a93565b600f88900b90612b95565b600f0b90612b95565b9050611ac9611ac1611ab66103e8612a93565b600f84900b90612bd3565b600f0b612c2a565b67ffffffffffffffff16925050505b949350505050565b6040518060600160405280602e8152602001613194602e913981565b610992620151806103e8612f5f565b6001600160a01b03918216600090815260016020908152604080832093909416825291909152205490565b6001611b456201518082612f5f565b6109929190613012565b6000611b59612c46565b90506000611b696012600a61316e565b611b739084612f5f565b9050600182151514611bc05760405162461bcd60e51b8152602060048201526016602482015275496e76616c69642074696d6520746f2062726964676560501b6044820152606401610abd565b326001600160a01b03851614611c075760405162461bcd60e51b815260206004820152600c60248201526b24b73b30b634b2102ab9b2b960a11b6044820152606401610abd565b6001600160a01b038416611c685760405162461bcd60e51b815260206004820152602260248201527f4275726e3a20596f752063616e74206275726e2066726f6d2061646472657373604482015261020360f41b6064820152608401610abd565b60008111611cb05760405162461bcd60e51b8152602060048201526015602482015274109d5c9b8e8810995b1bddc81b5a5b881b1a5b5a5d605a1b6044820152606401610abd565b6040516370a0823160e01b81523360048201526000907f00000000000000000000000000000000000000000000000000000000000000006001600160a01b0316906370a0823190602401602060405180830381865afa158015611d17573d6000803e3d6000fd5b505050506040513d601f19601f82011682018060405250810190611d3b919061317a565b9050611d48600183613012565b8111611d965760405162461bcd60e51b815260206004820152601d60248201527f58454e45563a206e6f7420656e6f7567682058454e2062616c616e63650000006044820152606401610abd565b604051636eb1769f60e11b81523360048201523060248201526000907f00000000000000000000000000000000000000000000000000000000000000006001600160a01b03169063dd62ed3e90604401602060405180830381865afa158015611e03573d6000803e3d6000fd5b505050506040513d601f19601f82011682018060405250810190611e27919061317a565b9050611e34600184613012565b8111611e9a5760405162461bcd60e51b815260206004820152602f60248201527f58454e45563a206e6f7420656e6f7567682058454e2062616c616e636520617060448201526e383937bb32b2103337b910313ab93760891b6064820152608401610abd565b604051632770a7eb60e21b8152336004820152602481018490527f00000000000000000000000000000000000000000000000000000000000000006001600160a01b031690639dc29fac90604401600060405180830381600087803b158015611f0257600080fd5b505af1158015611f16573d6000803e3d6000fd5b505050506001600160a01b0386166000908152600d602052604081208054879290611f42908490613025565b9091555060009050611f55600a87612ff0565b9050611f636012600a61316e565b611f6d9082612f5f565b9350611f7933856121a5565b50505050505050565b6001600160a01b038316611fe45760405162461bcd60e51b8152602060048201526024808201527f45524332303a20617070726f76652066726f6d20746865207a65726f206164646044820152637265737360e01b6064820152608401610abd565b6001600160a01b0382166120455760405162461bcd60e51b815260206004820152602260248201527f45524332303a20617070726f766520746f20746865207a65726f206164647265604482015261737360f01b6064820152608401610abd565b6001600160a01b0383811660008181526001602090815260408083209487168084529482529182902085905590518481527f8c5be1e5ebec7d5bd14f71427d1e84f3dd0314c0f7b2291e5b200ac8c7c3b92591015b60405180910390a3505050565b6000806120b48542613012565b905060006120c182612c8b565b9050600073__$16c37ee633210877eaced9daf60cfcca02$__636d5433e68a6006546120ed9190613012565b6040516001600160e01b031960e084901b168152600481019190915260026024820152604401602060405180830381865af4158015612130573d6000803e3d6000fd5b505050506040513d601f19601f82011682018060405250810190612154919061317a565b90506000612164866103e8613025565b9050600061217483898c85611a50565b905060646121828582613012565b61218c9083612f5f565b6121969190612ff0565b9b9a5050505050505050505050565b6001600160a01b0382166121fb5760405162461bcd60e51b815260206004820152601f60248201527f45524332303a206d696e7420746f20746865207a65726f2061646472657373006044820152606401610abd565b806002600082825461220d9190613025565b90915550506001600160a01b0382166000908152602081905260408120805483929061223a908490613025565b90915550506040518181526001600160a01b038316906000907fddf252ad1be2c89b69c2b068fc378daa952ba7f163c4a11628f55a4df523b3ef9060200160405180910390a35050565b336000908152600a6020526040812080546001600160a01b03191681556001810182905560028101829055600381018290556004810182905560050181905560078054916122d183613038565b9190505550565b60006122e48484611b0b565b9050600019811461234c578181101561233f5760405162461bcd60e51b815260206004820152601d60248201527f45524332303a20696e73756666696369656e7420616c6c6f77616e63650000006044820152606401610abd565b61234c8484848403611f82565b50505050565b6001600160a01b0383166123b65760405162461bcd60e51b815260206004820152602560248201527f45524332303a207472616e736665722066726f6d20746865207a65726f206164604482015264647265737360d81b6064820152608401610abd565b6001600160a01b0382166124185760405162461bcd60e51b815260206004820152602360248201527f45524332303a207472616e7366657220746f20746865207a65726f206164647260448201526265737360e81b6064820152608401610abd565b6001600160a01b038316600090815260208190526040902054818110156124905760405162461bcd60e51b815260206004820152602660248201527f45524332303a207472616e7366657220616d6f756e7420657863656564732062604482015265616c616e636560d01b6064820152608401610abd565b6001600160a01b038085166000908152602081905260408082208585039055918516815290812080548492906124c7908490613025565b92505081905550826001600160a01b0316846001600160a01b03167fddf252ad1be2c89b69c2b068fc378daa952ba7f163c4a11628f55a4df523b3ef8460405161251391815260200190565b60405180910390a361234c565b60008242111561257357600061016d6125398685612f5f565b61254690620f4240612f5f565b6125509190612ff0565b90506305f5e1006125618288612f5f565b61256b9190612ff0565b915050611ad8565b506000949350505050565b600061138860065411156126775760006125ac611ac161259e600f612a93565b611a9a611a5f600654612a93565b67ffffffffffffffff16905060006125c76201518083612f5f565b6125d5620151806064612f5f565b6125df9190613025565b905073__$16c37ee633210877eaced9daf60cfcca02$__637ae2b5c78261260b620151806103e8612f5f565b6040516001600160e01b031960e085901b16815260048101929092526024820152604401602060405180830381865af415801561264c573d6000803e3d6000fd5b505050506040513d601f19601f82011682018060405250810190612670919061317a565b9250505090565b610e0d620151806064612f5f565b604051806080016040528082815260200162015180836126a59190612f5f565b6126af9042613025565b81526020018381526020016126c26128b2565b9052336000908152600b60209081526040808320845181559184015160018301558301516002820155606090920151600390920191909155600880549161270883613071565b9190505550816009600082825461271f9190613025565b90915550505050565b6001600160a01b0382166127885760405162461bcd60e51b815260206004820152602160248201527f45524332303a206275726e2066726f6d20746865207a65726f206164647265736044820152607360f81b6064820152608401610abd565b6001600160a01b038216600090815260208190526040902054818110156127fc5760405162461bcd60e51b815260206004820152602260248201527f45524332303a206275726e20616d6f756e7420657863656564732062616c616e604482015261636560f01b6064820152608401610abd565b6001600160a01b038316600090815260208190526040812083830390556002805484929061282b908490613012565b90915550506040518281526000906001600160a01b038516907fddf252ad1be2c89b69c2b068fc378daa952ba7f163c4a11628f55a4df523b3ef9060200161209a565b600080620186a060065460016128849190612f5f565b61288e9190612ff0565b905060648111156128a157600091505090565b6128ac816064613012565b91505090565b6000806128c3605a62015180612f5f565b6128ed7f000000000000000000000000000000000000000000000000000000000000000042613012565b6128f79190612ff0565b90508061290660026014613012565b101561291457600291505090565b6128ac816014613012565b600080620151806129507f000000000000000000000000000000000000000000000000000000000000000042613012565b61295a9190612ff0565b905061012c8110156129f35773__$16c37ee633210877eaced9daf60cfcca02$__636d5433e661298c8361012c613012565b6040516001600160e01b031960e084901b168152600481019190915260016024820152604401602060405180830381865af41580156129cf573d6000803e3d6000fd5b505050506040513d601f19601f820116820180604052508101906128ac919061317a565b600191505090565b60007f00000000000000000000000000000000000000000000000000000000000000006001600160a01b0316631c2440826040518163ffffffff1660e01b8152600401602060405180830381865afa158015612a5b573d6000803e3d6000fd5b505050506040513d601f19601f82011682018060405250810190612a7f919061317a565b6006549091508181101561053c5750600655565b6000677fffffffffffffff821115612aaa57600080fd5b5060401b90565b60008082600f0b13612ac257600080fd5b6000600f83900b680100000000000000008112612ae1576040918201911d5b6401000000008112612af5576020918201911d5b620100008112612b07576010918201911d5b6101008112612b18576008918201911d5b60108112612b28576004918201911d5b60048112612b38576002918201911d5b60028112612b47576001820191505b603f19820160401b600f85900b607f8490031b6780000000000000005b6000811315612b8a5790800260ff81901c8281029390930192607f011c9060011d612b64565b509095945050505050565b6000600f83810b9083900b0260401d60016001607f1b03198112801590612bc3575060016001607f1b038113155b612bcc57600080fd5b9392505050565b600081600f0b600003612be557600080fd5b600082600f0b604085600f0b901b81612c0057612c00612fda565b05905060016001607f1b03198112801590612bc3575060016001607f1b03811315612bcc57600080fd5b60008082600f0b1215612c3c57600080fd5b50600f0b60401d90565b60008080612c747f000000000000000000000000000000000000000000000000000000000000000042613012565b9050600554811015612c8557600191505b50919050565b600080612c9b6201518084612ff0565b9050612ca960016007613012565b811115612cb95750606392915050565b600060016007612cca846003613025565b6001901b612cd89190612ff0565b612ce29190613012565b604051637ae2b5c760e01b8152600481018290526063602482015290915073__$16c37ee633210877eaced9daf60cfcca02$__90637ae2b5c790604401602060405180830381865af4158015612d3c573d6000803e3d6000fd5b505050506040513d601f19601f82011682018060405250810190611ad8919061317a565b600060208284031215612d7257600080fd5b81356001600160e01b031981168114612bcc57600080fd5b600060208083528351808285015260005b81811015612db757858101830151858201604001528201612d9b565b506000604082860101526040601f19601f8301168501019250505092915050565b80356001600160a01b0381168114612def57600080fd5b919050565b60008060408385031215612e0757600080fd5b612e1083612dd8565b946020939093013593505050565b600080600060608486031215612e3357600080fd5b612e3c84612dd8565b9250612e4a60208501612dd8565b9150604084013590509250925092565b600060208284031215612e6c57600080fd5b612bcc82612dd8565b60008060408385031215612e8857600080fd5b50508035926020909101359150565b600060208284031215612ea957600080fd5b5035919050565b60008060008060808587031215612ec657600080fd5b5050823594602084013594506040840135936060013592509050565b60008060408385031215612ef557600080fd5b612efe83612dd8565b9150612f0c60208401612dd8565b90509250929050565b600181811c90821680612f2957607f821691505b602082108103612c8557634e487b7160e01b600052602260045260246000fd5b634e487b7160e01b600052601160045260246000fd5b80820281158282048414176108d4576108d4612f49565b6020808252601590820152744352616e6b3a204e6f206d696e742065786973747360581b604082015260600190565b6020808252818101527f4352616e6b3a204d696e74206d61747572697479206e6f742072656163686564604082015260600190565b634e487b7160e01b600052601260045260246000fd5b60008261300d57634e487b7160e01b600052601260045260246000fd5b500490565b818103818111156108d4576108d4612f49565b808201808211156108d4576108d4612f49565b60008161304757613047612f49565b506000190190565b60006020828403121561306157600080fd5b81518015158114612bcc57600080fd5b60006001820161308357613083612f49565b5060010190565b600181815b808511156130c55781600019048211156130ab576130ab612f49565b808516156130b857918102915b93841c939080029061308f565b509250929050565b6000826130dc575060016108d4565b816130e9575060006108d4565b81600181146130ff576002811461310957613125565b60019150506108d4565b60ff84111561311a5761311a612f49565b50506001821b6108d4565b5060208310610133831016604e8410600b8410161715613148575081810a6108d4565b613152838361308a565b806000190482111561316657613166612f49565b029392505050565b6000612bcc83836130cd565b60006020828403121561318c57600080fd5b505191905056fe50657073204c616220404d724a61636b4c6576696e20406c62656c79616576206661697263727970746f2e6f7267a264697066735822122014c8acf4e5223478e34ee9a64c1c6270eeddbfdb8f88c7c57d601ee8bf1f7b3c64736f6c63430008120033",
			"opcodes": "PUSH1 0xC0 PUSH1 0x40 MSTORE PUSH3 0x15 PUSH3 0x15180 PUSH2 0x12C PUSH3 0x1E7 JUMP JUMPDEST PUSH1 0x5 SSTORE PUSH1 0x1 PUSH1 0x6 SSTORE CALLVALUE DUP1 ISZERO PUSH3 0x2A JUMPI PUSH1 0x0 DUP1 REVERT JUMPDEST POP PUSH1 0x40 MLOAD PUSH3 0x361E CODESIZE SUB DUP1 PUSH3 0x361E DUP4 CODECOPY DUP2 ADD PUSH1 0x40 DUP2 SWAP1 MSTORE PUSH3 0x4D SWAP2 PUSH3 0x213 JUMP JUMPDEST PUSH1 0x40 MLOAD DUP1 PUSH1 0x40 ADD PUSH1 0x40 MSTORE DUP1 PUSH1 0xB DUP2 MSTORE PUSH1 0x20 ADD PUSH11 0x58454E455643727970746F PUSH1 0xA8 SHL DUP2 MSTORE POP PUSH1 0x40 MLOAD DUP1 PUSH1 0x40 ADD PUSH1 0x40 MSTORE DUP1 PUSH1 0x5 DUP2 MSTORE PUSH1 0x20 ADD PUSH5 0x2C22A722AB PUSH1 0xD9 SHL DUP2 MSTORE POP DUP2 PUSH1 0x3 SWAP1 DUP2 PUSH3 0xA0 SWAP2 SWAP1 PUSH3 0x2EA JUMP JUMPDEST POP PUSH1 0x4 PUSH3 0xAF DUP3 DUP3 PUSH3 0x2EA JUMP JUMPDEST POP POP POP PUSH1 0x1 PUSH1 0x1 PUSH1 0xA0 SHL SUB DUP2 AND PUSH3 0xFB JUMPI PUSH1 0x40 MLOAD PUSH3 0x461BCD PUSH1 0xE5 SHL DUP2 MSTORE PUSH1 0x20 PUSH1 0x4 DUP3 ADD MSTORE PUSH1 0xB PUSH1 0x24 DUP3 ADD MSTORE PUSH11 0x6261642061646472657373 PUSH1 0xA8 SHL PUSH1 0x44 DUP3 ADD MSTORE PUSH1 0x64 ADD PUSH1 0x40 MLOAD DUP1 SWAP2 SUB SWAP1 REVERT JUMPDEST PUSH1 0x1 PUSH1 0x1 PUSH1 0xA0 SHL SUB DUP2 AND PUSH1 0xA0 DUP2 SWAP1 MSTORE PUSH1 0x40 DUP1 MLOAD PUSH4 0xE122041 PUSH1 0xE1 SHL DUP2 MSTORE SWAP1 MLOAD PUSH4 0x1C244082 SWAP2 PUSH1 0x4 DUP1 DUP3 ADD SWAP3 PUSH1 0x20 SWAP3 SWAP1 SWAP2 SWAP1 DUP3 SWAP1 SUB ADD DUP2 DUP7 GAS STATICCALL ISZERO DUP1 ISZERO PUSH3 0x146 JUMPI RETURNDATASIZE PUSH1 0x0 DUP1 RETURNDATACOPY RETURNDATASIZE PUSH1 0x0 REVERT JUMPDEST POP POP POP POP PUSH1 0x40 MLOAD RETURNDATASIZE PUSH1 0x1F NOT PUSH1 0x1F DUP3 ADD AND DUP3 ADD DUP1 PUSH1 0x40 MSTORE POP DUP2 ADD SWAP1 PUSH3 0x16C SWAP2 SWAP1 PUSH3 0x3B6 JUMP JUMPDEST PUSH1 0x6 DUP2 SWAP1 SSTORE POP PUSH1 0xA0 MLOAD PUSH1 0x1 PUSH1 0x1 PUSH1 0xA0 SHL SUB AND PUSH4 0x45125715 PUSH1 0x40 MLOAD DUP2 PUSH4 0xFFFFFFFF AND PUSH1 0xE0 SHL DUP2 MSTORE PUSH1 0x4 ADD PUSH1 0x20 PUSH1 0x40 MLOAD DUP1 DUP4 SUB DUP2 DUP7 GAS STATICCALL ISZERO DUP1 ISZERO PUSH3 0x1B3 JUMPI RETURNDATASIZE PUSH1 0x0 DUP1 RETURNDATACOPY RETURNDATASIZE PUSH1 0x0 REVERT JUMPDEST POP POP POP POP PUSH1 0x40 MLOAD RETURNDATASIZE PUSH1 0x1F NOT PUSH1 0x1F DUP3 ADD AND DUP3 ADD DUP1 PUSH1 0x40 MSTORE POP DUP2 ADD SWAP1 PUSH3 0x1D9 SWAP2 SWAP1 PUSH3 0x3B6 JUMP JUMPDEST PUSH1 0x5 SSTORE POP TIMESTAMP PUSH1 0x80 MSTORE PUSH3 0x3D0 JUMP JUMPDEST DUP1 DUP3 MUL DUP2 ISZERO DUP3 DUP3 DIV DUP5 EQ OR PUSH3 0x20D JUMPI PUSH4 0x4E487B71 PUSH1 0xE0 SHL PUSH1 0x0 MSTORE PUSH1 0x11 PUSH1 0x4 MSTORE PUSH1 0x24 PUSH1 0x0 REVERT JUMPDEST SWAP3 SWAP2 POP POP JUMP JUMPDEST PUSH1 0x0 PUSH1 0x20 DUP3 DUP5 SUB SLT ISZERO PUSH3 0x226 JUMPI PUSH1 0x0 DUP1 REVERT JUMPDEST DUP2 MLOAD PUSH1 0x1 PUSH1 0x1 PUSH1 0xA0 SHL SUB DUP2 AND DUP2 EQ PUSH3 0x23E JUMPI PUSH1 0x0 DUP1 REVERT JUMPDEST SWAP4 SWAP3 POP POP POP JUMP JUMPDEST PUSH4 0x4E487B71 PUSH1 0xE0 SHL PUSH1 0x0 MSTORE PUSH1 0x41 PUSH1 0x4 MSTORE PUSH1 0x24 PUSH1 0x0 REVERT JUMPDEST PUSH1 0x1 DUP2 DUP2 SHR SWAP1 DUP3 AND DUP1 PUSH3 0x270 JUMPI PUSH1 0x7F DUP3 AND SWAP2 POP JUMPDEST PUSH1 0x20 DUP3 LT DUP2 SUB PUSH3 0x291 JUMPI PUSH4 0x4E487B71 PUSH1 0xE0 SHL PUSH1 0x0 MSTORE PUSH1 0x22 PUSH1 0x4 MSTORE PUSH1 0x24 PUSH1 0x0 REVERT JUMPDEST POP SWAP2 SWAP1 POP JUMP JUMPDEST PUSH1 0x1F DUP3 GT ISZERO PUSH3 0x2E5 JUMPI PUSH1 0x0 DUP2 DUP2 MSTORE PUSH1 0x20 DUP2 KECCAK256 PUSH1 0x1F DUP6 ADD PUSH1 0x5 SHR DUP2 ADD PUSH1 0x20 DUP7 LT ISZERO PUSH3 0x2C0 JUMPI POP DUP1 JUMPDEST PUSH1 0x1F DUP6 ADD PUSH1 0x5 SHR DUP3 ADD SWAP2 POP JUMPDEST DUP2 DUP2 LT ISZERO PUSH3 0x2E1 JUMPI DUP3 DUP2 SSTORE PUSH1 0x1 ADD PUSH3 0x2CC JUMP JUMPDEST POP POP POP JUMPDEST POP POP POP JUMP JUMPDEST DUP2 MLOAD PUSH1 0x1 PUSH1 0x1 PUSH1 0x40 SHL SUB DUP2 GT ISZERO PUSH3 0x306 JUMPI PUSH3 0x306 PUSH3 0x245 JUMP JUMPDEST PUSH3 0x31E DUP2 PUSH3 0x317 DUP5 SLOAD PUSH3 0x25B JUMP JUMPDEST DUP5 PUSH3 0x297 JUMP JUMPDEST PUSH1 0x20 DUP1 PUSH1 0x1F DUP4 GT PUSH1 0x1 DUP2 EQ PUSH3 0x356 JUMPI PUSH1 0x0 DUP5 ISZERO PUSH3 0x33D JUMPI POP DUP6 DUP4 ADD MLOAD JUMPDEST PUSH1 0x0 NOT PUSH1 0x3 DUP7 SWAP1 SHL SHR NOT AND PUSH1 0x1 DUP6 SWAP1 SHL OR DUP6 SSTORE PUSH3 0x2E1 JUMP JUMPDEST PUSH1 0x0 DUP6 DUP2 MSTORE PUSH1 0x20 DUP2 KECCAK256 PUSH1 0x1F NOT DUP7 AND SWAP2 JUMPDEST DUP3 DUP2 LT ISZERO PUSH3 0x387 JUMPI DUP9 DUP7 ADD MLOAD DUP3 SSTORE SWAP5 DUP5 ADD SWAP5 PUSH1 0x1 SWAP1 SWAP2 ADD SWAP1 DUP5 ADD PUSH3 0x366 JUMP JUMPDEST POP DUP6 DUP3 LT ISZERO PUSH3 0x3A6 JUMPI DUP8 DUP6 ADD MLOAD PUSH1 0x0 NOT PUSH1 0x3 DUP9 SWAP1 SHL PUSH1 0xF8 AND SHR NOT AND DUP2 SSTORE JUMPDEST POP POP POP POP POP PUSH1 0x1 SWAP1 DUP2 SHL ADD SWAP1 SSTORE POP JUMP JUMPDEST PUSH1 0x0 PUSH1 0x20 DUP3 DUP5 SUB SLT ISZERO PUSH3 0x3C9 JUMPI PUSH1 0x0 DUP1 REVERT JUMPDEST POP MLOAD SWAP2 SWAP1 POP JUMP JUMPDEST PUSH1 0x80 MLOAD PUSH1 0xA0 MLOAD PUSH2 0x31F7 PUSH3 0x427 PUSH1 0x0 CODECOPY PUSH1 0x0 DUP2 DUP2 PUSH2 0x603 ADD MSTORE DUP2 DUP2 PUSH2 0x1CC8 ADD MSTORE DUP2 DUP2 PUSH2 0x1DB4 ADD MSTORE DUP2 DUP2 PUSH2 0x1EB6 ADD MSTORE PUSH2 0x29FF ADD MSTORE PUSH1 0x0 DUP2 DUP2 PUSH2 0x842 ADD MSTORE DUP2 DUP2 PUSH2 0x28C8 ADD MSTORE DUP2 DUP2 PUSH2 0x292B ADD MSTORE PUSH2 0x2C4F ADD MSTORE PUSH2 0x31F7 PUSH1 0x0 RETURN INVALID PUSH1 0x80 PUSH1 0x40 MSTORE CALLVALUE DUP1 ISZERO PUSH2 0x10 JUMPI PUSH1 0x0 DUP1 REVERT JUMPDEST POP PUSH1 0x4 CALLDATASIZE LT PUSH2 0x3BA JUMPI PUSH1 0x0 CALLDATALOAD PUSH1 0xE0 SHR DUP1 PUSH4 0x72475F94 GT PUSH2 0x1F4 JUMPI DUP1 PUSH4 0xB4800CDC GT PUSH2 0x11A JUMPI DUP1 PUSH4 0xDF282331 GT PUSH2 0xAD JUMPI DUP1 PUSH4 0xF0604829 GT PUSH2 0x7C JUMPI DUP1 PUSH4 0xF0604829 EQ PUSH2 0x876 JUMPI DUP1 PUSH4 0xF27A6264 EQ PUSH2 0x87E JUMPI DUP1 PUSH4 0xF340FAED EQ PUSH2 0x891 JUMPI DUP1 PUSH4 0xFED74269 EQ PUSH2 0x89B JUMPI PUSH1 0x0 DUP1 REVERT JUMPDEST DUP1 PUSH4 0xDF282331 EQ PUSH2 0x7B9 JUMPI DUP1 PUSH4 0xE3AF6D0A EQ PUSH2 0x83D JUMPI DUP1 PUSH4 0xE81917B4 EQ PUSH2 0x864 JUMPI DUP1 PUSH4 0xED2F2369 EQ PUSH2 0x86D JUMPI PUSH1 0x0 DUP1 REVERT JUMPDEST DUP1 PUSH4 0xC56F0BAB GT PUSH2 0xE9 JUMPI DUP1 PUSH4 0xC56F0BAB EQ PUSH2 0x75E JUMPI DUP1 PUSH4 0xCE653D5F EQ PUSH2 0x766 JUMPI DUP1 PUSH4 0xCF7A8626 EQ PUSH2 0x786 JUMPI DUP1 PUSH4 0xDD62ED3E EQ PUSH2 0x7A6 JUMPI PUSH1 0x0 DUP1 REVERT JUMPDEST DUP1 PUSH4 0xB4800CDC EQ PUSH2 0x745 JUMPI DUP1 PUSH4 0xBA3EC741 EQ PUSH2 0x74E JUMPI DUP1 PUSH4 0xBCFE394F EQ PUSH2 0x4A8 JUMPI DUP1 PUSH4 0xC0C65259 EQ PUSH2 0x756 JUMPI PUSH1 0x0 DUP1 REVERT JUMPDEST DUP1 PUSH4 0x962CA496 GT PUSH2 0x192 JUMPI DUP1 PUSH4 0xA457C2D7 GT PUSH2 0x161 JUMPI DUP1 PUSH4 0xA457C2D7 EQ PUSH2 0x703 JUMPI DUP1 PUSH4 0xA9059CBB EQ PUSH2 0x716 JUMPI DUP1 PUSH4 0xB0FD1FC2 EQ PUSH2 0x729 JUMPI DUP1 PUSH4 0xB21D35F2 EQ PUSH2 0x73C JUMPI PUSH1 0x0 DUP1 REVERT JUMPDEST DUP1 PUSH4 0x962CA496 EQ PUSH2 0x6CD JUMPI DUP1 PUSH4 0x99202454 EQ PUSH2 0x6D5 JUMPI DUP1 PUSH4 0x9DC29FAC EQ PUSH2 0x6DD JUMPI DUP1 PUSH4 0x9FF054DF EQ PUSH2 0x6F0 JUMPI PUSH1 0x0 DUP1 REVERT JUMPDEST DUP1 PUSH4 0x8979C87C GT PUSH2 0x1CE JUMPI DUP1 PUSH4 0x8979C87C EQ PUSH2 0x660 JUMPI DUP1 PUSH4 0x8DA7AD23 EQ PUSH2 0x668 JUMPI DUP1 PUSH4 0x909A2FF6 EQ PUSH2 0x6BD JUMPI DUP1 PUSH4 0x95D89B41 EQ PUSH2 0x6C5 JUMPI PUSH1 0x0 DUP1 REVERT JUMPDEST DUP1 PUSH4 0x72475F94 EQ PUSH2 0x63D JUMPI DUP1 PUSH4 0x7B0472F0 EQ PUSH2 0x645 JUMPI DUP1 PUSH4 0x7E7AA62E EQ PUSH2 0x658 JUMPI PUSH1 0x0 DUP1 REVERT JUMPDEST DUP1 PUSH4 0x2A6485A5 GT PUSH2 0x2E4 JUMPI DUP1 PUSH4 0x543746B1 GT PUSH2 0x277 JUMPI DUP1 PUSH4 0x6A5E0766 GT PUSH2 0x246 JUMPI DUP1 PUSH4 0x6A5E0766 EQ PUSH2 0x55D JUMPI DUP1 PUSH4 0x7010D7A1 EQ PUSH2 0x57D JUMPI DUP1 PUSH4 0x70A08231 EQ PUSH2 0x5D5 JUMPI DUP1 PUSH4 0x71141A58 EQ PUSH2 0x5FE JUMPI PUSH1 0x0 DUP1 REVERT JUMPDEST DUP1 PUSH4 0x543746B1 EQ PUSH2 0x52E JUMPI DUP1 PUSH4 0x543D3652 EQ PUSH2 0x4A8 JUMPI DUP1 PUSH4 0x5BCCB4C4 EQ PUSH2 0x540 JUMPI DUP1 PUSH4 0x61A52A36 EQ PUSH2 0x553 JUMPI PUSH1 0x0 DUP1 REVERT JUMPDEST DUP1 PUSH4 0x3CCFD60B GT PUSH2 0x2B3 JUMPI DUP1 PUSH4 0x3CCFD60B EQ PUSH2 0x4F6 JUMPI DUP1 PUSH4 0x45125715 EQ PUSH2 0x4FE JUMPI DUP1 PUSH4 0x52C7F8DC EQ PUSH2 0x506 JUMPI DUP1 PUSH4 0x539313B8 EQ PUSH2 0x50E JUMPI PUSH1 0x0 DUP1 REVERT JUMPDEST DUP1 PUSH4 0x2A6485A5 EQ PUSH2 0x4C3 JUMPI DUP1 PUSH4 0x313CE567 EQ PUSH2 0x4CC JUMPI DUP1 PUSH4 0x32870FDA EQ PUSH2 0x4DB JUMPI DUP1 PUSH4 0x39509351 EQ PUSH2 0x4E3 JUMPI PUSH1 0x0 DUP1 REVERT JUMPDEST DUP1 PUSH4 0x110D7FC2 GT PUSH2 0x35C JUMPI DUP1 PUSH4 0x1C560305 GT PUSH2 0x32B JUMPI DUP1 PUSH4 0x1C560305 EQ PUSH2 0x493 JUMPI DUP1 PUSH4 0x1C6F212E EQ PUSH2 0x4A8 JUMPI DUP1 PUSH4 0x23B872DD EQ PUSH2 0x4B0 JUMPI DUP1 PUSH4 0x2A62D966 EQ PUSH2 0x43F JUMPI PUSH1 0x0 DUP1 REVERT JUMPDEST DUP1 PUSH4 0x110D7FC2 EQ PUSH2 0x43F JUMPI DUP1 PUSH4 0x16F9C8FD EQ PUSH2 0x447 JUMPI DUP1 PUSH4 0x18160DDD EQ PUSH2 0x482 JUMPI DUP1 PUSH4 0x1C244082 EQ PUSH2 0x48A JUMPI PUSH1 0x0 DUP1 REVERT JUMPDEST DUP1 PUSH4 0x6FDDE03 GT PUSH2 0x398 JUMPI DUP1 PUSH4 0x6FDDE03 EQ PUSH2 0x407 JUMPI DUP1 PUSH4 0x95EA7B3 EQ PUSH2 0x41C JUMPI DUP1 PUSH4 0xBFAE56B EQ PUSH2 0x42F JUMPI DUP1 PUSH4 0xF2E1228 EQ PUSH2 0x437 JUMPI PUSH1 0x0 DUP1 REVERT JUMPDEST DUP1 PUSH4 0x1FFC9A7 EQ PUSH2 0x3BF JUMPI DUP1 PUSH4 0x2378932 EQ PUSH2 0x3E7 JUMPI DUP1 PUSH4 0x69612A5 EQ PUSH2 0x3FE JUMPI JUMPDEST PUSH1 0x0 DUP1 REVERT JUMPDEST PUSH2 0x3D2 PUSH2 0x3CD CALLDATASIZE PUSH1 0x4 PUSH2 0x2D60 JUMP JUMPDEST PUSH2 0x8A3 JUMP JUMPDEST PUSH1 0x40 MLOAD SWAP1 ISZERO ISZERO DUP2 MSTORE PUSH1 0x20 ADD JUMPDEST PUSH1 0x40 MLOAD DUP1 SWAP2 SUB SWAP1 RETURN JUMPDEST PUSH2 0x3F0 PUSH2 0x16D DUP2 JUMP JUMPDEST PUSH1 0x40 MLOAD SWAP1 DUP2 MSTORE PUSH1 0x20 ADD PUSH2 0x3DE JUMP JUMPDEST PUSH2 0x3F0 PUSH1 0x9 SLOAD DUP2 JUMP JUMPDEST PUSH2 0x40F PUSH2 0x8DA JUMP JUMPDEST PUSH1 0x40 MLOAD PUSH2 0x3DE SWAP2 SWAP1 PUSH2 0x2D8A JUMP JUMPDEST PUSH2 0x3D2 PUSH2 0x42A CALLDATASIZE PUSH1 0x4 PUSH2 0x2DF4 JUMP JUMPDEST PUSH2 0x96C JUMP JUMPDEST PUSH2 0x3F0 PUSH2 0x984 JUMP JUMPDEST PUSH2 0x3F0 PUSH1 0x63 DUP2 JUMP JUMPDEST PUSH2 0x3F0 PUSH1 0x0 DUP2 JUMP JUMPDEST PUSH2 0x44F PUSH2 0x995 JUMP JUMPDEST PUSH1 0x40 MLOAD PUSH2 0x3DE SWAP2 SWAP1 DUP2 MLOAD DUP2 MSTORE PUSH1 0x20 DUP1 DUP4 ADD MLOAD SWAP1 DUP3 ADD MSTORE PUSH1 0x40 DUP1 DUP4 ADD MLOAD SWAP1 DUP3 ADD MSTORE PUSH1 0x60 SWAP2 DUP3 ADD MLOAD SWAP2 DUP2 ADD SWAP2 SWAP1 SWAP2 MSTORE PUSH1 0x80 ADD SWAP1 JUMP JUMPDEST PUSH1 0x2 SLOAD PUSH2 0x3F0 JUMP JUMPDEST PUSH2 0x3F0 PUSH1 0x6 SLOAD DUP2 JUMP JUMPDEST PUSH2 0x4A6 PUSH2 0x4A1 CALLDATASIZE PUSH1 0x4 PUSH2 0x2DF4 JUMP JUMPDEST PUSH2 0xA06 JUMP JUMPDEST STOP JUMPDEST PUSH2 0x3F0 PUSH1 0x1 DUP2 JUMP JUMPDEST PUSH2 0x3D2 PUSH2 0x4BE CALLDATASIZE PUSH1 0x4 PUSH2 0x2E1E JUMP JUMPDEST PUSH2 0xC67 JUMP JUMPDEST PUSH2 0x3F0 PUSH1 0x5 SLOAD DUP2 JUMP JUMPDEST PUSH1 0x40 MLOAD PUSH1 0x12 DUP2 MSTORE PUSH1 0x20 ADD PUSH2 0x3DE JUMP JUMPDEST PUSH2 0x3F0 PUSH1 0x5A DUP2 JUMP JUMPDEST PUSH2 0x3D2 PUSH2 0x4F1 CALLDATASIZE PUSH1 0x4 PUSH2 0x2DF4 JUMP JUMPDEST PUSH2 0xC8B JUMP JUMPDEST PUSH2 0x4A6 PUSH2 0xCAD JUMP JUMPDEST PUSH2 0x3F0 PUSH2 0xE03 JUMP JUMPDEST PUSH2 0x4A6 PUSH2 0xE12 JUMP JUMPDEST PUSH2 0x3F0 PUSH2 0x51C CALLDATASIZE PUSH1 0x4 PUSH2 0x2E5A JUMP JUMPDEST PUSH1 0xE PUSH1 0x20 MSTORE PUSH1 0x0 SWAP1 DUP2 MSTORE PUSH1 0x40 SWAP1 KECCAK256 SLOAD DUP2 JUMP JUMPDEST PUSH2 0x4A6 PUSH2 0x53C CALLDATASIZE PUSH1 0x4 PUSH2 0x2DF4 JUMP JUMPDEST POP POP JUMP JUMPDEST PUSH2 0x4A6 PUSH2 0x54E CALLDATASIZE PUSH1 0x4 PUSH2 0x2E75 JUMP JUMPDEST PUSH2 0xF35 JUMP JUMPDEST PUSH2 0x3F0 PUSH3 0x15180 DUP2 JUMP JUMPDEST PUSH2 0x3F0 PUSH2 0x56B CALLDATASIZE PUSH1 0x4 PUSH2 0x2E5A JUMP JUMPDEST PUSH1 0xF PUSH1 0x20 MSTORE PUSH1 0x0 SWAP1 DUP2 MSTORE PUSH1 0x40 SWAP1 KECCAK256 SLOAD DUP2 JUMP JUMPDEST PUSH2 0x585 PUSH2 0x1298 JUMP JUMPDEST PUSH1 0x40 MLOAD PUSH2 0x3DE SWAP2 SWAP1 DUP2 MLOAD PUSH1 0x1 PUSH1 0x1 PUSH1 0xA0 SHL SUB AND DUP2 MSTORE PUSH1 0x20 DUP1 DUP4 ADD MLOAD SWAP1 DUP3 ADD MSTORE PUSH1 0x40 DUP1 DUP4 ADD MLOAD SWAP1 DUP3 ADD MSTORE PUSH1 0x60 DUP1 DUP4 ADD MLOAD SWAP1 DUP3 ADD MSTORE PUSH1 0x80 DUP1 DUP4 ADD MLOAD SWAP1 DUP3 ADD MSTORE PUSH1 0xA0 SWAP2 DUP3 ADD MLOAD SWAP2 DUP2 ADD SWAP2 SWAP1 SWAP2 MSTORE PUSH1 0xC0 ADD SWAP1 JUMP JUMPDEST PUSH2 0x3F0 PUSH2 0x5E3 CALLDATASIZE PUSH1 0x4 PUSH2 0x2E5A JUMP JUMPDEST PUSH1 0x1 PUSH1 0x1 PUSH1 0xA0 SHL SUB AND PUSH1 0x0 SWAP1 DUP2 MSTORE PUSH1 0x20 DUP2 SWAP1 MSTORE PUSH1 0x40 SWAP1 KECCAK256 SLOAD SWAP1 JUMP JUMPDEST PUSH2 0x625 PUSH32 0x0 DUP2 JUMP JUMPDEST PUSH1 0x40 MLOAD PUSH1 0x1 PUSH1 0x1 PUSH1 0xA0 SHL SUB SWAP1 SWAP2 AND DUP2 MSTORE PUSH1 0x20 ADD PUSH2 0x3DE JUMP JUMPDEST PUSH2 0x3F0 PUSH1 0xF DUP2 JUMP JUMPDEST PUSH2 0x4A6 PUSH2 0x653 CALLDATASIZE PUSH1 0x4 PUSH2 0x2E75 JUMP JUMPDEST PUSH2 0x133D JUMP JUMPDEST PUSH2 0x3F0 PUSH1 0x2 DUP2 JUMP JUMPDEST PUSH2 0x3F0 PUSH2 0x1567 JUMP JUMPDEST PUSH2 0x69D PUSH2 0x676 CALLDATASIZE PUSH1 0x4 PUSH2 0x2E5A JUMP JUMPDEST PUSH1 0xB PUSH1 0x20 MSTORE PUSH1 0x0 SWAP1 DUP2 MSTORE PUSH1 0x40 SWAP1 KECCAK256 DUP1 SLOAD PUSH1 0x1 DUP3 ADD SLOAD PUSH1 0x2 DUP4 ADD SLOAD PUSH1 0x3 SWAP1 SWAP4 ADD SLOAD SWAP2 SWAP3 SWAP1 SWAP2 DUP5 JUMP JUMPDEST PUSH1 0x40 DUP1 MLOAD SWAP5 DUP6 MSTORE PUSH1 0x20 DUP6 ADD SWAP4 SWAP1 SWAP4 MSTORE SWAP2 DUP4 ADD MSTORE PUSH1 0x60 DUP3 ADD MSTORE PUSH1 0x80 ADD PUSH2 0x3DE JUMP JUMPDEST PUSH2 0x3F0 PUSH1 0x64 DUP2 JUMP JUMPDEST PUSH2 0x40F PUSH2 0x1571 JUMP JUMPDEST PUSH2 0x3F0 PUSH2 0x1580 JUMP JUMPDEST PUSH2 0x3F0 PUSH2 0x158A JUMP JUMPDEST PUSH2 0x4A6 PUSH2 0x6EB CALLDATASIZE PUSH1 0x4 PUSH2 0x2DF4 JUMP JUMPDEST PUSH2 0x1594 JUMP JUMPDEST PUSH2 0x4A6 PUSH2 0x6FE CALLDATASIZE PUSH1 0x4 PUSH2 0x2E97 JUMP JUMPDEST PUSH2 0x1746 JUMP JUMPDEST PUSH2 0x3D2 PUSH2 0x711 CALLDATASIZE PUSH1 0x4 PUSH2 0x2DF4 JUMP JUMPDEST PUSH2 0x19C7 JUMP JUMPDEST PUSH2 0x3D2 PUSH2 0x724 CALLDATASIZE PUSH1 0x4 PUSH2 0x2DF4 JUMP JUMPDEST PUSH2 0x1A42 JUMP JUMPDEST PUSH2 0x3F0 PUSH2 0x737 CALLDATASIZE PUSH1 0x4 PUSH2 0x2EB0 JUMP JUMPDEST PUSH2 0x1A50 JUMP JUMPDEST PUSH2 0x3F0 PUSH2 0x1388 DUP2 JUMP JUMPDEST PUSH2 0x3F0 PUSH1 0x7 SLOAD DUP2 JUMP JUMPDEST PUSH2 0x40F PUSH2 0x1AE0 JUMP JUMPDEST PUSH2 0x3F0 PUSH2 0x1AFC JUMP JUMPDEST PUSH2 0x3F0 PUSH1 0x7 DUP2 JUMP JUMPDEST PUSH2 0x3F0 PUSH2 0x774 CALLDATASIZE PUSH1 0x4 PUSH2 0x2E5A JUMP JUMPDEST PUSH1 0xC PUSH1 0x20 MSTORE PUSH1 0x0 SWAP1 DUP2 MSTORE PUSH1 0x40 SWAP1 KECCAK256 SLOAD DUP2 JUMP JUMPDEST PUSH2 0x3F0 PUSH2 0x794 CALLDATASIZE PUSH1 0x4 PUSH2 0x2E5A JUMP JUMPDEST PUSH1 0xD PUSH1 0x20 MSTORE PUSH1 0x0 SWAP1 DUP2 MSTORE PUSH1 0x40 SWAP1 KECCAK256 SLOAD DUP2 JUMP JUMPDEST PUSH2 0x3F0 PUSH2 0x7B4 CALLDATASIZE PUSH1 0x4 PUSH2 0x2EE2 JUMP JUMPDEST PUSH2 0x1B0B JUMP JUMPDEST PUSH2 0x806 PUSH2 0x7C7 CALLDATASIZE PUSH1 0x4 PUSH2 0x2E5A JUMP JUMPDEST PUSH1 0xA PUSH1 0x20 MSTORE PUSH1 0x0 SWAP1 DUP2 MSTORE PUSH1 0x40 SWAP1 KECCAK256 DUP1 SLOAD PUSH1 0x1 DUP3 ADD SLOAD PUSH1 0x2 DUP4 ADD SLOAD PUSH1 0x3 DUP5 ADD SLOAD PUSH1 0x4 DUP6 ADD SLOAD PUSH1 0x5 SWAP1 SWAP6 ADD SLOAD PUSH1 0x1 PUSH1 0x1 PUSH1 0xA0 SHL SUB SWAP1 SWAP5 AND SWAP5 SWAP3 SWAP4 SWAP2 SWAP3 SWAP1 SWAP2 DUP7 JUMP JUMPDEST PUSH1 0x40 DUP1 MLOAD PUSH1 0x1 PUSH1 0x1 PUSH1 0xA0 SHL SUB SWAP1 SWAP8 AND DUP8 MSTORE PUSH1 0x20 DUP8 ADD SWAP6 SWAP1 SWAP6 MSTORE SWAP4 DUP6 ADD SWAP3 SWAP1 SWAP3 MSTORE PUSH1 0x60 DUP5 ADD MSTORE PUSH1 0x80 DUP4 ADD MSTORE PUSH1 0xA0 DUP3 ADD MSTORE PUSH1 0xC0 ADD PUSH2 0x3DE JUMP JUMPDEST PUSH2 0x3F0 PUSH32 0x0 DUP2 JUMP JUMPDEST PUSH2 0x3F0 PUSH2 0x12C DUP2 JUMP JUMPDEST PUSH2 0x3F0 PUSH1 0x8 SLOAD DUP2 JUMP JUMPDEST PUSH2 0x3F0 PUSH2 0x1B36 JUMP JUMPDEST PUSH2 0x4A6 PUSH2 0x88C CALLDATASIZE PUSH1 0x4 PUSH2 0x2DF4 JUMP JUMPDEST PUSH2 0x1B4F JUMP JUMPDEST PUSH2 0x3F0 PUSH3 0x186A0 DUP2 JUMP JUMPDEST PUSH2 0x3F0 PUSH1 0x14 DUP2 JUMP JUMPDEST PUSH1 0x0 PUSH1 0x1 PUSH1 0x1 PUSH1 0xE0 SHL SUB NOT DUP3 AND PUSH4 0x543746B1 PUSH1 0xE0 SHL EQ DUP1 PUSH2 0x8D4 JUMPI POP PUSH1 0x1 PUSH1 0x1 PUSH1 0xE0 SHL SUB NOT DUP3 AND PUSH4 0x1FFC9A7 PUSH1 0xE0 SHL EQ JUMPDEST SWAP3 SWAP2 POP POP JUMP JUMPDEST PUSH1 0x60 PUSH1 0x3 DUP1 SLOAD PUSH2 0x8E9 SWAP1 PUSH2 0x2F15 JUMP JUMPDEST DUP1 PUSH1 0x1F ADD PUSH1 0x20 DUP1 SWAP2 DIV MUL PUSH1 0x20 ADD PUSH1 0x40 MLOAD SWAP1 DUP2 ADD PUSH1 0x40 MSTORE DUP1 SWAP3 SWAP2 SWAP1 DUP2 DUP2 MSTORE PUSH1 0x20 ADD DUP3 DUP1 SLOAD PUSH2 0x915 SWAP1 PUSH2 0x2F15 JUMP JUMPDEST DUP1 ISZERO PUSH2 0x962 JUMPI DUP1 PUSH1 0x1F LT PUSH2 0x937 JUMPI PUSH2 0x100 DUP1 DUP4 SLOAD DIV MUL DUP4 MSTORE SWAP2 PUSH1 0x20 ADD SWAP2 PUSH2 0x962 JUMP JUMPDEST DUP3 ADD SWAP2 SWAP1 PUSH1 0x0 MSTORE PUSH1 0x20 PUSH1 0x0 KECCAK256 SWAP1 JUMPDEST DUP2 SLOAD DUP2 MSTORE SWAP1 PUSH1 0x1 ADD SWAP1 PUSH1 0x20 ADD DUP1 DUP4 GT PUSH2 0x945 JUMPI DUP3 SWAP1 SUB PUSH1 0x1F AND DUP3 ADD SWAP2 JUMPDEST POP POP POP POP POP SWAP1 POP SWAP1 JUMP JUMPDEST PUSH1 0x0 CALLER PUSH2 0x97A DUP2 DUP6 DUP6 PUSH2 0x1F82 JUMP JUMPDEST POP PUSH1 0x1 SWAP4 SWAP3 POP POP POP JUMP JUMPDEST PUSH2 0x992 PUSH3 0x15180 PUSH1 0x64 PUSH2 0x2F5F JUMP JUMPDEST DUP2 JUMP JUMPDEST PUSH2 0x9C0 PUSH1 0x40 MLOAD DUP1 PUSH1 0x80 ADD PUSH1 0x40 MSTORE DUP1 PUSH1 0x0 DUP2 MSTORE PUSH1 0x20 ADD PUSH1 0x0 DUP2 MSTORE PUSH1 0x20 ADD PUSH1 0x0 DUP2 MSTORE PUSH1 0x20 ADD PUSH1 0x0 DUP2 MSTORE POP SWAP1 JUMP JUMPDEST POP CALLER PUSH1 0x0 SWAP1 DUP2 MSTORE PUSH1 0xB PUSH1 0x20 SWAP1 DUP2 MSTORE PUSH1 0x40 SWAP2 DUP3 SWAP1 KECCAK256 DUP3 MLOAD PUSH1 0x80 DUP2 ADD DUP5 MSTORE DUP2 SLOAD DUP2 MSTORE PUSH1 0x1 DUP3 ADD SLOAD SWAP3 DUP2 ADD SWAP3 SWAP1 SWAP3 MSTORE PUSH1 0x2 DUP2 ADD SLOAD SWAP3 DUP3 ADD SWAP3 SWAP1 SWAP3 MSTORE PUSH1 0x3 SWAP1 SWAP2 ADD SLOAD PUSH1 0x60 DUP3 ADD MSTORE SWAP1 JUMP JUMPDEST CALLER PUSH1 0x0 SWAP1 DUP2 MSTORE PUSH1 0xA PUSH1 0x20 SWAP1 DUP2 MSTORE PUSH1 0x40 SWAP2 DUP3 SWAP1 KECCAK256 DUP3 MLOAD PUSH1 0xC0 DUP2 ADD DUP5 MSTORE DUP2 SLOAD PUSH1 0x1 PUSH1 0x1 PUSH1 0xA0 SHL SUB SWAP1 DUP2 AND DUP3 MSTORE PUSH1 0x1 DUP4 ADD SLOAD SWAP4 DUP3 ADD SWAP4 SWAP1 SWAP4 MSTORE PUSH1 0x2 DUP3 ADD SLOAD SWAP4 DUP2 ADD SWAP4 SWAP1 SWAP4 MSTORE PUSH1 0x3 DUP2 ADD SLOAD PUSH1 0x60 DUP5 ADD MSTORE PUSH1 0x4 DUP2 ADD SLOAD PUSH1 0x80 DUP5 ADD MSTORE PUSH1 0x5 ADD SLOAD PUSH1 0xA0 DUP4 ADD MSTORE DUP4 AND PUSH2 0xAC6 JUMPI PUSH1 0x40 MLOAD PUSH3 0x461BCD PUSH1 0xE5 SHL DUP2 MSTORE PUSH1 0x20 PUSH1 0x4 DUP3 ADD MSTORE PUSH1 0x25 PUSH1 0x24 DUP3 ADD MSTORE PUSH32 0x4352616E6B3A2043616E6E6F742073686172652077697468207A65726F206164 PUSH1 0x44 DUP3 ADD MSTORE PUSH5 0x6472657373 PUSH1 0xD8 SHL PUSH1 0x64 DUP3 ADD MSTORE PUSH1 0x84 ADD JUMPDEST PUSH1 0x40 MLOAD DUP1 SWAP2 SUB SWAP1 REVERT JUMPDEST PUSH1 0x0 DUP3 GT PUSH2 0xB16 JUMPI PUSH1 0x40 MLOAD PUSH3 0x461BCD PUSH1 0xE5 SHL DUP2 MSTORE PUSH1 0x20 PUSH1 0x4 DUP3 ADD DUP2 SWAP1 MSTORE PUSH1 0x24 DUP3 ADD MSTORE PUSH32 0x4352616E6B3A2043616E6E6F74207368617265207A65726F2070657263656E74 PUSH1 0x44 DUP3 ADD MSTORE PUSH1 0x64 ADD PUSH2 0xABD JUMP JUMPDEST PUSH1 0x65 DUP3 LT PUSH2 0xB66 JUMPI PUSH1 0x40 MLOAD PUSH3 0x461BCD PUSH1 0xE5 SHL DUP2 MSTORE PUSH1 0x20 PUSH1 0x4 DUP3 ADD DUP2 SWAP1 MSTORE PUSH1 0x24 DUP3 ADD MSTORE PUSH32 0x4352616E6B3A2043616E6E6F74207368617265203130302B2070657263656E74 PUSH1 0x44 DUP3 ADD MSTORE PUSH1 0x64 ADD PUSH2 0xABD JUMP JUMPDEST PUSH1 0x0 DUP2 PUSH1 0x60 ADD MLOAD GT PUSH2 0xB8A JUMPI PUSH1 0x40 MLOAD PUSH3 0x461BCD PUSH1 0xE5 SHL DUP2 MSTORE PUSH1 0x4 ADD PUSH2 0xABD SWAP1 PUSH2 0x2F76 JUMP JUMPDEST DUP1 PUSH1 0x40 ADD MLOAD TIMESTAMP GT PUSH2 0xBAD JUMPI PUSH1 0x40 MLOAD PUSH3 0x461BCD PUSH1 0xE5 SHL DUP2 MSTORE PUSH1 0x4 ADD PUSH2 0xABD SWAP1 PUSH2 0x2FA5 JUMP JUMPDEST PUSH1 0x0 PUSH2 0xBD0 DUP3 PUSH1 0x60 ADD MLOAD DUP4 PUSH1 0x20 ADD MLOAD DUP5 PUSH1 0x40 ADD MLOAD DUP6 PUSH1 0x80 ADD MLOAD DUP7 PUSH1 0xA0 ADD MLOAD PUSH2 0x20A7 JUMP JUMPDEST PUSH2 0xBE2 SWAP1 PUSH8 0xDE0B6B3A7640000 PUSH2 0x2F5F JUMP JUMPDEST SWAP1 POP PUSH1 0x0 PUSH1 0x64 PUSH2 0xBF2 DUP6 DUP5 PUSH2 0x2F5F JUMP JUMPDEST PUSH2 0xBFC SWAP2 SWAP1 PUSH2 0x2FF0 JUMP JUMPDEST SWAP1 POP PUSH1 0x0 PUSH2 0xC0A DUP3 DUP5 PUSH2 0x3012 JUMP JUMPDEST SWAP1 POP PUSH2 0xC17 CALLER JUMPDEST DUP3 PUSH2 0x21A5 JUMP JUMPDEST PUSH2 0xC21 DUP7 DUP4 PUSH2 0x21A5 JUMP JUMPDEST PUSH2 0xC29 PUSH2 0x2284 JUMP JUMPDEST PUSH1 0x40 MLOAD DUP4 DUP2 MSTORE CALLER SWAP1 PUSH32 0xD74752B13281DF13701575F3A507E9B1242E0B5FB040143211C481C1FCE573A6 SWAP1 PUSH1 0x20 ADD JUMPDEST PUSH1 0x40 MLOAD DUP1 SWAP2 SUB SWAP1 LOG2 POP POP POP POP POP POP JUMP JUMPDEST PUSH1 0x0 CALLER PUSH2 0xC75 DUP6 DUP3 DUP6 PUSH2 0x22D8 JUMP JUMPDEST PUSH2 0xC80 DUP6 DUP6 DUP6 PUSH2 0x2352 JUMP JUMPDEST POP PUSH1 0x1 SWAP5 SWAP4 POP POP POP POP JUMP JUMPDEST PUSH1 0x0 CALLER PUSH2 0x97A DUP2 DUP6 DUP6 PUSH2 0xC9E DUP4 DUP4 PUSH2 0x1B0B JUMP JUMPDEST PUSH2 0xCA8 SWAP2 SWAP1 PUSH2 0x3025 JUMP JUMPDEST PUSH2 0x1F82 JUMP JUMPDEST CALLER PUSH1 0x0 SWAP1 DUP2 MSTORE PUSH1 0xB PUSH1 0x20 SWAP1 DUP2 MSTORE PUSH1 0x40 SWAP2 DUP3 SWAP1 KECCAK256 DUP3 MLOAD PUSH1 0x80 DUP2 ADD DUP5 MSTORE DUP2 SLOAD DUP2 MSTORE PUSH1 0x1 DUP3 ADD SLOAD SWAP3 DUP2 ADD SWAP3 SWAP1 SWAP3 MSTORE PUSH1 0x2 DUP2 ADD SLOAD SWAP3 DUP3 ADD DUP4 SWAP1 MSTORE PUSH1 0x3 ADD SLOAD PUSH1 0x60 DUP3 ADD MSTORE SWAP1 PUSH2 0xD32 JUMPI PUSH1 0x40 MLOAD PUSH3 0x461BCD PUSH1 0xE5 SHL DUP2 MSTORE PUSH1 0x20 PUSH1 0x4 DUP3 ADD MSTORE PUSH1 0x16 PUSH1 0x24 DUP3 ADD MSTORE PUSH22 0x58454E45563A206E6F207374616B6520657869737473 PUSH1 0x50 SHL PUSH1 0x44 DUP3 ADD MSTORE PUSH1 0x64 ADD PUSH2 0xABD JUMP JUMPDEST PUSH1 0x0 PUSH2 0xD50 DUP3 PUSH1 0x40 ADD MLOAD DUP4 PUSH1 0x0 ADD MLOAD DUP5 PUSH1 0x20 ADD MLOAD DUP6 PUSH1 0x60 ADD MLOAD PUSH2 0x2520 JUMP JUMPDEST PUSH1 0x8 DUP1 SLOAD SWAP2 SWAP3 POP PUSH1 0x0 PUSH2 0xD62 DUP4 PUSH2 0x3038 JUMP JUMPDEST SWAP2 SWAP1 POP SSTORE POP DUP2 PUSH1 0x40 ADD MLOAD PUSH1 0x9 PUSH1 0x0 DUP3 DUP3 SLOAD PUSH2 0xD7D SWAP2 SWAP1 PUSH2 0x3012 JUMP JUMPDEST SWAP1 SWAP2 SSTORE POP PUSH2 0xD9C SWAP1 POP CALLER DUP3 DUP5 PUSH1 0x40 ADD MLOAD PUSH2 0xD97 SWAP2 SWAP1 PUSH2 0x3025 JUMP JUMPDEST PUSH2 0x21A5 JUMP JUMPDEST PUSH1 0x40 DUP1 DUP4 ADD MLOAD DUP2 MLOAD SWAP1 DUP2 MSTORE PUSH1 0x20 DUP2 ADD DUP4 SWAP1 MSTORE CALLER SWAP2 PUSH32 0x92CCF450A286A957AF52509BC1C9939D1A6A481783E142E41E2499F0BB66EBC6 SWAP2 ADD PUSH1 0x40 MLOAD DUP1 SWAP2 SUB SWAP1 LOG2 POP POP CALLER PUSH1 0x0 SWAP1 DUP2 MSTORE PUSH1 0xB PUSH1 0x20 MSTORE PUSH1 0x40 DUP2 KECCAK256 DUP2 DUP2 SSTORE PUSH1 0x1 DUP2 ADD DUP3 SWAP1 SSTORE PUSH1 0x2 DUP2 ADD DUP3 SWAP1 SSTORE PUSH1 0x3 ADD SSTORE JUMP JUMPDEST PUSH1 0x0 PUSH2 0xE0D PUSH2 0x257E JUMP JUMPDEST SWAP1 POP SWAP1 JUMP JUMPDEST CALLER PUSH1 0x0 SWAP1 DUP2 MSTORE PUSH1 0xA PUSH1 0x20 SWAP1 DUP2 MSTORE PUSH1 0x40 SWAP2 DUP3 SWAP1 KECCAK256 DUP3 MLOAD PUSH1 0xC0 DUP2 ADD DUP5 MSTORE DUP2 SLOAD PUSH1 0x1 PUSH1 0x1 PUSH1 0xA0 SHL SUB AND DUP2 MSTORE PUSH1 0x1 DUP3 ADD SLOAD SWAP3 DUP2 ADD SWAP3 SWAP1 SWAP3 MSTORE PUSH1 0x2 DUP2 ADD SLOAD SWAP3 DUP3 ADD SWAP3 SWAP1 SWAP3 MSTORE PUSH1 0x3 DUP3 ADD SLOAD PUSH1 0x60 DUP3 ADD DUP2 SWAP1 MSTORE PUSH1 0x4 DUP4 ADD SLOAD PUSH1 0x80 DUP4 ADD MSTORE PUSH1 0x5 SWAP1 SWAP3 ADD SLOAD PUSH1 0xA0 DUP3 ADD MSTORE SWAP1 PUSH2 0xE90 JUMPI PUSH1 0x40 MLOAD PUSH3 0x461BCD PUSH1 0xE5 SHL DUP2 MSTORE PUSH1 0x4 ADD PUSH2 0xABD SWAP1 PUSH2 0x2F76 JUMP JUMPDEST DUP1 PUSH1 0x40 ADD MLOAD TIMESTAMP GT PUSH2 0xEB3 JUMPI PUSH1 0x40 MLOAD PUSH3 0x461BCD PUSH1 0xE5 SHL DUP2 MSTORE PUSH1 0x4 ADD PUSH2 0xABD SWAP1 PUSH2 0x2FA5 JUMP JUMPDEST PUSH1 0x0 PUSH2 0xED6 DUP3 PUSH1 0x60 ADD MLOAD DUP4 PUSH1 0x20 ADD MLOAD DUP5 PUSH1 0x40 ADD MLOAD DUP6 PUSH1 0x80 ADD MLOAD DUP7 PUSH1 0xA0 ADD MLOAD PUSH2 0x20A7 JUMP JUMPDEST PUSH2 0xEE8 SWAP1 PUSH8 0xDE0B6B3A7640000 PUSH2 0x2F5F JUMP JUMPDEST SWAP1 POP PUSH2 0xEF3 CALLER PUSH2 0xC11 JUMP JUMPDEST PUSH2 0xEFB PUSH2 0x2284 JUMP JUMPDEST PUSH1 0x40 MLOAD DUP2 DUP2 MSTORE CALLER SWAP1 PUSH32 0xD74752B13281DF13701575F3A507E9B1242E0B5FB040143211C481C1FCE573A6 SWAP1 PUSH1 0x20 ADD JUMPDEST PUSH1 0x40 MLOAD DUP1 SWAP2 SUB SWAP1 LOG2 POP POP JUMP JUMPDEST CALLER PUSH1 0x0 SWAP1 DUP2 MSTORE PUSH1 0xA PUSH1 0x20 SWAP1 DUP2 MSTORE PUSH1 0x40 SWAP2 DUP3 SWAP1 KECCAK256 DUP3 MLOAD PUSH1 0xC0 DUP2 ADD DUP5 MSTORE DUP2 SLOAD PUSH1 0x1 PUSH1 0x1 PUSH1 0xA0 SHL SUB AND DUP2 MSTORE PUSH1 0x1 DUP3 ADD SLOAD SWAP3 DUP2 ADD SWAP3 SWAP1 SWAP3 MSTORE PUSH1 0x2 DUP2 ADD SLOAD SWAP3 DUP3 ADD SWAP3 SWAP1 SWAP3 MSTORE PUSH1 0x3 DUP3 ADD SLOAD PUSH1 0x60 DUP3 ADD MSTORE PUSH1 0x4 DUP3 ADD SLOAD PUSH1 0x80 DUP3 ADD MSTORE PUSH1 0x5 SWAP1 SWAP2 ADD SLOAD PUSH1 0xA0 DUP3 ADD MSTORE PUSH1 0x65 DUP4 LT PUSH2 0xFE4 JUMPI PUSH1 0x40 MLOAD PUSH3 0x461BCD PUSH1 0xE5 SHL DUP2 MSTORE PUSH1 0x20 PUSH1 0x4 DUP3 ADD DUP2 SWAP1 MSTORE PUSH1 0x24 DUP3 ADD MSTORE PUSH32 0x4352616E6B3A2043616E6E6F74207368617265203E3130302070657263656E74 PUSH1 0x44 DUP3 ADD MSTORE PUSH1 0x64 ADD PUSH2 0xABD JUMP JUMPDEST PUSH1 0x0 DUP2 PUSH1 0x60 ADD MLOAD GT PUSH2 0x1008 JUMPI PUSH1 0x40 MLOAD PUSH3 0x461BCD PUSH1 0xE5 SHL DUP2 MSTORE PUSH1 0x4 ADD PUSH2 0xABD SWAP1 PUSH2 0x2F76 JUMP JUMPDEST DUP1 PUSH1 0x40 ADD MLOAD TIMESTAMP GT PUSH2 0x102B JUMPI PUSH1 0x40 MLOAD PUSH3 0x461BCD PUSH1 0xE5 SHL DUP2 MSTORE PUSH1 0x4 ADD PUSH2 0xABD SWAP1 PUSH2 0x2FA5 JUMP JUMPDEST PUSH1 0x0 PUSH2 0x104E DUP3 PUSH1 0x60 ADD MLOAD DUP4 PUSH1 0x20 ADD MLOAD DUP5 PUSH1 0x40 ADD MLOAD DUP6 PUSH1 0x80 ADD MLOAD DUP7 PUSH1 0xA0 ADD MLOAD PUSH2 0x20A7 JUMP JUMPDEST PUSH2 0x1060 SWAP1 PUSH8 0xDE0B6B3A7640000 PUSH2 0x2F5F JUMP JUMPDEST SWAP1 POP PUSH1 0x0 PUSH1 0x64 PUSH2 0x1070 DUP7 DUP5 PUSH2 0x2F5F JUMP JUMPDEST PUSH2 0x107A SWAP2 SWAP1 PUSH2 0x2FF0 JUMP JUMPDEST SWAP1 POP PUSH1 0x0 PUSH2 0x1088 DUP3 DUP5 PUSH2 0x3012 JUMP JUMPDEST SWAP1 POP PUSH2 0x1093 CALLER PUSH2 0xC11 JUMP JUMPDEST PUSH2 0x109B PUSH2 0x2284 JUMP JUMPDEST PUSH1 0x40 MLOAD DUP4 DUP2 MSTORE CALLER SWAP1 PUSH32 0xD74752B13281DF13701575F3A507E9B1242E0B5FB040143211C481C1FCE573A6 SWAP1 PUSH1 0x20 ADD PUSH1 0x40 MLOAD DUP1 SWAP2 SUB SWAP1 LOG2 PUSH1 0x0 DUP3 GT PUSH2 0x1119 JUMPI PUSH1 0x40 MLOAD PUSH3 0x461BCD PUSH1 0xE5 SHL DUP2 MSTORE PUSH1 0x20 PUSH1 0x4 DUP3 ADD MSTORE PUSH1 0x16 PUSH1 0x24 DUP3 ADD MSTORE PUSH22 0x58454E45563A2042656C6F77206D696E207374616B65 PUSH1 0x50 SHL PUSH1 0x44 DUP3 ADD MSTORE PUSH1 0x64 ADD PUSH2 0xABD JUMP JUMPDEST PUSH1 0x1 PUSH2 0x1128 PUSH3 0x15180 DUP3 PUSH2 0x2F5F JUMP JUMPDEST PUSH2 0x1132 SWAP2 SWAP1 PUSH2 0x3012 JUMP JUMPDEST PUSH2 0x113F PUSH3 0x15180 DUP8 PUSH2 0x2F5F JUMP JUMPDEST GT PUSH2 0x118C JUMPI PUSH1 0x40 MLOAD PUSH3 0x461BCD PUSH1 0xE5 SHL DUP2 MSTORE PUSH1 0x20 PUSH1 0x4 DUP3 ADD MSTORE PUSH1 0x1B PUSH1 0x24 DUP3 ADD MSTORE PUSH32 0x58454E45563A2042656C6F77206D696E207374616B65207465726D0000000000 PUSH1 0x44 DUP3 ADD MSTORE PUSH1 0x64 ADD PUSH2 0xABD JUMP JUMPDEST PUSH2 0x119B PUSH3 0x15180 PUSH2 0x3E8 PUSH2 0x2F5F JUMP JUMPDEST PUSH2 0x11A6 SWAP1 PUSH1 0x1 PUSH2 0x3025 JUMP JUMPDEST PUSH2 0x11B3 PUSH3 0x15180 DUP8 PUSH2 0x2F5F JUMP JUMPDEST LT PUSH2 0x1200 JUMPI PUSH1 0x40 MLOAD PUSH3 0x461BCD PUSH1 0xE5 SHL DUP2 MSTORE PUSH1 0x20 PUSH1 0x4 DUP3 ADD MSTORE PUSH1 0x1B PUSH1 0x24 DUP3 ADD MSTORE PUSH32 0x58454E454F3A2041626F7665206D6178207374616B65207465726D0000000000 PUSH1 0x44 DUP3 ADD MSTORE PUSH1 0x64 ADD PUSH2 0xABD JUMP JUMPDEST CALLER PUSH1 0x0 SWAP1 DUP2 MSTORE PUSH1 0xB PUSH1 0x20 MSTORE PUSH1 0x40 SWAP1 KECCAK256 PUSH1 0x2 ADD SLOAD ISZERO PUSH2 0x1256 JUMPI PUSH1 0x40 MLOAD PUSH3 0x461BCD PUSH1 0xE5 SHL DUP2 MSTORE PUSH1 0x20 PUSH1 0x4 DUP3 ADD MSTORE PUSH1 0x13 PUSH1 0x24 DUP3 ADD MSTORE PUSH19 0x58454E45563A207374616B6520657869737473 PUSH1 0x68 SHL PUSH1 0x44 DUP3 ADD MSTORE PUSH1 0x64 ADD PUSH2 0xABD JUMP JUMPDEST PUSH2 0x1260 DUP3 DUP7 PUSH2 0x2685 JUMP JUMPDEST PUSH1 0x40 DUP1 MLOAD DUP4 DUP2 MSTORE PUSH1 0x20 DUP2 ADD DUP8 SWAP1 MSTORE CALLER SWAP2 PUSH32 0x1449C6DD7851ABC30ABF37F57715F492010519147CC2652FBC38202C18A6EE90 SWAP2 ADD PUSH2 0xC57 JUMP JUMPDEST PUSH2 0x12DA PUSH1 0x40 MLOAD DUP1 PUSH1 0xC0 ADD PUSH1 0x40 MSTORE DUP1 PUSH1 0x0 PUSH1 0x1 PUSH1 0x1 PUSH1 0xA0 SHL SUB AND DUP2 MSTORE PUSH1 0x20 ADD PUSH1 0x0 DUP2 MSTORE PUSH1 0x20 ADD PUSH1 0x0 DUP2 MSTORE PUSH1 0x20 ADD PUSH1 0x0 DUP2 MSTORE PUSH1 0x20 ADD PUSH1 0x0 DUP2 MSTORE PUSH1 0x20 ADD PUSH1 0x0 DUP2 MSTORE POP SWAP1 JUMP JUMPDEST POP CALLER PUSH1 0x0 SWAP1 DUP2 MSTORE PUSH1 0xA PUSH1 0x20 SWAP1 DUP2 MSTORE PUSH1 0x40 SWAP2 DUP3 SWAP1 KECCAK256 DUP3 MLOAD PUSH1 0xC0 DUP2 ADD DUP5 MSTORE DUP2 SLOAD PUSH1 0x1 PUSH1 0x1 PUSH1 0xA0 SHL SUB AND DUP2 MSTORE PUSH1 0x1 DUP3 ADD SLOAD SWAP3 DUP2 ADD SWAP3 SWAP1 SWAP3 MSTORE PUSH1 0x2 DUP2 ADD SLOAD SWAP3 DUP3 ADD SWAP3 SWAP1 SWAP3 MSTORE PUSH1 0x3 DUP3 ADD SLOAD PUSH1 0x60 DUP3 ADD MSTORE PUSH1 0x4 DUP3 ADD SLOAD PUSH1 0x80 DUP3 ADD MSTORE PUSH1 0x5 SWAP1 SWAP2 ADD SLOAD PUSH1 0xA0 DUP3 ADD MSTORE SWAP1 JUMP JUMPDEST DUP2 PUSH2 0x1347 CALLER PUSH2 0x5E3 JUMP JUMPDEST LT ISZERO PUSH2 0x1395 JUMPI PUSH1 0x40 MLOAD PUSH3 0x461BCD PUSH1 0xE5 SHL DUP2 MSTORE PUSH1 0x20 PUSH1 0x4 DUP3 ADD MSTORE PUSH1 0x19 PUSH1 0x24 DUP3 ADD MSTORE PUSH32 0x58454E45563A206E6F7420656E6F7567682062616C616E636500000000000000 PUSH1 0x44 DUP3 ADD MSTORE PUSH1 0x64 ADD PUSH2 0xABD JUMP JUMPDEST PUSH1 0x0 DUP3 GT PUSH2 0x13DE JUMPI PUSH1 0x40 MLOAD PUSH3 0x461BCD PUSH1 0xE5 SHL DUP2 MSTORE PUSH1 0x20 PUSH1 0x4 DUP3 ADD MSTORE PUSH1 0x16 PUSH1 0x24 DUP3 ADD MSTORE PUSH22 0x58454E45563A2042656C6F77206D696E207374616B65 PUSH1 0x50 SHL PUSH1 0x44 DUP3 ADD MSTORE PUSH1 0x64 ADD PUSH2 0xABD JUMP JUMPDEST PUSH1 0x1 PUSH2 0x13ED PUSH3 0x15180 DUP3 PUSH2 0x2F5F JUMP JUMPDEST PUSH2 0x13F7 SWAP2 SWAP1 PUSH2 0x3012 JUMP JUMPDEST PUSH2 0x1404 PUSH3 0x15180 DUP4 PUSH2 0x2F5F JUMP JUMPDEST GT PUSH2 0x1451 JUMPI PUSH1 0x40 MLOAD PUSH3 0x461BCD PUSH1 0xE5 SHL DUP2 MSTORE PUSH1 0x20 PUSH1 0x4 DUP3 ADD MSTORE PUSH1 0x1B PUSH1 0x24 DUP3 ADD MSTORE PUSH32 0x58454E45563A2042656C6F77206D696E207374616B65207465726D0000000000 PUSH1 0x44 DUP3 ADD MSTORE PUSH1 0x64 ADD PUSH2 0xABD JUMP JUMPDEST PUSH2 0x1460 PUSH3 0x15180 PUSH2 0x3E8 PUSH2 0x2F5F JUMP JUMPDEST PUSH2 0x146B SWAP1 PUSH1 0x1 PUSH2 0x3025 JUMP JUMPDEST PUSH2 0x1478 PUSH3 0x15180 DUP4 PUSH2 0x2F5F JUMP JUMPDEST LT PUSH2 0x14C5 JUMPI PUSH1 0x40 MLOAD PUSH3 0x461BCD PUSH1 0xE5 SHL DUP2 MSTORE PUSH1 0x20 PUSH1 0x4 DUP3 ADD MSTORE PUSH1 0x1B PUSH1 0x24 DUP3 ADD MSTORE PUSH32 0x58454E45563A2041626F7665206D6178207374616B65207465726D0000000000 PUSH1 0x44 DUP3 ADD MSTORE PUSH1 0x64 ADD PUSH2 0xABD JUMP JUMPDEST CALLER PUSH1 0x0 SWAP1 DUP2 MSTORE PUSH1 0xB PUSH1 0x20 MSTORE PUSH1 0x40 SWAP1 KECCAK256 PUSH1 0x2 ADD SLOAD ISZERO PUSH2 0x151B JUMPI PUSH1 0x40 MLOAD PUSH3 0x461BCD PUSH1 0xE5 SHL DUP2 MSTORE PUSH1 0x20 PUSH1 0x4 DUP3 ADD MSTORE PUSH1 0x13 PUSH1 0x24 DUP3 ADD MSTORE PUSH19 0x58454E45563A207374616B6520657869737473 PUSH1 0x68 SHL PUSH1 0x44 DUP3 ADD MSTORE PUSH1 0x64 ADD PUSH2 0xABD JUMP JUMPDEST PUSH2 0x1525 CALLER DUP4 PUSH2 0x2728 JUMP JUMPDEST PUSH2 0x152F DUP3 DUP3 PUSH2 0x2685 JUMP JUMPDEST PUSH1 0x40 DUP1 MLOAD DUP4 DUP2 MSTORE PUSH1 0x20 DUP2 ADD DUP4 SWAP1 MSTORE CALLER SWAP2 PUSH32 0x1449C6DD7851ABC30ABF37F57715F492010519147CC2652FBC38202C18A6EE90 SWAP2 ADD PUSH2 0xF29 JUMP JUMPDEST PUSH1 0x0 PUSH2 0xE0D PUSH2 0x286E JUMP JUMPDEST PUSH1 0x60 PUSH1 0x4 DUP1 SLOAD PUSH2 0x8E9 SWAP1 PUSH2 0x2F15 JUMP JUMPDEST PUSH1 0x0 PUSH2 0xE0D PUSH2 0x28B2 JUMP JUMPDEST PUSH1 0x0 PUSH2 0xE0D PUSH2 0x291F JUMP JUMPDEST PUSH1 0x0 DUP2 GT PUSH2 0x15DC JUMPI PUSH1 0x40 MLOAD PUSH3 0x461BCD PUSH1 0xE5 SHL DUP2 MSTORE PUSH1 0x20 PUSH1 0x4 DUP3 ADD MSTORE PUSH1 0x15 PUSH1 0x24 DUP3 ADD MSTORE PUSH21 0x109D5C9B8E8810995B1BDDC81B5A5B881B1A5B5A5D PUSH1 0x5A SHL PUSH1 0x44 DUP3 ADD MSTORE PUSH1 0x64 ADD PUSH2 0xABD JUMP JUMPDEST CALLER PUSH1 0x40 MLOAD PUSH4 0x1FFC9A7 PUSH1 0xE0 SHL DUP2 MSTORE PUSH4 0x543746B1 PUSH1 0xE0 SHL PUSH1 0x4 DUP3 ADD MSTORE PUSH1 0x1 PUSH1 0x1 PUSH1 0xA0 SHL SUB SWAP2 SWAP1 SWAP2 AND SWAP1 PUSH4 0x1FFC9A7 SWAP1 PUSH1 0x24 ADD PUSH1 0x20 PUSH1 0x40 MLOAD DUP1 DUP4 SUB DUP2 DUP7 GAS STATICCALL ISZERO DUP1 ISZERO PUSH2 0x162A JUMPI RETURNDATASIZE PUSH1 0x0 DUP1 RETURNDATACOPY RETURNDATASIZE PUSH1 0x0 REVERT JUMPDEST POP POP POP POP PUSH1 0x40 MLOAD RETURNDATASIZE PUSH1 0x1F NOT PUSH1 0x1F DUP3 ADD AND DUP3 ADD DUP1 PUSH1 0x40 MSTORE POP DUP2 ADD SWAP1 PUSH2 0x164E SWAP2 SWAP1 PUSH2 0x304F JUMP JUMPDEST PUSH2 0x169A JUMPI PUSH1 0x40 MLOAD PUSH3 0x461BCD PUSH1 0xE5 SHL DUP2 MSTORE PUSH1 0x20 PUSH1 0x4 DUP3 ADD MSTORE PUSH1 0x1E PUSH1 0x24 DUP3 ADD MSTORE PUSH32 0x4275726E3A206E6F74206120737570706F7274656420636F6E74726163740000 PUSH1 0x44 DUP3 ADD MSTORE PUSH1 0x64 ADD PUSH2 0xABD JUMP JUMPDEST PUSH2 0x16A5 DUP3 CALLER DUP4 PUSH2 0x22D8 JUMP JUMPDEST PUSH2 0x16AF DUP3 DUP3 PUSH2 0x2728 JUMP JUMPDEST PUSH1 0x1 PUSH1 0x1 PUSH1 0xA0 SHL SUB DUP3 AND PUSH1 0x0 SWAP1 DUP2 MSTORE PUSH1 0xC PUSH1 0x20 MSTORE PUSH1 0x40 DUP2 KECCAK256 DUP1 SLOAD DUP4 SWAP3 SWAP1 PUSH2 0x16D7 SWAP1 DUP5 SWAP1 PUSH2 0x3025 JUMP JUMPDEST SWAP1 SWAP2 SSTORE POP CALLER SWAP1 POP PUSH1 0x40 MLOAD PUSH4 0x543746B1 PUSH1 0xE0 SHL DUP2 MSTORE PUSH1 0x1 PUSH1 0x1 PUSH1 0xA0 SHL SUB DUP5 DUP2 AND PUSH1 0x4 DUP4 ADD MSTORE PUSH1 0x24 DUP3 ADD DUP5 SWAP1 MSTORE SWAP2 SWAP1 SWAP2 AND SWAP1 PUSH4 0x543746B1 SWAP1 PUSH1 0x44 ADD PUSH1 0x0 PUSH1 0x40 MLOAD DUP1 DUP4 SUB DUP2 PUSH1 0x0 DUP8 DUP1 EXTCODESIZE ISZERO DUP1 ISZERO PUSH2 0x172A JUMPI PUSH1 0x0 DUP1 REVERT JUMPDEST POP GAS CALL ISZERO DUP1 ISZERO PUSH2 0x173E JUMPI RETURNDATASIZE PUSH1 0x0 DUP1 RETURNDATACOPY RETURNDATASIZE PUSH1 0x0 REVERT JUMPDEST POP POP POP POP POP POP JUMP JUMPDEST PUSH2 0x174E PUSH2 0x29FB JUMP JUMPDEST PUSH1 0x0 PUSH2 0x175D PUSH3 0x15180 DUP4 PUSH2 0x2F5F JUMP JUMPDEST SWAP1 POP PUSH1 0x1 PUSH2 0x176E PUSH3 0x15180 DUP3 PUSH2 0x2F5F JUMP JUMPDEST PUSH2 0x1778 SWAP2 SWAP1 PUSH2 0x3012 JUMP JUMPDEST DUP2 GT PUSH2 0x17C6 JUMPI PUSH1 0x40 MLOAD PUSH3 0x461BCD PUSH1 0xE5 SHL DUP2 MSTORE PUSH1 0x20 PUSH1 0x4 DUP3 ADD MSTORE PUSH1 0x19 PUSH1 0x24 DUP3 ADD MSTORE PUSH32 0x4352616E6B3A205465726D206C657373207468616E206D696E00000000000000 PUSH1 0x44 DUP3 ADD MSTORE PUSH1 0x64 ADD PUSH2 0xABD JUMP JUMPDEST PUSH2 0x17CE PUSH2 0x257E JUMP JUMPDEST PUSH2 0x17D9 SWAP1 PUSH1 0x1 PUSH2 0x3025 JUMP JUMPDEST DUP2 LT PUSH2 0x1836 JUMPI PUSH1 0x40 MLOAD PUSH3 0x461BCD PUSH1 0xE5 SHL DUP2 MSTORE PUSH1 0x20 PUSH1 0x4 DUP3 ADD MSTORE PUSH1 0x26 PUSH1 0x24 DUP3 ADD MSTORE PUSH32 0x4352616E6B3A205465726D206D6F7265207468616E2063757272656E74206D61 PUSH1 0x44 DUP3 ADD MSTORE PUSH6 0x78207465726D PUSH1 0xD0 SHL PUSH1 0x64 DUP3 ADD MSTORE PUSH1 0x84 ADD PUSH2 0xABD JUMP JUMPDEST CALLER PUSH1 0x0 SWAP1 DUP2 MSTORE PUSH1 0xA PUSH1 0x20 MSTORE PUSH1 0x40 SWAP1 KECCAK256 PUSH1 0x3 ADD SLOAD ISZERO PUSH2 0x1896 JUMPI PUSH1 0x40 MLOAD PUSH3 0x461BCD PUSH1 0xE5 SHL DUP2 MSTORE PUSH1 0x20 PUSH1 0x4 DUP3 ADD MSTORE PUSH1 0x1F PUSH1 0x24 DUP3 ADD MSTORE PUSH32 0x4352616E6B3A204D696E7420616C726561647920696E2070726F677265737300 PUSH1 0x44 DUP3 ADD MSTORE PUSH1 0x64 ADD PUSH2 0xABD JUMP JUMPDEST PUSH1 0x0 PUSH1 0x40 MLOAD DUP1 PUSH1 0xC0 ADD PUSH1 0x40 MSTORE DUP1 PUSH2 0x18AA CALLER SWAP1 JUMP JUMPDEST PUSH1 0x1 PUSH1 0x1 PUSH1 0xA0 SHL SUB AND DUP2 MSTORE PUSH1 0x20 DUP2 ADD DUP6 SWAP1 MSTORE PUSH1 0x40 ADD PUSH2 0x18C9 DUP5 TIMESTAMP PUSH2 0x3025 JUMP JUMPDEST DUP2 MSTORE PUSH1 0x20 ADD PUSH1 0x6 SLOAD DUP2 MSTORE PUSH1 0x20 ADD PUSH2 0x18DE PUSH2 0x291F JUMP JUMPDEST DUP2 MSTORE PUSH1 0x20 ADD PUSH2 0x18EB PUSH2 0x286E JUMP JUMPDEST SWAP1 MSTORE CALLER PUSH1 0x0 SWAP1 DUP2 MSTORE PUSH1 0xA PUSH1 0x20 SWAP1 DUP2 MSTORE PUSH1 0x40 DUP1 DUP4 KECCAK256 DUP5 MLOAD DUP2 SLOAD PUSH1 0x1 PUSH1 0x1 PUSH1 0xA0 SHL SUB NOT AND PUSH1 0x1 PUSH1 0x1 PUSH1 0xA0 SHL SUB SWAP1 SWAP2 AND OR DUP2 SSTORE SWAP2 DUP5 ADD MLOAD PUSH1 0x1 DUP4 ADD SSTORE DUP4 ADD MLOAD PUSH1 0x2 DUP3 ADD SSTORE PUSH1 0x60 DUP4 ADD MLOAD PUSH1 0x3 DUP3 ADD SSTORE PUSH1 0x80 DUP4 ADD MLOAD PUSH1 0x4 DUP3 ADD SSTORE PUSH1 0xA0 DUP4 ADD MLOAD PUSH1 0x5 SWAP1 SWAP2 ADD SSTORE PUSH1 0x7 DUP1 SLOAD SWAP3 SWAP4 POP SWAP1 PUSH2 0x195C DUP4 PUSH2 0x3071 JUMP JUMPDEST SWAP2 SWAP1 POP SSTORE POP PUSH2 0x1968 CALLER SWAP1 JUMP JUMPDEST PUSH1 0x1 PUSH1 0x1 PUSH1 0xA0 SHL SUB AND PUSH32 0xE9149E1B5059238BAED02FA659DBF4BD932FBCF760A431330DF4D934BC942F37 DUP5 PUSH1 0x6 PUSH1 0x0 DUP2 SLOAD DUP1 SWAP3 SWAP2 SWAP1 PUSH2 0x19A6 SWAP1 PUSH2 0x3071 JUMP JUMPDEST SWAP1 SWAP2 SSTORE POP PUSH1 0x40 DUP1 MLOAD SWAP3 DUP4 MSTORE PUSH1 0x20 DUP4 ADD SWAP2 SWAP1 SWAP2 MSTORE ADD PUSH1 0x40 MLOAD DUP1 SWAP2 SUB SWAP1 LOG2 POP POP POP JUMP JUMPDEST PUSH1 0x0 CALLER DUP2 PUSH2 0x19D5 DUP3 DUP7 PUSH2 0x1B0B JUMP JUMPDEST SWAP1 POP DUP4 DUP2 LT ISZERO PUSH2 0x1A35 JUMPI PUSH1 0x40 MLOAD PUSH3 0x461BCD PUSH1 0xE5 SHL DUP2 MSTORE PUSH1 0x20 PUSH1 0x4 DUP3 ADD MSTORE PUSH1 0x25 PUSH1 0x24 DUP3 ADD MSTORE PUSH32 0x45524332303A2064656372656173656420616C6C6F77616E63652062656C6F77 PUSH1 0x44 DUP3 ADD MSTORE PUSH5 0x207A65726F PUSH1 0xD8 SHL PUSH1 0x64 DUP3 ADD MSTORE PUSH1 0x84 ADD PUSH2 0xABD JUMP JUMPDEST PUSH2 0xC80 DUP3 DUP7 DUP7 DUP5 SUB PUSH2 0x1F82 JUMP JUMPDEST PUSH1 0x0 CALLER PUSH2 0x97A DUP2 DUP6 DUP6 PUSH2 0x2352 JUMP JUMPDEST PUSH1 0x0 DUP1 PUSH2 0x1A67 PUSH2 0x1A5F DUP8 PUSH2 0x2A93 JUMP JUMPDEST PUSH1 0xF SIGNEXTEND PUSH2 0x2AB1 JUMP JUMPDEST SWAP1 POP PUSH1 0x0 PUSH2 0x1AA3 PUSH2 0x1A77 DUP6 PUSH2 0x2A93 JUMP JUMPDEST PUSH2 0x1A9A PUSH2 0x1A83 DUP9 PUSH2 0x2A93 JUMP JUMPDEST PUSH2 0x1A9A PUSH2 0x1A8F DUP12 PUSH2 0x2A93 JUMP JUMPDEST PUSH1 0xF DUP9 SWAP1 SIGNEXTEND SWAP1 PUSH2 0x2B95 JUMP JUMPDEST PUSH1 0xF SIGNEXTEND SWAP1 PUSH2 0x2B95 JUMP JUMPDEST SWAP1 POP PUSH2 0x1AC9 PUSH2 0x1AC1 PUSH2 0x1AB6 PUSH2 0x3E8 PUSH2 0x2A93 JUMP JUMPDEST PUSH1 0xF DUP5 SWAP1 SIGNEXTEND SWAP1 PUSH2 0x2BD3 JUMP JUMPDEST PUSH1 0xF SIGNEXTEND PUSH2 0x2C2A JUMP JUMPDEST PUSH8 0xFFFFFFFFFFFFFFFF AND SWAP3 POP POP POP JUMPDEST SWAP5 SWAP4 POP POP POP POP JUMP JUMPDEST PUSH1 0x40 MLOAD DUP1 PUSH1 0x60 ADD PUSH1 0x40 MSTORE DUP1 PUSH1 0x2E DUP2 MSTORE PUSH1 0x20 ADD PUSH2 0x3194 PUSH1 0x2E SWAP2 CODECOPY DUP2 JUMP JUMPDEST PUSH2 0x992 PUSH3 0x15180 PUSH2 0x3E8 PUSH2 0x2F5F JUMP JUMPDEST PUSH1 0x1 PUSH1 0x1 PUSH1 0xA0 SHL SUB SWAP2 DUP3 AND PUSH1 0x0 SWAP1 DUP2 MSTORE PUSH1 0x1 PUSH1 0x20 SWAP1 DUP2 MSTORE PUSH1 0x40 DUP1 DUP4 KECCAK256 SWAP4 SWAP1 SWAP5 AND DUP3 MSTORE SWAP2 SWAP1 SWAP2 MSTORE KECCAK256 SLOAD SWAP1 JUMP JUMPDEST PUSH1 0x1 PUSH2 0x1B45 PUSH3 0x15180 DUP3 PUSH2 0x2F5F JUMP JUMPDEST PUSH2 0x992 SWAP2 SWAP1 PUSH2 0x3012 JUMP JUMPDEST PUSH1 0x0 PUSH2 0x1B59 PUSH2 0x2C46 JUMP JUMPDEST SWAP1 POP PUSH1 0x0 PUSH2 0x1B69 PUSH1 0x12 PUSH1 0xA PUSH2 0x316E JUMP JUMPDEST PUSH2 0x1B73 SWAP1 DUP5 PUSH2 0x2F5F JUMP JUMPDEST SWAP1 POP PUSH1 0x1 DUP3 ISZERO ISZERO EQ PUSH2 0x1BC0 JUMPI PUSH1 0x40 MLOAD PUSH3 0x461BCD PUSH1 0xE5 SHL DUP2 MSTORE PUSH1 0x20 PUSH1 0x4 DUP3 ADD MSTORE PUSH1 0x16 PUSH1 0x24 DUP3 ADD MSTORE PUSH22 0x496E76616C69642074696D6520746F20627269646765 PUSH1 0x50 SHL PUSH1 0x44 DUP3 ADD MSTORE PUSH1 0x64 ADD PUSH2 0xABD JUMP JUMPDEST ORIGIN PUSH1 0x1 PUSH1 0x1 PUSH1 0xA0 SHL SUB DUP6 AND EQ PUSH2 0x1C07 JUMPI PUSH1 0x40 MLOAD PUSH3 0x461BCD PUSH1 0xE5 SHL DUP2 MSTORE PUSH1 0x20 PUSH1 0x4 DUP3 ADD MSTORE PUSH1 0xC PUSH1 0x24 DUP3 ADD MSTORE PUSH12 0x24B73B30B634B2102AB9B2B9 PUSH1 0xA1 SHL PUSH1 0x44 DUP3 ADD MSTORE PUSH1 0x64 ADD PUSH2 0xABD JUMP JUMPDEST PUSH1 0x1 PUSH1 0x1 PUSH1 0xA0 SHL SUB DUP5 AND PUSH2 0x1C68 JUMPI PUSH1 0x40 MLOAD PUSH3 0x461BCD PUSH1 0xE5 SHL DUP2 MSTORE PUSH1 0x20 PUSH1 0x4 DUP3 ADD MSTORE PUSH1 0x22 PUSH1 0x24 DUP3 ADD MSTORE PUSH32 0x4275726E3A20596F752063616E74206275726E2066726F6D2061646472657373 PUSH1 0x44 DUP3 ADD MSTORE PUSH2 0x203 PUSH1 0xF4 SHL PUSH1 0x64 DUP3 ADD MSTORE PUSH1 0x84 ADD PUSH2 0xABD JUMP JUMPDEST PUSH1 0x0 DUP2 GT PUSH2 0x1CB0 JUMPI PUSH1 0x40 MLOAD PUSH3 0x461BCD PUSH1 0xE5 SHL DUP2 MSTORE PUSH1 0x20 PUSH1 0x4 DUP3 ADD MSTORE PUSH1 0x15 PUSH1 0x24 DUP3 ADD MSTORE PUSH21 0x109D5C9B8E8810995B1BDDC81B5A5B881B1A5B5A5D PUSH1 0x5A SHL PUSH1 0x44 DUP3 ADD MSTORE PUSH1 0x64 ADD PUSH2 0xABD JUMP JUMPDEST PUSH1 0x40 MLOAD PUSH4 0x70A08231 PUSH1 0xE0 SHL DUP2 MSTORE CALLER PUSH1 0x4 DUP3 ADD MSTORE PUSH1 0x0 SWAP1 PUSH32 0x0 PUSH1 0x1 PUSH1 0x1 PUSH1 0xA0 SHL SUB AND SWAP1 PUSH4 0x70A08231 SWAP1 PUSH1 0x24 ADD PUSH1 0x20 PUSH1 0x40 MLOAD DUP1 DUP4 SUB DUP2 DUP7 GAS STATICCALL ISZERO DUP1 ISZERO PUSH2 0x1D17 JUMPI RETURNDATASIZE PUSH1 0x0 DUP1 RETURNDATACOPY RETURNDATASIZE PUSH1 0x0 REVERT JUMPDEST POP POP POP POP PUSH1 0x40 MLOAD RETURNDATASIZE PUSH1 0x1F NOT PUSH1 0x1F DUP3 ADD AND DUP3 ADD DUP1 PUSH1 0x40 MSTORE POP DUP2 ADD SWAP1 PUSH2 0x1D3B SWAP2 SWAP1 PUSH2 0x317A JUMP JUMPDEST SWAP1 POP PUSH2 0x1D48 PUSH1 0x1 DUP4 PUSH2 0x3012 JUMP JUMPDEST DUP2 GT PUSH2 0x1D96 JUMPI PUSH1 0x40 MLOAD PUSH3 0x461BCD PUSH1 0xE5 SHL DUP2 MSTORE PUSH1 0x20 PUSH1 0x4 DUP3 ADD MSTORE PUSH1 0x1D PUSH1 0x24 DUP3 ADD MSTORE PUSH32 0x58454E45563A206E6F7420656E6F7567682058454E2062616C616E6365000000 PUSH1 0x44 DUP3 ADD MSTORE PUSH1 0x64 ADD PUSH2 0xABD JUMP JUMPDEST PUSH1 0x40 MLOAD PUSH4 0x6EB1769F PUSH1 0xE1 SHL DUP2 MSTORE CALLER PUSH1 0x4 DUP3 ADD MSTORE ADDRESS PUSH1 0x24 DUP3 ADD MSTORE PUSH1 0x0 SWAP1 PUSH32 0x0 PUSH1 0x1 PUSH1 0x1 PUSH1 0xA0 SHL SUB AND SWAP1 PUSH4 0xDD62ED3E SWAP1 PUSH1 0x44 ADD PUSH1 0x20 PUSH1 0x40 MLOAD DUP1 DUP4 SUB DUP2 DUP7 GAS STATICCALL ISZERO DUP1 ISZERO PUSH2 0x1E03 JUMPI RETURNDATASIZE PUSH1 0x0 DUP1 RETURNDATACOPY RETURNDATASIZE PUSH1 0x0 REVERT JUMPDEST POP POP POP POP PUSH1 0x40 MLOAD RETURNDATASIZE PUSH1 0x1F NOT PUSH1 0x1F DUP3 ADD AND DUP3 ADD DUP1 PUSH1 0x40 MSTORE POP DUP2 ADD SWAP1 PUSH2 0x1E27 SWAP2 SWAP1 PUSH2 0x317A JUMP JUMPDEST SWAP1 POP PUSH2 0x1E34 PUSH1 0x1 DUP5 PUSH2 0x3012 JUMP JUMPDEST DUP2 GT PUSH2 0x1E9A JUMPI PUSH1 0x40 MLOAD PUSH3 0x461BCD PUSH1 0xE5 SHL DUP2 MSTORE PUSH1 0x20 PUSH1 0x4 DUP3 ADD MSTORE PUSH1 0x2F PUSH1 0x24 DUP3 ADD MSTORE PUSH32 0x58454E45563A206E6F7420656E6F7567682058454E2062616C616E6365206170 PUSH1 0x44 DUP3 ADD MSTORE PUSH15 0x383937BB32B2103337B910313AB937 PUSH1 0x89 SHL PUSH1 0x64 DUP3 ADD MSTORE PUSH1 0x84 ADD PUSH2 0xABD JUMP JUMPDEST PUSH1 0x40 MLOAD PUSH4 0x2770A7EB PUSH1 0xE2 SHL DUP2 MSTORE CALLER PUSH1 0x4 DUP3 ADD MSTORE PUSH1 0x24 DUP2 ADD DUP5 SWAP1 MSTORE PUSH32 0x0 PUSH1 0x1 PUSH1 0x1 PUSH1 0xA0 SHL SUB AND SWAP1 PUSH4 0x9DC29FAC SWAP1 PUSH1 0x44 ADD PUSH1 0x0 PUSH1 0x40 MLOAD DUP1 DUP4 SUB DUP2 PUSH1 0x0 DUP8 DUP1 EXTCODESIZE ISZERO DUP1 ISZERO PUSH2 0x1F02 JUMPI PUSH1 0x0 DUP1 REVERT JUMPDEST POP GAS CALL ISZERO DUP1 ISZERO PUSH2 0x1F16 JUMPI RETURNDATASIZE PUSH1 0x0 DUP1 RETURNDATACOPY RETURNDATASIZE PUSH1 0x0 REVERT JUMPDEST POP POP POP POP PUSH1 0x1 PUSH1 0x1 PUSH1 0xA0 SHL SUB DUP7 AND PUSH1 0x0 SWAP1 DUP2 MSTORE PUSH1 0xD PUSH1 0x20 MSTORE PUSH1 0x40 DUP2 KECCAK256 DUP1 SLOAD DUP8 SWAP3 SWAP1 PUSH2 0x1F42 SWAP1 DUP5 SWAP1 PUSH2 0x3025 JUMP JUMPDEST SWAP1 SWAP2 SSTORE POP PUSH1 0x0 SWAP1 POP PUSH2 0x1F55 PUSH1 0xA DUP8 PUSH2 0x2FF0 JUMP JUMPDEST SWAP1 POP PUSH2 0x1F63 PUSH1 0x12 PUSH1 0xA PUSH2 0x316E JUMP JUMPDEST PUSH2 0x1F6D SWAP1 DUP3 PUSH2 0x2F5F JUMP JUMPDEST SWAP4 POP PUSH2 0x1F79 CALLER DUP6 PUSH2 0x21A5 JUMP JUMPDEST POP POP POP POP POP POP POP JUMP JUMPDEST PUSH1 0x1 PUSH1 0x1 PUSH1 0xA0 SHL SUB DUP4 AND PUSH2 0x1FE4 JUMPI PUSH1 0x40 MLOAD PUSH3 0x461BCD PUSH1 0xE5 SHL DUP2 MSTORE PUSH1 0x20 PUSH1 0x4 DUP3 ADD MSTORE PUSH1 0x24 DUP1 DUP3 ADD MSTORE PUSH32 0x45524332303A20617070726F76652066726F6D20746865207A65726F20616464 PUSH1 0x44 DUP3 ADD MSTORE PUSH4 0x72657373 PUSH1 0xE0 SHL PUSH1 0x64 DUP3 ADD MSTORE PUSH1 0x84 ADD PUSH2 0xABD JUMP JUMPDEST PUSH1 0x1 PUSH1 0x1 PUSH1 0xA0 SHL SUB DUP3 AND PUSH2 0x2045 JUMPI PUSH1 0x40 MLOAD PUSH3 0x461BCD PUSH1 0xE5 SHL DUP2 MSTORE PUSH1 0x20 PUSH1 0x4 DUP3 ADD MSTORE PUSH1 0x22 PUSH1 0x24 DUP3 ADD MSTORE PUSH32 0x45524332303A20617070726F766520746F20746865207A65726F206164647265 PUSH1 0x44 DUP3 ADD MSTORE PUSH2 0x7373 PUSH1 0xF0 SHL PUSH1 0x64 DUP3 ADD MSTORE PUSH1 0x84 ADD PUSH2 0xABD JUMP JUMPDEST PUSH1 0x1 PUSH1 0x1 PUSH1 0xA0 SHL SUB DUP4 DUP2 AND PUSH1 0x0 DUP2 DUP2 MSTORE PUSH1 0x1 PUSH1 0x20 SWAP1 DUP2 MSTORE PUSH1 0x40 DUP1 DUP4 KECCAK256 SWAP5 DUP8 AND DUP1 DUP5 MSTORE SWAP5 DUP3 MSTORE SWAP2 DUP3 SWAP1 KECCAK256 DUP6 SWAP1 SSTORE SWAP1 MLOAD DUP5 DUP2 MSTORE PUSH32 0x8C5BE1E5EBEC7D5BD14F71427D1E84F3DD0314C0F7B2291E5B200AC8C7C3B925 SWAP2 ADD JUMPDEST PUSH1 0x40 MLOAD DUP1 SWAP2 SUB SWAP1 LOG3 POP POP POP JUMP JUMPDEST PUSH1 0x0 DUP1 PUSH2 0x20B4 DUP6 TIMESTAMP PUSH2 0x3012 JUMP JUMPDEST SWAP1 POP PUSH1 0x0 PUSH2 0x20C1 DUP3 PUSH2 0x2C8B JUMP JUMPDEST SWAP1 POP PUSH1 0x0 PUSH20 0x0 PUSH4 0x6D5433E6 DUP11 PUSH1 0x6 SLOAD PUSH2 0x20ED SWAP2 SWAP1 PUSH2 0x3012 JUMP JUMPDEST PUSH1 0x40 MLOAD PUSH1 0x1 PUSH1 0x1 PUSH1 0xE0 SHL SUB NOT PUSH1 0xE0 DUP5 SWAP1 SHL AND DUP2 MSTORE PUSH1 0x4 DUP2 ADD SWAP2 SWAP1 SWAP2 MSTORE PUSH1 0x2 PUSH1 0x24 DUP3 ADD MSTORE PUSH1 0x44 ADD PUSH1 0x20 PUSH1 0x40 MLOAD DUP1 DUP4 SUB DUP2 DUP7 GAS DELEGATECALL ISZERO DUP1 ISZERO PUSH2 0x2130 JUMPI RETURNDATASIZE PUSH1 0x0 DUP1 RETURNDATACOPY RETURNDATASIZE PUSH1 0x0 REVERT JUMPDEST POP POP POP POP PUSH1 0x40 MLOAD RETURNDATASIZE PUSH1 0x1F NOT PUSH1 0x1F DUP3 ADD AND DUP3 ADD DUP1 PUSH1 0x40 MSTORE POP DUP2 ADD SWAP1 PUSH2 0x2154 SWAP2 SWAP1 PUSH2 0x317A JUMP JUMPDEST SWAP1 POP PUSH1 0x0 PUSH2 0x2164 DUP7 PUSH2 0x3E8 PUSH2 0x3025 JUMP JUMPDEST SWAP1 POP PUSH1 0x0 PUSH2 0x2174 DUP4 DUP10 DUP13 DUP6 PUSH2 0x1A50 JUMP JUMPDEST SWAP1 POP PUSH1 0x64 PUSH2 0x2182 DUP6 DUP3 PUSH2 0x3012 JUMP JUMPDEST PUSH2 0x218C SWAP1 DUP4 PUSH2 0x2F5F JUMP JUMPDEST PUSH2 0x2196 SWAP2 SWAP1 PUSH2 0x2FF0 JUMP JUMPDEST SWAP12 SWAP11 POP POP POP POP POP POP POP POP POP POP POP JUMP JUMPDEST PUSH1 0x1 PUSH1 0x1 PUSH1 0xA0 SHL SUB DUP3 AND PUSH2 0x21FB JUMPI PUSH1 0x40 MLOAD PUSH3 0x461BCD PUSH1 0xE5 SHL DUP2 MSTORE PUSH1 0x20 PUSH1 0x4 DUP3 ADD MSTORE PUSH1 0x1F PUSH1 0x24 DUP3 ADD MSTORE PUSH32 0x45524332303A206D696E7420746F20746865207A65726F206164647265737300 PUSH1 0x44 DUP3 ADD MSTORE PUSH1 0x64 ADD PUSH2 0xABD JUMP JUMPDEST DUP1 PUSH1 0x2 PUSH1 0x0 DUP3 DUP3 SLOAD PUSH2 0x220D SWAP2 SWAP1 PUSH2 0x3025 JUMP JUMPDEST SWAP1 SWAP2 SSTORE POP POP PUSH1 0x1 PUSH1 0x1 PUSH1 0xA0 SHL SUB DUP3 AND PUSH1 0x0 SWAP1 DUP2 MSTORE PUSH1 0x20 DUP2 SWAP1 MSTORE PUSH1 0x40 DUP2 KECCAK256 DUP1 SLOAD DUP4 SWAP3 SWAP1 PUSH2 0x223A SWAP1 DUP5 SWAP1 PUSH2 0x3025 JUMP JUMPDEST SWAP1 SWAP2 SSTORE POP POP PUSH1 0x40 MLOAD DUP2 DUP2 MSTORE PUSH1 0x1 PUSH1 0x1 PUSH1 0xA0 SHL SUB DUP4 AND SWAP1 PUSH1 0x0 SWAP1 PUSH32 0xDDF252AD1BE2C89B69C2B068FC378DAA952BA7F163C4A11628F55A4DF523B3EF SWAP1 PUSH1 0x20 ADD PUSH1 0x40 MLOAD DUP1 SWAP2 SUB SWAP1 LOG3 POP POP JUMP JUMPDEST CALLER PUSH1 0x0 SWAP1 DUP2 MSTORE PUSH1 0xA PUSH1 0x20 MSTORE PUSH1 0x40 DUP2 KECCAK256 DUP1 SLOAD PUSH1 0x1 PUSH1 0x1 PUSH1 0xA0 SHL SUB NOT AND DUP2 SSTORE PUSH1 0x1 DUP2 ADD DUP3 SWAP1 SSTORE PUSH1 0x2 DUP2 ADD DUP3 SWAP1 SSTORE PUSH1 0x3 DUP2 ADD DUP3 SWAP1 SSTORE PUSH1 0x4 DUP2 ADD DUP3 SWAP1 SSTORE PUSH1 0x5 ADD DUP2 SWAP1 SSTORE PUSH1 0x7 DUP1 SLOAD SWAP2 PUSH2 0x22D1 DUP4 PUSH2 0x3038 JUMP JUMPDEST SWAP2 SWAP1 POP SSTORE POP JUMP JUMPDEST PUSH1 0x0 PUSH2 0x22E4 DUP5 DUP5 PUSH2 0x1B0B JUMP JUMPDEST SWAP1 POP PUSH1 0x0 NOT DUP2 EQ PUSH2 0x234C JUMPI DUP2 DUP2 LT ISZERO PUSH2 0x233F JUMPI PUSH1 0x40 MLOAD PUSH3 0x461BCD PUSH1 0xE5 SHL DUP2 MSTORE PUSH1 0x20 PUSH1 0x4 DUP3 ADD MSTORE PUSH1 0x1D PUSH1 0x24 DUP3 ADD MSTORE PUSH32 0x45524332303A20696E73756666696369656E7420616C6C6F77616E6365000000 PUSH1 0x44 DUP3 ADD MSTORE PUSH1 0x64 ADD PUSH2 0xABD JUMP JUMPDEST PUSH2 0x234C DUP5 DUP5 DUP5 DUP5 SUB PUSH2 0x1F82 JUMP JUMPDEST POP POP POP POP JUMP JUMPDEST PUSH1 0x1 PUSH1 0x1 PUSH1 0xA0 SHL SUB DUP4 AND PUSH2 0x23B6 JUMPI PUSH1 0x40 MLOAD PUSH3 0x461BCD PUSH1 0xE5 SHL DUP2 MSTORE PUSH1 0x20 PUSH1 0x4 DUP3 ADD MSTORE PUSH1 0x25 PUSH1 0x24 DUP3 ADD MSTORE PUSH32 0x45524332303A207472616E736665722066726F6D20746865207A65726F206164 PUSH1 0x44 DUP3 ADD MSTORE PUSH5 0x6472657373 PUSH1 0xD8 SHL PUSH1 0x64 DUP3 ADD MSTORE PUSH1 0x84 ADD PUSH2 0xABD JUMP JUMPDEST PUSH1 0x1 PUSH1 0x1 PUSH1 0xA0 SHL SUB DUP3 AND PUSH2 0x2418 JUMPI PUSH1 0x40 MLOAD PUSH3 0x461BCD PUSH1 0xE5 SHL DUP2 MSTORE PUSH1 0x20 PUSH1 0x4 DUP3 ADD MSTORE PUSH1 0x23 PUSH1 0x24 DUP3 ADD MSTORE PUSH32 0x45524332303A207472616E7366657220746F20746865207A65726F2061646472 PUSH1 0x44 DUP3 ADD MSTORE PUSH3 0x657373 PUSH1 0xE8 SHL PUSH1 0x64 DUP3 ADD MSTORE PUSH1 0x84 ADD PUSH2 0xABD JUMP JUMPDEST PUSH1 0x1 PUSH1 0x1 PUSH1 0xA0 SHL SUB DUP4 AND PUSH1 0x0 SWAP1 DUP2 MSTORE PUSH1 0x20 DUP2 SWAP1 MSTORE PUSH1 0x40 SWAP1 KECCAK256 SLOAD DUP2 DUP2 LT ISZERO PUSH2 0x2490 JUMPI PUSH1 0x40 MLOAD PUSH3 0x461BCD PUSH1 0xE5 SHL DUP2 MSTORE PUSH1 0x20 PUSH1 0x4 DUP3 ADD MSTORE PUSH1 0x26 PUSH1 0x24 DUP3 ADD MSTORE PUSH32 0x45524332303A207472616E7366657220616D6F756E7420657863656564732062 PUSH1 0x44 DUP3 ADD MSTORE PUSH6 0x616C616E6365 PUSH1 0xD0 SHL PUSH1 0x64 DUP3 ADD MSTORE PUSH1 0x84 ADD PUSH2 0xABD JUMP JUMPDEST PUSH1 0x1 PUSH1 0x1 PUSH1 0xA0 SHL SUB DUP1 DUP6 AND PUSH1 0x0 SWAP1 DUP2 MSTORE PUSH1 0x20 DUP2 SWAP1 MSTORE PUSH1 0x40 DUP1 DUP3 KECCAK256 DUP6 DUP6 SUB SWAP1 SSTORE SWAP2 DUP6 AND DUP2 MSTORE SWAP1 DUP2 KECCAK256 DUP1 SLOAD DUP5 SWAP3 SWAP1 PUSH2 0x24C7 SWAP1 DUP5 SWAP1 PUSH2 0x3025 JUMP JUMPDEST SWAP3 POP POP DUP2 SWAP1 SSTORE POP DUP3 PUSH1 0x1 PUSH1 0x1 PUSH1 0xA0 SHL SUB AND DUP5 PUSH1 0x1 PUSH1 0x1 PUSH1 0xA0 SHL SUB AND PUSH32 0xDDF252AD1BE2C89B69C2B068FC378DAA952BA7F163C4A11628F55A4DF523B3EF DUP5 PUSH1 0x40 MLOAD PUSH2 0x2513 SWAP2 DUP2 MSTORE PUSH1 0x20 ADD SWAP1 JUMP JUMPDEST PUSH1 0x40 MLOAD DUP1 SWAP2 SUB SWAP1 LOG3 PUSH2 0x234C JUMP JUMPDEST PUSH1 0x0 DUP3 TIMESTAMP GT ISZERO PUSH2 0x2573 JUMPI PUSH1 0x0 PUSH2 0x16D PUSH2 0x2539 DUP7 DUP6 PUSH2 0x2F5F JUMP JUMPDEST PUSH2 0x2546 SWAP1 PUSH3 0xF4240 PUSH2 0x2F5F JUMP JUMPDEST PUSH2 0x2550 SWAP2 SWAP1 PUSH2 0x2FF0 JUMP JUMPDEST SWAP1 POP PUSH4 0x5F5E100 PUSH2 0x2561 DUP3 DUP9 PUSH2 0x2F5F JUMP JUMPDEST PUSH2 0x256B SWAP2 SWAP1 PUSH2 0x2FF0 JUMP JUMPDEST SWAP2 POP POP PUSH2 0x1AD8 JUMP JUMPDEST POP PUSH1 0x0 SWAP5 SWAP4 POP POP POP POP JUMP JUMPDEST PUSH1 0x0 PUSH2 0x1388 PUSH1 0x6 SLOAD GT ISZERO PUSH2 0x2677 JUMPI PUSH1 0x0 PUSH2 0x25AC PUSH2 0x1AC1 PUSH2 0x259E PUSH1 0xF PUSH2 0x2A93 JUMP JUMPDEST PUSH2 0x1A9A PUSH2 0x1A5F PUSH1 0x6 SLOAD PUSH2 0x2A93 JUMP JUMPDEST PUSH8 0xFFFFFFFFFFFFFFFF AND SWAP1 POP PUSH1 0x0 PUSH2 0x25C7 PUSH3 0x15180 DUP4 PUSH2 0x2F5F JUMP JUMPDEST PUSH2 0x25D5 PUSH3 0x15180 PUSH1 0x64 PUSH2 0x2F5F JUMP JUMPDEST PUSH2 0x25DF SWAP2 SWAP1 PUSH2 0x3025 JUMP JUMPDEST SWAP1 POP PUSH20 0x0 PUSH4 0x7AE2B5C7 DUP3 PUSH2 0x260B PUSH3 0x15180 PUSH2 0x3E8 PUSH2 0x2F5F JUMP JUMPDEST PUSH1 0x40 MLOAD PUSH1 0x1 PUSH1 0x1 PUSH1 0xE0 SHL SUB NOT PUSH1 0xE0 DUP6 SWAP1 SHL AND DUP2 MSTORE PUSH1 0x4 DUP2 ADD SWAP3 SWAP1 SWAP3 MSTORE PUSH1 0x24 DUP3 ADD MSTORE PUSH1 0x44 ADD PUSH1 0x20 PUSH1 0x40 MLOAD DUP1 DUP4 SUB DUP2 DUP7 GAS DELEGATECALL ISZERO DUP1 ISZERO PUSH2 0x264C JUMPI RETURNDATASIZE PUSH1 0x0 DUP1 RETURNDATACOPY RETURNDATASIZE PUSH1 0x0 REVERT JUMPDEST POP POP POP POP PUSH1 0x40 MLOAD RETURNDATASIZE PUSH1 0x1F NOT PUSH1 0x1F DUP3 ADD AND DUP3 ADD DUP1 PUSH1 0x40 MSTORE POP DUP2 ADD SWAP1 PUSH2 0x2670 SWAP2 SWAP1 PUSH2 0x317A JUMP JUMPDEST SWAP3 POP POP POP SWAP1 JUMP JUMPDEST PUSH2 0xE0D PUSH3 0x15180 PUSH1 0x64 PUSH2 0x2F5F JUMP JUMPDEST PUSH1 0x40 MLOAD DUP1 PUSH1 0x80 ADD PUSH1 0x40 MSTORE DUP1 DUP3 DUP2 MSTORE PUSH1 0x20 ADD PUSH3 0x15180 DUP4 PUSH2 0x26A5 SWAP2 SWAP1 PUSH2 0x2F5F JUMP JUMPDEST PUSH2 0x26AF SWAP1 TIMESTAMP PUSH2 0x3025 JUMP JUMPDEST DUP2 MSTORE PUSH1 0x20 ADD DUP4 DUP2 MSTORE PUSH1 0x20 ADD PUSH2 0x26C2 PUSH2 0x28B2 JUMP JUMPDEST SWAP1 MSTORE CALLER PUSH1 0x0 SWAP1 DUP2 MSTORE PUSH1 0xB PUSH1 0x20 SWAP1 DUP2 MSTORE PUSH1 0x40 DUP1 DUP4 KECCAK256 DUP5 MLOAD DUP2 SSTORE SWAP2 DUP5 ADD MLOAD PUSH1 0x1 DUP4 ADD SSTORE DUP4 ADD MLOAD PUSH1 0x2 DUP3 ADD SSTORE PUSH1 0x60 SWAP1 SWAP3 ADD MLOAD PUSH1 0x3 SWAP1 SWAP3 ADD SWAP2 SWAP1 SWAP2 SSTORE PUSH1 0x8 DUP1 SLOAD SWAP2 PUSH2 0x2708 DUP4 PUSH2 0x3071 JUMP JUMPDEST SWAP2 SWAP1 POP SSTORE POP DUP2 PUSH1 0x9 PUSH1 0x0 DUP3 DUP3 SLOAD PUSH2 0x271F SWAP2 SWAP1 PUSH2 0x3025 JUMP JUMPDEST SWAP1 SWAP2 SSTORE POP POP POP POP JUMP JUMPDEST PUSH1 0x1 PUSH1 0x1 PUSH1 0xA0 SHL SUB DUP3 AND PUSH2 0x2788 JUMPI PUSH1 0x40 MLOAD PUSH3 0x461BCD PUSH1 0xE5 SHL DUP2 MSTORE PUSH1 0x20 PUSH1 0x4 DUP3 ADD MSTORE PUSH1 0x21 PUSH1 0x24 DUP3 ADD MSTORE PUSH32 0x45524332303A206275726E2066726F6D20746865207A65726F20616464726573 PUSH1 0x44 DUP3 ADD MSTORE PUSH1 0x73 PUSH1 0xF8 SHL PUSH1 0x64 DUP3 ADD MSTORE PUSH1 0x84 ADD PUSH2 0xABD JUMP JUMPDEST PUSH1 0x1 PUSH1 0x1 PUSH1 0xA0 SHL SUB DUP3 AND PUSH1 0x0 SWAP1 DUP2 MSTORE PUSH1 0x20 DUP2 SWAP1 MSTORE PUSH1 0x40 SWAP1 KECCAK256 SLOAD DUP2 DUP2 LT ISZERO PUSH2 0x27FC JUMPI PUSH1 0x40 MLOAD PUSH3 0x461BCD PUSH1 0xE5 SHL DUP2 MSTORE PUSH1 0x20 PUSH1 0x4 DUP3 ADD MSTORE PUSH1 0x22 PUSH1 0x24 DUP3 ADD MSTORE PUSH32 0x45524332303A206275726E20616D6F756E7420657863656564732062616C616E PUSH1 0x44 DUP3 ADD MSTORE PUSH2 0x6365 PUSH1 0xF0 SHL PUSH1 0x64 DUP3 ADD MSTORE PUSH1 0x84 ADD PUSH2 0xABD JUMP JUMPDEST PUSH1 0x1 PUSH1 0x1 PUSH1 0xA0 SHL SUB DUP4 AND PUSH1 0x0 SWAP1 DUP2 MSTORE PUSH1 0x20 DUP2 SWAP1 MSTORE PUSH1 0x40 DUP2 KECCAK256 DUP4 DUP4 SUB SWAP1 SSTORE PUSH1 0x2 DUP1 SLOAD DUP5 SWAP3 SWAP1 PUSH2 0x282B SWAP1 DUP5 SWAP1 PUSH2 0x3012 JUMP JUMPDEST SWAP1 SWAP2 SSTORE POP POP PUSH1 0x40 MLOAD DUP3 DUP2 MSTORE PUSH1 0x0 SWAP1 PUSH1 0x1 PUSH1 0x1 PUSH1 0xA0 SHL SUB DUP6 AND SWAP1 PUSH32 0xDDF252AD1BE2C89B69C2B068FC378DAA952BA7F163C4A11628F55A4DF523B3EF SWAP1 PUSH1 0x20 ADD PUSH2 0x209A JUMP JUMPDEST PUSH1 0x0 DUP1 PUSH3 0x186A0 PUSH1 0x6 SLOAD PUSH1 0x1 PUSH2 0x2884 SWAP2 SWAP1 PUSH2 0x2F5F JUMP JUMPDEST PUSH2 0x288E SWAP2 SWAP1 PUSH2 0x2FF0 JUMP JUMPDEST SWAP1 POP PUSH1 0x64 DUP2 GT ISZERO PUSH2 0x28A1 JUMPI PUSH1 0x0 SWAP2 POP POP SWAP1 JUMP JUMPDEST PUSH2 0x28AC DUP2 PUSH1 0x64 PUSH2 0x3012 JUMP JUMPDEST SWAP2 POP POP SWAP1 JUMP JUMPDEST PUSH1 0x0 DUP1 PUSH2 0x28C3 PUSH1 0x5A PUSH3 0x15180 PUSH2 0x2F5F JUMP JUMPDEST PUSH2 0x28ED PUSH32 0x0 TIMESTAMP PUSH2 0x3012 JUMP JUMPDEST PUSH2 0x28F7 SWAP2 SWAP1 PUSH2 0x2FF0 JUMP JUMPDEST SWAP1 POP DUP1 PUSH2 0x2906 PUSH1 0x2 PUSH1 0x14 PUSH2 0x3012 JUMP JUMPDEST LT ISZERO PUSH2 0x2914 JUMPI PUSH1 0x2 SWAP2 POP POP SWAP1 JUMP JUMPDEST PUSH2 0x28AC DUP2 PUSH1 0x14 PUSH2 0x3012 JUMP JUMPDEST PUSH1 0x0 DUP1 PUSH3 0x15180 PUSH2 0x2950 PUSH32 0x0 TIMESTAMP PUSH2 0x3012 JUMP JUMPDEST PUSH2 0x295A SWAP2 SWAP1 PUSH2 0x2FF0 JUMP JUMPDEST SWAP1 POP PUSH2 0x12C DUP2 LT ISZERO PUSH2 0x29F3 JUMPI PUSH20 0x0 PUSH4 0x6D5433E6 PUSH2 0x298C DUP4 PUSH2 0x12C PUSH2 0x3012 JUMP JUMPDEST PUSH1 0x40 MLOAD PUSH1 0x1 PUSH1 0x1 PUSH1 0xE0 SHL SUB NOT PUSH1 0xE0 DUP5 SWAP1 SHL AND DUP2 MSTORE PUSH1 0x4 DUP2 ADD SWAP2 SWAP1 SWAP2 MSTORE PUSH1 0x1 PUSH1 0x24 DUP3 ADD MSTORE PUSH1 0x44 ADD PUSH1 0x20 PUSH1 0x40 MLOAD DUP1 DUP4 SUB DUP2 DUP7 GAS DELEGATECALL ISZERO DUP1 ISZERO PUSH2 0x29CF JUMPI RETURNDATASIZE PUSH1 0x0 DUP1 RETURNDATACOPY RETURNDATASIZE PUSH1 0x0 REVERT JUMPDEST POP POP POP POP PUSH1 0x40 MLOAD RETURNDATASIZE PUSH1 0x1F NOT PUSH1 0x1F DUP3 ADD AND DUP3 ADD DUP1 PUSH1 0x40 MSTORE POP DUP2 ADD SWAP1 PUSH2 0x28AC SWAP2 SWAP1 PUSH2 0x317A JUMP JUMPDEST PUSH1 0x1 SWAP2 POP POP SWAP1 JUMP JUMPDEST PUSH1 0x0 PUSH32 0x0 PUSH1 0x1 PUSH1 0x1 PUSH1 0xA0 SHL SUB AND PUSH4 0x1C244082 PUSH1 0x40 MLOAD DUP2 PUSH4 0xFFFFFFFF AND PUSH1 0xE0 SHL DUP2 MSTORE PUSH1 0x4 ADD PUSH1 0x20 PUSH1 0x40 MLOAD DUP1 DUP4 SUB DUP2 DUP7 GAS STATICCALL ISZERO DUP1 ISZERO PUSH2 0x2A5B JUMPI RETURNDATASIZE PUSH1 0x0 DUP1 RETURNDATACOPY RETURNDATASIZE PUSH1 0x0 REVERT JUMPDEST POP POP POP POP PUSH1 0x40 MLOAD RETURNDATASIZE PUSH1 0x1F NOT PUSH1 0x1F DUP3 ADD AND DUP3 ADD DUP1 PUSH1 0x40 MSTORE POP DUP2 ADD SWAP1 PUSH2 0x2A7F SWAP2 SWAP1 PUSH2 0x317A JUMP JUMPDEST PUSH1 0x6 SLOAD SWAP1 SWAP2 POP DUP2 DUP2 LT ISZERO PUSH2 0x53C JUMPI POP PUSH1 0x6 SSTORE JUMP JUMPDEST PUSH1 0x0 PUSH8 0x7FFFFFFFFFFFFFFF DUP3 GT ISZERO PUSH2 0x2AAA JUMPI PUSH1 0x0 DUP1 REVERT JUMPDEST POP PUSH1 0x40 SHL SWAP1 JUMP JUMPDEST PUSH1 0x0 DUP1 DUP3 PUSH1 0xF SIGNEXTEND SGT PUSH2 0x2AC2 JUMPI PUSH1 0x0 DUP1 REVERT JUMPDEST PUSH1 0x0 PUSH1 0xF DUP4 SWAP1 SIGNEXTEND PUSH9 0x10000000000000000 DUP2 SLT PUSH2 0x2AE1 JUMPI PUSH1 0x40 SWAP2 DUP3 ADD SWAP2 SAR JUMPDEST PUSH5 0x100000000 DUP2 SLT PUSH2 0x2AF5 JUMPI PUSH1 0x20 SWAP2 DUP3 ADD SWAP2 SAR JUMPDEST PUSH3 0x10000 DUP2 SLT PUSH2 0x2B07 JUMPI PUSH1 0x10 SWAP2 DUP3 ADD SWAP2 SAR JUMPDEST PUSH2 0x100 DUP2 SLT PUSH2 0x2B18 JUMPI PUSH1 0x8 SWAP2 DUP3 ADD SWAP2 SAR JUMPDEST PUSH1 0x10 DUP2 SLT PUSH2 0x2B28 JUMPI PUSH1 0x4 SWAP2 DUP3 ADD SWAP2 SAR JUMPDEST PUSH1 0x4 DUP2 SLT PUSH2 0x2B38 JUMPI PUSH1 0x2 SWAP2 DUP3 ADD SWAP2 SAR JUMPDEST PUSH1 0x2 DUP2 SLT PUSH2 0x2B47 JUMPI PUSH1 0x1 DUP3 ADD SWAP2 POP JUMPDEST PUSH1 0x3F NOT DUP3 ADD PUSH1 0x40 SHL PUSH1 0xF DUP6 SWAP1 SIGNEXTEND PUSH1 0x7F DUP5 SWAP1 SUB SHL PUSH8 0x8000000000000000 JUMPDEST PUSH1 0x0 DUP2 SGT ISZERO PUSH2 0x2B8A JUMPI SWAP1 DUP1 MUL PUSH1 0xFF DUP2 SWAP1 SHR DUP3 DUP2 MUL SWAP4 SWAP1 SWAP4 ADD SWAP3 PUSH1 0x7F ADD SHR SWAP1 PUSH1 0x1 SAR PUSH2 0x2B64 JUMP JUMPDEST POP SWAP1 SWAP6 SWAP5 POP POP POP POP POP JUMP JUMPDEST PUSH1 0x0 PUSH1 0xF DUP4 DUP2 SIGNEXTEND SWAP1 DUP4 SWAP1 SIGNEXTEND MUL PUSH1 0x40 SAR PUSH1 0x1 PUSH1 0x1 PUSH1 0x7F SHL SUB NOT DUP2 SLT DUP1 ISZERO SWAP1 PUSH2 0x2BC3 JUMPI POP PUSH1 0x1 PUSH1 0x1 PUSH1 0x7F SHL SUB DUP2 SGT ISZERO JUMPDEST PUSH2 0x2BCC JUMPI PUSH1 0x0 DUP1 REVERT JUMPDEST SWAP4 SWAP3 POP POP POP JUMP JUMPDEST PUSH1 0x0 DUP2 PUSH1 0xF SIGNEXTEND PUSH1 0x0 SUB PUSH2 0x2BE5 JUMPI PUSH1 0x0 DUP1 REVERT JUMPDEST PUSH1 0x0 DUP3 PUSH1 0xF SIGNEXTEND PUSH1 0x40 DUP6 PUSH1 0xF SIGNEXTEND SWAP1 SHL DUP2 PUSH2 0x2C00 JUMPI PUSH2 0x2C00 PUSH2 0x2FDA JUMP JUMPDEST SDIV SWAP1 POP PUSH1 0x1 PUSH1 0x1 PUSH1 0x7F SHL SUB NOT DUP2 SLT DUP1 ISZERO SWAP1 PUSH2 0x2BC3 JUMPI POP PUSH1 0x1 PUSH1 0x1 PUSH1 0x7F SHL SUB DUP2 SGT ISZERO PUSH2 0x2BCC JUMPI PUSH1 0x0 DUP1 REVERT JUMPDEST PUSH1 0x0 DUP1 DUP3 PUSH1 0xF SIGNEXTEND SLT ISZERO PUSH2 0x2C3C JUMPI PUSH1 0x0 DUP1 REVERT JUMPDEST POP PUSH1 0xF SIGNEXTEND PUSH1 0x40 SAR SWAP1 JUMP JUMPDEST PUSH1 0x0 DUP1 DUP1 PUSH2 0x2C74 PUSH32 0x0 TIMESTAMP PUSH2 0x3012 JUMP JUMPDEST SWAP1 POP PUSH1 0x5 SLOAD DUP2 LT ISZERO PUSH2 0x2C85 JUMPI PUSH1 0x1 SWAP2 POP JUMPDEST POP SWAP2 SWAP1 POP JUMP JUMPDEST PUSH1 0x0 DUP1 PUSH2 0x2C9B PUSH3 0x15180 DUP5 PUSH2 0x2FF0 JUMP JUMPDEST SWAP1 POP PUSH2 0x2CA9 PUSH1 0x1 PUSH1 0x7 PUSH2 0x3012 JUMP JUMPDEST DUP2 GT ISZERO PUSH2 0x2CB9 JUMPI POP PUSH1 0x63 SWAP3 SWAP2 POP POP JUMP JUMPDEST PUSH1 0x0 PUSH1 0x1 PUSH1 0x7 PUSH2 0x2CCA DUP5 PUSH1 0x3 PUSH2 0x3025 JUMP JUMPDEST PUSH1 0x1 SWAP1 SHL PUSH2 0x2CD8 SWAP2 SWAP1 PUSH2 0x2FF0 JUMP JUMPDEST PUSH2 0x2CE2 SWAP2 SWAP1 PUSH2 0x3012 JUMP JUMPDEST PUSH1 0x40 MLOAD PUSH4 0x7AE2B5C7 PUSH1 0xE0 SHL DUP2 MSTORE PUSH1 0x4 DUP2 ADD DUP3 SWAP1 MSTORE PUSH1 0x63 PUSH1 0x24 DUP3 ADD MSTORE SWAP1 SWAP2 POP PUSH20 0x0 SWAP1 PUSH4 0x7AE2B5C7 SWAP1 PUSH1 0x44 ADD PUSH1 0x20 PUSH1 0x40 MLOAD DUP1 DUP4 SUB DUP2 DUP7 GAS DELEGATECALL ISZERO DUP1 ISZERO PUSH2 0x2D3C JUMPI RETURNDATASIZE PUSH1 0x0 DUP1 RETURNDATACOPY RETURNDATASIZE PUSH1 0x0 REVERT JUMPDEST POP POP POP POP PUSH1 0x40 MLOAD RETURNDATASIZE PUSH1 0x1F NOT PUSH1 0x1F DUP3 ADD AND DUP3 ADD DUP1 PUSH1 0x40 MSTORE POP DUP2 ADD SWAP1 PUSH2 0x1AD8 SWAP2 SWAP1 PUSH2 0x317A JUMP JUMPDEST PUSH1 0x0 PUSH1 0x20 DUP3 DUP5 SUB SLT ISZERO PUSH2 0x2D72 JUMPI PUSH1 0x0 DUP1 REVERT JUMPDEST DUP2 CALLDATALOAD PUSH1 0x1 PUSH1 0x1 PUSH1 0xE0 SHL SUB NOT DUP2 AND DUP2 EQ PUSH2 0x2BCC JUMPI PUSH1 0x0 DUP1 REVERT JUMPDEST PUSH1 0x0 PUSH1 0x20 DUP1 DUP4 MSTORE DUP4 MLOAD DUP1 DUP3 DUP6 ADD MSTORE PUSH1 0x0 JUMPDEST DUP2 DUP2 LT ISZERO PUSH2 0x2DB7 JUMPI DUP6 DUP2 ADD DUP4 ADD MLOAD DUP6 DUP3 ADD PUSH1 0x40 ADD MSTORE DUP3 ADD PUSH2 0x2D9B JUMP JUMPDEST POP PUSH1 0x0 PUSH1 0x40 DUP3 DUP7 ADD ADD MSTORE PUSH1 0x40 PUSH1 0x1F NOT PUSH1 0x1F DUP4 ADD AND DUP6 ADD ADD SWAP3 POP POP POP SWAP3 SWAP2 POP POP JUMP JUMPDEST DUP1 CALLDATALOAD PUSH1 0x1 PUSH1 0x1 PUSH1 0xA0 SHL SUB DUP2 AND DUP2 EQ PUSH2 0x2DEF JUMPI PUSH1 0x0 DUP1 REVERT JUMPDEST SWAP2 SWAP1 POP JUMP JUMPDEST PUSH1 0x0 DUP1 PUSH1 0x40 DUP4 DUP6 SUB SLT ISZERO PUSH2 0x2E07 JUMPI PUSH1 0x0 DUP1 REVERT JUMPDEST PUSH2 0x2E10 DUP4 PUSH2 0x2DD8 JUMP JUMPDEST SWAP5 PUSH1 0x20 SWAP4 SWAP1 SWAP4 ADD CALLDATALOAD SWAP4 POP POP POP JUMP JUMPDEST PUSH1 0x0 DUP1 PUSH1 0x0 PUSH1 0x60 DUP5 DUP7 SUB SLT ISZERO PUSH2 0x2E33 JUMPI PUSH1 0x0 DUP1 REVERT JUMPDEST PUSH2 0x2E3C DUP5 PUSH2 0x2DD8 JUMP JUMPDEST SWAP3 POP PUSH2 0x2E4A PUSH1 0x20 DUP6 ADD PUSH2 0x2DD8 JUMP JUMPDEST SWAP2 POP PUSH1 0x40 DUP5 ADD CALLDATALOAD SWAP1 POP SWAP3 POP SWAP3 POP SWAP3 JUMP JUMPDEST PUSH1 0x0 PUSH1 0x20 DUP3 DUP5 SUB SLT ISZERO PUSH2 0x2E6C JUMPI PUSH1 0x0 DUP1 REVERT JUMPDEST PUSH2 0x2BCC DUP3 PUSH2 0x2DD8 JUMP JUMPDEST PUSH1 0x0 DUP1 PUSH1 0x40 DUP4 DUP6 SUB SLT ISZERO PUSH2 0x2E88 JUMPI PUSH1 0x0 DUP1 REVERT JUMPDEST POP POP DUP1 CALLDATALOAD SWAP3 PUSH1 0x20 SWAP1 SWAP2 ADD CALLDATALOAD SWAP2 POP JUMP JUMPDEST PUSH1 0x0 PUSH1 0x20 DUP3 DUP5 SUB SLT ISZERO PUSH2 0x2EA9 JUMPI PUSH1 0x0 DUP1 REVERT JUMPDEST POP CALLDATALOAD SWAP2 SWAP1 POP JUMP JUMPDEST PUSH1 0x0 DUP1 PUSH1 0x0 DUP1 PUSH1 0x80 DUP6 DUP8 SUB SLT ISZERO PUSH2 0x2EC6 JUMPI PUSH1 0x0 DUP1 REVERT JUMPDEST POP POP DUP3 CALLDATALOAD SWAP5 PUSH1 0x20 DUP5 ADD CALLDATALOAD SWAP5 POP PUSH1 0x40 DUP5 ADD CALLDATALOAD SWAP4 PUSH1 0x60 ADD CALLDATALOAD SWAP3 POP SWAP1 POP JUMP JUMPDEST PUSH1 0x0 DUP1 PUSH1 0x40 DUP4 DUP6 SUB SLT ISZERO PUSH2 0x2EF5 JUMPI PUSH1 0x0 DUP1 REVERT JUMPDEST PUSH2 0x2EFE DUP4 PUSH2 0x2DD8 JUMP JUMPDEST SWAP2 POP PUSH2 0x2F0C PUSH1 0x20 DUP5 ADD PUSH2 0x2DD8 JUMP JUMPDEST SWAP1 POP SWAP3 POP SWAP3 SWAP1 POP JUMP JUMPDEST PUSH1 0x1 DUP2 DUP2 SHR SWAP1 DUP3 AND DUP1 PUSH2 0x2F29 JUMPI PUSH1 0x7F DUP3 AND SWAP2 POP JUMPDEST PUSH1 0x20 DUP3 LT DUP2 SUB PUSH2 0x2C85 JUMPI PUSH4 0x4E487B71 PUSH1 0xE0 SHL PUSH1 0x0 MSTORE PUSH1 0x22 PUSH1 0x4 MSTORE PUSH1 0x24 PUSH1 0x0 REVERT JUMPDEST PUSH4 0x4E487B71 PUSH1 0xE0 SHL PUSH1 0x0 MSTORE PUSH1 0x11 PUSH1 0x4 MSTORE PUSH1 0x24 PUSH1 0x0 REVERT JUMPDEST DUP1 DUP3 MUL DUP2 ISZERO DUP3 DUP3 DIV DUP5 EQ OR PUSH2 0x8D4 JUMPI PUSH2 0x8D4 PUSH2 0x2F49 JUMP JUMPDEST PUSH1 0x20 DUP1 DUP3 MSTORE PUSH1 0x15 SWAP1 DUP3 ADD MSTORE PUSH21 0x4352616E6B3A204E6F206D696E7420657869737473 PUSH1 0x58 SHL PUSH1 0x40 DUP3 ADD MSTORE PUSH1 0x60 ADD SWAP1 JUMP JUMPDEST PUSH1 0x20 DUP1 DUP3 MSTORE DUP2 DUP2 ADD MSTORE PUSH32 0x4352616E6B3A204D696E74206D61747572697479206E6F742072656163686564 PUSH1 0x40 DUP3 ADD MSTORE PUSH1 0x60 ADD SWAP1 JUMP JUMPDEST PUSH4 0x4E487B71 PUSH1 0xE0 SHL PUSH1 0x0 MSTORE PUSH1 0x12 PUSH1 0x4 MSTORE PUSH1 0x24 PUSH1 0x0 REVERT JUMPDEST PUSH1 0x0 DUP3 PUSH2 0x300D JUMPI PUSH4 0x4E487B71 PUSH1 0xE0 SHL PUSH1 0x0 MSTORE PUSH1 0x12 PUSH1 0x4 MSTORE PUSH1 0x24 PUSH1 0x0 REVERT JUMPDEST POP DIV SWAP1 JUMP JUMPDEST DUP2 DUP2 SUB DUP2 DUP2 GT ISZERO PUSH2 0x8D4 JUMPI PUSH2 0x8D4 PUSH2 0x2F49 JUMP JUMPDEST DUP1 DUP3 ADD DUP1 DUP3 GT ISZERO PUSH2 0x8D4 JUMPI PUSH2 0x8D4 PUSH2 0x2F49 JUMP JUMPDEST PUSH1 0x0 DUP2 PUSH2 0x3047 JUMPI PUSH2 0x3047 PUSH2 0x2F49 JUMP JUMPDEST POP PUSH1 0x0 NOT ADD SWAP1 JUMP JUMPDEST PUSH1 0x0 PUSH1 0x20 DUP3 DUP5 SUB SLT ISZERO PUSH2 0x3061 JUMPI PUSH1 0x0 DUP1 REVERT JUMPDEST DUP2 MLOAD DUP1 ISZERO ISZERO DUP2 EQ PUSH2 0x2BCC JUMPI PUSH1 0x0 DUP1 REVERT JUMPDEST PUSH1 0x0 PUSH1 0x1 DUP3 ADD PUSH2 0x3083 JUMPI PUSH2 0x3083 PUSH2 0x2F49 JUMP JUMPDEST POP PUSH1 0x1 ADD SWAP1 JUMP JUMPDEST PUSH1 0x1 DUP2 DUP2 JUMPDEST DUP1 DUP6 GT ISZERO PUSH2 0x30C5 JUMPI DUP2 PUSH1 0x0 NOT DIV DUP3 GT ISZERO PUSH2 0x30AB JUMPI PUSH2 0x30AB PUSH2 0x2F49 JUMP JUMPDEST DUP1 DUP6 AND ISZERO PUSH2 0x30B8 JUMPI SWAP2 DUP2 MUL SWAP2 JUMPDEST SWAP4 DUP5 SHR SWAP4 SWAP1 DUP1 MUL SWAP1 PUSH2 0x308F JUMP JUMPDEST POP SWAP3 POP SWAP3 SWAP1 POP JUMP JUMPDEST PUSH1 0x0 DUP3 PUSH2 0x30DC JUMPI POP PUSH1 0x1 PUSH2 0x8D4 JUMP JUMPDEST DUP2 PUSH2 0x30E9 JUMPI POP PUSH1 0x0 PUSH2 0x8D4 JUMP JUMPDEST DUP2 PUSH1 0x1 DUP2 EQ PUSH2 0x30FF JUMPI PUSH1 0x2 DUP2 EQ PUSH2 0x3109 JUMPI PUSH2 0x3125 JUMP JUMPDEST PUSH1 0x1 SWAP2 POP POP PUSH2 0x8D4 JUMP JUMPDEST PUSH1 0xFF DUP5 GT ISZERO PUSH2 0x311A JUMPI PUSH2 0x311A PUSH2 0x2F49 JUMP JUMPDEST POP POP PUSH1 0x1 DUP3 SHL PUSH2 0x8D4 JUMP JUMPDEST POP PUSH1 0x20 DUP4 LT PUSH2 0x133 DUP4 LT AND PUSH1 0x4E DUP5 LT PUSH1 0xB DUP5 LT AND OR ISZERO PUSH2 0x3148 JUMPI POP DUP2 DUP2 EXP PUSH2 0x8D4 JUMP JUMPDEST PUSH2 0x3152 DUP4 DUP4 PUSH2 0x308A JUMP JUMPDEST DUP1 PUSH1 0x0 NOT DIV DUP3 GT ISZERO PUSH2 0x3166 JUMPI PUSH2 0x3166 PUSH2 0x2F49 JUMP JUMPDEST MUL SWAP4 SWAP3 POP POP POP JUMP JUMPDEST PUSH1 0x0 PUSH2 0x2BCC DUP4 DUP4 PUSH2 0x30CD JUMP JUMPDEST PUSH1 0x0 PUSH1 0x20 DUP3 DUP5 SUB SLT ISZERO PUSH2 0x318C JUMPI PUSH1 0x0 DUP1 REVERT JUMPDEST POP MLOAD SWAP2 SWAP1 POP JUMP INVALID POP PUSH6 0x7073204C6162 KECCAK256 BLOCKHASH 0x4D PUSH19 0x4A61636B4C6576696E20406C62656C79616576 KECCAK256 PUSH7 0x61697263727970 PUSH21 0x6F2E6F7267A264697066735822122014C8ACF4E522 CALLVALUE PUSH25 0xE34EE9A64C1C6270EEDDBFDB8F88C7C57D601EE8BF1F7B3C64 PUSH20 0x6F6C634300081200330000000000000000000000 "
		},
		"gasEstimates": {
			"creation": {
				"codeDepositCost": "2558200",
				"executionCost": "infinite",
				"totalCost": "infinite"
			},
			"external": {
				"AUTHORS()": "infinite",
				"DAYS_IN_YEAR()": "287",
				"EAA_PM_START()": "307",
				"EAA_PM_STEP()": "307",
				"EAA_RANK_STEP()": "305",
				"GENESIS_RANK()": "285",
				"GetXENEV(address,uint256)": "infinite",
				"MAX_PENALTY_PCT()": "330",
				"MAX_TERM_BRIDGE()": "2364",
				"MAX_TERM_END()": "429",
				"MAX_TERM_START()": "408",
				"MIN_TERM()": "infinite",
				"REWARD_AMPLIFIER_END()": "285",
				"REWARD_AMPLIFIER_START()": "306",
				"SECONDS_IN_DAY()": "329",
				"TERM_AMPLIFIER()": "264",
				"TERM_AMPLIFIER_THRESHOLD()": "328",
				"WITHDRAWAL_WINDOW_DAYS()": "262",
				"XEN_APY_DAYS_STEP()": "308",
				"XEN_APY_END()": "308",
				"XEN_APY_START()": "327",
				"XEN_MIN_BURN()": "264",
				"XEN_MIN_STAKE()": "329",
				"activeMinters()": "2363",
				"activeStakes()": "2428",
				"allowance(address,address)": "infinite",
				"approve(address,uint256)": "24682",
				"balanceOf(address)": "2651",
				"burn(address,uint256)": "infinite",
				"claimMintReward()": "infinite",
				"claimMintRewardAndShare(address,uint256)": "infinite",
				"claimMintRewardAndStake(uint256,uint256)": "infinite",
				"claimRank(uint256)": "infinite",
				"decimals()": "268",
				"decreaseAllowance(address,uint256)": "27007",
				"genesisTs()": "infinite",
				"getCurrentAMP()": "infinite",
				"getCurrentAPY()": "infinite",
				"getCurrentEAAR()": "infinite",
				"getCurrentMaxTerm()": "infinite",
				"getGrossReward(uint256,uint256,uint256,uint256)": "infinite",
				"getUserMint()": "13520",
				"getUserStake()": "9124",
				"globalRank()": "2430",
				"increaseAllowance(address,uint256)": "27108",
				"name()": "infinite",
				"oldXenBurns(address)": "2630",
				"onTokenBurned(address,uint256)": "383",
				"powerBalances(address)": "2653",
				"powerSacrify(address)": "2586",
				"stake(uint256,uint256)": "infinite",
				"supportsInterface(bytes4)": "496",
				"symbol()": "infinite",
				"totalSupply()": "2405",
				"totalXenStaked()": "2409",
				"transfer(address,uint256)": "51265",
				"transferFrom(address,address,uint256)": "infinite",
				"userBurns(address)": "2608",
				"userMints(address)": "13299",
				"userStakes(address)": "9011",
				"withdraw()": "infinite",
				"xenCrypto()": "infinite"
			},
			"internal": {
				"_calculateAPY()": "infinite",
				"_calculateEAARate()": "infinite",
				"_calculateMaxTerm()": "infinite",
				"_calculateMintReward(uint256,uint256,uint256,uint256,uint256)": "infinite",
				"_calculateRewardAmplifier()": "infinite",
				"_calculateStakeReward(uint256,uint256,uint256,uint256)": "infinite",
				"_cleanUpUserMint()": "73665",
				"_createStake(uint256,uint256)": "infinite",
				"_penalty(uint256)": "infinite",
				"canBridge()": "infinite",
				"pairGlobalRank()": "infinite"
			}
		},
		"methodIdentifiers": {
			"AUTHORS()": "ba3ec741",
			"DAYS_IN_YEAR()": "02378932",
			"EAA_PM_START()": "909a2ff6",
			"EAA_PM_STEP()": "bcfe394f",
			"EAA_RANK_STEP()": "f340faed",
			"GENESIS_RANK()": "1c6f212e",
			"GetXENEV(address,uint256)": "f27a6264",
			"MAX_PENALTY_PCT()": "0f2e1228",
			"MAX_TERM_BRIDGE()": "2a6485a5",
			"MAX_TERM_END()": "c0c65259",
			"MAX_TERM_START()": "0bfae56b",
			"MIN_TERM()": "f0604829",
			"REWARD_AMPLIFIER_END()": "543d3652",
			"REWARD_AMPLIFIER_START()": "e81917b4",
			"SECONDS_IN_DAY()": "61a52a36",
			"TERM_AMPLIFIER()": "72475f94",
			"TERM_AMPLIFIER_THRESHOLD()": "b21d35f2",
			"WITHDRAWAL_WINDOW_DAYS()": "c56f0bab",
			"XEN_APY_DAYS_STEP()": "32870fda",
			"XEN_APY_END()": "7e7aa62e",
			"XEN_APY_START()": "fed74269",
			"XEN_MIN_BURN()": "110d7fc2",
			"XEN_MIN_STAKE()": "2a62d966",
			"activeMinters()": "b4800cdc",
			"activeStakes()": "ed2f2369",
			"allowance(address,address)": "dd62ed3e",
			"approve(address,uint256)": "095ea7b3",
			"balanceOf(address)": "70a08231",
			"burn(address,uint256)": "9dc29fac",
			"claimMintReward()": "52c7f8dc",
			"claimMintRewardAndShare(address,uint256)": "1c560305",
			"claimMintRewardAndStake(uint256,uint256)": "5bccb4c4",
			"claimRank(uint256)": "9ff054df",
			"decimals()": "313ce567",
			"decreaseAllowance(address,uint256)": "a457c2d7",
			"genesisTs()": "e3af6d0a",
			"getCurrentAMP()": "99202454",
			"getCurrentAPY()": "962ca496",
			"getCurrentEAAR()": "8979c87c",
			"getCurrentMaxTerm()": "45125715",
			"getGrossReward(uint256,uint256,uint256,uint256)": "b0fd1fc2",
			"getUserMint()": "7010d7a1",
			"getUserStake()": "16f9c8fd",
			"globalRank()": "1c244082",
			"increaseAllowance(address,uint256)": "39509351",
			"name()": "06fdde03",
			"oldXenBurns(address)": "cf7a8626",
			"onTokenBurned(address,uint256)": "543746b1",
			"powerBalances(address)": "539313b8",
			"powerSacrify(address)": "6a5e0766",
			"stake(uint256,uint256)": "7b0472f0",
			"supportsInterface(bytes4)": "01ffc9a7",
			"symbol()": "95d89b41",
			"totalSupply()": "18160ddd",
			"totalXenStaked()": "069612a5",
			"transfer(address,uint256)": "a9059cbb",
			"transferFrom(address,address,uint256)": "23b872dd",
			"userBurns(address)": "ce653d5f",
			"userMints(address)": "df282331",
			"userStakes(address)": "8da7ad23",
			"withdraw()": "3ccfd60b",
			"xenCrypto()": "71141a58"
		}
	},
	"abi": [
		{
			"inputs": [
				{
					"internalType": "address",
					"name": "XenCrypto_",
					"type": "address"
				}
			],
			"stateMutability": "nonpayable",
			"type": "constructor"
		},
		{
			"anonymous": false,
			"inputs": [
				{
					"indexed": true,
					"internalType": "address",
					"name": "owner",
					"type": "address"
				},
				{
					"indexed": true,
					"internalType": "address",
					"name": "spender",
					"type": "address"
				},
				{
					"indexed": false,
					"internalType": "uint256",
					"name": "value",
					"type": "uint256"
				}
			],
			"name": "Approval",
			"type": "event"
		},
		{
			"anonymous": false,
			"inputs": [
				{
					"indexed": true,
					"internalType": "address",
					"name": "user",
					"type": "address"
				},
				{
					"indexed": false,
					"internalType": "uint256",
					"name": "rewardAmount",
					"type": "uint256"
				}
			],
			"name": "MintClaimed",
			"type": "event"
		},
		{
			"anonymous": false,
			"inputs": [
				{
					"indexed": true,
					"internalType": "address",
					"name": "user",
					"type": "address"
				},
				{
					"indexed": false,
					"internalType": "uint256",
					"name": "term",
					"type": "uint256"
				},
				{
					"indexed": false,
					"internalType": "uint256",
					"name": "rank",
					"type": "uint256"
				}
			],
			"name": "RankClaimed",
			"type": "event"
		},
		{
			"anonymous": false,
			"inputs": [
				{
					"indexed": true,
					"internalType": "address",
					"name": "user",
					"type": "address"
				},
				{
					"indexed": true,
					"internalType": "address",
					"name": "xenContract",
					"type": "address"
				},
				{
					"indexed": true,
					"internalType": "address",
					"name": "tokenContract",
					"type": "address"
				},
				{
					"indexed": false,
					"internalType": "uint256",
					"name": "xenAmount",
					"type": "uint256"
				},
				{
					"indexed": false,
					"internalType": "uint256",
					"name": "tokenAmount",
					"type": "uint256"
				}
			],
			"name": "Redeemed",
			"type": "event"
		},
		{
			"anonymous": false,
			"inputs": [
				{
					"indexed": true,
					"internalType": "address",
					"name": "user",
					"type": "address"
				},
				{
					"indexed": false,
					"internalType": "uint256",
					"name": "amount",
					"type": "uint256"
				},
				{
					"indexed": false,
					"internalType": "uint256",
					"name": "term",
					"type": "uint256"
				}
			],
			"name": "Staked",
			"type": "event"
		},
		{
			"anonymous": false,
			"inputs": [
				{
					"indexed": true,
					"internalType": "address",
					"name": "from",
					"type": "address"
				},
				{
					"indexed": true,
					"internalType": "address",
					"name": "to",
					"type": "address"
				},
				{
					"indexed": false,
					"internalType": "uint256",
					"name": "value",
					"type": "uint256"
				}
			],
			"name": "Transfer",
			"type": "event"
		},
		{
			"anonymous": false,
			"inputs": [
				{
					"indexed": true,
					"internalType": "address",
					"name": "user",
					"type": "address"
				},
				{
					"indexed": false,
					"internalType": "uint256",
					"name": "amount",
					"type": "uint256"
				},
				{
					"indexed": false,
					"internalType": "uint256",
					"name": "reward",
					"type": "uint256"
				}
			],
			"name": "Withdrawn",
			"type": "event"
		},
		{
			"inputs": [],
			"name": "AUTHORS",
			"outputs": [
				{
					"internalType": "string",
					"name": "",
					"type": "string"
				}
			],
			"stateMutability": "view",
			"type": "function"
		},
		{
			"inputs": [],
			"name": "DAYS_IN_YEAR",
			"outputs": [
				{
					"internalType": "uint256",
					"name": "",
					"type": "uint256"
				}
			],
			"stateMutability": "view",
			"type": "function"
		},
		{
			"inputs": [],
			"name": "EAA_PM_START",
			"outputs": [
				{
					"internalType": "uint256",
					"name": "",
					"type": "uint256"
				}
			],
			"stateMutability": "view",
			"type": "function"
		},
		{
			"inputs": [],
			"name": "EAA_PM_STEP",
			"outputs": [
				{
					"internalType": "uint256",
					"name": "",
					"type": "uint256"
				}
			],
			"stateMutability": "view",
			"type": "function"
		},
		{
			"inputs": [],
			"name": "EAA_RANK_STEP",
			"outputs": [
				{
					"internalType": "uint256",
					"name": "",
					"type": "uint256"
				}
			],
			"stateMutability": "view",
			"type": "function"
		},
		{
			"inputs": [],
			"name": "GENESIS_RANK",
			"outputs": [
				{
					"internalType": "uint256",
					"name": "",
					"type": "uint256"
				}
			],
			"stateMutability": "view",
			"type": "function"
		},
		{
			"inputs": [
				{
					"internalType": "address",
					"name": "user",
					"type": "address"
				},
				{
					"internalType": "uint256",
					"name": "amount",
					"type": "uint256"
				}
			],
			"name": "GetXENEV",
			"outputs": [],
			"stateMutability": "nonpayable",
			"type": "function"
		},
		{
			"inputs": [],
			"name": "MAX_PENALTY_PCT",
			"outputs": [
				{
					"internalType": "uint256",
					"name": "",
					"type": "uint256"
				}
			],
			"stateMutability": "view",
			"type": "function"
		},
		{
			"inputs": [],
			"name": "MAX_TERM_BRIDGE",
			"outputs": [
				{
					"internalType": "uint256",
					"name": "",
					"type": "uint256"
				}
			],
			"stateMutability": "view",
			"type": "function"
		},
		{
			"inputs": [],
			"name": "MAX_TERM_END",
			"outputs": [
				{
					"internalType": "uint256",
					"name": "",
					"type": "uint256"
				}
			],
			"stateMutability": "view",
			"type": "function"
		},
		{
			"inputs": [],
			"name": "MAX_TERM_START",
			"outputs": [
				{
					"internalType": "uint256",
					"name": "",
					"type": "uint256"
				}
			],
			"stateMutability": "view",
			"type": "function"
		},
		{
			"inputs": [],
			"name": "MIN_TERM",
			"outputs": [
				{
					"internalType": "uint256",
					"name": "",
					"type": "uint256"
				}
			],
			"stateMutability": "view",
			"type": "function"
		},
		{
			"inputs": [],
			"name": "REWARD_AMPLIFIER_END",
			"outputs": [
				{
					"internalType": "uint256",
					"name": "",
					"type": "uint256"
				}
			],
			"stateMutability": "view",
			"type": "function"
		},
		{
			"inputs": [],
			"name": "REWARD_AMPLIFIER_START",
			"outputs": [
				{
					"internalType": "uint256",
					"name": "",
					"type": "uint256"
				}
			],
			"stateMutability": "view",
			"type": "function"
		},
		{
			"inputs": [],
			"name": "SECONDS_IN_DAY",
			"outputs": [
				{
					"internalType": "uint256",
					"name": "",
					"type": "uint256"
				}
			],
			"stateMutability": "view",
			"type": "function"
		},
		{
			"inputs": [],
			"name": "TERM_AMPLIFIER",
			"outputs": [
				{
					"internalType": "uint256",
					"name": "",
					"type": "uint256"
				}
			],
			"stateMutability": "view",
			"type": "function"
		},
		{
			"inputs": [],
			"name": "TERM_AMPLIFIER_THRESHOLD",
			"outputs": [
				{
					"internalType": "uint256",
					"name": "",
					"type": "uint256"
				}
			],
			"stateMutability": "view",
			"type": "function"
		},
		{
			"inputs": [],
			"name": "WITHDRAWAL_WINDOW_DAYS",
			"outputs": [
				{
					"internalType": "uint256",
					"name": "",
					"type": "uint256"
				}
			],
			"stateMutability": "view",
			"type": "function"
		},
		{
			"inputs": [],
			"name": "XEN_APY_DAYS_STEP",
			"outputs": [
				{
					"internalType": "uint256",
					"name": "",
					"type": "uint256"
				}
			],
			"stateMutability": "view",
			"type": "function"
		},
		{
			"inputs": [],
			"name": "XEN_APY_END",
			"outputs": [
				{
					"internalType": "uint256",
					"name": "",
					"type": "uint256"
				}
			],
			"stateMutability": "view",
			"type": "function"
		},
		{
			"inputs": [],
			"name": "XEN_APY_START",
			"outputs": [
				{
					"internalType": "uint256",
					"name": "",
					"type": "uint256"
				}
			],
			"stateMutability": "view",
			"type": "function"
		},
		{
			"inputs": [],
			"name": "XEN_MIN_BURN",
			"outputs": [
				{
					"internalType": "uint256",
					"name": "",
					"type": "uint256"
				}
			],
			"stateMutability": "view",
			"type": "function"
		},
		{
			"inputs": [],
			"name": "XEN_MIN_STAKE",
			"outputs": [
				{
					"internalType": "uint256",
					"name": "",
					"type": "uint256"
				}
			],
			"stateMutability": "view",
			"type": "function"
		},
		{
			"inputs": [],
			"name": "activeMinters",
			"outputs": [
				{
					"internalType": "uint256",
					"name": "",
					"type": "uint256"
				}
			],
			"stateMutability": "view",
			"type": "function"
		},
		{
			"inputs": [],
			"name": "activeStakes",
			"outputs": [
				{
					"internalType": "uint256",
					"name": "",
					"type": "uint256"
				}
			],
			"stateMutability": "view",
			"type": "function"
		},
		{
			"inputs": [
				{
					"internalType": "address",
					"name": "owner",
					"type": "address"
				},
				{
					"internalType": "address",
					"name": "spender",
					"type": "address"
				}
			],
			"name": "allowance",
			"outputs": [
				{
					"internalType": "uint256",
					"name": "",
					"type": "uint256"
				}
			],
			"stateMutability": "view",
			"type": "function"
		},
		{
			"inputs": [
				{
					"internalType": "address",
					"name": "spender",
					"type": "address"
				},
				{
					"internalType": "uint256",
					"name": "amount",
					"type": "uint256"
				}
			],
			"name": "approve",
			"outputs": [
				{
					"internalType": "bool",
					"name": "",
					"type": "bool"
				}
			],
			"stateMutability": "nonpayable",
			"type": "function"
		},
		{
			"inputs": [
				{
					"internalType": "address",
					"name": "account",
					"type": "address"
				}
			],
			"name": "balanceOf",
			"outputs": [
				{
					"internalType": "uint256",
					"name": "",
					"type": "uint256"
				}
			],
			"stateMutability": "view",
			"type": "function"
		},
		{
			"inputs": [
				{
					"internalType": "address",
					"name": "user",
					"type": "address"
				},
				{
					"internalType": "uint256",
					"name": "amount",
					"type": "uint256"
				}
			],
			"name": "burn",
			"outputs": [],
			"stateMutability": "nonpayable",
			"type": "function"
		},
		{
			"inputs": [],
			"name": "claimMintReward",
			"outputs": [],
			"stateMutability": "nonpayable",
			"type": "function"
		},
		{
			"inputs": [
				{
					"internalType": "address",
					"name": "other",
					"type": "address"
				},
				{
					"internalType": "uint256",
					"name": "pct",
					"type": "uint256"
				}
			],
			"name": "claimMintRewardAndShare",
			"outputs": [],
			"stateMutability": "nonpayable",
			"type": "function"
		},
		{
			"inputs": [
				{
					"internalType": "uint256",
					"name": "pct",
					"type": "uint256"
				},
				{
					"internalType": "uint256",
					"name": "term",
					"type": "uint256"
				}
			],
			"name": "claimMintRewardAndStake",
			"outputs": [],
			"stateMutability": "nonpayable",
			"type": "function"
		},
		{
			"inputs": [
				{
					"internalType": "uint256",
					"name": "term",
					"type": "uint256"
				}
			],
			"name": "claimRank",
			"outputs": [],
			"stateMutability": "nonpayable",
			"type": "function"
		},
		{
			"inputs": [],
			"name": "decimals",
			"outputs": [
				{
					"internalType": "uint8",
					"name": "",
					"type": "uint8"
				}
			],
			"stateMutability": "view",
			"type": "function"
		},
		{
			"inputs": [
				{
					"internalType": "address",
					"name": "spender",
					"type": "address"
				},
				{
					"internalType": "uint256",
					"name": "subtractedValue",
					"type": "uint256"
				}
			],
			"name": "decreaseAllowance",
			"outputs": [
				{
					"internalType": "bool",
					"name": "",
					"type": "bool"
				}
			],
			"stateMutability": "nonpayable",
			"type": "function"
		},
		{
			"inputs": [],
			"name": "genesisTs",
			"outputs": [
				{
					"internalType": "uint256",
					"name": "",
					"type": "uint256"
				}
			],
			"stateMutability": "view",
			"type": "function"
		},
		{
			"inputs": [],
			"name": "getCurrentAMP",
			"outputs": [
				{
					"internalType": "uint256",
					"name": "",
					"type": "uint256"
				}
			],
			"stateMutability": "view",
			"type": "function"
		},
		{
			"inputs": [],
			"name": "getCurrentAPY",
			"outputs": [
				{
					"internalType": "uint256",
					"name": "",
					"type": "uint256"
				}
			],
			"stateMutability": "view",
			"type": "function"
		},
		{
			"inputs": [],
			"name": "getCurrentEAAR",
			"outputs": [
				{
					"internalType": "uint256",
					"name": "",
					"type": "uint256"
				}
			],
			"stateMutability": "view",
			"type": "function"
		},
		{
			"inputs": [],
			"name": "getCurrentMaxTerm",
			"outputs": [
				{
					"internalType": "uint256",
					"name": "",
					"type": "uint256"
				}
			],
			"stateMutability": "view",
			"type": "function"
		},
		{
			"inputs": [
				{
					"internalType": "uint256",
					"name": "rankDelta",
					"type": "uint256"
				},
				{
					"internalType": "uint256",
					"name": "amplifier",
					"type": "uint256"
				},
				{
					"internalType": "uint256",
					"name": "term",
					"type": "uint256"
				},
				{
					"internalType": "uint256",
					"name": "eaa",
					"type": "uint256"
				}
			],
			"name": "getGrossReward",
			"outputs": [
				{
					"internalType": "uint256",
					"name": "",
					"type": "uint256"
				}
			],
			"stateMutability": "pure",
			"type": "function"
		},
		{
			"inputs": [],
			"name": "getUserMint",
			"outputs": [
				{
					"components": [
						{
							"internalType": "address",
							"name": "user",
							"type": "address"
						},
						{
							"internalType": "uint256",
							"name": "term",
							"type": "uint256"
						},
						{
							"internalType": "uint256",
							"name": "maturityTs",
							"type": "uint256"
						},
						{
							"internalType": "uint256",
							"name": "rank",
							"type": "uint256"
						},
						{
							"internalType": "uint256",
							"name": "amplifier",
							"type": "uint256"
						},
						{
							"internalType": "uint256",
							"name": "eaaRate",
							"type": "uint256"
						}
					],
					"internalType": "struct XENEVCrypto.MintInfo",
					"name": "",
					"type": "tuple"
				}
			],
			"stateMutability": "view",
			"type": "function"
		},
		{
			"inputs": [],
			"name": "getUserStake",
			"outputs": [
				{
					"components": [
						{
							"internalType": "uint256",
							"name": "term",
							"type": "uint256"
						},
						{
							"internalType": "uint256",
							"name": "maturityTs",
							"type": "uint256"
						},
						{
							"internalType": "uint256",
							"name": "amount",
							"type": "uint256"
						},
						{
							"internalType": "uint256",
							"name": "apy",
							"type": "uint256"
						}
					],
					"internalType": "struct XENEVCrypto.StakeInfo",
					"name": "",
					"type": "tuple"
				}
			],
			"stateMutability": "view",
			"type": "function"
		},
		{
			"inputs": [],
			"name": "globalRank",
			"outputs": [
				{
					"internalType": "uint256",
					"name": "",
					"type": "uint256"
				}
			],
			"stateMutability": "view",
			"type": "function"
		},
		{
			"inputs": [
				{
					"internalType": "address",
					"name": "spender",
					"type": "address"
				},
				{
					"internalType": "uint256",
					"name": "addedValue",
					"type": "uint256"
				}
			],
			"name": "increaseAllowance",
			"outputs": [
				{
					"internalType": "bool",
					"name": "",
					"type": "bool"
				}
			],
			"stateMutability": "nonpayable",
			"type": "function"
		},
		{
			"inputs": [],
			"name": "name",
			"outputs": [
				{
					"internalType": "string",
					"name": "",
					"type": "string"
				}
			],
			"stateMutability": "view",
			"type": "function"
		},
		{
			"inputs": [
				{
					"internalType": "address",
					"name": "",
					"type": "address"
				}
			],
			"name": "oldXenBurns",
			"outputs": [
				{
					"internalType": "uint256",
					"name": "",
					"type": "uint256"
				}
			],
			"stateMutability": "view",
			"type": "function"
		},
		{
			"inputs": [
				{
					"internalType": "address",
					"name": "user",
					"type": "address"
				},
				{
					"internalType": "uint256",
					"name": "amount",
					"type": "uint256"
				}
			],
			"name": "onTokenBurned",
			"outputs": [],
			"stateMutability": "nonpayable",
			"type": "function"
		},
		{
			"inputs": [
				{
					"internalType": "address",
					"name": "",
					"type": "address"
				}
			],
			"name": "powerBalances",
			"outputs": [
				{
					"internalType": "uint256",
					"name": "",
					"type": "uint256"
				}
			],
			"stateMutability": "view",
			"type": "function"
		},
		{
			"inputs": [
				{
					"internalType": "address",
					"name": "",
					"type": "address"
				}
			],
			"name": "powerSacrify",
			"outputs": [
				{
					"internalType": "uint256",
					"name": "",
					"type": "uint256"
				}
			],
			"stateMutability": "view",
			"type": "function"
		},
		{
			"inputs": [
				{
					"internalType": "uint256",
					"name": "amount",
					"type": "uint256"
				},
				{
					"internalType": "uint256",
					"name": "term",
					"type": "uint256"
				}
			],
			"name": "stake",
			"outputs": [],
			"stateMutability": "nonpayable",
			"type": "function"
		},
		{
			"inputs": [
				{
					"internalType": "bytes4",
					"name": "interfaceId",
					"type": "bytes4"
				}
			],
			"name": "supportsInterface",
			"outputs": [
				{
					"internalType": "bool",
					"name": "",
					"type": "bool"
				}
			],
			"stateMutability": "view",
			"type": "function"
		},
		{
			"inputs": [],
			"name": "symbol",
			"outputs": [
				{
					"internalType": "string",
					"name": "",
					"type": "string"
				}
			],
			"stateMutability": "view",
			"type": "function"
		},
		{
			"inputs": [],
			"name": "totalSupply",
			"outputs": [
				{
					"internalType": "uint256",
					"name": "",
					"type": "uint256"
				}
			],
			"stateMutability": "view",
			"type": "function"
		},
		{
			"inputs": [],
			"name": "totalXenStaked",
			"outputs": [
				{
					"internalType": "uint256",
					"name": "",
					"type": "uint256"
				}
			],
			"stateMutability": "view",
			"type": "function"
		},
		{
			"inputs": [
				{
					"internalType": "address",
					"name": "to",
					"type": "address"
				},
				{
					"internalType": "uint256",
					"name": "amount",
					"type": "uint256"
				}
			],
			"name": "transfer",
			"outputs": [
				{
					"internalType": "bool",
					"name": "",
					"type": "bool"
				}
			],
			"stateMutability": "nonpayable",
			"type": "function"
		},
		{
			"inputs": [
				{
					"internalType": "address",
					"name": "from",
					"type": "address"
				},
				{
					"internalType": "address",
					"name": "to",
					"type": "address"
				},
				{
					"internalType": "uint256",
					"name": "amount",
					"type": "uint256"
				}
			],
			"name": "transferFrom",
			"outputs": [
				{
					"internalType": "bool",
					"name": "",
					"type": "bool"
				}
			],
			"stateMutability": "nonpayable",
			"type": "function"
		},
		{
			"inputs": [
				{
					"internalType": "address",
					"name": "",
					"type": "address"
				}
			],
			"name": "userBurns",
			"outputs": [
				{
					"internalType": "uint256",
					"name": "",
					"type": "uint256"
				}
			],
			"stateMutability": "view",
			"type": "function"
		},
		{
			"inputs": [
				{
					"internalType": "address",
					"name": "",
					"type": "address"
				}
			],
			"name": "userMints",
			"outputs": [
				{
					"internalType": "address",
					"name": "user",
					"type": "address"
				},
				{
					"internalType": "uint256",
					"name": "term",
					"type": "uint256"
				},
				{
					"internalType": "uint256",
					"name": "maturityTs",
					"type": "uint256"
				},
				{
					"internalType": "uint256",
					"name": "rank",
					"type": "uint256"
				},
				{
					"internalType": "uint256",
					"name": "amplifier",
					"type": "uint256"
				},
				{
					"internalType": "uint256",
					"name": "eaaRate",
					"type": "uint256"
				}
			],
			"stateMutability": "view",
			"type": "function"
		},
		{
			"inputs": [
				{
					"internalType": "address",
					"name": "",
					"type": "address"
				}
			],
			"name": "userStakes",
			"outputs": [
				{
					"internalType": "uint256",
					"name": "term",
					"type": "uint256"
				},
				{
					"internalType": "uint256",
					"name": "maturityTs",
					"type": "uint256"
				},
				{
					"internalType": "uint256",
					"name": "amount",
					"type": "uint256"
				},
				{
					"internalType": "uint256",
					"name": "apy",
					"type": "uint256"
				}
			],
			"stateMutability": "view",
			"type": "function"
		},
		{
			"inputs": [],
			"name": "withdraw",
			"outputs": [],
			"stateMutability": "nonpayable",
			"type": "function"
		},
		{
			"inputs": [],
			"name": "xenCrypto",
			"outputs": [
				{
					"internalType": "contract XENCrypto",
					"name": "",
					"type": "address"
				}
			],
			"stateMutability": "view",
			"type": "function"
		}
	]
}