{
	"data": {
		"bytecode": {
			"linkReferences": {
				"XENIUM/Math.sol": {
					"Math": [
						{
							"length": 20,
							"start": 10904
						},
						{
							"length": 20,
							"start": 12607
						},
						{
							"length": 20,
							"start": 13182
						},
						{
							"length": 20,
							"start": 14035
						}
					]
				}
			},
			"object": "60c0604052620000156201518061012c6200021a565b60055560016006553480156200002a57600080fd5b5060405162003c8538038062003c858339810160408190526200004d916200023a565b6040518060400160405280601081526020016f58454e2043727970746f28544553542960801b8152506040518060400160405280600481526020016358454e4d60e01b8152508160039081620000a4919062000311565b506004620000b3828262000311565b5050506001600160a01b038116620000ff5760405162461bcd60e51b815260206004820152600b60248201526a626164206164647265737360a81b604482015260640160405180910390fd5b6001600160a01b03811660a081905260408051630e12204160e11b81529051631c244082916004808201926020929091908290030181865afa1580156200014a573d6000803e3d6000fd5b505050506040513d601f19601f82011682018060405250810190620001709190620003dd565b6006556200018362015180603c6200021a565b60a0516001600160a01b031663451257156040518163ffffffff1660e01b8152600401602060405180830381865afa158015620001c4573d6000803e3d6000fd5b505050506040513d601f19601f82011682018060405250810190620001ea9190620003dd565b620001f69190620003f7565b60055550426080526200040d565b634e487b7160e01b600052601160045260246000fd5b808202811582820484141762000234576200023462000204565b92915050565b6000602082840312156200024d57600080fd5b81516001600160a01b03811681146200026557600080fd5b9392505050565b634e487b7160e01b600052604160045260246000fd5b600181811c908216806200029757607f821691505b602082108103620002b857634e487b7160e01b600052602260045260246000fd5b50919050565b601f8211156200030c57600081815260208120601f850160051c81016020861015620002e75750805b601f850160051c820191505b818110156200030857828155600101620002f3565b5050505b505050565b81516001600160401b038111156200032d576200032d6200026c565b62000345816200033e845462000282565b84620002be565b602080601f8311600181146200037d5760008415620003645750858301515b600019600386901b1c1916600185901b17855562000308565b600085815260208120601f198616915b82811015620003ae578886015182559484019460019091019084016200038d565b5085821015620003cd5787850151600019600388901b60f8161c191681555b5050505050600190811b01905550565b600060208284031215620003f057600080fd5b5051919050565b8082018082111562000234576200023462000204565b60805160a0516138216200046460003960008181610673015281816111a401528181611287015281816113890152612fb10152600081816108d801528181612c3a01528181612e7a0152612edd01526138216000f3fe608060405234801561001057600080fd5b50600436106103f15760003560e01c806371141a5811610215578063b4800cdc11610125578063dd62ed3e116100b8578063ed2f236911610087578063ed2f236914610903578063f029093e1461090c578063f060482914610915578063f340faed1461091d578063fed742691461092757600080fd5b8063dd62ed3e1461083c578063df2823311461084f578063e3af6d0a146108d3578063e81917b4146108fa57600080fd5b8063c56f0bab116100f4578063c56f0bab146107e1578063ce653d5f146107e9578063cf7a862614610809578063d3fe46891461082957600080fd5b8063b4800cdc146107c8578063ba3ec741146107d1578063bcfe394f146104cc578063c0c65259146107d957600080fd5b806395d89b41116101a85780639ff054df116101775780639ff054df14610773578063a457c2d714610786578063a9059cbb14610799578063b0fd1fc2146107ac578063b21d35f2146107bf57600080fd5b806395d89b4114610748578063962ca4961461075057806399202454146107585780639dc29fac1461076057600080fd5b80638979c87c116101e45780638979c87c146106d05780638da5cb5b146106d85780638da7ad23146106eb578063909a2ff61461074057600080fd5b806371141a581461066e57806372475f94146106ad5780637b0472f0146106b55780637e7aa62e146106c857600080fd5b8063313ce56711610310578063539313b8116102a35780635bccb4c4116102725780635bccb4c4146105b057806361a52a36146105c35780636a5e0766146105cd5780637010d7a1146105ed57806370a082311461064557600080fd5b8063539313b81461056b578063543746b11461058b578063543d3652146104cc578063583b912c1461059d57600080fd5b80633ccfd60b116102df5780633ccfd60b1461054057806344e6cf3814610548578063451257151461055b57806352c7f8dc1461056357600080fd5b8063313ce5671461050357806331b9e85d1461051257806332870fda14610525578063395093511461052d57600080fd5b806318160ddd1161038857806323b872dd1161035757806323b872dd146104d45780632a62d966146104635780632a6485a5146104e7578063310caf2d146104f057600080fd5b806318160ddd146104a65780631c244082146104ae5780631c560305146104b75780631c6f212e146104cc57600080fd5b80630bfae56b116103c45780630bfae56b146104535780630f2e12281461045b578063110d7fc21461046357806316f9c8fd1461046b57600080fd5b806302378932146103f6578063069612a51461041257806306fdde031461041b578063095ea7b314610430575b600080fd5b6103ff61016d81565b6040519081526020015b60405180910390f35b6103ff60095481565b61042361092f565b60405161040991906132cd565b61044361043e366004613337565b6109c1565b6040519015158152602001610409565b6103ff6109db565b6103ff606381565b6103ff600081565b6104736109ec565b60405161040991908151815260208083015190820152604080830151908201526060918201519181019190915260800190565b6002546103ff565b6103ff60065481565b6104ca6104c5366004613337565b610a5d565b005b6103ff600181565b6104436104e2366004613361565b610cbe565b6103ff60055481565b6104ca6104fe366004613361565b610ce2565b60405160128152602001610409565b6104ca610520366004613337565b610e1a565b6103ff605a81565b61044361053b366004613337565b610f4f565b6104ca610f71565b6104ca610556366004613337565b6110c7565b6103ff611477565b6104ca611486565b6103ff61057936600461339d565b600e6020526000908152604090205481565b6104ca610599366004613337565b5050565b6104ca6105ab366004613361565b6115a9565b6104ca6105be3660046133b8565b61172c565b6103ff6201518081565b6103ff6105db36600461339d565b600f6020526000908152604090205481565b6105f5611a83565b604051610409919081516001600160a01b031681526020808301519082015260408083015190820152606080830151908201526080808301519082015260a0918201519181019190915260c00190565b6103ff61065336600461339d565b6001600160a01b031660009081526020819052604090205490565b6106957f000000000000000000000000000000000000000000000000000000000000000081565b6040516001600160a01b039091168152602001610409565b6103ff600f81565b6104ca6106c33660046133b8565b611b28565b6103ff600281565b6103ff611d46565b601054610695906001600160a01b031681565b6107206106f936600461339d565b600b6020526000908152604090208054600182015460028301546003909301549192909184565b604080519485526020850193909352918301526060820152608001610409565b6103ff606481565b610423611d50565b6103ff611d5f565b6103ff611d69565b6104ca61076e366004613337565b611d73565b6104ca6107813660046133da565b611f63565b610443610794366004613337565b6121e4565b6104436107a7366004613337565b61225f565b6103ff6107ba3660046133f3565b61226d565b6103ff61138881565b6103ff60075481565b6104236122fd565b6103ff612319565b6103ff600781565b6103ff6107f736600461339d565b600c6020526000908152604090205481565b6103ff61081736600461339d565b600d6020526000908152604090205481565b6104ca610837366004613337565b612328565b6103ff61084a366004613425565b6124ab565b61089c61085d36600461339d565b600a602052600090815260409020805460018201546002830154600384015460048501546005909501546001600160a01b039094169492939192909186565b604080516001600160a01b0390971687526020870195909552938501929092526060840152608083015260a082015260c001610409565b6103ff7f000000000000000000000000000000000000000000000000000000000000000081565b6103ff61012c81565b6103ff60085481565b6103ff61271081565b6103ff6124d6565b6103ff620186a081565b6103ff601481565b60606003805461093e90613458565b80601f016020809104026020016040519081016040528092919081815260200182805461096a90613458565b80156109b75780601f1061098c576101008083540402835291602001916109b7565b820191906000526020600020905b81548152906001019060200180831161099a57829003601f168201915b5050505050905090565b6000336109cf8185856124ef565b60019150505b92915050565b6109e96201518060646134a2565b81565b610a176040518060800160405280600081526020016000815260200160008152602001600081525090565b50336000908152600b6020908152604091829020825160808101845281548152600182015492810192909252600281015492820192909252600390910154606082015290565b336000908152600a6020908152604091829020825160c08101845281546001600160a01b03908116825260018301549382019390935260028201549381019390935260038101546060840152600481015460808401526005015460a08301528316610b1d5760405162461bcd60e51b815260206004820152602560248201527f4352616e6b3a2043616e6e6f742073686172652077697468207a65726f206164604482015264647265737360d81b60648201526084015b60405180910390fd5b60008211610b6d5760405162461bcd60e51b815260206004820181905260248201527f4352616e6b3a2043616e6e6f74207368617265207a65726f2070657263656e746044820152606401610b14565b60658210610bbd5760405162461bcd60e51b815260206004820181905260248201527f4352616e6b3a2043616e6e6f74207368617265203130302b2070657263656e746044820152606401610b14565b6000816060015111610be15760405162461bcd60e51b8152600401610b14906134b9565b80604001514211610c045760405162461bcd60e51b8152600401610b14906134e8565b6000610c2782606001518360200151846040015185608001518660a00151612614565b610c3990670de0b6b3a76400006134a2565b905060006064610c4985846134a2565b610c539190613533565b90506000610c618284613547565b9050610c6e335b82612712565b610c788683612712565b610c806127f1565b60405183815233907fd74752b13281df13701575f3a507e9b1242e0b5fb040143211c481c1fce573a6906020015b60405180910390a2505050505050565b600033610ccc858285612845565b610cd78585856128bf565b506001949350505050565b326001600160a01b03841614610d0a5760405162461bcd60e51b8152600401610b149061355a565b610d1661271082613580565b15610d335760405162461bcd60e51b8152600401610b1490613594565b6001600160a01b038316610d595760405162461bcd60e51b8152600401610b14906135de565b60008111610d795760405162461bcd60e51b8152600401610b1490613620565b6000610d8761271083613533565b90506000610d976012600a613733565b610da190846134a2565b9050610daf85335b83612845565b610db98582612a8d565b6001600160a01b0385166000908152600c602052604081208054859290610de190849061373f565b90915550506001600160a01b0384166000908152600e602052604081208054849290610e0e90849061373f565b90915550505050505050565b326001600160a01b03831614610e425760405162461bcd60e51b8152600401610b149061355a565b610e4e61271082613580565b15610e6b5760405162461bcd60e51b8152600401610b1490613594565b6001600160a01b038216610e915760405162461bcd60e51b8152600401610b14906135de565b60008111610eb15760405162461bcd60e51b8152600401610b1490613620565b6000610ebf61271083613533565b90506000610ecf6012600a613733565b610ed990846134a2565b9050610ee58433610da9565b610eef8482612a8d565b6001600160a01b0384166000908152600c602052604081208054859290610f1790849061373f565b90915550506001600160a01b0384166000908152600e602052604081208054849290610f4490849061373f565b909155505050505050565b6000336109cf818585610f6283836124ab565b610f6c919061373f565b6124ef565b336000908152600b6020908152604091829020825160808101845281548152600182015492810192909252600281015492820183905260030154606082015290610ff65760405162461bcd60e51b815260206004820152601660248201527558454e45573a206e6f207374616b652065786973747360501b6044820152606401610b14565b60006110148260400151836000015184602001518560600151612bd3565b60088054919250600061102683613752565b91905055508160400151600960008282546110419190613547565b9091555061106090503382846040015161105b919061373f565b612712565b60408083015181519081526020810183905233917f92ccf450a286a957af52509bc1c9939d1a6a481783e142e41e2499f0bb66ebc6910160405180910390a25050336000908152600b60205260408120818155600181018290556002810182905560030155565b60006110d1612c31565b905060018115151461111e5760405162461bcd60e51b8152602060048201526016602482015275496e76616c69642074696d6520746f2062726964676560501b6044820152606401610b14565b326001600160a01b038416146111465760405162461bcd60e51b8152600401610b149061355a565b6001600160a01b03831661116c5760405162461bcd60e51b8152600401610b14906135de565b6000821161118c5760405162461bcd60e51b8152600401610b1490613620565b6040516370a0823160e01b81523360048201526000907f00000000000000000000000000000000000000000000000000000000000000006001600160a01b0316906370a0823190602401602060405180830381865afa1580156111f3573d6000803e3d6000fd5b505050506040513d601f19601f820116820180604052508101906112179190613769565b9050600081116112695760405162461bcd60e51b815260206004820152601e60248201527f58454e49554d3a206e6f7420656e6f7567682058454e2062616c616e636500006044820152606401610b14565b604051636eb1769f60e11b81523360048201523060248201526000907f00000000000000000000000000000000000000000000000000000000000000006001600160a01b03169063dd62ed3e90604401602060405180830381865afa1580156112d6573d6000803e3d6000fd5b505050506040513d601f19601f820116820180604052508101906112fa9190613769565b9050838110156113655760405162461bcd60e51b815260206004820152603060248201527f58454e49554d3a206e6f7420656e6f7567682058454e2062616c616e6365206160448201526f38383937bb32b2103337b910313ab93760811b6064820152608401610b14565b60006113736012600a613733565b61137d90866134a2565b90506001600160a01b037f000000000000000000000000000000000000000000000000000000000000000016639dc29fac336040516001600160e01b031960e084901b1681526001600160a01b03909116600482015260248101849052604401600060405180830381600087803b1580156113f757600080fd5b505af115801561140b573d6000803e3d6000fd5b505050506001600160a01b0386166000908152600d60205260408120805487929061143790849061373f565b909155506000905061144a600a87613533565b90506114586012600a613733565b61146290826134a2565b915061146e3383612712565b50505050505050565b6000611481612c76565b905090565b336000908152600a6020908152604091829020825160c08101845281546001600160a01b031681526001820154928101929092526002810154928201929092526003820154606082018190526004830154608083015260059092015460a0820152906115045760405162461bcd60e51b8152600401610b14906134b9565b806040015142116115275760405162461bcd60e51b8152600401610b14906134e8565b600061154a82606001518360200151846040015185608001518660a00151612614565b61155c90670de0b6b3a76400006134a2565b905061156733610c68565b61156f6127f1565b60405181815233907fd74752b13281df13701575f3a507e9b1242e0b5fb040143211c481c1fce573a6906020015b60405180910390a25050565b326001600160a01b038416146115d15760405162461bcd60e51b8152600401610b149061355a565b6001600160a01b0383166115f75760405162461bcd60e51b8152600401610b14906135de565b600081116116175760405162461bcd60e51b8152600401610b1490613620565b6001600160a01b0383166000908152600e602052604090205481111561166c5760405162461bcd60e51b815260206004820152600a6024820152692732b2b2102837bbb2b960b11b6044820152606401610b14565b600061167a826103e86134a2565b9050600061168a6012600a613733565b61169490836134a2565b90506116a08533610da9565b6116aa8582612a8d565b6001600160a01b0385166000908152600c6020526040812080548492906116d290849061373f565b90915550506001600160a01b0384166000908152600e6020526040812080548592906116ff90849061373f565b90915550506001600160a01b0385166000908152600e602052604081208054859290610e0e908490613547565b336000908152600a6020908152604091829020825160c08101845281546001600160a01b03168152600182015492810192909252600281015492820192909252600382015460608201526004820154608082015260059091015460a0820152606583106117db5760405162461bcd60e51b815260206004820181905260248201527f4352616e6b3a2043616e6e6f74207368617265203e3130302070657263656e746044820152606401610b14565b60008160600151116117ff5760405162461bcd60e51b8152600401610b14906134b9565b806040015142116118225760405162461bcd60e51b8152600401610b14906134e8565b600061184582606001518360200151846040015185608001518660a00151612614565b61185790670de0b6b3a76400006134a2565b90506000606461186786846134a2565b6118719190613533565b9050600061187f8284613547565b905061188a33610c68565b6118926127f1565b60405183815233907fd74752b13281df13701575f3a507e9b1242e0b5fb040143211c481c1fce573a69060200160405180910390a26000821161190e5760405162461bcd60e51b81526020600482015260146024820152735445583a2042656c6f77206d696e207374616b6560601b6044820152606401610b14565b600161191d62015180826134a2565b6119279190613547565b61193462015180876134a2565b1161197d5760405162461bcd60e51b81526020600482015260196024820152785445583a2042656c6f77206d696e207374616b65207465726d60381b6044820152606401610b14565b61198c620151806103e86134a2565b61199790600161373f565b6119a462015180876134a2565b106119ed5760405162461bcd60e51b81526020600482015260196024820152785445583a2041626f7665206d6178207374616b65207465726d60381b6044820152606401610b14565b336000908152600b602052604090206002015415611a415760405162461bcd60e51b81526020600482015260116024820152705445583a207374616b652065786973747360781b6044820152606401610b14565b611a4b8286612d7d565b604080518381526020810187905233917f1449c6dd7851abc30abf37f57715f492010519147cc2652fbc38202c18a6ee909101610cae565b611ac56040518060c0016040528060006001600160a01b0316815260200160008152602001600081526020016000815260200160008152602001600081525090565b50336000908152600a6020908152604091829020825160c08101845281546001600160a01b03168152600182015492810192909252600281015492820192909252600382015460608201526004820154608082015260059091015460a082015290565b81611b3233610653565b1015611b805760405162461bcd60e51b815260206004820152601760248201527f5445583a206e6f7420656e6f7567682062616c616e63650000000000000000006044820152606401610b14565b60008211611bc75760405162461bcd60e51b81526020600482015260146024820152735445583a2042656c6f77206d696e207374616b6560601b6044820152606401610b14565b6001611bd662015180826134a2565b611be09190613547565b611bed62015180836134a2565b11611c365760405162461bcd60e51b81526020600482015260196024820152785445583a2042656c6f77206d696e207374616b65207465726d60381b6044820152606401610b14565b611c45620151806103e86134a2565b611c5090600161373f565b611c5d62015180836134a2565b10611ca65760405162461bcd60e51b81526020600482015260196024820152785445583a2041626f7665206d6178207374616b65207465726d60381b6044820152606401610b14565b336000908152600b602052604090206002015415611cfa5760405162461bcd60e51b81526020600482015260116024820152705445583a207374616b652065786973747360781b6044820152606401610b14565b611d043383612a8d565b611d0e8282612d7d565b604080518381526020810183905233917f1449c6dd7851abc30abf37f57715f492010519147cc2652fbc38202c18a6ee90910161159d565b6000611481612e20565b60606004805461093e90613458565b6000611481612e64565b6000611481612ed1565b60008111611d935760405162461bcd60e51b8152600401610b1490613620565b336040516301ffc9a760e01b815263543746b160e01b60048201526001600160a01b0391909116906301ffc9a790602401602060405180830381865afa158015611de1573d6000803e3d6000fd5b505050506040513d601f19601f82011682018060405250810190611e059190613782565b611e515760405162461bcd60e51b815260206004820152601e60248201527f4275726e3a206e6f74206120737570706f7274656420636f6e747261637400006044820152606401610b14565b6000611e5f6012600a613733565b611e6990836134a2565b9050611e758333610da9565b611e7f8382612a8d565b6001600160a01b0383166000908152600c602052604081208054849290611ea790849061373f565b90915550611eb9905061271083613580565b600003611f02576000611ece61271084613533565b6001600160a01b0385166000908152600e6020526040812080549293508392909190611efb90849061373f565b9091555050505b3360405163543746b160e01b81526001600160a01b03858116600483015260248201849052919091169063543746b190604401600060405180830381600087803b158015611f4f57600080fd5b505af115801561146e573d6000803e3d6000fd5b611f6b612fad565b6000611f7a62015180836134a2565b90506001611f8b62015180826134a2565b611f959190613547565b8111611fe35760405162461bcd60e51b815260206004820152601960248201527f4352616e6b3a205465726d206c657373207468616e206d696e000000000000006044820152606401610b14565b611feb612c76565b611ff690600161373f565b81106120535760405162461bcd60e51b815260206004820152602660248201527f4352616e6b3a205465726d206d6f7265207468616e2063757272656e74206d6160448201526578207465726d60d01b6064820152608401610b14565b336000908152600a6020526040902060030154156120b35760405162461bcd60e51b815260206004820152601f60248201527f4352616e6b3a204d696e7420616c726561647920696e2070726f6772657373006044820152606401610b14565b60006040518060c001604052806120c73390565b6001600160a01b03168152602081018590526040016120e6844261373f565b815260200160065481526020016120fb612ed1565b8152602001612108612e20565b9052336000908152600a60209081526040808320845181546001600160a01b0319166001600160a01b039091161781559184015160018301558301516002820155606083015160038201556080830151600482015560a08301516005909101556007805492935090612179836137a4565b91905055506121853390565b6001600160a01b03167fe9149e1b5059238baed02fa659dbf4bd932fbcf760a431330df4d934bc942f3784600660008154809291906121c3906137a4565b909155506040805192835260208301919091520160405180910390a2505050565b600033816121f282866124ab565b9050838110156122525760405162461bcd60e51b815260206004820152602560248201527f45524332303a2064656372656173656420616c6c6f77616e63652062656c6f77604482015264207a65726f60d81b6064820152608401610b14565b610cd782868684036124ef565b6000336109cf8185856128bf565b60008061228461227c87613045565b600f0b613063565b905060006122c061229485613045565b6122b76122a088613045565b6122b76122ac8b613045565b600f88900b90613147565b600f0b90613147565b90506122e66122de6122d36103e8613045565b600f84900b90613185565b600f0b6131dc565b67ffffffffffffffff16925050505b949350505050565b6040518060600160405280602e81526020016137be602e913981565b6109e9620151806103e86134a2565b326001600160a01b038316146123505760405162461bcd60e51b8152600401610b149061355a565b6001600160a01b0382166123765760405162461bcd60e51b8152600401610b14906135de565b600081116123965760405162461bcd60e51b8152600401610b1490613620565b6001600160a01b0382166000908152600e60205260409020548111156123eb5760405162461bcd60e51b815260206004820152600a6024820152692732b2b2102837bbb2b960b11b6044820152606401610b14565b60006123f9826103e86134a2565b905060006124096012600a613733565b61241390836134a2565b905061241f8433610da9565b6124298482612a8d565b6001600160a01b0384166000908152600c60205260408120805484929061245190849061373f565b90915550506001600160a01b0384166000908152600e60205260408120805485929061247e908490613547565b90915550506001600160a01b0384166000908152600f602052604081208054859290610f4490849061373f565b6001600160a01b03918216600090815260016020908152604080832093909416825291909152205490565b60016124e562015180826134a2565b6109e99190613547565b6001600160a01b0383166125515760405162461bcd60e51b8152602060048201526024808201527f45524332303a20617070726f76652066726f6d20746865207a65726f206164646044820152637265737360e01b6064820152608401610b14565b6001600160a01b0382166125b25760405162461bcd60e51b815260206004820152602260248201527f45524332303a20617070726f766520746f20746865207a65726f206164647265604482015261737360f01b6064820152608401610b14565b6001600160a01b0383811660008181526001602090815260408083209487168084529482529182902085905590518481527f8c5be1e5ebec7d5bd14f71427d1e84f3dd0314c0f7b2291e5b200ac8c7c3b92591015b60405180910390a3505050565b6000806126218542613547565b9050600061262e826131f8565b9050600073__$16c37ee633210877eaced9daf60cfcca02$__636d5433e68a60065461265a9190613547565b6040516001600160e01b031960e084901b168152600481019190915260026024820152604401602060405180830381865af415801561269d573d6000803e3d6000fd5b505050506040513d601f19601f820116820180604052508101906126c19190613769565b905060006126d1866103e861373f565b905060006126e183898c8561226d565b905060646126ef8582613547565b6126f990836134a2565b6127039190613533565b9b9a5050505050505050505050565b6001600160a01b0382166127685760405162461bcd60e51b815260206004820152601f60248201527f45524332303a206d696e7420746f20746865207a65726f2061646472657373006044820152606401610b14565b806002600082825461277a919061373f565b90915550506001600160a01b038216600090815260208190526040812080548392906127a790849061373f565b90915550506040518181526001600160a01b038316906000907fddf252ad1be2c89b69c2b068fc378daa952ba7f163c4a11628f55a4df523b3ef9060200160405180910390a35050565b336000908152600a6020526040812080546001600160a01b031916815560018101829055600281018290556003810182905560048101829055600501819055600780549161283e83613752565b9190505550565b600061285184846124ab565b905060001981146128b957818110156128ac5760405162461bcd60e51b815260206004820152601d60248201527f45524332303a20696e73756666696369656e7420616c6c6f77616e63650000006044820152606401610b14565b6128b984848484036124ef565b50505050565b6001600160a01b0383166129235760405162461bcd60e51b815260206004820152602560248201527f45524332303a207472616e736665722066726f6d20746865207a65726f206164604482015264647265737360d81b6064820152608401610b14565b6001600160a01b0382166129855760405162461bcd60e51b815260206004820152602360248201527f45524332303a207472616e7366657220746f20746865207a65726f206164647260448201526265737360e81b6064820152608401610b14565b6001600160a01b038316600090815260208190526040902054818110156129fd5760405162461bcd60e51b815260206004820152602660248201527f45524332303a207472616e7366657220616d6f756e7420657863656564732062604482015265616c616e636560d01b6064820152608401610b14565b6001600160a01b03808516600090815260208190526040808220858503905591851681529081208054849290612a3490849061373f565b92505081905550826001600160a01b0316846001600160a01b03167fddf252ad1be2c89b69c2b068fc378daa952ba7f163c4a11628f55a4df523b3ef84604051612a8091815260200190565b60405180910390a36128b9565b6001600160a01b038216612aed5760405162461bcd60e51b815260206004820152602160248201527f45524332303a206275726e2066726f6d20746865207a65726f206164647265736044820152607360f81b6064820152608401610b14565b6001600160a01b03821660009081526020819052604090205481811015612b615760405162461bcd60e51b815260206004820152602260248201527f45524332303a206275726e20616d6f756e7420657863656564732062616c616e604482015261636560f01b6064820152608401610b14565b6001600160a01b0383166000908152602081905260408120838303905560028054849290612b90908490613547565b90915550506040518281526000906001600160a01b038516907fddf252ad1be2c89b69c2b068fc378daa952ba7f163c4a11628f55a4df523b3ef90602001612607565b600082421115612c2657600061016d612bec86856134a2565b612bf990620f42406134a2565b612c039190613533565b90506305f5e100612c1482886134a2565b612c1e9190613533565b9150506122f5565b506000949350505050565b60008080612c5f7f000000000000000000000000000000000000000000000000000000000000000042613547565b9050600554811015612c7057600191505b50919050565b60006113886006541115612d6f576000612ca46122de612c96600f613045565b6122b761227c600654613045565b67ffffffffffffffff1690506000612cbf62015180836134a2565b612ccd6201518060646134a2565b612cd7919061373f565b905073__$16c37ee633210877eaced9daf60cfcca02$__637ae2b5c782612d03620151806103e86134a2565b6040516001600160e01b031960e085901b16815260048101929092526024820152604401602060405180830381865af4158015612d44573d6000803e3d6000fd5b505050506040513d601f19601f82011682018060405250810190612d689190613769565b9250505090565b6114816201518060646134a2565b60405180608001604052808281526020016201518083612d9d91906134a2565b612da7904261373f565b8152602001838152602001612dba612e64565b9052336000908152600b602090815260408083208451815591840151600183015583015160028201556060909201516003909201919091556008805491612e00836137a4565b91905055508160096000828254612e17919061373f565b90915550505050565b600080620186a06006546001612e3691906134a2565b612e409190613533565b90506064811115612e5357600091505090565b612e5e816064613547565b91505090565b600080612e75605a620151806134a2565b612e9f7f000000000000000000000000000000000000000000000000000000000000000042613547565b612ea99190613533565b905080612eb860026014613547565b1015612ec657600291505090565b612e5e816014613547565b60008062015180612f027f000000000000000000000000000000000000000000000000000000000000000042613547565b612f0c9190613533565b905061012c811015612fa55773__$16c37ee633210877eaced9daf60cfcca02$__636d5433e6612f3e8361012c613547565b6040516001600160e01b031960e084901b168152600481019190915260016024820152604401602060405180830381865af4158015612f81573d6000803e3d6000fd5b505050506040513d601f19601f82011682018060405250810190612e5e9190613769565b600191505090565b60007f00000000000000000000000000000000000000000000000000000000000000006001600160a01b0316631c2440826040518163ffffffff1660e01b8152600401602060405180830381865afa15801561300d573d6000803e3d6000fd5b505050506040513d601f19601f820116820180604052508101906130319190613769565b600654909150818110156105995750600655565b6000677fffffffffffffff82111561305c57600080fd5b5060401b90565b60008082600f0b1361307457600080fd5b6000600f83900b680100000000000000008112613093576040918201911d5b64010000000081126130a7576020918201911d5b6201000081126130b9576010918201911d5b61010081126130ca576008918201911d5b601081126130da576004918201911d5b600481126130ea576002918201911d5b600281126130f9576001820191505b603f19820160401b600f85900b607f8490031b6780000000000000005b600081131561313c5790800260ff81901c8281029390930192607f011c9060011d613116565b509095945050505050565b6000600f83810b9083900b0260401d60016001607f1b03198112801590613175575060016001607f1b038113155b61317e57600080fd5b9392505050565b600081600f0b60000361319757600080fd5b600082600f0b604085600f0b901b816131b2576131b261351d565b05905060016001607f1b03198112801590613175575060016001607f1b0381131561317e57600080fd5b60008082600f0b12156131ee57600080fd5b50600f0b60401d90565b6000806132086201518084613533565b905061321660016007613547565b8111156132265750606392915050565b60006001600761323784600361373f565b6001901b6132459190613533565b61324f9190613547565b604051637ae2b5c760e01b8152600481018290526063602482015290915073__$16c37ee633210877eaced9daf60cfcca02$__90637ae2b5c790604401602060405180830381865af41580156132a9573d6000803e3d6000fd5b505050506040513d601f19601f820116820180604052508101906122f59190613769565b600060208083528351808285015260005b818110156132fa578581018301518582016040015282016132de565b506000604082860101526040601f19601f8301168501019250505092915050565b80356001600160a01b038116811461333257600080fd5b919050565b6000806040838503121561334a57600080fd5b6133538361331b565b946020939093013593505050565b60008060006060848603121561337657600080fd5b61337f8461331b565b925061338d6020850161331b565b9150604084013590509250925092565b6000602082840312156133af57600080fd5b61317e8261331b565b600080604083850312156133cb57600080fd5b50508035926020909101359150565b6000602082840312156133ec57600080fd5b5035919050565b6000806000806080858703121561340957600080fd5b5050823594602084013594506040840135936060013592509050565b6000806040838503121561343857600080fd5b6134418361331b565b915061344f6020840161331b565b90509250929050565b600181811c9082168061346c57607f821691505b602082108103612c7057634e487b7160e01b600052602260045260246000fd5b634e487b7160e01b600052601160045260246000fd5b80820281158282048414176109d5576109d561348c565b6020808252601590820152744352616e6b3a204e6f206d696e742065786973747360581b604082015260600190565b6020808252818101527f4352616e6b3a204d696e74206d61747572697479206e6f742072656163686564604082015260600190565b634e487b7160e01b600052601260045260246000fd5b6000826135425761354261351d565b500490565b818103818111156109d5576109d561348c565b6020808252600c908201526b24b73b30b634b2102ab9b2b960a11b604082015260600190565b60008261358f5761358f61351d565b500690565b6020808252602a908201527f416d6f756e74206d7573742062652061206d756c7469706c65206f6620504f5760408201526922a92fa822a92fac22a760b11b606082015260800190565b60208082526022908201527f4275726e3a20596f752063616e74206275726e2066726f6d2061646472657373604082015261020360f41b606082015260800190565b602080825260159082015274109d5c9b8e8810995b1bddc81b5a5b881b1a5b5a5d605a1b604082015260600190565b600181815b8085111561368a5781600019048211156136705761367061348c565b8085161561367d57918102915b93841c9390800290613654565b509250929050565b6000826136a1575060016109d5565b816136ae575060006109d5565b81600181146136c457600281146136ce576136ea565b60019150506109d5565b60ff8411156136df576136df61348c565b50506001821b6109d5565b5060208310610133831016604e8410600b841016171561370d575081810a6109d5565b613717838361364f565b806000190482111561372b5761372b61348c565b029392505050565b600061317e8383613692565b808201808211156109d5576109d561348c565b6000816137615761376161348c565b506000190190565b60006020828403121561377b57600080fd5b5051919050565b60006020828403121561379457600080fd5b8151801515811461317e57600080fd5b6000600182016137b6576137b661348c565b506001019056fe50657073204c616220404d724a61636b4c6576696e20406c62656c79616576206661697263727970746f2e6f7267a2646970667358221220bf43d7b004cbaac19d95b4533214910c659bd1debe85df02d56db053ac19cd0064736f6c63430008120033",
			"opcodes": "PUSH1 0xC0 PUSH1 0x40 MSTORE PUSH3 0x15 PUSH3 0x15180 PUSH2 0x12C PUSH3 0x21A JUMP JUMPDEST PUSH1 0x5 SSTORE PUSH1 0x1 PUSH1 0x6 SSTORE CALLVALUE DUP1 ISZERO PUSH3 0x2A JUMPI PUSH1 0x0 DUP1 REVERT JUMPDEST POP PUSH1 0x40 MLOAD PUSH3 0x3C85 CODESIZE SUB DUP1 PUSH3 0x3C85 DUP4 CODECOPY DUP2 ADD PUSH1 0x40 DUP2 SWAP1 MSTORE PUSH3 0x4D SWAP2 PUSH3 0x23A JUMP JUMPDEST PUSH1 0x40 MLOAD DUP1 PUSH1 0x40 ADD PUSH1 0x40 MSTORE DUP1 PUSH1 0x10 DUP2 MSTORE PUSH1 0x20 ADD PUSH16 0x58454E2043727970746F285445535429 PUSH1 0x80 SHL DUP2 MSTORE POP PUSH1 0x40 MLOAD DUP1 PUSH1 0x40 ADD PUSH1 0x40 MSTORE DUP1 PUSH1 0x4 DUP2 MSTORE PUSH1 0x20 ADD PUSH4 0x58454E4D PUSH1 0xE0 SHL DUP2 MSTORE POP DUP2 PUSH1 0x3 SWAP1 DUP2 PUSH3 0xA4 SWAP2 SWAP1 PUSH3 0x311 JUMP JUMPDEST POP PUSH1 0x4 PUSH3 0xB3 DUP3 DUP3 PUSH3 0x311 JUMP JUMPDEST POP POP POP PUSH1 0x1 PUSH1 0x1 PUSH1 0xA0 SHL SUB DUP2 AND PUSH3 0xFF JUMPI PUSH1 0x40 MLOAD PUSH3 0x461BCD PUSH1 0xE5 SHL DUP2 MSTORE PUSH1 0x20 PUSH1 0x4 DUP3 ADD MSTORE PUSH1 0xB PUSH1 0x24 DUP3 ADD MSTORE PUSH11 0x6261642061646472657373 PUSH1 0xA8 SHL PUSH1 0x44 DUP3 ADD MSTORE PUSH1 0x64 ADD PUSH1 0x40 MLOAD DUP1 SWAP2 SUB SWAP1 REVERT JUMPDEST PUSH1 0x1 PUSH1 0x1 PUSH1 0xA0 SHL SUB DUP2 AND PUSH1 0xA0 DUP2 SWAP1 MSTORE PUSH1 0x40 DUP1 MLOAD PUSH4 0xE122041 PUSH1 0xE1 SHL DUP2 MSTORE SWAP1 MLOAD PUSH4 0x1C244082 SWAP2 PUSH1 0x4 DUP1 DUP3 ADD SWAP3 PUSH1 0x20 SWAP3 SWAP1 SWAP2 SWAP1 DUP3 SWAP1 SUB ADD DUP2 DUP7 GAS STATICCALL ISZERO DUP1 ISZERO PUSH3 0x14A JUMPI RETURNDATASIZE PUSH1 0x0 DUP1 RETURNDATACOPY RETURNDATASIZE PUSH1 0x0 REVERT JUMPDEST POP POP POP POP PUSH1 0x40 MLOAD RETURNDATASIZE PUSH1 0x1F NOT PUSH1 0x1F DUP3 ADD AND DUP3 ADD DUP1 PUSH1 0x40 MSTORE POP DUP2 ADD SWAP1 PUSH3 0x170 SWAP2 SWAP1 PUSH3 0x3DD JUMP JUMPDEST PUSH1 0x6 SSTORE PUSH3 0x183 PUSH3 0x15180 PUSH1 0x3C PUSH3 0x21A JUMP JUMPDEST PUSH1 0xA0 MLOAD PUSH1 0x1 PUSH1 0x1 PUSH1 0xA0 SHL SUB AND PUSH4 0x45125715 PUSH1 0x40 MLOAD DUP2 PUSH4 0xFFFFFFFF AND PUSH1 0xE0 SHL DUP2 MSTORE PUSH1 0x4 ADD PUSH1 0x20 PUSH1 0x40 MLOAD DUP1 DUP4 SUB DUP2 DUP7 GAS STATICCALL ISZERO DUP1 ISZERO PUSH3 0x1C4 JUMPI RETURNDATASIZE PUSH1 0x0 DUP1 RETURNDATACOPY RETURNDATASIZE PUSH1 0x0 REVERT JUMPDEST POP POP POP POP PUSH1 0x40 MLOAD RETURNDATASIZE PUSH1 0x1F NOT PUSH1 0x1F DUP3 ADD AND DUP3 ADD DUP1 PUSH1 0x40 MSTORE POP DUP2 ADD SWAP1 PUSH3 0x1EA SWAP2 SWAP1 PUSH3 0x3DD JUMP JUMPDEST PUSH3 0x1F6 SWAP2 SWAP1 PUSH3 0x3F7 JUMP JUMPDEST PUSH1 0x5 SSTORE POP TIMESTAMP PUSH1 0x80 MSTORE PUSH3 0x40D JUMP JUMPDEST PUSH4 0x4E487B71 PUSH1 0xE0 SHL PUSH1 0x0 MSTORE PUSH1 0x11 PUSH1 0x4 MSTORE PUSH1 0x24 PUSH1 0x0 REVERT JUMPDEST DUP1 DUP3 MUL DUP2 ISZERO DUP3 DUP3 DIV DUP5 EQ OR PUSH3 0x234 JUMPI PUSH3 0x234 PUSH3 0x204 JUMP JUMPDEST SWAP3 SWAP2 POP POP JUMP JUMPDEST PUSH1 0x0 PUSH1 0x20 DUP3 DUP5 SUB SLT ISZERO PUSH3 0x24D JUMPI PUSH1 0x0 DUP1 REVERT JUMPDEST DUP2 MLOAD PUSH1 0x1 PUSH1 0x1 PUSH1 0xA0 SHL SUB DUP2 AND DUP2 EQ PUSH3 0x265 JUMPI PUSH1 0x0 DUP1 REVERT JUMPDEST SWAP4 SWAP3 POP POP POP JUMP JUMPDEST PUSH4 0x4E487B71 PUSH1 0xE0 SHL PUSH1 0x0 MSTORE PUSH1 0x41 PUSH1 0x4 MSTORE PUSH1 0x24 PUSH1 0x0 REVERT JUMPDEST PUSH1 0x1 DUP2 DUP2 SHR SWAP1 DUP3 AND DUP1 PUSH3 0x297 JUMPI PUSH1 0x7F DUP3 AND SWAP2 POP JUMPDEST PUSH1 0x20 DUP3 LT DUP2 SUB PUSH3 0x2B8 JUMPI PUSH4 0x4E487B71 PUSH1 0xE0 SHL PUSH1 0x0 MSTORE PUSH1 0x22 PUSH1 0x4 MSTORE PUSH1 0x24 PUSH1 0x0 REVERT JUMPDEST POP SWAP2 SWAP1 POP JUMP JUMPDEST PUSH1 0x1F DUP3 GT ISZERO PUSH3 0x30C JUMPI PUSH1 0x0 DUP2 DUP2 MSTORE PUSH1 0x20 DUP2 KECCAK256 PUSH1 0x1F DUP6 ADD PUSH1 0x5 SHR DUP2 ADD PUSH1 0x20 DUP7 LT ISZERO PUSH3 0x2E7 JUMPI POP DUP1 JUMPDEST PUSH1 0x1F DUP6 ADD PUSH1 0x5 SHR DUP3 ADD SWAP2 POP JUMPDEST DUP2 DUP2 LT ISZERO PUSH3 0x308 JUMPI DUP3 DUP2 SSTORE PUSH1 0x1 ADD PUSH3 0x2F3 JUMP JUMPDEST POP POP POP JUMPDEST POP POP POP JUMP JUMPDEST DUP2 MLOAD PUSH1 0x1 PUSH1 0x1 PUSH1 0x40 SHL SUB DUP2 GT ISZERO PUSH3 0x32D JUMPI PUSH3 0x32D PUSH3 0x26C JUMP JUMPDEST PUSH3 0x345 DUP2 PUSH3 0x33E DUP5 SLOAD PUSH3 0x282 JUMP JUMPDEST DUP5 PUSH3 0x2BE JUMP JUMPDEST PUSH1 0x20 DUP1 PUSH1 0x1F DUP4 GT PUSH1 0x1 DUP2 EQ PUSH3 0x37D JUMPI PUSH1 0x0 DUP5 ISZERO PUSH3 0x364 JUMPI POP DUP6 DUP4 ADD MLOAD JUMPDEST PUSH1 0x0 NOT PUSH1 0x3 DUP7 SWAP1 SHL SHR NOT AND PUSH1 0x1 DUP6 SWAP1 SHL OR DUP6 SSTORE PUSH3 0x308 JUMP JUMPDEST PUSH1 0x0 DUP6 DUP2 MSTORE PUSH1 0x20 DUP2 KECCAK256 PUSH1 0x1F NOT DUP7 AND SWAP2 JUMPDEST DUP3 DUP2 LT ISZERO PUSH3 0x3AE JUMPI DUP9 DUP7 ADD MLOAD DUP3 SSTORE SWAP5 DUP5 ADD SWAP5 PUSH1 0x1 SWAP1 SWAP2 ADD SWAP1 DUP5 ADD PUSH3 0x38D JUMP JUMPDEST POP DUP6 DUP3 LT ISZERO PUSH3 0x3CD JUMPI DUP8 DUP6 ADD MLOAD PUSH1 0x0 NOT PUSH1 0x3 DUP9 SWAP1 SHL PUSH1 0xF8 AND SHR NOT AND DUP2 SSTORE JUMPDEST POP POP POP POP POP PUSH1 0x1 SWAP1 DUP2 SHL ADD SWAP1 SSTORE POP JUMP JUMPDEST PUSH1 0x0 PUSH1 0x20 DUP3 DUP5 SUB SLT ISZERO PUSH3 0x3F0 JUMPI PUSH1 0x0 DUP1 REVERT JUMPDEST POP MLOAD SWAP2 SWAP1 POP JUMP JUMPDEST DUP1 DUP3 ADD DUP1 DUP3 GT ISZERO PUSH3 0x234 JUMPI PUSH3 0x234 PUSH3 0x204 JUMP JUMPDEST PUSH1 0x80 MLOAD PUSH1 0xA0 MLOAD PUSH2 0x3821 PUSH3 0x464 PUSH1 0x0 CODECOPY PUSH1 0x0 DUP2 DUP2 PUSH2 0x673 ADD MSTORE DUP2 DUP2 PUSH2 0x11A4 ADD MSTORE DUP2 DUP2 PUSH2 0x1287 ADD MSTORE DUP2 DUP2 PUSH2 0x1389 ADD MSTORE PUSH2 0x2FB1 ADD MSTORE PUSH1 0x0 DUP2 DUP2 PUSH2 0x8D8 ADD MSTORE DUP2 DUP2 PUSH2 0x2C3A ADD MSTORE DUP2 DUP2 PUSH2 0x2E7A ADD MSTORE PUSH2 0x2EDD ADD MSTORE PUSH2 0x3821 PUSH1 0x0 RETURN INVALID PUSH1 0x80 PUSH1 0x40 MSTORE CALLVALUE DUP1 ISZERO PUSH2 0x10 JUMPI PUSH1 0x0 DUP1 REVERT JUMPDEST POP PUSH1 0x4 CALLDATASIZE LT PUSH2 0x3F1 JUMPI PUSH1 0x0 CALLDATALOAD PUSH1 0xE0 SHR DUP1 PUSH4 0x71141A58 GT PUSH2 0x215 JUMPI DUP1 PUSH4 0xB4800CDC GT PUSH2 0x125 JUMPI DUP1 PUSH4 0xDD62ED3E GT PUSH2 0xB8 JUMPI DUP1 PUSH4 0xED2F2369 GT PUSH2 0x87 JUMPI DUP1 PUSH4 0xED2F2369 EQ PUSH2 0x903 JUMPI DUP1 PUSH4 0xF029093E EQ PUSH2 0x90C JUMPI DUP1 PUSH4 0xF0604829 EQ PUSH2 0x915 JUMPI DUP1 PUSH4 0xF340FAED EQ PUSH2 0x91D JUMPI DUP1 PUSH4 0xFED74269 EQ PUSH2 0x927 JUMPI PUSH1 0x0 DUP1 REVERT JUMPDEST DUP1 PUSH4 0xDD62ED3E EQ PUSH2 0x83C JUMPI DUP1 PUSH4 0xDF282331 EQ PUSH2 0x84F JUMPI DUP1 PUSH4 0xE3AF6D0A EQ PUSH2 0x8D3 JUMPI DUP1 PUSH4 0xE81917B4 EQ PUSH2 0x8FA JUMPI PUSH1 0x0 DUP1 REVERT JUMPDEST DUP1 PUSH4 0xC56F0BAB GT PUSH2 0xF4 JUMPI DUP1 PUSH4 0xC56F0BAB EQ PUSH2 0x7E1 JUMPI DUP1 PUSH4 0xCE653D5F EQ PUSH2 0x7E9 JUMPI DUP1 PUSH4 0xCF7A8626 EQ PUSH2 0x809 JUMPI DUP1 PUSH4 0xD3FE4689 EQ PUSH2 0x829 JUMPI PUSH1 0x0 DUP1 REVERT JUMPDEST DUP1 PUSH4 0xB4800CDC EQ PUSH2 0x7C8 JUMPI DUP1 PUSH4 0xBA3EC741 EQ PUSH2 0x7D1 JUMPI DUP1 PUSH4 0xBCFE394F EQ PUSH2 0x4CC JUMPI DUP1 PUSH4 0xC0C65259 EQ PUSH2 0x7D9 JUMPI PUSH1 0x0 DUP1 REVERT JUMPDEST DUP1 PUSH4 0x95D89B41 GT PUSH2 0x1A8 JUMPI DUP1 PUSH4 0x9FF054DF GT PUSH2 0x177 JUMPI DUP1 PUSH4 0x9FF054DF EQ PUSH2 0x773 JUMPI DUP1 PUSH4 0xA457C2D7 EQ PUSH2 0x786 JUMPI DUP1 PUSH4 0xA9059CBB EQ PUSH2 0x799 JUMPI DUP1 PUSH4 0xB0FD1FC2 EQ PUSH2 0x7AC JUMPI DUP1 PUSH4 0xB21D35F2 EQ PUSH2 0x7BF JUMPI PUSH1 0x0 DUP1 REVERT JUMPDEST DUP1 PUSH4 0x95D89B41 EQ PUSH2 0x748 JUMPI DUP1 PUSH4 0x962CA496 EQ PUSH2 0x750 JUMPI DUP1 PUSH4 0x99202454 EQ PUSH2 0x758 JUMPI DUP1 PUSH4 0x9DC29FAC EQ PUSH2 0x760 JUMPI PUSH1 0x0 DUP1 REVERT JUMPDEST DUP1 PUSH4 0x8979C87C GT PUSH2 0x1E4 JUMPI DUP1 PUSH4 0x8979C87C EQ PUSH2 0x6D0 JUMPI DUP1 PUSH4 0x8DA5CB5B EQ PUSH2 0x6D8 JUMPI DUP1 PUSH4 0x8DA7AD23 EQ PUSH2 0x6EB JUMPI DUP1 PUSH4 0x909A2FF6 EQ PUSH2 0x740 JUMPI PUSH1 0x0 DUP1 REVERT JUMPDEST DUP1 PUSH4 0x71141A58 EQ PUSH2 0x66E JUMPI DUP1 PUSH4 0x72475F94 EQ PUSH2 0x6AD JUMPI DUP1 PUSH4 0x7B0472F0 EQ PUSH2 0x6B5 JUMPI DUP1 PUSH4 0x7E7AA62E EQ PUSH2 0x6C8 JUMPI PUSH1 0x0 DUP1 REVERT JUMPDEST DUP1 PUSH4 0x313CE567 GT PUSH2 0x310 JUMPI DUP1 PUSH4 0x539313B8 GT PUSH2 0x2A3 JUMPI DUP1 PUSH4 0x5BCCB4C4 GT PUSH2 0x272 JUMPI DUP1 PUSH4 0x5BCCB4C4 EQ PUSH2 0x5B0 JUMPI DUP1 PUSH4 0x61A52A36 EQ PUSH2 0x5C3 JUMPI DUP1 PUSH4 0x6A5E0766 EQ PUSH2 0x5CD JUMPI DUP1 PUSH4 0x7010D7A1 EQ PUSH2 0x5ED JUMPI DUP1 PUSH4 0x70A08231 EQ PUSH2 0x645 JUMPI PUSH1 0x0 DUP1 REVERT JUMPDEST DUP1 PUSH4 0x539313B8 EQ PUSH2 0x56B JUMPI DUP1 PUSH4 0x543746B1 EQ PUSH2 0x58B JUMPI DUP1 PUSH4 0x543D3652 EQ PUSH2 0x4CC JUMPI DUP1 PUSH4 0x583B912C EQ PUSH2 0x59D JUMPI PUSH1 0x0 DUP1 REVERT JUMPDEST DUP1 PUSH4 0x3CCFD60B GT PUSH2 0x2DF JUMPI DUP1 PUSH4 0x3CCFD60B EQ PUSH2 0x540 JUMPI DUP1 PUSH4 0x44E6CF38 EQ PUSH2 0x548 JUMPI DUP1 PUSH4 0x45125715 EQ PUSH2 0x55B JUMPI DUP1 PUSH4 0x52C7F8DC EQ PUSH2 0x563 JUMPI PUSH1 0x0 DUP1 REVERT JUMPDEST DUP1 PUSH4 0x313CE567 EQ PUSH2 0x503 JUMPI DUP1 PUSH4 0x31B9E85D EQ PUSH2 0x512 JUMPI DUP1 PUSH4 0x32870FDA EQ PUSH2 0x525 JUMPI DUP1 PUSH4 0x39509351 EQ PUSH2 0x52D JUMPI PUSH1 0x0 DUP1 REVERT JUMPDEST DUP1 PUSH4 0x18160DDD GT PUSH2 0x388 JUMPI DUP1 PUSH4 0x23B872DD GT PUSH2 0x357 JUMPI DUP1 PUSH4 0x23B872DD EQ PUSH2 0x4D4 JUMPI DUP1 PUSH4 0x2A62D966 EQ PUSH2 0x463 JUMPI DUP1 PUSH4 0x2A6485A5 EQ PUSH2 0x4E7 JUMPI DUP1 PUSH4 0x310CAF2D EQ PUSH2 0x4F0 JUMPI PUSH1 0x0 DUP1 REVERT JUMPDEST DUP1 PUSH4 0x18160DDD EQ PUSH2 0x4A6 JUMPI DUP1 PUSH4 0x1C244082 EQ PUSH2 0x4AE JUMPI DUP1 PUSH4 0x1C560305 EQ PUSH2 0x4B7 JUMPI DUP1 PUSH4 0x1C6F212E EQ PUSH2 0x4CC JUMPI PUSH1 0x0 DUP1 REVERT JUMPDEST DUP1 PUSH4 0xBFAE56B GT PUSH2 0x3C4 JUMPI DUP1 PUSH4 0xBFAE56B EQ PUSH2 0x453 JUMPI DUP1 PUSH4 0xF2E1228 EQ PUSH2 0x45B JUMPI DUP1 PUSH4 0x110D7FC2 EQ PUSH2 0x463 JUMPI DUP1 PUSH4 0x16F9C8FD EQ PUSH2 0x46B JUMPI PUSH1 0x0 DUP1 REVERT JUMPDEST DUP1 PUSH4 0x2378932 EQ PUSH2 0x3F6 JUMPI DUP1 PUSH4 0x69612A5 EQ PUSH2 0x412 JUMPI DUP1 PUSH4 0x6FDDE03 EQ PUSH2 0x41B JUMPI DUP1 PUSH4 0x95EA7B3 EQ PUSH2 0x430 JUMPI JUMPDEST PUSH1 0x0 DUP1 REVERT JUMPDEST PUSH2 0x3FF PUSH2 0x16D DUP2 JUMP JUMPDEST PUSH1 0x40 MLOAD SWAP1 DUP2 MSTORE PUSH1 0x20 ADD JUMPDEST PUSH1 0x40 MLOAD DUP1 SWAP2 SUB SWAP1 RETURN JUMPDEST PUSH2 0x3FF PUSH1 0x9 SLOAD DUP2 JUMP JUMPDEST PUSH2 0x423 PUSH2 0x92F JUMP JUMPDEST PUSH1 0x40 MLOAD PUSH2 0x409 SWAP2 SWAP1 PUSH2 0x32CD JUMP JUMPDEST PUSH2 0x443 PUSH2 0x43E CALLDATASIZE PUSH1 0x4 PUSH2 0x3337 JUMP JUMPDEST PUSH2 0x9C1 JUMP JUMPDEST PUSH1 0x40 MLOAD SWAP1 ISZERO ISZERO DUP2 MSTORE PUSH1 0x20 ADD PUSH2 0x409 JUMP JUMPDEST PUSH2 0x3FF PUSH2 0x9DB JUMP JUMPDEST PUSH2 0x3FF PUSH1 0x63 DUP2 JUMP JUMPDEST PUSH2 0x3FF PUSH1 0x0 DUP2 JUMP JUMPDEST PUSH2 0x473 PUSH2 0x9EC JUMP JUMPDEST PUSH1 0x40 MLOAD PUSH2 0x409 SWAP2 SWAP1 DUP2 MLOAD DUP2 MSTORE PUSH1 0x20 DUP1 DUP4 ADD MLOAD SWAP1 DUP3 ADD MSTORE PUSH1 0x40 DUP1 DUP4 ADD MLOAD SWAP1 DUP3 ADD MSTORE PUSH1 0x60 SWAP2 DUP3 ADD MLOAD SWAP2 DUP2 ADD SWAP2 SWAP1 SWAP2 MSTORE PUSH1 0x80 ADD SWAP1 JUMP JUMPDEST PUSH1 0x2 SLOAD PUSH2 0x3FF JUMP JUMPDEST PUSH2 0x3FF PUSH1 0x6 SLOAD DUP2 JUMP JUMPDEST PUSH2 0x4CA PUSH2 0x4C5 CALLDATASIZE PUSH1 0x4 PUSH2 0x3337 JUMP JUMPDEST PUSH2 0xA5D JUMP JUMPDEST STOP JUMPDEST PUSH2 0x3FF PUSH1 0x1 DUP2 JUMP JUMPDEST PUSH2 0x443 PUSH2 0x4E2 CALLDATASIZE PUSH1 0x4 PUSH2 0x3361 JUMP JUMPDEST PUSH2 0xCBE JUMP JUMPDEST PUSH2 0x3FF PUSH1 0x5 SLOAD DUP2 JUMP JUMPDEST PUSH2 0x4CA PUSH2 0x4FE CALLDATASIZE PUSH1 0x4 PUSH2 0x3361 JUMP JUMPDEST PUSH2 0xCE2 JUMP JUMPDEST PUSH1 0x40 MLOAD PUSH1 0x12 DUP2 MSTORE PUSH1 0x20 ADD PUSH2 0x409 JUMP JUMPDEST PUSH2 0x4CA PUSH2 0x520 CALLDATASIZE PUSH1 0x4 PUSH2 0x3337 JUMP JUMPDEST PUSH2 0xE1A JUMP JUMPDEST PUSH2 0x3FF PUSH1 0x5A DUP2 JUMP JUMPDEST PUSH2 0x443 PUSH2 0x53B CALLDATASIZE PUSH1 0x4 PUSH2 0x3337 JUMP JUMPDEST PUSH2 0xF4F JUMP JUMPDEST PUSH2 0x4CA PUSH2 0xF71 JUMP JUMPDEST PUSH2 0x4CA PUSH2 0x556 CALLDATASIZE PUSH1 0x4 PUSH2 0x3337 JUMP JUMPDEST PUSH2 0x10C7 JUMP JUMPDEST PUSH2 0x3FF PUSH2 0x1477 JUMP JUMPDEST PUSH2 0x4CA PUSH2 0x1486 JUMP JUMPDEST PUSH2 0x3FF PUSH2 0x579 CALLDATASIZE PUSH1 0x4 PUSH2 0x339D JUMP JUMPDEST PUSH1 0xE PUSH1 0x20 MSTORE PUSH1 0x0 SWAP1 DUP2 MSTORE PUSH1 0x40 SWAP1 KECCAK256 SLOAD DUP2 JUMP JUMPDEST PUSH2 0x4CA PUSH2 0x599 CALLDATASIZE PUSH1 0x4 PUSH2 0x3337 JUMP JUMPDEST POP POP JUMP JUMPDEST PUSH2 0x4CA PUSH2 0x5AB CALLDATASIZE PUSH1 0x4 PUSH2 0x3361 JUMP JUMPDEST PUSH2 0x15A9 JUMP JUMPDEST PUSH2 0x4CA PUSH2 0x5BE CALLDATASIZE PUSH1 0x4 PUSH2 0x33B8 JUMP JUMPDEST PUSH2 0x172C JUMP JUMPDEST PUSH2 0x3FF PUSH3 0x15180 DUP2 JUMP JUMPDEST PUSH2 0x3FF PUSH2 0x5DB CALLDATASIZE PUSH1 0x4 PUSH2 0x339D JUMP JUMPDEST PUSH1 0xF PUSH1 0x20 MSTORE PUSH1 0x0 SWAP1 DUP2 MSTORE PUSH1 0x40 SWAP1 KECCAK256 SLOAD DUP2 JUMP JUMPDEST PUSH2 0x5F5 PUSH2 0x1A83 JUMP JUMPDEST PUSH1 0x40 MLOAD PUSH2 0x409 SWAP2 SWAP1 DUP2 MLOAD PUSH1 0x1 PUSH1 0x1 PUSH1 0xA0 SHL SUB AND DUP2 MSTORE PUSH1 0x20 DUP1 DUP4 ADD MLOAD SWAP1 DUP3 ADD MSTORE PUSH1 0x40 DUP1 DUP4 ADD MLOAD SWAP1 DUP3 ADD MSTORE PUSH1 0x60 DUP1 DUP4 ADD MLOAD SWAP1 DUP3 ADD MSTORE PUSH1 0x80 DUP1 DUP4 ADD MLOAD SWAP1 DUP3 ADD MSTORE PUSH1 0xA0 SWAP2 DUP3 ADD MLOAD SWAP2 DUP2 ADD SWAP2 SWAP1 SWAP2 MSTORE PUSH1 0xC0 ADD SWAP1 JUMP JUMPDEST PUSH2 0x3FF PUSH2 0x653 CALLDATASIZE PUSH1 0x4 PUSH2 0x339D JUMP JUMPDEST PUSH1 0x1 PUSH1 0x1 PUSH1 0xA0 SHL SUB AND PUSH1 0x0 SWAP1 DUP2 MSTORE PUSH1 0x20 DUP2 SWAP1 MSTORE PUSH1 0x40 SWAP1 KECCAK256 SLOAD SWAP1 JUMP JUMPDEST PUSH2 0x695 PUSH32 0x0 DUP2 JUMP JUMPDEST PUSH1 0x40 MLOAD PUSH1 0x1 PUSH1 0x1 PUSH1 0xA0 SHL SUB SWAP1 SWAP2 AND DUP2 MSTORE PUSH1 0x20 ADD PUSH2 0x409 JUMP JUMPDEST PUSH2 0x3FF PUSH1 0xF DUP2 JUMP JUMPDEST PUSH2 0x4CA PUSH2 0x6C3 CALLDATASIZE PUSH1 0x4 PUSH2 0x33B8 JUMP JUMPDEST PUSH2 0x1B28 JUMP JUMPDEST PUSH2 0x3FF PUSH1 0x2 DUP2 JUMP JUMPDEST PUSH2 0x3FF PUSH2 0x1D46 JUMP JUMPDEST PUSH1 0x10 SLOAD PUSH2 0x695 SWAP1 PUSH1 0x1 PUSH1 0x1 PUSH1 0xA0 SHL SUB AND DUP2 JUMP JUMPDEST PUSH2 0x720 PUSH2 0x6F9 CALLDATASIZE PUSH1 0x4 PUSH2 0x339D JUMP JUMPDEST PUSH1 0xB PUSH1 0x20 MSTORE PUSH1 0x0 SWAP1 DUP2 MSTORE PUSH1 0x40 SWAP1 KECCAK256 DUP1 SLOAD PUSH1 0x1 DUP3 ADD SLOAD PUSH1 0x2 DUP4 ADD SLOAD PUSH1 0x3 SWAP1 SWAP4 ADD SLOAD SWAP2 SWAP3 SWAP1 SWAP2 DUP5 JUMP JUMPDEST PUSH1 0x40 DUP1 MLOAD SWAP5 DUP6 MSTORE PUSH1 0x20 DUP6 ADD SWAP4 SWAP1 SWAP4 MSTORE SWAP2 DUP4 ADD MSTORE PUSH1 0x60 DUP3 ADD MSTORE PUSH1 0x80 ADD PUSH2 0x409 JUMP JUMPDEST PUSH2 0x3FF PUSH1 0x64 DUP2 JUMP JUMPDEST PUSH2 0x423 PUSH2 0x1D50 JUMP JUMPDEST PUSH2 0x3FF PUSH2 0x1D5F JUMP JUMPDEST PUSH2 0x3FF PUSH2 0x1D69 JUMP JUMPDEST PUSH2 0x4CA PUSH2 0x76E CALLDATASIZE PUSH1 0x4 PUSH2 0x3337 JUMP JUMPDEST PUSH2 0x1D73 JUMP JUMPDEST PUSH2 0x4CA PUSH2 0x781 CALLDATASIZE PUSH1 0x4 PUSH2 0x33DA JUMP JUMPDEST PUSH2 0x1F63 JUMP JUMPDEST PUSH2 0x443 PUSH2 0x794 CALLDATASIZE PUSH1 0x4 PUSH2 0x3337 JUMP JUMPDEST PUSH2 0x21E4 JUMP JUMPDEST PUSH2 0x443 PUSH2 0x7A7 CALLDATASIZE PUSH1 0x4 PUSH2 0x3337 JUMP JUMPDEST PUSH2 0x225F JUMP JUMPDEST PUSH2 0x3FF PUSH2 0x7BA CALLDATASIZE PUSH1 0x4 PUSH2 0x33F3 JUMP JUMPDEST PUSH2 0x226D JUMP JUMPDEST PUSH2 0x3FF PUSH2 0x1388 DUP2 JUMP JUMPDEST PUSH2 0x3FF PUSH1 0x7 SLOAD DUP2 JUMP JUMPDEST PUSH2 0x423 PUSH2 0x22FD JUMP JUMPDEST PUSH2 0x3FF PUSH2 0x2319 JUMP JUMPDEST PUSH2 0x3FF PUSH1 0x7 DUP2 JUMP JUMPDEST PUSH2 0x3FF PUSH2 0x7F7 CALLDATASIZE PUSH1 0x4 PUSH2 0x339D JUMP JUMPDEST PUSH1 0xC PUSH1 0x20 MSTORE PUSH1 0x0 SWAP1 DUP2 MSTORE PUSH1 0x40 SWAP1 KECCAK256 SLOAD DUP2 JUMP JUMPDEST PUSH2 0x3FF PUSH2 0x817 CALLDATASIZE PUSH1 0x4 PUSH2 0x339D JUMP JUMPDEST PUSH1 0xD PUSH1 0x20 MSTORE PUSH1 0x0 SWAP1 DUP2 MSTORE PUSH1 0x40 SWAP1 KECCAK256 SLOAD DUP2 JUMP JUMPDEST PUSH2 0x4CA PUSH2 0x837 CALLDATASIZE PUSH1 0x4 PUSH2 0x3337 JUMP JUMPDEST PUSH2 0x2328 JUMP JUMPDEST PUSH2 0x3FF PUSH2 0x84A CALLDATASIZE PUSH1 0x4 PUSH2 0x3425 JUMP JUMPDEST PUSH2 0x24AB JUMP JUMPDEST PUSH2 0x89C PUSH2 0x85D CALLDATASIZE PUSH1 0x4 PUSH2 0x339D JUMP JUMPDEST PUSH1 0xA PUSH1 0x20 MSTORE PUSH1 0x0 SWAP1 DUP2 MSTORE PUSH1 0x40 SWAP1 KECCAK256 DUP1 SLOAD PUSH1 0x1 DUP3 ADD SLOAD PUSH1 0x2 DUP4 ADD SLOAD PUSH1 0x3 DUP5 ADD SLOAD PUSH1 0x4 DUP6 ADD SLOAD PUSH1 0x5 SWAP1 SWAP6 ADD SLOAD PUSH1 0x1 PUSH1 0x1 PUSH1 0xA0 SHL SUB SWAP1 SWAP5 AND SWAP5 SWAP3 SWAP4 SWAP2 SWAP3 SWAP1 SWAP2 DUP7 JUMP JUMPDEST PUSH1 0x40 DUP1 MLOAD PUSH1 0x1 PUSH1 0x1 PUSH1 0xA0 SHL SUB SWAP1 SWAP8 AND DUP8 MSTORE PUSH1 0x20 DUP8 ADD SWAP6 SWAP1 SWAP6 MSTORE SWAP4 DUP6 ADD SWAP3 SWAP1 SWAP3 MSTORE PUSH1 0x60 DUP5 ADD MSTORE PUSH1 0x80 DUP4 ADD MSTORE PUSH1 0xA0 DUP3 ADD MSTORE PUSH1 0xC0 ADD PUSH2 0x409 JUMP JUMPDEST PUSH2 0x3FF PUSH32 0x0 DUP2 JUMP JUMPDEST PUSH2 0x3FF PUSH2 0x12C DUP2 JUMP JUMPDEST PUSH2 0x3FF PUSH1 0x8 SLOAD DUP2 JUMP JUMPDEST PUSH2 0x3FF PUSH2 0x2710 DUP2 JUMP JUMPDEST PUSH2 0x3FF PUSH2 0x24D6 JUMP JUMPDEST PUSH2 0x3FF PUSH3 0x186A0 DUP2 JUMP JUMPDEST PUSH2 0x3FF PUSH1 0x14 DUP2 JUMP JUMPDEST PUSH1 0x60 PUSH1 0x3 DUP1 SLOAD PUSH2 0x93E SWAP1 PUSH2 0x3458 JUMP JUMPDEST DUP1 PUSH1 0x1F ADD PUSH1 0x20 DUP1 SWAP2 DIV MUL PUSH1 0x20 ADD PUSH1 0x40 MLOAD SWAP1 DUP2 ADD PUSH1 0x40 MSTORE DUP1 SWAP3 SWAP2 SWAP1 DUP2 DUP2 MSTORE PUSH1 0x20 ADD DUP3 DUP1 SLOAD PUSH2 0x96A SWAP1 PUSH2 0x3458 JUMP JUMPDEST DUP1 ISZERO PUSH2 0x9B7 JUMPI DUP1 PUSH1 0x1F LT PUSH2 0x98C JUMPI PUSH2 0x100 DUP1 DUP4 SLOAD DIV MUL DUP4 MSTORE SWAP2 PUSH1 0x20 ADD SWAP2 PUSH2 0x9B7 JUMP JUMPDEST DUP3 ADD SWAP2 SWAP1 PUSH1 0x0 MSTORE PUSH1 0x20 PUSH1 0x0 KECCAK256 SWAP1 JUMPDEST DUP2 SLOAD DUP2 MSTORE SWAP1 PUSH1 0x1 ADD SWAP1 PUSH1 0x20 ADD DUP1 DUP4 GT PUSH2 0x99A JUMPI DUP3 SWAP1 SUB PUSH1 0x1F AND DUP3 ADD SWAP2 JUMPDEST POP POP POP POP POP SWAP1 POP SWAP1 JUMP JUMPDEST PUSH1 0x0 CALLER PUSH2 0x9CF DUP2 DUP6 DUP6 PUSH2 0x24EF JUMP JUMPDEST PUSH1 0x1 SWAP2 POP POP JUMPDEST SWAP3 SWAP2 POP POP JUMP JUMPDEST PUSH2 0x9E9 PUSH3 0x15180 PUSH1 0x64 PUSH2 0x34A2 JUMP JUMPDEST DUP2 JUMP JUMPDEST PUSH2 0xA17 PUSH1 0x40 MLOAD DUP1 PUSH1 0x80 ADD PUSH1 0x40 MSTORE DUP1 PUSH1 0x0 DUP2 MSTORE PUSH1 0x20 ADD PUSH1 0x0 DUP2 MSTORE PUSH1 0x20 ADD PUSH1 0x0 DUP2 MSTORE PUSH1 0x20 ADD PUSH1 0x0 DUP2 MSTORE POP SWAP1 JUMP JUMPDEST POP CALLER PUSH1 0x0 SWAP1 DUP2 MSTORE PUSH1 0xB PUSH1 0x20 SWAP1 DUP2 MSTORE PUSH1 0x40 SWAP2 DUP3 SWAP1 KECCAK256 DUP3 MLOAD PUSH1 0x80 DUP2 ADD DUP5 MSTORE DUP2 SLOAD DUP2 MSTORE PUSH1 0x1 DUP3 ADD SLOAD SWAP3 DUP2 ADD SWAP3 SWAP1 SWAP3 MSTORE PUSH1 0x2 DUP2 ADD SLOAD SWAP3 DUP3 ADD SWAP3 SWAP1 SWAP3 MSTORE PUSH1 0x3 SWAP1 SWAP2 ADD SLOAD PUSH1 0x60 DUP3 ADD MSTORE SWAP1 JUMP JUMPDEST CALLER PUSH1 0x0 SWAP1 DUP2 MSTORE PUSH1 0xA PUSH1 0x20 SWAP1 DUP2 MSTORE PUSH1 0x40 SWAP2 DUP3 SWAP1 KECCAK256 DUP3 MLOAD PUSH1 0xC0 DUP2 ADD DUP5 MSTORE DUP2 SLOAD PUSH1 0x1 PUSH1 0x1 PUSH1 0xA0 SHL SUB SWAP1 DUP2 AND DUP3 MSTORE PUSH1 0x1 DUP4 ADD SLOAD SWAP4 DUP3 ADD SWAP4 SWAP1 SWAP4 MSTORE PUSH1 0x2 DUP3 ADD SLOAD SWAP4 DUP2 ADD SWAP4 SWAP1 SWAP4 MSTORE PUSH1 0x3 DUP2 ADD SLOAD PUSH1 0x60 DUP5 ADD MSTORE PUSH1 0x4 DUP2 ADD SLOAD PUSH1 0x80 DUP5 ADD MSTORE PUSH1 0x5 ADD SLOAD PUSH1 0xA0 DUP4 ADD MSTORE DUP4 AND PUSH2 0xB1D JUMPI PUSH1 0x40 MLOAD PUSH3 0x461BCD PUSH1 0xE5 SHL DUP2 MSTORE PUSH1 0x20 PUSH1 0x4 DUP3 ADD MSTORE PUSH1 0x25 PUSH1 0x24 DUP3 ADD MSTORE PUSH32 0x4352616E6B3A2043616E6E6F742073686172652077697468207A65726F206164 PUSH1 0x44 DUP3 ADD MSTORE PUSH5 0x6472657373 PUSH1 0xD8 SHL PUSH1 0x64 DUP3 ADD MSTORE PUSH1 0x84 ADD JUMPDEST PUSH1 0x40 MLOAD DUP1 SWAP2 SUB SWAP1 REVERT JUMPDEST PUSH1 0x0 DUP3 GT PUSH2 0xB6D JUMPI PUSH1 0x40 MLOAD PUSH3 0x461BCD PUSH1 0xE5 SHL DUP2 MSTORE PUSH1 0x20 PUSH1 0x4 DUP3 ADD DUP2 SWAP1 MSTORE PUSH1 0x24 DUP3 ADD MSTORE PUSH32 0x4352616E6B3A2043616E6E6F74207368617265207A65726F2070657263656E74 PUSH1 0x44 DUP3 ADD MSTORE PUSH1 0x64 ADD PUSH2 0xB14 JUMP JUMPDEST PUSH1 0x65 DUP3 LT PUSH2 0xBBD JUMPI PUSH1 0x40 MLOAD PUSH3 0x461BCD PUSH1 0xE5 SHL DUP2 MSTORE PUSH1 0x20 PUSH1 0x4 DUP3 ADD DUP2 SWAP1 MSTORE PUSH1 0x24 DUP3 ADD MSTORE PUSH32 0x4352616E6B3A2043616E6E6F74207368617265203130302B2070657263656E74 PUSH1 0x44 DUP3 ADD MSTORE PUSH1 0x64 ADD PUSH2 0xB14 JUMP JUMPDEST PUSH1 0x0 DUP2 PUSH1 0x60 ADD MLOAD GT PUSH2 0xBE1 JUMPI PUSH1 0x40 MLOAD PUSH3 0x461BCD PUSH1 0xE5 SHL DUP2 MSTORE PUSH1 0x4 ADD PUSH2 0xB14 SWAP1 PUSH2 0x34B9 JUMP JUMPDEST DUP1 PUSH1 0x40 ADD MLOAD TIMESTAMP GT PUSH2 0xC04 JUMPI PUSH1 0x40 MLOAD PUSH3 0x461BCD PUSH1 0xE5 SHL DUP2 MSTORE PUSH1 0x4 ADD PUSH2 0xB14 SWAP1 PUSH2 0x34E8 JUMP JUMPDEST PUSH1 0x0 PUSH2 0xC27 DUP3 PUSH1 0x60 ADD MLOAD DUP4 PUSH1 0x20 ADD MLOAD DUP5 PUSH1 0x40 ADD MLOAD DUP6 PUSH1 0x80 ADD MLOAD DUP7 PUSH1 0xA0 ADD MLOAD PUSH2 0x2614 JUMP JUMPDEST PUSH2 0xC39 SWAP1 PUSH8 0xDE0B6B3A7640000 PUSH2 0x34A2 JUMP JUMPDEST SWAP1 POP PUSH1 0x0 PUSH1 0x64 PUSH2 0xC49 DUP6 DUP5 PUSH2 0x34A2 JUMP JUMPDEST PUSH2 0xC53 SWAP2 SWAP1 PUSH2 0x3533 JUMP JUMPDEST SWAP1 POP PUSH1 0x0 PUSH2 0xC61 DUP3 DUP5 PUSH2 0x3547 JUMP JUMPDEST SWAP1 POP PUSH2 0xC6E CALLER JUMPDEST DUP3 PUSH2 0x2712 JUMP JUMPDEST PUSH2 0xC78 DUP7 DUP4 PUSH2 0x2712 JUMP JUMPDEST PUSH2 0xC80 PUSH2 0x27F1 JUMP JUMPDEST PUSH1 0x40 MLOAD DUP4 DUP2 MSTORE CALLER SWAP1 PUSH32 0xD74752B13281DF13701575F3A507E9B1242E0B5FB040143211C481C1FCE573A6 SWAP1 PUSH1 0x20 ADD JUMPDEST PUSH1 0x40 MLOAD DUP1 SWAP2 SUB SWAP1 LOG2 POP POP POP POP POP POP JUMP JUMPDEST PUSH1 0x0 CALLER PUSH2 0xCCC DUP6 DUP3 DUP6 PUSH2 0x2845 JUMP JUMPDEST PUSH2 0xCD7 DUP6 DUP6 DUP6 PUSH2 0x28BF JUMP JUMPDEST POP PUSH1 0x1 SWAP5 SWAP4 POP POP POP POP JUMP JUMPDEST ORIGIN PUSH1 0x1 PUSH1 0x1 PUSH1 0xA0 SHL SUB DUP5 AND EQ PUSH2 0xD0A JUMPI PUSH1 0x40 MLOAD PUSH3 0x461BCD PUSH1 0xE5 SHL DUP2 MSTORE PUSH1 0x4 ADD PUSH2 0xB14 SWAP1 PUSH2 0x355A JUMP JUMPDEST PUSH2 0xD16 PUSH2 0x2710 DUP3 PUSH2 0x3580 JUMP JUMPDEST ISZERO PUSH2 0xD33 JUMPI PUSH1 0x40 MLOAD PUSH3 0x461BCD PUSH1 0xE5 SHL DUP2 MSTORE PUSH1 0x4 ADD PUSH2 0xB14 SWAP1 PUSH2 0x3594 JUMP JUMPDEST PUSH1 0x1 PUSH1 0x1 PUSH1 0xA0 SHL SUB DUP4 AND PUSH2 0xD59 JUMPI PUSH1 0x40 MLOAD PUSH3 0x461BCD PUSH1 0xE5 SHL DUP2 MSTORE PUSH1 0x4 ADD PUSH2 0xB14 SWAP1 PUSH2 0x35DE JUMP JUMPDEST PUSH1 0x0 DUP2 GT PUSH2 0xD79 JUMPI PUSH1 0x40 MLOAD PUSH3 0x461BCD PUSH1 0xE5 SHL DUP2 MSTORE PUSH1 0x4 ADD PUSH2 0xB14 SWAP1 PUSH2 0x3620 JUMP JUMPDEST PUSH1 0x0 PUSH2 0xD87 PUSH2 0x2710 DUP4 PUSH2 0x3533 JUMP JUMPDEST SWAP1 POP PUSH1 0x0 PUSH2 0xD97 PUSH1 0x12 PUSH1 0xA PUSH2 0x3733 JUMP JUMPDEST PUSH2 0xDA1 SWAP1 DUP5 PUSH2 0x34A2 JUMP JUMPDEST SWAP1 POP PUSH2 0xDAF DUP6 CALLER JUMPDEST DUP4 PUSH2 0x2845 JUMP JUMPDEST PUSH2 0xDB9 DUP6 DUP3 PUSH2 0x2A8D JUMP JUMPDEST PUSH1 0x1 PUSH1 0x1 PUSH1 0xA0 SHL SUB DUP6 AND PUSH1 0x0 SWAP1 DUP2 MSTORE PUSH1 0xC PUSH1 0x20 MSTORE PUSH1 0x40 DUP2 KECCAK256 DUP1 SLOAD DUP6 SWAP3 SWAP1 PUSH2 0xDE1 SWAP1 DUP5 SWAP1 PUSH2 0x373F JUMP JUMPDEST SWAP1 SWAP2 SSTORE POP POP PUSH1 0x1 PUSH1 0x1 PUSH1 0xA0 SHL SUB DUP5 AND PUSH1 0x0 SWAP1 DUP2 MSTORE PUSH1 0xE PUSH1 0x20 MSTORE PUSH1 0x40 DUP2 KECCAK256 DUP1 SLOAD DUP5 SWAP3 SWAP1 PUSH2 0xE0E SWAP1 DUP5 SWAP1 PUSH2 0x373F JUMP JUMPDEST SWAP1 SWAP2 SSTORE POP POP POP POP POP POP POP JUMP JUMPDEST ORIGIN PUSH1 0x1 PUSH1 0x1 PUSH1 0xA0 SHL SUB DUP4 AND EQ PUSH2 0xE42 JUMPI PUSH1 0x40 MLOAD PUSH3 0x461BCD PUSH1 0xE5 SHL DUP2 MSTORE PUSH1 0x4 ADD PUSH2 0xB14 SWAP1 PUSH2 0x355A JUMP JUMPDEST PUSH2 0xE4E PUSH2 0x2710 DUP3 PUSH2 0x3580 JUMP JUMPDEST ISZERO PUSH2 0xE6B JUMPI PUSH1 0x40 MLOAD PUSH3 0x461BCD PUSH1 0xE5 SHL DUP2 MSTORE PUSH1 0x4 ADD PUSH2 0xB14 SWAP1 PUSH2 0x3594 JUMP JUMPDEST PUSH1 0x1 PUSH1 0x1 PUSH1 0xA0 SHL SUB DUP3 AND PUSH2 0xE91 JUMPI PUSH1 0x40 MLOAD PUSH3 0x461BCD PUSH1 0xE5 SHL DUP2 MSTORE PUSH1 0x4 ADD PUSH2 0xB14 SWAP1 PUSH2 0x35DE JUMP JUMPDEST PUSH1 0x0 DUP2 GT PUSH2 0xEB1 JUMPI PUSH1 0x40 MLOAD PUSH3 0x461BCD PUSH1 0xE5 SHL DUP2 MSTORE PUSH1 0x4 ADD PUSH2 0xB14 SWAP1 PUSH2 0x3620 JUMP JUMPDEST PUSH1 0x0 PUSH2 0xEBF PUSH2 0x2710 DUP4 PUSH2 0x3533 JUMP JUMPDEST SWAP1 POP PUSH1 0x0 PUSH2 0xECF PUSH1 0x12 PUSH1 0xA PUSH2 0x3733 JUMP JUMPDEST PUSH2 0xED9 SWAP1 DUP5 PUSH2 0x34A2 JUMP JUMPDEST SWAP1 POP PUSH2 0xEE5 DUP5 CALLER PUSH2 0xDA9 JUMP JUMPDEST PUSH2 0xEEF DUP5 DUP3 PUSH2 0x2A8D JUMP JUMPDEST PUSH1 0x1 PUSH1 0x1 PUSH1 0xA0 SHL SUB DUP5 AND PUSH1 0x0 SWAP1 DUP2 MSTORE PUSH1 0xC PUSH1 0x20 MSTORE PUSH1 0x40 DUP2 KECCAK256 DUP1 SLOAD DUP6 SWAP3 SWAP1 PUSH2 0xF17 SWAP1 DUP5 SWAP1 PUSH2 0x373F JUMP JUMPDEST SWAP1 SWAP2 SSTORE POP POP PUSH1 0x1 PUSH1 0x1 PUSH1 0xA0 SHL SUB DUP5 AND PUSH1 0x0 SWAP1 DUP2 MSTORE PUSH1 0xE PUSH1 0x20 MSTORE PUSH1 0x40 DUP2 KECCAK256 DUP1 SLOAD DUP5 SWAP3 SWAP1 PUSH2 0xF44 SWAP1 DUP5 SWAP1 PUSH2 0x373F JUMP JUMPDEST SWAP1 SWAP2 SSTORE POP POP POP POP POP POP JUMP JUMPDEST PUSH1 0x0 CALLER PUSH2 0x9CF DUP2 DUP6 DUP6 PUSH2 0xF62 DUP4 DUP4 PUSH2 0x24AB JUMP JUMPDEST PUSH2 0xF6C SWAP2 SWAP1 PUSH2 0x373F JUMP JUMPDEST PUSH2 0x24EF JUMP JUMPDEST CALLER PUSH1 0x0 SWAP1 DUP2 MSTORE PUSH1 0xB PUSH1 0x20 SWAP1 DUP2 MSTORE PUSH1 0x40 SWAP2 DUP3 SWAP1 KECCAK256 DUP3 MLOAD PUSH1 0x80 DUP2 ADD DUP5 MSTORE DUP2 SLOAD DUP2 MSTORE PUSH1 0x1 DUP3 ADD SLOAD SWAP3 DUP2 ADD SWAP3 SWAP1 SWAP3 MSTORE PUSH1 0x2 DUP2 ADD SLOAD SWAP3 DUP3 ADD DUP4 SWAP1 MSTORE PUSH1 0x3 ADD SLOAD PUSH1 0x60 DUP3 ADD MSTORE SWAP1 PUSH2 0xFF6 JUMPI PUSH1 0x40 MLOAD PUSH3 0x461BCD PUSH1 0xE5 SHL DUP2 MSTORE PUSH1 0x20 PUSH1 0x4 DUP3 ADD MSTORE PUSH1 0x16 PUSH1 0x24 DUP3 ADD MSTORE PUSH22 0x58454E45573A206E6F207374616B6520657869737473 PUSH1 0x50 SHL PUSH1 0x44 DUP3 ADD MSTORE PUSH1 0x64 ADD PUSH2 0xB14 JUMP JUMPDEST PUSH1 0x0 PUSH2 0x1014 DUP3 PUSH1 0x40 ADD MLOAD DUP4 PUSH1 0x0 ADD MLOAD DUP5 PUSH1 0x20 ADD MLOAD DUP6 PUSH1 0x60 ADD MLOAD PUSH2 0x2BD3 JUMP JUMPDEST PUSH1 0x8 DUP1 SLOAD SWAP2 SWAP3 POP PUSH1 0x0 PUSH2 0x1026 DUP4 PUSH2 0x3752 JUMP JUMPDEST SWAP2 SWAP1 POP SSTORE POP DUP2 PUSH1 0x40 ADD MLOAD PUSH1 0x9 PUSH1 0x0 DUP3 DUP3 SLOAD PUSH2 0x1041 SWAP2 SWAP1 PUSH2 0x3547 JUMP JUMPDEST SWAP1 SWAP2 SSTORE POP PUSH2 0x1060 SWAP1 POP CALLER DUP3 DUP5 PUSH1 0x40 ADD MLOAD PUSH2 0x105B SWAP2 SWAP1 PUSH2 0x373F JUMP JUMPDEST PUSH2 0x2712 JUMP JUMPDEST PUSH1 0x40 DUP1 DUP4 ADD MLOAD DUP2 MLOAD SWAP1 DUP2 MSTORE PUSH1 0x20 DUP2 ADD DUP4 SWAP1 MSTORE CALLER SWAP2 PUSH32 0x92CCF450A286A957AF52509BC1C9939D1A6A481783E142E41E2499F0BB66EBC6 SWAP2 ADD PUSH1 0x40 MLOAD DUP1 SWAP2 SUB SWAP1 LOG2 POP POP CALLER PUSH1 0x0 SWAP1 DUP2 MSTORE PUSH1 0xB PUSH1 0x20 MSTORE PUSH1 0x40 DUP2 KECCAK256 DUP2 DUP2 SSTORE PUSH1 0x1 DUP2 ADD DUP3 SWAP1 SSTORE PUSH1 0x2 DUP2 ADD DUP3 SWAP1 SSTORE PUSH1 0x3 ADD SSTORE JUMP JUMPDEST PUSH1 0x0 PUSH2 0x10D1 PUSH2 0x2C31 JUMP JUMPDEST SWAP1 POP PUSH1 0x1 DUP2 ISZERO ISZERO EQ PUSH2 0x111E JUMPI PUSH1 0x40 MLOAD PUSH3 0x461BCD PUSH1 0xE5 SHL DUP2 MSTORE PUSH1 0x20 PUSH1 0x4 DUP3 ADD MSTORE PUSH1 0x16 PUSH1 0x24 DUP3 ADD MSTORE PUSH22 0x496E76616C69642074696D6520746F20627269646765 PUSH1 0x50 SHL PUSH1 0x44 DUP3 ADD MSTORE PUSH1 0x64 ADD PUSH2 0xB14 JUMP JUMPDEST ORIGIN PUSH1 0x1 PUSH1 0x1 PUSH1 0xA0 SHL SUB DUP5 AND EQ PUSH2 0x1146 JUMPI PUSH1 0x40 MLOAD PUSH3 0x461BCD PUSH1 0xE5 SHL DUP2 MSTORE PUSH1 0x4 ADD PUSH2 0xB14 SWAP1 PUSH2 0x355A JUMP JUMPDEST PUSH1 0x1 PUSH1 0x1 PUSH1 0xA0 SHL SUB DUP4 AND PUSH2 0x116C JUMPI PUSH1 0x40 MLOAD PUSH3 0x461BCD PUSH1 0xE5 SHL DUP2 MSTORE PUSH1 0x4 ADD PUSH2 0xB14 SWAP1 PUSH2 0x35DE JUMP JUMPDEST PUSH1 0x0 DUP3 GT PUSH2 0x118C JUMPI PUSH1 0x40 MLOAD PUSH3 0x461BCD PUSH1 0xE5 SHL DUP2 MSTORE PUSH1 0x4 ADD PUSH2 0xB14 SWAP1 PUSH2 0x3620 JUMP JUMPDEST PUSH1 0x40 MLOAD PUSH4 0x70A08231 PUSH1 0xE0 SHL DUP2 MSTORE CALLER PUSH1 0x4 DUP3 ADD MSTORE PUSH1 0x0 SWAP1 PUSH32 0x0 PUSH1 0x1 PUSH1 0x1 PUSH1 0xA0 SHL SUB AND SWAP1 PUSH4 0x70A08231 SWAP1 PUSH1 0x24 ADD PUSH1 0x20 PUSH1 0x40 MLOAD DUP1 DUP4 SUB DUP2 DUP7 GAS STATICCALL ISZERO DUP1 ISZERO PUSH2 0x11F3 JUMPI RETURNDATASIZE PUSH1 0x0 DUP1 RETURNDATACOPY RETURNDATASIZE PUSH1 0x0 REVERT JUMPDEST POP POP POP POP PUSH1 0x40 MLOAD RETURNDATASIZE PUSH1 0x1F NOT PUSH1 0x1F DUP3 ADD AND DUP3 ADD DUP1 PUSH1 0x40 MSTORE POP DUP2 ADD SWAP1 PUSH2 0x1217 SWAP2 SWAP1 PUSH2 0x3769 JUMP JUMPDEST SWAP1 POP PUSH1 0x0 DUP2 GT PUSH2 0x1269 JUMPI PUSH1 0x40 MLOAD PUSH3 0x461BCD PUSH1 0xE5 SHL DUP2 MSTORE PUSH1 0x20 PUSH1 0x4 DUP3 ADD MSTORE PUSH1 0x1E PUSH1 0x24 DUP3 ADD MSTORE PUSH32 0x58454E49554D3A206E6F7420656E6F7567682058454E2062616C616E63650000 PUSH1 0x44 DUP3 ADD MSTORE PUSH1 0x64 ADD PUSH2 0xB14 JUMP JUMPDEST PUSH1 0x40 MLOAD PUSH4 0x6EB1769F PUSH1 0xE1 SHL DUP2 MSTORE CALLER PUSH1 0x4 DUP3 ADD MSTORE ADDRESS PUSH1 0x24 DUP3 ADD MSTORE PUSH1 0x0 SWAP1 PUSH32 0x0 PUSH1 0x1 PUSH1 0x1 PUSH1 0xA0 SHL SUB AND SWAP1 PUSH4 0xDD62ED3E SWAP1 PUSH1 0x44 ADD PUSH1 0x20 PUSH1 0x40 MLOAD DUP1 DUP4 SUB DUP2 DUP7 GAS STATICCALL ISZERO DUP1 ISZERO PUSH2 0x12D6 JUMPI RETURNDATASIZE PUSH1 0x0 DUP1 RETURNDATACOPY RETURNDATASIZE PUSH1 0x0 REVERT JUMPDEST POP POP POP POP PUSH1 0x40 MLOAD RETURNDATASIZE PUSH1 0x1F NOT PUSH1 0x1F DUP3 ADD AND DUP3 ADD DUP1 PUSH1 0x40 MSTORE POP DUP2 ADD SWAP1 PUSH2 0x12FA SWAP2 SWAP1 PUSH2 0x3769 JUMP JUMPDEST SWAP1 POP DUP4 DUP2 LT ISZERO PUSH2 0x1365 JUMPI PUSH1 0x40 MLOAD PUSH3 0x461BCD PUSH1 0xE5 SHL DUP2 MSTORE PUSH1 0x20 PUSH1 0x4 DUP3 ADD MSTORE PUSH1 0x30 PUSH1 0x24 DUP3 ADD MSTORE PUSH32 0x58454E49554D3A206E6F7420656E6F7567682058454E2062616C616E63652061 PUSH1 0x44 DUP3 ADD MSTORE PUSH16 0x38383937BB32B2103337B910313AB937 PUSH1 0x81 SHL PUSH1 0x64 DUP3 ADD MSTORE PUSH1 0x84 ADD PUSH2 0xB14 JUMP JUMPDEST PUSH1 0x0 PUSH2 0x1373 PUSH1 0x12 PUSH1 0xA PUSH2 0x3733 JUMP JUMPDEST PUSH2 0x137D SWAP1 DUP7 PUSH2 0x34A2 JUMP JUMPDEST SWAP1 POP PUSH1 0x1 PUSH1 0x1 PUSH1 0xA0 SHL SUB PUSH32 0x0 AND PUSH4 0x9DC29FAC CALLER PUSH1 0x40 MLOAD PUSH1 0x1 PUSH1 0x1 PUSH1 0xE0 SHL SUB NOT PUSH1 0xE0 DUP5 SWAP1 SHL AND DUP2 MSTORE PUSH1 0x1 PUSH1 0x1 PUSH1 0xA0 SHL SUB SWAP1 SWAP2 AND PUSH1 0x4 DUP3 ADD MSTORE PUSH1 0x24 DUP2 ADD DUP5 SWAP1 MSTORE PUSH1 0x44 ADD PUSH1 0x0 PUSH1 0x40 MLOAD DUP1 DUP4 SUB DUP2 PUSH1 0x0 DUP8 DUP1 EXTCODESIZE ISZERO DUP1 ISZERO PUSH2 0x13F7 JUMPI PUSH1 0x0 DUP1 REVERT JUMPDEST POP GAS CALL ISZERO DUP1 ISZERO PUSH2 0x140B JUMPI RETURNDATASIZE PUSH1 0x0 DUP1 RETURNDATACOPY RETURNDATASIZE PUSH1 0x0 REVERT JUMPDEST POP POP POP POP PUSH1 0x1 PUSH1 0x1 PUSH1 0xA0 SHL SUB DUP7 AND PUSH1 0x0 SWAP1 DUP2 MSTORE PUSH1 0xD PUSH1 0x20 MSTORE PUSH1 0x40 DUP2 KECCAK256 DUP1 SLOAD DUP8 SWAP3 SWAP1 PUSH2 0x1437 SWAP1 DUP5 SWAP1 PUSH2 0x373F JUMP JUMPDEST SWAP1 SWAP2 SSTORE POP PUSH1 0x0 SWAP1 POP PUSH2 0x144A PUSH1 0xA DUP8 PUSH2 0x3533 JUMP JUMPDEST SWAP1 POP PUSH2 0x1458 PUSH1 0x12 PUSH1 0xA PUSH2 0x3733 JUMP JUMPDEST PUSH2 0x1462 SWAP1 DUP3 PUSH2 0x34A2 JUMP JUMPDEST SWAP2 POP PUSH2 0x146E CALLER DUP4 PUSH2 0x2712 JUMP JUMPDEST POP POP POP POP POP POP POP JUMP JUMPDEST PUSH1 0x0 PUSH2 0x1481 PUSH2 0x2C76 JUMP JUMPDEST SWAP1 POP SWAP1 JUMP JUMPDEST CALLER PUSH1 0x0 SWAP1 DUP2 MSTORE PUSH1 0xA PUSH1 0x20 SWAP1 DUP2 MSTORE PUSH1 0x40 SWAP2 DUP3 SWAP1 KECCAK256 DUP3 MLOAD PUSH1 0xC0 DUP2 ADD DUP5 MSTORE DUP2 SLOAD PUSH1 0x1 PUSH1 0x1 PUSH1 0xA0 SHL SUB AND DUP2 MSTORE PUSH1 0x1 DUP3 ADD SLOAD SWAP3 DUP2 ADD SWAP3 SWAP1 SWAP3 MSTORE PUSH1 0x2 DUP2 ADD SLOAD SWAP3 DUP3 ADD SWAP3 SWAP1 SWAP3 MSTORE PUSH1 0x3 DUP3 ADD SLOAD PUSH1 0x60 DUP3 ADD DUP2 SWAP1 MSTORE PUSH1 0x4 DUP4 ADD SLOAD PUSH1 0x80 DUP4 ADD MSTORE PUSH1 0x5 SWAP1 SWAP3 ADD SLOAD PUSH1 0xA0 DUP3 ADD MSTORE SWAP1 PUSH2 0x1504 JUMPI PUSH1 0x40 MLOAD PUSH3 0x461BCD PUSH1 0xE5 SHL DUP2 MSTORE PUSH1 0x4 ADD PUSH2 0xB14 SWAP1 PUSH2 0x34B9 JUMP JUMPDEST DUP1 PUSH1 0x40 ADD MLOAD TIMESTAMP GT PUSH2 0x1527 JUMPI PUSH1 0x40 MLOAD PUSH3 0x461BCD PUSH1 0xE5 SHL DUP2 MSTORE PUSH1 0x4 ADD PUSH2 0xB14 SWAP1 PUSH2 0x34E8 JUMP JUMPDEST PUSH1 0x0 PUSH2 0x154A DUP3 PUSH1 0x60 ADD MLOAD DUP4 PUSH1 0x20 ADD MLOAD DUP5 PUSH1 0x40 ADD MLOAD DUP6 PUSH1 0x80 ADD MLOAD DUP7 PUSH1 0xA0 ADD MLOAD PUSH2 0x2614 JUMP JUMPDEST PUSH2 0x155C SWAP1 PUSH8 0xDE0B6B3A7640000 PUSH2 0x34A2 JUMP JUMPDEST SWAP1 POP PUSH2 0x1567 CALLER PUSH2 0xC68 JUMP JUMPDEST PUSH2 0x156F PUSH2 0x27F1 JUMP JUMPDEST PUSH1 0x40 MLOAD DUP2 DUP2 MSTORE CALLER SWAP1 PUSH32 0xD74752B13281DF13701575F3A507E9B1242E0B5FB040143211C481C1FCE573A6 SWAP1 PUSH1 0x20 ADD JUMPDEST PUSH1 0x40 MLOAD DUP1 SWAP2 SUB SWAP1 LOG2 POP POP JUMP JUMPDEST ORIGIN PUSH1 0x1 PUSH1 0x1 PUSH1 0xA0 SHL SUB DUP5 AND EQ PUSH2 0x15D1 JUMPI PUSH1 0x40 MLOAD PUSH3 0x461BCD PUSH1 0xE5 SHL DUP2 MSTORE PUSH1 0x4 ADD PUSH2 0xB14 SWAP1 PUSH2 0x355A JUMP JUMPDEST PUSH1 0x1 PUSH1 0x1 PUSH1 0xA0 SHL SUB DUP4 AND PUSH2 0x15F7 JUMPI PUSH1 0x40 MLOAD PUSH3 0x461BCD PUSH1 0xE5 SHL DUP2 MSTORE PUSH1 0x4 ADD PUSH2 0xB14 SWAP1 PUSH2 0x35DE JUMP JUMPDEST PUSH1 0x0 DUP2 GT PUSH2 0x1617 JUMPI PUSH1 0x40 MLOAD PUSH3 0x461BCD PUSH1 0xE5 SHL DUP2 MSTORE PUSH1 0x4 ADD PUSH2 0xB14 SWAP1 PUSH2 0x3620 JUMP JUMPDEST PUSH1 0x1 PUSH1 0x1 PUSH1 0xA0 SHL SUB DUP4 AND PUSH1 0x0 SWAP1 DUP2 MSTORE PUSH1 0xE PUSH1 0x20 MSTORE PUSH1 0x40 SWAP1 KECCAK256 SLOAD DUP2 GT ISZERO PUSH2 0x166C JUMPI PUSH1 0x40 MLOAD PUSH3 0x461BCD PUSH1 0xE5 SHL DUP2 MSTORE PUSH1 0x20 PUSH1 0x4 DUP3 ADD MSTORE PUSH1 0xA PUSH1 0x24 DUP3 ADD MSTORE PUSH10 0x2732B2B2102837BBB2B9 PUSH1 0xB1 SHL PUSH1 0x44 DUP3 ADD MSTORE PUSH1 0x64 ADD PUSH2 0xB14 JUMP JUMPDEST PUSH1 0x0 PUSH2 0x167A DUP3 PUSH2 0x3E8 PUSH2 0x34A2 JUMP JUMPDEST SWAP1 POP PUSH1 0x0 PUSH2 0x168A PUSH1 0x12 PUSH1 0xA PUSH2 0x3733 JUMP JUMPDEST PUSH2 0x1694 SWAP1 DUP4 PUSH2 0x34A2 JUMP JUMPDEST SWAP1 POP PUSH2 0x16A0 DUP6 CALLER PUSH2 0xDA9 JUMP JUMPDEST PUSH2 0x16AA DUP6 DUP3 PUSH2 0x2A8D JUMP JUMPDEST PUSH1 0x1 PUSH1 0x1 PUSH1 0xA0 SHL SUB DUP6 AND PUSH1 0x0 SWAP1 DUP2 MSTORE PUSH1 0xC PUSH1 0x20 MSTORE PUSH1 0x40 DUP2 KECCAK256 DUP1 SLOAD DUP5 SWAP3 SWAP1 PUSH2 0x16D2 SWAP1 DUP5 SWAP1 PUSH2 0x373F JUMP JUMPDEST SWAP1 SWAP2 SSTORE POP POP PUSH1 0x1 PUSH1 0x1 PUSH1 0xA0 SHL SUB DUP5 AND PUSH1 0x0 SWAP1 DUP2 MSTORE PUSH1 0xE PUSH1 0x20 MSTORE PUSH1 0x40 DUP2 KECCAK256 DUP1 SLOAD DUP6 SWAP3 SWAP1 PUSH2 0x16FF SWAP1 DUP5 SWAP1 PUSH2 0x373F JUMP JUMPDEST SWAP1 SWAP2 SSTORE POP POP PUSH1 0x1 PUSH1 0x1 PUSH1 0xA0 SHL SUB DUP6 AND PUSH1 0x0 SWAP1 DUP2 MSTORE PUSH1 0xE PUSH1 0x20 MSTORE PUSH1 0x40 DUP2 KECCAK256 DUP1 SLOAD DUP6 SWAP3 SWAP1 PUSH2 0xE0E SWAP1 DUP5 SWAP1 PUSH2 0x3547 JUMP JUMPDEST CALLER PUSH1 0x0 SWAP1 DUP2 MSTORE PUSH1 0xA PUSH1 0x20 SWAP1 DUP2 MSTORE PUSH1 0x40 SWAP2 DUP3 SWAP1 KECCAK256 DUP3 MLOAD PUSH1 0xC0 DUP2 ADD DUP5 MSTORE DUP2 SLOAD PUSH1 0x1 PUSH1 0x1 PUSH1 0xA0 SHL SUB AND DUP2 MSTORE PUSH1 0x1 DUP3 ADD SLOAD SWAP3 DUP2 ADD SWAP3 SWAP1 SWAP3 MSTORE PUSH1 0x2 DUP2 ADD SLOAD SWAP3 DUP3 ADD SWAP3 SWAP1 SWAP3 MSTORE PUSH1 0x3 DUP3 ADD SLOAD PUSH1 0x60 DUP3 ADD MSTORE PUSH1 0x4 DUP3 ADD SLOAD PUSH1 0x80 DUP3 ADD MSTORE PUSH1 0x5 SWAP1 SWAP2 ADD SLOAD PUSH1 0xA0 DUP3 ADD MSTORE PUSH1 0x65 DUP4 LT PUSH2 0x17DB JUMPI PUSH1 0x40 MLOAD PUSH3 0x461BCD PUSH1 0xE5 SHL DUP2 MSTORE PUSH1 0x20 PUSH1 0x4 DUP3 ADD DUP2 SWAP1 MSTORE PUSH1 0x24 DUP3 ADD MSTORE PUSH32 0x4352616E6B3A2043616E6E6F74207368617265203E3130302070657263656E74 PUSH1 0x44 DUP3 ADD MSTORE PUSH1 0x64 ADD PUSH2 0xB14 JUMP JUMPDEST PUSH1 0x0 DUP2 PUSH1 0x60 ADD MLOAD GT PUSH2 0x17FF JUMPI PUSH1 0x40 MLOAD PUSH3 0x461BCD PUSH1 0xE5 SHL DUP2 MSTORE PUSH1 0x4 ADD PUSH2 0xB14 SWAP1 PUSH2 0x34B9 JUMP JUMPDEST DUP1 PUSH1 0x40 ADD MLOAD TIMESTAMP GT PUSH2 0x1822 JUMPI PUSH1 0x40 MLOAD PUSH3 0x461BCD PUSH1 0xE5 SHL DUP2 MSTORE PUSH1 0x4 ADD PUSH2 0xB14 SWAP1 PUSH2 0x34E8 JUMP JUMPDEST PUSH1 0x0 PUSH2 0x1845 DUP3 PUSH1 0x60 ADD MLOAD DUP4 PUSH1 0x20 ADD MLOAD DUP5 PUSH1 0x40 ADD MLOAD DUP6 PUSH1 0x80 ADD MLOAD DUP7 PUSH1 0xA0 ADD MLOAD PUSH2 0x2614 JUMP JUMPDEST PUSH2 0x1857 SWAP1 PUSH8 0xDE0B6B3A7640000 PUSH2 0x34A2 JUMP JUMPDEST SWAP1 POP PUSH1 0x0 PUSH1 0x64 PUSH2 0x1867 DUP7 DUP5 PUSH2 0x34A2 JUMP JUMPDEST PUSH2 0x1871 SWAP2 SWAP1 PUSH2 0x3533 JUMP JUMPDEST SWAP1 POP PUSH1 0x0 PUSH2 0x187F DUP3 DUP5 PUSH2 0x3547 JUMP JUMPDEST SWAP1 POP PUSH2 0x188A CALLER PUSH2 0xC68 JUMP JUMPDEST PUSH2 0x1892 PUSH2 0x27F1 JUMP JUMPDEST PUSH1 0x40 MLOAD DUP4 DUP2 MSTORE CALLER SWAP1 PUSH32 0xD74752B13281DF13701575F3A507E9B1242E0B5FB040143211C481C1FCE573A6 SWAP1 PUSH1 0x20 ADD PUSH1 0x40 MLOAD DUP1 SWAP2 SUB SWAP1 LOG2 PUSH1 0x0 DUP3 GT PUSH2 0x190E JUMPI PUSH1 0x40 MLOAD PUSH3 0x461BCD PUSH1 0xE5 SHL DUP2 MSTORE PUSH1 0x20 PUSH1 0x4 DUP3 ADD MSTORE PUSH1 0x14 PUSH1 0x24 DUP3 ADD MSTORE PUSH20 0x5445583A2042656C6F77206D696E207374616B65 PUSH1 0x60 SHL PUSH1 0x44 DUP3 ADD MSTORE PUSH1 0x64 ADD PUSH2 0xB14 JUMP JUMPDEST PUSH1 0x1 PUSH2 0x191D PUSH3 0x15180 DUP3 PUSH2 0x34A2 JUMP JUMPDEST PUSH2 0x1927 SWAP2 SWAP1 PUSH2 0x3547 JUMP JUMPDEST PUSH2 0x1934 PUSH3 0x15180 DUP8 PUSH2 0x34A2 JUMP JUMPDEST GT PUSH2 0x197D JUMPI PUSH1 0x40 MLOAD PUSH3 0x461BCD PUSH1 0xE5 SHL DUP2 MSTORE PUSH1 0x20 PUSH1 0x4 DUP3 ADD MSTORE PUSH1 0x19 PUSH1 0x24 DUP3 ADD MSTORE PUSH25 0x5445583A2042656C6F77206D696E207374616B65207465726D PUSH1 0x38 SHL PUSH1 0x44 DUP3 ADD MSTORE PUSH1 0x64 ADD PUSH2 0xB14 JUMP JUMPDEST PUSH2 0x198C PUSH3 0x15180 PUSH2 0x3E8 PUSH2 0x34A2 JUMP JUMPDEST PUSH2 0x1997 SWAP1 PUSH1 0x1 PUSH2 0x373F JUMP JUMPDEST PUSH2 0x19A4 PUSH3 0x15180 DUP8 PUSH2 0x34A2 JUMP JUMPDEST LT PUSH2 0x19ED JUMPI PUSH1 0x40 MLOAD PUSH3 0x461BCD PUSH1 0xE5 SHL DUP2 MSTORE PUSH1 0x20 PUSH1 0x4 DUP3 ADD MSTORE PUSH1 0x19 PUSH1 0x24 DUP3 ADD MSTORE PUSH25 0x5445583A2041626F7665206D6178207374616B65207465726D PUSH1 0x38 SHL PUSH1 0x44 DUP3 ADD MSTORE PUSH1 0x64 ADD PUSH2 0xB14 JUMP JUMPDEST CALLER PUSH1 0x0 SWAP1 DUP2 MSTORE PUSH1 0xB PUSH1 0x20 MSTORE PUSH1 0x40 SWAP1 KECCAK256 PUSH1 0x2 ADD SLOAD ISZERO PUSH2 0x1A41 JUMPI PUSH1 0x40 MLOAD PUSH3 0x461BCD PUSH1 0xE5 SHL DUP2 MSTORE PUSH1 0x20 PUSH1 0x4 DUP3 ADD MSTORE PUSH1 0x11 PUSH1 0x24 DUP3 ADD MSTORE PUSH17 0x5445583A207374616B6520657869737473 PUSH1 0x78 SHL PUSH1 0x44 DUP3 ADD MSTORE PUSH1 0x64 ADD PUSH2 0xB14 JUMP JUMPDEST PUSH2 0x1A4B DUP3 DUP7 PUSH2 0x2D7D JUMP JUMPDEST PUSH1 0x40 DUP1 MLOAD DUP4 DUP2 MSTORE PUSH1 0x20 DUP2 ADD DUP8 SWAP1 MSTORE CALLER SWAP2 PUSH32 0x1449C6DD7851ABC30ABF37F57715F492010519147CC2652FBC38202C18A6EE90 SWAP2 ADD PUSH2 0xCAE JUMP JUMPDEST PUSH2 0x1AC5 PUSH1 0x40 MLOAD DUP1 PUSH1 0xC0 ADD PUSH1 0x40 MSTORE DUP1 PUSH1 0x0 PUSH1 0x1 PUSH1 0x1 PUSH1 0xA0 SHL SUB AND DUP2 MSTORE PUSH1 0x20 ADD PUSH1 0x0 DUP2 MSTORE PUSH1 0x20 ADD PUSH1 0x0 DUP2 MSTORE PUSH1 0x20 ADD PUSH1 0x0 DUP2 MSTORE PUSH1 0x20 ADD PUSH1 0x0 DUP2 MSTORE PUSH1 0x20 ADD PUSH1 0x0 DUP2 MSTORE POP SWAP1 JUMP JUMPDEST POP CALLER PUSH1 0x0 SWAP1 DUP2 MSTORE PUSH1 0xA PUSH1 0x20 SWAP1 DUP2 MSTORE PUSH1 0x40 SWAP2 DUP3 SWAP1 KECCAK256 DUP3 MLOAD PUSH1 0xC0 DUP2 ADD DUP5 MSTORE DUP2 SLOAD PUSH1 0x1 PUSH1 0x1 PUSH1 0xA0 SHL SUB AND DUP2 MSTORE PUSH1 0x1 DUP3 ADD SLOAD SWAP3 DUP2 ADD SWAP3 SWAP1 SWAP3 MSTORE PUSH1 0x2 DUP2 ADD SLOAD SWAP3 DUP3 ADD SWAP3 SWAP1 SWAP3 MSTORE PUSH1 0x3 DUP3 ADD SLOAD PUSH1 0x60 DUP3 ADD MSTORE PUSH1 0x4 DUP3 ADD SLOAD PUSH1 0x80 DUP3 ADD MSTORE PUSH1 0x5 SWAP1 SWAP2 ADD SLOAD PUSH1 0xA0 DUP3 ADD MSTORE SWAP1 JUMP JUMPDEST DUP2 PUSH2 0x1B32 CALLER PUSH2 0x653 JUMP JUMPDEST LT ISZERO PUSH2 0x1B80 JUMPI PUSH1 0x40 MLOAD PUSH3 0x461BCD PUSH1 0xE5 SHL DUP2 MSTORE PUSH1 0x20 PUSH1 0x4 DUP3 ADD MSTORE PUSH1 0x17 PUSH1 0x24 DUP3 ADD MSTORE PUSH32 0x5445583A206E6F7420656E6F7567682062616C616E6365000000000000000000 PUSH1 0x44 DUP3 ADD MSTORE PUSH1 0x64 ADD PUSH2 0xB14 JUMP JUMPDEST PUSH1 0x0 DUP3 GT PUSH2 0x1BC7 JUMPI PUSH1 0x40 MLOAD PUSH3 0x461BCD PUSH1 0xE5 SHL DUP2 MSTORE PUSH1 0x20 PUSH1 0x4 DUP3 ADD MSTORE PUSH1 0x14 PUSH1 0x24 DUP3 ADD MSTORE PUSH20 0x5445583A2042656C6F77206D696E207374616B65 PUSH1 0x60 SHL PUSH1 0x44 DUP3 ADD MSTORE PUSH1 0x64 ADD PUSH2 0xB14 JUMP JUMPDEST PUSH1 0x1 PUSH2 0x1BD6 PUSH3 0x15180 DUP3 PUSH2 0x34A2 JUMP JUMPDEST PUSH2 0x1BE0 SWAP2 SWAP1 PUSH2 0x3547 JUMP JUMPDEST PUSH2 0x1BED PUSH3 0x15180 DUP4 PUSH2 0x34A2 JUMP JUMPDEST GT PUSH2 0x1C36 JUMPI PUSH1 0x40 MLOAD PUSH3 0x461BCD PUSH1 0xE5 SHL DUP2 MSTORE PUSH1 0x20 PUSH1 0x4 DUP3 ADD MSTORE PUSH1 0x19 PUSH1 0x24 DUP3 ADD MSTORE PUSH25 0x5445583A2042656C6F77206D696E207374616B65207465726D PUSH1 0x38 SHL PUSH1 0x44 DUP3 ADD MSTORE PUSH1 0x64 ADD PUSH2 0xB14 JUMP JUMPDEST PUSH2 0x1C45 PUSH3 0x15180 PUSH2 0x3E8 PUSH2 0x34A2 JUMP JUMPDEST PUSH2 0x1C50 SWAP1 PUSH1 0x1 PUSH2 0x373F JUMP JUMPDEST PUSH2 0x1C5D PUSH3 0x15180 DUP4 PUSH2 0x34A2 JUMP JUMPDEST LT PUSH2 0x1CA6 JUMPI PUSH1 0x40 MLOAD PUSH3 0x461BCD PUSH1 0xE5 SHL DUP2 MSTORE PUSH1 0x20 PUSH1 0x4 DUP3 ADD MSTORE PUSH1 0x19 PUSH1 0x24 DUP3 ADD MSTORE PUSH25 0x5445583A2041626F7665206D6178207374616B65207465726D PUSH1 0x38 SHL PUSH1 0x44 DUP3 ADD MSTORE PUSH1 0x64 ADD PUSH2 0xB14 JUMP JUMPDEST CALLER PUSH1 0x0 SWAP1 DUP2 MSTORE PUSH1 0xB PUSH1 0x20 MSTORE PUSH1 0x40 SWAP1 KECCAK256 PUSH1 0x2 ADD SLOAD ISZERO PUSH2 0x1CFA JUMPI PUSH1 0x40 MLOAD PUSH3 0x461BCD PUSH1 0xE5 SHL DUP2 MSTORE PUSH1 0x20 PUSH1 0x4 DUP3 ADD MSTORE PUSH1 0x11 PUSH1 0x24 DUP3 ADD MSTORE PUSH17 0x5445583A207374616B6520657869737473 PUSH1 0x78 SHL PUSH1 0x44 DUP3 ADD MSTORE PUSH1 0x64 ADD PUSH2 0xB14 JUMP JUMPDEST PUSH2 0x1D04 CALLER DUP4 PUSH2 0x2A8D JUMP JUMPDEST PUSH2 0x1D0E DUP3 DUP3 PUSH2 0x2D7D JUMP JUMPDEST PUSH1 0x40 DUP1 MLOAD DUP4 DUP2 MSTORE PUSH1 0x20 DUP2 ADD DUP4 SWAP1 MSTORE CALLER SWAP2 PUSH32 0x1449C6DD7851ABC30ABF37F57715F492010519147CC2652FBC38202C18A6EE90 SWAP2 ADD PUSH2 0x159D JUMP JUMPDEST PUSH1 0x0 PUSH2 0x1481 PUSH2 0x2E20 JUMP JUMPDEST PUSH1 0x60 PUSH1 0x4 DUP1 SLOAD PUSH2 0x93E SWAP1 PUSH2 0x3458 JUMP JUMPDEST PUSH1 0x0 PUSH2 0x1481 PUSH2 0x2E64 JUMP JUMPDEST PUSH1 0x0 PUSH2 0x1481 PUSH2 0x2ED1 JUMP JUMPDEST PUSH1 0x0 DUP2 GT PUSH2 0x1D93 JUMPI PUSH1 0x40 MLOAD PUSH3 0x461BCD PUSH1 0xE5 SHL DUP2 MSTORE PUSH1 0x4 ADD PUSH2 0xB14 SWAP1 PUSH2 0x3620 JUMP JUMPDEST CALLER PUSH1 0x40 MLOAD PUSH4 0x1FFC9A7 PUSH1 0xE0 SHL DUP2 MSTORE PUSH4 0x543746B1 PUSH1 0xE0 SHL PUSH1 0x4 DUP3 ADD MSTORE PUSH1 0x1 PUSH1 0x1 PUSH1 0xA0 SHL SUB SWAP2 SWAP1 SWAP2 AND SWAP1 PUSH4 0x1FFC9A7 SWAP1 PUSH1 0x24 ADD PUSH1 0x20 PUSH1 0x40 MLOAD DUP1 DUP4 SUB DUP2 DUP7 GAS STATICCALL ISZERO DUP1 ISZERO PUSH2 0x1DE1 JUMPI RETURNDATASIZE PUSH1 0x0 DUP1 RETURNDATACOPY RETURNDATASIZE PUSH1 0x0 REVERT JUMPDEST POP POP POP POP PUSH1 0x40 MLOAD RETURNDATASIZE PUSH1 0x1F NOT PUSH1 0x1F DUP3 ADD AND DUP3 ADD DUP1 PUSH1 0x40 MSTORE POP DUP2 ADD SWAP1 PUSH2 0x1E05 SWAP2 SWAP1 PUSH2 0x3782 JUMP JUMPDEST PUSH2 0x1E51 JUMPI PUSH1 0x40 MLOAD PUSH3 0x461BCD PUSH1 0xE5 SHL DUP2 MSTORE PUSH1 0x20 PUSH1 0x4 DUP3 ADD MSTORE PUSH1 0x1E PUSH1 0x24 DUP3 ADD MSTORE PUSH32 0x4275726E3A206E6F74206120737570706F7274656420636F6E74726163740000 PUSH1 0x44 DUP3 ADD MSTORE PUSH1 0x64 ADD PUSH2 0xB14 JUMP JUMPDEST PUSH1 0x0 PUSH2 0x1E5F PUSH1 0x12 PUSH1 0xA PUSH2 0x3733 JUMP JUMPDEST PUSH2 0x1E69 SWAP1 DUP4 PUSH2 0x34A2 JUMP JUMPDEST SWAP1 POP PUSH2 0x1E75 DUP4 CALLER PUSH2 0xDA9 JUMP JUMPDEST PUSH2 0x1E7F DUP4 DUP3 PUSH2 0x2A8D JUMP JUMPDEST PUSH1 0x1 PUSH1 0x1 PUSH1 0xA0 SHL SUB DUP4 AND PUSH1 0x0 SWAP1 DUP2 MSTORE PUSH1 0xC PUSH1 0x20 MSTORE PUSH1 0x40 DUP2 KECCAK256 DUP1 SLOAD DUP5 SWAP3 SWAP1 PUSH2 0x1EA7 SWAP1 DUP5 SWAP1 PUSH2 0x373F JUMP JUMPDEST SWAP1 SWAP2 SSTORE POP PUSH2 0x1EB9 SWAP1 POP PUSH2 0x2710 DUP4 PUSH2 0x3580 JUMP JUMPDEST PUSH1 0x0 SUB PUSH2 0x1F02 JUMPI PUSH1 0x0 PUSH2 0x1ECE PUSH2 0x2710 DUP5 PUSH2 0x3533 JUMP JUMPDEST PUSH1 0x1 PUSH1 0x1 PUSH1 0xA0 SHL SUB DUP6 AND PUSH1 0x0 SWAP1 DUP2 MSTORE PUSH1 0xE PUSH1 0x20 MSTORE PUSH1 0x40 DUP2 KECCAK256 DUP1 SLOAD SWAP3 SWAP4 POP DUP4 SWAP3 SWAP1 SWAP2 SWAP1 PUSH2 0x1EFB SWAP1 DUP5 SWAP1 PUSH2 0x373F JUMP JUMPDEST SWAP1 SWAP2 SSTORE POP POP POP JUMPDEST CALLER PUSH1 0x40 MLOAD PUSH4 0x543746B1 PUSH1 0xE0 SHL DUP2 MSTORE PUSH1 0x1 PUSH1 0x1 PUSH1 0xA0 SHL SUB DUP6 DUP2 AND PUSH1 0x4 DUP4 ADD MSTORE PUSH1 0x24 DUP3 ADD DUP5 SWAP1 MSTORE SWAP2 SWAP1 SWAP2 AND SWAP1 PUSH4 0x543746B1 SWAP1 PUSH1 0x44 ADD PUSH1 0x0 PUSH1 0x40 MLOAD DUP1 DUP4 SUB DUP2 PUSH1 0x0 DUP8 DUP1 EXTCODESIZE ISZERO DUP1 ISZERO PUSH2 0x1F4F JUMPI PUSH1 0x0 DUP1 REVERT JUMPDEST POP GAS CALL ISZERO DUP1 ISZERO PUSH2 0x146E JUMPI RETURNDATASIZE PUSH1 0x0 DUP1 RETURNDATACOPY RETURNDATASIZE PUSH1 0x0 REVERT JUMPDEST PUSH2 0x1F6B PUSH2 0x2FAD JUMP JUMPDEST PUSH1 0x0 PUSH2 0x1F7A PUSH3 0x15180 DUP4 PUSH2 0x34A2 JUMP JUMPDEST SWAP1 POP PUSH1 0x1 PUSH2 0x1F8B PUSH3 0x15180 DUP3 PUSH2 0x34A2 JUMP JUMPDEST PUSH2 0x1F95 SWAP2 SWAP1 PUSH2 0x3547 JUMP JUMPDEST DUP2 GT PUSH2 0x1FE3 JUMPI PUSH1 0x40 MLOAD PUSH3 0x461BCD PUSH1 0xE5 SHL DUP2 MSTORE PUSH1 0x20 PUSH1 0x4 DUP3 ADD MSTORE PUSH1 0x19 PUSH1 0x24 DUP3 ADD MSTORE PUSH32 0x4352616E6B3A205465726D206C657373207468616E206D696E00000000000000 PUSH1 0x44 DUP3 ADD MSTORE PUSH1 0x64 ADD PUSH2 0xB14 JUMP JUMPDEST PUSH2 0x1FEB PUSH2 0x2C76 JUMP JUMPDEST PUSH2 0x1FF6 SWAP1 PUSH1 0x1 PUSH2 0x373F JUMP JUMPDEST DUP2 LT PUSH2 0x2053 JUMPI PUSH1 0x40 MLOAD PUSH3 0x461BCD PUSH1 0xE5 SHL DUP2 MSTORE PUSH1 0x20 PUSH1 0x4 DUP3 ADD MSTORE PUSH1 0x26 PUSH1 0x24 DUP3 ADD MSTORE PUSH32 0x4352616E6B3A205465726D206D6F7265207468616E2063757272656E74206D61 PUSH1 0x44 DUP3 ADD MSTORE PUSH6 0x78207465726D PUSH1 0xD0 SHL PUSH1 0x64 DUP3 ADD MSTORE PUSH1 0x84 ADD PUSH2 0xB14 JUMP JUMPDEST CALLER PUSH1 0x0 SWAP1 DUP2 MSTORE PUSH1 0xA PUSH1 0x20 MSTORE PUSH1 0x40 SWAP1 KECCAK256 PUSH1 0x3 ADD SLOAD ISZERO PUSH2 0x20B3 JUMPI PUSH1 0x40 MLOAD PUSH3 0x461BCD PUSH1 0xE5 SHL DUP2 MSTORE PUSH1 0x20 PUSH1 0x4 DUP3 ADD MSTORE PUSH1 0x1F PUSH1 0x24 DUP3 ADD MSTORE PUSH32 0x4352616E6B3A204D696E7420616C726561647920696E2070726F677265737300 PUSH1 0x44 DUP3 ADD MSTORE PUSH1 0x64 ADD PUSH2 0xB14 JUMP JUMPDEST PUSH1 0x0 PUSH1 0x40 MLOAD DUP1 PUSH1 0xC0 ADD PUSH1 0x40 MSTORE DUP1 PUSH2 0x20C7 CALLER SWAP1 JUMP JUMPDEST PUSH1 0x1 PUSH1 0x1 PUSH1 0xA0 SHL SUB AND DUP2 MSTORE PUSH1 0x20 DUP2 ADD DUP6 SWAP1 MSTORE PUSH1 0x40 ADD PUSH2 0x20E6 DUP5 TIMESTAMP PUSH2 0x373F JUMP JUMPDEST DUP2 MSTORE PUSH1 0x20 ADD PUSH1 0x6 SLOAD DUP2 MSTORE PUSH1 0x20 ADD PUSH2 0x20FB PUSH2 0x2ED1 JUMP JUMPDEST DUP2 MSTORE PUSH1 0x20 ADD PUSH2 0x2108 PUSH2 0x2E20 JUMP JUMPDEST SWAP1 MSTORE CALLER PUSH1 0x0 SWAP1 DUP2 MSTORE PUSH1 0xA PUSH1 0x20 SWAP1 DUP2 MSTORE PUSH1 0x40 DUP1 DUP4 KECCAK256 DUP5 MLOAD DUP2 SLOAD PUSH1 0x1 PUSH1 0x1 PUSH1 0xA0 SHL SUB NOT AND PUSH1 0x1 PUSH1 0x1 PUSH1 0xA0 SHL SUB SWAP1 SWAP2 AND OR DUP2 SSTORE SWAP2 DUP5 ADD MLOAD PUSH1 0x1 DUP4 ADD SSTORE DUP4 ADD MLOAD PUSH1 0x2 DUP3 ADD SSTORE PUSH1 0x60 DUP4 ADD MLOAD PUSH1 0x3 DUP3 ADD SSTORE PUSH1 0x80 DUP4 ADD MLOAD PUSH1 0x4 DUP3 ADD SSTORE PUSH1 0xA0 DUP4 ADD MLOAD PUSH1 0x5 SWAP1 SWAP2 ADD SSTORE PUSH1 0x7 DUP1 SLOAD SWAP3 SWAP4 POP SWAP1 PUSH2 0x2179 DUP4 PUSH2 0x37A4 JUMP JUMPDEST SWAP2 SWAP1 POP SSTORE POP PUSH2 0x2185 CALLER SWAP1 JUMP JUMPDEST PUSH1 0x1 PUSH1 0x1 PUSH1 0xA0 SHL SUB AND PUSH32 0xE9149E1B5059238BAED02FA659DBF4BD932FBCF760A431330DF4D934BC942F37 DUP5 PUSH1 0x6 PUSH1 0x0 DUP2 SLOAD DUP1 SWAP3 SWAP2 SWAP1 PUSH2 0x21C3 SWAP1 PUSH2 0x37A4 JUMP JUMPDEST SWAP1 SWAP2 SSTORE POP PUSH1 0x40 DUP1 MLOAD SWAP3 DUP4 MSTORE PUSH1 0x20 DUP4 ADD SWAP2 SWAP1 SWAP2 MSTORE ADD PUSH1 0x40 MLOAD DUP1 SWAP2 SUB SWAP1 LOG2 POP POP POP JUMP JUMPDEST PUSH1 0x0 CALLER DUP2 PUSH2 0x21F2 DUP3 DUP7 PUSH2 0x24AB JUMP JUMPDEST SWAP1 POP DUP4 DUP2 LT ISZERO PUSH2 0x2252 JUMPI PUSH1 0x40 MLOAD PUSH3 0x461BCD PUSH1 0xE5 SHL DUP2 MSTORE PUSH1 0x20 PUSH1 0x4 DUP3 ADD MSTORE PUSH1 0x25 PUSH1 0x24 DUP3 ADD MSTORE PUSH32 0x45524332303A2064656372656173656420616C6C6F77616E63652062656C6F77 PUSH1 0x44 DUP3 ADD MSTORE PUSH5 0x207A65726F PUSH1 0xD8 SHL PUSH1 0x64 DUP3 ADD MSTORE PUSH1 0x84 ADD PUSH2 0xB14 JUMP JUMPDEST PUSH2 0xCD7 DUP3 DUP7 DUP7 DUP5 SUB PUSH2 0x24EF JUMP JUMPDEST PUSH1 0x0 CALLER PUSH2 0x9CF DUP2 DUP6 DUP6 PUSH2 0x28BF JUMP JUMPDEST PUSH1 0x0 DUP1 PUSH2 0x2284 PUSH2 0x227C DUP8 PUSH2 0x3045 JUMP JUMPDEST PUSH1 0xF SIGNEXTEND PUSH2 0x3063 JUMP JUMPDEST SWAP1 POP PUSH1 0x0 PUSH2 0x22C0 PUSH2 0x2294 DUP6 PUSH2 0x3045 JUMP JUMPDEST PUSH2 0x22B7 PUSH2 0x22A0 DUP9 PUSH2 0x3045 JUMP JUMPDEST PUSH2 0x22B7 PUSH2 0x22AC DUP12 PUSH2 0x3045 JUMP JUMPDEST PUSH1 0xF DUP9 SWAP1 SIGNEXTEND SWAP1 PUSH2 0x3147 JUMP JUMPDEST PUSH1 0xF SIGNEXTEND SWAP1 PUSH2 0x3147 JUMP JUMPDEST SWAP1 POP PUSH2 0x22E6 PUSH2 0x22DE PUSH2 0x22D3 PUSH2 0x3E8 PUSH2 0x3045 JUMP JUMPDEST PUSH1 0xF DUP5 SWAP1 SIGNEXTEND SWAP1 PUSH2 0x3185 JUMP JUMPDEST PUSH1 0xF SIGNEXTEND PUSH2 0x31DC JUMP JUMPDEST PUSH8 0xFFFFFFFFFFFFFFFF AND SWAP3 POP POP POP JUMPDEST SWAP5 SWAP4 POP POP POP POP JUMP JUMPDEST PUSH1 0x40 MLOAD DUP1 PUSH1 0x60 ADD PUSH1 0x40 MSTORE DUP1 PUSH1 0x2E DUP2 MSTORE PUSH1 0x20 ADD PUSH2 0x37BE PUSH1 0x2E SWAP2 CODECOPY DUP2 JUMP JUMPDEST PUSH2 0x9E9 PUSH3 0x15180 PUSH2 0x3E8 PUSH2 0x34A2 JUMP JUMPDEST ORIGIN PUSH1 0x1 PUSH1 0x1 PUSH1 0xA0 SHL SUB DUP4 AND EQ PUSH2 0x2350 JUMPI PUSH1 0x40 MLOAD PUSH3 0x461BCD PUSH1 0xE5 SHL DUP2 MSTORE PUSH1 0x4 ADD PUSH2 0xB14 SWAP1 PUSH2 0x355A JUMP JUMPDEST PUSH1 0x1 PUSH1 0x1 PUSH1 0xA0 SHL SUB DUP3 AND PUSH2 0x2376 JUMPI PUSH1 0x40 MLOAD PUSH3 0x461BCD PUSH1 0xE5 SHL DUP2 MSTORE PUSH1 0x4 ADD PUSH2 0xB14 SWAP1 PUSH2 0x35DE JUMP JUMPDEST PUSH1 0x0 DUP2 GT PUSH2 0x2396 JUMPI PUSH1 0x40 MLOAD PUSH3 0x461BCD PUSH1 0xE5 SHL DUP2 MSTORE PUSH1 0x4 ADD PUSH2 0xB14 SWAP1 PUSH2 0x3620 JUMP JUMPDEST PUSH1 0x1 PUSH1 0x1 PUSH1 0xA0 SHL SUB DUP3 AND PUSH1 0x0 SWAP1 DUP2 MSTORE PUSH1 0xE PUSH1 0x20 MSTORE PUSH1 0x40 SWAP1 KECCAK256 SLOAD DUP2 GT ISZERO PUSH2 0x23EB JUMPI PUSH1 0x40 MLOAD PUSH3 0x461BCD PUSH1 0xE5 SHL DUP2 MSTORE PUSH1 0x20 PUSH1 0x4 DUP3 ADD MSTORE PUSH1 0xA PUSH1 0x24 DUP3 ADD MSTORE PUSH10 0x2732B2B2102837BBB2B9 PUSH1 0xB1 SHL PUSH1 0x44 DUP3 ADD MSTORE PUSH1 0x64 ADD PUSH2 0xB14 JUMP JUMPDEST PUSH1 0x0 PUSH2 0x23F9 DUP3 PUSH2 0x3E8 PUSH2 0x34A2 JUMP JUMPDEST SWAP1 POP PUSH1 0x0 PUSH2 0x2409 PUSH1 0x12 PUSH1 0xA PUSH2 0x3733 JUMP JUMPDEST PUSH2 0x2413 SWAP1 DUP4 PUSH2 0x34A2 JUMP JUMPDEST SWAP1 POP PUSH2 0x241F DUP5 CALLER PUSH2 0xDA9 JUMP JUMPDEST PUSH2 0x2429 DUP5 DUP3 PUSH2 0x2A8D JUMP JUMPDEST PUSH1 0x1 PUSH1 0x1 PUSH1 0xA0 SHL SUB DUP5 AND PUSH1 0x0 SWAP1 DUP2 MSTORE PUSH1 0xC PUSH1 0x20 MSTORE PUSH1 0x40 DUP2 KECCAK256 DUP1 SLOAD DUP5 SWAP3 SWAP1 PUSH2 0x2451 SWAP1 DUP5 SWAP1 PUSH2 0x373F JUMP JUMPDEST SWAP1 SWAP2 SSTORE POP POP PUSH1 0x1 PUSH1 0x1 PUSH1 0xA0 SHL SUB DUP5 AND PUSH1 0x0 SWAP1 DUP2 MSTORE PUSH1 0xE PUSH1 0x20 MSTORE PUSH1 0x40 DUP2 KECCAK256 DUP1 SLOAD DUP6 SWAP3 SWAP1 PUSH2 0x247E SWAP1 DUP5 SWAP1 PUSH2 0x3547 JUMP JUMPDEST SWAP1 SWAP2 SSTORE POP POP PUSH1 0x1 PUSH1 0x1 PUSH1 0xA0 SHL SUB DUP5 AND PUSH1 0x0 SWAP1 DUP2 MSTORE PUSH1 0xF PUSH1 0x20 MSTORE PUSH1 0x40 DUP2 KECCAK256 DUP1 SLOAD DUP6 SWAP3 SWAP1 PUSH2 0xF44 SWAP1 DUP5 SWAP1 PUSH2 0x373F JUMP JUMPDEST PUSH1 0x1 PUSH1 0x1 PUSH1 0xA0 SHL SUB SWAP2 DUP3 AND PUSH1 0x0 SWAP1 DUP2 MSTORE PUSH1 0x1 PUSH1 0x20 SWAP1 DUP2 MSTORE PUSH1 0x40 DUP1 DUP4 KECCAK256 SWAP4 SWAP1 SWAP5 AND DUP3 MSTORE SWAP2 SWAP1 SWAP2 MSTORE KECCAK256 SLOAD SWAP1 JUMP JUMPDEST PUSH1 0x1 PUSH2 0x24E5 PUSH3 0x15180 DUP3 PUSH2 0x34A2 JUMP JUMPDEST PUSH2 0x9E9 SWAP2 SWAP1 PUSH2 0x3547 JUMP JUMPDEST PUSH1 0x1 PUSH1 0x1 PUSH1 0xA0 SHL SUB DUP4 AND PUSH2 0x2551 JUMPI PUSH1 0x40 MLOAD PUSH3 0x461BCD PUSH1 0xE5 SHL DUP2 MSTORE PUSH1 0x20 PUSH1 0x4 DUP3 ADD MSTORE PUSH1 0x24 DUP1 DUP3 ADD MSTORE PUSH32 0x45524332303A20617070726F76652066726F6D20746865207A65726F20616464 PUSH1 0x44 DUP3 ADD MSTORE PUSH4 0x72657373 PUSH1 0xE0 SHL PUSH1 0x64 DUP3 ADD MSTORE PUSH1 0x84 ADD PUSH2 0xB14 JUMP JUMPDEST PUSH1 0x1 PUSH1 0x1 PUSH1 0xA0 SHL SUB DUP3 AND PUSH2 0x25B2 JUMPI PUSH1 0x40 MLOAD PUSH3 0x461BCD PUSH1 0xE5 SHL DUP2 MSTORE PUSH1 0x20 PUSH1 0x4 DUP3 ADD MSTORE PUSH1 0x22 PUSH1 0x24 DUP3 ADD MSTORE PUSH32 0x45524332303A20617070726F766520746F20746865207A65726F206164647265 PUSH1 0x44 DUP3 ADD MSTORE PUSH2 0x7373 PUSH1 0xF0 SHL PUSH1 0x64 DUP3 ADD MSTORE PUSH1 0x84 ADD PUSH2 0xB14 JUMP JUMPDEST PUSH1 0x1 PUSH1 0x1 PUSH1 0xA0 SHL SUB DUP4 DUP2 AND PUSH1 0x0 DUP2 DUP2 MSTORE PUSH1 0x1 PUSH1 0x20 SWAP1 DUP2 MSTORE PUSH1 0x40 DUP1 DUP4 KECCAK256 SWAP5 DUP8 AND DUP1 DUP5 MSTORE SWAP5 DUP3 MSTORE SWAP2 DUP3 SWAP1 KECCAK256 DUP6 SWAP1 SSTORE SWAP1 MLOAD DUP5 DUP2 MSTORE PUSH32 0x8C5BE1E5EBEC7D5BD14F71427D1E84F3DD0314C0F7B2291E5B200AC8C7C3B925 SWAP2 ADD JUMPDEST PUSH1 0x40 MLOAD DUP1 SWAP2 SUB SWAP1 LOG3 POP POP POP JUMP JUMPDEST PUSH1 0x0 DUP1 PUSH2 0x2621 DUP6 TIMESTAMP PUSH2 0x3547 JUMP JUMPDEST SWAP1 POP PUSH1 0x0 PUSH2 0x262E DUP3 PUSH2 0x31F8 JUMP JUMPDEST SWAP1 POP PUSH1 0x0 PUSH20 0x0 PUSH4 0x6D5433E6 DUP11 PUSH1 0x6 SLOAD PUSH2 0x265A SWAP2 SWAP1 PUSH2 0x3547 JUMP JUMPDEST PUSH1 0x40 MLOAD PUSH1 0x1 PUSH1 0x1 PUSH1 0xE0 SHL SUB NOT PUSH1 0xE0 DUP5 SWAP1 SHL AND DUP2 MSTORE PUSH1 0x4 DUP2 ADD SWAP2 SWAP1 SWAP2 MSTORE PUSH1 0x2 PUSH1 0x24 DUP3 ADD MSTORE PUSH1 0x44 ADD PUSH1 0x20 PUSH1 0x40 MLOAD DUP1 DUP4 SUB DUP2 DUP7 GAS DELEGATECALL ISZERO DUP1 ISZERO PUSH2 0x269D JUMPI RETURNDATASIZE PUSH1 0x0 DUP1 RETURNDATACOPY RETURNDATASIZE PUSH1 0x0 REVERT JUMPDEST POP POP POP POP PUSH1 0x40 MLOAD RETURNDATASIZE PUSH1 0x1F NOT PUSH1 0x1F DUP3 ADD AND DUP3 ADD DUP1 PUSH1 0x40 MSTORE POP DUP2 ADD SWAP1 PUSH2 0x26C1 SWAP2 SWAP1 PUSH2 0x3769 JUMP JUMPDEST SWAP1 POP PUSH1 0x0 PUSH2 0x26D1 DUP7 PUSH2 0x3E8 PUSH2 0x373F JUMP JUMPDEST SWAP1 POP PUSH1 0x0 PUSH2 0x26E1 DUP4 DUP10 DUP13 DUP6 PUSH2 0x226D JUMP JUMPDEST SWAP1 POP PUSH1 0x64 PUSH2 0x26EF DUP6 DUP3 PUSH2 0x3547 JUMP JUMPDEST PUSH2 0x26F9 SWAP1 DUP4 PUSH2 0x34A2 JUMP JUMPDEST PUSH2 0x2703 SWAP2 SWAP1 PUSH2 0x3533 JUMP JUMPDEST SWAP12 SWAP11 POP POP POP POP POP POP POP POP POP POP POP JUMP JUMPDEST PUSH1 0x1 PUSH1 0x1 PUSH1 0xA0 SHL SUB DUP3 AND PUSH2 0x2768 JUMPI PUSH1 0x40 MLOAD PUSH3 0x461BCD PUSH1 0xE5 SHL DUP2 MSTORE PUSH1 0x20 PUSH1 0x4 DUP3 ADD MSTORE PUSH1 0x1F PUSH1 0x24 DUP3 ADD MSTORE PUSH32 0x45524332303A206D696E7420746F20746865207A65726F206164647265737300 PUSH1 0x44 DUP3 ADD MSTORE PUSH1 0x64 ADD PUSH2 0xB14 JUMP JUMPDEST DUP1 PUSH1 0x2 PUSH1 0x0 DUP3 DUP3 SLOAD PUSH2 0x277A SWAP2 SWAP1 PUSH2 0x373F JUMP JUMPDEST SWAP1 SWAP2 SSTORE POP POP PUSH1 0x1 PUSH1 0x1 PUSH1 0xA0 SHL SUB DUP3 AND PUSH1 0x0 SWAP1 DUP2 MSTORE PUSH1 0x20 DUP2 SWAP1 MSTORE PUSH1 0x40 DUP2 KECCAK256 DUP1 SLOAD DUP4 SWAP3 SWAP1 PUSH2 0x27A7 SWAP1 DUP5 SWAP1 PUSH2 0x373F JUMP JUMPDEST SWAP1 SWAP2 SSTORE POP POP PUSH1 0x40 MLOAD DUP2 DUP2 MSTORE PUSH1 0x1 PUSH1 0x1 PUSH1 0xA0 SHL SUB DUP4 AND SWAP1 PUSH1 0x0 SWAP1 PUSH32 0xDDF252AD1BE2C89B69C2B068FC378DAA952BA7F163C4A11628F55A4DF523B3EF SWAP1 PUSH1 0x20 ADD PUSH1 0x40 MLOAD DUP1 SWAP2 SUB SWAP1 LOG3 POP POP JUMP JUMPDEST CALLER PUSH1 0x0 SWAP1 DUP2 MSTORE PUSH1 0xA PUSH1 0x20 MSTORE PUSH1 0x40 DUP2 KECCAK256 DUP1 SLOAD PUSH1 0x1 PUSH1 0x1 PUSH1 0xA0 SHL SUB NOT AND DUP2 SSTORE PUSH1 0x1 DUP2 ADD DUP3 SWAP1 SSTORE PUSH1 0x2 DUP2 ADD DUP3 SWAP1 SSTORE PUSH1 0x3 DUP2 ADD DUP3 SWAP1 SSTORE PUSH1 0x4 DUP2 ADD DUP3 SWAP1 SSTORE PUSH1 0x5 ADD DUP2 SWAP1 SSTORE PUSH1 0x7 DUP1 SLOAD SWAP2 PUSH2 0x283E DUP4 PUSH2 0x3752 JUMP JUMPDEST SWAP2 SWAP1 POP SSTORE POP JUMP JUMPDEST PUSH1 0x0 PUSH2 0x2851 DUP5 DUP5 PUSH2 0x24AB JUMP JUMPDEST SWAP1 POP PUSH1 0x0 NOT DUP2 EQ PUSH2 0x28B9 JUMPI DUP2 DUP2 LT ISZERO PUSH2 0x28AC JUMPI PUSH1 0x40 MLOAD PUSH3 0x461BCD PUSH1 0xE5 SHL DUP2 MSTORE PUSH1 0x20 PUSH1 0x4 DUP3 ADD MSTORE PUSH1 0x1D PUSH1 0x24 DUP3 ADD MSTORE PUSH32 0x45524332303A20696E73756666696369656E7420616C6C6F77616E6365000000 PUSH1 0x44 DUP3 ADD MSTORE PUSH1 0x64 ADD PUSH2 0xB14 JUMP JUMPDEST PUSH2 0x28B9 DUP5 DUP5 DUP5 DUP5 SUB PUSH2 0x24EF JUMP JUMPDEST POP POP POP POP JUMP JUMPDEST PUSH1 0x1 PUSH1 0x1 PUSH1 0xA0 SHL SUB DUP4 AND PUSH2 0x2923 JUMPI PUSH1 0x40 MLOAD PUSH3 0x461BCD PUSH1 0xE5 SHL DUP2 MSTORE PUSH1 0x20 PUSH1 0x4 DUP3 ADD MSTORE PUSH1 0x25 PUSH1 0x24 DUP3 ADD MSTORE PUSH32 0x45524332303A207472616E736665722066726F6D20746865207A65726F206164 PUSH1 0x44 DUP3 ADD MSTORE PUSH5 0x6472657373 PUSH1 0xD8 SHL PUSH1 0x64 DUP3 ADD MSTORE PUSH1 0x84 ADD PUSH2 0xB14 JUMP JUMPDEST PUSH1 0x1 PUSH1 0x1 PUSH1 0xA0 SHL SUB DUP3 AND PUSH2 0x2985 JUMPI PUSH1 0x40 MLOAD PUSH3 0x461BCD PUSH1 0xE5 SHL DUP2 MSTORE PUSH1 0x20 PUSH1 0x4 DUP3 ADD MSTORE PUSH1 0x23 PUSH1 0x24 DUP3 ADD MSTORE PUSH32 0x45524332303A207472616E7366657220746F20746865207A65726F2061646472 PUSH1 0x44 DUP3 ADD MSTORE PUSH3 0x657373 PUSH1 0xE8 SHL PUSH1 0x64 DUP3 ADD MSTORE PUSH1 0x84 ADD PUSH2 0xB14 JUMP JUMPDEST PUSH1 0x1 PUSH1 0x1 PUSH1 0xA0 SHL SUB DUP4 AND PUSH1 0x0 SWAP1 DUP2 MSTORE PUSH1 0x20 DUP2 SWAP1 MSTORE PUSH1 0x40 SWAP1 KECCAK256 SLOAD DUP2 DUP2 LT ISZERO PUSH2 0x29FD JUMPI PUSH1 0x40 MLOAD PUSH3 0x461BCD PUSH1 0xE5 SHL DUP2 MSTORE PUSH1 0x20 PUSH1 0x4 DUP3 ADD MSTORE PUSH1 0x26 PUSH1 0x24 DUP3 ADD MSTORE PUSH32 0x45524332303A207472616E7366657220616D6F756E7420657863656564732062 PUSH1 0x44 DUP3 ADD MSTORE PUSH6 0x616C616E6365 PUSH1 0xD0 SHL PUSH1 0x64 DUP3 ADD MSTORE PUSH1 0x84 ADD PUSH2 0xB14 JUMP JUMPDEST PUSH1 0x1 PUSH1 0x1 PUSH1 0xA0 SHL SUB DUP1 DUP6 AND PUSH1 0x0 SWAP1 DUP2 MSTORE PUSH1 0x20 DUP2 SWAP1 MSTORE PUSH1 0x40 DUP1 DUP3 KECCAK256 DUP6 DUP6 SUB SWAP1 SSTORE SWAP2 DUP6 AND DUP2 MSTORE SWAP1 DUP2 KECCAK256 DUP1 SLOAD DUP5 SWAP3 SWAP1 PUSH2 0x2A34 SWAP1 DUP5 SWAP1 PUSH2 0x373F JUMP JUMPDEST SWAP3 POP POP DUP2 SWAP1 SSTORE POP DUP3 PUSH1 0x1 PUSH1 0x1 PUSH1 0xA0 SHL SUB AND DUP5 PUSH1 0x1 PUSH1 0x1 PUSH1 0xA0 SHL SUB AND PUSH32 0xDDF252AD1BE2C89B69C2B068FC378DAA952BA7F163C4A11628F55A4DF523B3EF DUP5 PUSH1 0x40 MLOAD PUSH2 0x2A80 SWAP2 DUP2 MSTORE PUSH1 0x20 ADD SWAP1 JUMP JUMPDEST PUSH1 0x40 MLOAD DUP1 SWAP2 SUB SWAP1 LOG3 PUSH2 0x28B9 JUMP JUMPDEST PUSH1 0x1 PUSH1 0x1 PUSH1 0xA0 SHL SUB DUP3 AND PUSH2 0x2AED JUMPI PUSH1 0x40 MLOAD PUSH3 0x461BCD PUSH1 0xE5 SHL DUP2 MSTORE PUSH1 0x20 PUSH1 0x4 DUP3 ADD MSTORE PUSH1 0x21 PUSH1 0x24 DUP3 ADD MSTORE PUSH32 0x45524332303A206275726E2066726F6D20746865207A65726F20616464726573 PUSH1 0x44 DUP3 ADD MSTORE PUSH1 0x73 PUSH1 0xF8 SHL PUSH1 0x64 DUP3 ADD MSTORE PUSH1 0x84 ADD PUSH2 0xB14 JUMP JUMPDEST PUSH1 0x1 PUSH1 0x1 PUSH1 0xA0 SHL SUB DUP3 AND PUSH1 0x0 SWAP1 DUP2 MSTORE PUSH1 0x20 DUP2 SWAP1 MSTORE PUSH1 0x40 SWAP1 KECCAK256 SLOAD DUP2 DUP2 LT ISZERO PUSH2 0x2B61 JUMPI PUSH1 0x40 MLOAD PUSH3 0x461BCD PUSH1 0xE5 SHL DUP2 MSTORE PUSH1 0x20 PUSH1 0x4 DUP3 ADD MSTORE PUSH1 0x22 PUSH1 0x24 DUP3 ADD MSTORE PUSH32 0x45524332303A206275726E20616D6F756E7420657863656564732062616C616E PUSH1 0x44 DUP3 ADD MSTORE PUSH2 0x6365 PUSH1 0xF0 SHL PUSH1 0x64 DUP3 ADD MSTORE PUSH1 0x84 ADD PUSH2 0xB14 JUMP JUMPDEST PUSH1 0x1 PUSH1 0x1 PUSH1 0xA0 SHL SUB DUP4 AND PUSH1 0x0 SWAP1 DUP2 MSTORE PUSH1 0x20 DUP2 SWAP1 MSTORE PUSH1 0x40 DUP2 KECCAK256 DUP4 DUP4 SUB SWAP1 SSTORE PUSH1 0x2 DUP1 SLOAD DUP5 SWAP3 SWAP1 PUSH2 0x2B90 SWAP1 DUP5 SWAP1 PUSH2 0x3547 JUMP JUMPDEST SWAP1 SWAP2 SSTORE POP POP PUSH1 0x40 MLOAD DUP3 DUP2 MSTORE PUSH1 0x0 SWAP1 PUSH1 0x1 PUSH1 0x1 PUSH1 0xA0 SHL SUB DUP6 AND SWAP1 PUSH32 0xDDF252AD1BE2C89B69C2B068FC378DAA952BA7F163C4A11628F55A4DF523B3EF SWAP1 PUSH1 0x20 ADD PUSH2 0x2607 JUMP JUMPDEST PUSH1 0x0 DUP3 TIMESTAMP GT ISZERO PUSH2 0x2C26 JUMPI PUSH1 0x0 PUSH2 0x16D PUSH2 0x2BEC DUP7 DUP6 PUSH2 0x34A2 JUMP JUMPDEST PUSH2 0x2BF9 SWAP1 PUSH3 0xF4240 PUSH2 0x34A2 JUMP JUMPDEST PUSH2 0x2C03 SWAP2 SWAP1 PUSH2 0x3533 JUMP JUMPDEST SWAP1 POP PUSH4 0x5F5E100 PUSH2 0x2C14 DUP3 DUP9 PUSH2 0x34A2 JUMP JUMPDEST PUSH2 0x2C1E SWAP2 SWAP1 PUSH2 0x3533 JUMP JUMPDEST SWAP2 POP POP PUSH2 0x22F5 JUMP JUMPDEST POP PUSH1 0x0 SWAP5 SWAP4 POP POP POP POP JUMP JUMPDEST PUSH1 0x0 DUP1 DUP1 PUSH2 0x2C5F PUSH32 0x0 TIMESTAMP PUSH2 0x3547 JUMP JUMPDEST SWAP1 POP PUSH1 0x5 SLOAD DUP2 LT ISZERO PUSH2 0x2C70 JUMPI PUSH1 0x1 SWAP2 POP JUMPDEST POP SWAP2 SWAP1 POP JUMP JUMPDEST PUSH1 0x0 PUSH2 0x1388 PUSH1 0x6 SLOAD GT ISZERO PUSH2 0x2D6F JUMPI PUSH1 0x0 PUSH2 0x2CA4 PUSH2 0x22DE PUSH2 0x2C96 PUSH1 0xF PUSH2 0x3045 JUMP JUMPDEST PUSH2 0x22B7 PUSH2 0x227C PUSH1 0x6 SLOAD PUSH2 0x3045 JUMP JUMPDEST PUSH8 0xFFFFFFFFFFFFFFFF AND SWAP1 POP PUSH1 0x0 PUSH2 0x2CBF PUSH3 0x15180 DUP4 PUSH2 0x34A2 JUMP JUMPDEST PUSH2 0x2CCD PUSH3 0x15180 PUSH1 0x64 PUSH2 0x34A2 JUMP JUMPDEST PUSH2 0x2CD7 SWAP2 SWAP1 PUSH2 0x373F JUMP JUMPDEST SWAP1 POP PUSH20 0x0 PUSH4 0x7AE2B5C7 DUP3 PUSH2 0x2D03 PUSH3 0x15180 PUSH2 0x3E8 PUSH2 0x34A2 JUMP JUMPDEST PUSH1 0x40 MLOAD PUSH1 0x1 PUSH1 0x1 PUSH1 0xE0 SHL SUB NOT PUSH1 0xE0 DUP6 SWAP1 SHL AND DUP2 MSTORE PUSH1 0x4 DUP2 ADD SWAP3 SWAP1 SWAP3 MSTORE PUSH1 0x24 DUP3 ADD MSTORE PUSH1 0x44 ADD PUSH1 0x20 PUSH1 0x40 MLOAD DUP1 DUP4 SUB DUP2 DUP7 GAS DELEGATECALL ISZERO DUP1 ISZERO PUSH2 0x2D44 JUMPI RETURNDATASIZE PUSH1 0x0 DUP1 RETURNDATACOPY RETURNDATASIZE PUSH1 0x0 REVERT JUMPDEST POP POP POP POP PUSH1 0x40 MLOAD RETURNDATASIZE PUSH1 0x1F NOT PUSH1 0x1F DUP3 ADD AND DUP3 ADD DUP1 PUSH1 0x40 MSTORE POP DUP2 ADD SWAP1 PUSH2 0x2D68 SWAP2 SWAP1 PUSH2 0x3769 JUMP JUMPDEST SWAP3 POP POP POP SWAP1 JUMP JUMPDEST PUSH2 0x1481 PUSH3 0x15180 PUSH1 0x64 PUSH2 0x34A2 JUMP JUMPDEST PUSH1 0x40 MLOAD DUP1 PUSH1 0x80 ADD PUSH1 0x40 MSTORE DUP1 DUP3 DUP2 MSTORE PUSH1 0x20 ADD PUSH3 0x15180 DUP4 PUSH2 0x2D9D SWAP2 SWAP1 PUSH2 0x34A2 JUMP JUMPDEST PUSH2 0x2DA7 SWAP1 TIMESTAMP PUSH2 0x373F JUMP JUMPDEST DUP2 MSTORE PUSH1 0x20 ADD DUP4 DUP2 MSTORE PUSH1 0x20 ADD PUSH2 0x2DBA PUSH2 0x2E64 JUMP JUMPDEST SWAP1 MSTORE CALLER PUSH1 0x0 SWAP1 DUP2 MSTORE PUSH1 0xB PUSH1 0x20 SWAP1 DUP2 MSTORE PUSH1 0x40 DUP1 DUP4 KECCAK256 DUP5 MLOAD DUP2 SSTORE SWAP2 DUP5 ADD MLOAD PUSH1 0x1 DUP4 ADD SSTORE DUP4 ADD MLOAD PUSH1 0x2 DUP3 ADD SSTORE PUSH1 0x60 SWAP1 SWAP3 ADD MLOAD PUSH1 0x3 SWAP1 SWAP3 ADD SWAP2 SWAP1 SWAP2 SSTORE PUSH1 0x8 DUP1 SLOAD SWAP2 PUSH2 0x2E00 DUP4 PUSH2 0x37A4 JUMP JUMPDEST SWAP2 SWAP1 POP SSTORE POP DUP2 PUSH1 0x9 PUSH1 0x0 DUP3 DUP3 SLOAD PUSH2 0x2E17 SWAP2 SWAP1 PUSH2 0x373F JUMP JUMPDEST SWAP1 SWAP2 SSTORE POP POP POP POP JUMP JUMPDEST PUSH1 0x0 DUP1 PUSH3 0x186A0 PUSH1 0x6 SLOAD PUSH1 0x1 PUSH2 0x2E36 SWAP2 SWAP1 PUSH2 0x34A2 JUMP JUMPDEST PUSH2 0x2E40 SWAP2 SWAP1 PUSH2 0x3533 JUMP JUMPDEST SWAP1 POP PUSH1 0x64 DUP2 GT ISZERO PUSH2 0x2E53 JUMPI PUSH1 0x0 SWAP2 POP POP SWAP1 JUMP JUMPDEST PUSH2 0x2E5E DUP2 PUSH1 0x64 PUSH2 0x3547 JUMP JUMPDEST SWAP2 POP POP SWAP1 JUMP JUMPDEST PUSH1 0x0 DUP1 PUSH2 0x2E75 PUSH1 0x5A PUSH3 0x15180 PUSH2 0x34A2 JUMP JUMPDEST PUSH2 0x2E9F PUSH32 0x0 TIMESTAMP PUSH2 0x3547 JUMP JUMPDEST PUSH2 0x2EA9 SWAP2 SWAP1 PUSH2 0x3533 JUMP JUMPDEST SWAP1 POP DUP1 PUSH2 0x2EB8 PUSH1 0x2 PUSH1 0x14 PUSH2 0x3547 JUMP JUMPDEST LT ISZERO PUSH2 0x2EC6 JUMPI PUSH1 0x2 SWAP2 POP POP SWAP1 JUMP JUMPDEST PUSH2 0x2E5E DUP2 PUSH1 0x14 PUSH2 0x3547 JUMP JUMPDEST PUSH1 0x0 DUP1 PUSH3 0x15180 PUSH2 0x2F02 PUSH32 0x0 TIMESTAMP PUSH2 0x3547 JUMP JUMPDEST PUSH2 0x2F0C SWAP2 SWAP1 PUSH2 0x3533 JUMP JUMPDEST SWAP1 POP PUSH2 0x12C DUP2 LT ISZERO PUSH2 0x2FA5 JUMPI PUSH20 0x0 PUSH4 0x6D5433E6 PUSH2 0x2F3E DUP4 PUSH2 0x12C PUSH2 0x3547 JUMP JUMPDEST PUSH1 0x40 MLOAD PUSH1 0x1 PUSH1 0x1 PUSH1 0xE0 SHL SUB NOT PUSH1 0xE0 DUP5 SWAP1 SHL AND DUP2 MSTORE PUSH1 0x4 DUP2 ADD SWAP2 SWAP1 SWAP2 MSTORE PUSH1 0x1 PUSH1 0x24 DUP3 ADD MSTORE PUSH1 0x44 ADD PUSH1 0x20 PUSH1 0x40 MLOAD DUP1 DUP4 SUB DUP2 DUP7 GAS DELEGATECALL ISZERO DUP1 ISZERO PUSH2 0x2F81 JUMPI RETURNDATASIZE PUSH1 0x0 DUP1 RETURNDATACOPY RETURNDATASIZE PUSH1 0x0 REVERT JUMPDEST POP POP POP POP PUSH1 0x40 MLOAD RETURNDATASIZE PUSH1 0x1F NOT PUSH1 0x1F DUP3 ADD AND DUP3 ADD DUP1 PUSH1 0x40 MSTORE POP DUP2 ADD SWAP1 PUSH2 0x2E5E SWAP2 SWAP1 PUSH2 0x3769 JUMP JUMPDEST PUSH1 0x1 SWAP2 POP POP SWAP1 JUMP JUMPDEST PUSH1 0x0 PUSH32 0x0 PUSH1 0x1 PUSH1 0x1 PUSH1 0xA0 SHL SUB AND PUSH4 0x1C244082 PUSH1 0x40 MLOAD DUP2 PUSH4 0xFFFFFFFF AND PUSH1 0xE0 SHL DUP2 MSTORE PUSH1 0x4 ADD PUSH1 0x20 PUSH1 0x40 MLOAD DUP1 DUP4 SUB DUP2 DUP7 GAS STATICCALL ISZERO DUP1 ISZERO PUSH2 0x300D JUMPI RETURNDATASIZE PUSH1 0x0 DUP1 RETURNDATACOPY RETURNDATASIZE PUSH1 0x0 REVERT JUMPDEST POP POP POP POP PUSH1 0x40 MLOAD RETURNDATASIZE PUSH1 0x1F NOT PUSH1 0x1F DUP3 ADD AND DUP3 ADD DUP1 PUSH1 0x40 MSTORE POP DUP2 ADD SWAP1 PUSH2 0x3031 SWAP2 SWAP1 PUSH2 0x3769 JUMP JUMPDEST PUSH1 0x6 SLOAD SWAP1 SWAP2 POP DUP2 DUP2 LT ISZERO PUSH2 0x599 JUMPI POP PUSH1 0x6 SSTORE JUMP JUMPDEST PUSH1 0x0 PUSH8 0x7FFFFFFFFFFFFFFF DUP3 GT ISZERO PUSH2 0x305C JUMPI PUSH1 0x0 DUP1 REVERT JUMPDEST POP PUSH1 0x40 SHL SWAP1 JUMP JUMPDEST PUSH1 0x0 DUP1 DUP3 PUSH1 0xF SIGNEXTEND SGT PUSH2 0x3074 JUMPI PUSH1 0x0 DUP1 REVERT JUMPDEST PUSH1 0x0 PUSH1 0xF DUP4 SWAP1 SIGNEXTEND PUSH9 0x10000000000000000 DUP2 SLT PUSH2 0x3093 JUMPI PUSH1 0x40 SWAP2 DUP3 ADD SWAP2 SAR JUMPDEST PUSH5 0x100000000 DUP2 SLT PUSH2 0x30A7 JUMPI PUSH1 0x20 SWAP2 DUP3 ADD SWAP2 SAR JUMPDEST PUSH3 0x10000 DUP2 SLT PUSH2 0x30B9 JUMPI PUSH1 0x10 SWAP2 DUP3 ADD SWAP2 SAR JUMPDEST PUSH2 0x100 DUP2 SLT PUSH2 0x30CA JUMPI PUSH1 0x8 SWAP2 DUP3 ADD SWAP2 SAR JUMPDEST PUSH1 0x10 DUP2 SLT PUSH2 0x30DA JUMPI PUSH1 0x4 SWAP2 DUP3 ADD SWAP2 SAR JUMPDEST PUSH1 0x4 DUP2 SLT PUSH2 0x30EA JUMPI PUSH1 0x2 SWAP2 DUP3 ADD SWAP2 SAR JUMPDEST PUSH1 0x2 DUP2 SLT PUSH2 0x30F9 JUMPI PUSH1 0x1 DUP3 ADD SWAP2 POP JUMPDEST PUSH1 0x3F NOT DUP3 ADD PUSH1 0x40 SHL PUSH1 0xF DUP6 SWAP1 SIGNEXTEND PUSH1 0x7F DUP5 SWAP1 SUB SHL PUSH8 0x8000000000000000 JUMPDEST PUSH1 0x0 DUP2 SGT ISZERO PUSH2 0x313C JUMPI SWAP1 DUP1 MUL PUSH1 0xFF DUP2 SWAP1 SHR DUP3 DUP2 MUL SWAP4 SWAP1 SWAP4 ADD SWAP3 PUSH1 0x7F ADD SHR SWAP1 PUSH1 0x1 SAR PUSH2 0x3116 JUMP JUMPDEST POP SWAP1 SWAP6 SWAP5 POP POP POP POP POP JUMP JUMPDEST PUSH1 0x0 PUSH1 0xF DUP4 DUP2 SIGNEXTEND SWAP1 DUP4 SWAP1 SIGNEXTEND MUL PUSH1 0x40 SAR PUSH1 0x1 PUSH1 0x1 PUSH1 0x7F SHL SUB NOT DUP2 SLT DUP1 ISZERO SWAP1 PUSH2 0x3175 JUMPI POP PUSH1 0x1 PUSH1 0x1 PUSH1 0x7F SHL SUB DUP2 SGT ISZERO JUMPDEST PUSH2 0x317E JUMPI PUSH1 0x0 DUP1 REVERT JUMPDEST SWAP4 SWAP3 POP POP POP JUMP JUMPDEST PUSH1 0x0 DUP2 PUSH1 0xF SIGNEXTEND PUSH1 0x0 SUB PUSH2 0x3197 JUMPI PUSH1 0x0 DUP1 REVERT JUMPDEST PUSH1 0x0 DUP3 PUSH1 0xF SIGNEXTEND PUSH1 0x40 DUP6 PUSH1 0xF SIGNEXTEND SWAP1 SHL DUP2 PUSH2 0x31B2 JUMPI PUSH2 0x31B2 PUSH2 0x351D JUMP JUMPDEST SDIV SWAP1 POP PUSH1 0x1 PUSH1 0x1 PUSH1 0x7F SHL SUB NOT DUP2 SLT DUP1 ISZERO SWAP1 PUSH2 0x3175 JUMPI POP PUSH1 0x1 PUSH1 0x1 PUSH1 0x7F SHL SUB DUP2 SGT ISZERO PUSH2 0x317E JUMPI PUSH1 0x0 DUP1 REVERT JUMPDEST PUSH1 0x0 DUP1 DUP3 PUSH1 0xF SIGNEXTEND SLT ISZERO PUSH2 0x31EE JUMPI PUSH1 0x0 DUP1 REVERT JUMPDEST POP PUSH1 0xF SIGNEXTEND PUSH1 0x40 SAR SWAP1 JUMP JUMPDEST PUSH1 0x0 DUP1 PUSH2 0x3208 PUSH3 0x15180 DUP5 PUSH2 0x3533 JUMP JUMPDEST SWAP1 POP PUSH2 0x3216 PUSH1 0x1 PUSH1 0x7 PUSH2 0x3547 JUMP JUMPDEST DUP2 GT ISZERO PUSH2 0x3226 JUMPI POP PUSH1 0x63 SWAP3 SWAP2 POP POP JUMP JUMPDEST PUSH1 0x0 PUSH1 0x1 PUSH1 0x7 PUSH2 0x3237 DUP5 PUSH1 0x3 PUSH2 0x373F JUMP JUMPDEST PUSH1 0x1 SWAP1 SHL PUSH2 0x3245 SWAP2 SWAP1 PUSH2 0x3533 JUMP JUMPDEST PUSH2 0x324F SWAP2 SWAP1 PUSH2 0x3547 JUMP JUMPDEST PUSH1 0x40 MLOAD PUSH4 0x7AE2B5C7 PUSH1 0xE0 SHL DUP2 MSTORE PUSH1 0x4 DUP2 ADD DUP3 SWAP1 MSTORE PUSH1 0x63 PUSH1 0x24 DUP3 ADD MSTORE SWAP1 SWAP2 POP PUSH20 0x0 SWAP1 PUSH4 0x7AE2B5C7 SWAP1 PUSH1 0x44 ADD PUSH1 0x20 PUSH1 0x40 MLOAD DUP1 DUP4 SUB DUP2 DUP7 GAS DELEGATECALL ISZERO DUP1 ISZERO PUSH2 0x32A9 JUMPI RETURNDATASIZE PUSH1 0x0 DUP1 RETURNDATACOPY RETURNDATASIZE PUSH1 0x0 REVERT JUMPDEST POP POP POP POP PUSH1 0x40 MLOAD RETURNDATASIZE PUSH1 0x1F NOT PUSH1 0x1F DUP3 ADD AND DUP3 ADD DUP1 PUSH1 0x40 MSTORE POP DUP2 ADD SWAP1 PUSH2 0x22F5 SWAP2 SWAP1 PUSH2 0x3769 JUMP JUMPDEST PUSH1 0x0 PUSH1 0x20 DUP1 DUP4 MSTORE DUP4 MLOAD DUP1 DUP3 DUP6 ADD MSTORE PUSH1 0x0 JUMPDEST DUP2 DUP2 LT ISZERO PUSH2 0x32FA JUMPI DUP6 DUP2 ADD DUP4 ADD MLOAD DUP6 DUP3 ADD PUSH1 0x40 ADD MSTORE DUP3 ADD PUSH2 0x32DE JUMP JUMPDEST POP PUSH1 0x0 PUSH1 0x40 DUP3 DUP7 ADD ADD MSTORE PUSH1 0x40 PUSH1 0x1F NOT PUSH1 0x1F DUP4 ADD AND DUP6 ADD ADD SWAP3 POP POP POP SWAP3 SWAP2 POP POP JUMP JUMPDEST DUP1 CALLDATALOAD PUSH1 0x1 PUSH1 0x1 PUSH1 0xA0 SHL SUB DUP2 AND DUP2 EQ PUSH2 0x3332 JUMPI PUSH1 0x0 DUP1 REVERT JUMPDEST SWAP2 SWAP1 POP JUMP JUMPDEST PUSH1 0x0 DUP1 PUSH1 0x40 DUP4 DUP6 SUB SLT ISZERO PUSH2 0x334A JUMPI PUSH1 0x0 DUP1 REVERT JUMPDEST PUSH2 0x3353 DUP4 PUSH2 0x331B JUMP JUMPDEST SWAP5 PUSH1 0x20 SWAP4 SWAP1 SWAP4 ADD CALLDATALOAD SWAP4 POP POP POP JUMP JUMPDEST PUSH1 0x0 DUP1 PUSH1 0x0 PUSH1 0x60 DUP5 DUP7 SUB SLT ISZERO PUSH2 0x3376 JUMPI PUSH1 0x0 DUP1 REVERT JUMPDEST PUSH2 0x337F DUP5 PUSH2 0x331B JUMP JUMPDEST SWAP3 POP PUSH2 0x338D PUSH1 0x20 DUP6 ADD PUSH2 0x331B JUMP JUMPDEST SWAP2 POP PUSH1 0x40 DUP5 ADD CALLDATALOAD SWAP1 POP SWAP3 POP SWAP3 POP SWAP3 JUMP JUMPDEST PUSH1 0x0 PUSH1 0x20 DUP3 DUP5 SUB SLT ISZERO PUSH2 0x33AF JUMPI PUSH1 0x0 DUP1 REVERT JUMPDEST PUSH2 0x317E DUP3 PUSH2 0x331B JUMP JUMPDEST PUSH1 0x0 DUP1 PUSH1 0x40 DUP4 DUP6 SUB SLT ISZERO PUSH2 0x33CB JUMPI PUSH1 0x0 DUP1 REVERT JUMPDEST POP POP DUP1 CALLDATALOAD SWAP3 PUSH1 0x20 SWAP1 SWAP2 ADD CALLDATALOAD SWAP2 POP JUMP JUMPDEST PUSH1 0x0 PUSH1 0x20 DUP3 DUP5 SUB SLT ISZERO PUSH2 0x33EC JUMPI PUSH1 0x0 DUP1 REVERT JUMPDEST POP CALLDATALOAD SWAP2 SWAP1 POP JUMP JUMPDEST PUSH1 0x0 DUP1 PUSH1 0x0 DUP1 PUSH1 0x80 DUP6 DUP8 SUB SLT ISZERO PUSH2 0x3409 JUMPI PUSH1 0x0 DUP1 REVERT JUMPDEST POP POP DUP3 CALLDATALOAD SWAP5 PUSH1 0x20 DUP5 ADD CALLDATALOAD SWAP5 POP PUSH1 0x40 DUP5 ADD CALLDATALOAD SWAP4 PUSH1 0x60 ADD CALLDATALOAD SWAP3 POP SWAP1 POP JUMP JUMPDEST PUSH1 0x0 DUP1 PUSH1 0x40 DUP4 DUP6 SUB SLT ISZERO PUSH2 0x3438 JUMPI PUSH1 0x0 DUP1 REVERT JUMPDEST PUSH2 0x3441 DUP4 PUSH2 0x331B JUMP JUMPDEST SWAP2 POP PUSH2 0x344F PUSH1 0x20 DUP5 ADD PUSH2 0x331B JUMP JUMPDEST SWAP1 POP SWAP3 POP SWAP3 SWAP1 POP JUMP JUMPDEST PUSH1 0x1 DUP2 DUP2 SHR SWAP1 DUP3 AND DUP1 PUSH2 0x346C JUMPI PUSH1 0x7F DUP3 AND SWAP2 POP JUMPDEST PUSH1 0x20 DUP3 LT DUP2 SUB PUSH2 0x2C70 JUMPI PUSH4 0x4E487B71 PUSH1 0xE0 SHL PUSH1 0x0 MSTORE PUSH1 0x22 PUSH1 0x4 MSTORE PUSH1 0x24 PUSH1 0x0 REVERT JUMPDEST PUSH4 0x4E487B71 PUSH1 0xE0 SHL PUSH1 0x0 MSTORE PUSH1 0x11 PUSH1 0x4 MSTORE PUSH1 0x24 PUSH1 0x0 REVERT JUMPDEST DUP1 DUP3 MUL DUP2 ISZERO DUP3 DUP3 DIV DUP5 EQ OR PUSH2 0x9D5 JUMPI PUSH2 0x9D5 PUSH2 0x348C JUMP JUMPDEST PUSH1 0x20 DUP1 DUP3 MSTORE PUSH1 0x15 SWAP1 DUP3 ADD MSTORE PUSH21 0x4352616E6B3A204E6F206D696E7420657869737473 PUSH1 0x58 SHL PUSH1 0x40 DUP3 ADD MSTORE PUSH1 0x60 ADD SWAP1 JUMP JUMPDEST PUSH1 0x20 DUP1 DUP3 MSTORE DUP2 DUP2 ADD MSTORE PUSH32 0x4352616E6B3A204D696E74206D61747572697479206E6F742072656163686564 PUSH1 0x40 DUP3 ADD MSTORE PUSH1 0x60 ADD SWAP1 JUMP JUMPDEST PUSH4 0x4E487B71 PUSH1 0xE0 SHL PUSH1 0x0 MSTORE PUSH1 0x12 PUSH1 0x4 MSTORE PUSH1 0x24 PUSH1 0x0 REVERT JUMPDEST PUSH1 0x0 DUP3 PUSH2 0x3542 JUMPI PUSH2 0x3542 PUSH2 0x351D JUMP JUMPDEST POP DIV SWAP1 JUMP JUMPDEST DUP2 DUP2 SUB DUP2 DUP2 GT ISZERO PUSH2 0x9D5 JUMPI PUSH2 0x9D5 PUSH2 0x348C JUMP JUMPDEST PUSH1 0x20 DUP1 DUP3 MSTORE PUSH1 0xC SWAP1 DUP3 ADD MSTORE PUSH12 0x24B73B30B634B2102AB9B2B9 PUSH1 0xA1 SHL PUSH1 0x40 DUP3 ADD MSTORE PUSH1 0x60 ADD SWAP1 JUMP JUMPDEST PUSH1 0x0 DUP3 PUSH2 0x358F JUMPI PUSH2 0x358F PUSH2 0x351D JUMP JUMPDEST POP MOD SWAP1 JUMP JUMPDEST PUSH1 0x20 DUP1 DUP3 MSTORE PUSH1 0x2A SWAP1 DUP3 ADD MSTORE PUSH32 0x416D6F756E74206D7573742062652061206D756C7469706C65206F6620504F57 PUSH1 0x40 DUP3 ADD MSTORE PUSH10 0x22A92FA822A92FAC22A7 PUSH1 0xB1 SHL PUSH1 0x60 DUP3 ADD MSTORE PUSH1 0x80 ADD SWAP1 JUMP JUMPDEST PUSH1 0x20 DUP1 DUP3 MSTORE PUSH1 0x22 SWAP1 DUP3 ADD MSTORE PUSH32 0x4275726E3A20596F752063616E74206275726E2066726F6D2061646472657373 PUSH1 0x40 DUP3 ADD MSTORE PUSH2 0x203 PUSH1 0xF4 SHL PUSH1 0x60 DUP3 ADD MSTORE PUSH1 0x80 ADD SWAP1 JUMP JUMPDEST PUSH1 0x20 DUP1 DUP3 MSTORE PUSH1 0x15 SWAP1 DUP3 ADD MSTORE PUSH21 0x109D5C9B8E8810995B1BDDC81B5A5B881B1A5B5A5D PUSH1 0x5A SHL PUSH1 0x40 DUP3 ADD MSTORE PUSH1 0x60 ADD SWAP1 JUMP JUMPDEST PUSH1 0x1 DUP2 DUP2 JUMPDEST DUP1 DUP6 GT ISZERO PUSH2 0x368A JUMPI DUP2 PUSH1 0x0 NOT DIV DUP3 GT ISZERO PUSH2 0x3670 JUMPI PUSH2 0x3670 PUSH2 0x348C JUMP JUMPDEST DUP1 DUP6 AND ISZERO PUSH2 0x367D JUMPI SWAP2 DUP2 MUL SWAP2 JUMPDEST SWAP4 DUP5 SHR SWAP4 SWAP1 DUP1 MUL SWAP1 PUSH2 0x3654 JUMP JUMPDEST POP SWAP3 POP SWAP3 SWAP1 POP JUMP JUMPDEST PUSH1 0x0 DUP3 PUSH2 0x36A1 JUMPI POP PUSH1 0x1 PUSH2 0x9D5 JUMP JUMPDEST DUP2 PUSH2 0x36AE JUMPI POP PUSH1 0x0 PUSH2 0x9D5 JUMP JUMPDEST DUP2 PUSH1 0x1 DUP2 EQ PUSH2 0x36C4 JUMPI PUSH1 0x2 DUP2 EQ PUSH2 0x36CE JUMPI PUSH2 0x36EA JUMP JUMPDEST PUSH1 0x1 SWAP2 POP POP PUSH2 0x9D5 JUMP JUMPDEST PUSH1 0xFF DUP5 GT ISZERO PUSH2 0x36DF JUMPI PUSH2 0x36DF PUSH2 0x348C JUMP JUMPDEST POP POP PUSH1 0x1 DUP3 SHL PUSH2 0x9D5 JUMP JUMPDEST POP PUSH1 0x20 DUP4 LT PUSH2 0x133 DUP4 LT AND PUSH1 0x4E DUP5 LT PUSH1 0xB DUP5 LT AND OR ISZERO PUSH2 0x370D JUMPI POP DUP2 DUP2 EXP PUSH2 0x9D5 JUMP JUMPDEST PUSH2 0x3717 DUP4 DUP4 PUSH2 0x364F JUMP JUMPDEST DUP1 PUSH1 0x0 NOT DIV DUP3 GT ISZERO PUSH2 0x372B JUMPI PUSH2 0x372B PUSH2 0x348C JUMP JUMPDEST MUL SWAP4 SWAP3 POP POP POP JUMP JUMPDEST PUSH1 0x0 PUSH2 0x317E DUP4 DUP4 PUSH2 0x3692 JUMP JUMPDEST DUP1 DUP3 ADD DUP1 DUP3 GT ISZERO PUSH2 0x9D5 JUMPI PUSH2 0x9D5 PUSH2 0x348C JUMP JUMPDEST PUSH1 0x0 DUP2 PUSH2 0x3761 JUMPI PUSH2 0x3761 PUSH2 0x348C JUMP JUMPDEST POP PUSH1 0x0 NOT ADD SWAP1 JUMP JUMPDEST PUSH1 0x0 PUSH1 0x20 DUP3 DUP5 SUB SLT ISZERO PUSH2 0x377B JUMPI PUSH1 0x0 DUP1 REVERT JUMPDEST POP MLOAD SWAP2 SWAP1 POP JUMP JUMPDEST PUSH1 0x0 PUSH1 0x20 DUP3 DUP5 SUB SLT ISZERO PUSH2 0x3794 JUMPI PUSH1 0x0 DUP1 REVERT JUMPDEST DUP2 MLOAD DUP1 ISZERO ISZERO DUP2 EQ PUSH2 0x317E JUMPI PUSH1 0x0 DUP1 REVERT JUMPDEST PUSH1 0x0 PUSH1 0x1 DUP3 ADD PUSH2 0x37B6 JUMPI PUSH2 0x37B6 PUSH2 0x348C JUMP JUMPDEST POP PUSH1 0x1 ADD SWAP1 JUMP INVALID POP PUSH6 0x7073204C6162 KECCAK256 BLOCKHASH 0x4D PUSH19 0x4A61636B4C6576696E20406C62656C79616576 KECCAK256 PUSH7 0x61697263727970 PUSH21 0x6F2E6F7267A2646970667358221220BF43D7B004CB 0xAA 0xC1 SWAP14 SWAP6 0xB4 MSTORE8 ORIGIN EQ SWAP2 0xC PUSH6 0x9BD1DEBE85DF MUL 0xD5 PUSH14 0xB053AC19CD0064736F6C63430008 SLT STOP CALLER "
		},
		"gasEstimates": {
			"creation": {
				"codeDepositCost": "2873800",
				"executionCost": "infinite",
				"totalCost": "infinite"
			},
			"external": {
				"AUTHORS()": "infinite",
				"DAYS_IN_YEAR()": "254",
				"EAA_PM_START()": "318",
				"EAA_PM_STEP()": "296",
				"EAA_RANK_STEP()": "316",
				"GENESIS_RANK()": "319",
				"GetPower(address,uint256)": "infinite",
				"GetPowerandShare(address,address,uint256)": "infinite",
				"GetXENEW(address,uint256)": "infinite",
				"MAX_PENALTY_PCT()": "275",
				"MAX_TERM_BRIDGE()": "2396",
				"MAX_TERM_END()": "418",
				"MAX_TERM_START()": "353",
				"MIN_TERM()": "infinite",
				"POWER_PER_XEN()": "272",
				"REWARD_AMPLIFIER_END()": "296",
				"REWARD_AMPLIFIER_START()": "317",
				"SECONDS_IN_DAY()": "273",
				"SacrifyPower(address,uint256)": "infinite",
				"SendPower(address,address,uint256)": "infinite",
				"TERM_AMPLIFIER()": "275",
				"TERM_AMPLIFIER_THRESHOLD()": "339",
				"WITHDRAWAL_WINDOW_DAYS()": "251",
				"XEN_APY_DAYS_STEP()": "297",
				"XEN_APY_END()": "319",
				"XEN_APY_START()": "338",
				"XEN_MIN_BURN()": "297",
				"XEN_MIN_STAKE()": "274",
				"activeMinters()": "2352",
				"activeStakes()": "2350",
				"allowance(address,address)": "infinite",
				"approve(address,uint256)": "24742",
				"balanceOf(address)": "2684",
				"burn(address,uint256)": "infinite",
				"claimMintReward()": "infinite",
				"claimMintRewardAndShare(address,uint256)": "infinite",
				"claimMintRewardAndStake(uint256,uint256)": "infinite",
				"claimRank(uint256)": "infinite",
				"decimals()": "246",
				"decreaseAllowance(address,uint256)": "27040",
				"genesisTs()": "infinite",
				"getCurrentAMP()": "infinite",
				"getCurrentAPY()": "infinite",
				"getCurrentEAAR()": "infinite",
				"getCurrentMaxTerm()": "infinite",
				"getGrossReward(uint256,uint256,uint256,uint256)": "infinite",
				"getUserMint()": "13564",
				"getUserStake()": "9168",
				"globalRank()": "2375",
				"increaseAllowance(address,uint256)": "infinite",
				"name()": "infinite",
				"oldXenBurns(address)": "2619",
				"onTokenBurned(address,uint256)": "405",
				"owner()": "2427",
				"powerBalances(address)": "2576",
				"powerSacrify(address)": "2619",
				"stake(uint256,uint256)": "infinite",
				"symbol()": "infinite",
				"totalSupply()": "2350",
				"totalXenStaked()": "2376",
				"transfer(address,uint256)": "infinite",
				"transferFrom(address,address,uint256)": "infinite",
				"userBurns(address)": "2597",
				"userMints(address)": "13321",
				"userStakes(address)": "9033",
				"withdraw()": "infinite",
				"xenCrypto()": "infinite"
			},
			"internal": {
				"_calculateAPY()": "infinite",
				"_calculateEAARate()": "infinite",
				"_calculateMaxTerm()": "infinite",
				"_calculateMintReward(uint256,uint256,uint256,uint256,uint256)": "infinite",
				"_calculateRewardAmplifier()": "infinite",
				"_calculateStakeReward(uint256,uint256,uint256,uint256)": "infinite",
				"_cleanUpUserMint()": "73665",
				"_createStake(uint256,uint256)": "infinite",
				"_penalty(uint256)": "infinite",
				"canBridge()": "infinite",
				"pairGlobalRank()": "infinite"
			}
		},
		"methodIdentifiers": {
			"AUTHORS()": "ba3ec741",
			"DAYS_IN_YEAR()": "02378932",
			"EAA_PM_START()": "909a2ff6",
			"EAA_PM_STEP()": "bcfe394f",
			"EAA_RANK_STEP()": "f340faed",
			"GENESIS_RANK()": "1c6f212e",
			"GetPower(address,uint256)": "31b9e85d",
			"GetPowerandShare(address,address,uint256)": "310caf2d",
			"GetXENEW(address,uint256)": "44e6cf38",
			"MAX_PENALTY_PCT()": "0f2e1228",
			"MAX_TERM_BRIDGE()": "2a6485a5",
			"MAX_TERM_END()": "c0c65259",
			"MAX_TERM_START()": "0bfae56b",
			"MIN_TERM()": "f0604829",
			"POWER_PER_XEN()": "f029093e",
			"REWARD_AMPLIFIER_END()": "543d3652",
			"REWARD_AMPLIFIER_START()": "e81917b4",
			"SECONDS_IN_DAY()": "61a52a36",
			"SacrifyPower(address,uint256)": "d3fe4689",
			"SendPower(address,address,uint256)": "583b912c",
			"TERM_AMPLIFIER()": "72475f94",
			"TERM_AMPLIFIER_THRESHOLD()": "b21d35f2",
			"WITHDRAWAL_WINDOW_DAYS()": "c56f0bab",
			"XEN_APY_DAYS_STEP()": "32870fda",
			"XEN_APY_END()": "7e7aa62e",
			"XEN_APY_START()": "fed74269",
			"XEN_MIN_BURN()": "110d7fc2",
			"XEN_MIN_STAKE()": "2a62d966",
			"activeMinters()": "b4800cdc",
			"activeStakes()": "ed2f2369",
			"allowance(address,address)": "dd62ed3e",
			"approve(address,uint256)": "095ea7b3",
			"balanceOf(address)": "70a08231",
			"burn(address,uint256)": "9dc29fac",
			"claimMintReward()": "52c7f8dc",
			"claimMintRewardAndShare(address,uint256)": "1c560305",
			"claimMintRewardAndStake(uint256,uint256)": "5bccb4c4",
			"claimRank(uint256)": "9ff054df",
			"decimals()": "313ce567",
			"decreaseAllowance(address,uint256)": "a457c2d7",
			"genesisTs()": "e3af6d0a",
			"getCurrentAMP()": "99202454",
			"getCurrentAPY()": "962ca496",
			"getCurrentEAAR()": "8979c87c",
			"getCurrentMaxTerm()": "45125715",
			"getGrossReward(uint256,uint256,uint256,uint256)": "b0fd1fc2",
			"getUserMint()": "7010d7a1",
			"getUserStake()": "16f9c8fd",
			"globalRank()": "1c244082",
			"increaseAllowance(address,uint256)": "39509351",
			"name()": "06fdde03",
			"oldXenBurns(address)": "cf7a8626",
			"onTokenBurned(address,uint256)": "543746b1",
			"owner()": "8da5cb5b",
			"powerBalances(address)": "539313b8",
			"powerSacrify(address)": "6a5e0766",
			"stake(uint256,uint256)": "7b0472f0",
			"symbol()": "95d89b41",
			"totalSupply()": "18160ddd",
			"totalXenStaked()": "069612a5",
			"transfer(address,uint256)": "a9059cbb",
			"transferFrom(address,address,uint256)": "23b872dd",
			"userBurns(address)": "ce653d5f",
			"userMints(address)": "df282331",
			"userStakes(address)": "8da7ad23",
			"withdraw()": "3ccfd60b",
			"xenCrypto()": "71141a58"
		}
	},
	"abi": [
		{
			"inputs": [
				{
					"internalType": "address",
					"name": "XenCrypto_",
					"type": "address"
				}
			],
			"stateMutability": "nonpayable",
			"type": "constructor"
		},
		{
			"anonymous": false,
			"inputs": [
				{
					"indexed": true,
					"internalType": "address",
					"name": "owner",
					"type": "address"
				},
				{
					"indexed": true,
					"internalType": "address",
					"name": "spender",
					"type": "address"
				},
				{
					"indexed": false,
					"internalType": "uint256",
					"name": "value",
					"type": "uint256"
				}
			],
			"name": "Approval",
			"type": "event"
		},
		{
			"anonymous": false,
			"inputs": [
				{
					"indexed": true,
					"internalType": "address",
					"name": "user",
					"type": "address"
				},
				{
					"indexed": false,
					"internalType": "uint256",
					"name": "rewardAmount",
					"type": "uint256"
				}
			],
			"name": "MintClaimed",
			"type": "event"
		},
		{
			"anonymous": false,
			"inputs": [
				{
					"indexed": true,
					"internalType": "address",
					"name": "user",
					"type": "address"
				},
				{
					"indexed": false,
					"internalType": "uint256",
					"name": "term",
					"type": "uint256"
				},
				{
					"indexed": false,
					"internalType": "uint256",
					"name": "rank",
					"type": "uint256"
				}
			],
			"name": "RankClaimed",
			"type": "event"
		},
		{
			"anonymous": false,
			"inputs": [
				{
					"indexed": true,
					"internalType": "address",
					"name": "user",
					"type": "address"
				},
				{
					"indexed": true,
					"internalType": "address",
					"name": "xenContract",
					"type": "address"
				},
				{
					"indexed": true,
					"internalType": "address",
					"name": "tokenContract",
					"type": "address"
				},
				{
					"indexed": false,
					"internalType": "uint256",
					"name": "xenAmount",
					"type": "uint256"
				},
				{
					"indexed": false,
					"internalType": "uint256",
					"name": "tokenAmount",
					"type": "uint256"
				}
			],
			"name": "Redeemed",
			"type": "event"
		},
		{
			"anonymous": false,
			"inputs": [
				{
					"indexed": true,
					"internalType": "address",
					"name": "user",
					"type": "address"
				},
				{
					"indexed": false,
					"internalType": "uint256",
					"name": "amount",
					"type": "uint256"
				},
				{
					"indexed": false,
					"internalType": "uint256",
					"name": "term",
					"type": "uint256"
				}
			],
			"name": "Staked",
			"type": "event"
		},
		{
			"anonymous": false,
			"inputs": [
				{
					"indexed": true,
					"internalType": "address",
					"name": "from",
					"type": "address"
				},
				{
					"indexed": true,
					"internalType": "address",
					"name": "to",
					"type": "address"
				},
				{
					"indexed": false,
					"internalType": "uint256",
					"name": "value",
					"type": "uint256"
				}
			],
			"name": "Transfer",
			"type": "event"
		},
		{
			"anonymous": false,
			"inputs": [
				{
					"indexed": true,
					"internalType": "address",
					"name": "user",
					"type": "address"
				},
				{
					"indexed": false,
					"internalType": "uint256",
					"name": "amount",
					"type": "uint256"
				},
				{
					"indexed": false,
					"internalType": "uint256",
					"name": "reward",
					"type": "uint256"
				}
			],
			"name": "Withdrawn",
			"type": "event"
		},
		{
			"inputs": [],
			"name": "AUTHORS",
			"outputs": [
				{
					"internalType": "string",
					"name": "",
					"type": "string"
				}
			],
			"stateMutability": "view",
			"type": "function"
		},
		{
			"inputs": [],
			"name": "DAYS_IN_YEAR",
			"outputs": [
				{
					"internalType": "uint256",
					"name": "",
					"type": "uint256"
				}
			],
			"stateMutability": "view",
			"type": "function"
		},
		{
			"inputs": [],
			"name": "EAA_PM_START",
			"outputs": [
				{
					"internalType": "uint256",
					"name": "",
					"type": "uint256"
				}
			],
			"stateMutability": "view",
			"type": "function"
		},
		{
			"inputs": [],
			"name": "EAA_PM_STEP",
			"outputs": [
				{
					"internalType": "uint256",
					"name": "",
					"type": "uint256"
				}
			],
			"stateMutability": "view",
			"type": "function"
		},
		{
			"inputs": [],
			"name": "EAA_RANK_STEP",
			"outputs": [
				{
					"internalType": "uint256",
					"name": "",
					"type": "uint256"
				}
			],
			"stateMutability": "view",
			"type": "function"
		},
		{
			"inputs": [],
			"name": "GENESIS_RANK",
			"outputs": [
				{
					"internalType": "uint256",
					"name": "",
					"type": "uint256"
				}
			],
			"stateMutability": "view",
			"type": "function"
		},
		{
			"inputs": [
				{
					"internalType": "address",
					"name": "user",
					"type": "address"
				},
				{
					"internalType": "uint256",
					"name": "amount",
					"type": "uint256"
				}
			],
			"name": "GetPower",
			"outputs": [],
			"stateMutability": "nonpayable",
			"type": "function"
		},
		{
			"inputs": [
				{
					"internalType": "address",
					"name": "user",
					"type": "address"
				},
				{
					"internalType": "address",
					"name": "share",
					"type": "address"
				},
				{
					"internalType": "uint256",
					"name": "amount",
					"type": "uint256"
				}
			],
			"name": "GetPowerandShare",
			"outputs": [],
			"stateMutability": "nonpayable",
			"type": "function"
		},
		{
			"inputs": [
				{
					"internalType": "address",
					"name": "user",
					"type": "address"
				},
				{
					"internalType": "uint256",
					"name": "amount",
					"type": "uint256"
				}
			],
			"name": "GetXENEW",
			"outputs": [],
			"stateMutability": "nonpayable",
			"type": "function"
		},
		{
			"inputs": [],
			"name": "MAX_PENALTY_PCT",
			"outputs": [
				{
					"internalType": "uint256",
					"name": "",
					"type": "uint256"
				}
			],
			"stateMutability": "view",
			"type": "function"
		},
		{
			"inputs": [],
			"name": "MAX_TERM_BRIDGE",
			"outputs": [
				{
					"internalType": "uint256",
					"name": "",
					"type": "uint256"
				}
			],
			"stateMutability": "view",
			"type": "function"
		},
		{
			"inputs": [],
			"name": "MAX_TERM_END",
			"outputs": [
				{
					"internalType": "uint256",
					"name": "",
					"type": "uint256"
				}
			],
			"stateMutability": "view",
			"type": "function"
		},
		{
			"inputs": [],
			"name": "MAX_TERM_START",
			"outputs": [
				{
					"internalType": "uint256",
					"name": "",
					"type": "uint256"
				}
			],
			"stateMutability": "view",
			"type": "function"
		},
		{
			"inputs": [],
			"name": "MIN_TERM",
			"outputs": [
				{
					"internalType": "uint256",
					"name": "",
					"type": "uint256"
				}
			],
			"stateMutability": "view",
			"type": "function"
		},
		{
			"inputs": [],
			"name": "POWER_PER_XEN",
			"outputs": [
				{
					"internalType": "uint256",
					"name": "",
					"type": "uint256"
				}
			],
			"stateMutability": "view",
			"type": "function"
		},
		{
			"inputs": [],
			"name": "REWARD_AMPLIFIER_END",
			"outputs": [
				{
					"internalType": "uint256",
					"name": "",
					"type": "uint256"
				}
			],
			"stateMutability": "view",
			"type": "function"
		},
		{
			"inputs": [],
			"name": "REWARD_AMPLIFIER_START",
			"outputs": [
				{
					"internalType": "uint256",
					"name": "",
					"type": "uint256"
				}
			],
			"stateMutability": "view",
			"type": "function"
		},
		{
			"inputs": [],
			"name": "SECONDS_IN_DAY",
			"outputs": [
				{
					"internalType": "uint256",
					"name": "",
					"type": "uint256"
				}
			],
			"stateMutability": "view",
			"type": "function"
		},
		{
			"inputs": [
				{
					"internalType": "address",
					"name": "user",
					"type": "address"
				},
				{
					"internalType": "uint256",
					"name": "power",
					"type": "uint256"
				}
			],
			"name": "SacrifyPower",
			"outputs": [],
			"stateMutability": "nonpayable",
			"type": "function"
		},
		{
			"inputs": [
				{
					"internalType": "address",
					"name": "user",
					"type": "address"
				},
				{
					"internalType": "address",
					"name": "share",
					"type": "address"
				},
				{
					"internalType": "uint256",
					"name": "power",
					"type": "uint256"
				}
			],
			"name": "SendPower",
			"outputs": [],
			"stateMutability": "nonpayable",
			"type": "function"
		},
		{
			"inputs": [],
			"name": "TERM_AMPLIFIER",
			"outputs": [
				{
					"internalType": "uint256",
					"name": "",
					"type": "uint256"
				}
			],
			"stateMutability": "view",
			"type": "function"
		},
		{
			"inputs": [],
			"name": "TERM_AMPLIFIER_THRESHOLD",
			"outputs": [
				{
					"internalType": "uint256",
					"name": "",
					"type": "uint256"
				}
			],
			"stateMutability": "view",
			"type": "function"
		},
		{
			"inputs": [],
			"name": "WITHDRAWAL_WINDOW_DAYS",
			"outputs": [
				{
					"internalType": "uint256",
					"name": "",
					"type": "uint256"
				}
			],
			"stateMutability": "view",
			"type": "function"
		},
		{
			"inputs": [],
			"name": "XEN_APY_DAYS_STEP",
			"outputs": [
				{
					"internalType": "uint256",
					"name": "",
					"type": "uint256"
				}
			],
			"stateMutability": "view",
			"type": "function"
		},
		{
			"inputs": [],
			"name": "XEN_APY_END",
			"outputs": [
				{
					"internalType": "uint256",
					"name": "",
					"type": "uint256"
				}
			],
			"stateMutability": "view",
			"type": "function"
		},
		{
			"inputs": [],
			"name": "XEN_APY_START",
			"outputs": [
				{
					"internalType": "uint256",
					"name": "",
					"type": "uint256"
				}
			],
			"stateMutability": "view",
			"type": "function"
		},
		{
			"inputs": [],
			"name": "XEN_MIN_BURN",
			"outputs": [
				{
					"internalType": "uint256",
					"name": "",
					"type": "uint256"
				}
			],
			"stateMutability": "view",
			"type": "function"
		},
		{
			"inputs": [],
			"name": "XEN_MIN_STAKE",
			"outputs": [
				{
					"internalType": "uint256",
					"name": "",
					"type": "uint256"
				}
			],
			"stateMutability": "view",
			"type": "function"
		},
		{
			"inputs": [],
			"name": "activeMinters",
			"outputs": [
				{
					"internalType": "uint256",
					"name": "",
					"type": "uint256"
				}
			],
			"stateMutability": "view",
			"type": "function"
		},
		{
			"inputs": [],
			"name": "activeStakes",
			"outputs": [
				{
					"internalType": "uint256",
					"name": "",
					"type": "uint256"
				}
			],
			"stateMutability": "view",
			"type": "function"
		},
		{
			"inputs": [
				{
					"internalType": "address",
					"name": "owner",
					"type": "address"
				},
				{
					"internalType": "address",
					"name": "spender",
					"type": "address"
				}
			],
			"name": "allowance",
			"outputs": [
				{
					"internalType": "uint256",
					"name": "",
					"type": "uint256"
				}
			],
			"stateMutability": "view",
			"type": "function"
		},
		{
			"inputs": [
				{
					"internalType": "address",
					"name": "spender",
					"type": "address"
				},
				{
					"internalType": "uint256",
					"name": "amount",
					"type": "uint256"
				}
			],
			"name": "approve",
			"outputs": [
				{
					"internalType": "bool",
					"name": "",
					"type": "bool"
				}
			],
			"stateMutability": "nonpayable",
			"type": "function"
		},
		{
			"inputs": [
				{
					"internalType": "address",
					"name": "account",
					"type": "address"
				}
			],
			"name": "balanceOf",
			"outputs": [
				{
					"internalType": "uint256",
					"name": "",
					"type": "uint256"
				}
			],
			"stateMutability": "view",
			"type": "function"
		},
		{
			"inputs": [
				{
					"internalType": "address",
					"name": "user",
					"type": "address"
				},
				{
					"internalType": "uint256",
					"name": "amount",
					"type": "uint256"
				}
			],
			"name": "burn",
			"outputs": [],
			"stateMutability": "nonpayable",
			"type": "function"
		},
		{
			"inputs": [],
			"name": "claimMintReward",
			"outputs": [],
			"stateMutability": "nonpayable",
			"type": "function"
		},
		{
			"inputs": [
				{
					"internalType": "address",
					"name": "other",
					"type": "address"
				},
				{
					"internalType": "uint256",
					"name": "pct",
					"type": "uint256"
				}
			],
			"name": "claimMintRewardAndShare",
			"outputs": [],
			"stateMutability": "nonpayable",
			"type": "function"
		},
		{
			"inputs": [
				{
					"internalType": "uint256",
					"name": "pct",
					"type": "uint256"
				},
				{
					"internalType": "uint256",
					"name": "term",
					"type": "uint256"
				}
			],
			"name": "claimMintRewardAndStake",
			"outputs": [],
			"stateMutability": "nonpayable",
			"type": "function"
		},
		{
			"inputs": [
				{
					"internalType": "uint256",
					"name": "term",
					"type": "uint256"
				}
			],
			"name": "claimRank",
			"outputs": [],
			"stateMutability": "nonpayable",
			"type": "function"
		},
		{
			"inputs": [],
			"name": "decimals",
			"outputs": [
				{
					"internalType": "uint8",
					"name": "",
					"type": "uint8"
				}
			],
			"stateMutability": "view",
			"type": "function"
		},
		{
			"inputs": [
				{
					"internalType": "address",
					"name": "spender",
					"type": "address"
				},
				{
					"internalType": "uint256",
					"name": "subtractedValue",
					"type": "uint256"
				}
			],
			"name": "decreaseAllowance",
			"outputs": [
				{
					"internalType": "bool",
					"name": "",
					"type": "bool"
				}
			],
			"stateMutability": "nonpayable",
			"type": "function"
		},
		{
			"inputs": [],
			"name": "genesisTs",
			"outputs": [
				{
					"internalType": "uint256",
					"name": "",
					"type": "uint256"
				}
			],
			"stateMutability": "view",
			"type": "function"
		},
		{
			"inputs": [],
			"name": "getCurrentAMP",
			"outputs": [
				{
					"internalType": "uint256",
					"name": "",
					"type": "uint256"
				}
			],
			"stateMutability": "view",
			"type": "function"
		},
		{
			"inputs": [],
			"name": "getCurrentAPY",
			"outputs": [
				{
					"internalType": "uint256",
					"name": "",
					"type": "uint256"
				}
			],
			"stateMutability": "view",
			"type": "function"
		},
		{
			"inputs": [],
			"name": "getCurrentEAAR",
			"outputs": [
				{
					"internalType": "uint256",
					"name": "",
					"type": "uint256"
				}
			],
			"stateMutability": "view",
			"type": "function"
		},
		{
			"inputs": [],
			"name": "getCurrentMaxTerm",
			"outputs": [
				{
					"internalType": "uint256",
					"name": "",
					"type": "uint256"
				}
			],
			"stateMutability": "view",
			"type": "function"
		},
		{
			"inputs": [
				{
					"internalType": "uint256",
					"name": "rankDelta",
					"type": "uint256"
				},
				{
					"internalType": "uint256",
					"name": "amplifier",
					"type": "uint256"
				},
				{
					"internalType": "uint256",
					"name": "term",
					"type": "uint256"
				},
				{
					"internalType": "uint256",
					"name": "eaa",
					"type": "uint256"
				}
			],
			"name": "getGrossReward",
			"outputs": [
				{
					"internalType": "uint256",
					"name": "",
					"type": "uint256"
				}
			],
			"stateMutability": "pure",
			"type": "function"
		},
		{
			"inputs": [],
			"name": "getUserMint",
			"outputs": [
				{
					"components": [
						{
							"internalType": "address",
							"name": "user",
							"type": "address"
						},
						{
							"internalType": "uint256",
							"name": "term",
							"type": "uint256"
						},
						{
							"internalType": "uint256",
							"name": "maturityTs",
							"type": "uint256"
						},
						{
							"internalType": "uint256",
							"name": "rank",
							"type": "uint256"
						},
						{
							"internalType": "uint256",
							"name": "amplifier",
							"type": "uint256"
						},
						{
							"internalType": "uint256",
							"name": "eaaRate",
							"type": "uint256"
						}
					],
					"internalType": "struct XENIUMCrypto.MintInfo",
					"name": "",
					"type": "tuple"
				}
			],
			"stateMutability": "view",
			"type": "function"
		},
		{
			"inputs": [],
			"name": "getUserStake",
			"outputs": [
				{
					"components": [
						{
							"internalType": "uint256",
							"name": "term",
							"type": "uint256"
						},
						{
							"internalType": "uint256",
							"name": "maturityTs",
							"type": "uint256"
						},
						{
							"internalType": "uint256",
							"name": "amount",
							"type": "uint256"
						},
						{
							"internalType": "uint256",
							"name": "apy",
							"type": "uint256"
						}
					],
					"internalType": "struct XENIUMCrypto.StakeInfo",
					"name": "",
					"type": "tuple"
				}
			],
			"stateMutability": "view",
			"type": "function"
		},
		{
			"inputs": [],
			"name": "globalRank",
			"outputs": [
				{
					"internalType": "uint256",
					"name": "",
					"type": "uint256"
				}
			],
			"stateMutability": "view",
			"type": "function"
		},
		{
			"inputs": [
				{
					"internalType": "address",
					"name": "spender",
					"type": "address"
				},
				{
					"internalType": "uint256",
					"name": "addedValue",
					"type": "uint256"
				}
			],
			"name": "increaseAllowance",
			"outputs": [
				{
					"internalType": "bool",
					"name": "",
					"type": "bool"
				}
			],
			"stateMutability": "nonpayable",
			"type": "function"
		},
		{
			"inputs": [],
			"name": "name",
			"outputs": [
				{
					"internalType": "string",
					"name": "",
					"type": "string"
				}
			],
			"stateMutability": "view",
			"type": "function"
		},
		{
			"inputs": [
				{
					"internalType": "address",
					"name": "",
					"type": "address"
				}
			],
			"name": "oldXenBurns",
			"outputs": [
				{
					"internalType": "uint256",
					"name": "",
					"type": "uint256"
				}
			],
			"stateMutability": "view",
			"type": "function"
		},
		{
			"inputs": [
				{
					"internalType": "address",
					"name": "user",
					"type": "address"
				},
				{
					"internalType": "uint256",
					"name": "amount",
					"type": "uint256"
				}
			],
			"name": "onTokenBurned",
			"outputs": [],
			"stateMutability": "nonpayable",
			"type": "function"
		},
		{
			"inputs": [],
			"name": "owner",
			"outputs": [
				{
					"internalType": "address",
					"name": "",
					"type": "address"
				}
			],
			"stateMutability": "view",
			"type": "function"
		},
		{
			"inputs": [
				{
					"internalType": "address",
					"name": "",
					"type": "address"
				}
			],
			"name": "powerBalances",
			"outputs": [
				{
					"internalType": "uint256",
					"name": "",
					"type": "uint256"
				}
			],
			"stateMutability": "view",
			"type": "function"
		},
		{
			"inputs": [
				{
					"internalType": "address",
					"name": "",
					"type": "address"
				}
			],
			"name": "powerSacrify",
			"outputs": [
				{
					"internalType": "uint256",
					"name": "",
					"type": "uint256"
				}
			],
			"stateMutability": "view",
			"type": "function"
		},
		{
			"inputs": [
				{
					"internalType": "uint256",
					"name": "amount",
					"type": "uint256"
				},
				{
					"internalType": "uint256",
					"name": "term",
					"type": "uint256"
				}
			],
			"name": "stake",
			"outputs": [],
			"stateMutability": "nonpayable",
			"type": "function"
		},
		{
			"inputs": [],
			"name": "symbol",
			"outputs": [
				{
					"internalType": "string",
					"name": "",
					"type": "string"
				}
			],
			"stateMutability": "view",
			"type": "function"
		},
		{
			"inputs": [],
			"name": "totalSupply",
			"outputs": [
				{
					"internalType": "uint256",
					"name": "",
					"type": "uint256"
				}
			],
			"stateMutability": "view",
			"type": "function"
		},
		{
			"inputs": [],
			"name": "totalXenStaked",
			"outputs": [
				{
					"internalType": "uint256",
					"name": "",
					"type": "uint256"
				}
			],
			"stateMutability": "view",
			"type": "function"
		},
		{
			"inputs": [
				{
					"internalType": "address",
					"name": "to",
					"type": "address"
				},
				{
					"internalType": "uint256",
					"name": "amount",
					"type": "uint256"
				}
			],
			"name": "transfer",
			"outputs": [
				{
					"internalType": "bool",
					"name": "",
					"type": "bool"
				}
			],
			"stateMutability": "nonpayable",
			"type": "function"
		},
		{
			"inputs": [
				{
					"internalType": "address",
					"name": "from",
					"type": "address"
				},
				{
					"internalType": "address",
					"name": "to",
					"type": "address"
				},
				{
					"internalType": "uint256",
					"name": "amount",
					"type": "uint256"
				}
			],
			"name": "transferFrom",
			"outputs": [
				{
					"internalType": "bool",
					"name": "",
					"type": "bool"
				}
			],
			"stateMutability": "nonpayable",
			"type": "function"
		},
		{
			"inputs": [
				{
					"internalType": "address",
					"name": "",
					"type": "address"
				}
			],
			"name": "userBurns",
			"outputs": [
				{
					"internalType": "uint256",
					"name": "",
					"type": "uint256"
				}
			],
			"stateMutability": "view",
			"type": "function"
		},
		{
			"inputs": [
				{
					"internalType": "address",
					"name": "",
					"type": "address"
				}
			],
			"name": "userMints",
			"outputs": [
				{
					"internalType": "address",
					"name": "user",
					"type": "address"
				},
				{
					"internalType": "uint256",
					"name": "term",
					"type": "uint256"
				},
				{
					"internalType": "uint256",
					"name": "maturityTs",
					"type": "uint256"
				},
				{
					"internalType": "uint256",
					"name": "rank",
					"type": "uint256"
				},
				{
					"internalType": "uint256",
					"name": "amplifier",
					"type": "uint256"
				},
				{
					"internalType": "uint256",
					"name": "eaaRate",
					"type": "uint256"
				}
			],
			"stateMutability": "view",
			"type": "function"
		},
		{
			"inputs": [
				{
					"internalType": "address",
					"name": "",
					"type": "address"
				}
			],
			"name": "userStakes",
			"outputs": [
				{
					"internalType": "uint256",
					"name": "term",
					"type": "uint256"
				},
				{
					"internalType": "uint256",
					"name": "maturityTs",
					"type": "uint256"
				},
				{
					"internalType": "uint256",
					"name": "amount",
					"type": "uint256"
				},
				{
					"internalType": "uint256",
					"name": "apy",
					"type": "uint256"
				}
			],
			"stateMutability": "view",
			"type": "function"
		},
		{
			"inputs": [],
			"name": "withdraw",
			"outputs": [],
			"stateMutability": "nonpayable",
			"type": "function"
		},
		{
			"inputs": [],
			"name": "xenCrypto",
			"outputs": [
				{
					"internalType": "contract XENCrypto",
					"name": "",
					"type": "address"
				}
			],
			"stateMutability": "view",
			"type": "function"
		}
	]
}