{
	"XENFT/DateTime.sol": {
		"DateTime": {
			"abi": [
				{
					"inputs": [],
					"name": "MONTHS",
					"outputs": [
						{
							"internalType": "bytes",
							"name": "",
							"type": "bytes"
						}
					],
					"stateMutability": "view",
					"type": "function"
				},
				{
					"inputs": [
						{
							"internalType": "uint256",
							"name": "ts",
							"type": "uint256"
						}
					],
					"name": "asString",
					"outputs": [
						{
							"internalType": "string",
							"name": "",
							"type": "string"
						}
					],
					"stateMutability": "pure",
					"type": "function"
				},
				{
					"inputs": [
						{
							"internalType": "uint256",
							"name": "ts",
							"type": "uint256"
						}
					],
					"name": "yearAndMonth",
					"outputs": [
						{
							"internalType": "uint256",
							"name": "",
							"type": "uint256"
						},
						{
							"internalType": "string",
							"name": "",
							"type": "string"
						}
					],
					"stateMutability": "pure",
					"type": "function"
				}
			],
			"devdoc": {
				"kind": "dev",
				"methods": {
					"asString(uint256)": {
						"details": "returns string of format 'Jan 01, 2022 18:00 UTC' for a given timestamp"
					},
					"yearAndMonth(uint256)": {
						"details": "returns (year, month as string) components of a date by timestamp"
					}
				},
				"version": 1
			},
			"evm": {
				"assembly": "    /* \"XENFT/DateTime.sol\":304:2336  library DateTime {... */\n  dataSize(sub_0)\n  dataOffset(sub_0)\n  0x0b\n  dup3\n  dup3\n  dup3\n  codecopy\n  dup1\n  mload\n  0x00\n  byte\n  0x73\n  eq\n  tag_1\n  jumpi\n  mstore(0x00, shl(0xe0, 0x4e487b71))\n  mstore(0x04, 0x00)\n  revert(0x00, 0x24)\ntag_1:\n  mstore(0x00, address)\n  0x73\n  dup2\n  mstore8\n  dup3\n  dup2\n  return\nstop\n\nsub_0: assembly {\n        /* \"XENFT/DateTime.sol\":304:2336  library DateTime {... */\n      eq(address, deployTimeAddress())\n      mstore(0x40, 0x80)\n      jumpi(tag_1, lt(calldatasize, 0x04))\n      shr(0xe0, calldataload(0x00))\n      dup1\n      0x5a97e730\n      eq\n      tag_2\n      jumpi\n      dup1\n      0x8fa626f2\n      eq\n      tag_3\n      jumpi\n      dup1\n      0xb5d987e3\n      eq\n      tag_4\n      jumpi\n    tag_1:\n      0x00\n      dup1\n      revert\n        /* \"XENFT/DateTime.sol\":2096:2333  function yearAndMonth(uint256 ts) external pure returns (uint256, string memory) {... */\n    tag_2:\n      tag_5\n      tag_6\n      calldatasize\n      0x04\n      tag_7\n      jump\t// in\n    tag_6:\n      tag_8\n      jump\t// in\n    tag_5:\n      mload(0x40)\n      tag_9\n      swap3\n      swap2\n      swap1\n      tag_10\n      jump\t// in\n    tag_9:\n      mload(0x40)\n      dup1\n      swap2\n      sub\n      swap1\n      return\n        /* \"XENFT/DateTime.sol\":362:438  bytes public constant MONTHS = bytes(\"JanFebMarAprMayJunJulAugSepOctNovDec\") */\n    tag_3:\n      tag_11\n      tag_12\n      jump\t// in\n    tag_11:\n      mload(0x40)\n      tag_9\n      swap2\n      swap1\n      tag_14\n      jump\t// in\n        /* \"XENFT/DateTime.sol\":1314:1989  function asString(uint256 ts) external pure returns (string memory) {... */\n    tag_4:\n      tag_11\n      tag_16\n      calldatasize\n      0x04\n      tag_7\n      jump\t// in\n    tag_16:\n      tag_17\n      jump\t// in\n        /* \"XENFT/DateTime.sol\":2096:2333  function yearAndMonth(uint256 ts) external pure returns (uint256, string memory) {... */\n    tag_8:\n        /* \"XENFT/DateTime.sol\":2153:2160  uint256 */\n      0x00\n        /* \"XENFT/DateTime.sol\":2162:2175  string memory */\n      0x60\n        /* \"XENFT/DateTime.sol\":2189:2201  uint256 year */\n      0x00\n        /* \"XENFT/DateTime.sol\":2203:2216  uint256 month */\n      dup1\n        /* \"XENFT/DateTime.sol\":2228:2279  BokkyPooBahsDateTimeLibrary.timestampToDateTime(ts) */\n      tag_21\n        /* \"XENFT/DateTime.sol\":2276:2278  ts */\n      dup6\n        /* \"XENFT/DateTime.sol\":2228:2275  BokkyPooBahsDateTimeLibrary.timestampToDateTime */\n      tag_22\n        /* \"XENFT/DateTime.sol\":2228:2279  BokkyPooBahsDateTimeLibrary.timestampToDateTime(ts) */\n      jump\t// in\n    tag_21:\n        /* \"XENFT/DateTime.sol\":2188:2279  (uint256 year, uint256 month, , , , ) = BokkyPooBahsDateTimeLibrary.timestampToDateTime(ts) */\n      pop\n      pop\n      pop\n      pop\n      swap2\n      pop\n      swap2\n      pop\n        /* \"XENFT/DateTime.sol\":2298:2302  year */\n      dup2\n        /* \"XENFT/DateTime.sol\":2304:2324  monthAsString(month) */\n      tag_23\n        /* \"XENFT/DateTime.sol\":2318:2323  month */\n      dup3\n        /* \"XENFT/DateTime.sol\":2304:2317  monthAsString */\n      tag_24\n        /* \"XENFT/DateTime.sol\":2304:2324  monthAsString(month) */\n      jump\t// in\n    tag_23:\n        /* \"XENFT/DateTime.sol\":2290:2325  return (year, monthAsString(month)) */\n      swap4\n      pop\n      swap4\n      pop\n      pop\n      pop\n        /* \"XENFT/DateTime.sol\":2096:2333  function yearAndMonth(uint256 ts) external pure returns (uint256, string memory) {... */\n      swap2\n      pop\n      swap2\n      jump\t// out\n        /* \"XENFT/DateTime.sol\":362:438  bytes public constant MONTHS = bytes(\"JanFebMarAprMayJunJulAugSepOctNovDec\") */\n    tag_12:\n        /* \"XENFT/DateTime.sol\":393:438  bytes(\"JanFebMarAprMayJunJulAugSepOctNovDec\") */\n      mload(0x40)\n      dup1\n      0x60\n      add\n      0x40\n      mstore\n      dup1\n      0x24\n      dup2\n      mstore\n      0x20\n      add\n      data_96d6a90eed6f91467c7bdb1db0be6d07592cd4fef0db7cc42dee4786b44e0f41\n      0x24\n      swap2\n      codecopy\n        /* \"XENFT/DateTime.sol\":362:438  bytes public constant MONTHS = bytes(\"JanFebMarAprMayJunJulAugSepOctNovDec\") */\n      dup2\n      jump\t// out\n        /* \"XENFT/DateTime.sol\":1314:1989  function asString(uint256 ts) external pure returns (string memory) {... */\n    tag_17:\n        /* \"XENFT/DateTime.sol\":1367:1380  string memory */\n      0x60\n        /* \"XENFT/DateTime.sol\":1394:1406  uint256 year */\n      0x00\n        /* \"XENFT/DateTime.sol\":1408:1421  uint256 month */\n      dup1\n        /* \"XENFT/DateTime.sol\":1423:1434  uint256 day */\n      0x00\n        /* \"XENFT/DateTime.sol\":1436:1448  uint256 hour */\n      dup1\n        /* \"XENFT/DateTime.sol\":1450:1464  uint256 minute */\n      0x00\n        /* \"XENFT/DateTime.sol\":1470:1535  BokkyPooBahsDateTimeLibrary... */\n      tag_26\n        /* \"XENFT/DateTime.sol\":1532:1534  ts */\n      dup8\n        /* \"XENFT/DateTime.sol\":1470:1531  BokkyPooBahsDateTimeLibrary... */\n      tag_22\n        /* \"XENFT/DateTime.sol\":1470:1535  BokkyPooBahsDateTimeLibrary... */\n      jump\t// in\n    tag_26:\n        /* \"XENFT/DateTime.sol\":1393:1535  (uint256 year, uint256 month, uint256 day, uint256 hour, uint256 minute, ) = BokkyPooBahsDateTimeLibrary... */\n      pop\n      swap5\n      pop\n      swap5\n      pop\n      swap5\n      pop\n      swap5\n      pop\n      swap5\n      pop\n        /* \"XENFT/DateTime.sol\":1630:1650  monthAsString(month) */\n      tag_27\n        /* \"XENFT/DateTime.sol\":1644:1649  month */\n      dup5\n        /* \"XENFT/DateTime.sol\":1630:1643  monthAsString */\n      tag_24\n        /* \"XENFT/DateTime.sol\":1630:1650  monthAsString(month) */\n      jump\t// in\n    tag_27:\n        /* \"XENFT/DateTime.sol\":1699:1713  day.toString() */\n      tag_28\n        /* \"XENFT/DateTime.sol\":1699:1702  day */\n      dup5\n        /* \"XENFT/DateTime.sol\":1699:1711  day.toString */\n      tag_29\n        /* \"XENFT/DateTime.sol\":1699:1713  day.toString() */\n      jump\t// in\n    tag_28:\n        /* \"XENFT/DateTime.sol\":1763:1778  year.toString() */\n      tag_30\n        /* \"XENFT/DateTime.sol\":1763:1767  year */\n      dup8\n        /* \"XENFT/DateTime.sol\":1763:1776  year.toString */\n      tag_29\n        /* \"XENFT/DateTime.sol\":1763:1778  year.toString() */\n      jump\t// in\n    tag_30:\n        /* \"XENFT/DateTime.sol\":1827:1847  asPaddedString(hour) */\n      tag_31\n        /* \"XENFT/DateTime.sol\":1842:1846  hour */\n      dup6\n        /* \"XENFT/DateTime.sol\":1827:1841  asPaddedString */\n      tag_32\n        /* \"XENFT/DateTime.sol\":1827:1847  asPaddedString(hour) */\n      jump\t// in\n    tag_31:\n        /* \"XENFT/DateTime.sol\":1896:1918  asPaddedString(minute) */\n      tag_33\n        /* \"XENFT/DateTime.sol\":1911:1917  minute */\n      dup6\n        /* \"XENFT/DateTime.sol\":1896:1910  asPaddedString */\n      tag_32\n        /* \"XENFT/DateTime.sol\":1896:1918  asPaddedString(minute) */\n      jump\t// in\n    tag_33:\n        /* \"XENFT/DateTime.sol\":1591:1966  abi.encodePacked(... */\n      add(0x20, mload(0x40))\n      tag_34\n      swap6\n      swap5\n      swap4\n      swap3\n      swap2\n      swap1\n      tag_35\n      jump\t// in\n    tag_34:\n      mload(0x40)\n      0x20\n      dup2\n      dup4\n      sub\n      sub\n      dup2\n      mstore\n      swap1\n      0x40\n      mstore\n        /* \"XENFT/DateTime.sol\":1546:1981  return... */\n      swap6\n      pop\n      pop\n      pop\n      pop\n      pop\n      pop\n        /* \"XENFT/DateTime.sol\":1314:1989  function asString(uint256 ts) external pure returns (string memory) {... */\n      swap2\n      swap1\n      pop\n      jump\t// out\n        /* \"XENFT/BokkyPooBahsDateTimeLibrary.sol\":5130:5721  function timestampToDateTime(uint256 timestamp)... */\n    tag_22:\n        /* \"XENFT/BokkyPooBahsDateTimeLibrary.sol\":5242:5254  uint256 year */\n      0x00\n      dup1\n      dup1\n      dup1\n      dup1\n      dup1\n        /* \"XENFT/BokkyPooBahsDateTimeLibrary.sol\":5442:5483  _daysToDate(timestamp / _SECONDS_PER_DAY) */\n      tag_37\n        /* \"XENFT/BokkyPooBahsDateTimeLibrary.sol\":5454:5482  timestamp / _SECONDS_PER_DAY */\n      tag_38\n        /* \"XENFT/BokkyPooBahsDateTimeLibrary.sol\":1051:1063  24 * 60 * 60 */\n      0x015180\n        /* \"XENFT/BokkyPooBahsDateTimeLibrary.sol\":5454:5463  timestamp */\n      dup10\n        /* \"XENFT/BokkyPooBahsDateTimeLibrary.sol\":5454:5482  timestamp / _SECONDS_PER_DAY */\n      tag_39\n      jump\t// in\n    tag_38:\n        /* \"XENFT/BokkyPooBahsDateTimeLibrary.sol\":5442:5453  _daysToDate */\n      tag_40\n        /* \"XENFT/BokkyPooBahsDateTimeLibrary.sol\":5442:5483  _daysToDate(timestamp / _SECONDS_PER_DAY) */\n      jump\t// in\n    tag_37:\n        /* \"XENFT/BokkyPooBahsDateTimeLibrary.sol\":5421:5483  (year, month, day) = _daysToDate(timestamp / _SECONDS_PER_DAY) */\n      swap2\n      swap8\n      pop\n      swap6\n      pop\n      swap4\n      pop\n        /* \"XENFT/BokkyPooBahsDateTimeLibrary.sol\":5494:5506  uint256 secs */\n      0x00\n        /* \"XENFT/BokkyPooBahsDateTimeLibrary.sol\":5509:5537  timestamp % _SECONDS_PER_DAY */\n      tag_41\n        /* \"XENFT/BokkyPooBahsDateTimeLibrary.sol\":1051:1063  24 * 60 * 60 */\n      0x015180\n        /* \"XENFT/BokkyPooBahsDateTimeLibrary.sol\":5509:5518  timestamp */\n      dup10\n        /* \"XENFT/BokkyPooBahsDateTimeLibrary.sol\":5509:5537  timestamp % _SECONDS_PER_DAY */\n      tag_42\n      jump\t// in\n    tag_41:\n        /* \"XENFT/BokkyPooBahsDateTimeLibrary.sol\":5494:5537  uint256 secs = timestamp % _SECONDS_PER_DAY */\n      swap1\n      pop\n        /* \"XENFT/BokkyPooBahsDateTimeLibrary.sol\":5555:5579  secs / _SECONDS_PER_HOUR */\n      tag_43\n        /* \"XENFT/BokkyPooBahsDateTimeLibrary.sol\":1107:1114  60 * 60 */\n      0x0e10\n        /* \"XENFT/BokkyPooBahsDateTimeLibrary.sol\":5494:5537  uint256 secs = timestamp % _SECONDS_PER_DAY */\n      dup3\n        /* \"XENFT/BokkyPooBahsDateTimeLibrary.sol\":5555:5579  secs / _SECONDS_PER_HOUR */\n      tag_39\n      jump\t// in\n    tag_43:\n        /* \"XENFT/BokkyPooBahsDateTimeLibrary.sol\":5548:5579  hour = secs / _SECONDS_PER_HOUR */\n      swap4\n      pop\n        /* \"XENFT/BokkyPooBahsDateTimeLibrary.sol\":5597:5621  secs % _SECONDS_PER_HOUR */\n      tag_44\n        /* \"XENFT/BokkyPooBahsDateTimeLibrary.sol\":1107:1114  60 * 60 */\n      0x0e10\n        /* \"XENFT/BokkyPooBahsDateTimeLibrary.sol\":5597:5601  secs */\n      dup3\n        /* \"XENFT/BokkyPooBahsDateTimeLibrary.sol\":5597:5621  secs % _SECONDS_PER_HOUR */\n      tag_42\n      jump\t// in\n    tag_44:\n        /* \"XENFT/BokkyPooBahsDateTimeLibrary.sol\":5590:5621  secs = secs % _SECONDS_PER_HOUR */\n      swap1\n      pop\n        /* \"XENFT/BokkyPooBahsDateTimeLibrary.sol\":5641:5667  secs / _SECONDS_PER_MINUTE */\n      tag_45\n        /* \"XENFT/BokkyPooBahsDateTimeLibrary.sol\":1160:1162  60 */\n      0x3c\n        /* \"XENFT/BokkyPooBahsDateTimeLibrary.sol\":5590:5621  secs = secs % _SECONDS_PER_HOUR */\n      dup3\n        /* \"XENFT/BokkyPooBahsDateTimeLibrary.sol\":5641:5667  secs / _SECONDS_PER_MINUTE */\n      tag_39\n      jump\t// in\n    tag_45:\n        /* \"XENFT/BokkyPooBahsDateTimeLibrary.sol\":5632:5667  minute = secs / _SECONDS_PER_MINUTE */\n      swap3\n      pop\n        /* \"XENFT/BokkyPooBahsDateTimeLibrary.sol\":5687:5713  secs % _SECONDS_PER_MINUTE */\n      tag_46\n        /* \"XENFT/BokkyPooBahsDateTimeLibrary.sol\":1160:1162  60 */\n      0x3c\n        /* \"XENFT/BokkyPooBahsDateTimeLibrary.sol\":5687:5691  secs */\n      dup3\n        /* \"XENFT/BokkyPooBahsDateTimeLibrary.sol\":5687:5713  secs % _SECONDS_PER_MINUTE */\n      tag_42\n      jump\t// in\n    tag_46:\n        /* \"XENFT/BokkyPooBahsDateTimeLibrary.sol\":5678:5713  second = secs % _SECONDS_PER_MINUTE */\n      swap2\n      pop\n        /* \"XENFT/BokkyPooBahsDateTimeLibrary.sol\":5410:5721  {... */\n      pop\n        /* \"XENFT/BokkyPooBahsDateTimeLibrary.sol\":5130:5721  function timestampToDateTime(uint256 timestamp)... */\n      swap2\n      swap4\n      swap6\n      pop\n      swap2\n      swap4\n      swap6\n      jump\t// out\n        /* \"XENFT/DateTime.sol\":521:887  function monthAsString(uint256 idx) internal pure returns (string memory) {... */\n    tag_24:\n        /* \"XENFT/DateTime.sol\":580:593  string memory */\n      0x60\n        /* \"XENFT/DateTime.sol\":620:621  0 */\n      0x00\n        /* \"XENFT/DateTime.sol\":614:617  idx */\n      dup3\n        /* \"XENFT/DateTime.sol\":614:621  idx > 0 */\n      gt\n        /* \"XENFT/DateTime.sol\":606:633  require(idx > 0, \"bad idx\") */\n      tag_48\n      jumpi\n      mload(0x40)\n      shl(0xe5, 0x461bcd)\n      dup2\n      mstore\n        /* \"#utility.yul\":4063:4065   */\n      0x20\n        /* \"XENFT/DateTime.sol\":606:633  require(idx > 0, \"bad idx\") */\n      0x04\n      dup3\n      add\n        /* \"#utility.yul\":4045:4066   */\n      mstore\n        /* \"#utility.yul\":4102:4103   */\n      0x07\n        /* \"#utility.yul\":4082:4100   */\n      0x24\n      dup3\n      add\n        /* \"#utility.yul\":4075:4104   */\n      mstore\n      shl(0xcb, 0x0c4c2c840d2c8f)\n        /* \"#utility.yul\":4120:4138   */\n      0x44\n      dup3\n      add\n        /* \"#utility.yul\":4113:4150   */\n      mstore\n        /* \"#utility.yul\":4167:4185   */\n      0x64\n      add\n        /* \"XENFT/DateTime.sol\":606:633  require(idx > 0, \"bad idx\") */\n      mload(0x40)\n      dup1\n      swap2\n      sub\n      swap1\n      revert\n    tag_48:\n        /* \"XENFT/DateTime.sol\":663:675  new bytes(3) */\n      0x40\n      dup1\n      mload\n        /* \"XENFT/DateTime.sol\":673:674  3 */\n      0x03\n        /* \"XENFT/DateTime.sol\":663:675  new bytes(3) */\n      dup1\n      dup3\n      mstore\n      dup2\n      dup4\n      add\n      swap1\n      swap3\n      mstore\n        /* \"XENFT/DateTime.sol\":644:660  bytes memory str */\n      0x00\n      swap2\n        /* \"XENFT/DateTime.sol\":663:675  new bytes(3) */\n      0x20\n      dup3\n      add\n      dup2\n      dup1\n      calldatasize\n      dup4\n      calldatacopy\n      add\n      swap1\n      pop\n      pop\n        /* \"XENFT/DateTime.sol\":644:675  bytes memory str = new bytes(3) */\n      swap1\n      pop\n        /* \"XENFT/DateTime.sol\":686:700  uint256 offset */\n      0x00\n        /* \"XENFT/DateTime.sol\":704:711  idx - 1 */\n      tag_55\n        /* \"XENFT/DateTime.sol\":710:711  1 */\n      0x01\n        /* \"XENFT/DateTime.sol\":704:707  idx */\n      dup6\n        /* \"XENFT/DateTime.sol\":704:711  idx - 1 */\n      tag_56\n      jump\t// in\n    tag_55:\n        /* \"XENFT/DateTime.sol\":703:716  (idx - 1) * 3 */\n      tag_57\n      swap1\n        /* \"XENFT/DateTime.sol\":715:716  3 */\n      0x03\n        /* \"XENFT/DateTime.sol\":703:716  (idx - 1) * 3 */\n      tag_58\n      jump\t// in\n    tag_57:\n        /* \"XENFT/DateTime.sol\":686:716  uint256 offset = (idx - 1) * 3 */\n      swap1\n      pop\n        /* \"XENFT/DateTime.sol\":393:438  bytes(\"JanFebMarAprMayJunJulAugSepOctNovDec\") */\n      mload(0x40)\n      dup1\n      0x60\n      add\n      0x40\n      mstore\n      dup1\n      0x24\n      dup2\n      mstore\n      0x20\n      add\n      data_96d6a90eed6f91467c7bdb1db0be6d07592cd4fef0db7cc42dee4786b44e0f41\n      0x24\n      swap2\n      codecopy\n        /* \"XENFT/DateTime.sol\":750:756  offset */\n      dup2\n        /* \"XENFT/DateTime.sol\":743:757  MONTHS[offset] */\n      dup2\n      mload\n      dup2\n      lt\n      tag_60\n      jumpi\n      tag_60\n      tag_61\n      jump\t// in\n    tag_60:\n      0x20\n      add\n      add\n      mload\n      0xf8\n      shr\n      0xf8\n      shl\n        /* \"XENFT/DateTime.sol\":727:730  str */\n      dup3\n        /* \"XENFT/DateTime.sol\":731:732  0 */\n      0x00\n        /* \"XENFT/DateTime.sol\":727:733  str[0] */\n      dup2\n      mload\n      dup2\n      lt\n      tag_63\n      jumpi\n      tag_63\n      tag_61\n      jump\t// in\n    tag_63:\n      0x20\n      add\n      add\n        /* \"XENFT/DateTime.sol\":727:758  str[0] = bytes1(MONTHS[offset]) */\n      swap1\n      not(sub(shl(0xf8, 0x01), 0x01))\n      and\n      swap1\n      dup2\n      0x00\n      byte\n      swap1\n      mstore8\n      pop\n        /* \"XENFT/DateTime.sol\":393:438  bytes(\"JanFebMarAprMayJunJulAugSepOctNovDec\") */\n      mload(0x40)\n      dup1\n      0x60\n      add\n      0x40\n      mstore\n      dup1\n      0x24\n      dup2\n      mstore\n      0x20\n      add\n      data_96d6a90eed6f91467c7bdb1db0be6d07592cd4fef0db7cc42dee4786b44e0f41\n      0x24\n      swap2\n      codecopy\n        /* \"XENFT/DateTime.sol\":792:802  offset + 1 */\n      tag_64\n        /* \"XENFT/DateTime.sol\":792:798  offset */\n      dup3\n        /* \"XENFT/DateTime.sol\":801:802  1 */\n      0x01\n        /* \"XENFT/DateTime.sol\":792:802  offset + 1 */\n      tag_65\n      jump\t// in\n    tag_64:\n        /* \"XENFT/DateTime.sol\":785:803  MONTHS[offset + 1] */\n      dup2\n      mload\n      dup2\n      lt\n      tag_67\n      jumpi\n      tag_67\n      tag_61\n      jump\t// in\n    tag_67:\n      0x20\n      add\n      add\n      mload\n      0xf8\n      shr\n      0xf8\n      shl\n        /* \"XENFT/DateTime.sol\":769:772  str */\n      dup3\n        /* \"XENFT/DateTime.sol\":773:774  1 */\n      0x01\n        /* \"XENFT/DateTime.sol\":769:775  str[1] */\n      dup2\n      mload\n      dup2\n      lt\n      tag_69\n      jumpi\n      tag_69\n      tag_61\n      jump\t// in\n    tag_69:\n      0x20\n      add\n      add\n        /* \"XENFT/DateTime.sol\":769:804  str[1] = bytes1(MONTHS[offset + 1]) */\n      swap1\n      not(sub(shl(0xf8, 0x01), 0x01))\n      and\n      swap1\n      dup2\n      0x00\n      byte\n      swap1\n      mstore8\n      pop\n        /* \"XENFT/DateTime.sol\":393:438  bytes(\"JanFebMarAprMayJunJulAugSepOctNovDec\") */\n      mload(0x40)\n      dup1\n      0x60\n      add\n      0x40\n      mstore\n      dup1\n      0x24\n      dup2\n      mstore\n      0x20\n      add\n      data_96d6a90eed6f91467c7bdb1db0be6d07592cd4fef0db7cc42dee4786b44e0f41\n      0x24\n      swap2\n      codecopy\n        /* \"XENFT/DateTime.sol\":838:848  offset + 2 */\n      tag_70\n        /* \"XENFT/DateTime.sol\":838:844  offset */\n      dup3\n        /* \"XENFT/DateTime.sol\":847:848  2 */\n      0x02\n        /* \"XENFT/DateTime.sol\":838:848  offset + 2 */\n      tag_65\n      jump\t// in\n    tag_70:\n        /* \"XENFT/DateTime.sol\":831:849  MONTHS[offset + 2] */\n      dup2\n      mload\n      dup2\n      lt\n      tag_72\n      jumpi\n      tag_72\n      tag_61\n      jump\t// in\n    tag_72:\n      0x20\n      add\n      add\n      mload\n      0xf8\n      shr\n      0xf8\n      shl\n        /* \"XENFT/DateTime.sol\":815:818  str */\n      dup3\n        /* \"XENFT/DateTime.sol\":819:820  2 */\n      0x02\n        /* \"XENFT/DateTime.sol\":815:821  str[2] */\n      dup2\n      mload\n      dup2\n      lt\n      tag_74\n      jumpi\n      tag_74\n      tag_61\n      jump\t// in\n    tag_74:\n      0x20\n      add\n      add\n        /* \"XENFT/DateTime.sol\":815:850  str[2] = bytes1(MONTHS[offset + 2]) */\n      swap1\n      not(sub(shl(0xf8, 0x01), 0x01))\n      and\n      swap1\n      dup2\n      0x00\n      byte\n      swap1\n      mstore8\n      pop\n        /* \"XENFT/DateTime.sol\":875:878  str */\n      swap1\n      swap4\n        /* \"XENFT/DateTime.sol\":521:887  function monthAsString(uint256 idx) internal pure returns (string memory) {... */\n      swap3\n      pop\n      pop\n      pop\n      jump\t// out\n        /* \"XENFT/Strings.sol\":407:1130  function toString(uint256 value) internal pure returns (string memory) {... */\n    tag_29:\n        /* \"XENFT/Strings.sol\":463:476  string memory */\n      0x60\n        /* \"XENFT/Strings.sol\":684:689  value */\n      dup2\n        /* \"XENFT/Strings.sol\":693:694  0 */\n      0x00\n        /* \"XENFT/Strings.sol\":684:694  value == 0 */\n      sub\n        /* \"XENFT/Strings.sol\":680:733  if (value == 0) {... */\n      tag_76\n      jumpi\n      pop\n      pop\n        /* \"XENFT/Strings.sol\":711:721  return \"0\" */\n      0x40\n      dup1\n      mload\n      dup1\n      dup3\n      add\n      swap1\n      swap2\n      mstore\n      0x01\n      dup2\n      mstore\n      shl(0xfc, 0x03)\n      0x20\n      dup3\n      add\n      mstore\n      swap1\n        /* \"XENFT/Strings.sol\":407:1130  function toString(uint256 value) internal pure returns (string memory) {... */\n      jump\t// out\n        /* \"XENFT/Strings.sol\":680:733  if (value == 0) {... */\n    tag_76:\n        /* \"XENFT/Strings.sol\":758:763  value */\n      dup2\n        /* \"XENFT/Strings.sol\":743:755  uint256 temp */\n      0x00\n        /* \"XENFT/Strings.sol\":799:877  while (temp != 0) {... */\n    tag_77:\n        /* \"XENFT/Strings.sol\":806:815  temp != 0 */\n      dup2\n      iszero\n        /* \"XENFT/Strings.sol\":799:877  while (temp != 0) {... */\n      tag_78\n      jumpi\n        /* \"XENFT/Strings.sol\":832:840  digits++ */\n      dup1\n      tag_79\n      dup2\n      tag_80\n      jump\t// in\n    tag_79:\n      swap2\n      pop\n        /* \"XENFT/Strings.sol\":855:865  temp /= 10 */\n      tag_81\n      swap1\n      pop\n        /* \"XENFT/Strings.sol\":863:865  10 */\n      0x0a\n        /* \"XENFT/Strings.sol\":855:865  temp /= 10 */\n      dup4\n      tag_39\n      jump\t// in\n    tag_81:\n      swap2\n      pop\n        /* \"XENFT/Strings.sol\":799:877  while (temp != 0) {... */\n      jump(tag_77)\n    tag_78:\n        /* \"XENFT/Strings.sol\":887:906  bytes memory buffer */\n      0x00\n        /* \"XENFT/Strings.sol\":919:925  digits */\n      dup2\n        /* \"XENFT/Strings.sol\":909:926  new bytes(digits) */\n      0xffffffffffffffff\n      dup2\n      gt\n      iszero\n      tag_83\n      jumpi\n      tag_83\n      tag_53\n      jump\t// in\n    tag_83:\n      mload(0x40)\n      swap1\n      dup1\n      dup3\n      mstore\n      dup1\n      0x1f\n      add\n      not(0x1f)\n      and\n      0x20\n      add\n      dup3\n      add\n      0x40\n      mstore\n      dup1\n      iszero\n      tag_84\n      jumpi\n      0x20\n      dup3\n      add\n      dup2\n      dup1\n      calldatasize\n      dup4\n      calldatacopy\n      add\n      swap1\n      pop\n    tag_84:\n      pop\n        /* \"XENFT/Strings.sol\":887:926  bytes memory buffer = new bytes(digits) */\n      swap1\n      pop\n        /* \"XENFT/Strings.sol\":937:1091  while (value != 0) {... */\n    tag_85:\n        /* \"XENFT/Strings.sol\":944:954  value != 0 */\n      dup5\n      iszero\n        /* \"XENFT/Strings.sol\":937:1091  while (value != 0) {... */\n      tag_86\n      jumpi\n        /* \"XENFT/Strings.sol\":971:982  digits -= 1 */\n      tag_87\n        /* \"XENFT/Strings.sol\":981:982  1 */\n      0x01\n        /* \"XENFT/Strings.sol\":971:982  digits -= 1 */\n      dup4\n      tag_56\n      jump\t// in\n    tag_87:\n      swap2\n      pop\n        /* \"XENFT/Strings.sol\":1040:1050  value % 10 */\n      tag_88\n        /* \"XENFT/Strings.sol\":1048:1050  10 */\n      0x0a\n        /* \"XENFT/Strings.sol\":1040:1045  value */\n      dup7\n        /* \"XENFT/Strings.sol\":1040:1050  value % 10 */\n      tag_42\n      jump\t// in\n    tag_88:\n        /* \"XENFT/Strings.sol\":1027:1051  48 + uint256(value % 10) */\n      tag_89\n      swap1\n        /* \"XENFT/Strings.sol\":1027:1029  48 */\n      0x30\n        /* \"XENFT/Strings.sol\":1027:1051  48 + uint256(value % 10) */\n      tag_65\n      jump\t// in\n    tag_89:\n        /* \"XENFT/Strings.sol\":1014:1053  bytes1(uint8(48 + uint256(value % 10))) */\n      0xf8\n      shl\n        /* \"XENFT/Strings.sol\":997:1003  buffer */\n      dup2\n        /* \"XENFT/Strings.sol\":1004:1010  digits */\n      dup4\n        /* \"XENFT/Strings.sol\":997:1011  buffer[digits] */\n      dup2\n      mload\n      dup2\n      lt\n      tag_91\n      jumpi\n      tag_91\n      tag_61\n      jump\t// in\n    tag_91:\n      0x20\n      add\n      add\n        /* \"XENFT/Strings.sol\":997:1053  buffer[digits] = bytes1(uint8(48 + uint256(value % 10))) */\n      swap1\n      not(sub(shl(0xf8, 0x01), 0x01))\n      and\n      swap1\n      dup2\n      0x00\n      byte\n      swap1\n      mstore8\n      pop\n        /* \"XENFT/Strings.sol\":1068:1079  value /= 10 */\n      tag_92\n        /* \"XENFT/Strings.sol\":1077:1079  10 */\n      0x0a\n        /* \"XENFT/Strings.sol\":1068:1079  value /= 10 */\n      dup7\n      tag_39\n      jump\t// in\n    tag_92:\n      swap5\n      pop\n        /* \"XENFT/Strings.sol\":937:1091  while (value != 0) {... */\n      jump(tag_85)\n    tag_86:\n        /* \"XENFT/Strings.sol\":1115:1121  buffer */\n      swap5\n        /* \"XENFT/Strings.sol\":407:1130  function toString(uint256 value) internal pure returns (string memory) {... */\n      swap4\n      pop\n      pop\n      pop\n      pop\n      jump\t// out\n        /* \"XENFT/DateTime.sol\":994:1201  function asPaddedString(uint256 n) internal pure returns (string memory) {... */\n    tag_32:\n        /* \"XENFT/DateTime.sol\":1052:1065  string memory */\n      0x60\n        /* \"XENFT/DateTime.sol\":1082:1083  n */\n      dup2\n        /* \"XENFT/DateTime.sol\":1087:1088  0 */\n      0x00\n        /* \"XENFT/DateTime.sol\":1082:1088  n == 0 */\n      sub\n        /* \"XENFT/DateTime.sol\":1078:1101  if (n == 0) return \"00\" */\n      tag_94\n      jumpi\n      pop\n      pop\n        /* \"XENFT/DateTime.sol\":1090:1101  return \"00\" */\n      0x40\n      dup1\n      mload\n      dup1\n      dup3\n      add\n      swap1\n      swap2\n      mstore\n      0x02\n      dup2\n      mstore\n      shl(0xf4, 0x0303)\n      0x20\n      dup3\n      add\n      mstore\n      swap1\n        /* \"XENFT/DateTime.sol\":994:1201  function asPaddedString(uint256 n) internal pure returns (string memory) {... */\n      jump\t// out\n        /* \"XENFT/DateTime.sol\":1078:1101  if (n == 0) return \"00\" */\n    tag_94:\n        /* \"XENFT/DateTime.sol\":1120:1122  10 */\n      0x0a\n        /* \"XENFT/DateTime.sol\":1116:1117  n */\n      dup3\n        /* \"XENFT/DateTime.sol\":1116:1122  n < 10 */\n      lt\n        /* \"XENFT/DateTime.sol\":1112:1163  if (n < 10) return string.concat(\"0\", n.toString()) */\n      iszero\n      tag_95\n      jumpi\n        /* \"XENFT/DateTime.sol\":1150:1162  n.toString() */\n      tag_96\n        /* \"XENFT/DateTime.sol\":1150:1151  n */\n      dup3\n        /* \"XENFT/DateTime.sol\":1150:1160  n.toString */\n      tag_29\n        /* \"XENFT/DateTime.sol\":1150:1162  n.toString() */\n      jump\t// in\n    tag_96:\n        /* \"XENFT/DateTime.sol\":1131:1163  string.concat(\"0\", n.toString()) */\n      add(0x20, mload(0x40))\n      tag_97\n      swap2\n      swap1\n      tag_98\n      jump\t// in\n    tag_97:\n      mload(0x40)\n      0x20\n      dup2\n      dup4\n      sub\n      sub\n      dup2\n      mstore\n      swap1\n      0x40\n      mstore\n        /* \"XENFT/DateTime.sol\":1124:1163  return string.concat(\"0\", n.toString()) */\n      swap1\n      pop\n        /* \"XENFT/DateTime.sol\":994:1201  function asPaddedString(uint256 n) internal pure returns (string memory) {... */\n      swap2\n      swap1\n      pop\n      jump\t// out\n        /* \"XENFT/DateTime.sol\":1112:1163  if (n < 10) return string.concat(\"0\", n.toString()) */\n    tag_95:\n        /* \"XENFT/DateTime.sol\":1181:1193  n.toString() */\n      tag_99\n        /* \"XENFT/DateTime.sol\":1181:1182  n */\n      dup3\n        /* \"XENFT/DateTime.sol\":1181:1191  n.toString */\n      tag_29\n        /* \"XENFT/DateTime.sol\":1181:1193  n.toString() */\n      jump\t// in\n    tag_99:\n        /* \"XENFT/DateTime.sol\":1174:1193  return n.toString() */\n      swap3\n        /* \"XENFT/DateTime.sol\":994:1201  function asPaddedString(uint256 n) internal pure returns (string memory) {... */\n      swap2\n      pop\n      pop\n      jump\t// out\n        /* \"XENFT/BokkyPooBahsDateTimeLibrary.sol\":3383:4139  function _daysToDate(uint256 _days)... */\n    tag_40:\n        /* \"XENFT/BokkyPooBahsDateTimeLibrary.sol\":3482:3494  uint256 year */\n      0x00\n      dup1\n      dup1\n        /* \"XENFT/BokkyPooBahsDateTimeLibrary.sol\":3599:3604  _days */\n      dup4\n        /* \"XENFT/BokkyPooBahsDateTimeLibrary.sol\":3482:3494  uint256 year */\n      dup2\n        /* \"XENFT/BokkyPooBahsDateTimeLibrary.sol\":1203:1210  2440588 */\n      0x253d8c\n        /* \"XENFT/BokkyPooBahsDateTimeLibrary.sol\":3629:3643  __days + 68569 */\n      tag_101\n        /* \"XENFT/BokkyPooBahsDateTimeLibrary.sol\":3599:3604  _days */\n      dup4\n        /* \"XENFT/BokkyPooBahsDateTimeLibrary.sol\":3638:3643  68569 */\n      0x010bd9\n        /* \"XENFT/BokkyPooBahsDateTimeLibrary.sol\":3629:3643  __days + 68569 */\n      tag_102\n      jump\t// in\n    tag_101:\n        /* \"XENFT/BokkyPooBahsDateTimeLibrary.sol\":3629:3661  __days + 68569 + _OFFSET19700101 */\n      tag_103\n      swap2\n      swap1\n      tag_102\n      jump\t// in\n    tag_103:\n        /* \"XENFT/BokkyPooBahsDateTimeLibrary.sol\":3618:3661  int256 L = __days + 68569 + _OFFSET19700101 */\n      swap1\n      pop\n        /* \"XENFT/BokkyPooBahsDateTimeLibrary.sol\":3672:3680  int256 N */\n      0x00\n        /* \"XENFT/BokkyPooBahsDateTimeLibrary.sol\":3693:3699  146097 */\n      0x023ab1\n        /* \"XENFT/BokkyPooBahsDateTimeLibrary.sol\":3684:3689  4 * L */\n      tag_104\n        /* \"XENFT/BokkyPooBahsDateTimeLibrary.sol\":3618:3661  int256 L = __days + 68569 + _OFFSET19700101 */\n      dup4\n        /* \"XENFT/BokkyPooBahsDateTimeLibrary.sol\":3684:3685  4 */\n      0x04\n        /* \"XENFT/BokkyPooBahsDateTimeLibrary.sol\":3684:3689  4 * L */\n      tag_105\n      jump\t// in\n    tag_104:\n        /* \"XENFT/BokkyPooBahsDateTimeLibrary.sol\":3683:3699  (4 * L) / 146097 */\n      tag_106\n      swap2\n      swap1\n      tag_107\n      jump\t// in\n    tag_106:\n        /* \"XENFT/BokkyPooBahsDateTimeLibrary.sol\":3672:3699  int256 N = (4 * L) / 146097 */\n      swap1\n      pop\n        /* \"XENFT/BokkyPooBahsDateTimeLibrary.sol\":3737:3738  4 */\n      0x04\n        /* \"XENFT/BokkyPooBahsDateTimeLibrary.sol\":3719:3729  146097 * N */\n      tag_108\n        /* \"XENFT/BokkyPooBahsDateTimeLibrary.sol\":3672:3699  int256 N = (4 * L) / 146097 */\n      dup3\n        /* \"XENFT/BokkyPooBahsDateTimeLibrary.sol\":3719:3725  146097 */\n      0x023ab1\n        /* \"XENFT/BokkyPooBahsDateTimeLibrary.sol\":3719:3729  146097 * N */\n      tag_105\n      jump\t// in\n    tag_108:\n        /* \"XENFT/BokkyPooBahsDateTimeLibrary.sol\":3719:3733  146097 * N + 3 */\n      tag_109\n      swap1\n        /* \"XENFT/BokkyPooBahsDateTimeLibrary.sol\":3732:3733  3 */\n      0x03\n        /* \"XENFT/BokkyPooBahsDateTimeLibrary.sol\":3719:3733  146097 * N + 3 */\n      tag_102\n      jump\t// in\n    tag_109:\n        /* \"XENFT/BokkyPooBahsDateTimeLibrary.sol\":3718:3738  (146097 * N + 3) / 4 */\n      tag_110\n      swap2\n      swap1\n      tag_107\n      jump\t// in\n    tag_110:\n        /* \"XENFT/BokkyPooBahsDateTimeLibrary.sol\":3714:3738  L - (146097 * N + 3) / 4 */\n      tag_111\n      swap1\n        /* \"XENFT/BokkyPooBahsDateTimeLibrary.sol\":3714:3715  L */\n      dup4\n        /* \"XENFT/BokkyPooBahsDateTimeLibrary.sol\":3714:3738  L - (146097 * N + 3) / 4 */\n      tag_112\n      jump\t// in\n    tag_111:\n        /* \"XENFT/BokkyPooBahsDateTimeLibrary.sol\":3710:3738  L = L - (146097 * N + 3) / 4 */\n      swap2\n      pop\n        /* \"XENFT/BokkyPooBahsDateTimeLibrary.sol\":3749:3761  int256 _year */\n      0x00\n        /* \"XENFT/BokkyPooBahsDateTimeLibrary.sol\":3783:3790  1461001 */\n      0x164b09\n        /* \"XENFT/BokkyPooBahsDateTimeLibrary.sol\":3773:3778  L + 1 */\n      tag_113\n        /* \"XENFT/BokkyPooBahsDateTimeLibrary.sol\":3710:3738  L = L - (146097 * N + 3) / 4 */\n      dup5\n        /* \"XENFT/BokkyPooBahsDateTimeLibrary.sol\":3777:3778  1 */\n      0x01\n        /* \"XENFT/BokkyPooBahsDateTimeLibrary.sol\":3773:3778  L + 1 */\n      tag_102\n      jump\t// in\n    tag_113:\n        /* \"XENFT/BokkyPooBahsDateTimeLibrary.sol\":3765:3779  4000 * (L + 1) */\n      tag_114\n      swap1\n        /* \"XENFT/BokkyPooBahsDateTimeLibrary.sol\":3765:3769  4000 */\n      0x0fa0\n        /* \"XENFT/BokkyPooBahsDateTimeLibrary.sol\":3765:3779  4000 * (L + 1) */\n      tag_105\n      jump\t// in\n    tag_114:\n        /* \"XENFT/BokkyPooBahsDateTimeLibrary.sol\":3764:3790  (4000 * (L + 1)) / 1461001 */\n      tag_115\n      swap2\n      swap1\n      tag_107\n      jump\t// in\n    tag_115:\n        /* \"XENFT/BokkyPooBahsDateTimeLibrary.sol\":3749:3790  int256 _year = (4000 * (L + 1)) / 1461001 */\n      swap1\n      pop\n        /* \"XENFT/BokkyPooBahsDateTimeLibrary.sol\":3826:3827  4 */\n      0x04\n        /* \"XENFT/BokkyPooBahsDateTimeLibrary.sol\":3810:3822  1461 * _year */\n      tag_116\n        /* \"XENFT/BokkyPooBahsDateTimeLibrary.sol\":3749:3790  int256 _year = (4000 * (L + 1)) / 1461001 */\n      dup3\n        /* \"XENFT/BokkyPooBahsDateTimeLibrary.sol\":3810:3814  1461 */\n      0x05b5\n        /* \"XENFT/BokkyPooBahsDateTimeLibrary.sol\":3810:3822  1461 * _year */\n      tag_105\n      jump\t// in\n    tag_116:\n        /* \"XENFT/BokkyPooBahsDateTimeLibrary.sol\":3809:3827  (1461 * _year) / 4 */\n      tag_117\n      swap2\n      swap1\n      tag_107\n      jump\t// in\n    tag_117:\n        /* \"XENFT/BokkyPooBahsDateTimeLibrary.sol\":3805:3827  L - (1461 * _year) / 4 */\n      tag_118\n      swap1\n        /* \"XENFT/BokkyPooBahsDateTimeLibrary.sol\":3805:3806  L */\n      dup5\n        /* \"XENFT/BokkyPooBahsDateTimeLibrary.sol\":3805:3827  L - (1461 * _year) / 4 */\n      tag_112\n      jump\t// in\n    tag_118:\n        /* \"XENFT/BokkyPooBahsDateTimeLibrary.sol\":3805:3832  L - (1461 * _year) / 4 + 31 */\n      tag_119\n      swap1\n        /* \"XENFT/BokkyPooBahsDateTimeLibrary.sol\":3830:3832  31 */\n      0x1f\n        /* \"XENFT/BokkyPooBahsDateTimeLibrary.sol\":3805:3832  L - (1461 * _year) / 4 + 31 */\n      tag_102\n      jump\t// in\n    tag_119:\n        /* \"XENFT/BokkyPooBahsDateTimeLibrary.sol\":3801:3832  L = L - (1461 * _year) / 4 + 31 */\n      swap3\n      pop\n        /* \"XENFT/BokkyPooBahsDateTimeLibrary.sol\":3843:3856  int256 _month */\n      0x00\n        /* \"XENFT/BokkyPooBahsDateTimeLibrary.sol\":3870:3874  2447 */\n      0x098f\n        /* \"XENFT/BokkyPooBahsDateTimeLibrary.sol\":3860:3866  80 * L */\n      tag_120\n        /* \"XENFT/BokkyPooBahsDateTimeLibrary.sol\":3801:3832  L = L - (1461 * _year) / 4 + 31 */\n      dup6\n        /* \"XENFT/BokkyPooBahsDateTimeLibrary.sol\":3860:3862  80 */\n      0x50\n        /* \"XENFT/BokkyPooBahsDateTimeLibrary.sol\":3860:3866  80 * L */\n      tag_105\n      jump\t// in\n    tag_120:\n        /* \"XENFT/BokkyPooBahsDateTimeLibrary.sol\":3859:3874  (80 * L) / 2447 */\n      tag_121\n      swap2\n      swap1\n      tag_107\n      jump\t// in\n    tag_121:\n        /* \"XENFT/BokkyPooBahsDateTimeLibrary.sol\":3843:3874  int256 _month = (80 * L) / 2447 */\n      swap1\n      pop\n        /* \"XENFT/BokkyPooBahsDateTimeLibrary.sol\":3885:3896  int256 _day */\n      0x00\n        /* \"XENFT/BokkyPooBahsDateTimeLibrary.sol\":3921:3923  80 */\n      0x50\n        /* \"XENFT/BokkyPooBahsDateTimeLibrary.sol\":3904:3917  2447 * _month */\n      tag_122\n        /* \"XENFT/BokkyPooBahsDateTimeLibrary.sol\":3843:3874  int256 _month = (80 * L) / 2447 */\n      dup4\n        /* \"XENFT/BokkyPooBahsDateTimeLibrary.sol\":3904:3908  2447 */\n      0x098f\n        /* \"XENFT/BokkyPooBahsDateTimeLibrary.sol\":3904:3917  2447 * _month */\n      tag_105\n      jump\t// in\n    tag_122:\n        /* \"XENFT/BokkyPooBahsDateTimeLibrary.sol\":3903:3923  (2447 * _month) / 80 */\n      tag_123\n      swap2\n      swap1\n      tag_107\n      jump\t// in\n    tag_123:\n        /* \"XENFT/BokkyPooBahsDateTimeLibrary.sol\":3899:3923  L - (2447 * _month) / 80 */\n      tag_124\n      swap1\n        /* \"XENFT/BokkyPooBahsDateTimeLibrary.sol\":3899:3900  L */\n      dup7\n        /* \"XENFT/BokkyPooBahsDateTimeLibrary.sol\":3899:3923  L - (2447 * _month) / 80 */\n      tag_112\n      jump\t// in\n    tag_124:\n        /* \"XENFT/BokkyPooBahsDateTimeLibrary.sol\":3885:3923  int256 _day = L - (2447 * _month) / 80 */\n      swap1\n      pop\n        /* \"XENFT/BokkyPooBahsDateTimeLibrary.sol\":3938:3949  _month / 11 */\n      tag_125\n        /* \"XENFT/BokkyPooBahsDateTimeLibrary.sol\":3947:3949  11 */\n      0x0b\n        /* \"XENFT/BokkyPooBahsDateTimeLibrary.sol\":3938:3944  _month */\n      dup4\n        /* \"XENFT/BokkyPooBahsDateTimeLibrary.sol\":3938:3949  _month / 11 */\n      tag_107\n      jump\t// in\n    tag_125:\n        /* \"XENFT/BokkyPooBahsDateTimeLibrary.sol\":3934:3949  L = _month / 11 */\n      swap5\n      pop\n        /* \"XENFT/BokkyPooBahsDateTimeLibrary.sol\":3982:3988  12 * L */\n      tag_126\n        /* \"XENFT/BokkyPooBahsDateTimeLibrary.sol\":3934:3949  L = _month / 11 */\n      dup6\n        /* \"XENFT/BokkyPooBahsDateTimeLibrary.sol\":3982:3984  12 */\n      0x0c\n        /* \"XENFT/BokkyPooBahsDateTimeLibrary.sol\":3982:3988  12 * L */\n      tag_105\n      jump\t// in\n    tag_126:\n        /* \"XENFT/BokkyPooBahsDateTimeLibrary.sol\":3969:3979  _month + 2 */\n      tag_127\n        /* \"XENFT/BokkyPooBahsDateTimeLibrary.sol\":3969:3975  _month */\n      dup4\n        /* \"XENFT/BokkyPooBahsDateTimeLibrary.sol\":3978:3979  2 */\n      0x02\n        /* \"XENFT/BokkyPooBahsDateTimeLibrary.sol\":3969:3979  _month + 2 */\n      tag_102\n      jump\t// in\n    tag_127:\n        /* \"XENFT/BokkyPooBahsDateTimeLibrary.sol\":3969:3988  _month + 2 - 12 * L */\n      tag_128\n      swap2\n      swap1\n      tag_112\n      jump\t// in\n    tag_128:\n        /* \"XENFT/BokkyPooBahsDateTimeLibrary.sol\":3960:3988  _month = _month + 2 - 12 * L */\n      swap2\n      pop\n        /* \"XENFT/BokkyPooBahsDateTimeLibrary.sol\":4032:4033  L */\n      dup5\n        /* \"XENFT/BokkyPooBahsDateTimeLibrary.sol\":4024:4029  _year */\n      dup4\n        /* \"XENFT/BokkyPooBahsDateTimeLibrary.sol\":4014:4020  N - 49 */\n      tag_129\n        /* \"XENFT/BokkyPooBahsDateTimeLibrary.sol\":4018:4020  49 */\n      0x31\n        /* \"XENFT/BokkyPooBahsDateTimeLibrary.sol\":4014:4015  N */\n      dup8\n        /* \"XENFT/BokkyPooBahsDateTimeLibrary.sol\":4014:4020  N - 49 */\n      tag_112\n      jump\t// in\n    tag_129:\n        /* \"XENFT/BokkyPooBahsDateTimeLibrary.sol\":4007:4021  100 * (N - 49) */\n      tag_130\n      swap1\n        /* \"XENFT/BokkyPooBahsDateTimeLibrary.sol\":4007:4010  100 */\n      0x64\n        /* \"XENFT/BokkyPooBahsDateTimeLibrary.sol\":4007:4021  100 * (N - 49) */\n      tag_105\n      jump\t// in\n    tag_130:\n        /* \"XENFT/BokkyPooBahsDateTimeLibrary.sol\":4007:4029  100 * (N - 49) + _year */\n      tag_131\n      swap2\n      swap1\n      tag_102\n      jump\t// in\n    tag_131:\n        /* \"XENFT/BokkyPooBahsDateTimeLibrary.sol\":4007:4033  100 * (N - 49) + _year + L */\n      tag_132\n      swap2\n      swap1\n      tag_102\n      jump\t// in\n    tag_132:\n        /* \"XENFT/BokkyPooBahsDateTimeLibrary.sol\":3999:4033  _year = 100 * (N - 49) + _year + L */\n      swap11\n        /* \"XENFT/BokkyPooBahsDateTimeLibrary.sol\":4094:4100  _month */\n      swap2\n      swap10\n      pop\n        /* \"XENFT/BokkyPooBahsDateTimeLibrary.sol\":4126:4130  _day */\n      swap8\n      pop\n        /* \"XENFT/BokkyPooBahsDateTimeLibrary.sol\":3383:4139  function _daysToDate(uint256 _days)... */\n      swap6\n      pop\n      pop\n      pop\n      pop\n      pop\n      pop\n      jump\t// out\n        /* \"#utility.yul\":14:194   */\n    tag_7:\n        /* \"#utility.yul\":73:79   */\n      0x00\n        /* \"#utility.yul\":126:128   */\n      0x20\n        /* \"#utility.yul\":114:123   */\n      dup3\n        /* \"#utility.yul\":105:112   */\n      dup5\n        /* \"#utility.yul\":101:124   */\n      sub\n        /* \"#utility.yul\":97:129   */\n      slt\n        /* \"#utility.yul\":94:146   */\n      iszero\n      tag_139\n      jumpi\n        /* \"#utility.yul\":142:143   */\n      0x00\n        /* \"#utility.yul\":139:140   */\n      dup1\n        /* \"#utility.yul\":132:144   */\n      revert\n        /* \"#utility.yul\":94:146   */\n    tag_139:\n      pop\n        /* \"#utility.yul\":165:188   */\n      calldataload\n      swap2\n        /* \"#utility.yul\":14:194   */\n      swap1\n      pop\n      jump\t// out\n        /* \"#utility.yul\":199:449   */\n    tag_133:\n        /* \"#utility.yul\":284:285   */\n      0x00\n        /* \"#utility.yul\":294:407   */\n    tag_141:\n        /* \"#utility.yul\":308:314   */\n      dup4\n        /* \"#utility.yul\":305:306   */\n      dup2\n        /* \"#utility.yul\":302:315   */\n      lt\n        /* \"#utility.yul\":294:407   */\n      iszero\n      tag_143\n      jumpi\n        /* \"#utility.yul\":384:395   */\n      dup2\n      dup2\n      add\n        /* \"#utility.yul\":378:396   */\n      mload\n        /* \"#utility.yul\":365:376   */\n      dup4\n      dup3\n      add\n        /* \"#utility.yul\":358:397   */\n      mstore\n        /* \"#utility.yul\":330:332   */\n      0x20\n        /* \"#utility.yul\":323:333   */\n      add\n        /* \"#utility.yul\":294:407   */\n      jump(tag_141)\n    tag_143:\n      pop\n      pop\n        /* \"#utility.yul\":441:442   */\n      0x00\n        /* \"#utility.yul\":423:439   */\n      swap2\n      add\n        /* \"#utility.yul\":416:443   */\n      mstore\n        /* \"#utility.yul\":199:449   */\n      jump\t// out\n        /* \"#utility.yul\":454:725   */\n    tag_134:\n        /* \"#utility.yul\":496:499   */\n      0x00\n        /* \"#utility.yul\":534:539   */\n      dup2\n        /* \"#utility.yul\":528:540   */\n      mload\n        /* \"#utility.yul\":561:567   */\n      dup1\n        /* \"#utility.yul\":556:559   */\n      dup5\n        /* \"#utility.yul\":549:568   */\n      mstore\n        /* \"#utility.yul\":577:653   */\n      tag_145\n        /* \"#utility.yul\":646:652   */\n      dup2\n        /* \"#utility.yul\":639:643   */\n      0x20\n        /* \"#utility.yul\":634:637   */\n      dup7\n        /* \"#utility.yul\":630:644   */\n      add\n        /* \"#utility.yul\":623:627   */\n      0x20\n        /* \"#utility.yul\":616:621   */\n      dup7\n        /* \"#utility.yul\":612:628   */\n      add\n        /* \"#utility.yul\":577:653   */\n      tag_133\n      jump\t// in\n    tag_145:\n        /* \"#utility.yul\":707:709   */\n      0x1f\n        /* \"#utility.yul\":686:701   */\n      add\n      not(0x1f)\n        /* \"#utility.yul\":682:711   */\n      and\n        /* \"#utility.yul\":673:712   */\n      swap3\n      swap1\n      swap3\n      add\n        /* \"#utility.yul\":714:718   */\n      0x20\n        /* \"#utility.yul\":669:719   */\n      add\n      swap3\n        /* \"#utility.yul\":454:725   */\n      swap2\n      pop\n      pop\n      jump\t// out\n        /* \"#utility.yul\":730:1029   */\n    tag_10:\n        /* \"#utility.yul\":915:921   */\n      dup3\n        /* \"#utility.yul\":904:913   */\n      dup2\n        /* \"#utility.yul\":897:922   */\n      mstore\n        /* \"#utility.yul\":958:960   */\n      0x40\n        /* \"#utility.yul\":953:955   */\n      0x20\n        /* \"#utility.yul\":942:951   */\n      dup3\n        /* \"#utility.yul\":938:956   */\n      add\n        /* \"#utility.yul\":931:961   */\n      mstore\n        /* \"#utility.yul\":878:882   */\n      0x00\n        /* \"#utility.yul\":978:1023   */\n      tag_86\n        /* \"#utility.yul\":1019:1021   */\n      0x40\n        /* \"#utility.yul\":1008:1017   */\n      dup4\n        /* \"#utility.yul\":1004:1022   */\n      add\n        /* \"#utility.yul\":996:1002   */\n      dup5\n        /* \"#utility.yul\":978:1023   */\n      tag_134\n      jump\t// in\n        /* \"#utility.yul\":1034:1260   */\n    tag_14:\n        /* \"#utility.yul\":1189:1191   */\n      0x20\n        /* \"#utility.yul\":1178:1187   */\n      dup2\n        /* \"#utility.yul\":1171:1192   */\n      mstore\n        /* \"#utility.yul\":1152:1156   */\n      0x00\n        /* \"#utility.yul\":1209:1254   */\n      tag_149\n        /* \"#utility.yul\":1250:1252   */\n      0x20\n        /* \"#utility.yul\":1239:1248   */\n      dup4\n        /* \"#utility.yul\":1235:1253   */\n      add\n        /* \"#utility.yul\":1227:1233   */\n      dup5\n        /* \"#utility.yul\":1209:1254   */\n      tag_134\n      jump\t// in\n    tag_149:\n        /* \"#utility.yul\":1201:1254   */\n      swap4\n        /* \"#utility.yul\":1034:1260   */\n      swap3\n      pop\n      pop\n      pop\n      jump\t// out\n        /* \"#utility.yul\":1498:3350   */\n    tag_35:\n        /* \"#utility.yul\":2326:2329   */\n      0x00\n        /* \"#utility.yul\":2364:2370   */\n      dup7\n        /* \"#utility.yul\":2358:2371   */\n      mload\n        /* \"#utility.yul\":2380:2446   */\n      tag_153\n        /* \"#utility.yul\":2439:2445   */\n      dup2\n        /* \"#utility.yul\":2434:2437   */\n      dup5\n        /* \"#utility.yul\":2427:2431   */\n      0x20\n        /* \"#utility.yul\":2419:2425   */\n      dup12\n        /* \"#utility.yul\":2415:2432   */\n      add\n        /* \"#utility.yul\":2380:2446   */\n      tag_133\n      jump\t// in\n    tag_153:\n        /* \"#utility.yul\":2477:2483   */\n      dup1\n        /* \"#utility.yul\":2472:2475   */\n      dup4\n        /* \"#utility.yul\":2468:2484   */\n      add\n        /* \"#utility.yul\":2455:2484   */\n      swap1\n      pop\n      shl(0xfd, 0x01)\n        /* \"#utility.yul\":2529:2531   */\n      dup1\n        /* \"#utility.yul\":2522:2527   */\n      dup3\n        /* \"#utility.yul\":2515:2532   */\n      mstore\n        /* \"#utility.yul\":2563:2569   */\n      dup8\n        /* \"#utility.yul\":2557:2570   */\n      mload\n        /* \"#utility.yul\":2579:2657   */\n      tag_154\n        /* \"#utility.yul\":2648:2656   */\n      dup2\n        /* \"#utility.yul\":2644:2645   */\n      0x01\n        /* \"#utility.yul\":2637:2642   */\n      dup6\n        /* \"#utility.yul\":2633:2646   */\n      add\n        /* \"#utility.yul\":2626:2630   */\n      0x20\n        /* \"#utility.yul\":2618:2624   */\n      dup13\n        /* \"#utility.yul\":2614:2631   */\n      add\n        /* \"#utility.yul\":2579:2657   */\n      tag_133\n      jump\t// in\n    tag_154:\n      shl(0xf5, 0x0161)\n        /* \"#utility.yul\":2720:2721   */\n      0x01\n        /* \"#utility.yul\":2676:2696   */\n      swap4\n      swap1\n      swap2\n      add\n        /* \"#utility.yul\":2712:2722   */\n      swap3\n      dup4\n      add\n        /* \"#utility.yul\":2705:2729   */\n      mstore\n        /* \"#utility.yul\":2754:2767   */\n      dup7\n      mload\n        /* \"#utility.yul\":2776:2851   */\n      tag_155\n        /* \"#utility.yul\":2754:2767   */\n      dup2\n        /* \"#utility.yul\":2838:2839   */\n      0x03\n        /* \"#utility.yul\":2830:2840   */\n      dup6\n      add\n        /* \"#utility.yul\":2823:2827   */\n      0x20\n        /* \"#utility.yul\":2811:2828   */\n      dup12\n      add\n        /* \"#utility.yul\":2776:2851   */\n      tag_133\n      jump\t// in\n    tag_155:\n        /* \"#utility.yul\":2911:2912   */\n      0x03\n        /* \"#utility.yul\":2870:2887   */\n      swap3\n      add\n        /* \"#utility.yul\":2903:2913   */\n      swap2\n      dup3\n      add\n        /* \"#utility.yul\":2896:2918   */\n      mstore\n        /* \"#utility.yul\":2943:2956   */\n      dup5\n      mload\n        /* \"#utility.yul\":2965:3040   */\n      tag_156\n        /* \"#utility.yul\":2943:2956   */\n      dup2\n        /* \"#utility.yul\":3027:3028   */\n      0x04\n        /* \"#utility.yul\":3019:3029   */\n      dup5\n      add\n        /* \"#utility.yul\":3012:3016   */\n      0x20\n        /* \"#utility.yul\":3000:3017   */\n      dup10\n      add\n        /* \"#utility.yul\":2965:3040   */\n      tag_133\n      jump\t// in\n    tag_156:\n        /* \"#utility.yul\":3082:3083   */\n      0x01\n        /* \"#utility.yul\":3071:3079   */\n      dup2\n        /* \"#utility.yul\":3067:3069   */\n      dup4\n        /* \"#utility.yul\":3063:3080   */\n      add\n        /* \"#utility.yul\":3059:3084   */\n      add\n        /* \"#utility.yul\":3049:3084   */\n      swap2\n      pop\n      pop\n      shl(0xf9, 0x1d)\n        /* \"#utility.yul\":3108:3109   */\n      0x03\n        /* \"#utility.yul\":3104:3106   */\n      dup3\n        /* \"#utility.yul\":3100:3110   */\n      add\n        /* \"#utility.yul\":3093:3116   */\n      mstore\n        /* \"#utility.yul\":3147:3153   */\n      dup4\n        /* \"#utility.yul\":3141:3154   */\n      mload\n        /* \"#utility.yul\":3163:3238   */\n      tag_157\n        /* \"#utility.yul\":3229:3237   */\n      dup2\n        /* \"#utility.yul\":3225:3226   */\n      0x04\n        /* \"#utility.yul\":3221:3223   */\n      dup5\n        /* \"#utility.yul\":3217:3227   */\n      add\n        /* \"#utility.yul\":3210:3214   */\n      0x20\n        /* \"#utility.yul\":3202:3208   */\n      dup9\n        /* \"#utility.yul\":3198:3215   */\n      add\n        /* \"#utility.yul\":3163:3238   */\n      tag_133\n      jump\t// in\n    tag_157:\n      shl(0xe0, 0x20555443)\n        /* \"#utility.yul\":3264:3281   */\n      swap2\n      add\n        /* \"#utility.yul\":3283:3284   */\n      0x04\n        /* \"#utility.yul\":3260:3285   */\n      dup2\n      add\n        /* \"#utility.yul\":3294:3315   */\n      swap2\n      swap1\n      swap2\n      mstore\n        /* \"#utility.yul\":3331:3344   */\n      0x08\n      add\n      swap8\n        /* \"#utility.yul\":1498:3350   */\n      swap7\n      pop\n      pop\n      pop\n      pop\n      pop\n      pop\n      pop\n      jump\t// out\n        /* \"#utility.yul\":3355:3482   */\n    tag_135:\n        /* \"#utility.yul\":3416:3426   */\n      0x4e487b71\n        /* \"#utility.yul\":3411:3414   */\n      0xe0\n        /* \"#utility.yul\":3407:3427   */\n      shl\n        /* \"#utility.yul\":3404:3405   */\n      0x00\n        /* \"#utility.yul\":3397:3428   */\n      mstore\n        /* \"#utility.yul\":3447:3451   */\n      0x12\n        /* \"#utility.yul\":3444:3445   */\n      0x04\n        /* \"#utility.yul\":3437:3452   */\n      mstore\n        /* \"#utility.yul\":3471:3475   */\n      0x24\n        /* \"#utility.yul\":3468:3469   */\n      0x00\n        /* \"#utility.yul\":3461:3476   */\n      revert\n        /* \"#utility.yul\":3487:3614   */\n    tag_136:\n        /* \"#utility.yul\":3548:3558   */\n      0x4e487b71\n        /* \"#utility.yul\":3543:3546   */\n      0xe0\n        /* \"#utility.yul\":3539:3559   */\n      shl\n        /* \"#utility.yul\":3536:3537   */\n      0x00\n        /* \"#utility.yul\":3529:3560   */\n      mstore\n        /* \"#utility.yul\":3579:3583   */\n      0x11\n        /* \"#utility.yul\":3576:3577   */\n      0x04\n        /* \"#utility.yul\":3569:3584   */\n      mstore\n        /* \"#utility.yul\":3603:3607   */\n      0x24\n        /* \"#utility.yul\":3600:3601   */\n      0x00\n        /* \"#utility.yul\":3593:3608   */\n      revert\n        /* \"#utility.yul\":3619:3739   */\n    tag_39:\n        /* \"#utility.yul\":3659:3660   */\n      0x00\n        /* \"#utility.yul\":3685:3686   */\n      dup3\n        /* \"#utility.yul\":3675:3710   */\n      tag_162\n      jumpi\n        /* \"#utility.yul\":3690:3708   */\n      tag_162\n      tag_135\n      jump\t// in\n    tag_162:\n      pop\n        /* \"#utility.yul\":3724:3733   */\n      div\n      swap1\n        /* \"#utility.yul\":3619:3739   */\n      jump\t// out\n        /* \"#utility.yul\":3744:3856   */\n    tag_42:\n        /* \"#utility.yul\":3776:3777   */\n      0x00\n        /* \"#utility.yul\":3802:3803   */\n      dup3\n        /* \"#utility.yul\":3792:3827   */\n      tag_165\n      jumpi\n        /* \"#utility.yul\":3807:3825   */\n      tag_165\n      tag_135\n      jump\t// in\n    tag_165:\n      pop\n        /* \"#utility.yul\":3841:3850   */\n      mod\n      swap1\n        /* \"#utility.yul\":3744:3856   */\n      jump\t// out\n        /* \"#utility.yul\":4196:4323   */\n    tag_53:\n        /* \"#utility.yul\":4257:4267   */\n      0x4e487b71\n        /* \"#utility.yul\":4252:4255   */\n      0xe0\n        /* \"#utility.yul\":4248:4268   */\n      shl\n        /* \"#utility.yul\":4245:4246   */\n      0x00\n        /* \"#utility.yul\":4238:4269   */\n      mstore\n        /* \"#utility.yul\":4288:4292   */\n      0x41\n        /* \"#utility.yul\":4285:4286   */\n      0x04\n        /* \"#utility.yul\":4278:4293   */\n      mstore\n        /* \"#utility.yul\":4312:4316   */\n      0x24\n        /* \"#utility.yul\":4309:4310   */\n      0x00\n        /* \"#utility.yul\":4302:4317   */\n      revert\n        /* \"#utility.yul\":4328:4456   */\n    tag_56:\n        /* \"#utility.yul\":4395:4404   */\n      dup2\n      dup2\n      sub\n        /* \"#utility.yul\":4416:4427   */\n      dup2\n      dup2\n      gt\n        /* \"#utility.yul\":4413:4450   */\n      iszero\n      tag_99\n      jumpi\n        /* \"#utility.yul\":4430:4448   */\n      tag_99\n      tag_136\n      jump\t// in\n        /* \"#utility.yul\":4461:4629   */\n    tag_58:\n        /* \"#utility.yul\":4534:4543   */\n      dup1\n      dup3\n      mul\n        /* \"#utility.yul\":4565:4574   */\n      dup2\n      iszero\n        /* \"#utility.yul\":4582:4597   */\n      dup3\n      dup3\n      div\n        /* \"#utility.yul\":4576:4598   */\n      dup5\n      eq\n        /* \"#utility.yul\":4562:4599   */\n      or\n        /* \"#utility.yul\":4552:4623   */\n      tag_99\n      jumpi\n        /* \"#utility.yul\":4603:4621   */\n      tag_99\n      tag_136\n      jump\t// in\n        /* \"#utility.yul\":4634:4761   */\n    tag_61:\n        /* \"#utility.yul\":4695:4705   */\n      0x4e487b71\n        /* \"#utility.yul\":4690:4693   */\n      0xe0\n        /* \"#utility.yul\":4686:4706   */\n      shl\n        /* \"#utility.yul\":4683:4684   */\n      0x00\n        /* \"#utility.yul\":4676:4707   */\n      mstore\n        /* \"#utility.yul\":4726:4730   */\n      0x32\n        /* \"#utility.yul\":4723:4724   */\n      0x04\n        /* \"#utility.yul\":4716:4731   */\n      mstore\n        /* \"#utility.yul\":4750:4754   */\n      0x24\n        /* \"#utility.yul\":4747:4748   */\n      0x00\n        /* \"#utility.yul\":4740:4755   */\n      revert\n        /* \"#utility.yul\":4766:4891   */\n    tag_65:\n        /* \"#utility.yul\":4831:4840   */\n      dup1\n      dup3\n      add\n        /* \"#utility.yul\":4852:4862   */\n      dup1\n      dup3\n      gt\n        /* \"#utility.yul\":4849:4885   */\n      iszero\n      tag_99\n      jumpi\n        /* \"#utility.yul\":4865:4883   */\n      tag_99\n      tag_136\n      jump\t// in\n        /* \"#utility.yul\":4896:5031   */\n    tag_80:\n        /* \"#utility.yul\":4935:4938   */\n      0x00\n        /* \"#utility.yul\":4956:4973   */\n      0x01\n      dup3\n      add\n        /* \"#utility.yul\":4953:4996   */\n      tag_180\n      jumpi\n        /* \"#utility.yul\":4976:4994   */\n      tag_180\n      tag_136\n      jump\t// in\n    tag_180:\n      pop\n        /* \"#utility.yul\":5023:5024   */\n      0x01\n        /* \"#utility.yul\":5012:5025   */\n      add\n      swap1\n        /* \"#utility.yul\":4896:5031   */\n      jump\t// out\n        /* \"#utility.yul\":5036:5456   */\n    tag_98:\n      shl(0xfc, 0x03)\n        /* \"#utility.yul\":5282:5285   */\n      dup2\n        /* \"#utility.yul\":5275:5291   */\n      mstore\n        /* \"#utility.yul\":5257:5260   */\n      0x00\n        /* \"#utility.yul\":5320:5326   */\n      dup3\n        /* \"#utility.yul\":5314:5327   */\n      mload\n        /* \"#utility.yul\":5336:5410   */\n      tag_182\n        /* \"#utility.yul\":5403:5409   */\n      dup2\n        /* \"#utility.yul\":5399:5400   */\n      0x01\n        /* \"#utility.yul\":5394:5397   */\n      dup6\n        /* \"#utility.yul\":5390:5401   */\n      add\n        /* \"#utility.yul\":5383:5387   */\n      0x20\n        /* \"#utility.yul\":5375:5381   */\n      dup8\n        /* \"#utility.yul\":5371:5388   */\n      add\n        /* \"#utility.yul\":5336:5410   */\n      tag_133\n      jump\t// in\n    tag_182:\n        /* \"#utility.yul\":5430:5446   */\n      swap2\n      swap1\n      swap2\n      add\n        /* \"#utility.yul\":5448:5449   */\n      0x01\n        /* \"#utility.yul\":5426:5450   */\n      add\n      swap3\n        /* \"#utility.yul\":5036:5456   */\n      swap2\n      pop\n      pop\n      jump\t// out\n        /* \"#utility.yul\":5461:5677   */\n    tag_102:\n        /* \"#utility.yul\":5525:5534   */\n      dup1\n      dup3\n      add\n        /* \"#utility.yul\":5553:5564   */\n      dup3\n      dup2\n      slt\n        /* \"#utility.yul\":5500:5503   */\n      0x00\n        /* \"#utility.yul\":5583:5592   */\n      dup4\n      slt\n        /* \"#utility.yul\":5611:5621   */\n      dup1\n      iszero\n        /* \"#utility.yul\":5607:5626   */\n      dup3\n      and\n        /* \"#utility.yul\":5636:5646   */\n      dup3\n      iszero\n        /* \"#utility.yul\":5628:5647   */\n      dup3\n      and\n        /* \"#utility.yul\":5604:5648   */\n      or\n        /* \"#utility.yul\":5601:5671   */\n      iszero\n      tag_185\n      jumpi\n        /* \"#utility.yul\":5651:5669   */\n      tag_185\n      tag_136\n      jump\t// in\n    tag_185:\n        /* \"#utility.yul\":5601:5671   */\n      pop\n      pop\n        /* \"#utility.yul\":5461:5677   */\n      swap3\n      swap2\n      pop\n      pop\n      jump\t// out\n        /* \"#utility.yul\":5682:5919   */\n    tag_105:\n        /* \"#utility.yul\":5754:5763   */\n      dup1\n      dup3\n      mul\n        /* \"#utility.yul\":5721:5728   */\n      0x00\n        /* \"#utility.yul\":5779:5788   */\n      dup3\n      slt\n      shl(0xff, 0x01)\n        /* \"#utility.yul\":5790:5808   */\n      dup5\n      eq\n        /* \"#utility.yul\":5775:5809   */\n      and\n        /* \"#utility.yul\":5772:5832   */\n      iszero\n      tag_188\n      jumpi\n        /* \"#utility.yul\":5812:5830   */\n      tag_188\n      tag_136\n      jump\t// in\n    tag_188:\n        /* \"#utility.yul\":5885:5886   */\n      dup2\n        /* \"#utility.yul\":5876:5883   */\n      dup2\n        /* \"#utility.yul\":5871:5887   */\n      sdiv\n        /* \"#utility.yul\":5868:5869   */\n      dup4\n        /* \"#utility.yul\":5865:5888   */\n      eq\n        /* \"#utility.yul\":5861:5862   */\n      dup3\n        /* \"#utility.yul\":5854:5863   */\n      iszero\n        /* \"#utility.yul\":5851:5889   */\n      or\n        /* \"#utility.yul\":5841:5913   */\n      tag_99\n      jumpi\n        /* \"#utility.yul\":5893:5911   */\n      tag_99\n      tag_136\n      jump\t// in\n        /* \"#utility.yul\":5924:6117   */\n    tag_107:\n        /* \"#utility.yul\":5963:5964   */\n      0x00\n        /* \"#utility.yul\":5989:5990   */\n      dup3\n        /* \"#utility.yul\":5979:6014   */\n      tag_193\n      jumpi\n        /* \"#utility.yul\":5994:6012   */\n      tag_193\n      tag_135\n      jump\t// in\n    tag_193:\n      shl(0xff, 0x01)\n        /* \"#utility.yul\":6030:6048   */\n      dup3\n      eq\n      not(0x00)\n        /* \"#utility.yul\":6050:6063   */\n      dup5\n      eq\n        /* \"#utility.yul\":6026:6064   */\n      and\n        /* \"#utility.yul\":6023:6087   */\n      iszero\n      tag_195\n      jumpi\n        /* \"#utility.yul\":6067:6085   */\n      tag_195\n      tag_136\n      jump\t// in\n    tag_195:\n      pop\n        /* \"#utility.yul\":6101:6111   */\n      sdiv\n      swap1\n        /* \"#utility.yul\":5924:6117   */\n      jump\t// out\n        /* \"#utility.yul\":6122:6322   */\n    tag_112:\n        /* \"#utility.yul\":6188:6197   */\n      dup2\n      dup2\n      sub\n        /* \"#utility.yul\":6161:6165   */\n      0x00\n        /* \"#utility.yul\":6216:6225   */\n      dup4\n      slt\n        /* \"#utility.yul\":6244:6254   */\n      dup1\n      iszero\n        /* \"#utility.yul\":6256:6268   */\n      dup4\n      dup4\n      sgt\n        /* \"#utility.yul\":6240:6269   */\n      and\n        /* \"#utility.yul\":6279:6291   */\n      dup4\n      dup4\n      slt\n        /* \"#utility.yul\":6271:6292   */\n      dup3\n      and\n        /* \"#utility.yul\":6237:6293   */\n      or\n        /* \"#utility.yul\":6234:6316   */\n      iszero\n      tag_198\n      jumpi\n        /* \"#utility.yul\":6296:6314   */\n      tag_198\n      tag_136\n      jump\t// in\n    tag_198:\n        /* \"#utility.yul\":6234:6316   */\n      pop\n        /* \"#utility.yul\":6122:6322   */\n      swap3\n      swap2\n      pop\n      pop\n      jump\t// out\n    stop\n    data_96d6a90eed6f91467c7bdb1db0be6d07592cd4fef0db7cc42dee4786b44e0f41 4a616e4665624d61724170724d61794a756e4a756c4175675365704f63744e6f76446563\n\n    auxdata: 0xa2646970667358221220375222079bf384cbb982620d2537d8c4cfb93611dc1adb6831fbbce06497719964736f6c63430008120033\n}\n",
				"bytecode": {
					"linkReferences": {},
					"object": "6109d161003a600b82828239805160001a60731461002d57634e487b7160e01b600052600060045260246000fd5b30600052607381538281f3fe730000000000000000000000000000000000000000301460806040526004361061004b5760003560e01c80635a97e730146100505780638fa626f21461007a578063b5d987e31461008f575b600080fd5b61006361005e366004610679565b6100a2565b6040516100719291906106e2565b60405180910390f35b6100826100cf565b60405161007191906106fb565b61008261009d366004610679565b6100eb565b600060606000806100b285610165565b5050505091509150816100c4826101d9565b935093505050915091565b6040518060600160405280602481526020016109786024913981565b606060008060008060006100fe87610165565b5094509450945094509450610112846101d9565b61011b8461038d565b6101248761038d565b61012d85610496565b61013685610496565b60405160200161014a959493929190610715565b60405160208183030381529060405295505050505050919050565b6000808080808061018161017c62015180896107f7565b610505565b919750955093506000610197620151808961080b565b90506101a5610e10826107f7565b93506101b3610e108261080b565b90506101c0603c826107f7565b92506101cd603c8261080b565b91505091939550919395565b6060600082116102195760405162461bcd60e51b81526020600482015260076024820152660c4c2c840d2c8f60cb1b604482015260640160405180910390fd5b6040805160038082528183019092526000916020820181803683370190505090506000610247600185610835565b610252906003610848565b905060405180606001604052806024815260200161097860249139818151811061027e5761027e61085f565b602001015160f81c60f81b8260008151811061029c5761029c61085f565b60200101906001600160f81b031916908160001a905350604051806060016040528060248152602001610978602491396102d7826001610875565b815181106102e7576102e761085f565b602001015160f81c60f81b826001815181106103055761030561085f565b60200101906001600160f81b031916908160001a90535060405180606001604052806024815260200161097860249139610340826002610875565b815181106103505761035061085f565b602001015160f81c60f81b8260028151811061036e5761036e61085f565b60200101906001600160f81b031916908160001a905350909392505050565b6060816000036103b45750506040805180820190915260018152600360fc1b602082015290565b8160005b81156103de57806103c881610888565b91506103d79050600a836107f7565b91506103b8565b60008167ffffffffffffffff8111156103f9576103f961081f565b6040519080825280601f01601f191660200182016040528015610423576020820181803683370190505b5090505b841561048e57610438600183610835565b9150610445600a8661080b565b610450906030610875565b60f81b8183815181106104655761046561085f565b60200101906001600160f81b031916908160001a905350610487600a866107f7565b9450610427565b949350505050565b6060816000036104be575050604080518082019091526002815261030360f41b602082015290565b600a8210156104f6576104d08261038d565b6040516020016104e091906108a1565b6040516020818303038152906040529050919050565b6104ff8261038d565b92915050565b60008080838162253d8c61051c8362010bd96108ca565b61052691906108ca565b9050600062023ab16105398360046108f2565b6105439190610922565b905060046105548262023ab16108f2565b61055f9060036108ca565b6105699190610922565b6105739083610950565b9150600062164b096105868460016108ca565b61059290610fa06108f2565b61059c9190610922565b905060046105ac826105b56108f2565b6105b69190610922565b6105c09084610950565b6105cb90601f6108ca565b9250600061098f6105dd8560506108f2565b6105e79190610922565b9050600060506105f98361098f6108f2565b6106039190610922565b61060d9086610950565b905061061a600b83610922565b945061062785600c6108f2565b6106328360026108ca565b61063c9190610950565b9150848361064b603187610950565b6106569060646108f2565b61066091906108ca565b61066a91906108ca565b9a919950975095505050505050565b60006020828403121561068b57600080fd5b5035919050565b60005b838110156106ad578181015183820152602001610695565b50506000910152565b600081518084526106ce816020860160208601610692565b601f01601f19169290920160200192915050565b82815260406020820152600061048e60408301846106b6565b60208152600061070e60208301846106b6565b9392505050565b60008651610727818460208b01610692565b8083019050600160fd1b8082528751610747816001850160208c01610692565b61016160f51b60019390910192830152865161076a816003850160208b01610692565b60039201918201528451610785816004840160208901610692565b600181830101915050601d60f91b600382015283516107ab816004840160208801610692565b632055544360e01b91016004810191909152600801979650505050505050565b634e487b7160e01b600052601260045260246000fd5b634e487b7160e01b600052601160045260246000fd5b600082610806576108066107cb565b500490565b60008261081a5761081a6107cb565b500690565b634e487b7160e01b600052604160045260246000fd5b818103818111156104ff576104ff6107e1565b80820281158282048414176104ff576104ff6107e1565b634e487b7160e01b600052603260045260246000fd5b808201808211156104ff576104ff6107e1565b60006001820161089a5761089a6107e1565b5060010190565b600360fc1b8152600082516108bd816001850160208701610692565b9190910160010192915050565b80820182811260008312801582168215821617156108ea576108ea6107e1565b505092915050565b80820260008212600160ff1b8414161561090e5761090e6107e1565b81810583148215176104ff576104ff6107e1565b600082610931576109316107cb565b600160ff1b82146000198414161561094b5761094b6107e1565b500590565b8181036000831280158383131683831282161715610970576109706107e1565b509291505056fe4a616e4665624d61724170724d61794a756e4a756c4175675365704f63744e6f76446563a2646970667358221220375222079bf384cbb982620d2537d8c4cfb93611dc1adb6831fbbce06497719964736f6c63430008120033",
					"opcodes": "PUSH2 0x9D1 PUSH2 0x3A PUSH1 0xB DUP3 DUP3 DUP3 CODECOPY DUP1 MLOAD PUSH1 0x0 BYTE PUSH1 0x73 EQ PUSH2 0x2D JUMPI PUSH4 0x4E487B71 PUSH1 0xE0 SHL PUSH1 0x0 MSTORE PUSH1 0x0 PUSH1 0x4 MSTORE PUSH1 0x24 PUSH1 0x0 REVERT JUMPDEST ADDRESS PUSH1 0x0 MSTORE PUSH1 0x73 DUP2 MSTORE8 DUP3 DUP2 RETURN INVALID PUSH20 0x0 ADDRESS EQ PUSH1 0x80 PUSH1 0x40 MSTORE PUSH1 0x4 CALLDATASIZE LT PUSH2 0x4B JUMPI PUSH1 0x0 CALLDATALOAD PUSH1 0xE0 SHR DUP1 PUSH4 0x5A97E730 EQ PUSH2 0x50 JUMPI DUP1 PUSH4 0x8FA626F2 EQ PUSH2 0x7A JUMPI DUP1 PUSH4 0xB5D987E3 EQ PUSH2 0x8F JUMPI JUMPDEST PUSH1 0x0 DUP1 REVERT JUMPDEST PUSH2 0x63 PUSH2 0x5E CALLDATASIZE PUSH1 0x4 PUSH2 0x679 JUMP JUMPDEST PUSH2 0xA2 JUMP JUMPDEST PUSH1 0x40 MLOAD PUSH2 0x71 SWAP3 SWAP2 SWAP1 PUSH2 0x6E2 JUMP JUMPDEST PUSH1 0x40 MLOAD DUP1 SWAP2 SUB SWAP1 RETURN JUMPDEST PUSH2 0x82 PUSH2 0xCF JUMP JUMPDEST PUSH1 0x40 MLOAD PUSH2 0x71 SWAP2 SWAP1 PUSH2 0x6FB JUMP JUMPDEST PUSH2 0x82 PUSH2 0x9D CALLDATASIZE PUSH1 0x4 PUSH2 0x679 JUMP JUMPDEST PUSH2 0xEB JUMP JUMPDEST PUSH1 0x0 PUSH1 0x60 PUSH1 0x0 DUP1 PUSH2 0xB2 DUP6 PUSH2 0x165 JUMP JUMPDEST POP POP POP POP SWAP2 POP SWAP2 POP DUP2 PUSH2 0xC4 DUP3 PUSH2 0x1D9 JUMP JUMPDEST SWAP4 POP SWAP4 POP POP POP SWAP2 POP SWAP2 JUMP JUMPDEST PUSH1 0x40 MLOAD DUP1 PUSH1 0x60 ADD PUSH1 0x40 MSTORE DUP1 PUSH1 0x24 DUP2 MSTORE PUSH1 0x20 ADD PUSH2 0x978 PUSH1 0x24 SWAP2 CODECOPY DUP2 JUMP JUMPDEST PUSH1 0x60 PUSH1 0x0 DUP1 PUSH1 0x0 DUP1 PUSH1 0x0 PUSH2 0xFE DUP8 PUSH2 0x165 JUMP JUMPDEST POP SWAP5 POP SWAP5 POP SWAP5 POP SWAP5 POP SWAP5 POP PUSH2 0x112 DUP5 PUSH2 0x1D9 JUMP JUMPDEST PUSH2 0x11B DUP5 PUSH2 0x38D JUMP JUMPDEST PUSH2 0x124 DUP8 PUSH2 0x38D JUMP JUMPDEST PUSH2 0x12D DUP6 PUSH2 0x496 JUMP JUMPDEST PUSH2 0x136 DUP6 PUSH2 0x496 JUMP JUMPDEST PUSH1 0x40 MLOAD PUSH1 0x20 ADD PUSH2 0x14A SWAP6 SWAP5 SWAP4 SWAP3 SWAP2 SWAP1 PUSH2 0x715 JUMP JUMPDEST PUSH1 0x40 MLOAD PUSH1 0x20 DUP2 DUP4 SUB SUB DUP2 MSTORE SWAP1 PUSH1 0x40 MSTORE SWAP6 POP POP POP POP POP POP SWAP2 SWAP1 POP JUMP JUMPDEST PUSH1 0x0 DUP1 DUP1 DUP1 DUP1 DUP1 PUSH2 0x181 PUSH2 0x17C PUSH3 0x15180 DUP10 PUSH2 0x7F7 JUMP JUMPDEST PUSH2 0x505 JUMP JUMPDEST SWAP2 SWAP8 POP SWAP6 POP SWAP4 POP PUSH1 0x0 PUSH2 0x197 PUSH3 0x15180 DUP10 PUSH2 0x80B JUMP JUMPDEST SWAP1 POP PUSH2 0x1A5 PUSH2 0xE10 DUP3 PUSH2 0x7F7 JUMP JUMPDEST SWAP4 POP PUSH2 0x1B3 PUSH2 0xE10 DUP3 PUSH2 0x80B JUMP JUMPDEST SWAP1 POP PUSH2 0x1C0 PUSH1 0x3C DUP3 PUSH2 0x7F7 JUMP JUMPDEST SWAP3 POP PUSH2 0x1CD PUSH1 0x3C DUP3 PUSH2 0x80B JUMP JUMPDEST SWAP2 POP POP SWAP2 SWAP4 SWAP6 POP SWAP2 SWAP4 SWAP6 JUMP JUMPDEST PUSH1 0x60 PUSH1 0x0 DUP3 GT PUSH2 0x219 JUMPI PUSH1 0x40 MLOAD PUSH3 0x461BCD PUSH1 0xE5 SHL DUP2 MSTORE PUSH1 0x20 PUSH1 0x4 DUP3 ADD MSTORE PUSH1 0x7 PUSH1 0x24 DUP3 ADD MSTORE PUSH7 0xC4C2C840D2C8F PUSH1 0xCB SHL PUSH1 0x44 DUP3 ADD MSTORE PUSH1 0x64 ADD PUSH1 0x40 MLOAD DUP1 SWAP2 SUB SWAP1 REVERT JUMPDEST PUSH1 0x40 DUP1 MLOAD PUSH1 0x3 DUP1 DUP3 MSTORE DUP2 DUP4 ADD SWAP1 SWAP3 MSTORE PUSH1 0x0 SWAP2 PUSH1 0x20 DUP3 ADD DUP2 DUP1 CALLDATASIZE DUP4 CALLDATACOPY ADD SWAP1 POP POP SWAP1 POP PUSH1 0x0 PUSH2 0x247 PUSH1 0x1 DUP6 PUSH2 0x835 JUMP JUMPDEST PUSH2 0x252 SWAP1 PUSH1 0x3 PUSH2 0x848 JUMP JUMPDEST SWAP1 POP PUSH1 0x40 MLOAD DUP1 PUSH1 0x60 ADD PUSH1 0x40 MSTORE DUP1 PUSH1 0x24 DUP2 MSTORE PUSH1 0x20 ADD PUSH2 0x978 PUSH1 0x24 SWAP2 CODECOPY DUP2 DUP2 MLOAD DUP2 LT PUSH2 0x27E JUMPI PUSH2 0x27E PUSH2 0x85F JUMP JUMPDEST PUSH1 0x20 ADD ADD MLOAD PUSH1 0xF8 SHR PUSH1 0xF8 SHL DUP3 PUSH1 0x0 DUP2 MLOAD DUP2 LT PUSH2 0x29C JUMPI PUSH2 0x29C PUSH2 0x85F JUMP JUMPDEST PUSH1 0x20 ADD ADD SWAP1 PUSH1 0x1 PUSH1 0x1 PUSH1 0xF8 SHL SUB NOT AND SWAP1 DUP2 PUSH1 0x0 BYTE SWAP1 MSTORE8 POP PUSH1 0x40 MLOAD DUP1 PUSH1 0x60 ADD PUSH1 0x40 MSTORE DUP1 PUSH1 0x24 DUP2 MSTORE PUSH1 0x20 ADD PUSH2 0x978 PUSH1 0x24 SWAP2 CODECOPY PUSH2 0x2D7 DUP3 PUSH1 0x1 PUSH2 0x875 JUMP JUMPDEST DUP2 MLOAD DUP2 LT PUSH2 0x2E7 JUMPI PUSH2 0x2E7 PUSH2 0x85F JUMP JUMPDEST PUSH1 0x20 ADD ADD MLOAD PUSH1 0xF8 SHR PUSH1 0xF8 SHL DUP3 PUSH1 0x1 DUP2 MLOAD DUP2 LT PUSH2 0x305 JUMPI PUSH2 0x305 PUSH2 0x85F JUMP JUMPDEST PUSH1 0x20 ADD ADD SWAP1 PUSH1 0x1 PUSH1 0x1 PUSH1 0xF8 SHL SUB NOT AND SWAP1 DUP2 PUSH1 0x0 BYTE SWAP1 MSTORE8 POP PUSH1 0x40 MLOAD DUP1 PUSH1 0x60 ADD PUSH1 0x40 MSTORE DUP1 PUSH1 0x24 DUP2 MSTORE PUSH1 0x20 ADD PUSH2 0x978 PUSH1 0x24 SWAP2 CODECOPY PUSH2 0x340 DUP3 PUSH1 0x2 PUSH2 0x875 JUMP JUMPDEST DUP2 MLOAD DUP2 LT PUSH2 0x350 JUMPI PUSH2 0x350 PUSH2 0x85F JUMP JUMPDEST PUSH1 0x20 ADD ADD MLOAD PUSH1 0xF8 SHR PUSH1 0xF8 SHL DUP3 PUSH1 0x2 DUP2 MLOAD DUP2 LT PUSH2 0x36E JUMPI PUSH2 0x36E PUSH2 0x85F JUMP JUMPDEST PUSH1 0x20 ADD ADD SWAP1 PUSH1 0x1 PUSH1 0x1 PUSH1 0xF8 SHL SUB NOT AND SWAP1 DUP2 PUSH1 0x0 BYTE SWAP1 MSTORE8 POP SWAP1 SWAP4 SWAP3 POP POP POP JUMP JUMPDEST PUSH1 0x60 DUP2 PUSH1 0x0 SUB PUSH2 0x3B4 JUMPI POP POP PUSH1 0x40 DUP1 MLOAD DUP1 DUP3 ADD SWAP1 SWAP2 MSTORE PUSH1 0x1 DUP2 MSTORE PUSH1 0x3 PUSH1 0xFC SHL PUSH1 0x20 DUP3 ADD MSTORE SWAP1 JUMP JUMPDEST DUP2 PUSH1 0x0 JUMPDEST DUP2 ISZERO PUSH2 0x3DE JUMPI DUP1 PUSH2 0x3C8 DUP2 PUSH2 0x888 JUMP JUMPDEST SWAP2 POP PUSH2 0x3D7 SWAP1 POP PUSH1 0xA DUP4 PUSH2 0x7F7 JUMP JUMPDEST SWAP2 POP PUSH2 0x3B8 JUMP JUMPDEST PUSH1 0x0 DUP2 PUSH8 0xFFFFFFFFFFFFFFFF DUP2 GT ISZERO PUSH2 0x3F9 JUMPI PUSH2 0x3F9 PUSH2 0x81F JUMP JUMPDEST PUSH1 0x40 MLOAD SWAP1 DUP1 DUP3 MSTORE DUP1 PUSH1 0x1F ADD PUSH1 0x1F NOT AND PUSH1 0x20 ADD DUP3 ADD PUSH1 0x40 MSTORE DUP1 ISZERO PUSH2 0x423 JUMPI PUSH1 0x20 DUP3 ADD DUP2 DUP1 CALLDATASIZE DUP4 CALLDATACOPY ADD SWAP1 POP JUMPDEST POP SWAP1 POP JUMPDEST DUP5 ISZERO PUSH2 0x48E JUMPI PUSH2 0x438 PUSH1 0x1 DUP4 PUSH2 0x835 JUMP JUMPDEST SWAP2 POP PUSH2 0x445 PUSH1 0xA DUP7 PUSH2 0x80B JUMP JUMPDEST PUSH2 0x450 SWAP1 PUSH1 0x30 PUSH2 0x875 JUMP JUMPDEST PUSH1 0xF8 SHL DUP2 DUP4 DUP2 MLOAD DUP2 LT PUSH2 0x465 JUMPI PUSH2 0x465 PUSH2 0x85F JUMP JUMPDEST PUSH1 0x20 ADD ADD SWAP1 PUSH1 0x1 PUSH1 0x1 PUSH1 0xF8 SHL SUB NOT AND SWAP1 DUP2 PUSH1 0x0 BYTE SWAP1 MSTORE8 POP PUSH2 0x487 PUSH1 0xA DUP7 PUSH2 0x7F7 JUMP JUMPDEST SWAP5 POP PUSH2 0x427 JUMP JUMPDEST SWAP5 SWAP4 POP POP POP POP JUMP JUMPDEST PUSH1 0x60 DUP2 PUSH1 0x0 SUB PUSH2 0x4BE JUMPI POP POP PUSH1 0x40 DUP1 MLOAD DUP1 DUP3 ADD SWAP1 SWAP2 MSTORE PUSH1 0x2 DUP2 MSTORE PUSH2 0x303 PUSH1 0xF4 SHL PUSH1 0x20 DUP3 ADD MSTORE SWAP1 JUMP JUMPDEST PUSH1 0xA DUP3 LT ISZERO PUSH2 0x4F6 JUMPI PUSH2 0x4D0 DUP3 PUSH2 0x38D JUMP JUMPDEST PUSH1 0x40 MLOAD PUSH1 0x20 ADD PUSH2 0x4E0 SWAP2 SWAP1 PUSH2 0x8A1 JUMP JUMPDEST PUSH1 0x40 MLOAD PUSH1 0x20 DUP2 DUP4 SUB SUB DUP2 MSTORE SWAP1 PUSH1 0x40 MSTORE SWAP1 POP SWAP2 SWAP1 POP JUMP JUMPDEST PUSH2 0x4FF DUP3 PUSH2 0x38D JUMP JUMPDEST SWAP3 SWAP2 POP POP JUMP JUMPDEST PUSH1 0x0 DUP1 DUP1 DUP4 DUP2 PUSH3 0x253D8C PUSH2 0x51C DUP4 PUSH3 0x10BD9 PUSH2 0x8CA JUMP JUMPDEST PUSH2 0x526 SWAP2 SWAP1 PUSH2 0x8CA JUMP JUMPDEST SWAP1 POP PUSH1 0x0 PUSH3 0x23AB1 PUSH2 0x539 DUP4 PUSH1 0x4 PUSH2 0x8F2 JUMP JUMPDEST PUSH2 0x543 SWAP2 SWAP1 PUSH2 0x922 JUMP JUMPDEST SWAP1 POP PUSH1 0x4 PUSH2 0x554 DUP3 PUSH3 0x23AB1 PUSH2 0x8F2 JUMP JUMPDEST PUSH2 0x55F SWAP1 PUSH1 0x3 PUSH2 0x8CA JUMP JUMPDEST PUSH2 0x569 SWAP2 SWAP1 PUSH2 0x922 JUMP JUMPDEST PUSH2 0x573 SWAP1 DUP4 PUSH2 0x950 JUMP JUMPDEST SWAP2 POP PUSH1 0x0 PUSH3 0x164B09 PUSH2 0x586 DUP5 PUSH1 0x1 PUSH2 0x8CA JUMP JUMPDEST PUSH2 0x592 SWAP1 PUSH2 0xFA0 PUSH2 0x8F2 JUMP JUMPDEST PUSH2 0x59C SWAP2 SWAP1 PUSH2 0x922 JUMP JUMPDEST SWAP1 POP PUSH1 0x4 PUSH2 0x5AC DUP3 PUSH2 0x5B5 PUSH2 0x8F2 JUMP JUMPDEST PUSH2 0x5B6 SWAP2 SWAP1 PUSH2 0x922 JUMP JUMPDEST PUSH2 0x5C0 SWAP1 DUP5 PUSH2 0x950 JUMP JUMPDEST PUSH2 0x5CB SWAP1 PUSH1 0x1F PUSH2 0x8CA JUMP JUMPDEST SWAP3 POP PUSH1 0x0 PUSH2 0x98F PUSH2 0x5DD DUP6 PUSH1 0x50 PUSH2 0x8F2 JUMP JUMPDEST PUSH2 0x5E7 SWAP2 SWAP1 PUSH2 0x922 JUMP JUMPDEST SWAP1 POP PUSH1 0x0 PUSH1 0x50 PUSH2 0x5F9 DUP4 PUSH2 0x98F PUSH2 0x8F2 JUMP JUMPDEST PUSH2 0x603 SWAP2 SWAP1 PUSH2 0x922 JUMP JUMPDEST PUSH2 0x60D SWAP1 DUP7 PUSH2 0x950 JUMP JUMPDEST SWAP1 POP PUSH2 0x61A PUSH1 0xB DUP4 PUSH2 0x922 JUMP JUMPDEST SWAP5 POP PUSH2 0x627 DUP6 PUSH1 0xC PUSH2 0x8F2 JUMP JUMPDEST PUSH2 0x632 DUP4 PUSH1 0x2 PUSH2 0x8CA JUMP JUMPDEST PUSH2 0x63C SWAP2 SWAP1 PUSH2 0x950 JUMP JUMPDEST SWAP2 POP DUP5 DUP4 PUSH2 0x64B PUSH1 0x31 DUP8 PUSH2 0x950 JUMP JUMPDEST PUSH2 0x656 SWAP1 PUSH1 0x64 PUSH2 0x8F2 JUMP JUMPDEST PUSH2 0x660 SWAP2 SWAP1 PUSH2 0x8CA JUMP JUMPDEST PUSH2 0x66A SWAP2 SWAP1 PUSH2 0x8CA JUMP JUMPDEST SWAP11 SWAP2 SWAP10 POP SWAP8 POP SWAP6 POP POP POP POP POP POP JUMP JUMPDEST PUSH1 0x0 PUSH1 0x20 DUP3 DUP5 SUB SLT ISZERO PUSH2 0x68B JUMPI PUSH1 0x0 DUP1 REVERT JUMPDEST POP CALLDATALOAD SWAP2 SWAP1 POP JUMP JUMPDEST PUSH1 0x0 JUMPDEST DUP4 DUP2 LT ISZERO PUSH2 0x6AD JUMPI DUP2 DUP2 ADD MLOAD DUP4 DUP3 ADD MSTORE PUSH1 0x20 ADD PUSH2 0x695 JUMP JUMPDEST POP POP PUSH1 0x0 SWAP2 ADD MSTORE JUMP JUMPDEST PUSH1 0x0 DUP2 MLOAD DUP1 DUP5 MSTORE PUSH2 0x6CE DUP2 PUSH1 0x20 DUP7 ADD PUSH1 0x20 DUP7 ADD PUSH2 0x692 JUMP JUMPDEST PUSH1 0x1F ADD PUSH1 0x1F NOT AND SWAP3 SWAP1 SWAP3 ADD PUSH1 0x20 ADD SWAP3 SWAP2 POP POP JUMP JUMPDEST DUP3 DUP2 MSTORE PUSH1 0x40 PUSH1 0x20 DUP3 ADD MSTORE PUSH1 0x0 PUSH2 0x48E PUSH1 0x40 DUP4 ADD DUP5 PUSH2 0x6B6 JUMP JUMPDEST PUSH1 0x20 DUP2 MSTORE PUSH1 0x0 PUSH2 0x70E PUSH1 0x20 DUP4 ADD DUP5 PUSH2 0x6B6 JUMP JUMPDEST SWAP4 SWAP3 POP POP POP JUMP JUMPDEST PUSH1 0x0 DUP7 MLOAD PUSH2 0x727 DUP2 DUP5 PUSH1 0x20 DUP12 ADD PUSH2 0x692 JUMP JUMPDEST DUP1 DUP4 ADD SWAP1 POP PUSH1 0x1 PUSH1 0xFD SHL DUP1 DUP3 MSTORE DUP8 MLOAD PUSH2 0x747 DUP2 PUSH1 0x1 DUP6 ADD PUSH1 0x20 DUP13 ADD PUSH2 0x692 JUMP JUMPDEST PUSH2 0x161 PUSH1 0xF5 SHL PUSH1 0x1 SWAP4 SWAP1 SWAP2 ADD SWAP3 DUP4 ADD MSTORE DUP7 MLOAD PUSH2 0x76A DUP2 PUSH1 0x3 DUP6 ADD PUSH1 0x20 DUP12 ADD PUSH2 0x692 JUMP JUMPDEST PUSH1 0x3 SWAP3 ADD SWAP2 DUP3 ADD MSTORE DUP5 MLOAD PUSH2 0x785 DUP2 PUSH1 0x4 DUP5 ADD PUSH1 0x20 DUP10 ADD PUSH2 0x692 JUMP JUMPDEST PUSH1 0x1 DUP2 DUP4 ADD ADD SWAP2 POP POP PUSH1 0x1D PUSH1 0xF9 SHL PUSH1 0x3 DUP3 ADD MSTORE DUP4 MLOAD PUSH2 0x7AB DUP2 PUSH1 0x4 DUP5 ADD PUSH1 0x20 DUP9 ADD PUSH2 0x692 JUMP JUMPDEST PUSH4 0x20555443 PUSH1 0xE0 SHL SWAP2 ADD PUSH1 0x4 DUP2 ADD SWAP2 SWAP1 SWAP2 MSTORE PUSH1 0x8 ADD SWAP8 SWAP7 POP POP POP POP POP POP POP JUMP JUMPDEST PUSH4 0x4E487B71 PUSH1 0xE0 SHL PUSH1 0x0 MSTORE PUSH1 0x12 PUSH1 0x4 MSTORE PUSH1 0x24 PUSH1 0x0 REVERT JUMPDEST PUSH4 0x4E487B71 PUSH1 0xE0 SHL PUSH1 0x0 MSTORE PUSH1 0x11 PUSH1 0x4 MSTORE PUSH1 0x24 PUSH1 0x0 REVERT JUMPDEST PUSH1 0x0 DUP3 PUSH2 0x806 JUMPI PUSH2 0x806 PUSH2 0x7CB JUMP JUMPDEST POP DIV SWAP1 JUMP JUMPDEST PUSH1 0x0 DUP3 PUSH2 0x81A JUMPI PUSH2 0x81A PUSH2 0x7CB JUMP JUMPDEST POP MOD SWAP1 JUMP JUMPDEST PUSH4 0x4E487B71 PUSH1 0xE0 SHL PUSH1 0x0 MSTORE PUSH1 0x41 PUSH1 0x4 MSTORE PUSH1 0x24 PUSH1 0x0 REVERT JUMPDEST DUP2 DUP2 SUB DUP2 DUP2 GT ISZERO PUSH2 0x4FF JUMPI PUSH2 0x4FF PUSH2 0x7E1 JUMP JUMPDEST DUP1 DUP3 MUL DUP2 ISZERO DUP3 DUP3 DIV DUP5 EQ OR PUSH2 0x4FF JUMPI PUSH2 0x4FF PUSH2 0x7E1 JUMP JUMPDEST PUSH4 0x4E487B71 PUSH1 0xE0 SHL PUSH1 0x0 MSTORE PUSH1 0x32 PUSH1 0x4 MSTORE PUSH1 0x24 PUSH1 0x0 REVERT JUMPDEST DUP1 DUP3 ADD DUP1 DUP3 GT ISZERO PUSH2 0x4FF JUMPI PUSH2 0x4FF PUSH2 0x7E1 JUMP JUMPDEST PUSH1 0x0 PUSH1 0x1 DUP3 ADD PUSH2 0x89A JUMPI PUSH2 0x89A PUSH2 0x7E1 JUMP JUMPDEST POP PUSH1 0x1 ADD SWAP1 JUMP JUMPDEST PUSH1 0x3 PUSH1 0xFC SHL DUP2 MSTORE PUSH1 0x0 DUP3 MLOAD PUSH2 0x8BD DUP2 PUSH1 0x1 DUP6 ADD PUSH1 0x20 DUP8 ADD PUSH2 0x692 JUMP JUMPDEST SWAP2 SWAP1 SWAP2 ADD PUSH1 0x1 ADD SWAP3 SWAP2 POP POP JUMP JUMPDEST DUP1 DUP3 ADD DUP3 DUP2 SLT PUSH1 0x0 DUP4 SLT DUP1 ISZERO DUP3 AND DUP3 ISZERO DUP3 AND OR ISZERO PUSH2 0x8EA JUMPI PUSH2 0x8EA PUSH2 0x7E1 JUMP JUMPDEST POP POP SWAP3 SWAP2 POP POP JUMP JUMPDEST DUP1 DUP3 MUL PUSH1 0x0 DUP3 SLT PUSH1 0x1 PUSH1 0xFF SHL DUP5 EQ AND ISZERO PUSH2 0x90E JUMPI PUSH2 0x90E PUSH2 0x7E1 JUMP JUMPDEST DUP2 DUP2 SDIV DUP4 EQ DUP3 ISZERO OR PUSH2 0x4FF JUMPI PUSH2 0x4FF PUSH2 0x7E1 JUMP JUMPDEST PUSH1 0x0 DUP3 PUSH2 0x931 JUMPI PUSH2 0x931 PUSH2 0x7CB JUMP JUMPDEST PUSH1 0x1 PUSH1 0xFF SHL DUP3 EQ PUSH1 0x0 NOT DUP5 EQ AND ISZERO PUSH2 0x94B JUMPI PUSH2 0x94B PUSH2 0x7E1 JUMP JUMPDEST POP SDIV SWAP1 JUMP JUMPDEST DUP2 DUP2 SUB PUSH1 0x0 DUP4 SLT DUP1 ISZERO DUP4 DUP4 SGT AND DUP4 DUP4 SLT DUP3 AND OR ISZERO PUSH2 0x970 JUMPI PUSH2 0x970 PUSH2 0x7E1 JUMP JUMPDEST POP SWAP3 SWAP2 POP POP JUMP INVALID 0x4A PUSH2 0x6E46 PUSH6 0x624D61724170 PUSH19 0x4D61794A756E4A756C4175675365704F63744E PUSH16 0x76446563A26469706673582212203752 0x22 SMOD SWAP12 RETURN DUP5 0xCB 0xB9 DUP3 PUSH3 0xD2537 0xD8 0xC4 0xCF 0xB9 CALLDATASIZE GT 0xDC BYTE 0xDB PUSH9 0x31FBBCE06497719964 PUSH20 0x6F6C634300081200330000000000000000000000 "
				},
				"gasEstimates": {
					"creation": {
						"codeDepositCost": "502600",
						"executionCost": "568",
						"totalCost": "503168"
					},
					"external": {
						"MONTHS()": "infinite",
						"asString(uint256)": "infinite",
						"yearAndMonth(uint256)": "infinite"
					},
					"internal": {
						"asPaddedString(uint256)": "infinite",
						"monthAsString(uint256)": "infinite"
					}
				},
				"methodIdentifiers": {
					"MONTHS()": "8fa626f2",
					"asString(uint256)": "b5d987e3",
					"yearAndMonth(uint256)": "5a97e730"
				}
			},
			"storageLayout": {
				"storage": [],
				"types": null
			},
			"userdoc": {
				"kind": "user",
				"methods": {},
				"version": 1
			}
		}
	}
}