{
	"XENFT/StringData.sol": {
		"StringData": {
			"abi": [
				{
					"inputs": [],
					"name": "CLASSES",
					"outputs": [
						{
							"internalType": "bytes",
							"name": "",
							"type": "bytes"
						}
					],
					"stateMutability": "view",
					"type": "function"
				},
				{
					"inputs": [],
					"name": "CLASSES_COUNT",
					"outputs": [
						{
							"internalType": "uint256",
							"name": "",
							"type": "uint256"
						}
					],
					"stateMutability": "view",
					"type": "function"
				},
				{
					"inputs": [],
					"name": "CLASSES_NAME_LENGTH",
					"outputs": [
						{
							"internalType": "uint256",
							"name": "",
							"type": "uint256"
						}
					],
					"stateMutability": "view",
					"type": "function"
				},
				{
					"inputs": [],
					"name": "QUOTES",
					"outputs": [
						{
							"internalType": "bytes",
							"name": "",
							"type": "bytes"
						}
					],
					"stateMutability": "view",
					"type": "function"
				},
				{
					"inputs": [],
					"name": "QUOTES_COUNT",
					"outputs": [
						{
							"internalType": "uint256",
							"name": "",
							"type": "uint256"
						}
					],
					"stateMutability": "view",
					"type": "function"
				},
				{
					"inputs": [],
					"name": "QUOTE_LENGTH",
					"outputs": [
						{
							"internalType": "uint256",
							"name": "",
							"type": "uint256"
						}
					],
					"stateMutability": "view",
					"type": "function"
				},
				{
					"inputs": [
						{
							"internalType": "bytes",
							"name": "names",
							"type": "bytes"
						},
						{
							"internalType": "uint256",
							"name": "index",
							"type": "uint256"
						}
					],
					"name": "getClassName",
					"outputs": [
						{
							"internalType": "string",
							"name": "",
							"type": "string"
						}
					],
					"stateMutability": "pure",
					"type": "function"
				},
				{
					"inputs": [
						{
							"internalType": "bytes",
							"name": "quotes",
							"type": "bytes"
						},
						{
							"internalType": "uint256",
							"name": "index",
							"type": "uint256"
						}
					],
					"name": "getQuote",
					"outputs": [
						{
							"internalType": "string",
							"name": "",
							"type": "string"
						}
					],
					"stateMutability": "pure",
					"type": "function"
				}
			],
			"devdoc": {
				"details": "a library to supply a XEN string data based on params",
				"kind": "dev",
				"methods": {
					"getQuote(bytes,uint256)": {
						"details": "Solidity doesn't yet support slicing of byte arrays anywhere outside of calldata, therefore we make a hack by supplying our local constant packed string array as calldata"
					}
				},
				"version": 1
			},
			"evm": {
				"assembly": "    /* \"XENFT/StringData.sol\":1453:3934  library StringData {... */\n  dataSize(sub_0)\n  dataOffset(sub_0)\n  0x0b\n  dup3\n  dup3\n  dup3\n  codecopy\n  dup1\n  mload\n  0x00\n  byte\n  0x73\n  eq\n  tag_1\n  jumpi\n  mstore(0x00, shl(0xe0, 0x4e487b71))\n  mstore(0x04, 0x00)\n  revert(0x00, 0x24)\ntag_1:\n  mstore(0x00, address)\n  0x73\n  dup2\n  mstore8\n  dup3\n  dup2\n  return\nstop\n\nsub_0: assembly {\n        /* \"XENFT/StringData.sol\":1453:3934  library StringData {... */\n      eq(address, deployTimeAddress())\n      mstore(0x40, 0x80)\n      jumpi(tag_1, lt(calldatasize, 0x04))\n      shr(0xe0, calldataload(0x00))\n      dup1\n      0x831b46a1\n      gt\n      tag_10\n      jumpi\n      dup1\n      0x831b46a1\n      eq\n      tag_6\n      jumpi\n      dup1\n      0x8e2196ed\n      eq\n      tag_7\n      jumpi\n      dup1\n      0xb0eca69b\n      eq\n      tag_8\n      jumpi\n      dup1\n      0xe0beab2d\n      eq\n      tag_9\n      jumpi\n      0x00\n      dup1\n      revert\n    tag_10:\n      dup1\n      0x02c1a14c\n      eq\n      tag_2\n      jumpi\n      dup1\n      0x192a63ed\n      eq\n      tag_3\n      jumpi\n      dup1\n      0x3a24b8ef\n      eq\n      tag_4\n      jumpi\n      dup1\n      0x48b25502\n      eq\n      tag_5\n      jumpi\n    tag_1:\n      0x00\n      dup1\n      revert\n        /* \"XENFT/StringData.sol\":2708:2756  uint256 public constant CLASSES_NAME_LENGTH = 10 */\n    tag_2:\n      tag_11\n        /* \"XENFT/StringData.sol\":2754:2756  10 */\n      0x0a\n        /* \"XENFT/StringData.sol\":2708:2756  uint256 public constant CLASSES_NAME_LENGTH = 10 */\n      dup2\n      jump\n    tag_11:\n      mload(0x40)\n        /* \"#utility.yul\":168:193   */\n      swap1\n      dup2\n      mstore\n        /* \"#utility.yul\":156:158   */\n      0x20\n        /* \"#utility.yul\":141:159   */\n      add\n        /* \"XENFT/StringData.sol\":2708:2756  uint256 public constant CLASSES_NAME_LENGTH = 10 */\n    tag_13:\n      mload(0x40)\n      dup1\n      swap2\n      sub\n      swap1\n      return\n        /* \"XENFT/StringData.sol\":1479:1520  uint256 public constant QUOTES_COUNT = 12 */\n    tag_3:\n      tag_11\n        /* \"XENFT/StringData.sol\":1518:1520  12 */\n      0x0c\n        /* \"XENFT/StringData.sol\":1479:1520  uint256 public constant QUOTES_COUNT = 12 */\n      dup2\n      jump\n        /* \"XENFT/StringData.sol\":1575:2616  bytes public constant QUOTES =... */\n    tag_4:\n      tag_18\n      tag_19\n      jump\t// in\n    tag_18:\n      mload(0x40)\n      tag_13\n      swap2\n      swap1\n      tag_21\n      jump\t// in\n        /* \"XENFT/StringData.sol\":1527:1568  uint256 public constant QUOTE_LENGTH = 66 */\n    tag_5:\n      tag_11\n        /* \"XENFT/StringData.sol\":1566:1568  66 */\n      0x42\n        /* \"XENFT/StringData.sol\":1527:1568  uint256 public constant QUOTE_LENGTH = 66 */\n      dup2\n      jump\n        /* \"XENFT/StringData.sol\":3416:3677  function getQuote(bytes calldata quotes, uint256 index) external pure returns (string memory) {... */\n    tag_6:\n      tag_18\n      tag_26\n      calldatasize\n      0x04\n      tag_27\n      jump\t// in\n    tag_26:\n      tag_28\n      jump\t// in\n        /* \"XENFT/StringData.sol\":2659:2701  uint256 public constant CLASSES_COUNT = 14 */\n    tag_7:\n      tag_11\n        /* \"XENFT/StringData.sol\":2699:2701  14 */\n      0x0e\n        /* \"XENFT/StringData.sol\":2659:2701  uint256 public constant CLASSES_COUNT = 14 */\n      dup2\n      jump\n        /* \"XENFT/StringData.sol\":3685:3931  function getClassName(bytes calldata names, uint256 index) external pure returns (string memory) {... */\n    tag_8:\n      tag_18\n      tag_35\n      calldatasize\n      0x04\n      tag_27\n      jump\t// in\n    tag_35:\n      tag_36\n      jump\t// in\n        /* \"XENFT/StringData.sol\":2763:3185  bytes public constant CLASSES =... */\n    tag_9:\n      tag_18\n      tag_39\n      jump\t// in\n        /* \"XENFT/StringData.sol\":1575:2616  bytes public constant QUOTES =... */\n    tag_19:\n        /* \"XENFT/StringData.sol\":1615:2616  bytes(... */\n      mload(0x40)\n      dup1\n      0x0340\n      add\n      0x40\n      mstore\n      dup1\n      0x0318\n      dup2\n      mstore\n      0x20\n      add\n      data_30c01ef9efa2ddb7bce50464f03e565ba8d42727a8dfc2f58ac6d55d398a452a\n      0x0318\n      swap2\n      codecopy\n        /* \"XENFT/StringData.sol\":1575:2616  bytes public constant QUOTES =... */\n      dup2\n      jump\t// out\n        /* \"XENFT/StringData.sol\":3416:3677  function getQuote(bytes calldata quotes, uint256 index) external pure returns (string memory) {... */\n    tag_28:\n        /* \"XENFT/StringData.sol\":3495:3508  string memory */\n      0x60\n        /* \"XENFT/StringData.sol\":3533:3549  QUOTES_COUNT - 1 */\n      tag_42\n        /* \"XENFT/StringData.sol\":3548:3549  1 */\n      0x01\n        /* \"XENFT/StringData.sol\":1518:1520  12 */\n      0x0c\n        /* \"XENFT/StringData.sol\":3533:3549  QUOTES_COUNT - 1 */\n      tag_43\n      jump\t// in\n    tag_42:\n        /* \"XENFT/StringData.sol\":3525:3530  index */\n      dup3\n        /* \"XENFT/StringData.sol\":3525:3549  index > QUOTES_COUNT - 1 */\n      gt\n        /* \"XENFT/StringData.sol\":3521:3588  if (index > QUOTES_COUNT - 1) return string(quotes[0:QUOTE_LENGTH]) */\n      iszero\n      tag_44\n      jumpi\n        /* \"XENFT/StringData.sol\":3565:3587  quotes[0:QUOTE_LENGTH] */\n      tag_45\n        /* \"XENFT/StringData.sol\":1566:1568  66 */\n      0x42\n        /* \"XENFT/StringData.sol\":3572:3573  0 */\n      0x00\n        /* \"XENFT/StringData.sol\":3565:3571  quotes */\n      dup6\n      dup8\n        /* \"XENFT/StringData.sol\":3565:3587  quotes[0:QUOTE_LENGTH] */\n      tag_46\n      jump\t// in\n    tag_45:\n        /* \"XENFT/StringData.sol\":3551:3588  return string(quotes[0:QUOTE_LENGTH]) */\n      dup1\n      dup1\n      0x1f\n      add\n      0x20\n      dup1\n      swap2\n      div\n      mul\n      0x20\n      add\n      mload(0x40)\n      swap1\n      dup2\n      add\n      0x40\n      mstore\n      dup1\n      swap4\n      swap3\n      swap2\n      swap1\n      dup2\n      dup2\n      mstore\n      0x20\n      add\n      dup4\n      dup4\n      dup1\n      dup3\n      dup5\n      calldatacopy\n      0x00\n      swap3\n      add\n      swap2\n      swap1\n      swap2\n      mstore\n      pop\n      swap3\n      swap4\n      pop\n      tag_41\n      swap3\n      pop\n      pop\n      pop\n      jump\n        /* \"XENFT/StringData.sol\":3521:3588  if (index > QUOTES_COUNT - 1) return string(quotes[0:QUOTE_LENGTH]) */\n    tag_44:\n        /* \"XENFT/StringData.sol\":3613:3619  quotes */\n      dup4\n      dup4\n        /* \"XENFT/StringData.sol\":3620:3640  index * QUOTE_LENGTH */\n      tag_47\n        /* \"XENFT/StringData.sol\":1566:1568  66 */\n      0x42\n        /* \"XENFT/StringData.sol\":3620:3625  index */\n      dup6\n        /* \"XENFT/StringData.sol\":3620:3640  index * QUOTE_LENGTH */\n      tag_48\n      jump\t// in\n    tag_47:\n        /* \"XENFT/StringData.sol\":3613:3668  quotes[index * QUOTE_LENGTH:(index + 1) * QUOTE_LENGTH] */\n      swap1\n        /* \"XENFT/StringData.sol\":1566:1568  66 */\n      0x42\n        /* \"XENFT/StringData.sol\":3642:3651  index + 1 */\n      tag_49\n        /* \"XENFT/StringData.sol\":3642:3647  index */\n      dup7\n        /* \"XENFT/StringData.sol\":3650:3651  1 */\n      0x01\n        /* \"XENFT/StringData.sol\":3642:3651  index + 1 */\n      tag_50\n      jump\t// in\n    tag_49:\n        /* \"XENFT/StringData.sol\":3641:3667  (index + 1) * QUOTE_LENGTH */\n      tag_51\n      swap2\n      swap1\n      tag_48\n      jump\t// in\n    tag_51:\n        /* \"XENFT/StringData.sol\":3613:3668  quotes[index * QUOTE_LENGTH:(index + 1) * QUOTE_LENGTH] */\n      swap3\n      tag_52\n      swap4\n      swap3\n      swap2\n      swap1\n      tag_46\n      jump\t// in\n    tag_52:\n        /* \"XENFT/StringData.sol\":3599:3669  return string(quotes[index * QUOTE_LENGTH:(index + 1) * QUOTE_LENGTH]) */\n      dup1\n      dup1\n      0x1f\n      add\n      0x20\n      dup1\n      swap2\n      div\n      mul\n      0x20\n      add\n      mload(0x40)\n      swap1\n      dup2\n      add\n      0x40\n      mstore\n      dup1\n      swap4\n      swap3\n      swap2\n      swap1\n      dup2\n      dup2\n      mstore\n      0x20\n      add\n      dup4\n      dup4\n      dup1\n      dup3\n      dup5\n      calldatacopy\n      0x00\n      swap3\n      add\n      swap2\n      swap1\n      swap2\n      mstore\n      pop\n      swap3\n      swap4\n      pop\n      pop\n      pop\n      pop\n        /* \"XENFT/StringData.sol\":3416:3677  function getQuote(bytes calldata quotes, uint256 index) external pure returns (string memory) {... */\n    tag_41:\n      swap4\n      swap3\n      pop\n      pop\n      pop\n      jump\t// out\n        /* \"XENFT/StringData.sol\":3685:3931  function getClassName(bytes calldata names, uint256 index) external pure returns (string memory) {... */\n    tag_36:\n        /* \"XENFT/StringData.sol\":3767:3780  string memory */\n      0x60\n        /* \"XENFT/StringData.sol\":2699:2701  14 */\n      0x0e\n        /* \"XENFT/StringData.sol\":3797:3802  index */\n      dup3\n        /* \"XENFT/StringData.sol\":3797:3818  index < CLASSES_COUNT */\n      lt\n        /* \"XENFT/StringData.sol\":3793:3903  if (index < CLASSES_COUNT) return string(names[index * CLASSES_NAME_LENGTH:(index + 1) * CLASSES_NAME_LENGTH]) */\n      iszero\n      tag_54\n      jumpi\n        /* \"XENFT/StringData.sol\":3834:3839  names */\n      dup4\n      dup4\n        /* \"XENFT/StringData.sol\":3840:3867  index * CLASSES_NAME_LENGTH */\n      tag_55\n        /* \"XENFT/StringData.sol\":2754:2756  10 */\n      0x0a\n        /* \"XENFT/StringData.sol\":3840:3845  index */\n      dup6\n        /* \"XENFT/StringData.sol\":3840:3867  index * CLASSES_NAME_LENGTH */\n      tag_48\n      jump\t// in\n    tag_55:\n        /* \"XENFT/StringData.sol\":3834:3902  names[index * CLASSES_NAME_LENGTH:(index + 1) * CLASSES_NAME_LENGTH] */\n      swap1\n        /* \"XENFT/StringData.sol\":2754:2756  10 */\n      0x0a\n        /* \"XENFT/StringData.sol\":3869:3878  index + 1 */\n      tag_56\n        /* \"XENFT/StringData.sol\":3869:3874  index */\n      dup7\n        /* \"XENFT/StringData.sol\":3877:3878  1 */\n      0x01\n        /* \"XENFT/StringData.sol\":3869:3878  index + 1 */\n      tag_50\n      jump\t// in\n    tag_56:\n        /* \"XENFT/StringData.sol\":3868:3901  (index + 1) * CLASSES_NAME_LENGTH */\n      tag_57\n      swap2\n      swap1\n      tag_48\n      jump\t// in\n    tag_57:\n        /* \"XENFT/StringData.sol\":3834:3902  names[index * CLASSES_NAME_LENGTH:(index + 1) * CLASSES_NAME_LENGTH] */\n      swap3\n      tag_45\n      swap4\n      swap3\n      swap2\n      swap1\n      tag_46\n      jump\t// in\n        /* \"XENFT/StringData.sol\":3793:3903  if (index < CLASSES_COUNT) return string(names[index * CLASSES_NAME_LENGTH:(index + 1) * CLASSES_NAME_LENGTH]) */\n    tag_54:\n      pop\n        /* \"XENFT/StringData.sol\":3914:3923  return \"\" */\n      0x40\n      dup1\n      mload\n      0x20\n      dup2\n      add\n      swap1\n      swap2\n      mstore\n      0x00\n      dup2\n      mstore\n        /* \"XENFT/StringData.sol\":3685:3931  function getClassName(bytes calldata names, uint256 index) external pure returns (string memory) {... */\n      swap4\n      swap3\n      pop\n      pop\n      pop\n      jump\t// out\n        /* \"XENFT/StringData.sol\":2763:3185  bytes public constant CLASSES =... */\n    tag_39:\n        /* \"XENFT/StringData.sol\":2804:3185  bytes(... */\n      mload(0x40)\n      dup1\n      0xc0\n      add\n      0x40\n      mstore\n      dup1\n      0x8c\n      dup2\n      mstore\n      0x20\n      add\n      data_7afdaef82dee11b9c6d1fd7d2f94ad05c7d98b23da7d65609a6d8a54a3b50c72\n      0x8c\n      swap2\n      codecopy\n        /* \"XENFT/StringData.sol\":2763:3185  bytes public constant CLASSES =... */\n      dup2\n      jump\t// out\n        /* \"#utility.yul\":204:626   */\n    tag_59:\n        /* \"#utility.yul\":245:248   */\n      0x00\n        /* \"#utility.yul\":283:288   */\n      dup2\n        /* \"#utility.yul\":277:289   */\n      mload\n        /* \"#utility.yul\":310:316   */\n      dup1\n        /* \"#utility.yul\":305:308   */\n      dup5\n        /* \"#utility.yul\":298:317   */\n      mstore\n        /* \"#utility.yul\":335:336   */\n      0x00\n        /* \"#utility.yul\":345:507   */\n    tag_64:\n        /* \"#utility.yul\":359:365   */\n      dup2\n        /* \"#utility.yul\":356:357   */\n      dup2\n        /* \"#utility.yul\":353:366   */\n      lt\n        /* \"#utility.yul\":345:507   */\n      iszero\n      tag_66\n      jumpi\n        /* \"#utility.yul\":421:425   */\n      0x20\n        /* \"#utility.yul\":477:490   */\n      dup2\n      dup6\n      add\n        /* \"#utility.yul\":473:495   */\n      dup2\n      add\n        /* \"#utility.yul\":467:496   */\n      mload\n        /* \"#utility.yul\":449:460   */\n      dup7\n      dup4\n      add\n        /* \"#utility.yul\":445:465   */\n      dup3\n      add\n        /* \"#utility.yul\":438:497   */\n      mstore\n        /* \"#utility.yul\":374:386   */\n      add\n        /* \"#utility.yul\":345:507   */\n      jump(tag_64)\n    tag_66:\n        /* \"#utility.yul\":349:352   */\n      pop\n        /* \"#utility.yul\":552:553   */\n      0x00\n        /* \"#utility.yul\":545:549   */\n      0x20\n        /* \"#utility.yul\":536:542   */\n      dup3\n        /* \"#utility.yul\":531:534   */\n      dup7\n        /* \"#utility.yul\":527:543   */\n      add\n        /* \"#utility.yul\":523:550   */\n      add\n        /* \"#utility.yul\":516:554   */\n      mstore\n        /* \"#utility.yul\":615:619   */\n      0x20\n        /* \"#utility.yul\":608:610   */\n      0x1f\n        /* \"#utility.yul\":604:611   */\n      not\n        /* \"#utility.yul\":599:601   */\n      0x1f\n        /* \"#utility.yul\":591:597   */\n      dup4\n        /* \"#utility.yul\":587:602   */\n      add\n        /* \"#utility.yul\":583:612   */\n      and\n        /* \"#utility.yul\":578:581   */\n      dup6\n        /* \"#utility.yul\":574:613   */\n      add\n        /* \"#utility.yul\":570:620   */\n      add\n        /* \"#utility.yul\":563:620   */\n      swap2\n      pop\n      pop\n        /* \"#utility.yul\":204:626   */\n      swap3\n      swap2\n      pop\n      pop\n      jump\t// out\n        /* \"#utility.yul\":631:856   */\n    tag_21:\n        /* \"#utility.yul\":786:788   */\n      0x20\n        /* \"#utility.yul\":775:784   */\n      dup2\n        /* \"#utility.yul\":768:789   */\n      mstore\n        /* \"#utility.yul\":749:753   */\n      0x00\n        /* \"#utility.yul\":806:850   */\n      tag_41\n        /* \"#utility.yul\":846:848   */\n      0x20\n        /* \"#utility.yul\":835:844   */\n      dup4\n        /* \"#utility.yul\":831:849   */\n      add\n        /* \"#utility.yul\":823:829   */\n      dup5\n        /* \"#utility.yul\":806:850   */\n      tag_59\n      jump\t// in\n        /* \"#utility.yul\":861:1526   */\n    tag_27:\n        /* \"#utility.yul\":940:946   */\n      0x00\n        /* \"#utility.yul\":948:954   */\n      dup1\n        /* \"#utility.yul\":956:962   */\n      0x00\n        /* \"#utility.yul\":1009:1011   */\n      0x40\n        /* \"#utility.yul\":997:1006   */\n      dup5\n        /* \"#utility.yul\":988:995   */\n      dup7\n        /* \"#utility.yul\":984:1007   */\n      sub\n        /* \"#utility.yul\":980:1012   */\n      slt\n        /* \"#utility.yul\":977:1029   */\n      iszero\n      tag_70\n      jumpi\n        /* \"#utility.yul\":1025:1026   */\n      0x00\n        /* \"#utility.yul\":1022:1023   */\n      dup1\n        /* \"#utility.yul\":1015:1027   */\n      revert\n        /* \"#utility.yul\":977:1029   */\n    tag_70:\n        /* \"#utility.yul\":1065:1074   */\n      dup4\n        /* \"#utility.yul\":1052:1075   */\n      calldataload\n        /* \"#utility.yul\":1094:1112   */\n      0xffffffffffffffff\n        /* \"#utility.yul\":1135:1137   */\n      dup1\n        /* \"#utility.yul\":1127:1133   */\n      dup3\n        /* \"#utility.yul\":1124:1138   */\n      gt\n        /* \"#utility.yul\":1121:1155   */\n      iszero\n      tag_71\n      jumpi\n        /* \"#utility.yul\":1151:1152   */\n      0x00\n        /* \"#utility.yul\":1148:1149   */\n      dup1\n        /* \"#utility.yul\":1141:1153   */\n      revert\n        /* \"#utility.yul\":1121:1155   */\n    tag_71:\n        /* \"#utility.yul\":1189:1195   */\n      dup2\n        /* \"#utility.yul\":1178:1187   */\n      dup7\n        /* \"#utility.yul\":1174:1196   */\n      add\n        /* \"#utility.yul\":1164:1196   */\n      swap2\n      pop\n        /* \"#utility.yul\":1234:1241   */\n      dup7\n        /* \"#utility.yul\":1227:1231   */\n      0x1f\n        /* \"#utility.yul\":1223:1225   */\n      dup4\n        /* \"#utility.yul\":1219:1232   */\n      add\n        /* \"#utility.yul\":1215:1242   */\n      slt\n        /* \"#utility.yul\":1205:1260   */\n      tag_72\n      jumpi\n        /* \"#utility.yul\":1256:1257   */\n      0x00\n        /* \"#utility.yul\":1253:1254   */\n      dup1\n        /* \"#utility.yul\":1246:1258   */\n      revert\n        /* \"#utility.yul\":1205:1260   */\n    tag_72:\n        /* \"#utility.yul\":1296:1298   */\n      dup2\n        /* \"#utility.yul\":1283:1299   */\n      calldataload\n        /* \"#utility.yul\":1322:1324   */\n      dup2\n        /* \"#utility.yul\":1314:1320   */\n      dup2\n        /* \"#utility.yul\":1311:1325   */\n      gt\n        /* \"#utility.yul\":1308:1342   */\n      iszero\n      tag_73\n      jumpi\n        /* \"#utility.yul\":1338:1339   */\n      0x00\n        /* \"#utility.yul\":1335:1336   */\n      dup1\n        /* \"#utility.yul\":1328:1340   */\n      revert\n        /* \"#utility.yul\":1308:1342   */\n    tag_73:\n        /* \"#utility.yul\":1385:1392   */\n      dup8\n        /* \"#utility.yul\":1378:1382   */\n      0x20\n        /* \"#utility.yul\":1369:1375   */\n      dup3\n        /* \"#utility.yul\":1365:1367   */\n      dup6\n        /* \"#utility.yul\":1361:1376   */\n      add\n        /* \"#utility.yul\":1357:1383   */\n      add\n        /* \"#utility.yul\":1354:1393   */\n      gt\n        /* \"#utility.yul\":1351:1410   */\n      iszero\n      tag_74\n      jumpi\n        /* \"#utility.yul\":1406:1407   */\n      0x00\n        /* \"#utility.yul\":1403:1404   */\n      dup1\n        /* \"#utility.yul\":1396:1408   */\n      revert\n        /* \"#utility.yul\":1351:1410   */\n    tag_74:\n        /* \"#utility.yul\":1437:1441   */\n      0x20\n        /* \"#utility.yul\":1429:1442   */\n      swap3\n      dup4\n      add\n      swap9\n        /* \"#utility.yul\":1461:1467   */\n      swap1\n      swap8\n      pop\n        /* \"#utility.yul\":1499:1519   */\n      swap6\n      swap1\n      swap2\n      add\n        /* \"#utility.yul\":1486:1520   */\n      calldataload\n      swap5\n        /* \"#utility.yul\":861:1526   */\n      swap4\n      pop\n      pop\n      pop\n      pop\n      jump\t// out\n        /* \"#utility.yul\":1763:1890   */\n    tag_60:\n        /* \"#utility.yul\":1824:1834   */\n      0x4e487b71\n        /* \"#utility.yul\":1819:1822   */\n      0xe0\n        /* \"#utility.yul\":1815:1835   */\n      shl\n        /* \"#utility.yul\":1812:1813   */\n      0x00\n        /* \"#utility.yul\":1805:1836   */\n      mstore\n        /* \"#utility.yul\":1855:1859   */\n      0x11\n        /* \"#utility.yul\":1852:1853   */\n      0x04\n        /* \"#utility.yul\":1845:1860   */\n      mstore\n        /* \"#utility.yul\":1879:1883   */\n      0x24\n        /* \"#utility.yul\":1876:1877   */\n      0x00\n        /* \"#utility.yul\":1869:1884   */\n      revert\n        /* \"#utility.yul\":1895:2023   */\n    tag_43:\n        /* \"#utility.yul\":1962:1971   */\n      dup2\n      dup2\n      sub\n        /* \"#utility.yul\":1983:1994   */\n      dup2\n      dup2\n      gt\n        /* \"#utility.yul\":1980:2017   */\n      iszero\n      tag_80\n      jumpi\n        /* \"#utility.yul\":1997:2015   */\n      tag_80\n      tag_60\n      jump\t// in\n    tag_80:\n        /* \"#utility.yul\":1895:2023   */\n      swap3\n      swap2\n      pop\n      pop\n      jump\t// out\n        /* \"#utility.yul\":2028:2359   */\n    tag_46:\n        /* \"#utility.yul\":2133:2142   */\n      0x00\n        /* \"#utility.yul\":2144:2153   */\n      dup1\n        /* \"#utility.yul\":2186:2194   */\n      dup6\n        /* \"#utility.yul\":2174:2184   */\n      dup6\n        /* \"#utility.yul\":2171:2195   */\n      gt\n        /* \"#utility.yul\":2168:2212   */\n      iszero\n      tag_82\n      jumpi\n        /* \"#utility.yul\":2208:2209   */\n      0x00\n        /* \"#utility.yul\":2205:2206   */\n      dup1\n        /* \"#utility.yul\":2198:2210   */\n      revert\n        /* \"#utility.yul\":2168:2212   */\n    tag_82:\n        /* \"#utility.yul\":2237:2243   */\n      dup4\n        /* \"#utility.yul\":2227:2235   */\n      dup7\n        /* \"#utility.yul\":2224:2244   */\n      gt\n        /* \"#utility.yul\":2221:2261   */\n      iszero\n      tag_83\n      jumpi\n        /* \"#utility.yul\":2257:2258   */\n      0x00\n        /* \"#utility.yul\":2254:2255   */\n      dup1\n        /* \"#utility.yul\":2247:2259   */\n      revert\n        /* \"#utility.yul\":2221:2261   */\n    tag_83:\n      pop\n      pop\n        /* \"#utility.yul\":2283:2306   */\n      dup3\n      add\n      swap4\n        /* \"#utility.yul\":2328:2353   */\n      swap2\n      swap1\n      swap3\n      sub\n      swap2\n      pop\n        /* \"#utility.yul\":2028:2359   */\n      jump\t// out\n        /* \"#utility.yul\":2364:2532   */\n    tag_48:\n        /* \"#utility.yul\":2437:2446   */\n      dup1\n      dup3\n      mul\n        /* \"#utility.yul\":2468:2477   */\n      dup2\n      iszero\n        /* \"#utility.yul\":2485:2500   */\n      dup3\n      dup3\n      div\n        /* \"#utility.yul\":2479:2501   */\n      dup5\n      eq\n        /* \"#utility.yul\":2465:2502   */\n      or\n        /* \"#utility.yul\":2455:2526   */\n      tag_80\n      jumpi\n        /* \"#utility.yul\":2506:2524   */\n      tag_80\n      tag_60\n      jump\t// in\n        /* \"#utility.yul\":2537:2662   */\n    tag_50:\n        /* \"#utility.yul\":2602:2611   */\n      dup1\n      dup3\n      add\n        /* \"#utility.yul\":2623:2633   */\n      dup1\n      dup3\n      gt\n        /* \"#utility.yul\":2620:2656   */\n      iszero\n      tag_80\n      jumpi\n        /* \"#utility.yul\":2636:2654   */\n      tag_80\n      tag_60\n      jump\t// in\n    stop\n    data_30c01ef9efa2ddb7bce50464f03e565ba8d42727a8dfc2f58ac6d55d398a452a 22546865206d696e642069732065766572797468696e672e205768617420796f75207468696e6b2c20796f75206265636f6d652e222d2042756461202020202020202257686174207765206172652069732074686520726573756c74206f66207768617420776520686176652074686f756768742e222d4e696b6f6c61205465736c6120224661696c75726573206172652073696d706c7920737465707320746f77617264732073756363657373222e2d20456c6f6e204d75736b2e2020202020202020202022546865206f6e6c792077617920746f20646f20677265617420776f726b20697320746f206c6f7665207768617420796f7520646f2e222d5374657665204a6f6273224861747265642063616e206f6e6c79206265206f766572636f6d65206279206c6f76652e222d2042756461202020202020202020202020202020202020202020202253696d706c69636974792069732074686520756c74696d61746520736f706869737469636174696f6e2e22202d4c656f6e6172646f2064612056696e63692e202022426520746865206368616e676520796f75207769736820746f2073656520696e2074686520776f726c642e222d4d616861746d612047616e6468692e202020202022437572696f73697479206973206d6f726520696d706f7274616e74207468616e206b6e6f776c656467652e22202d20416c626572742045696e737465696e202020225468657265206973206e6f207061746820746f2068617070696e6573733a68617070696e6573732069732074686520706174682e222d20427564612020202020202257686174207765206172652069732074686520726573756c74206f66207768617420776520686176652074686f756768742e222d4e696b6f6c61205465736c612022506561636520636f6d65732066726f6d2077697468696e2e20446f206e6f74207365656b20697420776974686f75742e222d2042756461202020202020202020202241206d616e206d757374206c6561726e20746f207361696c20696e207374726f6e672077696e64732e22202d20456c6f6e204d75736b2e20202020202020202020\n    data_7afdaef82dee11b9c6d1fd7d2f94ad05c7d98b23da7d65609a6d8a54a3b50c72 527562792020202020204f70616c202020202020546f70617a2020202020456d6572616c64202020417175616d6172696e6553617070686972652020416d657468797374202058656e747572696f6e204c696d6974656420202052617265202020202020457069632020202020204c6567656e646172792045786f7469632020202058756e69636f726e2020\n\n    auxdata: 0xa2646970667358221220eaaab9a6ffe203b061c23d86fb05b69150cc79c71a8e7c124839e444bbf5669064736f6c63430008120033\n}\n",
				"bytecode": {
					"linkReferences": {},
					"object": "61079b61003a600b82828239805160001a60731461002d57634e487b7160e01b600052600060045260246000fd5b30600052607381538281f3fe73000000000000000000000000000000000000000030146080604052600436106100925760003560e01c8063831b46a111610065578063831b46a1146100d75780638e2196ed146100ea578063b0eca69b146100f2578063e0beab2d1461010557600080fd5b806302c1a14c14610097578063192a63ed146100b25780633a24b8ef146100ba57806348b25502146100cf575b600080fd5b61009f600a81565b6040519081526020015b60405180910390f35b61009f600c81565b6100c261010d565b6040516100a991906102b3565b61009f604281565b6100c26100e53660046102c6565b61012c565b61009f600e81565b6100c26101003660046102c6565b6101fd565b6100c2610251565b60405180610340016040528061031881526020016103c2610318913981565b606061013a6001600c610354565b82111561018c5761014f60426000858761036d565b8080601f0160208091040260200160405190810160405280939291908181526020018383808284376000920191909152509293506101f692505050565b8383610199604285610397565b9060426101a78660016103ae565b6101b19190610397565b926101be9392919061036d565b8080601f0160208091040260200160405190810160405280939291908181526020018383808284376000920191909152509293505050505b9392505050565b6060600e82101561023a578383610215600a85610397565b90600a6102238660016103ae565b61022d9190610397565b9261014f9392919061036d565b506040805160208101909152600081529392505050565b6040518060c00160405280608c81526020016106da608c913981565b6000815180845260005b8181101561029357602081850181015186830182015201610277565b506000602082860101526020601f19601f83011685010191505092915050565b6020815260006101f6602083018461026d565b6000806000604084860312156102db57600080fd5b833567ffffffffffffffff808211156102f357600080fd5b818601915086601f83011261030757600080fd5b81358181111561031657600080fd5b87602082850101111561032857600080fd5b6020928301989097509590910135949350505050565b634e487b7160e01b600052601160045260246000fd5b818103818111156103675761036761033e565b92915050565b6000808585111561037d57600080fd5b8386111561038a57600080fd5b5050820193919092039150565b80820281158282048414176103675761036761033e565b808201808211156103675761036761033e56fe22546865206d696e642069732065766572797468696e672e205768617420796f75207468696e6b2c20796f75206265636f6d652e222d2042756461202020202020202257686174207765206172652069732074686520726573756c74206f66207768617420776520686176652074686f756768742e222d4e696b6f6c61205465736c6120224661696c75726573206172652073696d706c7920737465707320746f77617264732073756363657373222e2d20456c6f6e204d75736b2e2020202020202020202022546865206f6e6c792077617920746f20646f20677265617420776f726b20697320746f206c6f7665207768617420796f7520646f2e222d5374657665204a6f6273224861747265642063616e206f6e6c79206265206f766572636f6d65206279206c6f76652e222d2042756461202020202020202020202020202020202020202020202253696d706c69636974792069732074686520756c74696d61746520736f706869737469636174696f6e2e22202d4c656f6e6172646f2064612056696e63692e202022426520746865206368616e676520796f75207769736820746f2073656520696e2074686520776f726c642e222d4d616861746d612047616e6468692e202020202022437572696f73697479206973206d6f726520696d706f7274616e74207468616e206b6e6f776c656467652e22202d20416c626572742045696e737465696e202020225468657265206973206e6f207061746820746f2068617070696e6573733a68617070696e6573732069732074686520706174682e222d20427564612020202020202257686174207765206172652069732074686520726573756c74206f66207768617420776520686176652074686f756768742e222d4e696b6f6c61205465736c612022506561636520636f6d65732066726f6d2077697468696e2e20446f206e6f74207365656b20697420776974686f75742e222d2042756461202020202020202020202241206d616e206d757374206c6561726e20746f207361696c20696e207374726f6e672077696e64732e22202d20456c6f6e204d75736b2e20202020202020202020527562792020202020204f70616c202020202020546f70617a2020202020456d6572616c64202020417175616d6172696e6553617070686972652020416d657468797374202058656e747572696f6e204c696d6974656420202052617265202020202020457069632020202020204c6567656e646172792045786f7469632020202058756e69636f726e2020a2646970667358221220eaaab9a6ffe203b061c23d86fb05b69150cc79c71a8e7c124839e444bbf5669064736f6c63430008120033",
					"opcodes": "PUSH2 0x79B PUSH2 0x3A PUSH1 0xB DUP3 DUP3 DUP3 CODECOPY DUP1 MLOAD PUSH1 0x0 BYTE PUSH1 0x73 EQ PUSH2 0x2D JUMPI PUSH4 0x4E487B71 PUSH1 0xE0 SHL PUSH1 0x0 MSTORE PUSH1 0x0 PUSH1 0x4 MSTORE PUSH1 0x24 PUSH1 0x0 REVERT JUMPDEST ADDRESS PUSH1 0x0 MSTORE PUSH1 0x73 DUP2 MSTORE8 DUP3 DUP2 RETURN INVALID PUSH20 0x0 ADDRESS EQ PUSH1 0x80 PUSH1 0x40 MSTORE PUSH1 0x4 CALLDATASIZE LT PUSH2 0x92 JUMPI PUSH1 0x0 CALLDATALOAD PUSH1 0xE0 SHR DUP1 PUSH4 0x831B46A1 GT PUSH2 0x65 JUMPI DUP1 PUSH4 0x831B46A1 EQ PUSH2 0xD7 JUMPI DUP1 PUSH4 0x8E2196ED EQ PUSH2 0xEA JUMPI DUP1 PUSH4 0xB0ECA69B EQ PUSH2 0xF2 JUMPI DUP1 PUSH4 0xE0BEAB2D EQ PUSH2 0x105 JUMPI PUSH1 0x0 DUP1 REVERT JUMPDEST DUP1 PUSH4 0x2C1A14C EQ PUSH2 0x97 JUMPI DUP1 PUSH4 0x192A63ED EQ PUSH2 0xB2 JUMPI DUP1 PUSH4 0x3A24B8EF EQ PUSH2 0xBA JUMPI DUP1 PUSH4 0x48B25502 EQ PUSH2 0xCF JUMPI JUMPDEST PUSH1 0x0 DUP1 REVERT JUMPDEST PUSH2 0x9F PUSH1 0xA DUP2 JUMP JUMPDEST PUSH1 0x40 MLOAD SWAP1 DUP2 MSTORE PUSH1 0x20 ADD JUMPDEST PUSH1 0x40 MLOAD DUP1 SWAP2 SUB SWAP1 RETURN JUMPDEST PUSH2 0x9F PUSH1 0xC DUP2 JUMP JUMPDEST PUSH2 0xC2 PUSH2 0x10D JUMP JUMPDEST PUSH1 0x40 MLOAD PUSH2 0xA9 SWAP2 SWAP1 PUSH2 0x2B3 JUMP JUMPDEST PUSH2 0x9F PUSH1 0x42 DUP2 JUMP JUMPDEST PUSH2 0xC2 PUSH2 0xE5 CALLDATASIZE PUSH1 0x4 PUSH2 0x2C6 JUMP JUMPDEST PUSH2 0x12C JUMP JUMPDEST PUSH2 0x9F PUSH1 0xE DUP2 JUMP JUMPDEST PUSH2 0xC2 PUSH2 0x100 CALLDATASIZE PUSH1 0x4 PUSH2 0x2C6 JUMP JUMPDEST PUSH2 0x1FD JUMP JUMPDEST PUSH2 0xC2 PUSH2 0x251 JUMP JUMPDEST PUSH1 0x40 MLOAD DUP1 PUSH2 0x340 ADD PUSH1 0x40 MSTORE DUP1 PUSH2 0x318 DUP2 MSTORE PUSH1 0x20 ADD PUSH2 0x3C2 PUSH2 0x318 SWAP2 CODECOPY DUP2 JUMP JUMPDEST PUSH1 0x60 PUSH2 0x13A PUSH1 0x1 PUSH1 0xC PUSH2 0x354 JUMP JUMPDEST DUP3 GT ISZERO PUSH2 0x18C JUMPI PUSH2 0x14F PUSH1 0x42 PUSH1 0x0 DUP6 DUP8 PUSH2 0x36D JUMP JUMPDEST DUP1 DUP1 PUSH1 0x1F ADD PUSH1 0x20 DUP1 SWAP2 DIV MUL PUSH1 0x20 ADD PUSH1 0x40 MLOAD SWAP1 DUP2 ADD PUSH1 0x40 MSTORE DUP1 SWAP4 SWAP3 SWAP2 SWAP1 DUP2 DUP2 MSTORE PUSH1 0x20 ADD DUP4 DUP4 DUP1 DUP3 DUP5 CALLDATACOPY PUSH1 0x0 SWAP3 ADD SWAP2 SWAP1 SWAP2 MSTORE POP SWAP3 SWAP4 POP PUSH2 0x1F6 SWAP3 POP POP POP JUMP JUMPDEST DUP4 DUP4 PUSH2 0x199 PUSH1 0x42 DUP6 PUSH2 0x397 JUMP JUMPDEST SWAP1 PUSH1 0x42 PUSH2 0x1A7 DUP7 PUSH1 0x1 PUSH2 0x3AE JUMP JUMPDEST PUSH2 0x1B1 SWAP2 SWAP1 PUSH2 0x397 JUMP JUMPDEST SWAP3 PUSH2 0x1BE SWAP4 SWAP3 SWAP2 SWAP1 PUSH2 0x36D JUMP JUMPDEST DUP1 DUP1 PUSH1 0x1F ADD PUSH1 0x20 DUP1 SWAP2 DIV MUL PUSH1 0x20 ADD PUSH1 0x40 MLOAD SWAP1 DUP2 ADD PUSH1 0x40 MSTORE DUP1 SWAP4 SWAP3 SWAP2 SWAP1 DUP2 DUP2 MSTORE PUSH1 0x20 ADD DUP4 DUP4 DUP1 DUP3 DUP5 CALLDATACOPY PUSH1 0x0 SWAP3 ADD SWAP2 SWAP1 SWAP2 MSTORE POP SWAP3 SWAP4 POP POP POP POP JUMPDEST SWAP4 SWAP3 POP POP POP JUMP JUMPDEST PUSH1 0x60 PUSH1 0xE DUP3 LT ISZERO PUSH2 0x23A JUMPI DUP4 DUP4 PUSH2 0x215 PUSH1 0xA DUP6 PUSH2 0x397 JUMP JUMPDEST SWAP1 PUSH1 0xA PUSH2 0x223 DUP7 PUSH1 0x1 PUSH2 0x3AE JUMP JUMPDEST PUSH2 0x22D SWAP2 SWAP1 PUSH2 0x397 JUMP JUMPDEST SWAP3 PUSH2 0x14F SWAP4 SWAP3 SWAP2 SWAP1 PUSH2 0x36D JUMP JUMPDEST POP PUSH1 0x40 DUP1 MLOAD PUSH1 0x20 DUP2 ADD SWAP1 SWAP2 MSTORE PUSH1 0x0 DUP2 MSTORE SWAP4 SWAP3 POP POP POP JUMP JUMPDEST PUSH1 0x40 MLOAD DUP1 PUSH1 0xC0 ADD PUSH1 0x40 MSTORE DUP1 PUSH1 0x8C DUP2 MSTORE PUSH1 0x20 ADD PUSH2 0x6DA PUSH1 0x8C SWAP2 CODECOPY DUP2 JUMP JUMPDEST PUSH1 0x0 DUP2 MLOAD DUP1 DUP5 MSTORE PUSH1 0x0 JUMPDEST DUP2 DUP2 LT ISZERO PUSH2 0x293 JUMPI PUSH1 0x20 DUP2 DUP6 ADD DUP2 ADD MLOAD DUP7 DUP4 ADD DUP3 ADD MSTORE ADD PUSH2 0x277 JUMP JUMPDEST POP PUSH1 0x0 PUSH1 0x20 DUP3 DUP7 ADD ADD MSTORE PUSH1 0x20 PUSH1 0x1F NOT PUSH1 0x1F DUP4 ADD AND DUP6 ADD ADD SWAP2 POP POP SWAP3 SWAP2 POP POP JUMP JUMPDEST PUSH1 0x20 DUP2 MSTORE PUSH1 0x0 PUSH2 0x1F6 PUSH1 0x20 DUP4 ADD DUP5 PUSH2 0x26D JUMP JUMPDEST PUSH1 0x0 DUP1 PUSH1 0x0 PUSH1 0x40 DUP5 DUP7 SUB SLT ISZERO PUSH2 0x2DB JUMPI PUSH1 0x0 DUP1 REVERT JUMPDEST DUP4 CALLDATALOAD PUSH8 0xFFFFFFFFFFFFFFFF DUP1 DUP3 GT ISZERO PUSH2 0x2F3 JUMPI PUSH1 0x0 DUP1 REVERT JUMPDEST DUP2 DUP7 ADD SWAP2 POP DUP7 PUSH1 0x1F DUP4 ADD SLT PUSH2 0x307 JUMPI PUSH1 0x0 DUP1 REVERT JUMPDEST DUP2 CALLDATALOAD DUP2 DUP2 GT ISZERO PUSH2 0x316 JUMPI PUSH1 0x0 DUP1 REVERT JUMPDEST DUP8 PUSH1 0x20 DUP3 DUP6 ADD ADD GT ISZERO PUSH2 0x328 JUMPI PUSH1 0x0 DUP1 REVERT JUMPDEST PUSH1 0x20 SWAP3 DUP4 ADD SWAP9 SWAP1 SWAP8 POP SWAP6 SWAP1 SWAP2 ADD CALLDATALOAD SWAP5 SWAP4 POP POP POP POP JUMP JUMPDEST PUSH4 0x4E487B71 PUSH1 0xE0 SHL PUSH1 0x0 MSTORE PUSH1 0x11 PUSH1 0x4 MSTORE PUSH1 0x24 PUSH1 0x0 REVERT JUMPDEST DUP2 DUP2 SUB DUP2 DUP2 GT ISZERO PUSH2 0x367 JUMPI PUSH2 0x367 PUSH2 0x33E JUMP JUMPDEST SWAP3 SWAP2 POP POP JUMP JUMPDEST PUSH1 0x0 DUP1 DUP6 DUP6 GT ISZERO PUSH2 0x37D JUMPI PUSH1 0x0 DUP1 REVERT JUMPDEST DUP4 DUP7 GT ISZERO PUSH2 0x38A JUMPI PUSH1 0x0 DUP1 REVERT JUMPDEST POP POP DUP3 ADD SWAP4 SWAP2 SWAP1 SWAP3 SUB SWAP2 POP JUMP JUMPDEST DUP1 DUP3 MUL DUP2 ISZERO DUP3 DUP3 DIV DUP5 EQ OR PUSH2 0x367 JUMPI PUSH2 0x367 PUSH2 0x33E JUMP JUMPDEST DUP1 DUP3 ADD DUP1 DUP3 GT ISZERO PUSH2 0x367 JUMPI PUSH2 0x367 PUSH2 0x33E JUMP INVALID 0x22 SLOAD PUSH9 0x65206D696E64206973 KECCAK256 PUSH6 0x766572797468 PUSH10 0x6E672E20576861742079 PUSH16 0x75207468696E6B2C20796F7520626563 PUSH16 0x6D652E222D2042756461202020202020 KECCAK256 0x22 JUMPI PUSH9 0x617420776520617265 KECCAK256 PUSH10 0x73207468652072657375 PUSH13 0x74206F66207768617420776520 PUSH9 0x6176652074686F7567 PUSH9 0x742E222D4E696B6F6C PUSH2 0x2054 PUSH6 0x736C61202246 PUSH2 0x696C PUSH22 0x726573206172652073696D706C792073746570732074 PUSH16 0x77617264732073756363657373222E2D KECCAK256 GASLIMIT PUSH13 0x6F6E204D75736B2E2020202020 KECCAK256 KECCAK256 KECCAK256 KECCAK256 KECCAK256 0x22 SLOAD PUSH9 0x65206F6E6C79207761 PUSH26 0x20746F20646F20677265617420776F726B20697320746F206C6F PUSH23 0x65207768617420796F7520646F2E222D5374657665204A PUSH16 0x6273224861747265642063616E206F6E PUSH13 0x79206265206F766572636F6D65 KECCAK256 PUSH3 0x79206C PUSH16 0x76652E222D2042756461202020202020 KECCAK256 KECCAK256 KECCAK256 KECCAK256 KECCAK256 KECCAK256 KECCAK256 KECCAK256 KECCAK256 KECCAK256 KECCAK256 KECCAK256 KECCAK256 KECCAK256 KECCAK256 KECCAK256 0x22 MSTORE8 PUSH10 0x6D706C69636974792069 PUSH20 0x2074686520756C74696D61746520736F70686973 PUSH21 0x69636174696F6E2E22202D4C656F6E6172646F2064 PUSH2 0x2056 PUSH10 0x6E63692E202022426520 PUSH21 0x6865206368616E676520796F75207769736820746F KECCAK256 PUSH20 0x656520696E2074686520776F726C642E222D4D61 PUSH9 0x61746D612047616E64 PUSH9 0x692E20202020202243 PUSH22 0x72696F73697479206973206D6F726520696D706F7274 PUSH2 0x6E74 KECCAK256 PUSH21 0x68616E206B6E6F776C656467652E22202D20416C62 PUSH6 0x72742045696E PUSH20 0x7465696E202020225468657265206973206E6F20 PUSH17 0x61746820746F2068617070696E6573733A PUSH9 0x617070696E65737320 PUSH10 0x73207468652070617468 0x2E 0x22 0x2D KECCAK256 TIMESTAMP PUSH22 0x64612020202020202257686174207765206172652069 PUSH20 0x2074686520726573756C74206F66207768617420 PUSH24 0x6520686176652074686F756768742E222D4E696B6F6C6120 SLOAD PUSH6 0x736C61202250 PUSH6 0x61636520636F PUSH14 0x65732066726F6D2077697468696E 0x2E KECCAK256 PREVRANDAO PUSH16 0x206E6F74207365656B20697420776974 PUSH9 0x6F75742E222D204275 PUSH5 0x6120202020 KECCAK256 KECCAK256 KECCAK256 KECCAK256 KECCAK256 KECCAK256 0x22 COINBASE KECCAK256 PUSH14 0x616E206D757374206C6561726E20 PUSH21 0x6F207361696C20696E207374726F6E672077696E64 PUSH20 0x2E22202D20456C6F6E204D75736B2E2020202020 KECCAK256 KECCAK256 KECCAK256 KECCAK256 KECCAK256 MSTORE PUSH22 0x62792020202020204F70616C202020202020546F7061 PUSH27 0x2020202020456D6572616C64202020417175616D6172696E655361 PUSH17 0x70686972652020416D6574687973742020 PC PUSH6 0x6E747572696F PUSH15 0x204C696D6974656420202052617265 KECCAK256 KECCAK256 KECCAK256 KECCAK256 KECCAK256 KECCAK256 GASLIMIT PUSH17 0x69632020202020204C6567656E64617279 KECCAK256 GASLIMIT PUSH25 0x6F7469632020202058756E69636F726E2020A2646970667358 0x22 SLT KECCAK256 0xEA 0xAA 0xB9 0xA6 SELFDESTRUCT 0xE2 SUB 0xB0 PUSH2 0xC23D DUP7 0xFB SDIV 0xB6 SWAP2 POP 0xCC PUSH26 0xC71A8E7C124839E444BBF5669064736F6C634300081200330000 "
				},
				"gasEstimates": {
					"creation": {
						"codeDepositCost": "389400",
						"executionCost": "458",
						"totalCost": "389858"
					},
					"external": {
						"CLASSES()": "infinite",
						"CLASSES_COUNT()": "190",
						"CLASSES_NAME_LENGTH()": "169",
						"QUOTES()": "infinite",
						"QUOTES_COUNT()": "191",
						"QUOTE_LENGTH()": "235",
						"getClassName(bytes,uint256)": "infinite",
						"getQuote(bytes,uint256)": "infinite"
					}
				},
				"methodIdentifiers": {
					"CLASSES()": "e0beab2d",
					"CLASSES_COUNT()": "8e2196ed",
					"CLASSES_NAME_LENGTH()": "02c1a14c",
					"QUOTES()": "3a24b8ef",
					"QUOTES_COUNT()": "192a63ed",
					"QUOTE_LENGTH()": "48b25502",
					"getClassName(bytes,uint256)": "b0eca69b",
					"getQuote(bytes,uint256)": "831b46a1"
				}
			},
			"storageLayout": {
				"storage": [],
				"types": null
			},
			"userdoc": {
				"kind": "user",
				"methods": {},
				"version": 1
			}
		}
	}
}