{
	"XENFT/MintInfo.sol": {
		"MintInfo": {
			"abi": [
				{
					"inputs": [
						{
							"internalType": "uint256",
							"name": "info",
							"type": "uint256"
						}
					],
					"name": "decodeMintInfo",
					"outputs": [
						{
							"internalType": "uint256",
							"name": "term",
							"type": "uint256"
						},
						{
							"internalType": "uint256",
							"name": "maturityTs",
							"type": "uint256"
						},
						{
							"internalType": "uint256",
							"name": "rank",
							"type": "uint256"
						},
						{
							"internalType": "uint256",
							"name": "amp",
							"type": "uint256"
						},
						{
							"internalType": "uint256",
							"name": "eaa",
							"type": "uint256"
						},
						{
							"internalType": "uint256",
							"name": "class",
							"type": "uint256"
						},
						{
							"internalType": "bool",
							"name": "apex",
							"type": "bool"
						},
						{
							"internalType": "bool",
							"name": "limited",
							"type": "bool"
						},
						{
							"internalType": "bool",
							"name": "redeemed",
							"type": "bool"
						}
					],
					"stateMutability": "pure",
					"type": "function"
				},
				{
					"inputs": [
						{
							"internalType": "uint256",
							"name": "term",
							"type": "uint256"
						},
						{
							"internalType": "uint256",
							"name": "maturityTs",
							"type": "uint256"
						},
						{
							"internalType": "uint256",
							"name": "rank",
							"type": "uint256"
						},
						{
							"internalType": "uint256",
							"name": "amp",
							"type": "uint256"
						},
						{
							"internalType": "uint256",
							"name": "eaa",
							"type": "uint256"
						},
						{
							"internalType": "uint256",
							"name": "class_",
							"type": "uint256"
						},
						{
							"internalType": "bool",
							"name": "redeemed",
							"type": "bool"
						}
					],
					"name": "encodeMintInfo",
					"outputs": [
						{
							"internalType": "uint256",
							"name": "info",
							"type": "uint256"
						}
					],
					"stateMutability": "pure",
					"type": "function"
				},
				{
					"inputs": [
						{
							"internalType": "uint256",
							"name": "info",
							"type": "uint256"
						}
					],
					"name": "getAMP",
					"outputs": [
						{
							"internalType": "uint256",
							"name": "amp",
							"type": "uint256"
						}
					],
					"stateMutability": "pure",
					"type": "function"
				},
				{
					"inputs": [
						{
							"internalType": "uint256",
							"name": "info",
							"type": "uint256"
						}
					],
					"name": "getClass",
					"outputs": [
						{
							"internalType": "uint256",
							"name": "class_",
							"type": "uint256"
						},
						{
							"internalType": "bool",
							"name": "apex",
							"type": "bool"
						},
						{
							"internalType": "bool",
							"name": "limited",
							"type": "bool"
						}
					],
					"stateMutability": "pure",
					"type": "function"
				},
				{
					"inputs": [
						{
							"internalType": "uint256",
							"name": "info",
							"type": "uint256"
						}
					],
					"name": "getEAA",
					"outputs": [
						{
							"internalType": "uint256",
							"name": "eaa",
							"type": "uint256"
						}
					],
					"stateMutability": "pure",
					"type": "function"
				},
				{
					"inputs": [
						{
							"internalType": "uint256",
							"name": "info",
							"type": "uint256"
						}
					],
					"name": "getMaturityTs",
					"outputs": [
						{
							"internalType": "uint256",
							"name": "maturityTs",
							"type": "uint256"
						}
					],
					"stateMutability": "pure",
					"type": "function"
				},
				{
					"inputs": [
						{
							"internalType": "uint256",
							"name": "info",
							"type": "uint256"
						}
					],
					"name": "getRank",
					"outputs": [
						{
							"internalType": "uint256",
							"name": "rank",
							"type": "uint256"
						}
					],
					"stateMutability": "pure",
					"type": "function"
				},
				{
					"inputs": [
						{
							"internalType": "uint256",
							"name": "info",
							"type": "uint256"
						}
					],
					"name": "getRedeemed",
					"outputs": [
						{
							"internalType": "bool",
							"name": "redeemed",
							"type": "bool"
						}
					],
					"stateMutability": "pure",
					"type": "function"
				},
				{
					"inputs": [
						{
							"internalType": "uint256",
							"name": "info",
							"type": "uint256"
						}
					],
					"name": "getTerm",
					"outputs": [
						{
							"internalType": "uint256",
							"name": "term",
							"type": "uint256"
						}
					],
					"stateMutability": "pure",
					"type": "function"
				}
			],
			"devdoc": {
				"kind": "dev",
				"methods": {
					"decodeMintInfo(uint256)": {
						"details": "decodes MintInfo record and extracts all of its props"
					},
					"encodeMintInfo(uint256,uint256,uint256,uint256,uint256,uint256,bool)": {
						"details": "encodes MintInfo record from its props"
					},
					"getAMP(uint256)": {
						"details": "extracts `AMP` prop from encoded MintInfo"
					},
					"getClass(uint256)": {
						"details": "extracts `redeemed` prop from encoded MintInfo"
					},
					"getEAA(uint256)": {
						"details": "extracts `EAA` prop from encoded MintInfo"
					},
					"getMaturityTs(uint256)": {
						"details": "extracts `maturityTs` prop from encoded MintInfo"
					},
					"getRank(uint256)": {
						"details": "extracts `rank` prop from encoded MintInfo"
					},
					"getRedeemed(uint256)": {
						"details": "extracts `redeemed` prop from encoded MintInfo"
					},
					"getTerm(uint256)": {
						"details": "extracts `term` prop from encoded MintInfo"
					}
				},
				"version": 1
			},
			"evm": {
				"assembly": "    /* \"XENFT/MintInfo.sol\":419:3820  library MintInfo {... */\n  dataSize(sub_0)\n  dataOffset(sub_0)\n  0x0b\n  dup3\n  dup3\n  dup3\n  codecopy\n  dup1\n  mload\n  0x00\n  byte\n  0x73\n  eq\n  tag_1\n  jumpi\n  mstore(0x00, shl(0xe0, 0x4e487b71))\n  mstore(0x04, 0x00)\n  revert(0x00, 0x24)\ntag_1:\n  mstore(0x00, address)\n  0x73\n  dup2\n  mstore8\n  dup3\n  dup2\n  return\nstop\n\nsub_0: assembly {\n        /* \"XENFT/MintInfo.sol\":419:3820  library MintInfo {... */\n      eq(address, deployTimeAddress())\n      mstore(0x40, 0x80)\n      jumpi(tag_1, lt(calldatasize, 0x04))\n      shr(0xe0, calldataload(0x00))\n      dup1\n      0x512d62df\n      gt\n      tag_11\n      jumpi\n      dup1\n      0x512d62df\n      eq\n      tag_6\n      jumpi\n      dup1\n      0x88f882e8\n      eq\n      tag_7\n      jumpi\n      dup1\n      0x906029d9\n      eq\n      tag_8\n      jumpi\n      dup1\n      0xa5099bae\n      eq\n      tag_9\n      jumpi\n      dup1\n      0xe90cdc89\n      eq\n      tag_10\n      jumpi\n      0x00\n      dup1\n      revert\n    tag_11:\n      dup1\n      0x15370046\n      eq\n      tag_2\n      jumpi\n      dup1\n      0x243eb2c4\n      eq\n      tag_3\n      jumpi\n      dup1\n      0x24bf728e\n      eq\n      tag_4\n      jumpi\n      dup1\n      0x346ba941\n      eq\n      tag_5\n      jumpi\n    tag_1:\n      0x00\n      dup1\n      revert\n        /* \"XENFT/MintInfo.sol\":2915:3042  function getAMP(uint256 info) public pure returns (uint256 amp) {... */\n    tag_2:\n      tag_12\n      tag_13\n      calldatasize\n      0x04\n      tag_14\n      jump\t// in\n    tag_13:\n      tag_15\n      jump\t// in\n    tag_12:\n      mload(0x40)\n        /* \"#utility.yul\":353:378   */\n      swap1\n      dup2\n      mstore\n        /* \"#utility.yul\":341:343   */\n      0x20\n        /* \"#utility.yul\":326:344   */\n      add\n        /* \"XENFT/MintInfo.sol\":2915:3042  function getAMP(uint256 info) public pure returns (uint256 amp) {... */\n    tag_16:\n      mload(0x40)\n      dup1\n      swap2\n      sub\n      swap1\n      return\n        /* \"XENFT/MintInfo.sol\":3124:3251  function getEAA(uint256 info) public pure returns (uint256 eaa) {... */\n    tag_3:\n      tag_12\n      tag_19\n      calldatasize\n      0x04\n      tag_14\n      jump\t// in\n    tag_19:\n      tag_20\n      jump\t// in\n        /* \"XENFT/MintInfo.sol\":2472:2620  function getMaturityTs(uint256 info) public pure returns (uint256 maturityTs) {... */\n    tag_4:\n      tag_12\n      tag_23\n      calldatasize\n      0x04\n      tag_14\n      jump\t// in\n    tag_23:\n      tag_24\n      jump\t// in\n        /* \"XENFT/MintInfo.sol\":2253:2383  function getTerm(uint256 info) public pure returns (uint256 term) {... */\n    tag_5:\n      tag_12\n      tag_27\n      calldatasize\n      0x04\n      tag_14\n      jump\t// in\n    tag_27:\n      tag_28\n      jump\t// in\n        /* \"XENFT/MintInfo.sol\":3338:3591  function getClass(uint256 info)... */\n    tag_6:\n      tag_30\n      tag_31\n      calldatasize\n      0x04\n      tag_14\n      jump\t// in\n    tag_31:\n      tag_32\n      jump\t// in\n    tag_30:\n      0x40\n      dup1\n      mload\n        /* \"#utility.yul\":587:612   */\n      swap4\n      dup5\n      mstore\n        /* \"#utility.yul\":655:669   */\n      swap2\n      iszero\n        /* \"#utility.yul\":648:670   */\n      iszero\n        /* \"#utility.yul\":643:645   */\n      0x20\n        /* \"#utility.yul\":628:646   */\n      dup5\n      add\n        /* \"#utility.yul\":621:671   */\n      mstore\n        /* \"#utility.yul\":714:728   */\n      iszero\n        /* \"#utility.yul\":707:729   */\n      iszero\n        /* \"#utility.yul\":687:705   */\n      swap1\n      dup3\n      add\n        /* \"#utility.yul\":680:730   */\n      mstore\n        /* \"#utility.yul\":575:577   */\n      0x60\n        /* \"#utility.yul\":560:578   */\n      add\n        /* \"XENFT/MintInfo.sol\":3338:3591  function getClass(uint256 info)... */\n      tag_16\n        /* \"#utility.yul\":389:736   */\n      jump\n        /* \"XENFT/MintInfo.sol\":1450:2170  function decodeMintInfo(uint256 info)... */\n    tag_7:\n      tag_35\n      tag_36\n      calldatasize\n      0x04\n      tag_14\n      jump\t// in\n    tag_36:\n      tag_37\n      jump\t// in\n    tag_35:\n      0x40\n      dup1\n      mload\n        /* \"#utility.yul\":1102:1127   */\n      swap10\n      dup11\n      mstore\n        /* \"#utility.yul\":1158:1160   */\n      0x20\n        /* \"#utility.yul\":1143:1161   */\n      dup11\n      add\n        /* \"#utility.yul\":1136:1170   */\n      swap9\n      swap1\n      swap9\n      mstore\n        /* \"#utility.yul\":1186:1204   */\n      swap7\n      dup9\n      add\n        /* \"#utility.yul\":1179:1213   */\n      swap6\n      swap1\n      swap6\n      mstore\n        /* \"#utility.yul\":1244:1246   */\n      0x60\n        /* \"#utility.yul\":1229:1247   */\n      dup8\n      add\n        /* \"#utility.yul\":1222:1256   */\n      swap4\n      swap1\n      swap4\n      mstore\n        /* \"#utility.yul\":1287:1290   */\n      0x80\n        /* \"#utility.yul\":1272:1291   */\n      dup7\n      add\n        /* \"#utility.yul\":1265:1300   */\n      swap2\n      swap1\n      swap2\n      mstore\n        /* \"#utility.yul\":1331:1334   */\n      0xa0\n        /* \"#utility.yul\":1316:1335   */\n      dup6\n      add\n        /* \"#utility.yul\":1309:1344   */\n      mstore\n        /* \"#utility.yul\":1388:1402   */\n      iszero\n        /* \"#utility.yul\":1381:1403   */\n      iszero\n        /* \"#utility.yul\":1375:1378   */\n      0xc0\n        /* \"#utility.yul\":1360:1379   */\n      dup5\n      add\n        /* \"#utility.yul\":1353:1404   */\n      mstore\n        /* \"#utility.yul\":1448:1462   */\n      iszero\n        /* \"#utility.yul\":1441:1463   */\n      iszero\n        /* \"#utility.yul\":1435:1438   */\n      0xe0\n        /* \"#utility.yul\":1420:1439   */\n      dup4\n      add\n        /* \"#utility.yul\":1413:1464   */\n      mstore\n        /* \"#utility.yul\":1508:1522   */\n      iszero\n        /* \"#utility.yul\":1501:1523   */\n      iszero\n        /* \"#utility.yul\":1495:1498   */\n      0x0100\n        /* \"#utility.yul\":1480:1499   */\n      dup3\n      add\n        /* \"#utility.yul\":1473:1524   */\n      mstore\n        /* \"#utility.yul\":1089:1092   */\n      0x0120\n        /* \"#utility.yul\":1074:1093   */\n      add\n        /* \"XENFT/MintInfo.sol\":1450:2170  function decodeMintInfo(uint256 info)... */\n      tag_16\n        /* \"#utility.yul\":741:1530   */\n      jump\n        /* \"XENFT/MintInfo.sol\":731:1356  function encodeMintInfo(... */\n    tag_8:\n      tag_12\n      tag_41\n      calldatasize\n      0x04\n      tag_42\n      jump\t// in\n    tag_41:\n        /* \"XENFT/MintInfo.sol\":951:963  uint256 info */\n      0x00\n        /* \"XENFT/MintInfo.sol\":998:1006  redeemed */\n      dup2\n        /* \"XENFT/MintInfo.sol\":1010:1014  0xFF */\n      0xff\n        /* \"XENFT/MintInfo.sol\":991:1014  toU256(redeemed) & 0xFF */\n      and\n        /* \"XENFT/MintInfo.sol\":983:987  info */\n      dup2\n        /* \"XENFT/MintInfo.sol\":983:1015  info | (toU256(redeemed) & 0xFF) */\n      or\n        /* \"XENFT/MintInfo.sol\":976:1015  info = info | (toU256(redeemed) & 0xFF) */\n      swap1\n      pop\n        /* \"XENFT/MintInfo.sol\":1060:1061  8 */\n      0x08\n        /* \"XENFT/MintInfo.sol\":1042:1048  class_ */\n      dup4\n        /* \"XENFT/MintInfo.sol\":1051:1055  0xFF */\n      0xff\n        /* \"XENFT/MintInfo.sol\":1042:1055  class_ & 0xFF */\n      and\n        /* \"XENFT/MintInfo.sol\":1041:1061  (class_ & 0xFF) << 8 */\n      swap1\n      shl\n        /* \"XENFT/MintInfo.sol\":1033:1037  info */\n      dup2\n        /* \"XENFT/MintInfo.sol\":1033:1062  info | ((class_ & 0xFF) << 8) */\n      or\n        /* \"XENFT/MintInfo.sol\":1026:1062  info = info | ((class_ & 0xFF) << 8) */\n      swap1\n      pop\n        /* \"XENFT/MintInfo.sol\":1106:1108  16 */\n      0x10\n        /* \"XENFT/MintInfo.sol\":1089:1092  eaa */\n      dup5\n        /* \"XENFT/MintInfo.sol\":1095:1101  0xFFFF */\n      0xffff\n        /* \"XENFT/MintInfo.sol\":1089:1101  eaa & 0xFFFF */\n      and\n        /* \"XENFT/MintInfo.sol\":1088:1108  (eaa & 0xFFFF) << 16 */\n      swap1\n      shl\n        /* \"XENFT/MintInfo.sol\":1080:1084  info */\n      dup2\n        /* \"XENFT/MintInfo.sol\":1080:1109  info | ((eaa & 0xFFFF) << 16) */\n      or\n        /* \"XENFT/MintInfo.sol\":1073:1109  info = info | ((eaa & 0xFFFF) << 16) */\n      swap1\n      pop\n        /* \"XENFT/MintInfo.sol\":1153:1155  32 */\n      0x20\n        /* \"XENFT/MintInfo.sol\":1136:1139  amp */\n      dup6\n        /* \"XENFT/MintInfo.sol\":1142:1148  0xFFFF */\n      0xffff\n        /* \"XENFT/MintInfo.sol\":1136:1148  amp & 0xFFFF */\n      and\n        /* \"XENFT/MintInfo.sol\":1135:1155  (amp & 0xFFFF) << 32 */\n      swap1\n      shl\n        /* \"XENFT/MintInfo.sol\":1127:1131  info */\n      dup2\n        /* \"XENFT/MintInfo.sol\":1127:1156  info | ((amp & 0xFFFF) << 32) */\n      or\n        /* \"XENFT/MintInfo.sol\":1120:1156  info = info | ((amp & 0xFFFF) << 32) */\n      swap1\n      pop\n        /* \"XENFT/MintInfo.sol\":1229:1231  48 */\n      0x30\n        /* \"XENFT/MintInfo.sol\":1183:1187  rank */\n      dup7\n      sub(shl(0x80, 0x01), 0x01)\n        /* \"XENFT/MintInfo.sol\":1183:1224  rank & 0xFFFFFFFFFFFFFFFFFFFFFFFFFFFFFFFF */\n      and\n        /* \"XENFT/MintInfo.sol\":1182:1231  (rank & 0xFFFFFFFFFFFFFFFFFFFFFFFFFFFFFFFF) << 48 */\n      swap1\n      shl\n        /* \"XENFT/MintInfo.sol\":1174:1178  info */\n      dup2\n        /* \"XENFT/MintInfo.sol\":1174:1232  info | ((rank & 0xFFFFFFFFFFFFFFFFFFFFFFFFFFFFFFFF) << 48) */\n      or\n        /* \"XENFT/MintInfo.sol\":1167:1232  info = info | ((rank & 0xFFFFFFFFFFFFFFFFFFFFFFFFFFFFFFFF) << 48) */\n      swap1\n      pop\n        /* \"XENFT/MintInfo.sol\":1295:1298  176 */\n      0xb0\n        /* \"XENFT/MintInfo.sol\":1259:1269  maturityTs */\n      dup8\n        /* \"XENFT/MintInfo.sol\":1272:1290  0xFFFFFFFFFFFFFFFF */\n      0xffffffffffffffff\n        /* \"XENFT/MintInfo.sol\":1259:1290  maturityTs & 0xFFFFFFFFFFFFFFFF */\n      and\n        /* \"XENFT/MintInfo.sol\":1258:1298  (maturityTs & 0xFFFFFFFFFFFFFFFF) << 176 */\n      swap1\n      shl\n        /* \"XENFT/MintInfo.sol\":1250:1254  info */\n      dup2\n        /* \"XENFT/MintInfo.sol\":1250:1299  info | ((maturityTs & 0xFFFFFFFFFFFFFFFF) << 176) */\n      or\n        /* \"XENFT/MintInfo.sol\":1243:1299  info = info | ((maturityTs & 0xFFFFFFFFFFFFFFFF) << 176) */\n      swap1\n      pop\n        /* \"XENFT/MintInfo.sol\":1344:1347  240 */\n      0xf0\n        /* \"XENFT/MintInfo.sol\":1326:1330  term */\n      dup9\n        /* \"XENFT/MintInfo.sol\":1333:1339  0xFFFF */\n      0xffff\n        /* \"XENFT/MintInfo.sol\":1326:1339  term & 0xFFFF */\n      and\n        /* \"XENFT/MintInfo.sol\":1325:1347  (term & 0xFFFF) << 240 */\n      swap1\n      shl\n        /* \"XENFT/MintInfo.sol\":1317:1321  info */\n      dup2\n        /* \"XENFT/MintInfo.sol\":1317:1348  info | ((term & 0xFFFF) << 240) */\n      or\n        /* \"XENFT/MintInfo.sol\":1310:1348  info = info | ((term & 0xFFFF) << 240) */\n      swap1\n      pop\n        /* \"XENFT/MintInfo.sol\":731:1356  function encodeMintInfo(... */\n      swap8\n      swap7\n      pop\n      pop\n      pop\n      pop\n      pop\n      pop\n      pop\n      jump\n        /* \"XENFT/MintInfo.sol\":2703:2833  function getRank(uint256 info) public pure returns (uint256 rank) {... */\n    tag_9:\n      tag_12\n      tag_46\n      calldatasize\n      0x04\n      tag_14\n      jump\t// in\n    tag_46:\n      tag_47\n      jump\t// in\n        /* \"XENFT/MintInfo.sol\":3678:3817  function getRedeemed(uint256 info) public pure returns (bool redeemed) {... */\n    tag_10:\n      tag_49\n      tag_50\n      calldatasize\n      0x04\n      tag_14\n      jump\t// in\n    tag_50:\n      tag_51\n      jump\t// in\n    tag_49:\n      mload(0x40)\n        /* \"#utility.yul\":2398:2412   */\n      swap1\n      iszero\n        /* \"#utility.yul\":2391:2413   */\n      iszero\n        /* \"#utility.yul\":2373:2414   */\n      dup2\n      mstore\n        /* \"#utility.yul\":2361:2363   */\n      0x20\n        /* \"#utility.yul\":2346:2364   */\n      add\n        /* \"XENFT/MintInfo.sol\":3678:3817  function getRedeemed(uint256 info) public pure returns (bool redeemed) {... */\n      tag_16\n        /* \"#utility.yul\":2225:2420   */\n      jump\n        /* \"XENFT/MintInfo.sol\":2915:3042  function getAMP(uint256 info) public pure returns (uint256 amp) {... */\n    tag_15:\n        /* \"XENFT/MintInfo.sol\":2966:2977  uint256 amp */\n      0x00\n        /* \"XENFT/MintInfo.sol\":3014:3034  decodeMintInfo(info) */\n      tag_55\n        /* \"XENFT/MintInfo.sol\":3029:3033  info */\n      dup3\n        /* \"XENFT/MintInfo.sol\":3014:3028  decodeMintInfo */\n      tag_37\n        /* \"XENFT/MintInfo.sol\":3014:3034  decodeMintInfo(info) */\n      jump\t// in\n    tag_55:\n      pop\n        /* \"XENFT/MintInfo.sol\":2990:3034  (, , , amp, , , , , ) = decodeMintInfo(info) */\n      swap4\n      swap10\n        /* \"XENFT/MintInfo.sol\":2915:3042  function getAMP(uint256 info) public pure returns (uint256 amp) {... */\n      swap9\n      pop\n      pop\n      pop\n      pop\n      pop\n      pop\n      pop\n      pop\n      pop\n      jump\t// out\n        /* \"XENFT/MintInfo.sol\":3124:3251  function getEAA(uint256 info) public pure returns (uint256 eaa) {... */\n    tag_20:\n        /* \"XENFT/MintInfo.sol\":3175:3186  uint256 eaa */\n      0x00\n        /* \"XENFT/MintInfo.sol\":3223:3243  decodeMintInfo(info) */\n      tag_57\n        /* \"XENFT/MintInfo.sol\":3238:3242  info */\n      dup3\n        /* \"XENFT/MintInfo.sol\":3223:3237  decodeMintInfo */\n      tag_37\n        /* \"XENFT/MintInfo.sol\":3223:3243  decodeMintInfo(info) */\n      jump\t// in\n    tag_57:\n      pop\n        /* \"XENFT/MintInfo.sol\":3199:3243  (, , , , eaa, , , , ) = decodeMintInfo(info) */\n      swap3\n      swap10\n        /* \"XENFT/MintInfo.sol\":3124:3251  function getEAA(uint256 info) public pure returns (uint256 eaa) {... */\n      swap9\n      pop\n      pop\n      pop\n      pop\n      pop\n      pop\n      pop\n      pop\n      pop\n      jump\t// out\n        /* \"XENFT/MintInfo.sol\":2472:2620  function getMaturityTs(uint256 info) public pure returns (uint256 maturityTs) {... */\n    tag_24:\n        /* \"XENFT/MintInfo.sol\":2530:2548  uint256 maturityTs */\n      0x00\n        /* \"XENFT/MintInfo.sol\":2592:2612  decodeMintInfo(info) */\n      tag_59\n        /* \"XENFT/MintInfo.sol\":2607:2611  info */\n      dup3\n        /* \"XENFT/MintInfo.sol\":2592:2606  decodeMintInfo */\n      tag_37\n        /* \"XENFT/MintInfo.sol\":2592:2612  decodeMintInfo(info) */\n      jump\t// in\n    tag_59:\n      pop\n        /* \"XENFT/MintInfo.sol\":2561:2612  (, maturityTs, , , , , , , ) = decodeMintInfo(info) */\n      swap6\n      swap10\n        /* \"XENFT/MintInfo.sol\":2472:2620  function getMaturityTs(uint256 info) public pure returns (uint256 maturityTs) {... */\n      swap9\n      pop\n      pop\n      pop\n      pop\n      pop\n      pop\n      pop\n      pop\n      pop\n      jump\t// out\n        /* \"XENFT/MintInfo.sol\":2253:2383  function getTerm(uint256 info) public pure returns (uint256 term) {... */\n    tag_28:\n        /* \"XENFT/MintInfo.sol\":2305:2317  uint256 term */\n      0x00\n        /* \"XENFT/MintInfo.sol\":2355:2375  decodeMintInfo(info) */\n      tag_61\n        /* \"XENFT/MintInfo.sol\":2370:2374  info */\n      dup3\n        /* \"XENFT/MintInfo.sol\":2355:2369  decodeMintInfo */\n      tag_37\n        /* \"XENFT/MintInfo.sol\":2355:2375  decodeMintInfo(info) */\n      jump\t// in\n    tag_61:\n      pop\n        /* \"XENFT/MintInfo.sol\":2330:2375  (term, , , , , , , , ) = decodeMintInfo(info) */\n      swap7\n      swap10\n        /* \"XENFT/MintInfo.sol\":2253:2383  function getTerm(uint256 info) public pure returns (uint256 term) {... */\n      swap9\n      pop\n      pop\n      pop\n      pop\n      pop\n      pop\n      pop\n      pop\n      pop\n      jump\t// out\n        /* \"XENFT/MintInfo.sol\":3338:3591  function getClass(uint256 info)... */\n    tag_32:\n        /* \"XENFT/MintInfo.sol\":3432:3446  uint256 class_ */\n      0x00\n        /* \"XENFT/MintInfo.sol\":3461:3470  bool apex */\n      dup1\n        /* \"XENFT/MintInfo.sol\":3485:3497  bool limited */\n      0x00\n        /* \"XENFT/MintInfo.sol\":3563:3583  decodeMintInfo(info) */\n      tag_63\n        /* \"XENFT/MintInfo.sol\":3578:3582  info */\n      dup5\n        /* \"XENFT/MintInfo.sol\":3563:3577  decodeMintInfo */\n      tag_37\n        /* \"XENFT/MintInfo.sol\":3563:3583  decodeMintInfo(info) */\n      jump\t// in\n    tag_63:\n      pop\n        /* \"XENFT/MintInfo.sol\":3525:3583  (, , , , , class_, apex, limited, ) = decodeMintInfo(info) */\n      swap2\n      swap12\n      swap1\n      swap11\n      pop\n      swap1\n      swap9\n      pop\n        /* \"XENFT/MintInfo.sol\":3338:3591  function getClass(uint256 info)... */\n      swap7\n      pop\n      pop\n      pop\n      pop\n      pop\n      pop\n      pop\n      jump\t// out\n        /* \"XENFT/MintInfo.sol\":1450:2170  function decodeMintInfo(uint256 info)... */\n    tag_37:\n        /* \"XENFT/MintInfo.sol\":1831:1834  240 */\n      0xf0\n        /* \"XENFT/MintInfo.sol\":1823:1834  info >> 240 */\n      dup2\n      swap1\n      shr\n      swap2\n        /* \"XENFT/MintInfo.sol\":1874:1877  176 */\n      0xb0\n        /* \"XENFT/MintInfo.sol\":1866:1877  info >> 176 */\n      dup3\n      swap1\n      shr\n        /* \"XENFT/MintInfo.sol\":1846:1878  maturityTs = uint64(info >> 176) */\n      0xffffffffffffffff\n      and\n      swap2\n        /* \"XENFT/MintInfo.sol\":1912:1914  48 */\n      0x30\n        /* \"XENFT/MintInfo.sol\":1904:1914  info >> 48 */\n      dup2\n      swap1\n      shr\n      sub(shl(0x80, 0x01), 0x01)\n        /* \"XENFT/MintInfo.sol\":1889:1915  rank = uint128(info >> 48) */\n      and\n      swap2\n        /* \"XENFT/MintInfo.sol\":1809:1835  term = uint16(info >> 240) */\n      0xffff\n        /* \"XENFT/MintInfo.sol\":1947:1949  32 */\n      0x20\n        /* \"XENFT/MintInfo.sol\":1939:1949  info >> 32 */\n      dup4\n      swap1\n      shr\n        /* \"XENFT/MintInfo.sol\":1926:1950  amp = uint16(info >> 32) */\n      dup2\n      and\n      swap3\n        /* \"XENFT/MintInfo.sol\":1982:1984  16 */\n      0x10\n        /* \"XENFT/MintInfo.sol\":1974:1984  info >> 16 */\n      dup2\n      swap1\n      shr\n        /* \"XENFT/MintInfo.sol\":1961:1985  eaa = uint16(info >> 16) */\n      swap1\n      swap2\n      and\n      swap2\n        /* \"XENFT/MintInfo.sol\":2018:2019  8 */\n      0x08\n        /* \"XENFT/MintInfo.sol\":2010:2019  info >> 8 */\n      dup3\n      swap1\n      shr\n        /* \"XENFT/MintInfo.sol\":2023:2027  0x3F */\n      0x3f\n        /* \"XENFT/MintInfo.sol\":2004:2027  uint8(info >> 8) & 0x3F */\n      dup2\n      and\n      swap3\n        /* \"XENFT/MintInfo.sol\":2065:2069  0x80 */\n      0x80\n        /* \"XENFT/MintInfo.sol\":2046:2069  uint8(info >> 8) & 0x80 */\n      dup3\n      and\n        /* \"XENFT/MintInfo.sol\":2045:2074  (uint8(info >> 8) & 0x80) > 0 */\n      iszero\n      iszero\n      swap3\n        /* \"XENFT/MintInfo.sol\":2115:2119  0x40 */\n      0x40\n        /* \"XENFT/MintInfo.sol\":2096:2119  uint8(info >> 8) & 0x40 */\n      swap1\n      swap3\n      and\n        /* \"XENFT/MintInfo.sol\":2095:2124  (uint8(info >> 8) & 0x40) > 0 */\n      iszero\n      iszero\n      swap2\n        /* \"XENFT/MintInfo.sol\":1996:2027  class = uint8(info >> 8) & 0x3F */\n      0xff\n        /* \"XENFT/MintInfo.sol\":2146:2162  uint8(info) == 1 */\n      swap1\n      swap2\n      and\n        /* \"XENFT/MintInfo.sol\":2161:2162  1 */\n      0x01\n        /* \"XENFT/MintInfo.sol\":2146:2162  uint8(info) == 1 */\n      eq\n      swap1\n        /* \"XENFT/MintInfo.sol\":1450:2170  function decodeMintInfo(uint256 info)... */\n      jump\t// out\n        /* \"XENFT/MintInfo.sol\":2703:2833  function getRank(uint256 info) public pure returns (uint256 rank) {... */\n    tag_47:\n        /* \"XENFT/MintInfo.sol\":2755:2767  uint256 rank */\n      0x00\n        /* \"XENFT/MintInfo.sol\":2805:2825  decodeMintInfo(info) */\n      tag_69\n        /* \"XENFT/MintInfo.sol\":2820:2824  info */\n      dup3\n        /* \"XENFT/MintInfo.sol\":2805:2819  decodeMintInfo */\n      tag_37\n        /* \"XENFT/MintInfo.sol\":2805:2825  decodeMintInfo(info) */\n      jump\t// in\n    tag_69:\n      pop\n        /* \"XENFT/MintInfo.sol\":2780:2825  (, , rank, , , , , , ) = decodeMintInfo(info) */\n      swap5\n      swap10\n        /* \"XENFT/MintInfo.sol\":2703:2833  function getRank(uint256 info) public pure returns (uint256 rank) {... */\n      swap9\n      pop\n      pop\n      pop\n      pop\n      pop\n      pop\n      pop\n      pop\n      pop\n      jump\t// out\n        /* \"XENFT/MintInfo.sol\":3678:3817  function getRedeemed(uint256 info) public pure returns (bool redeemed) {... */\n    tag_51:\n        /* \"XENFT/MintInfo.sol\":3734:3747  bool redeemed */\n      0x00\n        /* \"XENFT/MintInfo.sol\":3789:3809  decodeMintInfo(info) */\n      tag_71\n        /* \"XENFT/MintInfo.sol\":3804:3808  info */\n      dup3\n        /* \"XENFT/MintInfo.sol\":3789:3803  decodeMintInfo */\n      tag_37\n        /* \"XENFT/MintInfo.sol\":3789:3809  decodeMintInfo(info) */\n      jump\t// in\n    tag_71:\n        /* \"XENFT/MintInfo.sol\":3760:3809  (, , , , , , , , redeemed) = decodeMintInfo(info) */\n      swap11\n        /* \"XENFT/MintInfo.sol\":3678:3817  function getRedeemed(uint256 info) public pure returns (bool redeemed) {... */\n      swap10\n      pop\n      pop\n      pop\n      pop\n      pop\n      pop\n      pop\n      pop\n      pop\n      pop\n      jump\t// out\n        /* \"#utility.yul\":14:194   */\n    tag_14:\n        /* \"#utility.yul\":73:79   */\n      0x00\n        /* \"#utility.yul\":126:128   */\n      0x20\n        /* \"#utility.yul\":114:123   */\n      dup3\n        /* \"#utility.yul\":105:112   */\n      dup5\n        /* \"#utility.yul\":101:124   */\n      sub\n        /* \"#utility.yul\":97:129   */\n      slt\n        /* \"#utility.yul\":94:146   */\n      iszero\n      tag_75\n      jumpi\n        /* \"#utility.yul\":142:143   */\n      0x00\n        /* \"#utility.yul\":139:140   */\n      dup1\n        /* \"#utility.yul\":132:144   */\n      revert\n        /* \"#utility.yul\":94:146   */\n    tag_75:\n      pop\n        /* \"#utility.yul\":165:188   */\n      calldataload\n      swap2\n        /* \"#utility.yul\":14:194   */\n      swap1\n      pop\n      jump\t// out\n        /* \"#utility.yul\":1535:2220   */\n    tag_42:\n        /* \"#utility.yul\":1645:1651   */\n      0x00\n        /* \"#utility.yul\":1653:1659   */\n      dup1\n        /* \"#utility.yul\":1661:1667   */\n      0x00\n        /* \"#utility.yul\":1669:1675   */\n      dup1\n        /* \"#utility.yul\":1677:1683   */\n      0x00\n        /* \"#utility.yul\":1685:1691   */\n      dup1\n        /* \"#utility.yul\":1693:1699   */\n      0x00\n        /* \"#utility.yul\":1746:1749   */\n      0xe0\n        /* \"#utility.yul\":1734:1743   */\n      dup9\n        /* \"#utility.yul\":1725:1732   */\n      dup11\n        /* \"#utility.yul\":1721:1744   */\n      sub\n        /* \"#utility.yul\":1717:1750   */\n      slt\n        /* \"#utility.yul\":1714:1767   */\n      iszero\n      tag_80\n      jumpi\n        /* \"#utility.yul\":1763:1764   */\n      0x00\n        /* \"#utility.yul\":1760:1761   */\n      dup1\n        /* \"#utility.yul\":1753:1765   */\n      revert\n        /* \"#utility.yul\":1714:1767   */\n    tag_80:\n        /* \"#utility.yul\":1799:1808   */\n      dup8\n        /* \"#utility.yul\":1786:1809   */\n      calldataload\n        /* \"#utility.yul\":1776:1809   */\n      swap7\n      pop\n        /* \"#utility.yul\":1856:1858   */\n      0x20\n        /* \"#utility.yul\":1845:1854   */\n      dup9\n        /* \"#utility.yul\":1841:1859   */\n      add\n        /* \"#utility.yul\":1828:1860   */\n      calldataload\n        /* \"#utility.yul\":1818:1860   */\n      swap6\n      pop\n        /* \"#utility.yul\":1907:1909   */\n      0x40\n        /* \"#utility.yul\":1896:1905   */\n      dup9\n        /* \"#utility.yul\":1892:1910   */\n      add\n        /* \"#utility.yul\":1879:1911   */\n      calldataload\n        /* \"#utility.yul\":1869:1911   */\n      swap5\n      pop\n        /* \"#utility.yul\":1958:1960   */\n      0x60\n        /* \"#utility.yul\":1947:1956   */\n      dup9\n        /* \"#utility.yul\":1943:1961   */\n      add\n        /* \"#utility.yul\":1930:1962   */\n      calldataload\n        /* \"#utility.yul\":1920:1962   */\n      swap4\n      pop\n        /* \"#utility.yul\":2009:2012   */\n      0x80\n        /* \"#utility.yul\":1998:2007   */\n      dup9\n        /* \"#utility.yul\":1994:2013   */\n      add\n        /* \"#utility.yul\":1981:2014   */\n      calldataload\n        /* \"#utility.yul\":1971:2014   */\n      swap3\n      pop\n        /* \"#utility.yul\":2061:2064   */\n      0xa0\n        /* \"#utility.yul\":2050:2059   */\n      dup9\n        /* \"#utility.yul\":2046:2065   */\n      add\n        /* \"#utility.yul\":2033:2066   */\n      calldataload\n        /* \"#utility.yul\":2023:2066   */\n      swap2\n      pop\n        /* \"#utility.yul\":2116:2119   */\n      0xc0\n        /* \"#utility.yul\":2105:2114   */\n      dup9\n        /* \"#utility.yul\":2101:2120   */\n      add\n        /* \"#utility.yul\":2088:2121   */\n      calldataload\n        /* \"#utility.yul\":2164:2169   */\n      dup1\n        /* \"#utility.yul\":2157:2170   */\n      iszero\n        /* \"#utility.yul\":2150:2171   */\n      iszero\n        /* \"#utility.yul\":2143:2148   */\n      dup2\n        /* \"#utility.yul\":2140:2172   */\n      eq\n        /* \"#utility.yul\":2130:2190   */\n      tag_81\n      jumpi\n        /* \"#utility.yul\":2186:2187   */\n      0x00\n        /* \"#utility.yul\":2183:2184   */\n      dup1\n        /* \"#utility.yul\":2176:2188   */\n      revert\n        /* \"#utility.yul\":2130:2190   */\n    tag_81:\n        /* \"#utility.yul\":2209:2214   */\n      dup1\n        /* \"#utility.yul\":2199:2214   */\n      swap2\n      pop\n      pop\n        /* \"#utility.yul\":1535:2220   */\n      swap3\n      swap6\n      swap9\n      swap2\n      swap5\n      swap8\n      pop\n      swap3\n      swap6\n      pop\n      jump\t// out\n\n    auxdata: 0xa2646970667358221220ea4fed25f4e02eb986cc358f44c6224f6e7bb1835fc752a76f5612e39695a31a64736f6c63430008120033\n}\n",
				"bytecode": {
					"linkReferences": {},
					"object": "61040c61003a600b82828239805160001a60731461002d57634e487b7160e01b600052600060045260246000fd5b30600052607381538281f3fe730000000000000000000000000000000000000000301460806040526004361061009d5760003560e01c8063512d62df11610070578063512d62df1461010157806388f882e814610131578063906029d91461018e578063a5099bae14610209578063e90cdc891461021c57600080fd5b806315370046146100a2578063243eb2c4146100c857806324bf728e146100db578063346ba941146100ee575b600080fd5b6100b56100b0366004610358565b61023f565b6040519081526020015b60405180910390f35b6100b56100d6366004610358565b610259565b6100b56100e9366004610358565b610273565b6100b56100fc366004610358565b61028d565b61011461010f366004610358565b6102a7565b6040805193845291151560208401521515908201526060016100bf565b61014461013f366004610358565b6102c8565b60408051998a5260208a0198909852968801959095526060870193909352608086019190915260a0850152151560c0840152151560e08301521515610100820152610120016100bf565b6100b561019c366004610371565b60008160ff168117905060088360ff16901b8117905060108461ffff16901b8117905060208561ffff16901b811790506030866001600160801b0316901b8117905060b08767ffffffffffffffff16901b8117905060f08861ffff16901b81179050979650505050505050565b6100b5610217366004610358565b610325565b61022f61022a366004610358565b61033f565b60405190151581526020016100bf565b600061024a826102c8565b50939998505050505050505050565b6000610264826102c8565b50929998505050505050505050565b600061027e826102c8565b50959998505050505050505050565b6000610298826102c8565b50969998505050505050505050565b60008060006102b5846102c8565b50919b909a509098509650505050505050565b60f081901c9160b082901c67ffffffffffffffff1691603081901c6001600160801b03169161ffff602083901c811692601081901c90911691600882901c603f81169260808216151592604090921615159160ff90911660011490565b6000610330826102c8565b50949998505050505050505050565b600061034a826102c8565b9a9950505050505050505050565b60006020828403121561036a57600080fd5b5035919050565b600080600080600080600060e0888a03121561038c57600080fd5b873596506020880135955060408801359450606088013593506080880135925060a0880135915060c088013580151581146103c657600080fd5b809150509295989194975092955056fea2646970667358221220ea4fed25f4e02eb986cc358f44c6224f6e7bb1835fc752a76f5612e39695a31a64736f6c63430008120033",
					"opcodes": "PUSH2 0x40C PUSH2 0x3A PUSH1 0xB DUP3 DUP3 DUP3 CODECOPY DUP1 MLOAD PUSH1 0x0 BYTE PUSH1 0x73 EQ PUSH2 0x2D JUMPI PUSH4 0x4E487B71 PUSH1 0xE0 SHL PUSH1 0x0 MSTORE PUSH1 0x0 PUSH1 0x4 MSTORE PUSH1 0x24 PUSH1 0x0 REVERT JUMPDEST ADDRESS PUSH1 0x0 MSTORE PUSH1 0x73 DUP2 MSTORE8 DUP3 DUP2 RETURN INVALID PUSH20 0x0 ADDRESS EQ PUSH1 0x80 PUSH1 0x40 MSTORE PUSH1 0x4 CALLDATASIZE LT PUSH2 0x9D JUMPI PUSH1 0x0 CALLDATALOAD PUSH1 0xE0 SHR DUP1 PUSH4 0x512D62DF GT PUSH2 0x70 JUMPI DUP1 PUSH4 0x512D62DF EQ PUSH2 0x101 JUMPI DUP1 PUSH4 0x88F882E8 EQ PUSH2 0x131 JUMPI DUP1 PUSH4 0x906029D9 EQ PUSH2 0x18E JUMPI DUP1 PUSH4 0xA5099BAE EQ PUSH2 0x209 JUMPI DUP1 PUSH4 0xE90CDC89 EQ PUSH2 0x21C JUMPI PUSH1 0x0 DUP1 REVERT JUMPDEST DUP1 PUSH4 0x15370046 EQ PUSH2 0xA2 JUMPI DUP1 PUSH4 0x243EB2C4 EQ PUSH2 0xC8 JUMPI DUP1 PUSH4 0x24BF728E EQ PUSH2 0xDB JUMPI DUP1 PUSH4 0x346BA941 EQ PUSH2 0xEE JUMPI JUMPDEST PUSH1 0x0 DUP1 REVERT JUMPDEST PUSH2 0xB5 PUSH2 0xB0 CALLDATASIZE PUSH1 0x4 PUSH2 0x358 JUMP JUMPDEST PUSH2 0x23F JUMP JUMPDEST PUSH1 0x40 MLOAD SWAP1 DUP2 MSTORE PUSH1 0x20 ADD JUMPDEST PUSH1 0x40 MLOAD DUP1 SWAP2 SUB SWAP1 RETURN JUMPDEST PUSH2 0xB5 PUSH2 0xD6 CALLDATASIZE PUSH1 0x4 PUSH2 0x358 JUMP JUMPDEST PUSH2 0x259 JUMP JUMPDEST PUSH2 0xB5 PUSH2 0xE9 CALLDATASIZE PUSH1 0x4 PUSH2 0x358 JUMP JUMPDEST PUSH2 0x273 JUMP JUMPDEST PUSH2 0xB5 PUSH2 0xFC CALLDATASIZE PUSH1 0x4 PUSH2 0x358 JUMP JUMPDEST PUSH2 0x28D JUMP JUMPDEST PUSH2 0x114 PUSH2 0x10F CALLDATASIZE PUSH1 0x4 PUSH2 0x358 JUMP JUMPDEST PUSH2 0x2A7 JUMP JUMPDEST PUSH1 0x40 DUP1 MLOAD SWAP4 DUP5 MSTORE SWAP2 ISZERO ISZERO PUSH1 0x20 DUP5 ADD MSTORE ISZERO ISZERO SWAP1 DUP3 ADD MSTORE PUSH1 0x60 ADD PUSH2 0xBF JUMP JUMPDEST PUSH2 0x144 PUSH2 0x13F CALLDATASIZE PUSH1 0x4 PUSH2 0x358 JUMP JUMPDEST PUSH2 0x2C8 JUMP JUMPDEST PUSH1 0x40 DUP1 MLOAD SWAP10 DUP11 MSTORE PUSH1 0x20 DUP11 ADD SWAP9 SWAP1 SWAP9 MSTORE SWAP7 DUP9 ADD SWAP6 SWAP1 SWAP6 MSTORE PUSH1 0x60 DUP8 ADD SWAP4 SWAP1 SWAP4 MSTORE PUSH1 0x80 DUP7 ADD SWAP2 SWAP1 SWAP2 MSTORE PUSH1 0xA0 DUP6 ADD MSTORE ISZERO ISZERO PUSH1 0xC0 DUP5 ADD MSTORE ISZERO ISZERO PUSH1 0xE0 DUP4 ADD MSTORE ISZERO ISZERO PUSH2 0x100 DUP3 ADD MSTORE PUSH2 0x120 ADD PUSH2 0xBF JUMP JUMPDEST PUSH2 0xB5 PUSH2 0x19C CALLDATASIZE PUSH1 0x4 PUSH2 0x371 JUMP JUMPDEST PUSH1 0x0 DUP2 PUSH1 0xFF AND DUP2 OR SWAP1 POP PUSH1 0x8 DUP4 PUSH1 0xFF AND SWAP1 SHL DUP2 OR SWAP1 POP PUSH1 0x10 DUP5 PUSH2 0xFFFF AND SWAP1 SHL DUP2 OR SWAP1 POP PUSH1 0x20 DUP6 PUSH2 0xFFFF AND SWAP1 SHL DUP2 OR SWAP1 POP PUSH1 0x30 DUP7 PUSH1 0x1 PUSH1 0x1 PUSH1 0x80 SHL SUB AND SWAP1 SHL DUP2 OR SWAP1 POP PUSH1 0xB0 DUP8 PUSH8 0xFFFFFFFFFFFFFFFF AND SWAP1 SHL DUP2 OR SWAP1 POP PUSH1 0xF0 DUP9 PUSH2 0xFFFF AND SWAP1 SHL DUP2 OR SWAP1 POP SWAP8 SWAP7 POP POP POP POP POP POP POP JUMP JUMPDEST PUSH2 0xB5 PUSH2 0x217 CALLDATASIZE PUSH1 0x4 PUSH2 0x358 JUMP JUMPDEST PUSH2 0x325 JUMP JUMPDEST PUSH2 0x22F PUSH2 0x22A CALLDATASIZE PUSH1 0x4 PUSH2 0x358 JUMP JUMPDEST PUSH2 0x33F JUMP JUMPDEST PUSH1 0x40 MLOAD SWAP1 ISZERO ISZERO DUP2 MSTORE PUSH1 0x20 ADD PUSH2 0xBF JUMP JUMPDEST PUSH1 0x0 PUSH2 0x24A DUP3 PUSH2 0x2C8 JUMP JUMPDEST POP SWAP4 SWAP10 SWAP9 POP POP POP POP POP POP POP POP POP JUMP JUMPDEST PUSH1 0x0 PUSH2 0x264 DUP3 PUSH2 0x2C8 JUMP JUMPDEST POP SWAP3 SWAP10 SWAP9 POP POP POP POP POP POP POP POP POP JUMP JUMPDEST PUSH1 0x0 PUSH2 0x27E DUP3 PUSH2 0x2C8 JUMP JUMPDEST POP SWAP6 SWAP10 SWAP9 POP POP POP POP POP POP POP POP POP JUMP JUMPDEST PUSH1 0x0 PUSH2 0x298 DUP3 PUSH2 0x2C8 JUMP JUMPDEST POP SWAP7 SWAP10 SWAP9 POP POP POP POP POP POP POP POP POP JUMP JUMPDEST PUSH1 0x0 DUP1 PUSH1 0x0 PUSH2 0x2B5 DUP5 PUSH2 0x2C8 JUMP JUMPDEST POP SWAP2 SWAP12 SWAP1 SWAP11 POP SWAP1 SWAP9 POP SWAP7 POP POP POP POP POP POP POP JUMP JUMPDEST PUSH1 0xF0 DUP2 SWAP1 SHR SWAP2 PUSH1 0xB0 DUP3 SWAP1 SHR PUSH8 0xFFFFFFFFFFFFFFFF AND SWAP2 PUSH1 0x30 DUP2 SWAP1 SHR PUSH1 0x1 PUSH1 0x1 PUSH1 0x80 SHL SUB AND SWAP2 PUSH2 0xFFFF PUSH1 0x20 DUP4 SWAP1 SHR DUP2 AND SWAP3 PUSH1 0x10 DUP2 SWAP1 SHR SWAP1 SWAP2 AND SWAP2 PUSH1 0x8 DUP3 SWAP1 SHR PUSH1 0x3F DUP2 AND SWAP3 PUSH1 0x80 DUP3 AND ISZERO ISZERO SWAP3 PUSH1 0x40 SWAP1 SWAP3 AND ISZERO ISZERO SWAP2 PUSH1 0xFF SWAP1 SWAP2 AND PUSH1 0x1 EQ SWAP1 JUMP JUMPDEST PUSH1 0x0 PUSH2 0x330 DUP3 PUSH2 0x2C8 JUMP JUMPDEST POP SWAP5 SWAP10 SWAP9 POP POP POP POP POP POP POP POP POP JUMP JUMPDEST PUSH1 0x0 PUSH2 0x34A DUP3 PUSH2 0x2C8 JUMP JUMPDEST SWAP11 SWAP10 POP POP POP POP POP POP POP POP POP POP JUMP JUMPDEST PUSH1 0x0 PUSH1 0x20 DUP3 DUP5 SUB SLT ISZERO PUSH2 0x36A JUMPI PUSH1 0x0 DUP1 REVERT JUMPDEST POP CALLDATALOAD SWAP2 SWAP1 POP JUMP JUMPDEST PUSH1 0x0 DUP1 PUSH1 0x0 DUP1 PUSH1 0x0 DUP1 PUSH1 0x0 PUSH1 0xE0 DUP9 DUP11 SUB SLT ISZERO PUSH2 0x38C JUMPI PUSH1 0x0 DUP1 REVERT JUMPDEST DUP8 CALLDATALOAD SWAP7 POP PUSH1 0x20 DUP9 ADD CALLDATALOAD SWAP6 POP PUSH1 0x40 DUP9 ADD CALLDATALOAD SWAP5 POP PUSH1 0x60 DUP9 ADD CALLDATALOAD SWAP4 POP PUSH1 0x80 DUP9 ADD CALLDATALOAD SWAP3 POP PUSH1 0xA0 DUP9 ADD CALLDATALOAD SWAP2 POP PUSH1 0xC0 DUP9 ADD CALLDATALOAD DUP1 ISZERO ISZERO DUP2 EQ PUSH2 0x3C6 JUMPI PUSH1 0x0 DUP1 REVERT JUMPDEST DUP1 SWAP2 POP POP SWAP3 SWAP6 SWAP9 SWAP2 SWAP5 SWAP8 POP SWAP3 SWAP6 POP JUMP INVALID LOG2 PUSH5 0x6970667358 0x22 SLT KECCAK256 0xEA 0x4F 0xED 0x25 DELEGATECALL 0xE0 0x2E 0xB9 DUP7 0xCC CALLDATALOAD DUP16 PREVRANDAO 0xC6 0x22 0x4F PUSH15 0x7BB1835FC752A76F5612E39695A31A PUSH5 0x736F6C6343 STOP ADDMOD SLT STOP CALLER "
				},
				"gasEstimates": {
					"creation": {
						"codeDepositCost": "207200",
						"executionCost": "282",
						"totalCost": "207482"
					},
					"external": {
						"decodeMintInfo(uint256)": "662",
						"encodeMintInfo(uint256,uint256,uint256,uint256,uint256,uint256,bool)": "692",
						"getAMP(uint256)": "512",
						"getClass(uint256)": "588",
						"getEAA(uint256)": "534",
						"getMaturityTs(uint256)": "556",
						"getRank(uint256)": "577",
						"getRedeemed(uint256)": "613",
						"getTerm(uint256)": "578"
					},
					"internal": {
						"toU256(bool)": "infinite"
					}
				},
				"methodIdentifiers": {
					"decodeMintInfo(uint256)": "88f882e8",
					"encodeMintInfo(uint256,uint256,uint256,uint256,uint256,uint256,bool)": "906029d9",
					"getAMP(uint256)": "15370046",
					"getClass(uint256)": "512d62df",
					"getEAA(uint256)": "243eb2c4",
					"getMaturityTs(uint256)": "24bf728e",
					"getRank(uint256)": "a5099bae",
					"getRedeemed(uint256)": "e90cdc89",
					"getTerm(uint256)": "346ba941"
				}
			},
			"storageLayout": {
				"storage": [],
				"types": null
			},
			"userdoc": {
				"kind": "user",
				"methods": {},
				"version": 1
			}
		}
	}
}