{
	"data": {
		"bytecode": {
			"linkReferences": {},
			"object": "6109d161003a600b82828239805160001a60731461002d57634e487b7160e01b600052600060045260246000fd5b30600052607381538281f3fe730000000000000000000000000000000000000000301460806040526004361061004b5760003560e01c80635a97e730146100505780638fa626f21461007a578063b5d987e31461008f575b600080fd5b61006361005e366004610679565b6100a2565b6040516100719291906106e2565b60405180910390f35b6100826100cf565b60405161007191906106fb565b61008261009d366004610679565b6100eb565b600060606000806100b285610165565b5050505091509150816100c4826101d9565b935093505050915091565b6040518060600160405280602481526020016109786024913981565b606060008060008060006100fe87610165565b5094509450945094509450610112846101d9565b61011b8461038d565b6101248761038d565b61012d85610496565b61013685610496565b60405160200161014a959493929190610715565b60405160208183030381529060405295505050505050919050565b6000808080808061018161017c62015180896107f7565b610505565b919750955093506000610197620151808961080b565b90506101a5610e10826107f7565b93506101b3610e108261080b565b90506101c0603c826107f7565b92506101cd603c8261080b565b91505091939550919395565b6060600082116102195760405162461bcd60e51b81526020600482015260076024820152660c4c2c840d2c8f60cb1b604482015260640160405180910390fd5b6040805160038082528183019092526000916020820181803683370190505090506000610247600185610835565b610252906003610848565b905060405180606001604052806024815260200161097860249139818151811061027e5761027e61085f565b602001015160f81c60f81b8260008151811061029c5761029c61085f565b60200101906001600160f81b031916908160001a905350604051806060016040528060248152602001610978602491396102d7826001610875565b815181106102e7576102e761085f565b602001015160f81c60f81b826001815181106103055761030561085f565b60200101906001600160f81b031916908160001a90535060405180606001604052806024815260200161097860249139610340826002610875565b815181106103505761035061085f565b602001015160f81c60f81b8260028151811061036e5761036e61085f565b60200101906001600160f81b031916908160001a905350909392505050565b6060816000036103b45750506040805180820190915260018152600360fc1b602082015290565b8160005b81156103de57806103c881610888565b91506103d79050600a836107f7565b91506103b8565b60008167ffffffffffffffff8111156103f9576103f961081f565b6040519080825280601f01601f191660200182016040528015610423576020820181803683370190505b5090505b841561048e57610438600183610835565b9150610445600a8661080b565b610450906030610875565b60f81b8183815181106104655761046561085f565b60200101906001600160f81b031916908160001a905350610487600a866107f7565b9450610427565b949350505050565b6060816000036104be575050604080518082019091526002815261030360f41b602082015290565b600a8210156104f6576104d08261038d565b6040516020016104e091906108a1565b6040516020818303038152906040529050919050565b6104ff8261038d565b92915050565b60008080838162253d8c61051c8362010bd96108ca565b61052691906108ca565b9050600062023ab16105398360046108f2565b6105439190610922565b905060046105548262023ab16108f2565b61055f9060036108ca565b6105699190610922565b6105739083610950565b9150600062164b096105868460016108ca565b61059290610fa06108f2565b61059c9190610922565b905060046105ac826105b56108f2565b6105b69190610922565b6105c09084610950565b6105cb90601f6108ca565b9250600061098f6105dd8560506108f2565b6105e79190610922565b9050600060506105f98361098f6108f2565b6106039190610922565b61060d9086610950565b905061061a600b83610922565b945061062785600c6108f2565b6106328360026108ca565b61063c9190610950565b9150848361064b603187610950565b6106569060646108f2565b61066091906108ca565b61066a91906108ca565b9a919950975095505050505050565b60006020828403121561068b57600080fd5b5035919050565b60005b838110156106ad578181015183820152602001610695565b50506000910152565b600081518084526106ce816020860160208601610692565b601f01601f19169290920160200192915050565b82815260406020820152600061048e60408301846106b6565b60208152600061070e60208301846106b6565b9392505050565b60008651610727818460208b01610692565b8083019050600160fd1b8082528751610747816001850160208c01610692565b61016160f51b60019390910192830152865161076a816003850160208b01610692565b60039201918201528451610785816004840160208901610692565b600181830101915050601d60f91b600382015283516107ab816004840160208801610692565b632055544360e01b91016004810191909152600801979650505050505050565b634e487b7160e01b600052601260045260246000fd5b634e487b7160e01b600052601160045260246000fd5b600082610806576108066107cb565b500490565b60008261081a5761081a6107cb565b500690565b634e487b7160e01b600052604160045260246000fd5b818103818111156104ff576104ff6107e1565b80820281158282048414176104ff576104ff6107e1565b634e487b7160e01b600052603260045260246000fd5b808201808211156104ff576104ff6107e1565b60006001820161089a5761089a6107e1565b5060010190565b600360fc1b8152600082516108bd816001850160208701610692565b9190910160010192915050565b80820182811260008312801582168215821617156108ea576108ea6107e1565b505092915050565b80820260008212600160ff1b8414161561090e5761090e6107e1565b81810583148215176104ff576104ff6107e1565b600082610931576109316107cb565b600160ff1b82146000198414161561094b5761094b6107e1565b500590565b8181036000831280158383131683831282161715610970576109706107e1565b509291505056fe4a616e4665624d61724170724d61794a756e4a756c4175675365704f63744e6f76446563a2646970667358221220375222079bf384cbb982620d2537d8c4cfb93611dc1adb6831fbbce06497719964736f6c63430008120033",
			"opcodes": "PUSH2 0x9D1 PUSH2 0x3A PUSH1 0xB DUP3 DUP3 DUP3 CODECOPY DUP1 MLOAD PUSH1 0x0 BYTE PUSH1 0x73 EQ PUSH2 0x2D JUMPI PUSH4 0x4E487B71 PUSH1 0xE0 SHL PUSH1 0x0 MSTORE PUSH1 0x0 PUSH1 0x4 MSTORE PUSH1 0x24 PUSH1 0x0 REVERT JUMPDEST ADDRESS PUSH1 0x0 MSTORE PUSH1 0x73 DUP2 MSTORE8 DUP3 DUP2 RETURN INVALID PUSH20 0x0 ADDRESS EQ PUSH1 0x80 PUSH1 0x40 MSTORE PUSH1 0x4 CALLDATASIZE LT PUSH2 0x4B JUMPI PUSH1 0x0 CALLDATALOAD PUSH1 0xE0 SHR DUP1 PUSH4 0x5A97E730 EQ PUSH2 0x50 JUMPI DUP1 PUSH4 0x8FA626F2 EQ PUSH2 0x7A JUMPI DUP1 PUSH4 0xB5D987E3 EQ PUSH2 0x8F JUMPI JUMPDEST PUSH1 0x0 DUP1 REVERT JUMPDEST PUSH2 0x63 PUSH2 0x5E CALLDATASIZE PUSH1 0x4 PUSH2 0x679 JUMP JUMPDEST PUSH2 0xA2 JUMP JUMPDEST PUSH1 0x40 MLOAD PUSH2 0x71 SWAP3 SWAP2 SWAP1 PUSH2 0x6E2 JUMP JUMPDEST PUSH1 0x40 MLOAD DUP1 SWAP2 SUB SWAP1 RETURN JUMPDEST PUSH2 0x82 PUSH2 0xCF JUMP JUMPDEST PUSH1 0x40 MLOAD PUSH2 0x71 SWAP2 SWAP1 PUSH2 0x6FB JUMP JUMPDEST PUSH2 0x82 PUSH2 0x9D CALLDATASIZE PUSH1 0x4 PUSH2 0x679 JUMP JUMPDEST PUSH2 0xEB JUMP JUMPDEST PUSH1 0x0 PUSH1 0x60 PUSH1 0x0 DUP1 PUSH2 0xB2 DUP6 PUSH2 0x165 JUMP JUMPDEST POP POP POP POP SWAP2 POP SWAP2 POP DUP2 PUSH2 0xC4 DUP3 PUSH2 0x1D9 JUMP JUMPDEST SWAP4 POP SWAP4 POP POP POP SWAP2 POP SWAP2 JUMP JUMPDEST PUSH1 0x40 MLOAD DUP1 PUSH1 0x60 ADD PUSH1 0x40 MSTORE DUP1 PUSH1 0x24 DUP2 MSTORE PUSH1 0x20 ADD PUSH2 0x978 PUSH1 0x24 SWAP2 CODECOPY DUP2 JUMP JUMPDEST PUSH1 0x60 PUSH1 0x0 DUP1 PUSH1 0x0 DUP1 PUSH1 0x0 PUSH2 0xFE DUP8 PUSH2 0x165 JUMP JUMPDEST POP SWAP5 POP SWAP5 POP SWAP5 POP SWAP5 POP SWAP5 POP PUSH2 0x112 DUP5 PUSH2 0x1D9 JUMP JUMPDEST PUSH2 0x11B DUP5 PUSH2 0x38D JUMP JUMPDEST PUSH2 0x124 DUP8 PUSH2 0x38D JUMP JUMPDEST PUSH2 0x12D DUP6 PUSH2 0x496 JUMP JUMPDEST PUSH2 0x136 DUP6 PUSH2 0x496 JUMP JUMPDEST PUSH1 0x40 MLOAD PUSH1 0x20 ADD PUSH2 0x14A SWAP6 SWAP5 SWAP4 SWAP3 SWAP2 SWAP1 PUSH2 0x715 JUMP JUMPDEST PUSH1 0x40 MLOAD PUSH1 0x20 DUP2 DUP4 SUB SUB DUP2 MSTORE SWAP1 PUSH1 0x40 MSTORE SWAP6 POP POP POP POP POP POP SWAP2 SWAP1 POP JUMP JUMPDEST PUSH1 0x0 DUP1 DUP1 DUP1 DUP1 DUP1 PUSH2 0x181 PUSH2 0x17C PUSH3 0x15180 DUP10 PUSH2 0x7F7 JUMP JUMPDEST PUSH2 0x505 JUMP JUMPDEST SWAP2 SWAP8 POP SWAP6 POP SWAP4 POP PUSH1 0x0 PUSH2 0x197 PUSH3 0x15180 DUP10 PUSH2 0x80B JUMP JUMPDEST SWAP1 POP PUSH2 0x1A5 PUSH2 0xE10 DUP3 PUSH2 0x7F7 JUMP JUMPDEST SWAP4 POP PUSH2 0x1B3 PUSH2 0xE10 DUP3 PUSH2 0x80B JUMP JUMPDEST SWAP1 POP PUSH2 0x1C0 PUSH1 0x3C DUP3 PUSH2 0x7F7 JUMP JUMPDEST SWAP3 POP PUSH2 0x1CD PUSH1 0x3C DUP3 PUSH2 0x80B JUMP JUMPDEST SWAP2 POP POP SWAP2 SWAP4 SWAP6 POP SWAP2 SWAP4 SWAP6 JUMP JUMPDEST PUSH1 0x60 PUSH1 0x0 DUP3 GT PUSH2 0x219 JUMPI PUSH1 0x40 MLOAD PUSH3 0x461BCD PUSH1 0xE5 SHL DUP2 MSTORE PUSH1 0x20 PUSH1 0x4 DUP3 ADD MSTORE PUSH1 0x7 PUSH1 0x24 DUP3 ADD MSTORE PUSH7 0xC4C2C840D2C8F PUSH1 0xCB SHL PUSH1 0x44 DUP3 ADD MSTORE PUSH1 0x64 ADD PUSH1 0x40 MLOAD DUP1 SWAP2 SUB SWAP1 REVERT JUMPDEST PUSH1 0x40 DUP1 MLOAD PUSH1 0x3 DUP1 DUP3 MSTORE DUP2 DUP4 ADD SWAP1 SWAP3 MSTORE PUSH1 0x0 SWAP2 PUSH1 0x20 DUP3 ADD DUP2 DUP1 CALLDATASIZE DUP4 CALLDATACOPY ADD SWAP1 POP POP SWAP1 POP PUSH1 0x0 PUSH2 0x247 PUSH1 0x1 DUP6 PUSH2 0x835 JUMP JUMPDEST PUSH2 0x252 SWAP1 PUSH1 0x3 PUSH2 0x848 JUMP JUMPDEST SWAP1 POP PUSH1 0x40 MLOAD DUP1 PUSH1 0x60 ADD PUSH1 0x40 MSTORE DUP1 PUSH1 0x24 DUP2 MSTORE PUSH1 0x20 ADD PUSH2 0x978 PUSH1 0x24 SWAP2 CODECOPY DUP2 DUP2 MLOAD DUP2 LT PUSH2 0x27E JUMPI PUSH2 0x27E PUSH2 0x85F JUMP JUMPDEST PUSH1 0x20 ADD ADD MLOAD PUSH1 0xF8 SHR PUSH1 0xF8 SHL DUP3 PUSH1 0x0 DUP2 MLOAD DUP2 LT PUSH2 0x29C JUMPI PUSH2 0x29C PUSH2 0x85F JUMP JUMPDEST PUSH1 0x20 ADD ADD SWAP1 PUSH1 0x1 PUSH1 0x1 PUSH1 0xF8 SHL SUB NOT AND SWAP1 DUP2 PUSH1 0x0 BYTE SWAP1 MSTORE8 POP PUSH1 0x40 MLOAD DUP1 PUSH1 0x60 ADD PUSH1 0x40 MSTORE DUP1 PUSH1 0x24 DUP2 MSTORE PUSH1 0x20 ADD PUSH2 0x978 PUSH1 0x24 SWAP2 CODECOPY PUSH2 0x2D7 DUP3 PUSH1 0x1 PUSH2 0x875 JUMP JUMPDEST DUP2 MLOAD DUP2 LT PUSH2 0x2E7 JUMPI PUSH2 0x2E7 PUSH2 0x85F JUMP JUMPDEST PUSH1 0x20 ADD ADD MLOAD PUSH1 0xF8 SHR PUSH1 0xF8 SHL DUP3 PUSH1 0x1 DUP2 MLOAD DUP2 LT PUSH2 0x305 JUMPI PUSH2 0x305 PUSH2 0x85F JUMP JUMPDEST PUSH1 0x20 ADD ADD SWAP1 PUSH1 0x1 PUSH1 0x1 PUSH1 0xF8 SHL SUB NOT AND SWAP1 DUP2 PUSH1 0x0 BYTE SWAP1 MSTORE8 POP PUSH1 0x40 MLOAD DUP1 PUSH1 0x60 ADD PUSH1 0x40 MSTORE DUP1 PUSH1 0x24 DUP2 MSTORE PUSH1 0x20 ADD PUSH2 0x978 PUSH1 0x24 SWAP2 CODECOPY PUSH2 0x340 DUP3 PUSH1 0x2 PUSH2 0x875 JUMP JUMPDEST DUP2 MLOAD DUP2 LT PUSH2 0x350 JUMPI PUSH2 0x350 PUSH2 0x85F JUMP JUMPDEST PUSH1 0x20 ADD ADD MLOAD PUSH1 0xF8 SHR PUSH1 0xF8 SHL DUP3 PUSH1 0x2 DUP2 MLOAD DUP2 LT PUSH2 0x36E JUMPI PUSH2 0x36E PUSH2 0x85F JUMP JUMPDEST PUSH1 0x20 ADD ADD SWAP1 PUSH1 0x1 PUSH1 0x1 PUSH1 0xF8 SHL SUB NOT AND SWAP1 DUP2 PUSH1 0x0 BYTE SWAP1 MSTORE8 POP SWAP1 SWAP4 SWAP3 POP POP POP JUMP JUMPDEST PUSH1 0x60 DUP2 PUSH1 0x0 SUB PUSH2 0x3B4 JUMPI POP POP PUSH1 0x40 DUP1 MLOAD DUP1 DUP3 ADD SWAP1 SWAP2 MSTORE PUSH1 0x1 DUP2 MSTORE PUSH1 0x3 PUSH1 0xFC SHL PUSH1 0x20 DUP3 ADD MSTORE SWAP1 JUMP JUMPDEST DUP2 PUSH1 0x0 JUMPDEST DUP2 ISZERO PUSH2 0x3DE JUMPI DUP1 PUSH2 0x3C8 DUP2 PUSH2 0x888 JUMP JUMPDEST SWAP2 POP PUSH2 0x3D7 SWAP1 POP PUSH1 0xA DUP4 PUSH2 0x7F7 JUMP JUMPDEST SWAP2 POP PUSH2 0x3B8 JUMP JUMPDEST PUSH1 0x0 DUP2 PUSH8 0xFFFFFFFFFFFFFFFF DUP2 GT ISZERO PUSH2 0x3F9 JUMPI PUSH2 0x3F9 PUSH2 0x81F JUMP JUMPDEST PUSH1 0x40 MLOAD SWAP1 DUP1 DUP3 MSTORE DUP1 PUSH1 0x1F ADD PUSH1 0x1F NOT AND PUSH1 0x20 ADD DUP3 ADD PUSH1 0x40 MSTORE DUP1 ISZERO PUSH2 0x423 JUMPI PUSH1 0x20 DUP3 ADD DUP2 DUP1 CALLDATASIZE DUP4 CALLDATACOPY ADD SWAP1 POP JUMPDEST POP SWAP1 POP JUMPDEST DUP5 ISZERO PUSH2 0x48E JUMPI PUSH2 0x438 PUSH1 0x1 DUP4 PUSH2 0x835 JUMP JUMPDEST SWAP2 POP PUSH2 0x445 PUSH1 0xA DUP7 PUSH2 0x80B JUMP JUMPDEST PUSH2 0x450 SWAP1 PUSH1 0x30 PUSH2 0x875 JUMP JUMPDEST PUSH1 0xF8 SHL DUP2 DUP4 DUP2 MLOAD DUP2 LT PUSH2 0x465 JUMPI PUSH2 0x465 PUSH2 0x85F JUMP JUMPDEST PUSH1 0x20 ADD ADD SWAP1 PUSH1 0x1 PUSH1 0x1 PUSH1 0xF8 SHL SUB NOT AND SWAP1 DUP2 PUSH1 0x0 BYTE SWAP1 MSTORE8 POP PUSH2 0x487 PUSH1 0xA DUP7 PUSH2 0x7F7 JUMP JUMPDEST SWAP5 POP PUSH2 0x427 JUMP JUMPDEST SWAP5 SWAP4 POP POP POP POP JUMP JUMPDEST PUSH1 0x60 DUP2 PUSH1 0x0 SUB PUSH2 0x4BE JUMPI POP POP PUSH1 0x40 DUP1 MLOAD DUP1 DUP3 ADD SWAP1 SWAP2 MSTORE PUSH1 0x2 DUP2 MSTORE PUSH2 0x303 PUSH1 0xF4 SHL PUSH1 0x20 DUP3 ADD MSTORE SWAP1 JUMP JUMPDEST PUSH1 0xA DUP3 LT ISZERO PUSH2 0x4F6 JUMPI PUSH2 0x4D0 DUP3 PUSH2 0x38D JUMP JUMPDEST PUSH1 0x40 MLOAD PUSH1 0x20 ADD PUSH2 0x4E0 SWAP2 SWAP1 PUSH2 0x8A1 JUMP JUMPDEST PUSH1 0x40 MLOAD PUSH1 0x20 DUP2 DUP4 SUB SUB DUP2 MSTORE SWAP1 PUSH1 0x40 MSTORE SWAP1 POP SWAP2 SWAP1 POP JUMP JUMPDEST PUSH2 0x4FF DUP3 PUSH2 0x38D JUMP JUMPDEST SWAP3 SWAP2 POP POP JUMP JUMPDEST PUSH1 0x0 DUP1 DUP1 DUP4 DUP2 PUSH3 0x253D8C PUSH2 0x51C DUP4 PUSH3 0x10BD9 PUSH2 0x8CA JUMP JUMPDEST PUSH2 0x526 SWAP2 SWAP1 PUSH2 0x8CA JUMP JUMPDEST SWAP1 POP PUSH1 0x0 PUSH3 0x23AB1 PUSH2 0x539 DUP4 PUSH1 0x4 PUSH2 0x8F2 JUMP JUMPDEST PUSH2 0x543 SWAP2 SWAP1 PUSH2 0x922 JUMP JUMPDEST SWAP1 POP PUSH1 0x4 PUSH2 0x554 DUP3 PUSH3 0x23AB1 PUSH2 0x8F2 JUMP JUMPDEST PUSH2 0x55F SWAP1 PUSH1 0x3 PUSH2 0x8CA JUMP JUMPDEST PUSH2 0x569 SWAP2 SWAP1 PUSH2 0x922 JUMP JUMPDEST PUSH2 0x573 SWAP1 DUP4 PUSH2 0x950 JUMP JUMPDEST SWAP2 POP PUSH1 0x0 PUSH3 0x164B09 PUSH2 0x586 DUP5 PUSH1 0x1 PUSH2 0x8CA JUMP JUMPDEST PUSH2 0x592 SWAP1 PUSH2 0xFA0 PUSH2 0x8F2 JUMP JUMPDEST PUSH2 0x59C SWAP2 SWAP1 PUSH2 0x922 JUMP JUMPDEST SWAP1 POP PUSH1 0x4 PUSH2 0x5AC DUP3 PUSH2 0x5B5 PUSH2 0x8F2 JUMP JUMPDEST PUSH2 0x5B6 SWAP2 SWAP1 PUSH2 0x922 JUMP JUMPDEST PUSH2 0x5C0 SWAP1 DUP5 PUSH2 0x950 JUMP JUMPDEST PUSH2 0x5CB SWAP1 PUSH1 0x1F PUSH2 0x8CA JUMP JUMPDEST SWAP3 POP PUSH1 0x0 PUSH2 0x98F PUSH2 0x5DD DUP6 PUSH1 0x50 PUSH2 0x8F2 JUMP JUMPDEST PUSH2 0x5E7 SWAP2 SWAP1 PUSH2 0x922 JUMP JUMPDEST SWAP1 POP PUSH1 0x0 PUSH1 0x50 PUSH2 0x5F9 DUP4 PUSH2 0x98F PUSH2 0x8F2 JUMP JUMPDEST PUSH2 0x603 SWAP2 SWAP1 PUSH2 0x922 JUMP JUMPDEST PUSH2 0x60D SWAP1 DUP7 PUSH2 0x950 JUMP JUMPDEST SWAP1 POP PUSH2 0x61A PUSH1 0xB DUP4 PUSH2 0x922 JUMP JUMPDEST SWAP5 POP PUSH2 0x627 DUP6 PUSH1 0xC PUSH2 0x8F2 JUMP JUMPDEST PUSH2 0x632 DUP4 PUSH1 0x2 PUSH2 0x8CA JUMP JUMPDEST PUSH2 0x63C SWAP2 SWAP1 PUSH2 0x950 JUMP JUMPDEST SWAP2 POP DUP5 DUP4 PUSH2 0x64B PUSH1 0x31 DUP8 PUSH2 0x950 JUMP JUMPDEST PUSH2 0x656 SWAP1 PUSH1 0x64 PUSH2 0x8F2 JUMP JUMPDEST PUSH2 0x660 SWAP2 SWAP1 PUSH2 0x8CA JUMP JUMPDEST PUSH2 0x66A SWAP2 SWAP1 PUSH2 0x8CA JUMP JUMPDEST SWAP11 SWAP2 SWAP10 POP SWAP8 POP SWAP6 POP POP POP POP POP POP JUMP JUMPDEST PUSH1 0x0 PUSH1 0x20 DUP3 DUP5 SUB SLT ISZERO PUSH2 0x68B JUMPI PUSH1 0x0 DUP1 REVERT JUMPDEST POP CALLDATALOAD SWAP2 SWAP1 POP JUMP JUMPDEST PUSH1 0x0 JUMPDEST DUP4 DUP2 LT ISZERO PUSH2 0x6AD JUMPI DUP2 DUP2 ADD MLOAD DUP4 DUP3 ADD MSTORE PUSH1 0x20 ADD PUSH2 0x695 JUMP JUMPDEST POP POP PUSH1 0x0 SWAP2 ADD MSTORE JUMP JUMPDEST PUSH1 0x0 DUP2 MLOAD DUP1 DUP5 MSTORE PUSH2 0x6CE DUP2 PUSH1 0x20 DUP7 ADD PUSH1 0x20 DUP7 ADD PUSH2 0x692 JUMP JUMPDEST PUSH1 0x1F ADD PUSH1 0x1F NOT AND SWAP3 SWAP1 SWAP3 ADD PUSH1 0x20 ADD SWAP3 SWAP2 POP POP JUMP JUMPDEST DUP3 DUP2 MSTORE PUSH1 0x40 PUSH1 0x20 DUP3 ADD MSTORE PUSH1 0x0 PUSH2 0x48E PUSH1 0x40 DUP4 ADD DUP5 PUSH2 0x6B6 JUMP JUMPDEST PUSH1 0x20 DUP2 MSTORE PUSH1 0x0 PUSH2 0x70E PUSH1 0x20 DUP4 ADD DUP5 PUSH2 0x6B6 JUMP JUMPDEST SWAP4 SWAP3 POP POP POP JUMP JUMPDEST PUSH1 0x0 DUP7 MLOAD PUSH2 0x727 DUP2 DUP5 PUSH1 0x20 DUP12 ADD PUSH2 0x692 JUMP JUMPDEST DUP1 DUP4 ADD SWAP1 POP PUSH1 0x1 PUSH1 0xFD SHL DUP1 DUP3 MSTORE DUP8 MLOAD PUSH2 0x747 DUP2 PUSH1 0x1 DUP6 ADD PUSH1 0x20 DUP13 ADD PUSH2 0x692 JUMP JUMPDEST PUSH2 0x161 PUSH1 0xF5 SHL PUSH1 0x1 SWAP4 SWAP1 SWAP2 ADD SWAP3 DUP4 ADD MSTORE DUP7 MLOAD PUSH2 0x76A DUP2 PUSH1 0x3 DUP6 ADD PUSH1 0x20 DUP12 ADD PUSH2 0x692 JUMP JUMPDEST PUSH1 0x3 SWAP3 ADD SWAP2 DUP3 ADD MSTORE DUP5 MLOAD PUSH2 0x785 DUP2 PUSH1 0x4 DUP5 ADD PUSH1 0x20 DUP10 ADD PUSH2 0x692 JUMP JUMPDEST PUSH1 0x1 DUP2 DUP4 ADD ADD SWAP2 POP POP PUSH1 0x1D PUSH1 0xF9 SHL PUSH1 0x3 DUP3 ADD MSTORE DUP4 MLOAD PUSH2 0x7AB DUP2 PUSH1 0x4 DUP5 ADD PUSH1 0x20 DUP9 ADD PUSH2 0x692 JUMP JUMPDEST PUSH4 0x20555443 PUSH1 0xE0 SHL SWAP2 ADD PUSH1 0x4 DUP2 ADD SWAP2 SWAP1 SWAP2 MSTORE PUSH1 0x8 ADD SWAP8 SWAP7 POP POP POP POP POP POP POP JUMP JUMPDEST PUSH4 0x4E487B71 PUSH1 0xE0 SHL PUSH1 0x0 MSTORE PUSH1 0x12 PUSH1 0x4 MSTORE PUSH1 0x24 PUSH1 0x0 REVERT JUMPDEST PUSH4 0x4E487B71 PUSH1 0xE0 SHL PUSH1 0x0 MSTORE PUSH1 0x11 PUSH1 0x4 MSTORE PUSH1 0x24 PUSH1 0x0 REVERT JUMPDEST PUSH1 0x0 DUP3 PUSH2 0x806 JUMPI PUSH2 0x806 PUSH2 0x7CB JUMP JUMPDEST POP DIV SWAP1 JUMP JUMPDEST PUSH1 0x0 DUP3 PUSH2 0x81A JUMPI PUSH2 0x81A PUSH2 0x7CB JUMP JUMPDEST POP MOD SWAP1 JUMP JUMPDEST PUSH4 0x4E487B71 PUSH1 0xE0 SHL PUSH1 0x0 MSTORE PUSH1 0x41 PUSH1 0x4 MSTORE PUSH1 0x24 PUSH1 0x0 REVERT JUMPDEST DUP2 DUP2 SUB DUP2 DUP2 GT ISZERO PUSH2 0x4FF JUMPI PUSH2 0x4FF PUSH2 0x7E1 JUMP JUMPDEST DUP1 DUP3 MUL DUP2 ISZERO DUP3 DUP3 DIV DUP5 EQ OR PUSH2 0x4FF JUMPI PUSH2 0x4FF PUSH2 0x7E1 JUMP JUMPDEST PUSH4 0x4E487B71 PUSH1 0xE0 SHL PUSH1 0x0 MSTORE PUSH1 0x32 PUSH1 0x4 MSTORE PUSH1 0x24 PUSH1 0x0 REVERT JUMPDEST DUP1 DUP3 ADD DUP1 DUP3 GT ISZERO PUSH2 0x4FF JUMPI PUSH2 0x4FF PUSH2 0x7E1 JUMP JUMPDEST PUSH1 0x0 PUSH1 0x1 DUP3 ADD PUSH2 0x89A JUMPI PUSH2 0x89A PUSH2 0x7E1 JUMP JUMPDEST POP PUSH1 0x1 ADD SWAP1 JUMP JUMPDEST PUSH1 0x3 PUSH1 0xFC SHL DUP2 MSTORE PUSH1 0x0 DUP3 MLOAD PUSH2 0x8BD DUP2 PUSH1 0x1 DUP6 ADD PUSH1 0x20 DUP8 ADD PUSH2 0x692 JUMP JUMPDEST SWAP2 SWAP1 SWAP2 ADD PUSH1 0x1 ADD SWAP3 SWAP2 POP POP JUMP JUMPDEST DUP1 DUP3 ADD DUP3 DUP2 SLT PUSH1 0x0 DUP4 SLT DUP1 ISZERO DUP3 AND DUP3 ISZERO DUP3 AND OR ISZERO PUSH2 0x8EA JUMPI PUSH2 0x8EA PUSH2 0x7E1 JUMP JUMPDEST POP POP SWAP3 SWAP2 POP POP JUMP JUMPDEST DUP1 DUP3 MUL PUSH1 0x0 DUP3 SLT PUSH1 0x1 PUSH1 0xFF SHL DUP5 EQ AND ISZERO PUSH2 0x90E JUMPI PUSH2 0x90E PUSH2 0x7E1 JUMP JUMPDEST DUP2 DUP2 SDIV DUP4 EQ DUP3 ISZERO OR PUSH2 0x4FF JUMPI PUSH2 0x4FF PUSH2 0x7E1 JUMP JUMPDEST PUSH1 0x0 DUP3 PUSH2 0x931 JUMPI PUSH2 0x931 PUSH2 0x7CB JUMP JUMPDEST PUSH1 0x1 PUSH1 0xFF SHL DUP3 EQ PUSH1 0x0 NOT DUP5 EQ AND ISZERO PUSH2 0x94B JUMPI PUSH2 0x94B PUSH2 0x7E1 JUMP JUMPDEST POP SDIV SWAP1 JUMP JUMPDEST DUP2 DUP2 SUB PUSH1 0x0 DUP4 SLT DUP1 ISZERO DUP4 DUP4 SGT AND DUP4 DUP4 SLT DUP3 AND OR ISZERO PUSH2 0x970 JUMPI PUSH2 0x970 PUSH2 0x7E1 JUMP JUMPDEST POP SWAP3 SWAP2 POP POP JUMP INVALID 0x4A PUSH2 0x6E46 PUSH6 0x624D61724170 PUSH19 0x4D61794A756E4A756C4175675365704F63744E PUSH16 0x76446563A26469706673582212203752 0x22 SMOD SWAP12 RETURN DUP5 0xCB 0xB9 DUP3 PUSH3 0xD2537 0xD8 0xC4 0xCF 0xB9 CALLDATASIZE GT 0xDC BYTE 0xDB PUSH9 0x31FBBCE06497719964 PUSH20 0x6F6C634300081200330000000000000000000000 "
		},
		"gasEstimates": {
			"creation": {
				"codeDepositCost": "502600",
				"executionCost": "568",
				"totalCost": "503168"
			},
			"external": {
				"MONTHS()": "infinite",
				"asString(uint256)": "infinite",
				"yearAndMonth(uint256)": "infinite"
			},
			"internal": {
				"asPaddedString(uint256)": "infinite",
				"monthAsString(uint256)": "infinite"
			}
		},
		"methodIdentifiers": {
			"MONTHS()": "8fa626f2",
			"asString(uint256)": "b5d987e3",
			"yearAndMonth(uint256)": "5a97e730"
		}
	},
	"abi": [
		{
			"inputs": [],
			"name": "MONTHS",
			"outputs": [
				{
					"internalType": "bytes",
					"name": "",
					"type": "bytes"
				}
			],
			"stateMutability": "view",
			"type": "function"
		},
		{
			"inputs": [
				{
					"internalType": "uint256",
					"name": "ts",
					"type": "uint256"
				}
			],
			"name": "asString",
			"outputs": [
				{
					"internalType": "string",
					"name": "",
					"type": "string"
				}
			],
			"stateMutability": "pure",
			"type": "function"
		},
		{
			"inputs": [
				{
					"internalType": "uint256",
					"name": "ts",
					"type": "uint256"
				}
			],
			"name": "yearAndMonth",
			"outputs": [
				{
					"internalType": "uint256",
					"name": "",
					"type": "uint256"
				},
				{
					"internalType": "string",
					"name": "",
					"type": "string"
				}
			],
			"stateMutability": "pure",
			"type": "function"
		}
	]
}