{
	"data": {
		"bytecode": {
			"linkReferences": {
				"XENEVFTorrent/DateTime.sol": {
					"DateTime": [
						{
							"length": 20,
							"start": 4942
						},
						{
							"length": 20,
							"start": 5159
						},
						{
							"length": 20,
							"start": 6371
						}
					]
				},
				"XENEVFTorrent/MintInfo.sol": {
					"MintInfo": [
						{
							"length": 20,
							"start": 896
						},
						{
							"length": 20,
							"start": 1078
						},
						{
							"length": 20,
							"start": 1205
						},
						{
							"length": 20,
							"start": 1338
						},
						{
							"length": 20,
							"start": 1465
						},
						{
							"length": 20,
							"start": 1592
						},
						{
							"length": 20,
							"start": 1725
						},
						{
							"length": 20,
							"start": 2124
						},
						{
							"length": 20,
							"start": 2339
						}
					]
				},
				"XENEVFTorrent/StringData.sol": {
					"StringData": [
						{
							"length": 20,
							"start": 1853
						},
						{
							"length": 20,
							"start": 4726
						},
						{
							"length": 20,
							"start": 6580
						}
					]
				}
			},
			"object": "616375610053600b82828239805160001a607314610046577f4e487b7100000000000000000000000000000000000000000000000000000000600052600060045260246000fd5b30600052607381538281f3fe73000000000000000000000000000000000000000030146080604052600436106100d85760003560e01c806341b169f31161009657806373116a561161007057806373116a561461020f578063987a800d1461022d578063f12897a41461024b578063fb3398551461027b576100d8565b806341b169f3146101b55780634d8d5f4a146101d3578063660e3592146101f1576100d8565b806247a04e146100dd5780631b9345fd1461010d5780631e2bb8491461013d578063262ddfd31461015b57806327c48381146101795780632dbfa59514610197575b600080fd5b6100f760048036038101906100f29190612315565b610299565b60405161010491906123d2565b60405180910390f35b61012760048036038101906101229190612452565b6102ab565b6040516101349190612522565b60405180910390f35b61014561088f565b6040516101529190612553565b60405180910390f35b610163610894565b6040516101709190612553565b60405180910390f35b610181610899565b60405161018e9190612553565b60405180910390f35b61019f61089e565b6040516101ac9190612553565b60405180910390f35b6101bd6108a4565b6040516101ca9190612553565b60405180910390f35b6101db6108aa565b6040516101e89190612553565b60405180910390f35b6101f96108af565b6040516102069190612553565b60405180910390f35b6102176108b5565b6040516102249190612553565b60405180910390f35b6102356108bb565b6040516102429190612553565b60405180910390f35b6102656004803603810190610260919061256e565b6108c0565b6040516102729190612522565b60405180910390f35b6102836109b6565b6040516102909190612553565b60405180910390f35b60606102a4826109bb565b9050919050565b606060008373ffffffffffffffffffffffffffffffffffffffff166395d89b416040518163ffffffff1660e01b8152600401600060405180830381865afa1580156102fa573d6000803e3d6000fd5b505050506040513d6000823e3d601f19601f8201168201806040525081019061032391906126e7565b905060008060008773__$c475fe196203479957993d89688be614cf$__63512d62df90916040518263ffffffff1660e01b81526004016103639190612553565b606060405180830381865af4158015610380573d6000803e3d6000fd5b505050506040513d601f19601f820116820180604052508101906103a4919061277d565b92509250925060006040518061018001604052808681526020018973ffffffffffffffffffffffffffffffffffffffff1681526020018c81526020018a73__$c475fe196203479957993d89688be614cf$__63346ba94190916040518263ffffffff1660e01b81526004016104199190612553565b602060405180830381865af4158015610436573d6000803e3d6000fd5b505050506040513d601f19601f8201168201806040525081019061045a91906127d0565b81526020018a73__$c475fe196203479957993d89688be614cf$__63a5099bae90916040518263ffffffff1660e01b81526004016104989190612553565b602060405180830381865af41580156104b5573d6000803e3d6000fd5b505050506040513d601f19601f820116820180604052508101906104d991906127d0565b81526020018b81526020018a73__$c475fe196203479957993d89688be614cf$__6324bf728e90916040518263ffffffff1660e01b815260040161051d9190612553565b602060405180830381865af415801561053a573d6000803e3d6000fd5b505050506040513d601f19601f8201168201806040525081019061055e91906127d0565b81526020018a73__$c475fe196203479957993d89688be614cf$__631537004690916040518263ffffffff1660e01b815260040161059c9190612553565b602060405180830381865af41580156105b9573d6000803e3d6000fd5b505050506040513d601f19601f820116820180604052508101906105dd91906127d0565b81526020018a73__$c475fe196203479957993d89688be614cf$__63243eb2c490916040518263ffffffff1660e01b815260040161061b9190612553565b602060405180830381865af4158015610638573d6000803e3d6000fd5b505050506040513d601f19601f8201168201806040525081019061065c91906127d0565b81526020018881526020018a73__$c475fe196203479957993d89688be614cf$__63e90cdc8990916040518263ffffffff1660e01b81526004016106a09190612553565b602060405180830381865af41580156106bd573d6000803e3d6000fd5b505050506040513d601f19601f820116820180604052508101906106e191906127fd565b1515815260200173__$9d957816c13a8198d1df2a696969ac547f$__63b0eca69b6040518060c00160405280608c8152602001616220608c9139886040518363ffffffff1660e01b815260040161073992919061282a565b600060405180830381865af4158015610756573d6000803e3d6000fd5b505050506040513d6000823e3d601f19601f8201168201806040525081019061077f91906126e7565b81525090506000600c8a6040516020016107999190612869565b6040516020818303038152906040528051906020012060001c6107bc91906128b3565b905083806107c75750825b156107ee576107e1826107d986610be7565b838787610d9e565b9650505050505050610886565b61087d826108758d8d73__$c475fe196203479957993d89688be614cf$__63346ba94190916040518263ffffffff1660e01b815260040161082f9190612553565b602060405180830381865af415801561084c573d6000803e3d6000fd5b505050506040513d601f19601f8201168201806040525081019061087091906127d0565b610f5f565b838787610d9e565b96505050505050505b95945050505050565b606481565b600181565b602681565b61016881565b611d4c81565b602d81565b61cd1481565b61012c81565b603281565b606060008060008060008060008073__$c475fe196203479957993d89688be614cf$__6388f882e88b6040518263ffffffff1660e01b81526004016109059190612553565b61012060405180830381865af4158015610923573d6000803e3d6000fd5b505050506040513d601f19601f8201168201806040525081019061094791906128e4565b50975097509750975097509750975097506109638c878561121f565b61096e86868a6112f4565b610979898b8f6113cf565b610983858561149f565b6040516020016109969493929190612a8d565b604051602081830303815290604052985050505050505050509392505050565b604b81565b606060008203610a02576040518060400160405280600181526020017f30000000000000000000000000000000000000000000000000000000000000008152509050610be2565b600082905060005b60008214610a34578080610a1d90612b10565b915050600a82610a2d9190612b58565b9150610a0a565b600080600383610a449190612b58565b90506000600384610a5591906128b3565b14610a605780610a6e565b600181610a6d9190612b89565b5b83610a799190612bbd565b925060008367ffffffffffffffff811115610a9757610a966125cb565b5b6040519080825280601f01601f191660200182016040528015610ac95781602001600182028036833780820191505090505b5090505b60008714610bd957600184610ae29190612b89565b935060038303610b58577f2c00000000000000000000000000000000000000000000000000000000000000818581518110610b2057610b1f612bf1565b5b60200101907effffffffffffffffffffffffffffffffffffffffffffffffffffffffffffff1916908160001a90535060009250610bd4565b600a87610b6591906128b3565b6030610b719190612bbd565b60f81b818581518110610b8757610b86612bf1565b5b60200101907effffffffffffffffffffffffffffffffffffffffffffffffffffffffffffff1916908160001a905350600a87610bc39190612b58565b96508280610bd090612b10565b9350505b610acd565b80955050505050505b919050565b6060600082610bfd57610bf8611582565b610c06565b610c056115ae565b5b90506000600367ffffffffffffffff811115610c2557610c246125cb565b5b604051908082528060200260200182016040528015610c5e57816020015b610c4b61220e565b815260200190600190039081610c435790505b50905060005b8151811015610cfd576040518060a00160405280848360038110610c8b57610c8a612bf1565b5b60200201518152602001604b8152602001602d815260200160018152602001610cb26115da565b8360038110610cc457610cc3612bf1565b5b6020020151815250828281518110610cdf57610cde612bf1565b5b60200260200101819052508080610cf590612b10565b915050610c64565b50600167ffffffffffffffff811115610d1957610d186125cb565b5b604051908082528060200260200182016040528015610d5257816020015b610d3f61223d565b815260200190600190039081610d375790505b509250604051806060016040528082815260200160008152602001610d75611605565b81525083600081518110610d8c57610d8b612bf1565b5b60200260200101819052505050919050565b6060600082610def5783610dcd5760405180610160016040528061012b8152602001614c2f61012b9139610dea565b60405180610180016040528061014781526020016160d961014791395b610e0c565b60405180610ea00160405280610e808152602001615145610e8091395b90506000610e3487600081518110610e2757610e26612bf1565b5b6020026020010151611637565b6040518061014001604052806101148152602001615fc56101149139610e5a8951611673565b60405180610100016040528060d3815260200161507260d3913985604051602001610e89959493929190612c51565b60405160208183030381529060405290506000610eae89600001518a60200151611705565b610ed28a604001518b60a001518c61010001518d61016001518e610120015161174f565b610ef38b60c001518c60e001518d606001518e608001518f60a00151611849565b610efc8a61195d565b610f0a8d6101400151611a1f565b604051602001610f1e959493929190612c9c565b60405160208183030381529060405290508181604051602001610f42929190612df1565b604051602081830303815290604052935050505095945050505050565b60606000600267ffffffffffffffff811115610f7e57610f7d6125cb565b5b604051908082528060200260200182016040528015610fb757816020015b610fa461220e565b815260200190600190039081610f9c5790505b509050600061cd148585610fcb9190612e2b565b116110075761cd1461012c8686610fe29190612e2b565b610fec9190612e2b565b610ff69190612b58565b60016110029190612bbd565b61100b565b6101685b90506000611017611a63565b60076110238888611ab4565b11611037576110328787611ab4565b61103a565b60075b6008811061104b5761104a612bf1565b5b602002015190506040518060a001604052808281526020016101688314611073576064611076565b60005b8152602001610168831461108b57603261108e565b60005b8152602001600181526020016110a26115da565b6000600381106110b5576110b4612bf1565b5b6020020151815250836000815181106110d1576110d0612bf1565b5b60200260200101819052506040518060a0016040528083815260200161016884146110fd57604b611100565b60005b81526020016101688414611115576026611118565b60005b81526020016001815260200161112c6115da565b60026003811061113f5761113e612bf1565b5b60200201518152508360018151811061115b5761115a612bf1565b5b6020026020010181905250600167ffffffffffffffff811115611181576111806125cb565b5b6040519080825280602002602001820160405280156111ba57816020015b6111a761223d565b81526020019060019003908161119f5790505b50935060405180606001604052808481526020016000815260200161016883146111eb576111e6611ad7565b6111f4565b6111f3611b09565b5b8152508460008151811061120b5761120a612bf1565b5b602002602001018190525050505092915050565b606073__$9d957816c13a8198d1df2a696969ac547f$__63b0eca69b6040518060c00160405280608c8152602001616220608c9139846040518363ffffffff1660e01b815260040161127292919061282a565b600060405180830381865af415801561128f573d6000803e3d6000fd5b505050506040513d6000823e3d601f19601f820116820180604052508101906112b891906126e7565b6112c185611b3b565b6112ca85611b3b565b6040516020016112dc93929190612fe9565b60405160208183030381529060405290509392505050565b606060008073__$da7e4a0f40cbc7174271dc106e9db97781$__635a97e730856040518263ffffffff1660e01b81526004016113309190612553565b600060405180830381865af415801561134d573d6000803e3d6000fd5b505050506040513d6000823e3d601f19601f820116820180604052508101906113769190613046565b9150915061138386611b3b565b611398600a876113939190612b58565b611b3b565b6113a184611b3b565b836040516020016113b59493929190613244565b604051602081830303815290604052925050509392505050565b60608373__$da7e4a0f40cbc7174271dc106e9db97781$__63b5d987e390916040518263ffffffff1660e01b815260040161140a9190612553565b600060405180830381865af4158015611427573d6000803e3d6000fd5b505050506040513d6000823e3d601f19601f8201168201806040525081019061145091906126e7565b61145984611b3b565b611475670de0b6b3a7640000856114709190612b58565b611b3b565b6040516020016114879392919061340f565b60405160208183030381529060405290509392505050565b606060006040518060400160405280600981526020017f436f6c6c6563746f7200000000000000000000000000000000000000000000008152509050821561151a576040518060400160405280600781526020017f4c696d697465640000000000000000000000000000000000000000000000000081525090505b8315611559576040518060400160405280600481526020017f417065780000000000000000000000000000000000000000000000000000000081525090505b8060405160200161156a919061352a565b60405160208183030381529060405291505092915050565b61158a612264565b6040518060600160405280610107815260200160008152602001602a815250905090565b6115b6612264565b604051806060016040528060a9815260200160d28152602001610131815250905090565b6115e2612264565b6040518060600160405280600a815260200160328152602001605a815250905090565b61160d612286565b60405180608001604052806064815260200160648152602001600081526020016000815250905090565b606061164d826000015160008460400151611c9b565b60405160200161165d91906135ef565b6040516020818303038152906040529050919050565b6060600060405180602001604052806000815250905060005b838110156116d3578161169e82611d7c565b6040516020016116af92919061361c565b604051602081830303815290604052915080806116cb90612b10565b91505061168c565b50806116dd611dad565b6040516020016116ee9291906136d8565b604051602081830303815290604052915050919050565b6060826117278373ffffffffffffffffffffffffffffffffffffffff16611dcd565b604051602001611738929190613842565b604051602081830303815290604052905092915050565b6060600080831161176f57604051806020016040528060008152506117ab565b61178b670de0b6b3a7640000846117869190612b58565b6109bb565b60405160200161179b91906138ad565b6040516020818303038152906040525b6117b488611b3b565b856040516020016117c793929190613b33565b604051602081830303815290604052905060006117e387611b3b565b6117f8600a886117f39190612b58565b611b3b565b604051602001611809929190613d0c565b6040516020818303038152906040529050818160405160200161182d929190613d51565b6040516020818303038152906040529250505095945050505050565b6060600061185686611b3b565b61185f86611b3b565b604051602001611870929190613ea5565b6040516020818303038152906040529050600061188d8585611dfa565b8873__$da7e4a0f40cbc7174271dc106e9db97781$__63b5d987e390916040518263ffffffff1660e01b81526004016118c69190612553565b600060405180830381865af41580156118e3573d6000803e3d6000fd5b505050506040513d6000823e3d601f19601f8201168201806040525081019061190c91906126e7565b60405160200161191d92919061400f565b60405160208183030381529060405290508181604051602001611941929190613d51565b6040516020818303038152906040529250505095945050505050565b606073__$9d957816c13a8198d1df2a696969ac547f$__63831b46a16040518061034001604052806103188152602001614d5a6103189139846040518363ffffffff1660e01b81526004016119b392919061282a565b600060405180830381865af41580156119d0573d6000803e3d6000fd5b505050506040513d6000823e3d601f19601f820116820180604052508101906119f991906126e7565b604051602001611a0991906140ec565b6040516020818303038152906040529050919050565b606081611a3d57604051806020016040528060008152509050611a5e565b604051602001611a4c9061432d565b60405160208183030381529060405290505b919050565b611a6b6122a8565b604051806101000160405280610168815260200160018152602001601e8152602001603c81526020016078815260200160b4815260200160f0815260200161012c815250905090565b6000611d4c8284611ac59190612e2b565b611acf9190612b58565b905092915050565b611adf612286565b60405180608001604052806096815260200160968152602001601481526020016014815250905090565b611b11612286565b60405180608001604052806064815260200160648152602001601481526020016014815250905090565b606060008203611b82576040518060400160405280600181526020017f30000000000000000000000000000000000000000000000000000000000000008152509050611c96565b600082905060005b60008214611bb4578080611b9d90612b10565b915050600a82611bad9190612b58565b9150611b8a565b60008167ffffffffffffffff811115611bd057611bcf6125cb565b5b6040519080825280601f01601f191660200182016040528015611c025781602001600182028036833780820191505090505b5090505b60008514611c8f57600182611c1b9190612b89565b9150600a85611c2a91906128b3565b6030611c369190612bbd565b60f81b818381518110611c4c57611c4b612bf1565b5b60200101907effffffffffffffffffffffffffffffffffffffffffffffffffffffffffffff1916908160001a905350600a85611c889190612b58565b9450611c06565b8093505050505b919050565b6060600060405180602001604052806000815250905060005b8551811015611d3d576000868281518110611cd257611cd1612bf1565b5b60200260200101516000015114611d2a5781611d07878381518110611cfa57611cf9612bf1565b5b6020026020010151611e85565b604051602001611d1892919061361c565b60405160208183030381529060405291505b8080611d3590612b10565b915050611cb4565b50611d4783611ed2565b611d5085611b3b565b82604051602001611d639392919061447d565b6040516020818303038152906040529150509392505050565b6060611d8782611b3b565b604051602001611d9791906145be565b6040516020818303038152906040529050919050565b60606040518060c00160405280609481526020016162ac60949139905090565b6060611df38273ffffffffffffffffffffffffffffffffffffffff16601460ff16611f81565b9050919050565b606060018203611e3357611e0d83611b3b565b604051602001611e1d91906145eb565b6040516020818303038152906040529050611e7f565b611e3c83611b3b565b611e5c60018486611e4d9190612bbd565b611e579190612b89565b611b3b565b604051602001611e6d92919061464e565b60405160208183030381529060405290505b92915050565b6060611e90826121bd565b611e9d8360600151611b3b565b611eaa8460800151611b3b565b604051602001611ebc939291906147ad565b6040516020818303038152906040529050919050565b6060611ef582600060048110611eeb57611eea612bf1565b5b6020020151611b3b565b611f1683600160048110611f0c57611f0b612bf1565b5b6020020151611b3b565b611f3784600260048110611f2d57611f2c612bf1565b5b6020020151611b3b565b611f5885600360048110611f4e57611f4d612bf1565b5b6020020151611b3b565b604051602001611f6b9493929190614986565b6040516020818303038152906040529050919050565b606060006002836002611f949190612e2b565b611f9e9190612bbd565b67ffffffffffffffff811115611fb757611fb66125cb565b5b6040519080825280601f01601f191660200182016040528015611fe95781602001600182028036833780820191505090505b5090507f30000000000000000000000000000000000000000000000000000000000000008160008151811061202157612020612bf1565b5b60200101907effffffffffffffffffffffffffffffffffffffffffffffffffffffffffffff1916908160001a9053507f78000000000000000000000000000000000000000000000000000000000000008160018151811061208557612084612bf1565b5b60200101907effffffffffffffffffffffffffffffffffffffffffffffffffffffffffffff1916908160001a905350600060018460026120c59190612e2b565b6120cf9190612bbd565b90505b600181111561216f577f3031323334353637383961626364656600000000000000000000000000000000600f86166010811061211157612110612bf1565b5b1a60f81b82828151811061212857612127612bf1565b5b60200101907effffffffffffffffffffffffffffffffffffffffffffffffffffffffffffff1916908160001a905350600485901c945080612168906149fb565b90506120d2565b50600084146121b3576040517f08c379a00000000000000000000000000000000000000000000000000000000081526004016121aa90614a81565b60405180910390fd5b8091505092915050565b60606121cc8260000151611b3b565b6121d98360200151611b3b565b6121e68460400151611b3b565b6040516020016121f893929190614bd1565b6040516020818303038152906040529050919050565b6040518060a0016040528060008152602001600081526020016000815260200160008152602001600081525090565b6040518060600160405280606081526020016000815260200161225e612286565b81525090565b6040518060600160405280600390602082028036833780820191505090505090565b6040518060800160405280600490602082028036833780820191505090505090565b604051806101000160405280600890602082028036833780820191505090505090565b6000604051905090565b600080fd5b600080fd5b6000819050919050565b6122f2816122df565b81146122fd57600080fd5b50565b60008135905061230f816122e9565b92915050565b60006020828403121561232b5761232a6122d5565b5b600061233984828501612300565b91505092915050565b600081519050919050565b600082825260208201905092915050565b60005b8381101561237c578082015181840152602081019050612361565b60008484015250505050565b6000601f19601f8301169050919050565b60006123a482612342565b6123ae818561234d565b93506123be81856020860161235e565b6123c781612388565b840191505092915050565b600060208201905081810360008301526123ec8184612399565b905092915050565b600073ffffffffffffffffffffffffffffffffffffffff82169050919050565b600061241f826123f4565b9050919050565b61242f81612414565b811461243a57600080fd5b50565b60008135905061244c81612426565b92915050565b600080600080600060a0868803121561246e5761246d6122d5565b5b600061247c88828901612300565b955050602061248d88828901612300565b945050604061249e88828901612300565b93505060606124af8882890161243d565b92505060806124c088828901612300565b9150509295509295909350565b600081519050919050565b600082825260208201905092915050565b60006124f4826124cd565b6124fe81856124d8565b935061250e81856020860161235e565b61251781612388565b840191505092915050565b6000602082019050818103600083015261253c81846124e9565b905092915050565b61254d816122df565b82525050565b60006020820190506125686000830184612544565b92915050565b600080600060608486031215612587576125866122d5565b5b600061259586828701612300565b93505060206125a686828701612300565b92505060406125b786828701612300565b9150509250925092565b600080fd5b600080fd5b7f4e487b7100000000000000000000000000000000000000000000000000000000600052604160045260246000fd5b61260382612388565b810181811067ffffffffffffffff82111715612622576126216125cb565b5b80604052505050565b60006126356122cb565b905061264182826125fa565b919050565b600067ffffffffffffffff821115612661576126606125cb565b5b61266a82612388565b9050602081019050919050565b600061268a61268584612646565b61262b565b9050828152602081018484840111156126a6576126a56125c6565b5b6126b184828561235e565b509392505050565b600082601f8301126126ce576126cd6125c1565b5b81516126de848260208601612677565b91505092915050565b6000602082840312156126fd576126fc6122d5565b5b600082015167ffffffffffffffff81111561271b5761271a6122da565b5b612727848285016126b9565b91505092915050565b60008151905061273f816122e9565b92915050565b60008115159050919050565b61275a81612745565b811461276557600080fd5b50565b60008151905061277781612751565b92915050565b600080600060608486031215612796576127956122d5565b5b60006127a486828701612730565b93505060206127b586828701612768565b92505060406127c686828701612768565b9150509250925092565b6000602082840312156127e6576127e56122d5565b5b60006127f484828501612730565b91505092915050565b600060208284031215612813576128126122d5565b5b600061282184828501612768565b91505092915050565b6000604082019050818103600083015261284481856124e9565b90506128536020830184612544565b9392505050565b612863816122df565b82525050565b600060208201905061287e600083018461285a565b92915050565b7f4e487b7100000000000000000000000000000000000000000000000000000000600052601260045260246000fd5b60006128be826122df565b91506128c9836122df565b9250826128d9576128d8612884565b5b828206905092915050565b60008060008060008060008060006101208a8c031215612907576129066122d5565b5b60006129158c828d01612730565b99505060206129268c828d01612730565b98505060406129378c828d01612730565b97505060606129488c828d01612730565b96505060806129598c828d01612730565b95505060a061296a8c828d01612730565b94505060c061297b8c828d01612768565b93505060e061298c8c828d01612768565b92505061010061299e8c828d01612768565b9150509295985092959850929598565b600081905092915050565b7f5b00000000000000000000000000000000000000000000000000000000000000600082015250565b60006129ef6001836129ae565b91506129fa826129b9565b600182019050919050565b600081905092915050565b6000612a1b826124cd565b612a258185612a05565b9350612a3581856020860161235e565b80840191505092915050565b7f5d00000000000000000000000000000000000000000000000000000000000000600082015250565b6000612a776001836129ae565b9150612a8282612a41565b600182019050919050565b6000612a98826129e2565b9150612aa48287612a10565b9150612ab08286612a10565b9150612abc8285612a10565b9150612ac88284612a10565b9150612ad382612a6a565b915081905095945050505050565b7f4e487b7100000000000000000000000000000000000000000000000000000000600052601160045260246000fd5b6000612b1b826122df565b91507fffffffffffffffffffffffffffffffffffffffffffffffffffffffffffffffff8203612b4d57612b4c612ae1565b5b600182019050919050565b6000612b63826122df565b9150612b6e836122df565b925082612b7e57612b7d612884565b5b828204905092915050565b6000612b94826122df565b9150612b9f836122df565b9250828203905081811115612bb757612bb6612ae1565b5b92915050565b6000612bc8826122df565b9150612bd3836122df565b9250828201905080821115612beb57612bea612ae1565b5b92915050565b7f4e487b7100000000000000000000000000000000000000000000000000000000600052603260045260246000fd5b6000612c2b82612342565b612c3581856129ae565b9350612c4581856020860161235e565b80840191505092915050565b6000612c5d8288612a10565b9150612c698287612c20565b9150612c758286612a10565b9150612c818285612c20565b9150612c8d8284612c20565b91508190509695505050505050565b6000612ca88288612a10565b9150612cb48287612a10565b9150612cc08286612a10565b9150612ccc8285612a10565b9150612cd88284612a10565b91508190509695505050505050565b7f3c73766720786d6c6e733d22687474703a2f2f7777772e77332e6f72672f323060008201527f30302f73766722207072657365727665417370656374526174696f3d22784d6960208201527f6e594d696e206d656574222076696577426f783d22302030203335302035363660408201527f223e000000000000000000000000000000000000000000000000000000000000606082015250565b6000612d8f6062836129ae565b9150612d9a82612ce7565b606282019050919050565b7f3c2f7376673e0000000000000000000000000000000000000000000000000000600082015250565b6000612ddb6006836129ae565b9150612de682612da5565b600682019050919050565b6000612dfc82612d82565b9150612e088285612a10565b9150612e148284612a10565b9150612e1f82612dce565b91508190509392505050565b6000612e36826122df565b9150612e41836122df565b9250828202612e4f816122df565b91508282048414831517612e6657612e65612ae1565b5b5092915050565b7f7b2274726169745f74797065223a22436c617373222c2276616c7565223a2200600082015250565b6000612ea3601f836129ae565b9150612eae82612e6d565b601f82019050919050565b7f227d2c7b2274726169745f74797065223a22564d5573222c2276616c7565223a60008201527f2200000000000000000000000000000000000000000000000000000000000000602082015250565b6000612f156021836129ae565b9150612f2082612eb9565b602182019050919050565b7f227d2c7b2274726169745f74797065223a226352616e6b222c2276616c75652260008201527f3a22000000000000000000000000000000000000000000000000000000000000602082015250565b6000612f876022836129ae565b9150612f9282612f2b565b602282019050919050565b7f227d2c0000000000000000000000000000000000000000000000000000000000600082015250565b6000612fd36003836129ae565b9150612fde82612f9d565b600382019050919050565b6000612ff482612e96565b91506130008286612c20565b915061300b82612f08565b91506130178285612c20565b915061302282612f7a565b915061302e8284612c20565b915061303982612fc6565b9150819050949350505050565b6000806040838503121561305d5761305c6122d5565b5b600061306b85828601612730565b925050602083015167ffffffffffffffff81111561308c5761308b6122da565b5b613098858286016126b9565b9150509250929050565b7f7b2274726169745f74797065223a22414d50222c2276616c7565223a22000000600082015250565b60006130d8601d836129ae565b91506130e3826130a2565b601d82019050919050565b7f227d2c7b2274726169745f74797065223a2245414120282529222c2276616c7560008201527f65223a2200000000000000000000000000000000000000000000000000000000602082015250565b600061314a6024836129ae565b9150613155826130ee565b602482019050919050565b7f227d2c7b2274726169745f74797065223a224d6174757269747920596561722260008201527f2c2276616c7565223a2200000000000000000000000000000000000000000000602082015250565b60006131bc602a836129ae565b91506131c782613160565b602a82019050919050565b7f227d2c7b2274726169745f74797065223a224d61747572697479204d6f6e746860008201527f222c2276616c7565223a22000000000000000000000000000000000000000000602082015250565b600061322e602b836129ae565b9150613239826131d2565b602b82019050919050565b600061324f826130cb565b915061325b8287612c20565b91506132668261313d565b91506132728286612c20565b915061327d826131af565b91506132898285612c20565b915061329482613221565b91506132a08284612c20565b91506132ab82612fc6565b915081905095945050505050565b7f7b2274726169745f74797065223a224d61747572697479204461746554696d6560008201527f222c2276616c7565223a22000000000000000000000000000000000000000000602082015250565b6000613315602b836129ae565b9150613320826132b9565b602b82019050919050565b7f227d2c7b2274726169745f74797065223a225465726d222c2276616c7565223a60008201527f2200000000000000000000000000000000000000000000000000000000000000602082015250565b60006133876021836129ae565b91506133928261332b565b602182019050919050565b7f227d2c7b2274726169745f74797065223a2258454e204275726e6564222c227660008201527f616c7565223a2200000000000000000000000000000000000000000000000000602082015250565b60006133f96027836129ae565b91506134048261339d565b602782019050919050565b600061341a82613308565b91506134268286612c20565b91506134318261337a565b915061343d8285612c20565b9150613448826133ec565b91506134548284612c20565b915061345f82612fc6565b9150819050949350505050565b7f7b2274726169745f74797065223a2243617465676f7279222c2276616c75652260008201527f3a22000000000000000000000000000000000000000000000000000000000000602082015250565b60006134c86022836129ae565b91506134d38261346c565b602282019050919050565b7f227d000000000000000000000000000000000000000000000000000000000000600082015250565b60006135146002836129ae565b915061351f826134de565b600282019050919050565b6000613535826134bb565b91506135418284612c20565b915061354c82613507565b915081905092915050565b7f3c646566733e0000000000000000000000000000000000000000000000000000600082015250565b600061358d6006836129ae565b915061359882613557565b600682019050919050565b7f3c2f646566733e00000000000000000000000000000000000000000000000000600082015250565b60006135d96007836129ae565b91506135e4826135a3565b600782019050919050565b60006135fa82613580565b91506136068284612a10565b9150613611826135cc565b915081905092915050565b60006136288285612c20565b91506136348284612c20565b91508190509392505050565b7f3c673e0000000000000000000000000000000000000000000000000000000000600082015250565b60006136766003836129ae565b915061368182613640565b600382019050919050565b7f3c2f673e00000000000000000000000000000000000000000000000000000000600082015250565b60006136c26004836129ae565b91506136cd8261368c565b600482019050919050565b60006136e382613669565b91506136ef8285612c20565b91506136fb8284612c20565b9150613706826136b5565b91508190509392505050565b7f3c7465787420783d223530252220793d2235252220636c6173733d226261736560008201527f20736d616c6c2220646f6d696e616e742d626173656c696e653d226d6964646c60208201527f652220746578742d616e63686f723d226d6964646c65223e0000000000000000604082015250565b60006137946058836129ae565b915061379f82613712565b605882019050919050565b7fe383bb0000000000000000000000000000000000000000000000000000000000600082015250565b60006137e06003836129ae565b91506137eb826137aa565b600382019050919050565b7f3c2f746578743e00000000000000000000000000000000000000000000000000600082015250565b600061382c6007836129ae565b9150613837826137f6565b600782019050919050565b600061384d82613787565b91506138598285612c20565b9150613864826137d3565b91506138708284612c20565b915061387b8261381f565b91508190509392505050565b7f2058000000000000000000000000000000000000000000000000000000000000815250565b60006138b98284612c20565b91506138c482613887565b60028201915081905092915050565b7f3c7465787420783d223530252220793d223530252220636c6173733d2262617360008201527f65202220646f6d696e616e742d626173656c696e653d226d6964646c6522207460208201527f6578742d616e63686f723d226d6964646c65223e58454e2043525950544f3c2f60408201527f746578743e3c7465787420783d223530252220793d223536252220636c61737360608201527f3d2262617365206275726e2220746578742d616e63686f723d226d6964646c6560808201527f2220646f6d696e616e742d626173656c696e653d226d6964646c65223e20000060a082015250565b60006139c760be836129ae565b91506139d2826138d3565b60be82019050919050565b7f3c2f746578743e3c7465787420783d223138252220793d223632252220636c6160008201527f73733d2262617365206d6574612220646f6d696e616e742d626173656c696e6560208201527f3d226d6964646c65223e20230000000000000000000000000000000000000000604082015250565b6000613a5f604c836129ae565b9150613a6a826139dd565b604c82019050919050565b7f3c2f746578743e3c7465787420783d223832252220793d223632252220636c6160008201527f73733d2262617365206d657461207365726965732220646f6d696e616e742d6260208201527f6173656c696e653d226d6964646c652220746578742d616e63686f723d22656e60408201527f6422203e00000000000000000000000000000000000000000000000000000000606082015250565b6000613b1d6064836129ae565b9150613b2882613a75565b606482019050919050565b6000613b3e826139ba565b9150613b4a8286612c20565b9150613b5582613a52565b9150613b618285612c20565b9150613b6c82613b10565b9150613b788284612c20565b9150613b838261381f565b9150819050949350505050565b7f3c7465787420783d223138252220793d223638252220636c6173733d2262617360008201527f65206d6574612220646f6d696e616e742d626173656c696e653d226d6964646c60208201527f6522203e564d553a200000000000000000000000000000000000000000000000604082015250565b6000613c126049836129ae565b9150613c1d82613b90565b604982019050919050565b7f3c2f746578743e3c7465787420783d223138252220793d223732252220636c6160008201527f73733d2262617365206d6574612220646f6d696e616e742d626173656c696e6560208201527f3d226d6964646c6522203e4541413a2000000000000000000000000000000000604082015250565b6000613caa6050836129ae565b9150613cb582613c28565b605082019050919050565b7f253c2f746578743e000000000000000000000000000000000000000000000000600082015250565b6000613cf66008836129ae565b9150613d0182613cc0565b600882019050919050565b6000613d1782613c05565b9150613d238285612c20565b9150613d2e82613c9d565b9150613d3a8284612c20565b9150613d4582613ce9565b91508190509392505050565b6000613d5d8285612a10565b9150613d698284612a10565b91508190509392505050565b7f3c7465787420783d223138252220793d223736252220636c6173733d2262617360008201527f65206d6574612220646f6d696e616e742d626173656c696e653d226d6964646c60208201527f6522203e414d503a200000000000000000000000000000000000000000000000604082015250565b6000613df76049836129ae565b9150613e0282613d75565b604982019050919050565b7f3c2f746578743e3c7465787420783d223138252220793d223830252220636c6160008201527f73733d2262617365206d6574612220646f6d696e616e742d626173656c696e6560208201527f3d226d6964646c6522203e5465726d3a20000000000000000000000000000000604082015250565b6000613e8f6051836129ae565b9150613e9a82613e0d565b605182019050919050565b6000613eb082613dea565b9150613ebc8285612c20565b9150613ec782613e82565b9150613ed38284612c20565b91508190509392505050565b7f20646179733c2f746578743e3c7465787420783d223138252220793d2238342560008201527f2220636c6173733d2262617365206d6574612220646f6d696e616e742d62617360208201527f656c696e653d226d6964646c6522203e6352616e6b3a20000000000000000000604082015250565b6000613f616057836129ae565b9150613f6c82613edf565b605782019050919050565b7f3c2f746578743e3c7465787420783d223138252220793d223838252220636c6160008201527f73733d2262617365206d6574612220646f6d696e616e742d626173656c696e6560208201527f3d226d6964646c6522203e4d617475726974793a200000000000000000000000604082015250565b6000613ff96055836129ae565b915061400482613f77565b605582019050919050565b600061401a82613f54565b91506140268285612a10565b915061403182613fec565b915061403d8284612c20565b91506140488261381f565b91508190509392505050565b7f3c7465787420783d223530252220793d223935252220636c6173733d2262617360008201527f6520736d616c6c2220646f6d696e616e742d626173656c696e653d226d69646460208201527f6c652220746578742d616e63686f723d226d6964646c6522203e000000000000604082015250565b60006140d6605a836129ae565b91506140e182614054565b605a82019050919050565b60006140f7826140c9565b91506141038284612c20565b915061410e8261381f565b915081905092915050565b7f3c7265637420783d223530252220793d2237372e3525222077696474683d223160008201527f303022206865696768743d22343022207374726f6b653d22626c61636b22207360208201527f74726f6b652d77696474683d2231222066696c6c3d226e6f6e65222072783d2260408201527f357078222072793d2235707822207472616e73666f726d3d227472616e736c6160608201527f7465282d35302c2d32302920726f74617465282d32302c302c3430302922202f60808201527f3e0000000000000000000000000000000000000000000000000000000000000060a082015250565b600061420d60a1836129ae565b915061421882614119565b60a182019050919050565b7f3c7465787420783d223530252220793d2237372e352522207374726f6b653d2260008201527f626c61636b2220636c6173733d2262617365206d6574612220646f6d696e616e60208201527f742d626173656c696e653d226d6964646c652220746578742d616e63686f723d60408201527f226d6964646c6522207472616e73666f726d3d227472616e736c61746528302c60608201527f302920726f74617465282d32302c2d34352c3338302922203e52656465656d6560808201527f643c2f746578743e00000000000000000000000000000000000000000000000060a082015250565b600061431760a8836129ae565b915061432282614223565b60a882019050919050565b600061433882614200565b91506143438261430a565b9150819050919050565b7f3c6c696e6561724772616469656e742020000000000000000000000000000000600082015250565b60006143836011836129ae565b915061438e8261434d565b601182019050919050565b7f69643d2267000000000000000000000000000000000000000000000000000000600082015250565b60006143cf6005836129ae565b91506143da82614399565b600582019050919050565b7f223e000000000000000000000000000000000000000000000000000000000000600082015250565b600061441b6002836129ae565b9150614426826143e5565b600282019050919050565b7f3c2f6c696e6561724772616469656e743e000000000000000000000000000000600082015250565b60006144676011836129ae565b915061447282614431565b601182019050919050565b600061448882614376565b91506144948286612a10565b915061449f826143c2565b91506144ab8285612c20565b91506144b68261440e565b91506144c28284612c20565b91506144cd8261445a565b9150819050949350505050565b7f3c726563742077696474683d223130302522206865696768743d22313030252260008201527f2066696c6c3d2275726c28236700000000000000000000000000000000000000602082015250565b6000614536602d836129ae565b9150614541826144da565b602d82019050919050565b7f29222072783d2231307078222072793d223130707822207374726f6b652d6c6960008201527f6e656a6f696e3d22726f756e6422202f3e000000000000000000000000000000602082015250565b60006145a86031836129ae565b91506145b38261454c565b603182019050919050565b60006145c982614529565b91506145d58284612c20565b91506145e08261459b565b915081905092915050565b60006145f78284612c20565b915081905092915050565b7f2e2e000000000000000000000000000000000000000000000000000000000000600082015250565b60006146386002836129ae565b915061464382614602565b600282019050919050565b600061465a8285612c20565b91506146658261462b565b91506146718284612c20565b91508190509392505050565b7f3c73746f702073746f702d636f6c6f723d220000000000000000000000000000600082015250565b60006146b36012836129ae565b91506146be8261467d565b601282019050919050565b7f222073746f702d6f7061636974793d2200000000000000000000000000000000600082015250565b60006146ff6010836129ae565b915061470a826146c9565b601082019050919050565b7f22206f66667365743d2200000000000000000000000000000000000000000000600082015250565b600061474b600a836129ae565b915061475682614715565b600a82019050919050565b7f25222f3e00000000000000000000000000000000000000000000000000000000600082015250565b60006147976004836129ae565b91506147a282614761565b600482019050919050565b60006147b8826146a6565b91506147c48286612a10565b91506147cf826146f2565b91506147db8285612c20565b91506147e68261473e565b91506147f28284612c20565b91506147fd8261478a565b9150819050949350505050565b7f78313d2200000000000000000000000000000000000000000000000000000000600082015250565b60006148406004836129ae565b915061484b8261480a565b600482019050919050565b7f25222079313d2200000000000000000000000000000000000000000000000000600082015250565b600061488c6007836129ae565b915061489782614856565b600782019050919050565b7f25222078323d2200000000000000000000000000000000000000000000000000600082015250565b60006148d86007836129ae565b91506148e3826148a2565b600782019050919050565b7f25222079323d2200000000000000000000000000000000000000000000000000600082015250565b60006149246007836129ae565b915061492f826148ee565b600782019050919050565b7f2522200000000000000000000000000000000000000000000000000000000000600082015250565b60006149706003836129ae565b915061497b8261493a565b600382019050919050565b600061499182614833565b915061499d8287612c20565b91506149a88261487f565b91506149b48286612c20565b91506149bf826148cb565b91506149cb8285612c20565b91506149d682614917565b91506149e28284612c20565b91506149ed82614963565b915081905095945050505050565b6000614a06826122df565b915060008203614a1957614a18612ae1565b5b600182039050919050565b600082825260208201905092915050565b7f537472696e67733a20686578206c656e67746820696e73756666696369656e74600082015250565b6000614a6b602083614a24565b9150614a7682614a35565b602082019050919050565b60006020820190508181036000830152614a9a81614a5e565b9050919050565b7f68736c2800000000000000000000000000000000000000000000000000000000600082015250565b6000614ad76004836129ae565b9150614ae282614aa1565b600482019050919050565b7f2c20000000000000000000000000000000000000000000000000000000000000600082015250565b6000614b236002836129ae565b9150614b2e82614aed565b600282019050919050565b7f252c200000000000000000000000000000000000000000000000000000000000600082015250565b6000614b6f6003836129ae565b9150614b7a82614b39565b600382019050919050565b7f2529000000000000000000000000000000000000000000000000000000000000600082015250565b6000614bbb6002836129ae565b9150614bc682614b85565b600282019050919050565b6000614bdc82614aca565b9150614be88286612c20565b9150614bf382614b16565b9150614bff8285612c20565b9150614c0a82614b62565b9150614c168284612c20565b9150614c2182614bae565b915081905094935050505056fe3c673e3c70617468207374726f6b653d2223656465646564222066696c6c3d226e6f6e6522207472616e73666f726d3d227472616e736c617465283236352c343138292220643d226d20302030204c202d3230202d3330204c202d31322e35202d33382e35206c20362e352037204c2030202d33382e35204c20362e3536202d33312e3332204c2031322e35202d33382e35204c203230202d3330204c20302030204c202d372e333435202d32392e393535204c2030202d33382e35204c20372e3637202d33302e3034204c20302030205a204d20302030204c202d32302e303535202d32392e393535206c20372e353535202d382e353435206c2032342e393635202d302e303135204c203230202d3330204c202d32302e303535202d32392e393535222f3e3c2f673e22546865206d696e642069732065766572797468696e672e205768617420796f75207468696e6b2c20796f75206265636f6d652e222d2042756461202020202020202257686174207765206172652069732074686520726573756c74206f66207768617420776520686176652074686f756768742e222d4e696b6f6c61205465736c6120224661696c75726573206172652073696d706c7920737465707320746f77617264732073756363657373222e2d20456c6f6e204d75736b2e2020202020202020202022546865206f6e6c792077617920746f20646f20677265617420776f726b20697320746f206c6f7665207768617420796f7520646f2e222d5374657665204a6f6273224861747265642063616e206f6e6c79206265206f766572636f6d65206279206c6f76652e222d2042756461202020202020202020202020202020202020202020202253696d706c69636974792069732074686520756c74696d61746520736f706869737469636174696f6e2e22202d4c656f6e6172646f2064612056696e63692e202022426520746865206368616e676520796f75207769736820746f2073656520696e2074686520776f726c642e222d4d616861746d612047616e6468692e202020202022437572696f73697479206973206d6f726520696d706f7274616e74207468616e206b6e6f776c656467652e22202d20416c626572742045696e737465696e202020225468657265206973206e6f207061746820746f2068617070696e6573733a68617070696e6573732069732074686520706174682e222d20427564612020202020202257686174207765206172652069732074686520726573756c74206f66207768617420776520686176652074686f756768742e222d4e696b6f6c61205465736c612022506561636520636f6d65732066726f6d2077697468696e2e20446f206e6f74207365656b20697420776974686f75742e222d2042756461202020202020202020202241206d616e206d757374206c6561726e20746f207361696c20696e207374726f6e672077696e64732e22202d20456c6f6e204d75736b2e202020202020202020203c706174682066696c6c3d22236564656465642220643d224d3132322e372c3232372e31206c2d342e382c306c35352e382c2d37346c302c332e326c2d35312e382c2d36392e326c352c306c34382e382c36352e346c2d312e322c306c34382e382c2d36352e346c342e382c306c2d35312e322c36382e346c302c2d312e366c35352e322c37332e326c2d352c306c2d35322e382c2d37302e326c312e322c306c2d35322e382c37302e327a2220766563746f722d6566666563743d226e6f6e2d7363616c696e672d7374726f6b6522202f3e3c673e203c706174682066696c6c3d222365646564656422207472616e73666f726d3d227363616c6528302e3429207472616e736c617465283630302c20393430292220643d224d36362c33382e3039712e30362e392e31382c312e3731762e303563312c372e30382c342e36332c31312e33392c392e35392c31332e38312c352e31382c322e35332c31312e38332c332e30392c31382e34382c322e36312c312e34392d2e31312c332d2e32372c342e33392d2e34376c312e35392d2e3263342e37382d2e36312c31312e34372d312e34382c31332e33352d352e30362c312e31362d322e322c312d352c302d386133382e38352c33382e38352c302c302c302d362e38392d31312e37334133322e32342c33322e32342c302c302c302c39352c32312e34362c32312e322c32312e322c302c302c302c38322e332c32306132332e35332c32332e35332c302c302c302d31322e37352c372c31352e36362c31352e36362c302c302c302d322e33352c332e343668306132302e38332c32302e38332c302c302c302d312c322e38336c2d2e30362e322c302c2e31324131322c31322c302c302c302c36362c33372e396c302c2e31395a6d32362e392d332e363361352e35312c352e35312c302c302c312c322e35332d342e33392c31342e31392c31342e31392c302c302c302d352e37372d2e3539682d2e31366c2e30362e353161352e35372c352e35372c302c302c302c322e38392c342e32322c342e39322c342e39322c302c302c302c2e34352e32345a4d38382e36322c32386c2e39342d2e30396131332e382c31332e382c302c302c312c382c312e34332c372e38382c372e38382c302c302c312c332e39322c362e31396c302c2e3433612e37382e37382c302c302c312d2e36362e38344131392e32332c31392e32332c302c302c312c39382c33376131322e39322c31322e39322c302c302c312d362e33312d312e343441372e30382c372e30382c302c302c312c38382c33302e32336131302e38352c31302e38352c302c302c312d2e312d312e34342e382e382c302c302c312c2e36392d2e37385a4d31342e31352c3130632d2e30362d352e38362c332e34342d382e34392c382d392e34394332362e32362d2e34342c33312e32342e31362c33342e37332e37413131312e31342c3131312e31342c302c302c312c35362e35352c362e34613133302e32362c3133302e32362c302c302c312c32322c31302e382c32362e32352c32362e32352c302c302c312c332d2e37382c32342e37322c32342e37322c302c302c312c31342e38332c312e36392c33362c33362c302c302c312c31332e30392c31302e34322c34322e34322c34322e34322c302c302c312c372e35342c31322e393263312e32352c332e38312c312e34352c372e362d2e32332c31302e37392d322e37372c352e32352d31302e35362c362e32372d31362e31322c376c2d312e32332e31366135342e35332c35342e35332c302c302c312d322e38312c31322e3036413130382e36322c3130382e36322c302c302c312c39312e332c38347632352e323961392e36372c392e36372c302c302c312c392e32352c31302e343963302c2e34312c302c2e38312c302c312e313861312e38342c312e38342c302c302c312d312e38342c312e38314838362e313261382e382c382e382c302c302c312d352e312d312e35362c31302e38322c31302e38322c302c302c312d332e33352d342c322e31332c322e31332c302c302c312d2e322d2e34364c37332e35332c313033712d322e37332c322e31332d352e37362c342e3136632d312e322e382d322e34332c312e35392d332e36392c322e33356c2e362e313661382e32382c382e32382c302c302c312c352e30372c342c31352e33382c31352e33382c302c302c312c312e37312c372e31315631323161312e38332c312e38332c302c302c312d312e38332c312e3833682d3533632d322e35382e30392d342e34372d2e35322d352e37352d312e373341362e34392c362e34392c302c302c312c392e31312c313136762d31312e326134322e36312c34322e36312c302c302c312d362e33342d31314133382e37392c33382e37392c302c302c312c312e31312c37302e32392c33372c33372c302c302c312c31332e362c35302e35346c2e312d2e30396134312e30382c34312e30382c302c302c312c31312d362e333863372e33392d322e392c31372e39332d322e37372c32362d322e36382c352e32312e30362c392e33342e31312c31302e31392d2e343961342e382c342e382c302c302c302c312d2e39312c352e31312c352e31312c302c302c302c2e35362d2e383463302d2e32362c302d2e35322d2e30372d2e37386131362c31362c302c302c312d2e30362d342e322c39382e35312c39382e35312c302c302c302d31382e37362d332e3638632d372e34382d2e38332d31352e34342d312e31392d32332e34372d312e34316c2d312e33352c30632d322e35392c302d342e38362c302d372e34362d312e363741392c392c302c302c312c382c32332e363861392e36372c392e36372c302c302c312d2e39312d354131302e39312c31302e39312c302c302c312c382e34392c313461382e37342c382e37342c302c302c312c332e33372d332e323941382e322c382e322c302c302c312c31342e31352c31305a4d36392e31342c32326135342e37352c35342e37352c302c302c312c342e39342d332e32342c3132342e38382c3132342e38382c302c302c302d31382e382d39413130362e38392c3130362e38392c302c302c302c33342e31372c342e33314333312c332e38312c32362e34342c332e32352c32322e38392c34632d322e35352e35362d342e35392c312e39322d352c342e3739613133342e34392c3133342e34392c302c302c312c32362e332c332e382c3131352e36392c3131352e36392c302c302c312c32352c392e345a4d36342c32382e3635632e32312d2e34342e34322d2e38362e36362d312e32386131352e32362c31352e32362c302c302c312c312e37332d322e34372c3134362e32342c3134362e32342c302c302c302d31342e39322d362e322c39372e36392c39372e36392c302c302c302d31352e33342d34413132332e35372c3132332e35372c302c302c302c32312e30372c31332e32632d332e33392d2e30382d362e332e30382d372e34372e373261352e32312c352e32312c302c302c302d322c312e39342c372e332c372e332c302c302c302d312c332e31322c362e312c362e312c302c302c302c2e35352c332e31312c352e34332c352e34332c302c302c302c322c322e323163312e37332c312e30392c332e352c312e312c352e35312c312e313268312e343363382e31362e32332c31362e32332e35392c32332e37382c312e3432613130332e34312c3130332e34312c302c302c312c31392e32322c332e37362c31372e38342c31372e38342c302c302c312c2e38352d325a6d2d2e37362c31352e30362d2e32312e3136632d312e38322c312e332d362e34382c312e32342d31322e33352c312e31374334322e39312c34352c33322e37392c34342e38332c32362c34372e34376133372e34312c33372e34312c302c302c302d31302c352e38316c2d2e312e30384133332e34342c33332e34342c302c302c302c342e36362c37312e31376133352e31342c33352e31342c302c302c302c312e352c32312e33324133392e34372c33392e34372c302c302c302c31322e33352c31303361312e38322c312e38322c302c302c312c2e34322c312e313676313261332e30352c332e30352c302c302c302c2e36382c322e33372c342e32382c342e32382c302c302c302c332e31362e37334836372e36386131302c31302c302c302c302d312e31312d332e36392c342e372c342e372c302c302c302d322e38372d322e33322c31352e30382c31352e30382c302c302c302d342e342d2e3338682d323661312e38332c312e38332c302c302c312d2e31352d332e363563352e37332d2e37322c31302e33352d322e37342c31332e35372d362e32352c332e30362d332e33342c342e39312d382e312c352e33332d31342e3435762d2e31334131382e38382c31382e38382c302c302c302c34362e33352c37356132302e32322c32302e32322c302c302c302d372e34312d342e34322c32332e35342c32332e35342c302c302c302d382e35322d312e3235632d342e372e31392d392e31312c312e38332d31322c342e383361312e38332c312e38332c302c302c312d322e36352d322e353263332e35332d332e37312c382e38362d352e37332c31342e34372d366132372e30352c32372e30352c302c302c312c392e38352c312e34342c32342c32342c302c302c312c382e37342c352e32332c32322e34382c32322e34382c302c302c312c362e38352c31352e3832762e303861322e31372c322e31372c302c302c312c302c2e3336632d2e34372c372e32352d322e36362c31322e37372d362e332c31362e37356132312e32342c32312e32342c302c302c312d342e36322c332e37374835372e333571342e34342d322e33392c382e33392d3563322e36382d312e37392c352e32322d332e36392c372e36332d352e363761312e38322c312e38322c302c302c312c322e35372e32342c312e36392c312e36392c302c302c312c2e33352e36364c38312c3131352e363261372c372c302c302c302c322e31362c322e36322c352e30362c352e30362c302c302c302c332c2e394839362e383861362e35362c362e35362c302c302c302d312e36382d342e33382c372e31392c372e31392c302c302c302d342e37342d312e3833632d2e33362c302d2e36392c302d312c3061312e38332c312e38332c302c302c312d312e38332d312e38335638332e3661312e37352c312e37352c302c302c312c2e32332d2e38382c3130352e31312c3130352e31312c302c302c302c352e33342d31322e34362c35322c35322c302c302c302c322e35352d31302e34346c2d312e32332e31632d372e32332e35322d31342e35322d2e31322d32302e33342d334132302c32302c302c302c312c36332e32362c34332e37315a222f3e3c2f673e3c7374796c653e202e62617365207b66696c6c3a20236564656465643b666f6e742d66616d696c793a4d6f6e747365727261742c617269616c2c73616e732d73657269663b666f6e742d73697a653a333070783b666f6e742d7765696768743a3430303b7d202e736572696573207b746578742d7472616e73666f726d3a207570706572636173657d202e6c6f676f207b666f6e742d73697a653a32303070783b666f6e742d7765696768743a3130303b7d202e6d657461207b666f6e742d73697a653a313270783b7d202e736d616c6c207b666f6e742d73697a653a3870783b7d202e6275726e207b666f6e742d7765696768743a3530303b666f6e742d73697a653a313670783b7d207d3c2f7374796c653e3c67207472616e73666f726d3d227363616c6528302e3529207472616e736c617465283533332c2037393029223e3c636972636c6520723d22333922207374726f6b653d2223656465646564222066696c6c3d227472616e73706172656e74222f3e3c706174682066696c6c3d22236564656465642220643d224d302c3338206133382c333820302030203120302c2d3736206131392c313920302030203120302c3338206131392c313920302030203020302c3338207a206d202d35202d3537206120352c35203020312c302031302c30206120352c35203020312c30202d31302c30207a222066696c6c2d72756c653d226576656e6f6464222f3e3c706174682066696c6c3d22236564656465642220643d226d202d352c203139206120352c35203020312c302031302c30206120352c35203020312c30202d31302c30222f3e3c2f673e527562792020202020204f70616c202020202020546f70617a2020202020456d6572616c64202020417175616d6172696e6553617070686972652020416d657468797374202058656e747572696f6e204c696d6974656420202052617265202020202020457069632020202020204c6567656e646172792045786f7469632020202058756e69636f726e20203c726563742077696474683d2239342522206865696768743d22393625222066696c6c3d227472616e73706172656e74222072783d2231307078222072793d223130707822207374726f6b652d6c696e656a6f696e3d22726f756e642220783d2233252220793d22322522207374726f6b652d6461736861727261793d22312c3622207374726f6b653d22776869746522202f3ea264697066735822122076551de17f6c5c385dcd84dbf5ddb6f10946383330dd962ad6a4bdbe76e6eb0464736f6c63430008120033",
			"opcodes": "PUSH2 0x6375 PUSH2 0x53 PUSH1 0xB DUP3 DUP3 DUP3 CODECOPY DUP1 MLOAD PUSH1 0x0 BYTE PUSH1 0x73 EQ PUSH2 0x46 JUMPI PUSH32 0x4E487B7100000000000000000000000000000000000000000000000000000000 PUSH1 0x0 MSTORE PUSH1 0x0 PUSH1 0x4 MSTORE PUSH1 0x24 PUSH1 0x0 REVERT JUMPDEST ADDRESS PUSH1 0x0 MSTORE PUSH1 0x73 DUP2 MSTORE8 DUP3 DUP2 RETURN INVALID PUSH20 0x0 ADDRESS EQ PUSH1 0x80 PUSH1 0x40 MSTORE PUSH1 0x4 CALLDATASIZE LT PUSH2 0xD8 JUMPI PUSH1 0x0 CALLDATALOAD PUSH1 0xE0 SHR DUP1 PUSH4 0x41B169F3 GT PUSH2 0x96 JUMPI DUP1 PUSH4 0x73116A56 GT PUSH2 0x70 JUMPI DUP1 PUSH4 0x73116A56 EQ PUSH2 0x20F JUMPI DUP1 PUSH4 0x987A800D EQ PUSH2 0x22D JUMPI DUP1 PUSH4 0xF12897A4 EQ PUSH2 0x24B JUMPI DUP1 PUSH4 0xFB339855 EQ PUSH2 0x27B JUMPI PUSH2 0xD8 JUMP JUMPDEST DUP1 PUSH4 0x41B169F3 EQ PUSH2 0x1B5 JUMPI DUP1 PUSH4 0x4D8D5F4A EQ PUSH2 0x1D3 JUMPI DUP1 PUSH4 0x660E3592 EQ PUSH2 0x1F1 JUMPI PUSH2 0xD8 JUMP JUMPDEST DUP1 PUSH3 0x47A04E EQ PUSH2 0xDD JUMPI DUP1 PUSH4 0x1B9345FD EQ PUSH2 0x10D JUMPI DUP1 PUSH4 0x1E2BB849 EQ PUSH2 0x13D JUMPI DUP1 PUSH4 0x262DDFD3 EQ PUSH2 0x15B JUMPI DUP1 PUSH4 0x27C48381 EQ PUSH2 0x179 JUMPI DUP1 PUSH4 0x2DBFA595 EQ PUSH2 0x197 JUMPI JUMPDEST PUSH1 0x0 DUP1 REVERT JUMPDEST PUSH2 0xF7 PUSH1 0x4 DUP1 CALLDATASIZE SUB DUP2 ADD SWAP1 PUSH2 0xF2 SWAP2 SWAP1 PUSH2 0x2315 JUMP JUMPDEST PUSH2 0x299 JUMP JUMPDEST PUSH1 0x40 MLOAD PUSH2 0x104 SWAP2 SWAP1 PUSH2 0x23D2 JUMP JUMPDEST PUSH1 0x40 MLOAD DUP1 SWAP2 SUB SWAP1 RETURN JUMPDEST PUSH2 0x127 PUSH1 0x4 DUP1 CALLDATASIZE SUB DUP2 ADD SWAP1 PUSH2 0x122 SWAP2 SWAP1 PUSH2 0x2452 JUMP JUMPDEST PUSH2 0x2AB JUMP JUMPDEST PUSH1 0x40 MLOAD PUSH2 0x134 SWAP2 SWAP1 PUSH2 0x2522 JUMP JUMPDEST PUSH1 0x40 MLOAD DUP1 SWAP2 SUB SWAP1 RETURN JUMPDEST PUSH2 0x145 PUSH2 0x88F JUMP JUMPDEST PUSH1 0x40 MLOAD PUSH2 0x152 SWAP2 SWAP1 PUSH2 0x2553 JUMP JUMPDEST PUSH1 0x40 MLOAD DUP1 SWAP2 SUB SWAP1 RETURN JUMPDEST PUSH2 0x163 PUSH2 0x894 JUMP JUMPDEST PUSH1 0x40 MLOAD PUSH2 0x170 SWAP2 SWAP1 PUSH2 0x2553 JUMP JUMPDEST PUSH1 0x40 MLOAD DUP1 SWAP2 SUB SWAP1 RETURN JUMPDEST PUSH2 0x181 PUSH2 0x899 JUMP JUMPDEST PUSH1 0x40 MLOAD PUSH2 0x18E SWAP2 SWAP1 PUSH2 0x2553 JUMP JUMPDEST PUSH1 0x40 MLOAD DUP1 SWAP2 SUB SWAP1 RETURN JUMPDEST PUSH2 0x19F PUSH2 0x89E JUMP JUMPDEST PUSH1 0x40 MLOAD PUSH2 0x1AC SWAP2 SWAP1 PUSH2 0x2553 JUMP JUMPDEST PUSH1 0x40 MLOAD DUP1 SWAP2 SUB SWAP1 RETURN JUMPDEST PUSH2 0x1BD PUSH2 0x8A4 JUMP JUMPDEST PUSH1 0x40 MLOAD PUSH2 0x1CA SWAP2 SWAP1 PUSH2 0x2553 JUMP JUMPDEST PUSH1 0x40 MLOAD DUP1 SWAP2 SUB SWAP1 RETURN JUMPDEST PUSH2 0x1DB PUSH2 0x8AA JUMP JUMPDEST PUSH1 0x40 MLOAD PUSH2 0x1E8 SWAP2 SWAP1 PUSH2 0x2553 JUMP JUMPDEST PUSH1 0x40 MLOAD DUP1 SWAP2 SUB SWAP1 RETURN JUMPDEST PUSH2 0x1F9 PUSH2 0x8AF JUMP JUMPDEST PUSH1 0x40 MLOAD PUSH2 0x206 SWAP2 SWAP1 PUSH2 0x2553 JUMP JUMPDEST PUSH1 0x40 MLOAD DUP1 SWAP2 SUB SWAP1 RETURN JUMPDEST PUSH2 0x217 PUSH2 0x8B5 JUMP JUMPDEST PUSH1 0x40 MLOAD PUSH2 0x224 SWAP2 SWAP1 PUSH2 0x2553 JUMP JUMPDEST PUSH1 0x40 MLOAD DUP1 SWAP2 SUB SWAP1 RETURN JUMPDEST PUSH2 0x235 PUSH2 0x8BB JUMP JUMPDEST PUSH1 0x40 MLOAD PUSH2 0x242 SWAP2 SWAP1 PUSH2 0x2553 JUMP JUMPDEST PUSH1 0x40 MLOAD DUP1 SWAP2 SUB SWAP1 RETURN JUMPDEST PUSH2 0x265 PUSH1 0x4 DUP1 CALLDATASIZE SUB DUP2 ADD SWAP1 PUSH2 0x260 SWAP2 SWAP1 PUSH2 0x256E JUMP JUMPDEST PUSH2 0x8C0 JUMP JUMPDEST PUSH1 0x40 MLOAD PUSH2 0x272 SWAP2 SWAP1 PUSH2 0x2522 JUMP JUMPDEST PUSH1 0x40 MLOAD DUP1 SWAP2 SUB SWAP1 RETURN JUMPDEST PUSH2 0x283 PUSH2 0x9B6 JUMP JUMPDEST PUSH1 0x40 MLOAD PUSH2 0x290 SWAP2 SWAP1 PUSH2 0x2553 JUMP JUMPDEST PUSH1 0x40 MLOAD DUP1 SWAP2 SUB SWAP1 RETURN JUMPDEST PUSH1 0x60 PUSH2 0x2A4 DUP3 PUSH2 0x9BB JUMP JUMPDEST SWAP1 POP SWAP2 SWAP1 POP JUMP JUMPDEST PUSH1 0x60 PUSH1 0x0 DUP4 PUSH20 0xFFFFFFFFFFFFFFFFFFFFFFFFFFFFFFFFFFFFFFFF AND PUSH4 0x95D89B41 PUSH1 0x40 MLOAD DUP2 PUSH4 0xFFFFFFFF AND PUSH1 0xE0 SHL DUP2 MSTORE PUSH1 0x4 ADD PUSH1 0x0 PUSH1 0x40 MLOAD DUP1 DUP4 SUB DUP2 DUP7 GAS STATICCALL ISZERO DUP1 ISZERO PUSH2 0x2FA JUMPI RETURNDATASIZE PUSH1 0x0 DUP1 RETURNDATACOPY RETURNDATASIZE PUSH1 0x0 REVERT JUMPDEST POP POP POP POP PUSH1 0x40 MLOAD RETURNDATASIZE PUSH1 0x0 DUP3 RETURNDATACOPY RETURNDATASIZE PUSH1 0x1F NOT PUSH1 0x1F DUP3 ADD AND DUP3 ADD DUP1 PUSH1 0x40 MSTORE POP DUP2 ADD SWAP1 PUSH2 0x323 SWAP2 SWAP1 PUSH2 0x26E7 JUMP JUMPDEST SWAP1 POP PUSH1 0x0 DUP1 PUSH1 0x0 DUP8 PUSH20 0x0 PUSH4 0x512D62DF SWAP1 SWAP2 PUSH1 0x40 MLOAD DUP3 PUSH4 0xFFFFFFFF AND PUSH1 0xE0 SHL DUP2 MSTORE PUSH1 0x4 ADD PUSH2 0x363 SWAP2 SWAP1 PUSH2 0x2553 JUMP JUMPDEST PUSH1 0x60 PUSH1 0x40 MLOAD DUP1 DUP4 SUB DUP2 DUP7 GAS DELEGATECALL ISZERO DUP1 ISZERO PUSH2 0x380 JUMPI RETURNDATASIZE PUSH1 0x0 DUP1 RETURNDATACOPY RETURNDATASIZE PUSH1 0x0 REVERT JUMPDEST POP POP POP POP PUSH1 0x40 MLOAD RETURNDATASIZE PUSH1 0x1F NOT PUSH1 0x1F DUP3 ADD AND DUP3 ADD DUP1 PUSH1 0x40 MSTORE POP DUP2 ADD SWAP1 PUSH2 0x3A4 SWAP2 SWAP1 PUSH2 0x277D JUMP JUMPDEST SWAP3 POP SWAP3 POP SWAP3 POP PUSH1 0x0 PUSH1 0x40 MLOAD DUP1 PUSH2 0x180 ADD PUSH1 0x40 MSTORE DUP1 DUP7 DUP2 MSTORE PUSH1 0x20 ADD DUP10 PUSH20 0xFFFFFFFFFFFFFFFFFFFFFFFFFFFFFFFFFFFFFFFF AND DUP2 MSTORE PUSH1 0x20 ADD DUP13 DUP2 MSTORE PUSH1 0x20 ADD DUP11 PUSH20 0x0 PUSH4 0x346BA941 SWAP1 SWAP2 PUSH1 0x40 MLOAD DUP3 PUSH4 0xFFFFFFFF AND PUSH1 0xE0 SHL DUP2 MSTORE PUSH1 0x4 ADD PUSH2 0x419 SWAP2 SWAP1 PUSH2 0x2553 JUMP JUMPDEST PUSH1 0x20 PUSH1 0x40 MLOAD DUP1 DUP4 SUB DUP2 DUP7 GAS DELEGATECALL ISZERO DUP1 ISZERO PUSH2 0x436 JUMPI RETURNDATASIZE PUSH1 0x0 DUP1 RETURNDATACOPY RETURNDATASIZE PUSH1 0x0 REVERT JUMPDEST POP POP POP POP PUSH1 0x40 MLOAD RETURNDATASIZE PUSH1 0x1F NOT PUSH1 0x1F DUP3 ADD AND DUP3 ADD DUP1 PUSH1 0x40 MSTORE POP DUP2 ADD SWAP1 PUSH2 0x45A SWAP2 SWAP1 PUSH2 0x27D0 JUMP JUMPDEST DUP2 MSTORE PUSH1 0x20 ADD DUP11 PUSH20 0x0 PUSH4 0xA5099BAE SWAP1 SWAP2 PUSH1 0x40 MLOAD DUP3 PUSH4 0xFFFFFFFF AND PUSH1 0xE0 SHL DUP2 MSTORE PUSH1 0x4 ADD PUSH2 0x498 SWAP2 SWAP1 PUSH2 0x2553 JUMP JUMPDEST PUSH1 0x20 PUSH1 0x40 MLOAD DUP1 DUP4 SUB DUP2 DUP7 GAS DELEGATECALL ISZERO DUP1 ISZERO PUSH2 0x4B5 JUMPI RETURNDATASIZE PUSH1 0x0 DUP1 RETURNDATACOPY RETURNDATASIZE PUSH1 0x0 REVERT JUMPDEST POP POP POP POP PUSH1 0x40 MLOAD RETURNDATASIZE PUSH1 0x1F NOT PUSH1 0x1F DUP3 ADD AND DUP3 ADD DUP1 PUSH1 0x40 MSTORE POP DUP2 ADD SWAP1 PUSH2 0x4D9 SWAP2 SWAP1 PUSH2 0x27D0 JUMP JUMPDEST DUP2 MSTORE PUSH1 0x20 ADD DUP12 DUP2 MSTORE PUSH1 0x20 ADD DUP11 PUSH20 0x0 PUSH4 0x24BF728E SWAP1 SWAP2 PUSH1 0x40 MLOAD DUP3 PUSH4 0xFFFFFFFF AND PUSH1 0xE0 SHL DUP2 MSTORE PUSH1 0x4 ADD PUSH2 0x51D SWAP2 SWAP1 PUSH2 0x2553 JUMP JUMPDEST PUSH1 0x20 PUSH1 0x40 MLOAD DUP1 DUP4 SUB DUP2 DUP7 GAS DELEGATECALL ISZERO DUP1 ISZERO PUSH2 0x53A JUMPI RETURNDATASIZE PUSH1 0x0 DUP1 RETURNDATACOPY RETURNDATASIZE PUSH1 0x0 REVERT JUMPDEST POP POP POP POP PUSH1 0x40 MLOAD RETURNDATASIZE PUSH1 0x1F NOT PUSH1 0x1F DUP3 ADD AND DUP3 ADD DUP1 PUSH1 0x40 MSTORE POP DUP2 ADD SWAP1 PUSH2 0x55E SWAP2 SWAP1 PUSH2 0x27D0 JUMP JUMPDEST DUP2 MSTORE PUSH1 0x20 ADD DUP11 PUSH20 0x0 PUSH4 0x15370046 SWAP1 SWAP2 PUSH1 0x40 MLOAD DUP3 PUSH4 0xFFFFFFFF AND PUSH1 0xE0 SHL DUP2 MSTORE PUSH1 0x4 ADD PUSH2 0x59C SWAP2 SWAP1 PUSH2 0x2553 JUMP JUMPDEST PUSH1 0x20 PUSH1 0x40 MLOAD DUP1 DUP4 SUB DUP2 DUP7 GAS DELEGATECALL ISZERO DUP1 ISZERO PUSH2 0x5B9 JUMPI RETURNDATASIZE PUSH1 0x0 DUP1 RETURNDATACOPY RETURNDATASIZE PUSH1 0x0 REVERT JUMPDEST POP POP POP POP PUSH1 0x40 MLOAD RETURNDATASIZE PUSH1 0x1F NOT PUSH1 0x1F DUP3 ADD AND DUP3 ADD DUP1 PUSH1 0x40 MSTORE POP DUP2 ADD SWAP1 PUSH2 0x5DD SWAP2 SWAP1 PUSH2 0x27D0 JUMP JUMPDEST DUP2 MSTORE PUSH1 0x20 ADD DUP11 PUSH20 0x0 PUSH4 0x243EB2C4 SWAP1 SWAP2 PUSH1 0x40 MLOAD DUP3 PUSH4 0xFFFFFFFF AND PUSH1 0xE0 SHL DUP2 MSTORE PUSH1 0x4 ADD PUSH2 0x61B SWAP2 SWAP1 PUSH2 0x2553 JUMP JUMPDEST PUSH1 0x20 PUSH1 0x40 MLOAD DUP1 DUP4 SUB DUP2 DUP7 GAS DELEGATECALL ISZERO DUP1 ISZERO PUSH2 0x638 JUMPI RETURNDATASIZE PUSH1 0x0 DUP1 RETURNDATACOPY RETURNDATASIZE PUSH1 0x0 REVERT JUMPDEST POP POP POP POP PUSH1 0x40 MLOAD RETURNDATASIZE PUSH1 0x1F NOT PUSH1 0x1F DUP3 ADD AND DUP3 ADD DUP1 PUSH1 0x40 MSTORE POP DUP2 ADD SWAP1 PUSH2 0x65C SWAP2 SWAP1 PUSH2 0x27D0 JUMP JUMPDEST DUP2 MSTORE PUSH1 0x20 ADD DUP9 DUP2 MSTORE PUSH1 0x20 ADD DUP11 PUSH20 0x0 PUSH4 0xE90CDC89 SWAP1 SWAP2 PUSH1 0x40 MLOAD DUP3 PUSH4 0xFFFFFFFF AND PUSH1 0xE0 SHL DUP2 MSTORE PUSH1 0x4 ADD PUSH2 0x6A0 SWAP2 SWAP1 PUSH2 0x2553 JUMP JUMPDEST PUSH1 0x20 PUSH1 0x40 MLOAD DUP1 DUP4 SUB DUP2 DUP7 GAS DELEGATECALL ISZERO DUP1 ISZERO PUSH2 0x6BD JUMPI RETURNDATASIZE PUSH1 0x0 DUP1 RETURNDATACOPY RETURNDATASIZE PUSH1 0x0 REVERT JUMPDEST POP POP POP POP PUSH1 0x40 MLOAD RETURNDATASIZE PUSH1 0x1F NOT PUSH1 0x1F DUP3 ADD AND DUP3 ADD DUP1 PUSH1 0x40 MSTORE POP DUP2 ADD SWAP1 PUSH2 0x6E1 SWAP2 SWAP1 PUSH2 0x27FD JUMP JUMPDEST ISZERO ISZERO DUP2 MSTORE PUSH1 0x20 ADD PUSH20 0x0 PUSH4 0xB0ECA69B PUSH1 0x40 MLOAD DUP1 PUSH1 0xC0 ADD PUSH1 0x40 MSTORE DUP1 PUSH1 0x8C DUP2 MSTORE PUSH1 0x20 ADD PUSH2 0x6220 PUSH1 0x8C SWAP2 CODECOPY DUP9 PUSH1 0x40 MLOAD DUP4 PUSH4 0xFFFFFFFF AND PUSH1 0xE0 SHL DUP2 MSTORE PUSH1 0x4 ADD PUSH2 0x739 SWAP3 SWAP2 SWAP1 PUSH2 0x282A JUMP JUMPDEST PUSH1 0x0 PUSH1 0x40 MLOAD DUP1 DUP4 SUB DUP2 DUP7 GAS DELEGATECALL ISZERO DUP1 ISZERO PUSH2 0x756 JUMPI RETURNDATASIZE PUSH1 0x0 DUP1 RETURNDATACOPY RETURNDATASIZE PUSH1 0x0 REVERT JUMPDEST POP POP POP POP PUSH1 0x40 MLOAD RETURNDATASIZE PUSH1 0x0 DUP3 RETURNDATACOPY RETURNDATASIZE PUSH1 0x1F NOT PUSH1 0x1F DUP3 ADD AND DUP3 ADD DUP1 PUSH1 0x40 MSTORE POP DUP2 ADD SWAP1 PUSH2 0x77F SWAP2 SWAP1 PUSH2 0x26E7 JUMP JUMPDEST DUP2 MSTORE POP SWAP1 POP PUSH1 0x0 PUSH1 0xC DUP11 PUSH1 0x40 MLOAD PUSH1 0x20 ADD PUSH2 0x799 SWAP2 SWAP1 PUSH2 0x2869 JUMP JUMPDEST PUSH1 0x40 MLOAD PUSH1 0x20 DUP2 DUP4 SUB SUB DUP2 MSTORE SWAP1 PUSH1 0x40 MSTORE DUP1 MLOAD SWAP1 PUSH1 0x20 ADD KECCAK256 PUSH1 0x0 SHR PUSH2 0x7BC SWAP2 SWAP1 PUSH2 0x28B3 JUMP JUMPDEST SWAP1 POP DUP4 DUP1 PUSH2 0x7C7 JUMPI POP DUP3 JUMPDEST ISZERO PUSH2 0x7EE JUMPI PUSH2 0x7E1 DUP3 PUSH2 0x7D9 DUP7 PUSH2 0xBE7 JUMP JUMPDEST DUP4 DUP8 DUP8 PUSH2 0xD9E JUMP JUMPDEST SWAP7 POP POP POP POP POP POP POP PUSH2 0x886 JUMP JUMPDEST PUSH2 0x87D DUP3 PUSH2 0x875 DUP14 DUP14 PUSH20 0x0 PUSH4 0x346BA941 SWAP1 SWAP2 PUSH1 0x40 MLOAD DUP3 PUSH4 0xFFFFFFFF AND PUSH1 0xE0 SHL DUP2 MSTORE PUSH1 0x4 ADD PUSH2 0x82F SWAP2 SWAP1 PUSH2 0x2553 JUMP JUMPDEST PUSH1 0x20 PUSH1 0x40 MLOAD DUP1 DUP4 SUB DUP2 DUP7 GAS DELEGATECALL ISZERO DUP1 ISZERO PUSH2 0x84C JUMPI RETURNDATASIZE PUSH1 0x0 DUP1 RETURNDATACOPY RETURNDATASIZE PUSH1 0x0 REVERT JUMPDEST POP POP POP POP PUSH1 0x40 MLOAD RETURNDATASIZE PUSH1 0x1F NOT PUSH1 0x1F DUP3 ADD AND DUP3 ADD DUP1 PUSH1 0x40 MSTORE POP DUP2 ADD SWAP1 PUSH2 0x870 SWAP2 SWAP1 PUSH2 0x27D0 JUMP JUMPDEST PUSH2 0xF5F JUMP JUMPDEST DUP4 DUP8 DUP8 PUSH2 0xD9E JUMP JUMPDEST SWAP7 POP POP POP POP POP POP POP JUMPDEST SWAP6 SWAP5 POP POP POP POP POP JUMP JUMPDEST PUSH1 0x64 DUP2 JUMP JUMPDEST PUSH1 0x1 DUP2 JUMP JUMPDEST PUSH1 0x26 DUP2 JUMP JUMPDEST PUSH2 0x168 DUP2 JUMP JUMPDEST PUSH2 0x1D4C DUP2 JUMP JUMPDEST PUSH1 0x2D DUP2 JUMP JUMPDEST PUSH2 0xCD14 DUP2 JUMP JUMPDEST PUSH2 0x12C DUP2 JUMP JUMPDEST PUSH1 0x32 DUP2 JUMP JUMPDEST PUSH1 0x60 PUSH1 0x0 DUP1 PUSH1 0x0 DUP1 PUSH1 0x0 DUP1 PUSH1 0x0 DUP1 PUSH20 0x0 PUSH4 0x88F882E8 DUP12 PUSH1 0x40 MLOAD DUP3 PUSH4 0xFFFFFFFF AND PUSH1 0xE0 SHL DUP2 MSTORE PUSH1 0x4 ADD PUSH2 0x905 SWAP2 SWAP1 PUSH2 0x2553 JUMP JUMPDEST PUSH2 0x120 PUSH1 0x40 MLOAD DUP1 DUP4 SUB DUP2 DUP7 GAS DELEGATECALL ISZERO DUP1 ISZERO PUSH2 0x923 JUMPI RETURNDATASIZE PUSH1 0x0 DUP1 RETURNDATACOPY RETURNDATASIZE PUSH1 0x0 REVERT JUMPDEST POP POP POP POP PUSH1 0x40 MLOAD RETURNDATASIZE PUSH1 0x1F NOT PUSH1 0x1F DUP3 ADD AND DUP3 ADD DUP1 PUSH1 0x40 MSTORE POP DUP2 ADD SWAP1 PUSH2 0x947 SWAP2 SWAP1 PUSH2 0x28E4 JUMP JUMPDEST POP SWAP8 POP SWAP8 POP SWAP8 POP SWAP8 POP SWAP8 POP SWAP8 POP SWAP8 POP SWAP8 POP PUSH2 0x963 DUP13 DUP8 DUP6 PUSH2 0x121F JUMP JUMPDEST PUSH2 0x96E DUP7 DUP7 DUP11 PUSH2 0x12F4 JUMP JUMPDEST PUSH2 0x979 DUP10 DUP12 DUP16 PUSH2 0x13CF JUMP JUMPDEST PUSH2 0x983 DUP6 DUP6 PUSH2 0x149F JUMP JUMPDEST PUSH1 0x40 MLOAD PUSH1 0x20 ADD PUSH2 0x996 SWAP5 SWAP4 SWAP3 SWAP2 SWAP1 PUSH2 0x2A8D JUMP JUMPDEST PUSH1 0x40 MLOAD PUSH1 0x20 DUP2 DUP4 SUB SUB DUP2 MSTORE SWAP1 PUSH1 0x40 MSTORE SWAP9 POP POP POP POP POP POP POP POP POP SWAP4 SWAP3 POP POP POP JUMP JUMPDEST PUSH1 0x4B DUP2 JUMP JUMPDEST PUSH1 0x60 PUSH1 0x0 DUP3 SUB PUSH2 0xA02 JUMPI PUSH1 0x40 MLOAD DUP1 PUSH1 0x40 ADD PUSH1 0x40 MSTORE DUP1 PUSH1 0x1 DUP2 MSTORE PUSH1 0x20 ADD PUSH32 0x3000000000000000000000000000000000000000000000000000000000000000 DUP2 MSTORE POP SWAP1 POP PUSH2 0xBE2 JUMP JUMPDEST PUSH1 0x0 DUP3 SWAP1 POP PUSH1 0x0 JUMPDEST PUSH1 0x0 DUP3 EQ PUSH2 0xA34 JUMPI DUP1 DUP1 PUSH2 0xA1D SWAP1 PUSH2 0x2B10 JUMP JUMPDEST SWAP2 POP POP PUSH1 0xA DUP3 PUSH2 0xA2D SWAP2 SWAP1 PUSH2 0x2B58 JUMP JUMPDEST SWAP2 POP PUSH2 0xA0A JUMP JUMPDEST PUSH1 0x0 DUP1 PUSH1 0x3 DUP4 PUSH2 0xA44 SWAP2 SWAP1 PUSH2 0x2B58 JUMP JUMPDEST SWAP1 POP PUSH1 0x0 PUSH1 0x3 DUP5 PUSH2 0xA55 SWAP2 SWAP1 PUSH2 0x28B3 JUMP JUMPDEST EQ PUSH2 0xA60 JUMPI DUP1 PUSH2 0xA6E JUMP JUMPDEST PUSH1 0x1 DUP2 PUSH2 0xA6D SWAP2 SWAP1 PUSH2 0x2B89 JUMP JUMPDEST JUMPDEST DUP4 PUSH2 0xA79 SWAP2 SWAP1 PUSH2 0x2BBD JUMP JUMPDEST SWAP3 POP PUSH1 0x0 DUP4 PUSH8 0xFFFFFFFFFFFFFFFF DUP2 GT ISZERO PUSH2 0xA97 JUMPI PUSH2 0xA96 PUSH2 0x25CB JUMP JUMPDEST JUMPDEST PUSH1 0x40 MLOAD SWAP1 DUP1 DUP3 MSTORE DUP1 PUSH1 0x1F ADD PUSH1 0x1F NOT AND PUSH1 0x20 ADD DUP3 ADD PUSH1 0x40 MSTORE DUP1 ISZERO PUSH2 0xAC9 JUMPI DUP2 PUSH1 0x20 ADD PUSH1 0x1 DUP3 MUL DUP1 CALLDATASIZE DUP4 CALLDATACOPY DUP1 DUP3 ADD SWAP2 POP POP SWAP1 POP JUMPDEST POP SWAP1 POP JUMPDEST PUSH1 0x0 DUP8 EQ PUSH2 0xBD9 JUMPI PUSH1 0x1 DUP5 PUSH2 0xAE2 SWAP2 SWAP1 PUSH2 0x2B89 JUMP JUMPDEST SWAP4 POP PUSH1 0x3 DUP4 SUB PUSH2 0xB58 JUMPI PUSH32 0x2C00000000000000000000000000000000000000000000000000000000000000 DUP2 DUP6 DUP2 MLOAD DUP2 LT PUSH2 0xB20 JUMPI PUSH2 0xB1F PUSH2 0x2BF1 JUMP JUMPDEST JUMPDEST PUSH1 0x20 ADD ADD SWAP1 PUSH31 0xFFFFFFFFFFFFFFFFFFFFFFFFFFFFFFFFFFFFFFFFFFFFFFFFFFFFFFFFFFFFFF NOT AND SWAP1 DUP2 PUSH1 0x0 BYTE SWAP1 MSTORE8 POP PUSH1 0x0 SWAP3 POP PUSH2 0xBD4 JUMP JUMPDEST PUSH1 0xA DUP8 PUSH2 0xB65 SWAP2 SWAP1 PUSH2 0x28B3 JUMP JUMPDEST PUSH1 0x30 PUSH2 0xB71 SWAP2 SWAP1 PUSH2 0x2BBD JUMP JUMPDEST PUSH1 0xF8 SHL DUP2 DUP6 DUP2 MLOAD DUP2 LT PUSH2 0xB87 JUMPI PUSH2 0xB86 PUSH2 0x2BF1 JUMP JUMPDEST JUMPDEST PUSH1 0x20 ADD ADD SWAP1 PUSH31 0xFFFFFFFFFFFFFFFFFFFFFFFFFFFFFFFFFFFFFFFFFFFFFFFFFFFFFFFFFFFFFF NOT AND SWAP1 DUP2 PUSH1 0x0 BYTE SWAP1 MSTORE8 POP PUSH1 0xA DUP8 PUSH2 0xBC3 SWAP2 SWAP1 PUSH2 0x2B58 JUMP JUMPDEST SWAP7 POP DUP3 DUP1 PUSH2 0xBD0 SWAP1 PUSH2 0x2B10 JUMP JUMPDEST SWAP4 POP POP JUMPDEST PUSH2 0xACD JUMP JUMPDEST DUP1 SWAP6 POP POP POP POP POP POP JUMPDEST SWAP2 SWAP1 POP JUMP JUMPDEST PUSH1 0x60 PUSH1 0x0 DUP3 PUSH2 0xBFD JUMPI PUSH2 0xBF8 PUSH2 0x1582 JUMP JUMPDEST PUSH2 0xC06 JUMP JUMPDEST PUSH2 0xC05 PUSH2 0x15AE JUMP JUMPDEST JUMPDEST SWAP1 POP PUSH1 0x0 PUSH1 0x3 PUSH8 0xFFFFFFFFFFFFFFFF DUP2 GT ISZERO PUSH2 0xC25 JUMPI PUSH2 0xC24 PUSH2 0x25CB JUMP JUMPDEST JUMPDEST PUSH1 0x40 MLOAD SWAP1 DUP1 DUP3 MSTORE DUP1 PUSH1 0x20 MUL PUSH1 0x20 ADD DUP3 ADD PUSH1 0x40 MSTORE DUP1 ISZERO PUSH2 0xC5E JUMPI DUP2 PUSH1 0x20 ADD JUMPDEST PUSH2 0xC4B PUSH2 0x220E JUMP JUMPDEST DUP2 MSTORE PUSH1 0x20 ADD SWAP1 PUSH1 0x1 SWAP1 SUB SWAP1 DUP2 PUSH2 0xC43 JUMPI SWAP1 POP JUMPDEST POP SWAP1 POP PUSH1 0x0 JUMPDEST DUP2 MLOAD DUP2 LT ISZERO PUSH2 0xCFD JUMPI PUSH1 0x40 MLOAD DUP1 PUSH1 0xA0 ADD PUSH1 0x40 MSTORE DUP1 DUP5 DUP4 PUSH1 0x3 DUP2 LT PUSH2 0xC8B JUMPI PUSH2 0xC8A PUSH2 0x2BF1 JUMP JUMPDEST JUMPDEST PUSH1 0x20 MUL ADD MLOAD DUP2 MSTORE PUSH1 0x20 ADD PUSH1 0x4B DUP2 MSTORE PUSH1 0x20 ADD PUSH1 0x2D DUP2 MSTORE PUSH1 0x20 ADD PUSH1 0x1 DUP2 MSTORE PUSH1 0x20 ADD PUSH2 0xCB2 PUSH2 0x15DA JUMP JUMPDEST DUP4 PUSH1 0x3 DUP2 LT PUSH2 0xCC4 JUMPI PUSH2 0xCC3 PUSH2 0x2BF1 JUMP JUMPDEST JUMPDEST PUSH1 0x20 MUL ADD MLOAD DUP2 MSTORE POP DUP3 DUP3 DUP2 MLOAD DUP2 LT PUSH2 0xCDF JUMPI PUSH2 0xCDE PUSH2 0x2BF1 JUMP JUMPDEST JUMPDEST PUSH1 0x20 MUL PUSH1 0x20 ADD ADD DUP2 SWAP1 MSTORE POP DUP1 DUP1 PUSH2 0xCF5 SWAP1 PUSH2 0x2B10 JUMP JUMPDEST SWAP2 POP POP PUSH2 0xC64 JUMP JUMPDEST POP PUSH1 0x1 PUSH8 0xFFFFFFFFFFFFFFFF DUP2 GT ISZERO PUSH2 0xD19 JUMPI PUSH2 0xD18 PUSH2 0x25CB JUMP JUMPDEST JUMPDEST PUSH1 0x40 MLOAD SWAP1 DUP1 DUP3 MSTORE DUP1 PUSH1 0x20 MUL PUSH1 0x20 ADD DUP3 ADD PUSH1 0x40 MSTORE DUP1 ISZERO PUSH2 0xD52 JUMPI DUP2 PUSH1 0x20 ADD JUMPDEST PUSH2 0xD3F PUSH2 0x223D JUMP JUMPDEST DUP2 MSTORE PUSH1 0x20 ADD SWAP1 PUSH1 0x1 SWAP1 SUB SWAP1 DUP2 PUSH2 0xD37 JUMPI SWAP1 POP JUMPDEST POP SWAP3 POP PUSH1 0x40 MLOAD DUP1 PUSH1 0x60 ADD PUSH1 0x40 MSTORE DUP1 DUP3 DUP2 MSTORE PUSH1 0x20 ADD PUSH1 0x0 DUP2 MSTORE PUSH1 0x20 ADD PUSH2 0xD75 PUSH2 0x1605 JUMP JUMPDEST DUP2 MSTORE POP DUP4 PUSH1 0x0 DUP2 MLOAD DUP2 LT PUSH2 0xD8C JUMPI PUSH2 0xD8B PUSH2 0x2BF1 JUMP JUMPDEST JUMPDEST PUSH1 0x20 MUL PUSH1 0x20 ADD ADD DUP2 SWAP1 MSTORE POP POP POP SWAP2 SWAP1 POP JUMP JUMPDEST PUSH1 0x60 PUSH1 0x0 DUP3 PUSH2 0xDEF JUMPI DUP4 PUSH2 0xDCD JUMPI PUSH1 0x40 MLOAD DUP1 PUSH2 0x160 ADD PUSH1 0x40 MSTORE DUP1 PUSH2 0x12B DUP2 MSTORE PUSH1 0x20 ADD PUSH2 0x4C2F PUSH2 0x12B SWAP2 CODECOPY PUSH2 0xDEA JUMP JUMPDEST PUSH1 0x40 MLOAD DUP1 PUSH2 0x180 ADD PUSH1 0x40 MSTORE DUP1 PUSH2 0x147 DUP2 MSTORE PUSH1 0x20 ADD PUSH2 0x60D9 PUSH2 0x147 SWAP2 CODECOPY JUMPDEST PUSH2 0xE0C JUMP JUMPDEST PUSH1 0x40 MLOAD DUP1 PUSH2 0xEA0 ADD PUSH1 0x40 MSTORE DUP1 PUSH2 0xE80 DUP2 MSTORE PUSH1 0x20 ADD PUSH2 0x5145 PUSH2 0xE80 SWAP2 CODECOPY JUMPDEST SWAP1 POP PUSH1 0x0 PUSH2 0xE34 DUP8 PUSH1 0x0 DUP2 MLOAD DUP2 LT PUSH2 0xE27 JUMPI PUSH2 0xE26 PUSH2 0x2BF1 JUMP JUMPDEST JUMPDEST PUSH1 0x20 MUL PUSH1 0x20 ADD ADD MLOAD PUSH2 0x1637 JUMP JUMPDEST PUSH1 0x40 MLOAD DUP1 PUSH2 0x140 ADD PUSH1 0x40 MSTORE DUP1 PUSH2 0x114 DUP2 MSTORE PUSH1 0x20 ADD PUSH2 0x5FC5 PUSH2 0x114 SWAP2 CODECOPY PUSH2 0xE5A DUP10 MLOAD PUSH2 0x1673 JUMP JUMPDEST PUSH1 0x40 MLOAD DUP1 PUSH2 0x100 ADD PUSH1 0x40 MSTORE DUP1 PUSH1 0xD3 DUP2 MSTORE PUSH1 0x20 ADD PUSH2 0x5072 PUSH1 0xD3 SWAP2 CODECOPY DUP6 PUSH1 0x40 MLOAD PUSH1 0x20 ADD PUSH2 0xE89 SWAP6 SWAP5 SWAP4 SWAP3 SWAP2 SWAP1 PUSH2 0x2C51 JUMP JUMPDEST PUSH1 0x40 MLOAD PUSH1 0x20 DUP2 DUP4 SUB SUB DUP2 MSTORE SWAP1 PUSH1 0x40 MSTORE SWAP1 POP PUSH1 0x0 PUSH2 0xEAE DUP10 PUSH1 0x0 ADD MLOAD DUP11 PUSH1 0x20 ADD MLOAD PUSH2 0x1705 JUMP JUMPDEST PUSH2 0xED2 DUP11 PUSH1 0x40 ADD MLOAD DUP12 PUSH1 0xA0 ADD MLOAD DUP13 PUSH2 0x100 ADD MLOAD DUP14 PUSH2 0x160 ADD MLOAD DUP15 PUSH2 0x120 ADD MLOAD PUSH2 0x174F JUMP JUMPDEST PUSH2 0xEF3 DUP12 PUSH1 0xC0 ADD MLOAD DUP13 PUSH1 0xE0 ADD MLOAD DUP14 PUSH1 0x60 ADD MLOAD DUP15 PUSH1 0x80 ADD MLOAD DUP16 PUSH1 0xA0 ADD MLOAD PUSH2 0x1849 JUMP JUMPDEST PUSH2 0xEFC DUP11 PUSH2 0x195D JUMP JUMPDEST PUSH2 0xF0A DUP14 PUSH2 0x140 ADD MLOAD PUSH2 0x1A1F JUMP JUMPDEST PUSH1 0x40 MLOAD PUSH1 0x20 ADD PUSH2 0xF1E SWAP6 SWAP5 SWAP4 SWAP3 SWAP2 SWAP1 PUSH2 0x2C9C JUMP JUMPDEST PUSH1 0x40 MLOAD PUSH1 0x20 DUP2 DUP4 SUB SUB DUP2 MSTORE SWAP1 PUSH1 0x40 MSTORE SWAP1 POP DUP2 DUP2 PUSH1 0x40 MLOAD PUSH1 0x20 ADD PUSH2 0xF42 SWAP3 SWAP2 SWAP1 PUSH2 0x2DF1 JUMP JUMPDEST PUSH1 0x40 MLOAD PUSH1 0x20 DUP2 DUP4 SUB SUB DUP2 MSTORE SWAP1 PUSH1 0x40 MSTORE SWAP4 POP POP POP POP SWAP6 SWAP5 POP POP POP POP POP JUMP JUMPDEST PUSH1 0x60 PUSH1 0x0 PUSH1 0x2 PUSH8 0xFFFFFFFFFFFFFFFF DUP2 GT ISZERO PUSH2 0xF7E JUMPI PUSH2 0xF7D PUSH2 0x25CB JUMP JUMPDEST JUMPDEST PUSH1 0x40 MLOAD SWAP1 DUP1 DUP3 MSTORE DUP1 PUSH1 0x20 MUL PUSH1 0x20 ADD DUP3 ADD PUSH1 0x40 MSTORE DUP1 ISZERO PUSH2 0xFB7 JUMPI DUP2 PUSH1 0x20 ADD JUMPDEST PUSH2 0xFA4 PUSH2 0x220E JUMP JUMPDEST DUP2 MSTORE PUSH1 0x20 ADD SWAP1 PUSH1 0x1 SWAP1 SUB SWAP1 DUP2 PUSH2 0xF9C JUMPI SWAP1 POP JUMPDEST POP SWAP1 POP PUSH1 0x0 PUSH2 0xCD14 DUP6 DUP6 PUSH2 0xFCB SWAP2 SWAP1 PUSH2 0x2E2B JUMP JUMPDEST GT PUSH2 0x1007 JUMPI PUSH2 0xCD14 PUSH2 0x12C DUP7 DUP7 PUSH2 0xFE2 SWAP2 SWAP1 PUSH2 0x2E2B JUMP JUMPDEST PUSH2 0xFEC SWAP2 SWAP1 PUSH2 0x2E2B JUMP JUMPDEST PUSH2 0xFF6 SWAP2 SWAP1 PUSH2 0x2B58 JUMP JUMPDEST PUSH1 0x1 PUSH2 0x1002 SWAP2 SWAP1 PUSH2 0x2BBD JUMP JUMPDEST PUSH2 0x100B JUMP JUMPDEST PUSH2 0x168 JUMPDEST SWAP1 POP PUSH1 0x0 PUSH2 0x1017 PUSH2 0x1A63 JUMP JUMPDEST PUSH1 0x7 PUSH2 0x1023 DUP9 DUP9 PUSH2 0x1AB4 JUMP JUMPDEST GT PUSH2 0x1037 JUMPI PUSH2 0x1032 DUP8 DUP8 PUSH2 0x1AB4 JUMP JUMPDEST PUSH2 0x103A JUMP JUMPDEST PUSH1 0x7 JUMPDEST PUSH1 0x8 DUP2 LT PUSH2 0x104B JUMPI PUSH2 0x104A PUSH2 0x2BF1 JUMP JUMPDEST JUMPDEST PUSH1 0x20 MUL ADD MLOAD SWAP1 POP PUSH1 0x40 MLOAD DUP1 PUSH1 0xA0 ADD PUSH1 0x40 MSTORE DUP1 DUP3 DUP2 MSTORE PUSH1 0x20 ADD PUSH2 0x168 DUP4 EQ PUSH2 0x1073 JUMPI PUSH1 0x64 PUSH2 0x1076 JUMP JUMPDEST PUSH1 0x0 JUMPDEST DUP2 MSTORE PUSH1 0x20 ADD PUSH2 0x168 DUP4 EQ PUSH2 0x108B JUMPI PUSH1 0x32 PUSH2 0x108E JUMP JUMPDEST PUSH1 0x0 JUMPDEST DUP2 MSTORE PUSH1 0x20 ADD PUSH1 0x1 DUP2 MSTORE PUSH1 0x20 ADD PUSH2 0x10A2 PUSH2 0x15DA JUMP JUMPDEST PUSH1 0x0 PUSH1 0x3 DUP2 LT PUSH2 0x10B5 JUMPI PUSH2 0x10B4 PUSH2 0x2BF1 JUMP JUMPDEST JUMPDEST PUSH1 0x20 MUL ADD MLOAD DUP2 MSTORE POP DUP4 PUSH1 0x0 DUP2 MLOAD DUP2 LT PUSH2 0x10D1 JUMPI PUSH2 0x10D0 PUSH2 0x2BF1 JUMP JUMPDEST JUMPDEST PUSH1 0x20 MUL PUSH1 0x20 ADD ADD DUP2 SWAP1 MSTORE POP PUSH1 0x40 MLOAD DUP1 PUSH1 0xA0 ADD PUSH1 0x40 MSTORE DUP1 DUP4 DUP2 MSTORE PUSH1 0x20 ADD PUSH2 0x168 DUP5 EQ PUSH2 0x10FD JUMPI PUSH1 0x4B PUSH2 0x1100 JUMP JUMPDEST PUSH1 0x0 JUMPDEST DUP2 MSTORE PUSH1 0x20 ADD PUSH2 0x168 DUP5 EQ PUSH2 0x1115 JUMPI PUSH1 0x26 PUSH2 0x1118 JUMP JUMPDEST PUSH1 0x0 JUMPDEST DUP2 MSTORE PUSH1 0x20 ADD PUSH1 0x1 DUP2 MSTORE PUSH1 0x20 ADD PUSH2 0x112C PUSH2 0x15DA JUMP JUMPDEST PUSH1 0x2 PUSH1 0x3 DUP2 LT PUSH2 0x113F JUMPI PUSH2 0x113E PUSH2 0x2BF1 JUMP JUMPDEST JUMPDEST PUSH1 0x20 MUL ADD MLOAD DUP2 MSTORE POP DUP4 PUSH1 0x1 DUP2 MLOAD DUP2 LT PUSH2 0x115B JUMPI PUSH2 0x115A PUSH2 0x2BF1 JUMP JUMPDEST JUMPDEST PUSH1 0x20 MUL PUSH1 0x20 ADD ADD DUP2 SWAP1 MSTORE POP PUSH1 0x1 PUSH8 0xFFFFFFFFFFFFFFFF DUP2 GT ISZERO PUSH2 0x1181 JUMPI PUSH2 0x1180 PUSH2 0x25CB JUMP JUMPDEST JUMPDEST PUSH1 0x40 MLOAD SWAP1 DUP1 DUP3 MSTORE DUP1 PUSH1 0x20 MUL PUSH1 0x20 ADD DUP3 ADD PUSH1 0x40 MSTORE DUP1 ISZERO PUSH2 0x11BA JUMPI DUP2 PUSH1 0x20 ADD JUMPDEST PUSH2 0x11A7 PUSH2 0x223D JUMP JUMPDEST DUP2 MSTORE PUSH1 0x20 ADD SWAP1 PUSH1 0x1 SWAP1 SUB SWAP1 DUP2 PUSH2 0x119F JUMPI SWAP1 POP JUMPDEST POP SWAP4 POP PUSH1 0x40 MLOAD DUP1 PUSH1 0x60 ADD PUSH1 0x40 MSTORE DUP1 DUP5 DUP2 MSTORE PUSH1 0x20 ADD PUSH1 0x0 DUP2 MSTORE PUSH1 0x20 ADD PUSH2 0x168 DUP4 EQ PUSH2 0x11EB JUMPI PUSH2 0x11E6 PUSH2 0x1AD7 JUMP JUMPDEST PUSH2 0x11F4 JUMP JUMPDEST PUSH2 0x11F3 PUSH2 0x1B09 JUMP JUMPDEST JUMPDEST DUP2 MSTORE POP DUP5 PUSH1 0x0 DUP2 MLOAD DUP2 LT PUSH2 0x120B JUMPI PUSH2 0x120A PUSH2 0x2BF1 JUMP JUMPDEST JUMPDEST PUSH1 0x20 MUL PUSH1 0x20 ADD ADD DUP2 SWAP1 MSTORE POP POP POP POP SWAP3 SWAP2 POP POP JUMP JUMPDEST PUSH1 0x60 PUSH20 0x0 PUSH4 0xB0ECA69B PUSH1 0x40 MLOAD DUP1 PUSH1 0xC0 ADD PUSH1 0x40 MSTORE DUP1 PUSH1 0x8C DUP2 MSTORE PUSH1 0x20 ADD PUSH2 0x6220 PUSH1 0x8C SWAP2 CODECOPY DUP5 PUSH1 0x40 MLOAD DUP4 PUSH4 0xFFFFFFFF AND PUSH1 0xE0 SHL DUP2 MSTORE PUSH1 0x4 ADD PUSH2 0x1272 SWAP3 SWAP2 SWAP1 PUSH2 0x282A JUMP JUMPDEST PUSH1 0x0 PUSH1 0x40 MLOAD DUP1 DUP4 SUB DUP2 DUP7 GAS DELEGATECALL ISZERO DUP1 ISZERO PUSH2 0x128F JUMPI RETURNDATASIZE PUSH1 0x0 DUP1 RETURNDATACOPY RETURNDATASIZE PUSH1 0x0 REVERT JUMPDEST POP POP POP POP PUSH1 0x40 MLOAD RETURNDATASIZE PUSH1 0x0 DUP3 RETURNDATACOPY RETURNDATASIZE PUSH1 0x1F NOT PUSH1 0x1F DUP3 ADD AND DUP3 ADD DUP1 PUSH1 0x40 MSTORE POP DUP2 ADD SWAP1 PUSH2 0x12B8 SWAP2 SWAP1 PUSH2 0x26E7 JUMP JUMPDEST PUSH2 0x12C1 DUP6 PUSH2 0x1B3B JUMP JUMPDEST PUSH2 0x12CA DUP6 PUSH2 0x1B3B JUMP JUMPDEST PUSH1 0x40 MLOAD PUSH1 0x20 ADD PUSH2 0x12DC SWAP4 SWAP3 SWAP2 SWAP1 PUSH2 0x2FE9 JUMP JUMPDEST PUSH1 0x40 MLOAD PUSH1 0x20 DUP2 DUP4 SUB SUB DUP2 MSTORE SWAP1 PUSH1 0x40 MSTORE SWAP1 POP SWAP4 SWAP3 POP POP POP JUMP JUMPDEST PUSH1 0x60 PUSH1 0x0 DUP1 PUSH20 0x0 PUSH4 0x5A97E730 DUP6 PUSH1 0x40 MLOAD DUP3 PUSH4 0xFFFFFFFF AND PUSH1 0xE0 SHL DUP2 MSTORE PUSH1 0x4 ADD PUSH2 0x1330 SWAP2 SWAP1 PUSH2 0x2553 JUMP JUMPDEST PUSH1 0x0 PUSH1 0x40 MLOAD DUP1 DUP4 SUB DUP2 DUP7 GAS DELEGATECALL ISZERO DUP1 ISZERO PUSH2 0x134D JUMPI RETURNDATASIZE PUSH1 0x0 DUP1 RETURNDATACOPY RETURNDATASIZE PUSH1 0x0 REVERT JUMPDEST POP POP POP POP PUSH1 0x40 MLOAD RETURNDATASIZE PUSH1 0x0 DUP3 RETURNDATACOPY RETURNDATASIZE PUSH1 0x1F NOT PUSH1 0x1F DUP3 ADD AND DUP3 ADD DUP1 PUSH1 0x40 MSTORE POP DUP2 ADD SWAP1 PUSH2 0x1376 SWAP2 SWAP1 PUSH2 0x3046 JUMP JUMPDEST SWAP2 POP SWAP2 POP PUSH2 0x1383 DUP7 PUSH2 0x1B3B JUMP JUMPDEST PUSH2 0x1398 PUSH1 0xA DUP8 PUSH2 0x1393 SWAP2 SWAP1 PUSH2 0x2B58 JUMP JUMPDEST PUSH2 0x1B3B JUMP JUMPDEST PUSH2 0x13A1 DUP5 PUSH2 0x1B3B JUMP JUMPDEST DUP4 PUSH1 0x40 MLOAD PUSH1 0x20 ADD PUSH2 0x13B5 SWAP5 SWAP4 SWAP3 SWAP2 SWAP1 PUSH2 0x3244 JUMP JUMPDEST PUSH1 0x40 MLOAD PUSH1 0x20 DUP2 DUP4 SUB SUB DUP2 MSTORE SWAP1 PUSH1 0x40 MSTORE SWAP3 POP POP POP SWAP4 SWAP3 POP POP POP JUMP JUMPDEST PUSH1 0x60 DUP4 PUSH20 0x0 PUSH4 0xB5D987E3 SWAP1 SWAP2 PUSH1 0x40 MLOAD DUP3 PUSH4 0xFFFFFFFF AND PUSH1 0xE0 SHL DUP2 MSTORE PUSH1 0x4 ADD PUSH2 0x140A SWAP2 SWAP1 PUSH2 0x2553 JUMP JUMPDEST PUSH1 0x0 PUSH1 0x40 MLOAD DUP1 DUP4 SUB DUP2 DUP7 GAS DELEGATECALL ISZERO DUP1 ISZERO PUSH2 0x1427 JUMPI RETURNDATASIZE PUSH1 0x0 DUP1 RETURNDATACOPY RETURNDATASIZE PUSH1 0x0 REVERT JUMPDEST POP POP POP POP PUSH1 0x40 MLOAD RETURNDATASIZE PUSH1 0x0 DUP3 RETURNDATACOPY RETURNDATASIZE PUSH1 0x1F NOT PUSH1 0x1F DUP3 ADD AND DUP3 ADD DUP1 PUSH1 0x40 MSTORE POP DUP2 ADD SWAP1 PUSH2 0x1450 SWAP2 SWAP1 PUSH2 0x26E7 JUMP JUMPDEST PUSH2 0x1459 DUP5 PUSH2 0x1B3B JUMP JUMPDEST PUSH2 0x1475 PUSH8 0xDE0B6B3A7640000 DUP6 PUSH2 0x1470 SWAP2 SWAP1 PUSH2 0x2B58 JUMP JUMPDEST PUSH2 0x1B3B JUMP JUMPDEST PUSH1 0x40 MLOAD PUSH1 0x20 ADD PUSH2 0x1487 SWAP4 SWAP3 SWAP2 SWAP1 PUSH2 0x340F JUMP JUMPDEST PUSH1 0x40 MLOAD PUSH1 0x20 DUP2 DUP4 SUB SUB DUP2 MSTORE SWAP1 PUSH1 0x40 MSTORE SWAP1 POP SWAP4 SWAP3 POP POP POP JUMP JUMPDEST PUSH1 0x60 PUSH1 0x0 PUSH1 0x40 MLOAD DUP1 PUSH1 0x40 ADD PUSH1 0x40 MSTORE DUP1 PUSH1 0x9 DUP2 MSTORE PUSH1 0x20 ADD PUSH32 0x436F6C6C6563746F720000000000000000000000000000000000000000000000 DUP2 MSTORE POP SWAP1 POP DUP3 ISZERO PUSH2 0x151A JUMPI PUSH1 0x40 MLOAD DUP1 PUSH1 0x40 ADD PUSH1 0x40 MSTORE DUP1 PUSH1 0x7 DUP2 MSTORE PUSH1 0x20 ADD PUSH32 0x4C696D6974656400000000000000000000000000000000000000000000000000 DUP2 MSTORE POP SWAP1 POP JUMPDEST DUP4 ISZERO PUSH2 0x1559 JUMPI PUSH1 0x40 MLOAD DUP1 PUSH1 0x40 ADD PUSH1 0x40 MSTORE DUP1 PUSH1 0x4 DUP2 MSTORE PUSH1 0x20 ADD PUSH32 0x4170657800000000000000000000000000000000000000000000000000000000 DUP2 MSTORE POP SWAP1 POP JUMPDEST DUP1 PUSH1 0x40 MLOAD PUSH1 0x20 ADD PUSH2 0x156A SWAP2 SWAP1 PUSH2 0x352A JUMP JUMPDEST PUSH1 0x40 MLOAD PUSH1 0x20 DUP2 DUP4 SUB SUB DUP2 MSTORE SWAP1 PUSH1 0x40 MSTORE SWAP2 POP POP SWAP3 SWAP2 POP POP JUMP JUMPDEST PUSH2 0x158A PUSH2 0x2264 JUMP JUMPDEST PUSH1 0x40 MLOAD DUP1 PUSH1 0x60 ADD PUSH1 0x40 MSTORE DUP1 PUSH2 0x107 DUP2 MSTORE PUSH1 0x20 ADD PUSH1 0x0 DUP2 MSTORE PUSH1 0x20 ADD PUSH1 0x2A DUP2 MSTORE POP SWAP1 POP SWAP1 JUMP JUMPDEST PUSH2 0x15B6 PUSH2 0x2264 JUMP JUMPDEST PUSH1 0x40 MLOAD DUP1 PUSH1 0x60 ADD PUSH1 0x40 MSTORE DUP1 PUSH1 0xA9 DUP2 MSTORE PUSH1 0x20 ADD PUSH1 0xD2 DUP2 MSTORE PUSH1 0x20 ADD PUSH2 0x131 DUP2 MSTORE POP SWAP1 POP SWAP1 JUMP JUMPDEST PUSH2 0x15E2 PUSH2 0x2264 JUMP JUMPDEST PUSH1 0x40 MLOAD DUP1 PUSH1 0x60 ADD PUSH1 0x40 MSTORE DUP1 PUSH1 0xA DUP2 MSTORE PUSH1 0x20 ADD PUSH1 0x32 DUP2 MSTORE PUSH1 0x20 ADD PUSH1 0x5A DUP2 MSTORE POP SWAP1 POP SWAP1 JUMP JUMPDEST PUSH2 0x160D PUSH2 0x2286 JUMP JUMPDEST PUSH1 0x40 MLOAD DUP1 PUSH1 0x80 ADD PUSH1 0x40 MSTORE DUP1 PUSH1 0x64 DUP2 MSTORE PUSH1 0x20 ADD PUSH1 0x64 DUP2 MSTORE PUSH1 0x20 ADD PUSH1 0x0 DUP2 MSTORE PUSH1 0x20 ADD PUSH1 0x0 DUP2 MSTORE POP SWAP1 POP SWAP1 JUMP JUMPDEST PUSH1 0x60 PUSH2 0x164D DUP3 PUSH1 0x0 ADD MLOAD PUSH1 0x0 DUP5 PUSH1 0x40 ADD MLOAD PUSH2 0x1C9B JUMP JUMPDEST PUSH1 0x40 MLOAD PUSH1 0x20 ADD PUSH2 0x165D SWAP2 SWAP1 PUSH2 0x35EF JUMP JUMPDEST PUSH1 0x40 MLOAD PUSH1 0x20 DUP2 DUP4 SUB SUB DUP2 MSTORE SWAP1 PUSH1 0x40 MSTORE SWAP1 POP SWAP2 SWAP1 POP JUMP JUMPDEST PUSH1 0x60 PUSH1 0x0 PUSH1 0x40 MLOAD DUP1 PUSH1 0x20 ADD PUSH1 0x40 MSTORE DUP1 PUSH1 0x0 DUP2 MSTORE POP SWAP1 POP PUSH1 0x0 JUMPDEST DUP4 DUP2 LT ISZERO PUSH2 0x16D3 JUMPI DUP2 PUSH2 0x169E DUP3 PUSH2 0x1D7C JUMP JUMPDEST PUSH1 0x40 MLOAD PUSH1 0x20 ADD PUSH2 0x16AF SWAP3 SWAP2 SWAP1 PUSH2 0x361C JUMP JUMPDEST PUSH1 0x40 MLOAD PUSH1 0x20 DUP2 DUP4 SUB SUB DUP2 MSTORE SWAP1 PUSH1 0x40 MSTORE SWAP2 POP DUP1 DUP1 PUSH2 0x16CB SWAP1 PUSH2 0x2B10 JUMP JUMPDEST SWAP2 POP POP PUSH2 0x168C JUMP JUMPDEST POP DUP1 PUSH2 0x16DD PUSH2 0x1DAD JUMP JUMPDEST PUSH1 0x40 MLOAD PUSH1 0x20 ADD PUSH2 0x16EE SWAP3 SWAP2 SWAP1 PUSH2 0x36D8 JUMP JUMPDEST PUSH1 0x40 MLOAD PUSH1 0x20 DUP2 DUP4 SUB SUB DUP2 MSTORE SWAP1 PUSH1 0x40 MSTORE SWAP2 POP POP SWAP2 SWAP1 POP JUMP JUMPDEST PUSH1 0x60 DUP3 PUSH2 0x1727 DUP4 PUSH20 0xFFFFFFFFFFFFFFFFFFFFFFFFFFFFFFFFFFFFFFFF AND PUSH2 0x1DCD JUMP JUMPDEST PUSH1 0x40 MLOAD PUSH1 0x20 ADD PUSH2 0x1738 SWAP3 SWAP2 SWAP1 PUSH2 0x3842 JUMP JUMPDEST PUSH1 0x40 MLOAD PUSH1 0x20 DUP2 DUP4 SUB SUB DUP2 MSTORE SWAP1 PUSH1 0x40 MSTORE SWAP1 POP SWAP3 SWAP2 POP POP JUMP JUMPDEST PUSH1 0x60 PUSH1 0x0 DUP1 DUP4 GT PUSH2 0x176F JUMPI PUSH1 0x40 MLOAD DUP1 PUSH1 0x20 ADD PUSH1 0x40 MSTORE DUP1 PUSH1 0x0 DUP2 MSTORE POP PUSH2 0x17AB JUMP JUMPDEST PUSH2 0x178B PUSH8 0xDE0B6B3A7640000 DUP5 PUSH2 0x1786 SWAP2 SWAP1 PUSH2 0x2B58 JUMP JUMPDEST PUSH2 0x9BB JUMP JUMPDEST PUSH1 0x40 MLOAD PUSH1 0x20 ADD PUSH2 0x179B SWAP2 SWAP1 PUSH2 0x38AD JUMP JUMPDEST PUSH1 0x40 MLOAD PUSH1 0x20 DUP2 DUP4 SUB SUB DUP2 MSTORE SWAP1 PUSH1 0x40 MSTORE JUMPDEST PUSH2 0x17B4 DUP9 PUSH2 0x1B3B JUMP JUMPDEST DUP6 PUSH1 0x40 MLOAD PUSH1 0x20 ADD PUSH2 0x17C7 SWAP4 SWAP3 SWAP2 SWAP1 PUSH2 0x3B33 JUMP JUMPDEST PUSH1 0x40 MLOAD PUSH1 0x20 DUP2 DUP4 SUB SUB DUP2 MSTORE SWAP1 PUSH1 0x40 MSTORE SWAP1 POP PUSH1 0x0 PUSH2 0x17E3 DUP8 PUSH2 0x1B3B JUMP JUMPDEST PUSH2 0x17F8 PUSH1 0xA DUP9 PUSH2 0x17F3 SWAP2 SWAP1 PUSH2 0x2B58 JUMP JUMPDEST PUSH2 0x1B3B JUMP JUMPDEST PUSH1 0x40 MLOAD PUSH1 0x20 ADD PUSH2 0x1809 SWAP3 SWAP2 SWAP1 PUSH2 0x3D0C JUMP JUMPDEST PUSH1 0x40 MLOAD PUSH1 0x20 DUP2 DUP4 SUB SUB DUP2 MSTORE SWAP1 PUSH1 0x40 MSTORE SWAP1 POP DUP2 DUP2 PUSH1 0x40 MLOAD PUSH1 0x20 ADD PUSH2 0x182D SWAP3 SWAP2 SWAP1 PUSH2 0x3D51 JUMP JUMPDEST PUSH1 0x40 MLOAD PUSH1 0x20 DUP2 DUP4 SUB SUB DUP2 MSTORE SWAP1 PUSH1 0x40 MSTORE SWAP3 POP POP POP SWAP6 SWAP5 POP POP POP POP POP JUMP JUMPDEST PUSH1 0x60 PUSH1 0x0 PUSH2 0x1856 DUP7 PUSH2 0x1B3B JUMP JUMPDEST PUSH2 0x185F DUP7 PUSH2 0x1B3B JUMP JUMPDEST PUSH1 0x40 MLOAD PUSH1 0x20 ADD PUSH2 0x1870 SWAP3 SWAP2 SWAP1 PUSH2 0x3EA5 JUMP JUMPDEST PUSH1 0x40 MLOAD PUSH1 0x20 DUP2 DUP4 SUB SUB DUP2 MSTORE SWAP1 PUSH1 0x40 MSTORE SWAP1 POP PUSH1 0x0 PUSH2 0x188D DUP6 DUP6 PUSH2 0x1DFA JUMP JUMPDEST DUP9 PUSH20 0x0 PUSH4 0xB5D987E3 SWAP1 SWAP2 PUSH1 0x40 MLOAD DUP3 PUSH4 0xFFFFFFFF AND PUSH1 0xE0 SHL DUP2 MSTORE PUSH1 0x4 ADD PUSH2 0x18C6 SWAP2 SWAP1 PUSH2 0x2553 JUMP JUMPDEST PUSH1 0x0 PUSH1 0x40 MLOAD DUP1 DUP4 SUB DUP2 DUP7 GAS DELEGATECALL ISZERO DUP1 ISZERO PUSH2 0x18E3 JUMPI RETURNDATASIZE PUSH1 0x0 DUP1 RETURNDATACOPY RETURNDATASIZE PUSH1 0x0 REVERT JUMPDEST POP POP POP POP PUSH1 0x40 MLOAD RETURNDATASIZE PUSH1 0x0 DUP3 RETURNDATACOPY RETURNDATASIZE PUSH1 0x1F NOT PUSH1 0x1F DUP3 ADD AND DUP3 ADD DUP1 PUSH1 0x40 MSTORE POP DUP2 ADD SWAP1 PUSH2 0x190C SWAP2 SWAP1 PUSH2 0x26E7 JUMP JUMPDEST PUSH1 0x40 MLOAD PUSH1 0x20 ADD PUSH2 0x191D SWAP3 SWAP2 SWAP1 PUSH2 0x400F JUMP JUMPDEST PUSH1 0x40 MLOAD PUSH1 0x20 DUP2 DUP4 SUB SUB DUP2 MSTORE SWAP1 PUSH1 0x40 MSTORE SWAP1 POP DUP2 DUP2 PUSH1 0x40 MLOAD PUSH1 0x20 ADD PUSH2 0x1941 SWAP3 SWAP2 SWAP1 PUSH2 0x3D51 JUMP JUMPDEST PUSH1 0x40 MLOAD PUSH1 0x20 DUP2 DUP4 SUB SUB DUP2 MSTORE SWAP1 PUSH1 0x40 MSTORE SWAP3 POP POP POP SWAP6 SWAP5 POP POP POP POP POP JUMP JUMPDEST PUSH1 0x60 PUSH20 0x0 PUSH4 0x831B46A1 PUSH1 0x40 MLOAD DUP1 PUSH2 0x340 ADD PUSH1 0x40 MSTORE DUP1 PUSH2 0x318 DUP2 MSTORE PUSH1 0x20 ADD PUSH2 0x4D5A PUSH2 0x318 SWAP2 CODECOPY DUP5 PUSH1 0x40 MLOAD DUP4 PUSH4 0xFFFFFFFF AND PUSH1 0xE0 SHL DUP2 MSTORE PUSH1 0x4 ADD PUSH2 0x19B3 SWAP3 SWAP2 SWAP1 PUSH2 0x282A JUMP JUMPDEST PUSH1 0x0 PUSH1 0x40 MLOAD DUP1 DUP4 SUB DUP2 DUP7 GAS DELEGATECALL ISZERO DUP1 ISZERO PUSH2 0x19D0 JUMPI RETURNDATASIZE PUSH1 0x0 DUP1 RETURNDATACOPY RETURNDATASIZE PUSH1 0x0 REVERT JUMPDEST POP POP POP POP PUSH1 0x40 MLOAD RETURNDATASIZE PUSH1 0x0 DUP3 RETURNDATACOPY RETURNDATASIZE PUSH1 0x1F NOT PUSH1 0x1F DUP3 ADD AND DUP3 ADD DUP1 PUSH1 0x40 MSTORE POP DUP2 ADD SWAP1 PUSH2 0x19F9 SWAP2 SWAP1 PUSH2 0x26E7 JUMP JUMPDEST PUSH1 0x40 MLOAD PUSH1 0x20 ADD PUSH2 0x1A09 SWAP2 SWAP1 PUSH2 0x40EC JUMP JUMPDEST PUSH1 0x40 MLOAD PUSH1 0x20 DUP2 DUP4 SUB SUB DUP2 MSTORE SWAP1 PUSH1 0x40 MSTORE SWAP1 POP SWAP2 SWAP1 POP JUMP JUMPDEST PUSH1 0x60 DUP2 PUSH2 0x1A3D JUMPI PUSH1 0x40 MLOAD DUP1 PUSH1 0x20 ADD PUSH1 0x40 MSTORE DUP1 PUSH1 0x0 DUP2 MSTORE POP SWAP1 POP PUSH2 0x1A5E JUMP JUMPDEST PUSH1 0x40 MLOAD PUSH1 0x20 ADD PUSH2 0x1A4C SWAP1 PUSH2 0x432D JUMP JUMPDEST PUSH1 0x40 MLOAD PUSH1 0x20 DUP2 DUP4 SUB SUB DUP2 MSTORE SWAP1 PUSH1 0x40 MSTORE SWAP1 POP JUMPDEST SWAP2 SWAP1 POP JUMP JUMPDEST PUSH2 0x1A6B PUSH2 0x22A8 JUMP JUMPDEST PUSH1 0x40 MLOAD DUP1 PUSH2 0x100 ADD PUSH1 0x40 MSTORE DUP1 PUSH2 0x168 DUP2 MSTORE PUSH1 0x20 ADD PUSH1 0x1 DUP2 MSTORE PUSH1 0x20 ADD PUSH1 0x1E DUP2 MSTORE PUSH1 0x20 ADD PUSH1 0x3C DUP2 MSTORE PUSH1 0x20 ADD PUSH1 0x78 DUP2 MSTORE PUSH1 0x20 ADD PUSH1 0xB4 DUP2 MSTORE PUSH1 0x20 ADD PUSH1 0xF0 DUP2 MSTORE PUSH1 0x20 ADD PUSH2 0x12C DUP2 MSTORE POP SWAP1 POP SWAP1 JUMP JUMPDEST PUSH1 0x0 PUSH2 0x1D4C DUP3 DUP5 PUSH2 0x1AC5 SWAP2 SWAP1 PUSH2 0x2E2B JUMP JUMPDEST PUSH2 0x1ACF SWAP2 SWAP1 PUSH2 0x2B58 JUMP JUMPDEST SWAP1 POP SWAP3 SWAP2 POP POP JUMP JUMPDEST PUSH2 0x1ADF PUSH2 0x2286 JUMP JUMPDEST PUSH1 0x40 MLOAD DUP1 PUSH1 0x80 ADD PUSH1 0x40 MSTORE DUP1 PUSH1 0x96 DUP2 MSTORE PUSH1 0x20 ADD PUSH1 0x96 DUP2 MSTORE PUSH1 0x20 ADD PUSH1 0x14 DUP2 MSTORE PUSH1 0x20 ADD PUSH1 0x14 DUP2 MSTORE POP SWAP1 POP SWAP1 JUMP JUMPDEST PUSH2 0x1B11 PUSH2 0x2286 JUMP JUMPDEST PUSH1 0x40 MLOAD DUP1 PUSH1 0x80 ADD PUSH1 0x40 MSTORE DUP1 PUSH1 0x64 DUP2 MSTORE PUSH1 0x20 ADD PUSH1 0x64 DUP2 MSTORE PUSH1 0x20 ADD PUSH1 0x14 DUP2 MSTORE PUSH1 0x20 ADD PUSH1 0x14 DUP2 MSTORE POP SWAP1 POP SWAP1 JUMP JUMPDEST PUSH1 0x60 PUSH1 0x0 DUP3 SUB PUSH2 0x1B82 JUMPI PUSH1 0x40 MLOAD DUP1 PUSH1 0x40 ADD PUSH1 0x40 MSTORE DUP1 PUSH1 0x1 DUP2 MSTORE PUSH1 0x20 ADD PUSH32 0x3000000000000000000000000000000000000000000000000000000000000000 DUP2 MSTORE POP SWAP1 POP PUSH2 0x1C96 JUMP JUMPDEST PUSH1 0x0 DUP3 SWAP1 POP PUSH1 0x0 JUMPDEST PUSH1 0x0 DUP3 EQ PUSH2 0x1BB4 JUMPI DUP1 DUP1 PUSH2 0x1B9D SWAP1 PUSH2 0x2B10 JUMP JUMPDEST SWAP2 POP POP PUSH1 0xA DUP3 PUSH2 0x1BAD SWAP2 SWAP1 PUSH2 0x2B58 JUMP JUMPDEST SWAP2 POP PUSH2 0x1B8A JUMP JUMPDEST PUSH1 0x0 DUP2 PUSH8 0xFFFFFFFFFFFFFFFF DUP2 GT ISZERO PUSH2 0x1BD0 JUMPI PUSH2 0x1BCF PUSH2 0x25CB JUMP JUMPDEST JUMPDEST PUSH1 0x40 MLOAD SWAP1 DUP1 DUP3 MSTORE DUP1 PUSH1 0x1F ADD PUSH1 0x1F NOT AND PUSH1 0x20 ADD DUP3 ADD PUSH1 0x40 MSTORE DUP1 ISZERO PUSH2 0x1C02 JUMPI DUP2 PUSH1 0x20 ADD PUSH1 0x1 DUP3 MUL DUP1 CALLDATASIZE DUP4 CALLDATACOPY DUP1 DUP3 ADD SWAP2 POP POP SWAP1 POP JUMPDEST POP SWAP1 POP JUMPDEST PUSH1 0x0 DUP6 EQ PUSH2 0x1C8F JUMPI PUSH1 0x1 DUP3 PUSH2 0x1C1B SWAP2 SWAP1 PUSH2 0x2B89 JUMP JUMPDEST SWAP2 POP PUSH1 0xA DUP6 PUSH2 0x1C2A SWAP2 SWAP1 PUSH2 0x28B3 JUMP JUMPDEST PUSH1 0x30 PUSH2 0x1C36 SWAP2 SWAP1 PUSH2 0x2BBD JUMP JUMPDEST PUSH1 0xF8 SHL DUP2 DUP4 DUP2 MLOAD DUP2 LT PUSH2 0x1C4C JUMPI PUSH2 0x1C4B PUSH2 0x2BF1 JUMP JUMPDEST JUMPDEST PUSH1 0x20 ADD ADD SWAP1 PUSH31 0xFFFFFFFFFFFFFFFFFFFFFFFFFFFFFFFFFFFFFFFFFFFFFFFFFFFFFFFFFFFFFF NOT AND SWAP1 DUP2 PUSH1 0x0 BYTE SWAP1 MSTORE8 POP PUSH1 0xA DUP6 PUSH2 0x1C88 SWAP2 SWAP1 PUSH2 0x2B58 JUMP JUMPDEST SWAP5 POP PUSH2 0x1C06 JUMP JUMPDEST DUP1 SWAP4 POP POP POP POP JUMPDEST SWAP2 SWAP1 POP JUMP JUMPDEST PUSH1 0x60 PUSH1 0x0 PUSH1 0x40 MLOAD DUP1 PUSH1 0x20 ADD PUSH1 0x40 MSTORE DUP1 PUSH1 0x0 DUP2 MSTORE POP SWAP1 POP PUSH1 0x0 JUMPDEST DUP6 MLOAD DUP2 LT ISZERO PUSH2 0x1D3D JUMPI PUSH1 0x0 DUP7 DUP3 DUP2 MLOAD DUP2 LT PUSH2 0x1CD2 JUMPI PUSH2 0x1CD1 PUSH2 0x2BF1 JUMP JUMPDEST JUMPDEST PUSH1 0x20 MUL PUSH1 0x20 ADD ADD MLOAD PUSH1 0x0 ADD MLOAD EQ PUSH2 0x1D2A JUMPI DUP2 PUSH2 0x1D07 DUP8 DUP4 DUP2 MLOAD DUP2 LT PUSH2 0x1CFA JUMPI PUSH2 0x1CF9 PUSH2 0x2BF1 JUMP JUMPDEST JUMPDEST PUSH1 0x20 MUL PUSH1 0x20 ADD ADD MLOAD PUSH2 0x1E85 JUMP JUMPDEST PUSH1 0x40 MLOAD PUSH1 0x20 ADD PUSH2 0x1D18 SWAP3 SWAP2 SWAP1 PUSH2 0x361C JUMP JUMPDEST PUSH1 0x40 MLOAD PUSH1 0x20 DUP2 DUP4 SUB SUB DUP2 MSTORE SWAP1 PUSH1 0x40 MSTORE SWAP2 POP JUMPDEST DUP1 DUP1 PUSH2 0x1D35 SWAP1 PUSH2 0x2B10 JUMP JUMPDEST SWAP2 POP POP PUSH2 0x1CB4 JUMP JUMPDEST POP PUSH2 0x1D47 DUP4 PUSH2 0x1ED2 JUMP JUMPDEST PUSH2 0x1D50 DUP6 PUSH2 0x1B3B JUMP JUMPDEST DUP3 PUSH1 0x40 MLOAD PUSH1 0x20 ADD PUSH2 0x1D63 SWAP4 SWAP3 SWAP2 SWAP1 PUSH2 0x447D JUMP JUMPDEST PUSH1 0x40 MLOAD PUSH1 0x20 DUP2 DUP4 SUB SUB DUP2 MSTORE SWAP1 PUSH1 0x40 MSTORE SWAP2 POP POP SWAP4 SWAP3 POP POP POP JUMP JUMPDEST PUSH1 0x60 PUSH2 0x1D87 DUP3 PUSH2 0x1B3B JUMP JUMPDEST PUSH1 0x40 MLOAD PUSH1 0x20 ADD PUSH2 0x1D97 SWAP2 SWAP1 PUSH2 0x45BE JUMP JUMPDEST PUSH1 0x40 MLOAD PUSH1 0x20 DUP2 DUP4 SUB SUB DUP2 MSTORE SWAP1 PUSH1 0x40 MSTORE SWAP1 POP SWAP2 SWAP1 POP JUMP JUMPDEST PUSH1 0x60 PUSH1 0x40 MLOAD DUP1 PUSH1 0xC0 ADD PUSH1 0x40 MSTORE DUP1 PUSH1 0x94 DUP2 MSTORE PUSH1 0x20 ADD PUSH2 0x62AC PUSH1 0x94 SWAP2 CODECOPY SWAP1 POP SWAP1 JUMP JUMPDEST PUSH1 0x60 PUSH2 0x1DF3 DUP3 PUSH20 0xFFFFFFFFFFFFFFFFFFFFFFFFFFFFFFFFFFFFFFFF AND PUSH1 0x14 PUSH1 0xFF AND PUSH2 0x1F81 JUMP JUMPDEST SWAP1 POP SWAP2 SWAP1 POP JUMP JUMPDEST PUSH1 0x60 PUSH1 0x1 DUP3 SUB PUSH2 0x1E33 JUMPI PUSH2 0x1E0D DUP4 PUSH2 0x1B3B JUMP JUMPDEST PUSH1 0x40 MLOAD PUSH1 0x20 ADD PUSH2 0x1E1D SWAP2 SWAP1 PUSH2 0x45EB JUMP JUMPDEST PUSH1 0x40 MLOAD PUSH1 0x20 DUP2 DUP4 SUB SUB DUP2 MSTORE SWAP1 PUSH1 0x40 MSTORE SWAP1 POP PUSH2 0x1E7F JUMP JUMPDEST PUSH2 0x1E3C DUP4 PUSH2 0x1B3B JUMP JUMPDEST PUSH2 0x1E5C PUSH1 0x1 DUP5 DUP7 PUSH2 0x1E4D SWAP2 SWAP1 PUSH2 0x2BBD JUMP JUMPDEST PUSH2 0x1E57 SWAP2 SWAP1 PUSH2 0x2B89 JUMP JUMPDEST PUSH2 0x1B3B JUMP JUMPDEST PUSH1 0x40 MLOAD PUSH1 0x20 ADD PUSH2 0x1E6D SWAP3 SWAP2 SWAP1 PUSH2 0x464E JUMP JUMPDEST PUSH1 0x40 MLOAD PUSH1 0x20 DUP2 DUP4 SUB SUB DUP2 MSTORE SWAP1 PUSH1 0x40 MSTORE SWAP1 POP JUMPDEST SWAP3 SWAP2 POP POP JUMP JUMPDEST PUSH1 0x60 PUSH2 0x1E90 DUP3 PUSH2 0x21BD JUMP JUMPDEST PUSH2 0x1E9D DUP4 PUSH1 0x60 ADD MLOAD PUSH2 0x1B3B JUMP JUMPDEST PUSH2 0x1EAA DUP5 PUSH1 0x80 ADD MLOAD PUSH2 0x1B3B JUMP JUMPDEST PUSH1 0x40 MLOAD PUSH1 0x20 ADD PUSH2 0x1EBC SWAP4 SWAP3 SWAP2 SWAP1 PUSH2 0x47AD JUMP JUMPDEST PUSH1 0x40 MLOAD PUSH1 0x20 DUP2 DUP4 SUB SUB DUP2 MSTORE SWAP1 PUSH1 0x40 MSTORE SWAP1 POP SWAP2 SWAP1 POP JUMP JUMPDEST PUSH1 0x60 PUSH2 0x1EF5 DUP3 PUSH1 0x0 PUSH1 0x4 DUP2 LT PUSH2 0x1EEB JUMPI PUSH2 0x1EEA PUSH2 0x2BF1 JUMP JUMPDEST JUMPDEST PUSH1 0x20 MUL ADD MLOAD PUSH2 0x1B3B JUMP JUMPDEST PUSH2 0x1F16 DUP4 PUSH1 0x1 PUSH1 0x4 DUP2 LT PUSH2 0x1F0C JUMPI PUSH2 0x1F0B PUSH2 0x2BF1 JUMP JUMPDEST JUMPDEST PUSH1 0x20 MUL ADD MLOAD PUSH2 0x1B3B JUMP JUMPDEST PUSH2 0x1F37 DUP5 PUSH1 0x2 PUSH1 0x4 DUP2 LT PUSH2 0x1F2D JUMPI PUSH2 0x1F2C PUSH2 0x2BF1 JUMP JUMPDEST JUMPDEST PUSH1 0x20 MUL ADD MLOAD PUSH2 0x1B3B JUMP JUMPDEST PUSH2 0x1F58 DUP6 PUSH1 0x3 PUSH1 0x4 DUP2 LT PUSH2 0x1F4E JUMPI PUSH2 0x1F4D PUSH2 0x2BF1 JUMP JUMPDEST JUMPDEST PUSH1 0x20 MUL ADD MLOAD PUSH2 0x1B3B JUMP JUMPDEST PUSH1 0x40 MLOAD PUSH1 0x20 ADD PUSH2 0x1F6B SWAP5 SWAP4 SWAP3 SWAP2 SWAP1 PUSH2 0x4986 JUMP JUMPDEST PUSH1 0x40 MLOAD PUSH1 0x20 DUP2 DUP4 SUB SUB DUP2 MSTORE SWAP1 PUSH1 0x40 MSTORE SWAP1 POP SWAP2 SWAP1 POP JUMP JUMPDEST PUSH1 0x60 PUSH1 0x0 PUSH1 0x2 DUP4 PUSH1 0x2 PUSH2 0x1F94 SWAP2 SWAP1 PUSH2 0x2E2B JUMP JUMPDEST PUSH2 0x1F9E SWAP2 SWAP1 PUSH2 0x2BBD JUMP JUMPDEST PUSH8 0xFFFFFFFFFFFFFFFF DUP2 GT ISZERO PUSH2 0x1FB7 JUMPI PUSH2 0x1FB6 PUSH2 0x25CB JUMP JUMPDEST JUMPDEST PUSH1 0x40 MLOAD SWAP1 DUP1 DUP3 MSTORE DUP1 PUSH1 0x1F ADD PUSH1 0x1F NOT AND PUSH1 0x20 ADD DUP3 ADD PUSH1 0x40 MSTORE DUP1 ISZERO PUSH2 0x1FE9 JUMPI DUP2 PUSH1 0x20 ADD PUSH1 0x1 DUP3 MUL DUP1 CALLDATASIZE DUP4 CALLDATACOPY DUP1 DUP3 ADD SWAP2 POP POP SWAP1 POP JUMPDEST POP SWAP1 POP PUSH32 0x3000000000000000000000000000000000000000000000000000000000000000 DUP2 PUSH1 0x0 DUP2 MLOAD DUP2 LT PUSH2 0x2021 JUMPI PUSH2 0x2020 PUSH2 0x2BF1 JUMP JUMPDEST JUMPDEST PUSH1 0x20 ADD ADD SWAP1 PUSH31 0xFFFFFFFFFFFFFFFFFFFFFFFFFFFFFFFFFFFFFFFFFFFFFFFFFFFFFFFFFFFFFF NOT AND SWAP1 DUP2 PUSH1 0x0 BYTE SWAP1 MSTORE8 POP PUSH32 0x7800000000000000000000000000000000000000000000000000000000000000 DUP2 PUSH1 0x1 DUP2 MLOAD DUP2 LT PUSH2 0x2085 JUMPI PUSH2 0x2084 PUSH2 0x2BF1 JUMP JUMPDEST JUMPDEST PUSH1 0x20 ADD ADD SWAP1 PUSH31 0xFFFFFFFFFFFFFFFFFFFFFFFFFFFFFFFFFFFFFFFFFFFFFFFFFFFFFFFFFFFFFF NOT AND SWAP1 DUP2 PUSH1 0x0 BYTE SWAP1 MSTORE8 POP PUSH1 0x0 PUSH1 0x1 DUP5 PUSH1 0x2 PUSH2 0x20C5 SWAP2 SWAP1 PUSH2 0x2E2B JUMP JUMPDEST PUSH2 0x20CF SWAP2 SWAP1 PUSH2 0x2BBD JUMP JUMPDEST SWAP1 POP JUMPDEST PUSH1 0x1 DUP2 GT ISZERO PUSH2 0x216F JUMPI PUSH32 0x3031323334353637383961626364656600000000000000000000000000000000 PUSH1 0xF DUP7 AND PUSH1 0x10 DUP2 LT PUSH2 0x2111 JUMPI PUSH2 0x2110 PUSH2 0x2BF1 JUMP JUMPDEST JUMPDEST BYTE PUSH1 0xF8 SHL DUP3 DUP3 DUP2 MLOAD DUP2 LT PUSH2 0x2128 JUMPI PUSH2 0x2127 PUSH2 0x2BF1 JUMP JUMPDEST JUMPDEST PUSH1 0x20 ADD ADD SWAP1 PUSH31 0xFFFFFFFFFFFFFFFFFFFFFFFFFFFFFFFFFFFFFFFFFFFFFFFFFFFFFFFFFFFFFF NOT AND SWAP1 DUP2 PUSH1 0x0 BYTE SWAP1 MSTORE8 POP PUSH1 0x4 DUP6 SWAP1 SHR SWAP5 POP DUP1 PUSH2 0x2168 SWAP1 PUSH2 0x49FB JUMP JUMPDEST SWAP1 POP PUSH2 0x20D2 JUMP JUMPDEST POP PUSH1 0x0 DUP5 EQ PUSH2 0x21B3 JUMPI PUSH1 0x40 MLOAD PUSH32 0x8C379A000000000000000000000000000000000000000000000000000000000 DUP2 MSTORE PUSH1 0x4 ADD PUSH2 0x21AA SWAP1 PUSH2 0x4A81 JUMP JUMPDEST PUSH1 0x40 MLOAD DUP1 SWAP2 SUB SWAP1 REVERT JUMPDEST DUP1 SWAP2 POP POP SWAP3 SWAP2 POP POP JUMP JUMPDEST PUSH1 0x60 PUSH2 0x21CC DUP3 PUSH1 0x0 ADD MLOAD PUSH2 0x1B3B JUMP JUMPDEST PUSH2 0x21D9 DUP4 PUSH1 0x20 ADD MLOAD PUSH2 0x1B3B JUMP JUMPDEST PUSH2 0x21E6 DUP5 PUSH1 0x40 ADD MLOAD PUSH2 0x1B3B JUMP JUMPDEST PUSH1 0x40 MLOAD PUSH1 0x20 ADD PUSH2 0x21F8 SWAP4 SWAP3 SWAP2 SWAP1 PUSH2 0x4BD1 JUMP JUMPDEST PUSH1 0x40 MLOAD PUSH1 0x20 DUP2 DUP4 SUB SUB DUP2 MSTORE SWAP1 PUSH1 0x40 MSTORE SWAP1 POP SWAP2 SWAP1 POP JUMP JUMPDEST PUSH1 0x40 MLOAD DUP1 PUSH1 0xA0 ADD PUSH1 0x40 MSTORE DUP1 PUSH1 0x0 DUP2 MSTORE PUSH1 0x20 ADD PUSH1 0x0 DUP2 MSTORE PUSH1 0x20 ADD PUSH1 0x0 DUP2 MSTORE PUSH1 0x20 ADD PUSH1 0x0 DUP2 MSTORE PUSH1 0x20 ADD PUSH1 0x0 DUP2 MSTORE POP SWAP1 JUMP JUMPDEST PUSH1 0x40 MLOAD DUP1 PUSH1 0x60 ADD PUSH1 0x40 MSTORE DUP1 PUSH1 0x60 DUP2 MSTORE PUSH1 0x20 ADD PUSH1 0x0 DUP2 MSTORE PUSH1 0x20 ADD PUSH2 0x225E PUSH2 0x2286 JUMP JUMPDEST DUP2 MSTORE POP SWAP1 JUMP JUMPDEST PUSH1 0x40 MLOAD DUP1 PUSH1 0x60 ADD PUSH1 0x40 MSTORE DUP1 PUSH1 0x3 SWAP1 PUSH1 0x20 DUP3 MUL DUP1 CALLDATASIZE DUP4 CALLDATACOPY DUP1 DUP3 ADD SWAP2 POP POP SWAP1 POP POP SWAP1 JUMP JUMPDEST PUSH1 0x40 MLOAD DUP1 PUSH1 0x80 ADD PUSH1 0x40 MSTORE DUP1 PUSH1 0x4 SWAP1 PUSH1 0x20 DUP3 MUL DUP1 CALLDATASIZE DUP4 CALLDATACOPY DUP1 DUP3 ADD SWAP2 POP POP SWAP1 POP POP SWAP1 JUMP JUMPDEST PUSH1 0x40 MLOAD DUP1 PUSH2 0x100 ADD PUSH1 0x40 MSTORE DUP1 PUSH1 0x8 SWAP1 PUSH1 0x20 DUP3 MUL DUP1 CALLDATASIZE DUP4 CALLDATACOPY DUP1 DUP3 ADD SWAP2 POP POP SWAP1 POP POP SWAP1 JUMP JUMPDEST PUSH1 0x0 PUSH1 0x40 MLOAD SWAP1 POP SWAP1 JUMP JUMPDEST PUSH1 0x0 DUP1 REVERT JUMPDEST PUSH1 0x0 DUP1 REVERT JUMPDEST PUSH1 0x0 DUP2 SWAP1 POP SWAP2 SWAP1 POP JUMP JUMPDEST PUSH2 0x22F2 DUP2 PUSH2 0x22DF JUMP JUMPDEST DUP2 EQ PUSH2 0x22FD JUMPI PUSH1 0x0 DUP1 REVERT JUMPDEST POP JUMP JUMPDEST PUSH1 0x0 DUP2 CALLDATALOAD SWAP1 POP PUSH2 0x230F DUP2 PUSH2 0x22E9 JUMP JUMPDEST SWAP3 SWAP2 POP POP JUMP JUMPDEST PUSH1 0x0 PUSH1 0x20 DUP3 DUP5 SUB SLT ISZERO PUSH2 0x232B JUMPI PUSH2 0x232A PUSH2 0x22D5 JUMP JUMPDEST JUMPDEST PUSH1 0x0 PUSH2 0x2339 DUP5 DUP3 DUP6 ADD PUSH2 0x2300 JUMP JUMPDEST SWAP2 POP POP SWAP3 SWAP2 POP POP JUMP JUMPDEST PUSH1 0x0 DUP2 MLOAD SWAP1 POP SWAP2 SWAP1 POP JUMP JUMPDEST PUSH1 0x0 DUP3 DUP3 MSTORE PUSH1 0x20 DUP3 ADD SWAP1 POP SWAP3 SWAP2 POP POP JUMP JUMPDEST PUSH1 0x0 JUMPDEST DUP4 DUP2 LT ISZERO PUSH2 0x237C JUMPI DUP1 DUP3 ADD MLOAD DUP2 DUP5 ADD MSTORE PUSH1 0x20 DUP2 ADD SWAP1 POP PUSH2 0x2361 JUMP JUMPDEST PUSH1 0x0 DUP5 DUP5 ADD MSTORE POP POP POP POP JUMP JUMPDEST PUSH1 0x0 PUSH1 0x1F NOT PUSH1 0x1F DUP4 ADD AND SWAP1 POP SWAP2 SWAP1 POP JUMP JUMPDEST PUSH1 0x0 PUSH2 0x23A4 DUP3 PUSH2 0x2342 JUMP JUMPDEST PUSH2 0x23AE DUP2 DUP6 PUSH2 0x234D JUMP JUMPDEST SWAP4 POP PUSH2 0x23BE DUP2 DUP6 PUSH1 0x20 DUP7 ADD PUSH2 0x235E JUMP JUMPDEST PUSH2 0x23C7 DUP2 PUSH2 0x2388 JUMP JUMPDEST DUP5 ADD SWAP2 POP POP SWAP3 SWAP2 POP POP JUMP JUMPDEST PUSH1 0x0 PUSH1 0x20 DUP3 ADD SWAP1 POP DUP2 DUP2 SUB PUSH1 0x0 DUP4 ADD MSTORE PUSH2 0x23EC DUP2 DUP5 PUSH2 0x2399 JUMP JUMPDEST SWAP1 POP SWAP3 SWAP2 POP POP JUMP JUMPDEST PUSH1 0x0 PUSH20 0xFFFFFFFFFFFFFFFFFFFFFFFFFFFFFFFFFFFFFFFF DUP3 AND SWAP1 POP SWAP2 SWAP1 POP JUMP JUMPDEST PUSH1 0x0 PUSH2 0x241F DUP3 PUSH2 0x23F4 JUMP JUMPDEST SWAP1 POP SWAP2 SWAP1 POP JUMP JUMPDEST PUSH2 0x242F DUP2 PUSH2 0x2414 JUMP JUMPDEST DUP2 EQ PUSH2 0x243A JUMPI PUSH1 0x0 DUP1 REVERT JUMPDEST POP JUMP JUMPDEST PUSH1 0x0 DUP2 CALLDATALOAD SWAP1 POP PUSH2 0x244C DUP2 PUSH2 0x2426 JUMP JUMPDEST SWAP3 SWAP2 POP POP JUMP JUMPDEST PUSH1 0x0 DUP1 PUSH1 0x0 DUP1 PUSH1 0x0 PUSH1 0xA0 DUP7 DUP9 SUB SLT ISZERO PUSH2 0x246E JUMPI PUSH2 0x246D PUSH2 0x22D5 JUMP JUMPDEST JUMPDEST PUSH1 0x0 PUSH2 0x247C DUP9 DUP3 DUP10 ADD PUSH2 0x2300 JUMP JUMPDEST SWAP6 POP POP PUSH1 0x20 PUSH2 0x248D DUP9 DUP3 DUP10 ADD PUSH2 0x2300 JUMP JUMPDEST SWAP5 POP POP PUSH1 0x40 PUSH2 0x249E DUP9 DUP3 DUP10 ADD PUSH2 0x2300 JUMP JUMPDEST SWAP4 POP POP PUSH1 0x60 PUSH2 0x24AF DUP9 DUP3 DUP10 ADD PUSH2 0x243D JUMP JUMPDEST SWAP3 POP POP PUSH1 0x80 PUSH2 0x24C0 DUP9 DUP3 DUP10 ADD PUSH2 0x2300 JUMP JUMPDEST SWAP2 POP POP SWAP3 SWAP6 POP SWAP3 SWAP6 SWAP1 SWAP4 POP JUMP JUMPDEST PUSH1 0x0 DUP2 MLOAD SWAP1 POP SWAP2 SWAP1 POP JUMP JUMPDEST PUSH1 0x0 DUP3 DUP3 MSTORE PUSH1 0x20 DUP3 ADD SWAP1 POP SWAP3 SWAP2 POP POP JUMP JUMPDEST PUSH1 0x0 PUSH2 0x24F4 DUP3 PUSH2 0x24CD JUMP JUMPDEST PUSH2 0x24FE DUP2 DUP6 PUSH2 0x24D8 JUMP JUMPDEST SWAP4 POP PUSH2 0x250E DUP2 DUP6 PUSH1 0x20 DUP7 ADD PUSH2 0x235E JUMP JUMPDEST PUSH2 0x2517 DUP2 PUSH2 0x2388 JUMP JUMPDEST DUP5 ADD SWAP2 POP POP SWAP3 SWAP2 POP POP JUMP JUMPDEST PUSH1 0x0 PUSH1 0x20 DUP3 ADD SWAP1 POP DUP2 DUP2 SUB PUSH1 0x0 DUP4 ADD MSTORE PUSH2 0x253C DUP2 DUP5 PUSH2 0x24E9 JUMP JUMPDEST SWAP1 POP SWAP3 SWAP2 POP POP JUMP JUMPDEST PUSH2 0x254D DUP2 PUSH2 0x22DF JUMP JUMPDEST DUP3 MSTORE POP POP JUMP JUMPDEST PUSH1 0x0 PUSH1 0x20 DUP3 ADD SWAP1 POP PUSH2 0x2568 PUSH1 0x0 DUP4 ADD DUP5 PUSH2 0x2544 JUMP JUMPDEST SWAP3 SWAP2 POP POP JUMP JUMPDEST PUSH1 0x0 DUP1 PUSH1 0x0 PUSH1 0x60 DUP5 DUP7 SUB SLT ISZERO PUSH2 0x2587 JUMPI PUSH2 0x2586 PUSH2 0x22D5 JUMP JUMPDEST JUMPDEST PUSH1 0x0 PUSH2 0x2595 DUP7 DUP3 DUP8 ADD PUSH2 0x2300 JUMP JUMPDEST SWAP4 POP POP PUSH1 0x20 PUSH2 0x25A6 DUP7 DUP3 DUP8 ADD PUSH2 0x2300 JUMP JUMPDEST SWAP3 POP POP PUSH1 0x40 PUSH2 0x25B7 DUP7 DUP3 DUP8 ADD PUSH2 0x2300 JUMP JUMPDEST SWAP2 POP POP SWAP3 POP SWAP3 POP SWAP3 JUMP JUMPDEST PUSH1 0x0 DUP1 REVERT JUMPDEST PUSH1 0x0 DUP1 REVERT JUMPDEST PUSH32 0x4E487B7100000000000000000000000000000000000000000000000000000000 PUSH1 0x0 MSTORE PUSH1 0x41 PUSH1 0x4 MSTORE PUSH1 0x24 PUSH1 0x0 REVERT JUMPDEST PUSH2 0x2603 DUP3 PUSH2 0x2388 JUMP JUMPDEST DUP2 ADD DUP2 DUP2 LT PUSH8 0xFFFFFFFFFFFFFFFF DUP3 GT OR ISZERO PUSH2 0x2622 JUMPI PUSH2 0x2621 PUSH2 0x25CB JUMP JUMPDEST JUMPDEST DUP1 PUSH1 0x40 MSTORE POP POP POP JUMP JUMPDEST PUSH1 0x0 PUSH2 0x2635 PUSH2 0x22CB JUMP JUMPDEST SWAP1 POP PUSH2 0x2641 DUP3 DUP3 PUSH2 0x25FA JUMP JUMPDEST SWAP2 SWAP1 POP JUMP JUMPDEST PUSH1 0x0 PUSH8 0xFFFFFFFFFFFFFFFF DUP3 GT ISZERO PUSH2 0x2661 JUMPI PUSH2 0x2660 PUSH2 0x25CB JUMP JUMPDEST JUMPDEST PUSH2 0x266A DUP3 PUSH2 0x2388 JUMP JUMPDEST SWAP1 POP PUSH1 0x20 DUP2 ADD SWAP1 POP SWAP2 SWAP1 POP JUMP JUMPDEST PUSH1 0x0 PUSH2 0x268A PUSH2 0x2685 DUP5 PUSH2 0x2646 JUMP JUMPDEST PUSH2 0x262B JUMP JUMPDEST SWAP1 POP DUP3 DUP2 MSTORE PUSH1 0x20 DUP2 ADD DUP5 DUP5 DUP5 ADD GT ISZERO PUSH2 0x26A6 JUMPI PUSH2 0x26A5 PUSH2 0x25C6 JUMP JUMPDEST JUMPDEST PUSH2 0x26B1 DUP5 DUP3 DUP6 PUSH2 0x235E JUMP JUMPDEST POP SWAP4 SWAP3 POP POP POP JUMP JUMPDEST PUSH1 0x0 DUP3 PUSH1 0x1F DUP4 ADD SLT PUSH2 0x26CE JUMPI PUSH2 0x26CD PUSH2 0x25C1 JUMP JUMPDEST JUMPDEST DUP2 MLOAD PUSH2 0x26DE DUP5 DUP3 PUSH1 0x20 DUP7 ADD PUSH2 0x2677 JUMP JUMPDEST SWAP2 POP POP SWAP3 SWAP2 POP POP JUMP JUMPDEST PUSH1 0x0 PUSH1 0x20 DUP3 DUP5 SUB SLT ISZERO PUSH2 0x26FD JUMPI PUSH2 0x26FC PUSH2 0x22D5 JUMP JUMPDEST JUMPDEST PUSH1 0x0 DUP3 ADD MLOAD PUSH8 0xFFFFFFFFFFFFFFFF DUP2 GT ISZERO PUSH2 0x271B JUMPI PUSH2 0x271A PUSH2 0x22DA JUMP JUMPDEST JUMPDEST PUSH2 0x2727 DUP5 DUP3 DUP6 ADD PUSH2 0x26B9 JUMP JUMPDEST SWAP2 POP POP SWAP3 SWAP2 POP POP JUMP JUMPDEST PUSH1 0x0 DUP2 MLOAD SWAP1 POP PUSH2 0x273F DUP2 PUSH2 0x22E9 JUMP JUMPDEST SWAP3 SWAP2 POP POP JUMP JUMPDEST PUSH1 0x0 DUP2 ISZERO ISZERO SWAP1 POP SWAP2 SWAP1 POP JUMP JUMPDEST PUSH2 0x275A DUP2 PUSH2 0x2745 JUMP JUMPDEST DUP2 EQ PUSH2 0x2765 JUMPI PUSH1 0x0 DUP1 REVERT JUMPDEST POP JUMP JUMPDEST PUSH1 0x0 DUP2 MLOAD SWAP1 POP PUSH2 0x2777 DUP2 PUSH2 0x2751 JUMP JUMPDEST SWAP3 SWAP2 POP POP JUMP JUMPDEST PUSH1 0x0 DUP1 PUSH1 0x0 PUSH1 0x60 DUP5 DUP7 SUB SLT ISZERO PUSH2 0x2796 JUMPI PUSH2 0x2795 PUSH2 0x22D5 JUMP JUMPDEST JUMPDEST PUSH1 0x0 PUSH2 0x27A4 DUP7 DUP3 DUP8 ADD PUSH2 0x2730 JUMP JUMPDEST SWAP4 POP POP PUSH1 0x20 PUSH2 0x27B5 DUP7 DUP3 DUP8 ADD PUSH2 0x2768 JUMP JUMPDEST SWAP3 POP POP PUSH1 0x40 PUSH2 0x27C6 DUP7 DUP3 DUP8 ADD PUSH2 0x2768 JUMP JUMPDEST SWAP2 POP POP SWAP3 POP SWAP3 POP SWAP3 JUMP JUMPDEST PUSH1 0x0 PUSH1 0x20 DUP3 DUP5 SUB SLT ISZERO PUSH2 0x27E6 JUMPI PUSH2 0x27E5 PUSH2 0x22D5 JUMP JUMPDEST JUMPDEST PUSH1 0x0 PUSH2 0x27F4 DUP5 DUP3 DUP6 ADD PUSH2 0x2730 JUMP JUMPDEST SWAP2 POP POP SWAP3 SWAP2 POP POP JUMP JUMPDEST PUSH1 0x0 PUSH1 0x20 DUP3 DUP5 SUB SLT ISZERO PUSH2 0x2813 JUMPI PUSH2 0x2812 PUSH2 0x22D5 JUMP JUMPDEST JUMPDEST PUSH1 0x0 PUSH2 0x2821 DUP5 DUP3 DUP6 ADD PUSH2 0x2768 JUMP JUMPDEST SWAP2 POP POP SWAP3 SWAP2 POP POP JUMP JUMPDEST PUSH1 0x0 PUSH1 0x40 DUP3 ADD SWAP1 POP DUP2 DUP2 SUB PUSH1 0x0 DUP4 ADD MSTORE PUSH2 0x2844 DUP2 DUP6 PUSH2 0x24E9 JUMP JUMPDEST SWAP1 POP PUSH2 0x2853 PUSH1 0x20 DUP4 ADD DUP5 PUSH2 0x2544 JUMP JUMPDEST SWAP4 SWAP3 POP POP POP JUMP JUMPDEST PUSH2 0x2863 DUP2 PUSH2 0x22DF JUMP JUMPDEST DUP3 MSTORE POP POP JUMP JUMPDEST PUSH1 0x0 PUSH1 0x20 DUP3 ADD SWAP1 POP PUSH2 0x287E PUSH1 0x0 DUP4 ADD DUP5 PUSH2 0x285A JUMP JUMPDEST SWAP3 SWAP2 POP POP JUMP JUMPDEST PUSH32 0x4E487B7100000000000000000000000000000000000000000000000000000000 PUSH1 0x0 MSTORE PUSH1 0x12 PUSH1 0x4 MSTORE PUSH1 0x24 PUSH1 0x0 REVERT JUMPDEST PUSH1 0x0 PUSH2 0x28BE DUP3 PUSH2 0x22DF JUMP JUMPDEST SWAP2 POP PUSH2 0x28C9 DUP4 PUSH2 0x22DF JUMP JUMPDEST SWAP3 POP DUP3 PUSH2 0x28D9 JUMPI PUSH2 0x28D8 PUSH2 0x2884 JUMP JUMPDEST JUMPDEST DUP3 DUP3 MOD SWAP1 POP SWAP3 SWAP2 POP POP JUMP JUMPDEST PUSH1 0x0 DUP1 PUSH1 0x0 DUP1 PUSH1 0x0 DUP1 PUSH1 0x0 DUP1 PUSH1 0x0 PUSH2 0x120 DUP11 DUP13 SUB SLT ISZERO PUSH2 0x2907 JUMPI PUSH2 0x2906 PUSH2 0x22D5 JUMP JUMPDEST JUMPDEST PUSH1 0x0 PUSH2 0x2915 DUP13 DUP3 DUP14 ADD PUSH2 0x2730 JUMP JUMPDEST SWAP10 POP POP PUSH1 0x20 PUSH2 0x2926 DUP13 DUP3 DUP14 ADD PUSH2 0x2730 JUMP JUMPDEST SWAP9 POP POP PUSH1 0x40 PUSH2 0x2937 DUP13 DUP3 DUP14 ADD PUSH2 0x2730 JUMP JUMPDEST SWAP8 POP POP PUSH1 0x60 PUSH2 0x2948 DUP13 DUP3 DUP14 ADD PUSH2 0x2730 JUMP JUMPDEST SWAP7 POP POP PUSH1 0x80 PUSH2 0x2959 DUP13 DUP3 DUP14 ADD PUSH2 0x2730 JUMP JUMPDEST SWAP6 POP POP PUSH1 0xA0 PUSH2 0x296A DUP13 DUP3 DUP14 ADD PUSH2 0x2730 JUMP JUMPDEST SWAP5 POP POP PUSH1 0xC0 PUSH2 0x297B DUP13 DUP3 DUP14 ADD PUSH2 0x2768 JUMP JUMPDEST SWAP4 POP POP PUSH1 0xE0 PUSH2 0x298C DUP13 DUP3 DUP14 ADD PUSH2 0x2768 JUMP JUMPDEST SWAP3 POP POP PUSH2 0x100 PUSH2 0x299E DUP13 DUP3 DUP14 ADD PUSH2 0x2768 JUMP JUMPDEST SWAP2 POP POP SWAP3 SWAP6 SWAP9 POP SWAP3 SWAP6 SWAP9 POP SWAP3 SWAP6 SWAP9 JUMP JUMPDEST PUSH1 0x0 DUP2 SWAP1 POP SWAP3 SWAP2 POP POP JUMP JUMPDEST PUSH32 0x5B00000000000000000000000000000000000000000000000000000000000000 PUSH1 0x0 DUP3 ADD MSTORE POP JUMP JUMPDEST PUSH1 0x0 PUSH2 0x29EF PUSH1 0x1 DUP4 PUSH2 0x29AE JUMP JUMPDEST SWAP2 POP PUSH2 0x29FA DUP3 PUSH2 0x29B9 JUMP JUMPDEST PUSH1 0x1 DUP3 ADD SWAP1 POP SWAP2 SWAP1 POP JUMP JUMPDEST PUSH1 0x0 DUP2 SWAP1 POP SWAP3 SWAP2 POP POP JUMP JUMPDEST PUSH1 0x0 PUSH2 0x2A1B DUP3 PUSH2 0x24CD JUMP JUMPDEST PUSH2 0x2A25 DUP2 DUP6 PUSH2 0x2A05 JUMP JUMPDEST SWAP4 POP PUSH2 0x2A35 DUP2 DUP6 PUSH1 0x20 DUP7 ADD PUSH2 0x235E JUMP JUMPDEST DUP1 DUP5 ADD SWAP2 POP POP SWAP3 SWAP2 POP POP JUMP JUMPDEST PUSH32 0x5D00000000000000000000000000000000000000000000000000000000000000 PUSH1 0x0 DUP3 ADD MSTORE POP JUMP JUMPDEST PUSH1 0x0 PUSH2 0x2A77 PUSH1 0x1 DUP4 PUSH2 0x29AE JUMP JUMPDEST SWAP2 POP PUSH2 0x2A82 DUP3 PUSH2 0x2A41 JUMP JUMPDEST PUSH1 0x1 DUP3 ADD SWAP1 POP SWAP2 SWAP1 POP JUMP JUMPDEST PUSH1 0x0 PUSH2 0x2A98 DUP3 PUSH2 0x29E2 JUMP JUMPDEST SWAP2 POP PUSH2 0x2AA4 DUP3 DUP8 PUSH2 0x2A10 JUMP JUMPDEST SWAP2 POP PUSH2 0x2AB0 DUP3 DUP7 PUSH2 0x2A10 JUMP JUMPDEST SWAP2 POP PUSH2 0x2ABC DUP3 DUP6 PUSH2 0x2A10 JUMP JUMPDEST SWAP2 POP PUSH2 0x2AC8 DUP3 DUP5 PUSH2 0x2A10 JUMP JUMPDEST SWAP2 POP PUSH2 0x2AD3 DUP3 PUSH2 0x2A6A JUMP JUMPDEST SWAP2 POP DUP2 SWAP1 POP SWAP6 SWAP5 POP POP POP POP POP JUMP JUMPDEST PUSH32 0x4E487B7100000000000000000000000000000000000000000000000000000000 PUSH1 0x0 MSTORE PUSH1 0x11 PUSH1 0x4 MSTORE PUSH1 0x24 PUSH1 0x0 REVERT JUMPDEST PUSH1 0x0 PUSH2 0x2B1B DUP3 PUSH2 0x22DF JUMP JUMPDEST SWAP2 POP PUSH32 0xFFFFFFFFFFFFFFFFFFFFFFFFFFFFFFFFFFFFFFFFFFFFFFFFFFFFFFFFFFFFFFFF DUP3 SUB PUSH2 0x2B4D JUMPI PUSH2 0x2B4C PUSH2 0x2AE1 JUMP JUMPDEST JUMPDEST PUSH1 0x1 DUP3 ADD SWAP1 POP SWAP2 SWAP1 POP JUMP JUMPDEST PUSH1 0x0 PUSH2 0x2B63 DUP3 PUSH2 0x22DF JUMP JUMPDEST SWAP2 POP PUSH2 0x2B6E DUP4 PUSH2 0x22DF JUMP JUMPDEST SWAP3 POP DUP3 PUSH2 0x2B7E JUMPI PUSH2 0x2B7D PUSH2 0x2884 JUMP JUMPDEST JUMPDEST DUP3 DUP3 DIV SWAP1 POP SWAP3 SWAP2 POP POP JUMP JUMPDEST PUSH1 0x0 PUSH2 0x2B94 DUP3 PUSH2 0x22DF JUMP JUMPDEST SWAP2 POP PUSH2 0x2B9F DUP4 PUSH2 0x22DF JUMP JUMPDEST SWAP3 POP DUP3 DUP3 SUB SWAP1 POP DUP2 DUP2 GT ISZERO PUSH2 0x2BB7 JUMPI PUSH2 0x2BB6 PUSH2 0x2AE1 JUMP JUMPDEST JUMPDEST SWAP3 SWAP2 POP POP JUMP JUMPDEST PUSH1 0x0 PUSH2 0x2BC8 DUP3 PUSH2 0x22DF JUMP JUMPDEST SWAP2 POP PUSH2 0x2BD3 DUP4 PUSH2 0x22DF JUMP JUMPDEST SWAP3 POP DUP3 DUP3 ADD SWAP1 POP DUP1 DUP3 GT ISZERO PUSH2 0x2BEB JUMPI PUSH2 0x2BEA PUSH2 0x2AE1 JUMP JUMPDEST JUMPDEST SWAP3 SWAP2 POP POP JUMP JUMPDEST PUSH32 0x4E487B7100000000000000000000000000000000000000000000000000000000 PUSH1 0x0 MSTORE PUSH1 0x32 PUSH1 0x4 MSTORE PUSH1 0x24 PUSH1 0x0 REVERT JUMPDEST PUSH1 0x0 PUSH2 0x2C2B DUP3 PUSH2 0x2342 JUMP JUMPDEST PUSH2 0x2C35 DUP2 DUP6 PUSH2 0x29AE JUMP JUMPDEST SWAP4 POP PUSH2 0x2C45 DUP2 DUP6 PUSH1 0x20 DUP7 ADD PUSH2 0x235E JUMP JUMPDEST DUP1 DUP5 ADD SWAP2 POP POP SWAP3 SWAP2 POP POP JUMP JUMPDEST PUSH1 0x0 PUSH2 0x2C5D DUP3 DUP9 PUSH2 0x2A10 JUMP JUMPDEST SWAP2 POP PUSH2 0x2C69 DUP3 DUP8 PUSH2 0x2C20 JUMP JUMPDEST SWAP2 POP PUSH2 0x2C75 DUP3 DUP7 PUSH2 0x2A10 JUMP JUMPDEST SWAP2 POP PUSH2 0x2C81 DUP3 DUP6 PUSH2 0x2C20 JUMP JUMPDEST SWAP2 POP PUSH2 0x2C8D DUP3 DUP5 PUSH2 0x2C20 JUMP JUMPDEST SWAP2 POP DUP2 SWAP1 POP SWAP7 SWAP6 POP POP POP POP POP POP JUMP JUMPDEST PUSH1 0x0 PUSH2 0x2CA8 DUP3 DUP9 PUSH2 0x2A10 JUMP JUMPDEST SWAP2 POP PUSH2 0x2CB4 DUP3 DUP8 PUSH2 0x2A10 JUMP JUMPDEST SWAP2 POP PUSH2 0x2CC0 DUP3 DUP7 PUSH2 0x2A10 JUMP JUMPDEST SWAP2 POP PUSH2 0x2CCC DUP3 DUP6 PUSH2 0x2A10 JUMP JUMPDEST SWAP2 POP PUSH2 0x2CD8 DUP3 DUP5 PUSH2 0x2A10 JUMP JUMPDEST SWAP2 POP DUP2 SWAP1 POP SWAP7 SWAP6 POP POP POP POP POP POP JUMP JUMPDEST PUSH32 0x3C73766720786D6C6E733D22687474703A2F2F7777772E77332E6F72672F3230 PUSH1 0x0 DUP3 ADD MSTORE PUSH32 0x30302F73766722207072657365727665417370656374526174696F3D22784D69 PUSH1 0x20 DUP3 ADD MSTORE PUSH32 0x6E594D696E206D656574222076696577426F783D223020302033353020353636 PUSH1 0x40 DUP3 ADD MSTORE PUSH32 0x223E000000000000000000000000000000000000000000000000000000000000 PUSH1 0x60 DUP3 ADD MSTORE POP JUMP JUMPDEST PUSH1 0x0 PUSH2 0x2D8F PUSH1 0x62 DUP4 PUSH2 0x29AE JUMP JUMPDEST SWAP2 POP PUSH2 0x2D9A DUP3 PUSH2 0x2CE7 JUMP JUMPDEST PUSH1 0x62 DUP3 ADD SWAP1 POP SWAP2 SWAP1 POP JUMP JUMPDEST PUSH32 0x3C2F7376673E0000000000000000000000000000000000000000000000000000 PUSH1 0x0 DUP3 ADD MSTORE POP JUMP JUMPDEST PUSH1 0x0 PUSH2 0x2DDB PUSH1 0x6 DUP4 PUSH2 0x29AE JUMP JUMPDEST SWAP2 POP PUSH2 0x2DE6 DUP3 PUSH2 0x2DA5 JUMP JUMPDEST PUSH1 0x6 DUP3 ADD SWAP1 POP SWAP2 SWAP1 POP JUMP JUMPDEST PUSH1 0x0 PUSH2 0x2DFC DUP3 PUSH2 0x2D82 JUMP JUMPDEST SWAP2 POP PUSH2 0x2E08 DUP3 DUP6 PUSH2 0x2A10 JUMP JUMPDEST SWAP2 POP PUSH2 0x2E14 DUP3 DUP5 PUSH2 0x2A10 JUMP JUMPDEST SWAP2 POP PUSH2 0x2E1F DUP3 PUSH2 0x2DCE JUMP JUMPDEST SWAP2 POP DUP2 SWAP1 POP SWAP4 SWAP3 POP POP POP JUMP JUMPDEST PUSH1 0x0 PUSH2 0x2E36 DUP3 PUSH2 0x22DF JUMP JUMPDEST SWAP2 POP PUSH2 0x2E41 DUP4 PUSH2 0x22DF JUMP JUMPDEST SWAP3 POP DUP3 DUP3 MUL PUSH2 0x2E4F DUP2 PUSH2 0x22DF JUMP JUMPDEST SWAP2 POP DUP3 DUP3 DIV DUP5 EQ DUP4 ISZERO OR PUSH2 0x2E66 JUMPI PUSH2 0x2E65 PUSH2 0x2AE1 JUMP JUMPDEST JUMPDEST POP SWAP3 SWAP2 POP POP JUMP JUMPDEST PUSH32 0x7B2274726169745F74797065223A22436C617373222C2276616C7565223A2200 PUSH1 0x0 DUP3 ADD MSTORE POP JUMP JUMPDEST PUSH1 0x0 PUSH2 0x2EA3 PUSH1 0x1F DUP4 PUSH2 0x29AE JUMP JUMPDEST SWAP2 POP PUSH2 0x2EAE DUP3 PUSH2 0x2E6D JUMP JUMPDEST PUSH1 0x1F DUP3 ADD SWAP1 POP SWAP2 SWAP1 POP JUMP JUMPDEST PUSH32 0x227D2C7B2274726169745F74797065223A22564D5573222C2276616C7565223A PUSH1 0x0 DUP3 ADD MSTORE PUSH32 0x2200000000000000000000000000000000000000000000000000000000000000 PUSH1 0x20 DUP3 ADD MSTORE POP JUMP JUMPDEST PUSH1 0x0 PUSH2 0x2F15 PUSH1 0x21 DUP4 PUSH2 0x29AE JUMP JUMPDEST SWAP2 POP PUSH2 0x2F20 DUP3 PUSH2 0x2EB9 JUMP JUMPDEST PUSH1 0x21 DUP3 ADD SWAP1 POP SWAP2 SWAP1 POP JUMP JUMPDEST PUSH32 0x227D2C7B2274726169745F74797065223A226352616E6B222C2276616C756522 PUSH1 0x0 DUP3 ADD MSTORE PUSH32 0x3A22000000000000000000000000000000000000000000000000000000000000 PUSH1 0x20 DUP3 ADD MSTORE POP JUMP JUMPDEST PUSH1 0x0 PUSH2 0x2F87 PUSH1 0x22 DUP4 PUSH2 0x29AE JUMP JUMPDEST SWAP2 POP PUSH2 0x2F92 DUP3 PUSH2 0x2F2B JUMP JUMPDEST PUSH1 0x22 DUP3 ADD SWAP1 POP SWAP2 SWAP1 POP JUMP JUMPDEST PUSH32 0x227D2C0000000000000000000000000000000000000000000000000000000000 PUSH1 0x0 DUP3 ADD MSTORE POP JUMP JUMPDEST PUSH1 0x0 PUSH2 0x2FD3 PUSH1 0x3 DUP4 PUSH2 0x29AE JUMP JUMPDEST SWAP2 POP PUSH2 0x2FDE DUP3 PUSH2 0x2F9D JUMP JUMPDEST PUSH1 0x3 DUP3 ADD SWAP1 POP SWAP2 SWAP1 POP JUMP JUMPDEST PUSH1 0x0 PUSH2 0x2FF4 DUP3 PUSH2 0x2E96 JUMP JUMPDEST SWAP2 POP PUSH2 0x3000 DUP3 DUP7 PUSH2 0x2C20 JUMP JUMPDEST SWAP2 POP PUSH2 0x300B DUP3 PUSH2 0x2F08 JUMP JUMPDEST SWAP2 POP PUSH2 0x3017 DUP3 DUP6 PUSH2 0x2C20 JUMP JUMPDEST SWAP2 POP PUSH2 0x3022 DUP3 PUSH2 0x2F7A JUMP JUMPDEST SWAP2 POP PUSH2 0x302E DUP3 DUP5 PUSH2 0x2C20 JUMP JUMPDEST SWAP2 POP PUSH2 0x3039 DUP3 PUSH2 0x2FC6 JUMP JUMPDEST SWAP2 POP DUP2 SWAP1 POP SWAP5 SWAP4 POP POP POP POP JUMP JUMPDEST PUSH1 0x0 DUP1 PUSH1 0x40 DUP4 DUP6 SUB SLT ISZERO PUSH2 0x305D JUMPI PUSH2 0x305C PUSH2 0x22D5 JUMP JUMPDEST JUMPDEST PUSH1 0x0 PUSH2 0x306B DUP6 DUP3 DUP7 ADD PUSH2 0x2730 JUMP JUMPDEST SWAP3 POP POP PUSH1 0x20 DUP4 ADD MLOAD PUSH8 0xFFFFFFFFFFFFFFFF DUP2 GT ISZERO PUSH2 0x308C JUMPI PUSH2 0x308B PUSH2 0x22DA JUMP JUMPDEST JUMPDEST PUSH2 0x3098 DUP6 DUP3 DUP7 ADD PUSH2 0x26B9 JUMP JUMPDEST SWAP2 POP POP SWAP3 POP SWAP3 SWAP1 POP JUMP JUMPDEST PUSH32 0x7B2274726169745F74797065223A22414D50222C2276616C7565223A22000000 PUSH1 0x0 DUP3 ADD MSTORE POP JUMP JUMPDEST PUSH1 0x0 PUSH2 0x30D8 PUSH1 0x1D DUP4 PUSH2 0x29AE JUMP JUMPDEST SWAP2 POP PUSH2 0x30E3 DUP3 PUSH2 0x30A2 JUMP JUMPDEST PUSH1 0x1D DUP3 ADD SWAP1 POP SWAP2 SWAP1 POP JUMP JUMPDEST PUSH32 0x227D2C7B2274726169745F74797065223A2245414120282529222C2276616C75 PUSH1 0x0 DUP3 ADD MSTORE PUSH32 0x65223A2200000000000000000000000000000000000000000000000000000000 PUSH1 0x20 DUP3 ADD MSTORE POP JUMP JUMPDEST PUSH1 0x0 PUSH2 0x314A PUSH1 0x24 DUP4 PUSH2 0x29AE JUMP JUMPDEST SWAP2 POP PUSH2 0x3155 DUP3 PUSH2 0x30EE JUMP JUMPDEST PUSH1 0x24 DUP3 ADD SWAP1 POP SWAP2 SWAP1 POP JUMP JUMPDEST PUSH32 0x227D2C7B2274726169745F74797065223A224D61747572697479205965617222 PUSH1 0x0 DUP3 ADD MSTORE PUSH32 0x2C2276616C7565223A2200000000000000000000000000000000000000000000 PUSH1 0x20 DUP3 ADD MSTORE POP JUMP JUMPDEST PUSH1 0x0 PUSH2 0x31BC PUSH1 0x2A DUP4 PUSH2 0x29AE JUMP JUMPDEST SWAP2 POP PUSH2 0x31C7 DUP3 PUSH2 0x3160 JUMP JUMPDEST PUSH1 0x2A DUP3 ADD SWAP1 POP SWAP2 SWAP1 POP JUMP JUMPDEST PUSH32 0x227D2C7B2274726169745F74797065223A224D61747572697479204D6F6E7468 PUSH1 0x0 DUP3 ADD MSTORE PUSH32 0x222C2276616C7565223A22000000000000000000000000000000000000000000 PUSH1 0x20 DUP3 ADD MSTORE POP JUMP JUMPDEST PUSH1 0x0 PUSH2 0x322E PUSH1 0x2B DUP4 PUSH2 0x29AE JUMP JUMPDEST SWAP2 POP PUSH2 0x3239 DUP3 PUSH2 0x31D2 JUMP JUMPDEST PUSH1 0x2B DUP3 ADD SWAP1 POP SWAP2 SWAP1 POP JUMP JUMPDEST PUSH1 0x0 PUSH2 0x324F DUP3 PUSH2 0x30CB JUMP JUMPDEST SWAP2 POP PUSH2 0x325B DUP3 DUP8 PUSH2 0x2C20 JUMP JUMPDEST SWAP2 POP PUSH2 0x3266 DUP3 PUSH2 0x313D JUMP JUMPDEST SWAP2 POP PUSH2 0x3272 DUP3 DUP7 PUSH2 0x2C20 JUMP JUMPDEST SWAP2 POP PUSH2 0x327D DUP3 PUSH2 0x31AF JUMP JUMPDEST SWAP2 POP PUSH2 0x3289 DUP3 DUP6 PUSH2 0x2C20 JUMP JUMPDEST SWAP2 POP PUSH2 0x3294 DUP3 PUSH2 0x3221 JUMP JUMPDEST SWAP2 POP PUSH2 0x32A0 DUP3 DUP5 PUSH2 0x2C20 JUMP JUMPDEST SWAP2 POP PUSH2 0x32AB DUP3 PUSH2 0x2FC6 JUMP JUMPDEST SWAP2 POP DUP2 SWAP1 POP SWAP6 SWAP5 POP POP POP POP POP JUMP JUMPDEST PUSH32 0x7B2274726169745F74797065223A224D61747572697479204461746554696D65 PUSH1 0x0 DUP3 ADD MSTORE PUSH32 0x222C2276616C7565223A22000000000000000000000000000000000000000000 PUSH1 0x20 DUP3 ADD MSTORE POP JUMP JUMPDEST PUSH1 0x0 PUSH2 0x3315 PUSH1 0x2B DUP4 PUSH2 0x29AE JUMP JUMPDEST SWAP2 POP PUSH2 0x3320 DUP3 PUSH2 0x32B9 JUMP JUMPDEST PUSH1 0x2B DUP3 ADD SWAP1 POP SWAP2 SWAP1 POP JUMP JUMPDEST PUSH32 0x227D2C7B2274726169745F74797065223A225465726D222C2276616C7565223A PUSH1 0x0 DUP3 ADD MSTORE PUSH32 0x2200000000000000000000000000000000000000000000000000000000000000 PUSH1 0x20 DUP3 ADD MSTORE POP JUMP JUMPDEST PUSH1 0x0 PUSH2 0x3387 PUSH1 0x21 DUP4 PUSH2 0x29AE JUMP JUMPDEST SWAP2 POP PUSH2 0x3392 DUP3 PUSH2 0x332B JUMP JUMPDEST PUSH1 0x21 DUP3 ADD SWAP1 POP SWAP2 SWAP1 POP JUMP JUMPDEST PUSH32 0x227D2C7B2274726169745F74797065223A2258454E204275726E6564222C2276 PUSH1 0x0 DUP3 ADD MSTORE PUSH32 0x616C7565223A2200000000000000000000000000000000000000000000000000 PUSH1 0x20 DUP3 ADD MSTORE POP JUMP JUMPDEST PUSH1 0x0 PUSH2 0x33F9 PUSH1 0x27 DUP4 PUSH2 0x29AE JUMP JUMPDEST SWAP2 POP PUSH2 0x3404 DUP3 PUSH2 0x339D JUMP JUMPDEST PUSH1 0x27 DUP3 ADD SWAP1 POP SWAP2 SWAP1 POP JUMP JUMPDEST PUSH1 0x0 PUSH2 0x341A DUP3 PUSH2 0x3308 JUMP JUMPDEST SWAP2 POP PUSH2 0x3426 DUP3 DUP7 PUSH2 0x2C20 JUMP JUMPDEST SWAP2 POP PUSH2 0x3431 DUP3 PUSH2 0x337A JUMP JUMPDEST SWAP2 POP PUSH2 0x343D DUP3 DUP6 PUSH2 0x2C20 JUMP JUMPDEST SWAP2 POP PUSH2 0x3448 DUP3 PUSH2 0x33EC JUMP JUMPDEST SWAP2 POP PUSH2 0x3454 DUP3 DUP5 PUSH2 0x2C20 JUMP JUMPDEST SWAP2 POP PUSH2 0x345F DUP3 PUSH2 0x2FC6 JUMP JUMPDEST SWAP2 POP DUP2 SWAP1 POP SWAP5 SWAP4 POP POP POP POP JUMP JUMPDEST PUSH32 0x7B2274726169745F74797065223A2243617465676F7279222C2276616C756522 PUSH1 0x0 DUP3 ADD MSTORE PUSH32 0x3A22000000000000000000000000000000000000000000000000000000000000 PUSH1 0x20 DUP3 ADD MSTORE POP JUMP JUMPDEST PUSH1 0x0 PUSH2 0x34C8 PUSH1 0x22 DUP4 PUSH2 0x29AE JUMP JUMPDEST SWAP2 POP PUSH2 0x34D3 DUP3 PUSH2 0x346C JUMP JUMPDEST PUSH1 0x22 DUP3 ADD SWAP1 POP SWAP2 SWAP1 POP JUMP JUMPDEST PUSH32 0x227D000000000000000000000000000000000000000000000000000000000000 PUSH1 0x0 DUP3 ADD MSTORE POP JUMP JUMPDEST PUSH1 0x0 PUSH2 0x3514 PUSH1 0x2 DUP4 PUSH2 0x29AE JUMP JUMPDEST SWAP2 POP PUSH2 0x351F DUP3 PUSH2 0x34DE JUMP JUMPDEST PUSH1 0x2 DUP3 ADD SWAP1 POP SWAP2 SWAP1 POP JUMP JUMPDEST PUSH1 0x0 PUSH2 0x3535 DUP3 PUSH2 0x34BB JUMP JUMPDEST SWAP2 POP PUSH2 0x3541 DUP3 DUP5 PUSH2 0x2C20 JUMP JUMPDEST SWAP2 POP PUSH2 0x354C DUP3 PUSH2 0x3507 JUMP JUMPDEST SWAP2 POP DUP2 SWAP1 POP SWAP3 SWAP2 POP POP JUMP JUMPDEST PUSH32 0x3C646566733E0000000000000000000000000000000000000000000000000000 PUSH1 0x0 DUP3 ADD MSTORE POP JUMP JUMPDEST PUSH1 0x0 PUSH2 0x358D PUSH1 0x6 DUP4 PUSH2 0x29AE JUMP JUMPDEST SWAP2 POP PUSH2 0x3598 DUP3 PUSH2 0x3557 JUMP JUMPDEST PUSH1 0x6 DUP3 ADD SWAP1 POP SWAP2 SWAP1 POP JUMP JUMPDEST PUSH32 0x3C2F646566733E00000000000000000000000000000000000000000000000000 PUSH1 0x0 DUP3 ADD MSTORE POP JUMP JUMPDEST PUSH1 0x0 PUSH2 0x35D9 PUSH1 0x7 DUP4 PUSH2 0x29AE JUMP JUMPDEST SWAP2 POP PUSH2 0x35E4 DUP3 PUSH2 0x35A3 JUMP JUMPDEST PUSH1 0x7 DUP3 ADD SWAP1 POP SWAP2 SWAP1 POP JUMP JUMPDEST PUSH1 0x0 PUSH2 0x35FA DUP3 PUSH2 0x3580 JUMP JUMPDEST SWAP2 POP PUSH2 0x3606 DUP3 DUP5 PUSH2 0x2A10 JUMP JUMPDEST SWAP2 POP PUSH2 0x3611 DUP3 PUSH2 0x35CC JUMP JUMPDEST SWAP2 POP DUP2 SWAP1 POP SWAP3 SWAP2 POP POP JUMP JUMPDEST PUSH1 0x0 PUSH2 0x3628 DUP3 DUP6 PUSH2 0x2C20 JUMP JUMPDEST SWAP2 POP PUSH2 0x3634 DUP3 DUP5 PUSH2 0x2C20 JUMP JUMPDEST SWAP2 POP DUP2 SWAP1 POP SWAP4 SWAP3 POP POP POP JUMP JUMPDEST PUSH32 0x3C673E0000000000000000000000000000000000000000000000000000000000 PUSH1 0x0 DUP3 ADD MSTORE POP JUMP JUMPDEST PUSH1 0x0 PUSH2 0x3676 PUSH1 0x3 DUP4 PUSH2 0x29AE JUMP JUMPDEST SWAP2 POP PUSH2 0x3681 DUP3 PUSH2 0x3640 JUMP JUMPDEST PUSH1 0x3 DUP3 ADD SWAP1 POP SWAP2 SWAP1 POP JUMP JUMPDEST PUSH32 0x3C2F673E00000000000000000000000000000000000000000000000000000000 PUSH1 0x0 DUP3 ADD MSTORE POP JUMP JUMPDEST PUSH1 0x0 PUSH2 0x36C2 PUSH1 0x4 DUP4 PUSH2 0x29AE JUMP JUMPDEST SWAP2 POP PUSH2 0x36CD DUP3 PUSH2 0x368C JUMP JUMPDEST PUSH1 0x4 DUP3 ADD SWAP1 POP SWAP2 SWAP1 POP JUMP JUMPDEST PUSH1 0x0 PUSH2 0x36E3 DUP3 PUSH2 0x3669 JUMP JUMPDEST SWAP2 POP PUSH2 0x36EF DUP3 DUP6 PUSH2 0x2C20 JUMP JUMPDEST SWAP2 POP PUSH2 0x36FB DUP3 DUP5 PUSH2 0x2C20 JUMP JUMPDEST SWAP2 POP PUSH2 0x3706 DUP3 PUSH2 0x36B5 JUMP JUMPDEST SWAP2 POP DUP2 SWAP1 POP SWAP4 SWAP3 POP POP POP JUMP JUMPDEST PUSH32 0x3C7465787420783D223530252220793D2235252220636C6173733D2262617365 PUSH1 0x0 DUP3 ADD MSTORE PUSH32 0x20736D616C6C2220646F6D696E616E742D626173656C696E653D226D6964646C PUSH1 0x20 DUP3 ADD MSTORE PUSH32 0x652220746578742D616E63686F723D226D6964646C65223E0000000000000000 PUSH1 0x40 DUP3 ADD MSTORE POP JUMP JUMPDEST PUSH1 0x0 PUSH2 0x3794 PUSH1 0x58 DUP4 PUSH2 0x29AE JUMP JUMPDEST SWAP2 POP PUSH2 0x379F DUP3 PUSH2 0x3712 JUMP JUMPDEST PUSH1 0x58 DUP3 ADD SWAP1 POP SWAP2 SWAP1 POP JUMP JUMPDEST PUSH32 0xE383BB0000000000000000000000000000000000000000000000000000000000 PUSH1 0x0 DUP3 ADD MSTORE POP JUMP JUMPDEST PUSH1 0x0 PUSH2 0x37E0 PUSH1 0x3 DUP4 PUSH2 0x29AE JUMP JUMPDEST SWAP2 POP PUSH2 0x37EB DUP3 PUSH2 0x37AA JUMP JUMPDEST PUSH1 0x3 DUP3 ADD SWAP1 POP SWAP2 SWAP1 POP JUMP JUMPDEST PUSH32 0x3C2F746578743E00000000000000000000000000000000000000000000000000 PUSH1 0x0 DUP3 ADD MSTORE POP JUMP JUMPDEST PUSH1 0x0 PUSH2 0x382C PUSH1 0x7 DUP4 PUSH2 0x29AE JUMP JUMPDEST SWAP2 POP PUSH2 0x3837 DUP3 PUSH2 0x37F6 JUMP JUMPDEST PUSH1 0x7 DUP3 ADD SWAP1 POP SWAP2 SWAP1 POP JUMP JUMPDEST PUSH1 0x0 PUSH2 0x384D DUP3 PUSH2 0x3787 JUMP JUMPDEST SWAP2 POP PUSH2 0x3859 DUP3 DUP6 PUSH2 0x2C20 JUMP JUMPDEST SWAP2 POP PUSH2 0x3864 DUP3 PUSH2 0x37D3 JUMP JUMPDEST SWAP2 POP PUSH2 0x3870 DUP3 DUP5 PUSH2 0x2C20 JUMP JUMPDEST SWAP2 POP PUSH2 0x387B DUP3 PUSH2 0x381F JUMP JUMPDEST SWAP2 POP DUP2 SWAP1 POP SWAP4 SWAP3 POP POP POP JUMP JUMPDEST PUSH32 0x2058000000000000000000000000000000000000000000000000000000000000 DUP2 MSTORE POP JUMP JUMPDEST PUSH1 0x0 PUSH2 0x38B9 DUP3 DUP5 PUSH2 0x2C20 JUMP JUMPDEST SWAP2 POP PUSH2 0x38C4 DUP3 PUSH2 0x3887 JUMP JUMPDEST PUSH1 0x2 DUP3 ADD SWAP2 POP DUP2 SWAP1 POP SWAP3 SWAP2 POP POP JUMP JUMPDEST PUSH32 0x3C7465787420783D223530252220793D223530252220636C6173733D22626173 PUSH1 0x0 DUP3 ADD MSTORE PUSH32 0x65202220646F6D696E616E742D626173656C696E653D226D6964646C65222074 PUSH1 0x20 DUP3 ADD MSTORE PUSH32 0x6578742D616E63686F723D226D6964646C65223E58454E2043525950544F3C2F PUSH1 0x40 DUP3 ADD MSTORE PUSH32 0x746578743E3C7465787420783D223530252220793D223536252220636C617373 PUSH1 0x60 DUP3 ADD MSTORE PUSH32 0x3D2262617365206275726E2220746578742D616E63686F723D226D6964646C65 PUSH1 0x80 DUP3 ADD MSTORE PUSH32 0x2220646F6D696E616E742D626173656C696E653D226D6964646C65223E200000 PUSH1 0xA0 DUP3 ADD MSTORE POP JUMP JUMPDEST PUSH1 0x0 PUSH2 0x39C7 PUSH1 0xBE DUP4 PUSH2 0x29AE JUMP JUMPDEST SWAP2 POP PUSH2 0x39D2 DUP3 PUSH2 0x38D3 JUMP JUMPDEST PUSH1 0xBE DUP3 ADD SWAP1 POP SWAP2 SWAP1 POP JUMP JUMPDEST PUSH32 0x3C2F746578743E3C7465787420783D223138252220793D223632252220636C61 PUSH1 0x0 DUP3 ADD MSTORE PUSH32 0x73733D2262617365206D6574612220646F6D696E616E742D626173656C696E65 PUSH1 0x20 DUP3 ADD MSTORE PUSH32 0x3D226D6964646C65223E20230000000000000000000000000000000000000000 PUSH1 0x40 DUP3 ADD MSTORE POP JUMP JUMPDEST PUSH1 0x0 PUSH2 0x3A5F PUSH1 0x4C DUP4 PUSH2 0x29AE JUMP JUMPDEST SWAP2 POP PUSH2 0x3A6A DUP3 PUSH2 0x39DD JUMP JUMPDEST PUSH1 0x4C DUP3 ADD SWAP1 POP SWAP2 SWAP1 POP JUMP JUMPDEST PUSH32 0x3C2F746578743E3C7465787420783D223832252220793D223632252220636C61 PUSH1 0x0 DUP3 ADD MSTORE PUSH32 0x73733D2262617365206D657461207365726965732220646F6D696E616E742D62 PUSH1 0x20 DUP3 ADD MSTORE PUSH32 0x6173656C696E653D226D6964646C652220746578742D616E63686F723D22656E PUSH1 0x40 DUP3 ADD MSTORE PUSH32 0x6422203E00000000000000000000000000000000000000000000000000000000 PUSH1 0x60 DUP3 ADD MSTORE POP JUMP JUMPDEST PUSH1 0x0 PUSH2 0x3B1D PUSH1 0x64 DUP4 PUSH2 0x29AE JUMP JUMPDEST SWAP2 POP PUSH2 0x3B28 DUP3 PUSH2 0x3A75 JUMP JUMPDEST PUSH1 0x64 DUP3 ADD SWAP1 POP SWAP2 SWAP1 POP JUMP JUMPDEST PUSH1 0x0 PUSH2 0x3B3E DUP3 PUSH2 0x39BA JUMP JUMPDEST SWAP2 POP PUSH2 0x3B4A DUP3 DUP7 PUSH2 0x2C20 JUMP JUMPDEST SWAP2 POP PUSH2 0x3B55 DUP3 PUSH2 0x3A52 JUMP JUMPDEST SWAP2 POP PUSH2 0x3B61 DUP3 DUP6 PUSH2 0x2C20 JUMP JUMPDEST SWAP2 POP PUSH2 0x3B6C DUP3 PUSH2 0x3B10 JUMP JUMPDEST SWAP2 POP PUSH2 0x3B78 DUP3 DUP5 PUSH2 0x2C20 JUMP JUMPDEST SWAP2 POP PUSH2 0x3B83 DUP3 PUSH2 0x381F JUMP JUMPDEST SWAP2 POP DUP2 SWAP1 POP SWAP5 SWAP4 POP POP POP POP JUMP JUMPDEST PUSH32 0x3C7465787420783D223138252220793D223638252220636C6173733D22626173 PUSH1 0x0 DUP3 ADD MSTORE PUSH32 0x65206D6574612220646F6D696E616E742D626173656C696E653D226D6964646C PUSH1 0x20 DUP3 ADD MSTORE PUSH32 0x6522203E564D553A200000000000000000000000000000000000000000000000 PUSH1 0x40 DUP3 ADD MSTORE POP JUMP JUMPDEST PUSH1 0x0 PUSH2 0x3C12 PUSH1 0x49 DUP4 PUSH2 0x29AE JUMP JUMPDEST SWAP2 POP PUSH2 0x3C1D DUP3 PUSH2 0x3B90 JUMP JUMPDEST PUSH1 0x49 DUP3 ADD SWAP1 POP SWAP2 SWAP1 POP JUMP JUMPDEST PUSH32 0x3C2F746578743E3C7465787420783D223138252220793D223732252220636C61 PUSH1 0x0 DUP3 ADD MSTORE PUSH32 0x73733D2262617365206D6574612220646F6D696E616E742D626173656C696E65 PUSH1 0x20 DUP3 ADD MSTORE PUSH32 0x3D226D6964646C6522203E4541413A2000000000000000000000000000000000 PUSH1 0x40 DUP3 ADD MSTORE POP JUMP JUMPDEST PUSH1 0x0 PUSH2 0x3CAA PUSH1 0x50 DUP4 PUSH2 0x29AE JUMP JUMPDEST SWAP2 POP PUSH2 0x3CB5 DUP3 PUSH2 0x3C28 JUMP JUMPDEST PUSH1 0x50 DUP3 ADD SWAP1 POP SWAP2 SWAP1 POP JUMP JUMPDEST PUSH32 0x253C2F746578743E000000000000000000000000000000000000000000000000 PUSH1 0x0 DUP3 ADD MSTORE POP JUMP JUMPDEST PUSH1 0x0 PUSH2 0x3CF6 PUSH1 0x8 DUP4 PUSH2 0x29AE JUMP JUMPDEST SWAP2 POP PUSH2 0x3D01 DUP3 PUSH2 0x3CC0 JUMP JUMPDEST PUSH1 0x8 DUP3 ADD SWAP1 POP SWAP2 SWAP1 POP JUMP JUMPDEST PUSH1 0x0 PUSH2 0x3D17 DUP3 PUSH2 0x3C05 JUMP JUMPDEST SWAP2 POP PUSH2 0x3D23 DUP3 DUP6 PUSH2 0x2C20 JUMP JUMPDEST SWAP2 POP PUSH2 0x3D2E DUP3 PUSH2 0x3C9D JUMP JUMPDEST SWAP2 POP PUSH2 0x3D3A DUP3 DUP5 PUSH2 0x2C20 JUMP JUMPDEST SWAP2 POP PUSH2 0x3D45 DUP3 PUSH2 0x3CE9 JUMP JUMPDEST SWAP2 POP DUP2 SWAP1 POP SWAP4 SWAP3 POP POP POP JUMP JUMPDEST PUSH1 0x0 PUSH2 0x3D5D DUP3 DUP6 PUSH2 0x2A10 JUMP JUMPDEST SWAP2 POP PUSH2 0x3D69 DUP3 DUP5 PUSH2 0x2A10 JUMP JUMPDEST SWAP2 POP DUP2 SWAP1 POP SWAP4 SWAP3 POP POP POP JUMP JUMPDEST PUSH32 0x3C7465787420783D223138252220793D223736252220636C6173733D22626173 PUSH1 0x0 DUP3 ADD MSTORE PUSH32 0x65206D6574612220646F6D696E616E742D626173656C696E653D226D6964646C PUSH1 0x20 DUP3 ADD MSTORE PUSH32 0x6522203E414D503A200000000000000000000000000000000000000000000000 PUSH1 0x40 DUP3 ADD MSTORE POP JUMP JUMPDEST PUSH1 0x0 PUSH2 0x3DF7 PUSH1 0x49 DUP4 PUSH2 0x29AE JUMP JUMPDEST SWAP2 POP PUSH2 0x3E02 DUP3 PUSH2 0x3D75 JUMP JUMPDEST PUSH1 0x49 DUP3 ADD SWAP1 POP SWAP2 SWAP1 POP JUMP JUMPDEST PUSH32 0x3C2F746578743E3C7465787420783D223138252220793D223830252220636C61 PUSH1 0x0 DUP3 ADD MSTORE PUSH32 0x73733D2262617365206D6574612220646F6D696E616E742D626173656C696E65 PUSH1 0x20 DUP3 ADD MSTORE PUSH32 0x3D226D6964646C6522203E5465726D3A20000000000000000000000000000000 PUSH1 0x40 DUP3 ADD MSTORE POP JUMP JUMPDEST PUSH1 0x0 PUSH2 0x3E8F PUSH1 0x51 DUP4 PUSH2 0x29AE JUMP JUMPDEST SWAP2 POP PUSH2 0x3E9A DUP3 PUSH2 0x3E0D JUMP JUMPDEST PUSH1 0x51 DUP3 ADD SWAP1 POP SWAP2 SWAP1 POP JUMP JUMPDEST PUSH1 0x0 PUSH2 0x3EB0 DUP3 PUSH2 0x3DEA JUMP JUMPDEST SWAP2 POP PUSH2 0x3EBC DUP3 DUP6 PUSH2 0x2C20 JUMP JUMPDEST SWAP2 POP PUSH2 0x3EC7 DUP3 PUSH2 0x3E82 JUMP JUMPDEST SWAP2 POP PUSH2 0x3ED3 DUP3 DUP5 PUSH2 0x2C20 JUMP JUMPDEST SWAP2 POP DUP2 SWAP1 POP SWAP4 SWAP3 POP POP POP JUMP JUMPDEST PUSH32 0x20646179733C2F746578743E3C7465787420783D223138252220793D22383425 PUSH1 0x0 DUP3 ADD MSTORE PUSH32 0x2220636C6173733D2262617365206D6574612220646F6D696E616E742D626173 PUSH1 0x20 DUP3 ADD MSTORE PUSH32 0x656C696E653D226D6964646C6522203E6352616E6B3A20000000000000000000 PUSH1 0x40 DUP3 ADD MSTORE POP JUMP JUMPDEST PUSH1 0x0 PUSH2 0x3F61 PUSH1 0x57 DUP4 PUSH2 0x29AE JUMP JUMPDEST SWAP2 POP PUSH2 0x3F6C DUP3 PUSH2 0x3EDF JUMP JUMPDEST PUSH1 0x57 DUP3 ADD SWAP1 POP SWAP2 SWAP1 POP JUMP JUMPDEST PUSH32 0x3C2F746578743E3C7465787420783D223138252220793D223838252220636C61 PUSH1 0x0 DUP3 ADD MSTORE PUSH32 0x73733D2262617365206D6574612220646F6D696E616E742D626173656C696E65 PUSH1 0x20 DUP3 ADD MSTORE PUSH32 0x3D226D6964646C6522203E4D617475726974793A200000000000000000000000 PUSH1 0x40 DUP3 ADD MSTORE POP JUMP JUMPDEST PUSH1 0x0 PUSH2 0x3FF9 PUSH1 0x55 DUP4 PUSH2 0x29AE JUMP JUMPDEST SWAP2 POP PUSH2 0x4004 DUP3 PUSH2 0x3F77 JUMP JUMPDEST PUSH1 0x55 DUP3 ADD SWAP1 POP SWAP2 SWAP1 POP JUMP JUMPDEST PUSH1 0x0 PUSH2 0x401A DUP3 PUSH2 0x3F54 JUMP JUMPDEST SWAP2 POP PUSH2 0x4026 DUP3 DUP6 PUSH2 0x2A10 JUMP JUMPDEST SWAP2 POP PUSH2 0x4031 DUP3 PUSH2 0x3FEC JUMP JUMPDEST SWAP2 POP PUSH2 0x403D DUP3 DUP5 PUSH2 0x2C20 JUMP JUMPDEST SWAP2 POP PUSH2 0x4048 DUP3 PUSH2 0x381F JUMP JUMPDEST SWAP2 POP DUP2 SWAP1 POP SWAP4 SWAP3 POP POP POP JUMP JUMPDEST PUSH32 0x3C7465787420783D223530252220793D223935252220636C6173733D22626173 PUSH1 0x0 DUP3 ADD MSTORE PUSH32 0x6520736D616C6C2220646F6D696E616E742D626173656C696E653D226D696464 PUSH1 0x20 DUP3 ADD MSTORE PUSH32 0x6C652220746578742D616E63686F723D226D6964646C6522203E000000000000 PUSH1 0x40 DUP3 ADD MSTORE POP JUMP JUMPDEST PUSH1 0x0 PUSH2 0x40D6 PUSH1 0x5A DUP4 PUSH2 0x29AE JUMP JUMPDEST SWAP2 POP PUSH2 0x40E1 DUP3 PUSH2 0x4054 JUMP JUMPDEST PUSH1 0x5A DUP3 ADD SWAP1 POP SWAP2 SWAP1 POP JUMP JUMPDEST PUSH1 0x0 PUSH2 0x40F7 DUP3 PUSH2 0x40C9 JUMP JUMPDEST SWAP2 POP PUSH2 0x4103 DUP3 DUP5 PUSH2 0x2C20 JUMP JUMPDEST SWAP2 POP PUSH2 0x410E DUP3 PUSH2 0x381F JUMP JUMPDEST SWAP2 POP DUP2 SWAP1 POP SWAP3 SWAP2 POP POP JUMP JUMPDEST PUSH32 0x3C7265637420783D223530252220793D2237372E3525222077696474683D2231 PUSH1 0x0 DUP3 ADD MSTORE PUSH32 0x303022206865696768743D22343022207374726F6B653D22626C61636B222073 PUSH1 0x20 DUP3 ADD MSTORE PUSH32 0x74726F6B652D77696474683D2231222066696C6C3D226E6F6E65222072783D22 PUSH1 0x40 DUP3 ADD MSTORE PUSH32 0x357078222072793D2235707822207472616E73666F726D3D227472616E736C61 PUSH1 0x60 DUP3 ADD MSTORE PUSH32 0x7465282D35302C2D32302920726F74617465282D32302C302C3430302922202F PUSH1 0x80 DUP3 ADD MSTORE PUSH32 0x3E00000000000000000000000000000000000000000000000000000000000000 PUSH1 0xA0 DUP3 ADD MSTORE POP JUMP JUMPDEST PUSH1 0x0 PUSH2 0x420D PUSH1 0xA1 DUP4 PUSH2 0x29AE JUMP JUMPDEST SWAP2 POP PUSH2 0x4218 DUP3 PUSH2 0x4119 JUMP JUMPDEST PUSH1 0xA1 DUP3 ADD SWAP1 POP SWAP2 SWAP1 POP JUMP JUMPDEST PUSH32 0x3C7465787420783D223530252220793D2237372E352522207374726F6B653D22 PUSH1 0x0 DUP3 ADD MSTORE PUSH32 0x626C61636B2220636C6173733D2262617365206D6574612220646F6D696E616E PUSH1 0x20 DUP3 ADD MSTORE PUSH32 0x742D626173656C696E653D226D6964646C652220746578742D616E63686F723D PUSH1 0x40 DUP3 ADD MSTORE PUSH32 0x226D6964646C6522207472616E73666F726D3D227472616E736C61746528302C PUSH1 0x60 DUP3 ADD MSTORE PUSH32 0x302920726F74617465282D32302C2D34352C3338302922203E52656465656D65 PUSH1 0x80 DUP3 ADD MSTORE PUSH32 0x643C2F746578743E000000000000000000000000000000000000000000000000 PUSH1 0xA0 DUP3 ADD MSTORE POP JUMP JUMPDEST PUSH1 0x0 PUSH2 0x4317 PUSH1 0xA8 DUP4 PUSH2 0x29AE JUMP JUMPDEST SWAP2 POP PUSH2 0x4322 DUP3 PUSH2 0x4223 JUMP JUMPDEST PUSH1 0xA8 DUP3 ADD SWAP1 POP SWAP2 SWAP1 POP JUMP JUMPDEST PUSH1 0x0 PUSH2 0x4338 DUP3 PUSH2 0x4200 JUMP JUMPDEST SWAP2 POP PUSH2 0x4343 DUP3 PUSH2 0x430A JUMP JUMPDEST SWAP2 POP DUP2 SWAP1 POP SWAP2 SWAP1 POP JUMP JUMPDEST PUSH32 0x3C6C696E6561724772616469656E742020000000000000000000000000000000 PUSH1 0x0 DUP3 ADD MSTORE POP JUMP JUMPDEST PUSH1 0x0 PUSH2 0x4383 PUSH1 0x11 DUP4 PUSH2 0x29AE JUMP JUMPDEST SWAP2 POP PUSH2 0x438E DUP3 PUSH2 0x434D JUMP JUMPDEST PUSH1 0x11 DUP3 ADD SWAP1 POP SWAP2 SWAP1 POP JUMP JUMPDEST PUSH32 0x69643D2267000000000000000000000000000000000000000000000000000000 PUSH1 0x0 DUP3 ADD MSTORE POP JUMP JUMPDEST PUSH1 0x0 PUSH2 0x43CF PUSH1 0x5 DUP4 PUSH2 0x29AE JUMP JUMPDEST SWAP2 POP PUSH2 0x43DA DUP3 PUSH2 0x4399 JUMP JUMPDEST PUSH1 0x5 DUP3 ADD SWAP1 POP SWAP2 SWAP1 POP JUMP JUMPDEST PUSH32 0x223E000000000000000000000000000000000000000000000000000000000000 PUSH1 0x0 DUP3 ADD MSTORE POP JUMP JUMPDEST PUSH1 0x0 PUSH2 0x441B PUSH1 0x2 DUP4 PUSH2 0x29AE JUMP JUMPDEST SWAP2 POP PUSH2 0x4426 DUP3 PUSH2 0x43E5 JUMP JUMPDEST PUSH1 0x2 DUP3 ADD SWAP1 POP SWAP2 SWAP1 POP JUMP JUMPDEST PUSH32 0x3C2F6C696E6561724772616469656E743E000000000000000000000000000000 PUSH1 0x0 DUP3 ADD MSTORE POP JUMP JUMPDEST PUSH1 0x0 PUSH2 0x4467 PUSH1 0x11 DUP4 PUSH2 0x29AE JUMP JUMPDEST SWAP2 POP PUSH2 0x4472 DUP3 PUSH2 0x4431 JUMP JUMPDEST PUSH1 0x11 DUP3 ADD SWAP1 POP SWAP2 SWAP1 POP JUMP JUMPDEST PUSH1 0x0 PUSH2 0x4488 DUP3 PUSH2 0x4376 JUMP JUMPDEST SWAP2 POP PUSH2 0x4494 DUP3 DUP7 PUSH2 0x2A10 JUMP JUMPDEST SWAP2 POP PUSH2 0x449F DUP3 PUSH2 0x43C2 JUMP JUMPDEST SWAP2 POP PUSH2 0x44AB DUP3 DUP6 PUSH2 0x2C20 JUMP JUMPDEST SWAP2 POP PUSH2 0x44B6 DUP3 PUSH2 0x440E JUMP JUMPDEST SWAP2 POP PUSH2 0x44C2 DUP3 DUP5 PUSH2 0x2C20 JUMP JUMPDEST SWAP2 POP PUSH2 0x44CD DUP3 PUSH2 0x445A JUMP JUMPDEST SWAP2 POP DUP2 SWAP1 POP SWAP5 SWAP4 POP POP POP POP JUMP JUMPDEST PUSH32 0x3C726563742077696474683D223130302522206865696768743D223130302522 PUSH1 0x0 DUP3 ADD MSTORE PUSH32 0x2066696C6C3D2275726C28236700000000000000000000000000000000000000 PUSH1 0x20 DUP3 ADD MSTORE POP JUMP JUMPDEST PUSH1 0x0 PUSH2 0x4536 PUSH1 0x2D DUP4 PUSH2 0x29AE JUMP JUMPDEST SWAP2 POP PUSH2 0x4541 DUP3 PUSH2 0x44DA JUMP JUMPDEST PUSH1 0x2D DUP3 ADD SWAP1 POP SWAP2 SWAP1 POP JUMP JUMPDEST PUSH32 0x29222072783D2231307078222072793D223130707822207374726F6B652D6C69 PUSH1 0x0 DUP3 ADD MSTORE PUSH32 0x6E656A6F696E3D22726F756E6422202F3E000000000000000000000000000000 PUSH1 0x20 DUP3 ADD MSTORE POP JUMP JUMPDEST PUSH1 0x0 PUSH2 0x45A8 PUSH1 0x31 DUP4 PUSH2 0x29AE JUMP JUMPDEST SWAP2 POP PUSH2 0x45B3 DUP3 PUSH2 0x454C JUMP JUMPDEST PUSH1 0x31 DUP3 ADD SWAP1 POP SWAP2 SWAP1 POP JUMP JUMPDEST PUSH1 0x0 PUSH2 0x45C9 DUP3 PUSH2 0x4529 JUMP JUMPDEST SWAP2 POP PUSH2 0x45D5 DUP3 DUP5 PUSH2 0x2C20 JUMP JUMPDEST SWAP2 POP PUSH2 0x45E0 DUP3 PUSH2 0x459B JUMP JUMPDEST SWAP2 POP DUP2 SWAP1 POP SWAP3 SWAP2 POP POP JUMP JUMPDEST PUSH1 0x0 PUSH2 0x45F7 DUP3 DUP5 PUSH2 0x2C20 JUMP JUMPDEST SWAP2 POP DUP2 SWAP1 POP SWAP3 SWAP2 POP POP JUMP JUMPDEST PUSH32 0x2E2E000000000000000000000000000000000000000000000000000000000000 PUSH1 0x0 DUP3 ADD MSTORE POP JUMP JUMPDEST PUSH1 0x0 PUSH2 0x4638 PUSH1 0x2 DUP4 PUSH2 0x29AE JUMP JUMPDEST SWAP2 POP PUSH2 0x4643 DUP3 PUSH2 0x4602 JUMP JUMPDEST PUSH1 0x2 DUP3 ADD SWAP1 POP SWAP2 SWAP1 POP JUMP JUMPDEST PUSH1 0x0 PUSH2 0x465A DUP3 DUP6 PUSH2 0x2C20 JUMP JUMPDEST SWAP2 POP PUSH2 0x4665 DUP3 PUSH2 0x462B JUMP JUMPDEST SWAP2 POP PUSH2 0x4671 DUP3 DUP5 PUSH2 0x2C20 JUMP JUMPDEST SWAP2 POP DUP2 SWAP1 POP SWAP4 SWAP3 POP POP POP JUMP JUMPDEST PUSH32 0x3C73746F702073746F702D636F6C6F723D220000000000000000000000000000 PUSH1 0x0 DUP3 ADD MSTORE POP JUMP JUMPDEST PUSH1 0x0 PUSH2 0x46B3 PUSH1 0x12 DUP4 PUSH2 0x29AE JUMP JUMPDEST SWAP2 POP PUSH2 0x46BE DUP3 PUSH2 0x467D JUMP JUMPDEST PUSH1 0x12 DUP3 ADD SWAP1 POP SWAP2 SWAP1 POP JUMP JUMPDEST PUSH32 0x222073746F702D6F7061636974793D2200000000000000000000000000000000 PUSH1 0x0 DUP3 ADD MSTORE POP JUMP JUMPDEST PUSH1 0x0 PUSH2 0x46FF PUSH1 0x10 DUP4 PUSH2 0x29AE JUMP JUMPDEST SWAP2 POP PUSH2 0x470A DUP3 PUSH2 0x46C9 JUMP JUMPDEST PUSH1 0x10 DUP3 ADD SWAP1 POP SWAP2 SWAP1 POP JUMP JUMPDEST PUSH32 0x22206F66667365743D2200000000000000000000000000000000000000000000 PUSH1 0x0 DUP3 ADD MSTORE POP JUMP JUMPDEST PUSH1 0x0 PUSH2 0x474B PUSH1 0xA DUP4 PUSH2 0x29AE JUMP JUMPDEST SWAP2 POP PUSH2 0x4756 DUP3 PUSH2 0x4715 JUMP JUMPDEST PUSH1 0xA DUP3 ADD SWAP1 POP SWAP2 SWAP1 POP JUMP JUMPDEST PUSH32 0x25222F3E00000000000000000000000000000000000000000000000000000000 PUSH1 0x0 DUP3 ADD MSTORE POP JUMP JUMPDEST PUSH1 0x0 PUSH2 0x4797 PUSH1 0x4 DUP4 PUSH2 0x29AE JUMP JUMPDEST SWAP2 POP PUSH2 0x47A2 DUP3 PUSH2 0x4761 JUMP JUMPDEST PUSH1 0x4 DUP3 ADD SWAP1 POP SWAP2 SWAP1 POP JUMP JUMPDEST PUSH1 0x0 PUSH2 0x47B8 DUP3 PUSH2 0x46A6 JUMP JUMPDEST SWAP2 POP PUSH2 0x47C4 DUP3 DUP7 PUSH2 0x2A10 JUMP JUMPDEST SWAP2 POP PUSH2 0x47CF DUP3 PUSH2 0x46F2 JUMP JUMPDEST SWAP2 POP PUSH2 0x47DB DUP3 DUP6 PUSH2 0x2C20 JUMP JUMPDEST SWAP2 POP PUSH2 0x47E6 DUP3 PUSH2 0x473E JUMP JUMPDEST SWAP2 POP PUSH2 0x47F2 DUP3 DUP5 PUSH2 0x2C20 JUMP JUMPDEST SWAP2 POP PUSH2 0x47FD DUP3 PUSH2 0x478A JUMP JUMPDEST SWAP2 POP DUP2 SWAP1 POP SWAP5 SWAP4 POP POP POP POP JUMP JUMPDEST PUSH32 0x78313D2200000000000000000000000000000000000000000000000000000000 PUSH1 0x0 DUP3 ADD MSTORE POP JUMP JUMPDEST PUSH1 0x0 PUSH2 0x4840 PUSH1 0x4 DUP4 PUSH2 0x29AE JUMP JUMPDEST SWAP2 POP PUSH2 0x484B DUP3 PUSH2 0x480A JUMP JUMPDEST PUSH1 0x4 DUP3 ADD SWAP1 POP SWAP2 SWAP1 POP JUMP JUMPDEST PUSH32 0x25222079313D2200000000000000000000000000000000000000000000000000 PUSH1 0x0 DUP3 ADD MSTORE POP JUMP JUMPDEST PUSH1 0x0 PUSH2 0x488C PUSH1 0x7 DUP4 PUSH2 0x29AE JUMP JUMPDEST SWAP2 POP PUSH2 0x4897 DUP3 PUSH2 0x4856 JUMP JUMPDEST PUSH1 0x7 DUP3 ADD SWAP1 POP SWAP2 SWAP1 POP JUMP JUMPDEST PUSH32 0x25222078323D2200000000000000000000000000000000000000000000000000 PUSH1 0x0 DUP3 ADD MSTORE POP JUMP JUMPDEST PUSH1 0x0 PUSH2 0x48D8 PUSH1 0x7 DUP4 PUSH2 0x29AE JUMP JUMPDEST SWAP2 POP PUSH2 0x48E3 DUP3 PUSH2 0x48A2 JUMP JUMPDEST PUSH1 0x7 DUP3 ADD SWAP1 POP SWAP2 SWAP1 POP JUMP JUMPDEST PUSH32 0x25222079323D2200000000000000000000000000000000000000000000000000 PUSH1 0x0 DUP3 ADD MSTORE POP JUMP JUMPDEST PUSH1 0x0 PUSH2 0x4924 PUSH1 0x7 DUP4 PUSH2 0x29AE JUMP JUMPDEST SWAP2 POP PUSH2 0x492F DUP3 PUSH2 0x48EE JUMP JUMPDEST PUSH1 0x7 DUP3 ADD SWAP1 POP SWAP2 SWAP1 POP JUMP JUMPDEST PUSH32 0x2522200000000000000000000000000000000000000000000000000000000000 PUSH1 0x0 DUP3 ADD MSTORE POP JUMP JUMPDEST PUSH1 0x0 PUSH2 0x4970 PUSH1 0x3 DUP4 PUSH2 0x29AE JUMP JUMPDEST SWAP2 POP PUSH2 0x497B DUP3 PUSH2 0x493A JUMP JUMPDEST PUSH1 0x3 DUP3 ADD SWAP1 POP SWAP2 SWAP1 POP JUMP JUMPDEST PUSH1 0x0 PUSH2 0x4991 DUP3 PUSH2 0x4833 JUMP JUMPDEST SWAP2 POP PUSH2 0x499D DUP3 DUP8 PUSH2 0x2C20 JUMP JUMPDEST SWAP2 POP PUSH2 0x49A8 DUP3 PUSH2 0x487F JUMP JUMPDEST SWAP2 POP PUSH2 0x49B4 DUP3 DUP7 PUSH2 0x2C20 JUMP JUMPDEST SWAP2 POP PUSH2 0x49BF DUP3 PUSH2 0x48CB JUMP JUMPDEST SWAP2 POP PUSH2 0x49CB DUP3 DUP6 PUSH2 0x2C20 JUMP JUMPDEST SWAP2 POP PUSH2 0x49D6 DUP3 PUSH2 0x4917 JUMP JUMPDEST SWAP2 POP PUSH2 0x49E2 DUP3 DUP5 PUSH2 0x2C20 JUMP JUMPDEST SWAP2 POP PUSH2 0x49ED DUP3 PUSH2 0x4963 JUMP JUMPDEST SWAP2 POP DUP2 SWAP1 POP SWAP6 SWAP5 POP POP POP POP POP JUMP JUMPDEST PUSH1 0x0 PUSH2 0x4A06 DUP3 PUSH2 0x22DF JUMP JUMPDEST SWAP2 POP PUSH1 0x0 DUP3 SUB PUSH2 0x4A19 JUMPI PUSH2 0x4A18 PUSH2 0x2AE1 JUMP JUMPDEST JUMPDEST PUSH1 0x1 DUP3 SUB SWAP1 POP SWAP2 SWAP1 POP JUMP JUMPDEST PUSH1 0x0 DUP3 DUP3 MSTORE PUSH1 0x20 DUP3 ADD SWAP1 POP SWAP3 SWAP2 POP POP JUMP JUMPDEST PUSH32 0x537472696E67733A20686578206C656E67746820696E73756666696369656E74 PUSH1 0x0 DUP3 ADD MSTORE POP JUMP JUMPDEST PUSH1 0x0 PUSH2 0x4A6B PUSH1 0x20 DUP4 PUSH2 0x4A24 JUMP JUMPDEST SWAP2 POP PUSH2 0x4A76 DUP3 PUSH2 0x4A35 JUMP JUMPDEST PUSH1 0x20 DUP3 ADD SWAP1 POP SWAP2 SWAP1 POP JUMP JUMPDEST PUSH1 0x0 PUSH1 0x20 DUP3 ADD SWAP1 POP DUP2 DUP2 SUB PUSH1 0x0 DUP4 ADD MSTORE PUSH2 0x4A9A DUP2 PUSH2 0x4A5E JUMP JUMPDEST SWAP1 POP SWAP2 SWAP1 POP JUMP JUMPDEST PUSH32 0x68736C2800000000000000000000000000000000000000000000000000000000 PUSH1 0x0 DUP3 ADD MSTORE POP JUMP JUMPDEST PUSH1 0x0 PUSH2 0x4AD7 PUSH1 0x4 DUP4 PUSH2 0x29AE JUMP JUMPDEST SWAP2 POP PUSH2 0x4AE2 DUP3 PUSH2 0x4AA1 JUMP JUMPDEST PUSH1 0x4 DUP3 ADD SWAP1 POP SWAP2 SWAP1 POP JUMP JUMPDEST PUSH32 0x2C20000000000000000000000000000000000000000000000000000000000000 PUSH1 0x0 DUP3 ADD MSTORE POP JUMP JUMPDEST PUSH1 0x0 PUSH2 0x4B23 PUSH1 0x2 DUP4 PUSH2 0x29AE JUMP JUMPDEST SWAP2 POP PUSH2 0x4B2E DUP3 PUSH2 0x4AED JUMP JUMPDEST PUSH1 0x2 DUP3 ADD SWAP1 POP SWAP2 SWAP1 POP JUMP JUMPDEST PUSH32 0x252C200000000000000000000000000000000000000000000000000000000000 PUSH1 0x0 DUP3 ADD MSTORE POP JUMP JUMPDEST PUSH1 0x0 PUSH2 0x4B6F PUSH1 0x3 DUP4 PUSH2 0x29AE JUMP JUMPDEST SWAP2 POP PUSH2 0x4B7A DUP3 PUSH2 0x4B39 JUMP JUMPDEST PUSH1 0x3 DUP3 ADD SWAP1 POP SWAP2 SWAP1 POP JUMP JUMPDEST PUSH32 0x2529000000000000000000000000000000000000000000000000000000000000 PUSH1 0x0 DUP3 ADD MSTORE POP JUMP JUMPDEST PUSH1 0x0 PUSH2 0x4BBB PUSH1 0x2 DUP4 PUSH2 0x29AE JUMP JUMPDEST SWAP2 POP PUSH2 0x4BC6 DUP3 PUSH2 0x4B85 JUMP JUMPDEST PUSH1 0x2 DUP3 ADD SWAP1 POP SWAP2 SWAP1 POP JUMP JUMPDEST PUSH1 0x0 PUSH2 0x4BDC DUP3 PUSH2 0x4ACA JUMP JUMPDEST SWAP2 POP PUSH2 0x4BE8 DUP3 DUP7 PUSH2 0x2C20 JUMP JUMPDEST SWAP2 POP PUSH2 0x4BF3 DUP3 PUSH2 0x4B16 JUMP JUMPDEST SWAP2 POP PUSH2 0x4BFF DUP3 DUP6 PUSH2 0x2C20 JUMP JUMPDEST SWAP2 POP PUSH2 0x4C0A DUP3 PUSH2 0x4B62 JUMP JUMPDEST SWAP2 POP PUSH2 0x4C16 DUP3 DUP5 PUSH2 0x2C20 JUMP JUMPDEST SWAP2 POP PUSH2 0x4C21 DUP3 PUSH2 0x4BAE JUMP JUMPDEST SWAP2 POP DUP2 SWAP1 POP SWAP5 SWAP4 POP POP POP POP JUMP INVALID EXTCODECOPY PUSH8 0x3E3C706174682073 PUSH21 0x726F6B653D2223656465646564222066696C6C3D22 PUSH15 0x6F6E6522207472616E73666F726D3D 0x22 PUSH21 0x72616E736C617465283236352C343138292220643D 0x22 PUSH14 0x20302030204C202D3230202D3330 KECCAK256 0x4C KECCAK256 0x2D BALANCE ORIGIN 0x2E CALLDATALOAD KECCAK256 0x2D CALLER CODESIZE 0x2E CALLDATALOAD KECCAK256 PUSH13 0x20362E352037204C2030202D33 CODESIZE 0x2E CALLDATALOAD KECCAK256 0x4C KECCAK256 CALLDATASIZE 0x2E CALLDATALOAD CALLDATASIZE KECCAK256 0x2D CALLER BALANCE 0x2E CALLER ORIGIN KECCAK256 0x4C KECCAK256 BALANCE ORIGIN 0x2E CALLDATALOAD KECCAK256 0x2D CALLER CODESIZE 0x2E CALLDATALOAD KECCAK256 0x4C KECCAK256 ORIGIN ADDRESS KECCAK256 0x2D CALLER ADDRESS KECCAK256 0x4C KECCAK256 ADDRESS KECCAK256 ADDRESS KECCAK256 0x4C KECCAK256 0x2D CALLDATACOPY 0x2E CALLER CALLVALUE CALLDATALOAD KECCAK256 0x2D ORIGIN CODECOPY 0x2E CODECOPY CALLDATALOAD CALLDATALOAD KECCAK256 0x4C KECCAK256 ADDRESS KECCAK256 0x2D CALLER CODESIZE 0x2E CALLDATALOAD KECCAK256 0x4C KECCAK256 CALLDATACOPY 0x2E CALLDATASIZE CALLDATACOPY KECCAK256 0x2D CALLER ADDRESS 0x2E ADDRESS CALLVALUE KECCAK256 0x4C KECCAK256 ADDRESS KECCAK256 ADDRESS KECCAK256 GAS KECCAK256 0x4D KECCAK256 ADDRESS KECCAK256 ADDRESS KECCAK256 0x4C KECCAK256 0x2D ORIGIN ADDRESS 0x2E ADDRESS CALLDATALOAD CALLDATALOAD KECCAK256 0x2D ORIGIN CODECOPY 0x2E CODECOPY CALLDATALOAD CALLDATALOAD KECCAK256 PUSH13 0x20372E353535202D382E353435 KECCAK256 PUSH13 0x2032342E393635202D302E3031 CALLDATALOAD KECCAK256 0x4C KECCAK256 ORIGIN ADDRESS KECCAK256 0x2D CALLER ADDRESS KECCAK256 0x4C KECCAK256 0x2D ORIGIN ADDRESS 0x2E ADDRESS CALLDATALOAD CALLDATALOAD KECCAK256 0x2D ORIGIN CODECOPY 0x2E CODECOPY CALLDATALOAD CALLDATALOAD 0x22 0x2F RETURNDATACOPY EXTCODECOPY 0x2F PUSH8 0x3E22546865206D69 PUSH15 0x642069732065766572797468696E67 0x2E KECCAK256 JUMPI PUSH9 0x617420796F75207468 PUSH10 0x6E6B2C20796F75206265 PUSH4 0x6F6D652E 0x22 0x2D KECCAK256 TIMESTAMP PUSH22 0x64612020202020202022576861742077652061726520 PUSH10 0x73207468652072657375 PUSH13 0x74206F66207768617420776520 PUSH9 0x6176652074686F7567 PUSH9 0x742E222D4E696B6F6C PUSH2 0x2054 PUSH6 0x736C61202246 PUSH2 0x696C PUSH22 0x726573206172652073696D706C792073746570732074 PUSH16 0x77617264732073756363657373222E2D KECCAK256 GASLIMIT PUSH13 0x6F6E204D75736B2E2020202020 KECCAK256 KECCAK256 KECCAK256 KECCAK256 KECCAK256 0x22 SLOAD PUSH9 0x65206F6E6C79207761 PUSH26 0x20746F20646F20677265617420776F726B20697320746F206C6F PUSH23 0x65207768617420796F7520646F2E222D5374657665204A PUSH16 0x6273224861747265642063616E206F6E PUSH13 0x79206265206F766572636F6D65 KECCAK256 PUSH3 0x79206C PUSH16 0x76652E222D2042756461202020202020 KECCAK256 KECCAK256 KECCAK256 KECCAK256 KECCAK256 KECCAK256 KECCAK256 KECCAK256 KECCAK256 KECCAK256 KECCAK256 KECCAK256 KECCAK256 KECCAK256 KECCAK256 KECCAK256 0x22 MSTORE8 PUSH10 0x6D706C69636974792069 PUSH20 0x2074686520756C74696D61746520736F70686973 PUSH21 0x69636174696F6E2E22202D4C656F6E6172646F2064 PUSH2 0x2056 PUSH10 0x6E63692E202022426520 PUSH21 0x6865206368616E676520796F75207769736820746F KECCAK256 PUSH20 0x656520696E2074686520776F726C642E222D4D61 PUSH9 0x61746D612047616E64 PUSH9 0x692E20202020202243 PUSH22 0x72696F73697479206973206D6F726520696D706F7274 PUSH2 0x6E74 KECCAK256 PUSH21 0x68616E206B6E6F776C656467652E22202D20416C62 PUSH6 0x72742045696E PUSH20 0x7465696E202020225468657265206973206E6F20 PUSH17 0x61746820746F2068617070696E6573733A PUSH9 0x617070696E65737320 PUSH10 0x73207468652070617468 0x2E 0x22 0x2D KECCAK256 TIMESTAMP PUSH22 0x64612020202020202257686174207765206172652069 PUSH20 0x2074686520726573756C74206F66207768617420 PUSH24 0x6520686176652074686F756768742E222D4E696B6F6C6120 SLOAD PUSH6 0x736C61202250 PUSH6 0x61636520636F PUSH14 0x65732066726F6D2077697468696E 0x2E KECCAK256 PREVRANDAO PUSH16 0x206E6F74207365656B20697420776974 PUSH9 0x6F75742E222D204275 PUSH5 0x6120202020 KECCAK256 KECCAK256 KECCAK256 KECCAK256 KECCAK256 KECCAK256 0x22 COINBASE KECCAK256 PUSH14 0x616E206D757374206C6561726E20 PUSH21 0x6F207361696C20696E207374726F6E672077696E64 PUSH20 0x2E22202D20456C6F6E204D75736B2E2020202020 KECCAK256 KECCAK256 KECCAK256 KECCAK256 KECCAK256 EXTCODECOPY PUSH17 0x6174682066696C6C3D2223656465646564 0x22 KECCAK256 PUSH5 0x3D224D3132 ORIGIN 0x2E CALLDATACOPY 0x2C ORIGIN ORIGIN CALLDATACOPY 0x2E BALANCE KECCAK256 PUSH13 0x2D342E382C306C35352E382C2D CALLDATACOPY CALLVALUE PUSH13 0x302C332E326C2D35312E382C2D CALLDATASIZE CODECOPY 0x2E ORIGIN PUSH13 0x352C306C34382E382C36352E34 PUSH13 0x2D312E322C306C34382E382C2D CALLDATASIZE CALLDATALOAD 0x2E CALLVALUE PUSH13 0x342E382C306C2D35312E322C36 CODESIZE 0x2E CALLVALUE PUSH13 0x302C2D312E366C35352E322C37 CALLER 0x2E ORIGIN PUSH13 0x2D352C306C2D35322E382C2D37 ADDRESS 0x2E ORIGIN PUSH13 0x312E322C306C2D35322E382C37 ADDRESS 0x2E ORIGIN PUSH27 0x2220766563746F722D6566666563743D226E6F6E2D7363616C696E PUSH8 0x2D7374726F6B6522 KECCAK256 0x2F RETURNDATACOPY EXTCODECOPY PUSH8 0x3E203C7061746820 PUSH7 0x696C6C3D222365 PUSH5 0x6564656422 KECCAK256 PUSH21 0x72616E73666F726D3D227363616C6528302E342920 PUSH21 0x72616E736C617465283630302C2039343029222064 RETURNDATASIZE 0x22 0x4D CALLDATASIZE CALLDATASIZE 0x2C CALLER CODESIZE 0x2E ADDRESS CODECOPY PUSH18 0x2E30362E392E31382C312E3731762E303563 BALANCE 0x2C CALLDATACOPY 0x2E ADDRESS CODESIZE 0x2C CALLVALUE 0x2E CALLDATASIZE CALLER 0x2C BALANCE BALANCE 0x2E CALLER CODECOPY 0x2C CODECOPY 0x2E CALLDATALOAD CODECOPY 0x2C BALANCE CALLER 0x2E CODESIZE BALANCE 0x2C CALLDATALOAD 0x2E BALANCE CODESIZE 0x2C ORIGIN 0x2E CALLDATALOAD CALLER 0x2C BALANCE BALANCE 0x2E CODESIZE CALLER 0x2C CALLER 0x2E ADDRESS CODECOPY 0x2C BALANCE CODESIZE 0x2E CALLVALUE CODESIZE 0x2C ORIGIN 0x2E CALLDATASIZE BALANCE 0x2C BALANCE 0x2E CALLVALUE CODECOPY 0x2D 0x2E BALANCE BALANCE 0x2C CALLER 0x2D 0x2E ORIGIN CALLDATACOPY 0x2C CALLVALUE 0x2E CALLER CODECOPY 0x2D 0x2E CALLVALUE CALLDATACOPY PUSH13 0x312E35392D2E3263342E37382D 0x2E CALLDATASIZE BALANCE 0x2C BALANCE BALANCE 0x2E CALLVALUE CALLDATACOPY 0x2D BALANCE 0x2E CALLVALUE CODESIZE 0x2C BALANCE CALLER 0x2E CALLER CALLDATALOAD 0x2D CALLDATALOAD 0x2E ADDRESS CALLDATASIZE 0x2C BALANCE 0x2E BALANCE CALLDATASIZE 0x2D ORIGIN 0x2E ORIGIN 0x2C BALANCE 0x2D CALLDATALOAD 0x2C ADDRESS 0x2D CODESIZE PUSH2 0x3338 0x2E CODESIZE CALLDATALOAD 0x2C CALLER CODESIZE 0x2E CODESIZE CALLDATALOAD 0x2C ADDRESS 0x2C ADDRESS 0x2C ADDRESS 0x2D CALLDATASIZE 0x2E CODESIZE CODECOPY 0x2D BALANCE BALANCE 0x2E CALLDATACOPY CALLER COINBASE CALLER ORIGIN 0x2E ORIGIN CALLVALUE 0x2C CALLER ORIGIN 0x2E ORIGIN CALLVALUE 0x2C ADDRESS 0x2C ADDRESS 0x2C ADDRESS 0x2C CODECOPY CALLDATALOAD 0x2C ORIGIN BALANCE 0x2E CALLVALUE CALLDATASIZE 0x2C ORIGIN BALANCE 0x2E ORIGIN 0x2C ORIGIN BALANCE 0x2E ORIGIN 0x2C ADDRESS 0x2C ADDRESS 0x2C ADDRESS 0x2C CODESIZE ORIGIN 0x2E CALLER 0x2C ORIGIN ADDRESS PUSH2 0x3233 0x2E CALLDATALOAD CALLER 0x2C ORIGIN CALLER 0x2E CALLDATALOAD CALLER 0x2C ADDRESS 0x2C ADDRESS 0x2C ADDRESS 0x2D BALANCE ORIGIN 0x2E CALLDATACOPY CALLDATALOAD 0x2C CALLDATACOPY 0x2C BALANCE CALLDATALOAD 0x2E CALLDATASIZE CALLDATASIZE 0x2C BALANCE CALLDATALOAD 0x2E CALLDATASIZE CALLDATASIZE 0x2C ADDRESS 0x2C ADDRESS 0x2C ADDRESS 0x2D ORIGIN 0x2E CALLER CALLDATALOAD 0x2C CALLER 0x2E CALLVALUE CALLDATASIZE PUSH9 0x306132302E38332C32 ADDRESS 0x2E CODESIZE CALLER 0x2C ADDRESS 0x2C ADDRESS 0x2C ADDRESS 0x2D BALANCE 0x2C ORIGIN 0x2E CODESIZE CALLER PUSH13 0x2D2E30362E322C302C2E313241 BALANCE ORIGIN 0x2C BALANCE ORIGIN 0x2C ADDRESS 0x2C ADDRESS 0x2C ADDRESS 0x2C CALLDATASIZE CALLDATASIZE 0x2C CALLER CALLDATACOPY 0x2E CODECOPY PUSH13 0x302C2E31395A6D32362E392D33 0x2E CALLDATASIZE CALLER PUSH2 0x352E CALLDATALOAD BALANCE 0x2C CALLDATALOAD 0x2E CALLDATALOAD BALANCE 0x2C ADDRESS 0x2C ADDRESS 0x2C BALANCE 0x2C ORIGIN 0x2E CALLDATALOAD CALLER 0x2D CALLVALUE 0x2E CALLER CODECOPY 0x2C BALANCE CALLVALUE 0x2E BALANCE CODECOPY 0x2C BALANCE CALLVALUE 0x2E BALANCE CODECOPY 0x2C ADDRESS 0x2C ADDRESS 0x2C ADDRESS 0x2D CALLDATALOAD 0x2E CALLDATACOPY CALLDATACOPY 0x2D 0x2E CALLDATALOAD CODECOPY PUSH9 0x2D2E31366C2E30362E CALLDATALOAD BALANCE PUSH2 0x352E CALLDATALOAD CALLDATACOPY 0x2C CALLDATALOAD 0x2E CALLDATALOAD CALLDATACOPY 0x2C ADDRESS 0x2C ADDRESS 0x2C ADDRESS 0x2C ORIGIN 0x2E CODESIZE CODECOPY 0x2C CALLVALUE 0x2E ORIGIN ORIGIN 0x2C CALLVALUE 0x2E CODECOPY ORIGIN 0x2C CALLVALUE 0x2E CODECOPY ORIGIN 0x2C ADDRESS 0x2C ADDRESS 0x2C ADDRESS 0x2C 0x2E CALLVALUE CALLDATALOAD 0x2E ORIGIN CALLVALUE GAS 0x4D CODESIZE CODESIZE 0x2E CALLDATASIZE ORIGIN 0x2C ORIGIN CODESIZE PUSH13 0x2E39342D2E30396131332E382C BALANCE CALLER 0x2E CODESIZE 0x2C ADDRESS 0x2C ADDRESS 0x2C BALANCE 0x2C CODESIZE 0x2C BALANCE 0x2E CALLVALUE CALLER 0x2C CALLDATACOPY 0x2E CODESIZE CODESIZE 0x2C CALLDATACOPY 0x2E CODESIZE CODESIZE 0x2C ADDRESS 0x2C ADDRESS 0x2C BALANCE 0x2C CALLER 0x2E CODECOPY ORIGIN 0x2C CALLDATASIZE 0x2E BALANCE CODECOPY PUSH13 0x302C2E3433612E37382E37382C ADDRESS 0x2C ADDRESS 0x2C BALANCE 0x2D 0x2E CALLDATASIZE CALLDATASIZE 0x2E CODESIZE CALLVALUE COINBASE BALANCE CODECOPY 0x2E ORIGIN CALLER 0x2C BALANCE CODECOPY 0x2E ORIGIN CALLER 0x2C ADDRESS 0x2C ADDRESS 0x2C BALANCE 0x2C CODECOPY CODESIZE 0x2C CALLER CALLDATACOPY PUSH2 0x3132 0x2E CODECOPY ORIGIN 0x2C BALANCE ORIGIN 0x2E CODECOPY ORIGIN 0x2C ADDRESS 0x2C ADDRESS 0x2C BALANCE 0x2D CALLDATASIZE 0x2E CALLER BALANCE 0x2D BALANCE 0x2E CALLVALUE CALLVALUE COINBASE CALLDATACOPY 0x2E ADDRESS CODESIZE 0x2C CALLDATACOPY 0x2E ADDRESS CODESIZE 0x2C ADDRESS 0x2C ADDRESS 0x2C BALANCE 0x2C CODESIZE CODESIZE 0x2C CALLER ADDRESS 0x2E ORIGIN CALLER PUSH2 0x3130 0x2E CODESIZE CALLDATALOAD 0x2C BALANCE ADDRESS 0x2E CODESIZE CALLDATALOAD 0x2C ADDRESS 0x2C ADDRESS 0x2C BALANCE 0x2D 0x2E BALANCE 0x2D BALANCE 0x2E CALLVALUE CALLVALUE 0x2E CODESIZE 0x2E CODESIZE 0x2C ADDRESS 0x2C ADDRESS 0x2C BALANCE 0x2C 0x2E CALLDATASIZE CODECOPY 0x2D 0x2E CALLDATACOPY CODESIZE GAS 0x4D BALANCE CALLVALUE 0x2E BALANCE CALLDATALOAD 0x2C BALANCE ADDRESS PUSH4 0x2D2E3036 0x2D CALLDATALOAD 0x2E CODESIZE CALLDATASIZE 0x2C CALLER 0x2E CALLVALUE CALLVALUE 0x2D CODESIZE 0x2E CALLVALUE CODECOPY 0x2C CODESIZE 0x2D CODECOPY 0x2E CALLVALUE CODECOPY NUMBER ORIGIN CALLDATASIZE 0x2E ORIGIN CALLDATASIZE 0x2D 0x2E CALLVALUE CALLVALUE 0x2C CALLER BALANCE 0x2E ORIGIN CALLVALUE 0x2E BALANCE CALLDATASIZE 0x2C CALLER CALLVALUE 0x2E CALLDATACOPY CALLER 0x2E CALLDATACOPY COINBASE BALANCE BALANCE BALANCE 0x2E BALANCE CALLVALUE 0x2C BALANCE BALANCE BALANCE 0x2E BALANCE CALLVALUE 0x2C ADDRESS 0x2C ADDRESS 0x2C BALANCE 0x2C CALLDATALOAD CALLDATASIZE 0x2E CALLDATALOAD CALLDATALOAD 0x2C CALLDATASIZE 0x2E CALLVALUE PUSH2 0x3133 ADDRESS 0x2E ORIGIN CALLDATASIZE 0x2C BALANCE CALLER ADDRESS 0x2E ORIGIN CALLDATASIZE 0x2C ADDRESS 0x2C ADDRESS 0x2C BALANCE 0x2C ORIGIN ORIGIN 0x2C BALANCE ADDRESS 0x2E CODESIZE 0x2C ORIGIN CALLDATASIZE 0x2E ORIGIN CALLDATALOAD 0x2C ORIGIN CALLDATASIZE 0x2E ORIGIN CALLDATALOAD 0x2C ADDRESS 0x2C ADDRESS 0x2C BALANCE 0x2C CALLER 0x2D 0x2E CALLDATACOPY CODESIZE 0x2C ORIGIN CALLVALUE 0x2E CALLDATACOPY ORIGIN 0x2C ORIGIN CALLVALUE 0x2E CALLDATACOPY ORIGIN 0x2C ADDRESS 0x2C ADDRESS 0x2C BALANCE 0x2C BALANCE CALLVALUE 0x2E CODESIZE CALLER 0x2C BALANCE 0x2E CALLDATASIZE CODECOPY 0x2C CALLER CALLDATASIZE 0x2C CALLER CALLDATASIZE 0x2C ADDRESS 0x2C ADDRESS 0x2C BALANCE 0x2C BALANCE CALLER 0x2E ADDRESS CODECOPY 0x2C BALANCE ADDRESS 0x2E CALLVALUE ORIGIN 0x2C CALLVALUE ORIGIN 0x2E CALLVALUE ORIGIN 0x2C CALLVALUE ORIGIN 0x2E CALLVALUE ORIGIN 0x2C ADDRESS 0x2C ADDRESS 0x2C BALANCE 0x2C CALLDATACOPY 0x2E CALLDATALOAD CALLVALUE 0x2C BALANCE ORIGIN 0x2E CODECOPY ORIGIN PUSH4 0x312E3235 0x2C CALLER 0x2E CODESIZE BALANCE 0x2C BALANCE 0x2E CALLVALUE CALLDATALOAD 0x2C CALLDATACOPY 0x2E CALLDATASIZE 0x2D 0x2E ORIGIN CALLER 0x2C BALANCE ADDRESS 0x2E CALLDATACOPY CODECOPY 0x2D ORIGIN 0x2E CALLDATACOPY CALLDATACOPY 0x2C CALLDATALOAD 0x2E ORIGIN CALLDATALOAD 0x2D BALANCE ADDRESS 0x2E CALLDATALOAD CALLDATASIZE 0x2C CALLDATASIZE 0x2E ORIGIN CALLDATACOPY 0x2D BALANCE CALLDATASIZE 0x2E BALANCE ORIGIN 0x2C CALLDATACOPY PUSH13 0x2D312E32332E31366135342E35 CALLER 0x2C CALLDATALOAD CALLVALUE 0x2E CALLDATALOAD CALLER 0x2C ADDRESS 0x2C ADDRESS 0x2C BALANCE 0x2D ORIGIN 0x2E CODESIZE BALANCE 0x2C BALANCE ORIGIN 0x2E ADDRESS CALLDATASIZE COINBASE BALANCE ADDRESS CODESIZE 0x2E CALLDATASIZE ORIGIN 0x2C BALANCE ADDRESS CODESIZE 0x2E CALLDATASIZE ORIGIN 0x2C ADDRESS 0x2C ADDRESS 0x2C BALANCE 0x2C CODECOPY BALANCE 0x2E CALLER 0x2C CODESIZE CALLVALUE PUSH23 0x32352E323961392E36372C392E36372C302C302C312C39 0x2E ORIGIN CALLDATALOAD 0x2C BALANCE ADDRESS 0x2E CALLVALUE CODECOPY PUSH4 0x302C2E34 BALANCE 0x2C ADDRESS 0x2C 0x2E CODESIZE BALANCE 0x2C ADDRESS 0x2C BALANCE 0x2E BALANCE CODESIZE PUSH2 0x312E CODESIZE CALLVALUE 0x2C BALANCE 0x2E CODESIZE CALLVALUE 0x2C ADDRESS 0x2C ADDRESS 0x2C BALANCE 0x2D BALANCE 0x2E CODESIZE CALLVALUE 0x2C BALANCE 0x2E CODESIZE BALANCE BASEFEE CODESIZE CALLDATASIZE 0x2E BALANCE ORIGIN PUSH2 0x382E CODESIZE 0x2C CODESIZE 0x2E CODESIZE 0x2C ADDRESS 0x2C ADDRESS 0x2C BALANCE 0x2D CALLDATALOAD 0x2E BALANCE 0x2D BALANCE 0x2E CALLDATALOAD CALLDATASIZE 0x2C BALANCE ADDRESS 0x2E CODESIZE ORIGIN 0x2C BALANCE ADDRESS 0x2E CODESIZE ORIGIN 0x2C ADDRESS 0x2C ADDRESS 0x2C BALANCE 0x2D CALLER 0x2E CALLER CALLDATALOAD 0x2D CALLVALUE 0x2C ORIGIN 0x2E BALANCE CALLER 0x2C ORIGIN 0x2E BALANCE CALLER 0x2C ADDRESS 0x2C ADDRESS 0x2C BALANCE 0x2D 0x2E ORIGIN 0x2D 0x2E CALLVALUE CALLDATASIZE 0x4C CALLDATACOPY CALLER 0x2E CALLDATALOAD CALLER 0x2C BALANCE ADDRESS CALLER PUSH18 0x2D322E37332C322E31332D352E37362C342E BALANCE CALLDATASIZE PUSH4 0x2D312E32 0x2E CODESIZE 0x2D ORIGIN 0x2E CALLVALUE CALLER 0x2C BALANCE 0x2E CALLDATALOAD CODECOPY 0x2D CALLER 0x2E CALLDATASIZE CODECOPY 0x2C ORIGIN 0x2E CALLER CALLDATALOAD PUSH13 0x2E362E313661382E32382C382E ORIGIN CODESIZE 0x2C ADDRESS 0x2C ADDRESS 0x2C BALANCE 0x2C CALLDATALOAD 0x2E ADDRESS CALLDATACOPY 0x2C CALLVALUE 0x2C BALANCE CALLDATALOAD 0x2E CALLER CODESIZE 0x2C BALANCE CALLDATALOAD 0x2E CALLER CODESIZE 0x2C ADDRESS 0x2C ADDRESS 0x2C BALANCE 0x2C BALANCE 0x2E CALLDATACOPY BALANCE 0x2C CALLDATACOPY 0x2E BALANCE BALANCE JUMP BALANCE ORIGIN BALANCE PUSH2 0x312E CODESIZE CALLER 0x2C BALANCE 0x2E CODESIZE CALLER 0x2C ADDRESS 0x2C ADDRESS 0x2C BALANCE 0x2D BALANCE 0x2E CODESIZE CALLER 0x2C BALANCE 0x2E CODESIZE CALLER PUSH9 0x2D3533632D322E3538 0x2E ADDRESS CODECOPY 0x2D CALLVALUE 0x2E CALLVALUE CALLDATACOPY 0x2D 0x2E CALLDATALOAD ORIGIN 0x2D CALLDATALOAD 0x2E CALLDATACOPY CALLDATALOAD 0x2D BALANCE 0x2E CALLDATACOPY CALLER COINBASE CALLDATASIZE 0x2E CALLVALUE CODECOPY 0x2C CALLDATASIZE 0x2E CALLVALUE CODECOPY 0x2C ADDRESS 0x2C ADDRESS 0x2C BALANCE 0x2C CODECOPY 0x2E BALANCE BALANCE 0x2C BALANCE BALANCE CALLDATASIZE PUSH23 0x2D31312E326134322E36312C34322E36312C302C302C31 0x2D CALLDATASIZE 0x2E CALLER CALLVALUE 0x2D BALANCE BALANCE COINBASE CALLER CODESIZE 0x2E CALLDATACOPY CODECOPY 0x2C CALLER CODESIZE 0x2E CALLDATACOPY CODECOPY 0x2C ADDRESS 0x2C ADDRESS 0x2C BALANCE 0x2C BALANCE 0x2E BALANCE BALANCE 0x2C CALLDATACOPY ADDRESS 0x2E ORIGIN CODECOPY 0x2C CALLER CALLDATACOPY 0x2C CALLER CALLDATACOPY 0x2C ADDRESS 0x2C ADDRESS 0x2C BALANCE 0x2C BALANCE CALLER 0x2E CALLDATASIZE 0x2C CALLDATALOAD ADDRESS 0x2E CALLDATALOAD CALLVALUE PUSH13 0x2E312D2E30396134312E30382C CALLVALUE BALANCE 0x2E ADDRESS CODESIZE 0x2C ADDRESS 0x2C ADDRESS 0x2C BALANCE 0x2C BALANCE BALANCE 0x2D CALLDATASIZE 0x2E CALLER CODESIZE PUSH4 0x372E3339 0x2D ORIGIN 0x2E CODECOPY 0x2C BALANCE CALLDATACOPY 0x2E CODECOPY CALLER 0x2D ORIGIN 0x2E CALLDATACOPY CALLDATACOPY 0x2C ORIGIN CALLDATASIZE 0x2D ORIGIN 0x2E CALLDATASIZE CODESIZE 0x2C CALLDATALOAD 0x2E ORIGIN BALANCE 0x2E ADDRESS CALLDATASIZE 0x2C CODECOPY 0x2E CALLER CALLVALUE 0x2E BALANCE BALANCE 0x2C BALANCE ADDRESS 0x2E BALANCE CODECOPY 0x2D 0x2E CALLVALUE CODECOPY PUSH2 0x342E CODESIZE 0x2C CALLVALUE 0x2E CODESIZE 0x2C ADDRESS 0x2C ADDRESS 0x2C ADDRESS 0x2C BALANCE 0x2D 0x2E CODECOPY BALANCE 0x2C CALLDATALOAD 0x2E BALANCE BALANCE 0x2C CALLDATALOAD 0x2E BALANCE BALANCE 0x2C ADDRESS 0x2C ADDRESS 0x2C ADDRESS 0x2C 0x2E CALLDATALOAD CALLDATASIZE 0x2D 0x2E CODESIZE CALLVALUE PUSH4 0x302D2E32 CALLDATASIZE 0x2C ADDRESS 0x2D 0x2E CALLDATALOAD ORIGIN 0x2D 0x2E ADDRESS CALLDATACOPY 0x2D 0x2E CALLDATACOPY CODESIZE PUSH2 0x3136 0x2C BALANCE CALLDATASIZE 0x2C ADDRESS 0x2C ADDRESS 0x2C BALANCE 0x2D 0x2E ADDRESS CALLDATASIZE 0x2D CALLVALUE 0x2E ORIGIN 0x2C CODECOPY CODESIZE 0x2E CALLDATALOAD BALANCE 0x2C CODECOPY CODESIZE 0x2E CALLDATALOAD BALANCE 0x2C ADDRESS 0x2C ADDRESS 0x2C ADDRESS 0x2D BALANCE CODESIZE 0x2E CALLDATACOPY CALLDATASIZE 0x2D CALLER 0x2E CALLDATASIZE CODESIZE PUSH4 0x2D372E34 CODESIZE 0x2D 0x2E CODESIZE CALLER 0x2D BALANCE CALLDATALOAD 0x2E CALLVALUE CALLVALUE 0x2D BALANCE 0x2E BALANCE CODECOPY 0x2D ORIGIN CALLER 0x2E CALLVALUE CALLDATACOPY 0x2D BALANCE 0x2E CALLVALUE BALANCE PUSH13 0x2D312E33352C30632D322E3539 0x2C ADDRESS 0x2D CALLVALUE 0x2E CODESIZE CALLDATASIZE 0x2C ADDRESS 0x2D CALLDATACOPY 0x2E CALLVALUE CALLDATASIZE 0x2D BALANCE 0x2E CALLDATASIZE CALLDATACOPY COINBASE CODECOPY 0x2C CODECOPY 0x2C ADDRESS 0x2C ADDRESS 0x2C BALANCE 0x2C CODESIZE 0x2C ORIGIN CALLER 0x2E CALLDATASIZE CODESIZE PUSH2 0x392E CALLDATASIZE CALLDATACOPY 0x2C CODECOPY 0x2E CALLDATASIZE CALLDATACOPY 0x2C ADDRESS 0x2C ADDRESS 0x2C BALANCE 0x2D 0x2E CODECOPY BALANCE 0x2D CALLDATALOAD COINBASE BALANCE ADDRESS 0x2E CODECOPY BALANCE 0x2C BALANCE ADDRESS 0x2E CODECOPY BALANCE 0x2C ADDRESS 0x2C ADDRESS 0x2C BALANCE 0x2C CODESIZE 0x2E CALLVALUE CODECOPY 0x2C BALANCE CALLVALUE PUSH2 0x382E CALLDATACOPY CALLVALUE 0x2C CODESIZE 0x2E CALLDATACOPY CALLVALUE 0x2C ADDRESS 0x2C ADDRESS 0x2C BALANCE 0x2C CALLER 0x2E CALLER CALLDATACOPY 0x2D CALLER 0x2E ORIGIN CODECOPY COINBASE CODESIZE 0x2E ORIGIN 0x2C CODESIZE 0x2E ORIGIN 0x2C ADDRESS 0x2C ADDRESS 0x2C BALANCE 0x2C BALANCE CALLVALUE 0x2E BALANCE CALLDATALOAD 0x2C BALANCE ADDRESS GAS 0x4D CALLDATASIZE CODECOPY 0x2E BALANCE CALLVALUE 0x2C ORIGIN ORIGIN PUSH2 0x3534 0x2E CALLDATACOPY CALLDATALOAD 0x2C CALLDATALOAD CALLVALUE 0x2E CALLDATACOPY CALLDATALOAD 0x2C ADDRESS 0x2C ADDRESS 0x2C BALANCE 0x2C CALLVALUE 0x2E CODECOPY CALLVALUE 0x2D CALLER 0x2E ORIGIN CALLVALUE 0x2C BALANCE ORIGIN CALLVALUE 0x2E CODESIZE CODESIZE 0x2C BALANCE ORIGIN CALLVALUE 0x2E CODESIZE CODESIZE 0x2C ADDRESS 0x2C ADDRESS 0x2C ADDRESS 0x2D BALANCE CODESIZE 0x2E CODESIZE 0x2D CODECOPY COINBASE BALANCE ADDRESS CALLDATASIZE 0x2E CODESIZE CODECOPY 0x2C BALANCE ADDRESS CALLDATASIZE 0x2E CODESIZE CODECOPY 0x2C ADDRESS 0x2C ADDRESS 0x2C ADDRESS 0x2C CALLER CALLVALUE 0x2E BALANCE CALLDATACOPY 0x2C CALLVALUE 0x2E CALLER BALANCE NUMBER CALLER BALANCE 0x2C CALLER 0x2E CODESIZE BALANCE 0x2C ORIGIN CALLDATASIZE 0x2E CALLVALUE CALLVALUE 0x2C CALLER 0x2E ORIGIN CALLDATALOAD 0x2C ORIGIN ORIGIN 0x2E CODESIZE CODECOPY 0x2C CALLVALUE PUSH4 0x2D322E35 CALLDATALOAD 0x2E CALLDATALOAD CALLDATASIZE 0x2D CALLVALUE 0x2E CALLDATALOAD CODECOPY 0x2C BALANCE 0x2E CODECOPY ORIGIN 0x2D CALLDATALOAD 0x2C CALLVALUE 0x2E CALLDATACOPY CODECOPY PUSH2 0x3133 CALLVALUE 0x2E CALLVALUE CODECOPY 0x2C BALANCE CALLER CALLVALUE 0x2E CALLVALUE CODECOPY 0x2C ADDRESS 0x2C ADDRESS 0x2C BALANCE 0x2C ORIGIN CALLDATASIZE 0x2E CALLER 0x2C CALLER 0x2E CODESIZE 0x2C BALANCE BALANCE CALLDATALOAD 0x2E CALLDATASIZE CODECOPY 0x2C BALANCE BALANCE CALLDATALOAD 0x2E CALLDATASIZE CODECOPY 0x2C ADDRESS 0x2C ADDRESS 0x2C BALANCE 0x2C ORIGIN CALLDATALOAD 0x2C CODECOPY 0x2E CALLVALUE GAS 0x4D CALLDATASIZE CALLVALUE 0x2C ORIGIN CODESIZE 0x2E CALLDATASIZE CALLDATALOAD PUSH4 0x2E32312D 0x2E CALLVALUE CALLVALUE 0x2E CALLVALUE ORIGIN 0x2D 0x2E CODESIZE CALLDATASIZE 0x2E CALLDATASIZE CALLDATASIZE 0x2D BALANCE 0x2E ORIGIN CODESIZE PUSH2 0x3135 0x2E ORIGIN CALLDATASIZE 0x2C BALANCE CALLDATALOAD 0x2E ORIGIN CALLDATASIZE 0x2C ADDRESS 0x2C ADDRESS 0x2C BALANCE 0x2C BALANCE 0x2E CALLDATACOPY CALLER 0x2D ORIGIN 0x2E CALLVALUE CALLDATACOPY 0x2C BALANCE CALLVALUE CALLDATASIZE 0x2E ORIGIN CALLVALUE 0x2C BALANCE CALLVALUE CALLDATASIZE 0x2E ORIGIN CALLVALUE 0x2C ADDRESS 0x2C ADDRESS 0x2C ADDRESS 0x2D BALANCE CALLVALUE 0x2E CODECOPY ORIGIN 0x2D CALLDATASIZE 0x2E ORIGIN 0x2C CODECOPY CALLDATACOPY 0x2E CALLDATASIZE CODECOPY 0x2C CODECOPY CALLDATACOPY 0x2E CALLDATASIZE CODECOPY 0x2C ADDRESS 0x2C ADDRESS 0x2C ADDRESS 0x2D BALANCE CALLDATALOAD 0x2E CALLER CALLVALUE 0x2D CALLVALUE COINBASE BALANCE ORIGIN CALLER 0x2E CALLDATALOAD CALLDATACOPY 0x2C BALANCE ORIGIN CALLER 0x2E CALLDATALOAD CALLDATACOPY 0x2C ADDRESS 0x2C ADDRESS 0x2C ADDRESS 0x2C ORIGIN BALANCE 0x2E ADDRESS CALLDATACOPY 0x2C BALANCE CALLER 0x2E ORIGIN PUSH4 0x2D332E33 CODECOPY 0x2D 0x2E ADDRESS CODESIZE 0x2D CALLDATASIZE 0x2E CALLER 0x2E ADDRESS CODESIZE 0x2D CALLDATACOPY 0x2E CALLVALUE CALLDATACOPY 0x2E CALLDATACOPY ORIGIN PUSH2 0x352E ORIGIN BALANCE 0x2C CALLDATALOAD 0x2E ORIGIN BALANCE 0x2C ADDRESS 0x2C ADDRESS 0x2C ADDRESS 0x2D ORIGIN 0x2C BALANCE 0x2E CODECOPY CALLVALUE 0x2C CALLDATACOPY 0x2E CALLER 0x2C CALLDATACOPY 0x2E CALLER 0x2C ADDRESS 0x2C ADDRESS 0x2C ADDRESS 0x2D BALANCE 0x2C CALLER 0x2E BALANCE ORIGIN 0x2C CALLDATASIZE 0x2E BALANCE 0x2C CALLDATASIZE 0x2E BALANCE 0x2C ADDRESS 0x2C ADDRESS 0x2C ADDRESS 0x2C 0x2E CALLDATALOAD CALLDATALOAD 0x2C CALLER 0x2E BALANCE BALANCE 0x2C CALLDATALOAD 0x2E CALLVALUE CALLER 0x2C CALLDATALOAD 0x2E CALLVALUE CALLER 0x2C ADDRESS 0x2C ADDRESS 0x2C ADDRESS 0x2C ORIGIN 0x2C ORIGIN 0x2E ORIGIN BALANCE PUSH4 0x312E3733 0x2C BALANCE 0x2E ADDRESS CODECOPY 0x2C CALLER 0x2E CALLDATALOAD 0x2C BALANCE 0x2E BALANCE 0x2C CALLDATALOAD 0x2E CALLDATALOAD BALANCE 0x2C BALANCE 0x2E BALANCE ORIGIN PUSH9 0x312E343363382E3136 0x2E ORIGIN CALLER 0x2C BALANCE CALLDATASIZE 0x2E ORIGIN CALLER 0x2E CALLDATALOAD CODECOPY 0x2C ORIGIN CALLER 0x2E CALLDATACOPY CODESIZE 0x2C BALANCE 0x2E CALLVALUE ORIGIN PUSH2 0x3130 CALLER 0x2E CALLVALUE BALANCE 0x2C BALANCE ADDRESS CALLER 0x2E CALLVALUE BALANCE 0x2C ADDRESS 0x2C ADDRESS 0x2C BALANCE 0x2C BALANCE CODECOPY 0x2E ORIGIN ORIGIN 0x2C CALLER 0x2E CALLDATACOPY CALLDATASIZE 0x2C BALANCE CALLDATACOPY 0x2E CODESIZE CALLVALUE 0x2C BALANCE CALLDATACOPY 0x2E CODESIZE CALLVALUE 0x2C ADDRESS 0x2C ADDRESS 0x2C BALANCE 0x2C 0x2E CODESIZE CALLDATALOAD 0x2D ORIGIN GAS PUSH14 0x2D2E37362C31352E30362D2E3231 0x2E BALANCE CALLDATASIZE PUSH4 0x2D312E38 ORIGIN 0x2C BALANCE 0x2E CALLER 0x2D CALLDATASIZE 0x2E CALLVALUE CODESIZE 0x2C BALANCE 0x2E ORIGIN CALLVALUE 0x2D BALANCE ORIGIN 0x2E CALLER CALLDATALOAD 0x2C BALANCE 0x2E BALANCE CALLDATACOPY NUMBER CALLVALUE ORIGIN 0x2E CODECOPY BALANCE 0x2C CALLVALUE CALLDATALOAD 0x2C CALLER ORIGIN 0x2E CALLDATACOPY CODECOPY 0x2C CALLVALUE CALLVALUE 0x2E CODESIZE CALLER 0x2C ORIGIN CALLDATASIZE 0x2C CALLVALUE CALLDATACOPY 0x2E CALLVALUE CALLDATACOPY PUSH2 0x3337 0x2E CALLVALUE BALANCE 0x2C CALLER CALLDATACOPY 0x2E CALLVALUE BALANCE 0x2C ADDRESS 0x2C ADDRESS 0x2C ADDRESS 0x2D BALANCE ADDRESS 0x2C CALLDATALOAD 0x2E CODESIZE BALANCE PUSH13 0x2D2E312E30384133332E34342C CALLER CALLER 0x2E CALLVALUE CALLVALUE 0x2C ADDRESS 0x2C ADDRESS 0x2C ADDRESS 0x2C CALLVALUE 0x2E CALLDATASIZE CALLDATASIZE 0x2C CALLDATACOPY BALANCE 0x2E BALANCE CALLDATACOPY PUSH2 0x3335 0x2E BALANCE CALLVALUE 0x2C CALLER CALLDATALOAD 0x2E BALANCE CALLVALUE 0x2C ADDRESS 0x2C ADDRESS 0x2C ADDRESS 0x2C BALANCE 0x2E CALLDATALOAD 0x2C ORIGIN BALANCE 0x2E CALLER ORIGIN COINBASE CALLER CODECOPY 0x2E CALLVALUE CALLDATACOPY 0x2C CALLER CODECOPY 0x2E CALLVALUE CALLDATACOPY 0x2C ADDRESS 0x2C ADDRESS 0x2C ADDRESS 0x2C BALANCE ORIGIN 0x2E CALLER CALLDATALOAD 0x2C BALANCE ADDRESS CALLER PUSH2 0x312E CODESIZE ORIGIN 0x2C BALANCE 0x2E CODESIZE ORIGIN 0x2C ADDRESS 0x2C ADDRESS 0x2C BALANCE 0x2C 0x2E CALLVALUE ORIGIN 0x2C BALANCE 0x2E BALANCE CALLDATASIZE PUSH23 0x313261332E30352C332E30352C302C302C302C2E36382C ORIGIN 0x2E CALLER CALLDATACOPY 0x2C CALLVALUE 0x2E ORIGIN CODESIZE 0x2C CALLVALUE 0x2E ORIGIN CODESIZE 0x2C ADDRESS 0x2C ADDRESS 0x2C ADDRESS 0x2C CALLER 0x2E BALANCE CALLDATASIZE 0x2E CALLDATACOPY CALLER BASEFEE CALLDATASIZE CALLDATACOPY 0x2E CALLDATASIZE CODESIZE PUSH2 0x3130 0x2C BALANCE ADDRESS 0x2C ADDRESS 0x2C ADDRESS 0x2C ADDRESS 0x2D BALANCE 0x2E BALANCE BALANCE 0x2D CALLER 0x2E CALLDATASIZE CODECOPY 0x2C CALLVALUE 0x2E CALLDATACOPY 0x2C CALLVALUE 0x2E CALLDATACOPY 0x2C ADDRESS 0x2C ADDRESS 0x2C ADDRESS 0x2D ORIGIN 0x2E CODESIZE CALLDATACOPY 0x2D ORIGIN 0x2E CALLER ORIGIN 0x2C BALANCE CALLDATALOAD 0x2E ADDRESS CODESIZE 0x2C BALANCE CALLDATALOAD 0x2E ADDRESS CODESIZE 0x2C ADDRESS 0x2C ADDRESS 0x2C ADDRESS 0x2D CALLVALUE 0x2E CALLVALUE 0x2D 0x2E CALLER CODESIZE PUSH9 0x2D323661312E38332C BALANCE 0x2E CODESIZE CALLER 0x2C ADDRESS 0x2C ADDRESS 0x2C BALANCE 0x2D 0x2E BALANCE CALLDATALOAD 0x2D CALLER 0x2E CALLDATASIZE CALLDATALOAD PUSH4 0x352E3733 0x2D 0x2E CALLDATACOPY ORIGIN 0x2C BALANCE ADDRESS 0x2E CALLER CALLDATALOAD 0x2D ORIGIN 0x2E CALLDATACOPY CALLVALUE 0x2C BALANCE CALLER 0x2E CALLDATALOAD CALLDATACOPY 0x2D CALLDATASIZE 0x2E ORIGIN CALLDATALOAD 0x2C CALLER 0x2E ADDRESS CALLDATASIZE 0x2D CALLER 0x2E CALLER CALLVALUE 0x2C CALLVALUE 0x2E CODECOPY BALANCE 0x2D CODESIZE 0x2E BALANCE 0x2C CALLDATALOAD 0x2E CALLER CALLER 0x2D BALANCE CALLVALUE 0x2E CALLVALUE CALLDATALOAD PUSH23 0x2D2E31334131382E38382C31382E38382C302C302C302C CALLVALUE CALLDATASIZE 0x2E CALLER CALLDATALOAD 0x2C CALLDATACOPY CALLDATALOAD PUSH2 0x3230 0x2E ORIGIN ORIGIN 0x2C ORIGIN ADDRESS 0x2E ORIGIN ORIGIN 0x2C ADDRESS 0x2C ADDRESS 0x2C ADDRESS 0x2D CALLDATACOPY 0x2E CALLVALUE BALANCE 0x2D CALLVALUE 0x2E CALLVALUE ORIGIN 0x2C ORIGIN CALLER 0x2E CALLDATALOAD CALLVALUE 0x2C ORIGIN CALLER 0x2E CALLDATALOAD CALLVALUE 0x2C ADDRESS 0x2C ADDRESS 0x2C ADDRESS 0x2D CODESIZE 0x2E CALLDATALOAD ORIGIN 0x2D BALANCE 0x2E ORIGIN CALLDATALOAD PUSH4 0x2D342E37 0x2E BALANCE CODECOPY 0x2D CODECOPY 0x2E BALANCE BALANCE 0x2C BALANCE 0x2E CODESIZE CALLER 0x2D BALANCE ORIGIN 0x2C CALLVALUE 0x2E CODESIZE CALLER PUSH2 0x312E CODESIZE CALLER 0x2C BALANCE 0x2E CODESIZE CALLER 0x2C ADDRESS 0x2C ADDRESS 0x2C BALANCE 0x2D ORIGIN 0x2E CALLDATASIZE CALLDATALOAD 0x2D ORIGIN 0x2E CALLDATALOAD ORIGIN PUSH4 0x332E3533 0x2D CALLER 0x2E CALLDATACOPY BALANCE 0x2C CODESIZE 0x2E CODESIZE CALLDATASIZE 0x2D CALLDATALOAD 0x2E CALLDATACOPY CALLER 0x2C BALANCE CALLVALUE 0x2E CALLVALUE CALLDATACOPY 0x2D CALLDATASIZE PUSH2 0x3237 0x2E ADDRESS CALLDATALOAD 0x2C ORIGIN CALLDATACOPY 0x2E ADDRESS CALLDATALOAD 0x2C ADDRESS 0x2C ADDRESS 0x2C BALANCE 0x2C CODECOPY 0x2E CODESIZE CALLDATALOAD 0x2C BALANCE 0x2E CALLVALUE CALLVALUE 0x2C ORIGIN CALLVALUE 0x2C ORIGIN CALLVALUE 0x2C ADDRESS 0x2C ADDRESS 0x2C BALANCE 0x2C CODESIZE 0x2E CALLDATACOPY CALLVALUE 0x2C CALLDATALOAD 0x2E ORIGIN CALLER 0x2C ORIGIN ORIGIN 0x2E CALLVALUE CODESIZE 0x2C ORIGIN ORIGIN 0x2E CALLVALUE CODESIZE 0x2C ADDRESS 0x2C ADDRESS 0x2C BALANCE 0x2C CALLDATASIZE 0x2E CODESIZE CALLDATALOAD 0x2C BALANCE CALLDATALOAD 0x2E CODESIZE ORIGIN PUSH23 0x2E303861322E31372C322E31372C302C302C312C302C2E CALLER CALLDATASIZE PUSH4 0x2D2E3437 0x2C CALLDATACOPY 0x2E ORIGIN CALLDATALOAD 0x2D ORIGIN 0x2E CALLDATASIZE CALLDATASIZE 0x2C BALANCE ORIGIN 0x2E CALLDATACOPY CALLDATACOPY 0x2D CALLDATASIZE 0x2E CALLER 0x2C BALANCE CALLDATASIZE 0x2E CALLDATACOPY CALLDATALOAD PUSH2 0x3231 0x2E ORIGIN CALLVALUE 0x2C ORIGIN BALANCE 0x2E ORIGIN CALLVALUE 0x2C ADDRESS 0x2C ADDRESS 0x2C BALANCE 0x2D CALLVALUE 0x2E CALLDATASIZE ORIGIN 0x2C CALLER 0x2E CALLDATACOPY CALLDATACOPY BASEFEE CALLDATALOAD CALLDATACOPY 0x2E CALLER CALLDATALOAD PUSH18 0x342E34342D322E33392C382E33392D356332 0x2E CALLDATASIZE CODESIZE 0x2D BALANCE 0x2E CALLDATACOPY CODECOPY 0x2C CALLDATALOAD 0x2E ORIGIN ORIGIN 0x2D CALLER 0x2E CALLDATASIZE CODECOPY 0x2C CALLDATACOPY 0x2E CALLDATASIZE CALLER 0x2D CALLDATALOAD 0x2E CALLDATASIZE CALLDATACOPY PUSH2 0x312E CODESIZE ORIGIN 0x2C BALANCE 0x2E CODESIZE ORIGIN 0x2C ADDRESS 0x2C ADDRESS 0x2C BALANCE 0x2C ORIGIN 0x2E CALLDATALOAD CALLDATACOPY 0x2E ORIGIN CALLVALUE 0x2C BALANCE 0x2E CALLDATASIZE CODECOPY 0x2C BALANCE 0x2E CALLDATASIZE CODECOPY 0x2C ADDRESS 0x2C ADDRESS 0x2C BALANCE 0x2C 0x2E CALLER CALLDATALOAD 0x2E CALLDATASIZE CALLDATASIZE 0x4C CODESIZE BALANCE 0x2C BALANCE BALANCE CALLDATALOAD 0x2E CALLDATASIZE ORIGIN PUSH2 0x372C CALLDATACOPY 0x2C ADDRESS 0x2C ADDRESS 0x2C ADDRESS 0x2C ORIGIN 0x2E BALANCE CALLDATASIZE 0x2C ORIGIN 0x2E CALLDATASIZE ORIGIN 0x2C CALLDATALOAD 0x2E ADDRESS CALLDATASIZE 0x2C CALLDATALOAD 0x2E ADDRESS CALLDATASIZE 0x2C ADDRESS 0x2C ADDRESS 0x2C ADDRESS 0x2C CALLER 0x2C 0x2E CODECOPY BASEFEE CODECOPY CALLDATASIZE 0x2E CODESIZE CODESIZE PUSH2 0x362E CALLDATALOAD CALLDATASIZE 0x2C CALLDATASIZE 0x2E CALLDATALOAD CALLDATASIZE 0x2C ADDRESS 0x2C ADDRESS 0x2C ADDRESS 0x2D BALANCE 0x2E CALLDATASIZE CODESIZE 0x2D CALLVALUE 0x2E CALLER CODESIZE 0x2C CALLDATACOPY 0x2E BALANCE CODECOPY 0x2C CALLDATACOPY 0x2E BALANCE CODECOPY 0x2C ADDRESS 0x2C ADDRESS 0x2C ADDRESS 0x2D CALLVALUE 0x2E CALLDATACOPY CALLVALUE 0x2D BALANCE 0x2E CODESIZE CALLER PUSH4 0x2D2E3336 0x2C ADDRESS 0x2D 0x2E CALLDATASIZE CODECOPY 0x2C ADDRESS 0x2D BALANCE 0x2C ADDRESS PUSH2 0x312E CODESIZE CALLER 0x2C BALANCE 0x2E CODESIZE CALLER 0x2C ADDRESS 0x2C ADDRESS 0x2C BALANCE 0x2D BALANCE 0x2E CODESIZE CALLER 0x2D BALANCE 0x2E CODESIZE CALLER JUMP CODESIZE CALLER 0x2E CALLDATASIZE PUSH2 0x312E CALLDATACOPY CALLDATALOAD 0x2C BALANCE 0x2E CALLDATACOPY CALLDATALOAD 0x2C ADDRESS 0x2C ADDRESS 0x2C BALANCE 0x2C 0x2E ORIGIN CALLER 0x2D 0x2E CODESIZE CODESIZE 0x2C BALANCE ADDRESS CALLDATALOAD 0x2E BALANCE BALANCE 0x2C BALANCE ADDRESS CALLDATALOAD 0x2E BALANCE BALANCE 0x2C ADDRESS 0x2C ADDRESS 0x2C ADDRESS 0x2C CALLDATALOAD 0x2E CALLER CALLVALUE 0x2D BALANCE ORIGIN 0x2E CALLVALUE CALLDATASIZE 0x2C CALLDATALOAD ORIGIN 0x2C CALLDATALOAD ORIGIN 0x2C ADDRESS 0x2C ADDRESS 0x2C ADDRESS 0x2C ORIGIN 0x2E CALLDATALOAD CALLDATALOAD 0x2D BALANCE ADDRESS 0x2E CALLVALUE CALLVALUE PUSH13 0x2D312E32332E31632D372E3233 0x2E CALLDATALOAD ORIGIN 0x2D BALANCE CALLVALUE 0x2E CALLDATALOAD ORIGIN 0x2D 0x2E BALANCE ORIGIN 0x2D ORIGIN ADDRESS 0x2E CALLER CALLVALUE 0x2D CALLER COINBASE ORIGIN ADDRESS 0x2C ORIGIN ADDRESS 0x2C ADDRESS 0x2C ADDRESS 0x2C BALANCE 0x2C CALLDATASIZE CALLER 0x2E ORIGIN CALLDATASIZE 0x2C CALLVALUE CALLER 0x2E CALLDATACOPY BALANCE GAS 0x22 0x2F RETURNDATACOPY EXTCODECOPY 0x2F PUSH8 0x3E3C7374796C653E KECCAK256 0x2E PUSH3 0x617365 KECCAK256 PUSH28 0x66696C6C3A20236564656465643B666F6E742D66616D696C793A4D6F PUSH15 0x747365727261742C617269616C2C73 PUSH2 0x6E73 0x2D PUSH20 0x657269663B666F6E742D73697A653A333070783B PUSH7 0x6F6E742D776569 PUSH8 0x68743A3430303B7D KECCAK256 0x2E PUSH20 0x6572696573207B746578742D7472616E73666F72 PUSH14 0x3A207570706572636173657D202E PUSH13 0x6F676F207B666F6E742D73697A PUSH6 0x3A3230307078 EXTCODESIZE PUSH7 0x6F6E742D776569 PUSH8 0x68743A3130303B7D KECCAK256 0x2E PUSH14 0x657461207B666F6E742D73697A65 GASPRICE BALANCE ORIGIN PUSH17 0x783B7D202E736D616C6C207B666F6E742D PUSH20 0x697A653A3870783B7D202E6275726E207B666F6E PUSH21 0x2D7765696768743A3530303B666F6E742D73697A65 GASPRICE BALANCE CALLDATASIZE PUSH17 0x783B7D207D3C2F7374796C653E3C672074 PUSH19 0x616E73666F726D3D227363616C6528302E3529 KECCAK256 PUSH21 0x72616E736C617465283533332C2037393029223E3C PUSH4 0x6972636C PUSH6 0x20723D223339 0x22 KECCAK256 PUSH20 0x74726F6B653D2223656465646564222066696C6C RETURNDATASIZE 0x22 PUSH21 0x72616E73706172656E74222F3E3C70617468206669 PUSH13 0x6C3D2223656465646564222064 RETURNDATASIZE 0x22 0x4D ADDRESS 0x2C CALLER CODESIZE KECCAK256 PUSH2 0x3338 0x2C CALLER CODESIZE KECCAK256 ADDRESS KECCAK256 ADDRESS KECCAK256 BALANCE KECCAK256 ADDRESS 0x2C 0x2D CALLDATACOPY CALLDATASIZE KECCAK256 PUSH2 0x3139 0x2C BALANCE CODECOPY KECCAK256 ADDRESS KECCAK256 ADDRESS KECCAK256 BALANCE KECCAK256 ADDRESS 0x2C CALLER CODESIZE KECCAK256 PUSH2 0x3139 0x2C BALANCE CODECOPY KECCAK256 ADDRESS KECCAK256 ADDRESS KECCAK256 ADDRESS KECCAK256 ADDRESS 0x2C CALLER CODESIZE KECCAK256 PUSH27 0x206D202D35202D3537206120352C35203020312C302031302C3020 PUSH2 0x2035 0x2C CALLDATALOAD KECCAK256 ADDRESS KECCAK256 BALANCE 0x2C ADDRESS KECCAK256 0x2D BALANCE ADDRESS 0x2C ADDRESS KECCAK256 PUSH27 0x222066696C6C2D72756C653D226576656E6F6464222F3E3C706174 PUSH9 0x2066696C6C3D222365 PUSH5 0x6564656422 KECCAK256 PUSH5 0x3D226D202D CALLDATALOAD 0x2C KECCAK256 BALANCE CODECOPY KECCAK256 PUSH2 0x2035 0x2C CALLDATALOAD KECCAK256 ADDRESS KECCAK256 BALANCE 0x2C ADDRESS KECCAK256 BALANCE ADDRESS 0x2C ADDRESS KECCAK256 PUSH2 0x2035 0x2C CALLDATALOAD KECCAK256 ADDRESS KECCAK256 BALANCE 0x2C ADDRESS KECCAK256 0x2D BALANCE ADDRESS 0x2C ADDRESS 0x22 0x2F RETURNDATACOPY EXTCODECOPY 0x2F PUSH8 0x3E52756279202020 KECCAK256 KECCAK256 KECCAK256 0x4F PUSH17 0x616C202020202020546F70617A20202020 KECCAK256 GASLIMIT PUSH14 0x6572616C64202020417175616D61 PUSH19 0x696E6553617070686972652020416D65746879 PUSH20 0x74202058656E747572696F6E204C696D69746564 KECCAK256 KECCAK256 KECCAK256 MSTORE PUSH2 0x7265 KECCAK256 KECCAK256 KECCAK256 KECCAK256 KECCAK256 KECCAK256 GASLIMIT PUSH17 0x69632020202020204C6567656E64617279 KECCAK256 GASLIMIT PUSH25 0x6F7469632020202058756E69636F726E20203C726563742077 PUSH10 0x6474683D223934252220 PUSH9 0x65696768743D223936 0x25 0x22 KECCAK256 PUSH7 0x696C6C3D227472 PUSH2 0x6E73 PUSH17 0x6172656E74222072783D22313070782220 PUSH19 0x793D223130707822207374726F6B652D6C696E PUSH6 0x6A6F696E3D22 PUSH19 0x6F756E642220783D2233252220793D22322522 KECCAK256 PUSH20 0x74726F6B652D6461736861727261793D22312C36 0x22 KECCAK256 PUSH20 0x74726F6B653D22776869746522202F3EA2646970 PUSH7 0x73582212207655 SAR 0xE1 PUSH32 0x6C5C385DCD84DBF5DDB6F10946383330DD962AD6A4BDBE76E6EB0464736F6C63 NUMBER STOP ADDMOD SLT STOP CALLER "
		},
		"gasEstimates": {
			"creation": {
				"codeDepositCost": "5092200",
				"executionCost": "6089",
				"totalCost": "5098289"
			},
			"external": {
				"BASE_LUMINOSITY()": "402",
				"BASE_SATURATION()": "401",
				"COLORS_FULL_SCALE()": "335",
				"DEFAULT_OPACITY()": "380",
				"GROUP_LUMINOSITY()": "357",
				"GROUP_SATURATION()": "358",
				"MAX_POWER()": "380",
				"NO_COLOR()": "424",
				"POWER_GROUP_SIZE()": "336",
				"SPECIAL_LUMINOSITY()": "358",
				"attributes(uint256,uint256,uint256)": "infinite",
				"formattedString(uint256)": "infinite",
				"svgData(uint256,uint256,uint256,address,uint256)": "infinite"
			},
			"internal": {
				"_attr1(uint256,uint256,uint256)": "infinite",
				"_attr2(uint256,uint256,uint256)": "infinite",
				"_attr3(uint256,uint256,uint256)": "infinite",
				"_attr4(bool,bool)": "infinite",
				"_commonCategoryGradients(uint256,uint256)": "infinite",
				"_gradColorsBlack()": "infinite",
				"_gradColorsRegular()": "infinite",
				"_gradColorsSpecial()": "infinite",
				"_huesApex()": "infinite",
				"_huesLimited()": "infinite",
				"_powerGroup(uint256,uint256)": "infinite",
				"_powerGroupColors()": "infinite",
				"_specialClassGradients(bool)": "infinite",
				"_stopOffsets()": "infinite"
			}
		},
		"methodIdentifiers": {
			"BASE_LUMINOSITY()": "27c48381",
			"BASE_SATURATION()": "fb339855",
			"COLORS_FULL_SCALE()": "73116a56",
			"DEFAULT_OPACITY()": "262ddfd3",
			"GROUP_LUMINOSITY()": "987a800d",
			"GROUP_SATURATION()": "1e2bb849",
			"MAX_POWER()": "660e3592",
			"NO_COLOR()": "2dbfa595",
			"POWER_GROUP_SIZE()": "41b169f3",
			"SPECIAL_LUMINOSITY()": "4d8d5f4a",
			"attributes(uint256,uint256,uint256)": "f12897a4",
			"formattedString(uint256)": "0047a04e",
			"svgData(uint256,uint256,uint256,address,uint256)": "1b9345fd"
		}
	},
	"abi": [
		{
			"inputs": [],
			"name": "BASE_LUMINOSITY",
			"outputs": [
				{
					"internalType": "uint256",
					"name": "",
					"type": "uint256"
				}
			],
			"stateMutability": "view",
			"type": "function"
		},
		{
			"inputs": [],
			"name": "BASE_SATURATION",
			"outputs": [
				{
					"internalType": "uint256",
					"name": "",
					"type": "uint256"
				}
			],
			"stateMutability": "view",
			"type": "function"
		},
		{
			"inputs": [],
			"name": "COLORS_FULL_SCALE",
			"outputs": [
				{
					"internalType": "uint256",
					"name": "",
					"type": "uint256"
				}
			],
			"stateMutability": "view",
			"type": "function"
		},
		{
			"inputs": [],
			"name": "DEFAULT_OPACITY",
			"outputs": [
				{
					"internalType": "uint256",
					"name": "",
					"type": "uint256"
				}
			],
			"stateMutability": "view",
			"type": "function"
		},
		{
			"inputs": [],
			"name": "GROUP_LUMINOSITY",
			"outputs": [
				{
					"internalType": "uint256",
					"name": "",
					"type": "uint256"
				}
			],
			"stateMutability": "view",
			"type": "function"
		},
		{
			"inputs": [],
			"name": "GROUP_SATURATION",
			"outputs": [
				{
					"internalType": "uint256",
					"name": "",
					"type": "uint256"
				}
			],
			"stateMutability": "view",
			"type": "function"
		},
		{
			"inputs": [],
			"name": "MAX_POWER",
			"outputs": [
				{
					"internalType": "uint256",
					"name": "",
					"type": "uint256"
				}
			],
			"stateMutability": "view",
			"type": "function"
		},
		{
			"inputs": [],
			"name": "NO_COLOR",
			"outputs": [
				{
					"internalType": "uint256",
					"name": "",
					"type": "uint256"
				}
			],
			"stateMutability": "view",
			"type": "function"
		},
		{
			"inputs": [],
			"name": "POWER_GROUP_SIZE",
			"outputs": [
				{
					"internalType": "uint256",
					"name": "",
					"type": "uint256"
				}
			],
			"stateMutability": "view",
			"type": "function"
		},
		{
			"inputs": [],
			"name": "SPECIAL_LUMINOSITY",
			"outputs": [
				{
					"internalType": "uint256",
					"name": "",
					"type": "uint256"
				}
			],
			"stateMutability": "view",
			"type": "function"
		},
		{
			"inputs": [
				{
					"internalType": "uint256",
					"name": "count",
					"type": "uint256"
				},
				{
					"internalType": "uint256",
					"name": "burned",
					"type": "uint256"
				},
				{
					"internalType": "uint256",
					"name": "mintInfo",
					"type": "uint256"
				}
			],
			"name": "attributes",
			"outputs": [
				{
					"internalType": "bytes",
					"name": "",
					"type": "bytes"
				}
			],
			"stateMutability": "pure",
			"type": "function"
		},
		{
			"inputs": [
				{
					"internalType": "uint256",
					"name": "n",
					"type": "uint256"
				}
			],
			"name": "formattedString",
			"outputs": [
				{
					"internalType": "string",
					"name": "",
					"type": "string"
				}
			],
			"stateMutability": "pure",
			"type": "function"
		},
		{
			"inputs": [
				{
					"internalType": "uint256",
					"name": "tokenId",
					"type": "uint256"
				},
				{
					"internalType": "uint256",
					"name": "count",
					"type": "uint256"
				},
				{
					"internalType": "uint256",
					"name": "info",
					"type": "uint256"
				},
				{
					"internalType": "address",
					"name": "token",
					"type": "address"
				},
				{
					"internalType": "uint256",
					"name": "burned",
					"type": "uint256"
				}
			],
			"name": "svgData",
			"outputs": [
				{
					"internalType": "bytes",
					"name": "",
					"type": "bytes"
				}
			],
			"stateMutability": "view",
			"type": "function"
		}
	]
}