{
	"data": {
		"bytecode": {
			"linkReferences": {},
			"object": "61040c61003a600b82828239805160001a60731461002d57634e487b7160e01b600052600060045260246000fd5b30600052607381538281f3fe730000000000000000000000000000000000000000301460806040526004361061009d5760003560e01c8063512d62df11610070578063512d62df1461010157806388f882e814610131578063906029d91461018e578063a5099bae14610209578063e90cdc891461021c57600080fd5b806315370046146100a2578063243eb2c4146100c857806324bf728e146100db578063346ba941146100ee575b600080fd5b6100b56100b0366004610358565b61023f565b6040519081526020015b60405180910390f35b6100b56100d6366004610358565b610259565b6100b56100e9366004610358565b610273565b6100b56100fc366004610358565b61028d565b61011461010f366004610358565b6102a7565b6040805193845291151560208401521515908201526060016100bf565b61014461013f366004610358565b6102c8565b60408051998a5260208a0198909852968801959095526060870193909352608086019190915260a0850152151560c0840152151560e08301521515610100820152610120016100bf565b6100b561019c366004610371565b60008160ff168117905060088360ff16901b8117905060108461ffff16901b8117905060208561ffff16901b811790506030866001600160801b0316901b8117905060b08767ffffffffffffffff16901b8117905060f08861ffff16901b81179050979650505050505050565b6100b5610217366004610358565b610325565b61022f61022a366004610358565b61033f565b60405190151581526020016100bf565b600061024a826102c8565b50939998505050505050505050565b6000610264826102c8565b50929998505050505050505050565b600061027e826102c8565b50959998505050505050505050565b6000610298826102c8565b50969998505050505050505050565b60008060006102b5846102c8565b50919b909a509098509650505050505050565b60f081901c9160b082901c67ffffffffffffffff1691603081901c6001600160801b03169161ffff602083901c811692601081901c90911691600882901c603f81169260808216151592604090921615159160ff90911660011490565b6000610330826102c8565b50949998505050505050505050565b600061034a826102c8565b9a9950505050505050505050565b60006020828403121561036a57600080fd5b5035919050565b600080600080600080600060e0888a03121561038c57600080fd5b873596506020880135955060408801359450606088013593506080880135925060a0880135915060c088013580151581146103c657600080fd5b809150509295989194975092955056fea2646970667358221220ea4fed25f4e02eb986cc358f44c6224f6e7bb1835fc752a76f5612e39695a31a64736f6c63430008120033",
			"opcodes": "PUSH2 0x40C PUSH2 0x3A PUSH1 0xB DUP3 DUP3 DUP3 CODECOPY DUP1 MLOAD PUSH1 0x0 BYTE PUSH1 0x73 EQ PUSH2 0x2D JUMPI PUSH4 0x4E487B71 PUSH1 0xE0 SHL PUSH1 0x0 MSTORE PUSH1 0x0 PUSH1 0x4 MSTORE PUSH1 0x24 PUSH1 0x0 REVERT JUMPDEST ADDRESS PUSH1 0x0 MSTORE PUSH1 0x73 DUP2 MSTORE8 DUP3 DUP2 RETURN INVALID PUSH20 0x0 ADDRESS EQ PUSH1 0x80 PUSH1 0x40 MSTORE PUSH1 0x4 CALLDATASIZE LT PUSH2 0x9D JUMPI PUSH1 0x0 CALLDATALOAD PUSH1 0xE0 SHR DUP1 PUSH4 0x512D62DF GT PUSH2 0x70 JUMPI DUP1 PUSH4 0x512D62DF EQ PUSH2 0x101 JUMPI DUP1 PUSH4 0x88F882E8 EQ PUSH2 0x131 JUMPI DUP1 PUSH4 0x906029D9 EQ PUSH2 0x18E JUMPI DUP1 PUSH4 0xA5099BAE EQ PUSH2 0x209 JUMPI DUP1 PUSH4 0xE90CDC89 EQ PUSH2 0x21C JUMPI PUSH1 0x0 DUP1 REVERT JUMPDEST DUP1 PUSH4 0x15370046 EQ PUSH2 0xA2 JUMPI DUP1 PUSH4 0x243EB2C4 EQ PUSH2 0xC8 JUMPI DUP1 PUSH4 0x24BF728E EQ PUSH2 0xDB JUMPI DUP1 PUSH4 0x346BA941 EQ PUSH2 0xEE JUMPI JUMPDEST PUSH1 0x0 DUP1 REVERT JUMPDEST PUSH2 0xB5 PUSH2 0xB0 CALLDATASIZE PUSH1 0x4 PUSH2 0x358 JUMP JUMPDEST PUSH2 0x23F JUMP JUMPDEST PUSH1 0x40 MLOAD SWAP1 DUP2 MSTORE PUSH1 0x20 ADD JUMPDEST PUSH1 0x40 MLOAD DUP1 SWAP2 SUB SWAP1 RETURN JUMPDEST PUSH2 0xB5 PUSH2 0xD6 CALLDATASIZE PUSH1 0x4 PUSH2 0x358 JUMP JUMPDEST PUSH2 0x259 JUMP JUMPDEST PUSH2 0xB5 PUSH2 0xE9 CALLDATASIZE PUSH1 0x4 PUSH2 0x358 JUMP JUMPDEST PUSH2 0x273 JUMP JUMPDEST PUSH2 0xB5 PUSH2 0xFC CALLDATASIZE PUSH1 0x4 PUSH2 0x358 JUMP JUMPDEST PUSH2 0x28D JUMP JUMPDEST PUSH2 0x114 PUSH2 0x10F CALLDATASIZE PUSH1 0x4 PUSH2 0x358 JUMP JUMPDEST PUSH2 0x2A7 JUMP JUMPDEST PUSH1 0x40 DUP1 MLOAD SWAP4 DUP5 MSTORE SWAP2 ISZERO ISZERO PUSH1 0x20 DUP5 ADD MSTORE ISZERO ISZERO SWAP1 DUP3 ADD MSTORE PUSH1 0x60 ADD PUSH2 0xBF JUMP JUMPDEST PUSH2 0x144 PUSH2 0x13F CALLDATASIZE PUSH1 0x4 PUSH2 0x358 JUMP JUMPDEST PUSH2 0x2C8 JUMP JUMPDEST PUSH1 0x40 DUP1 MLOAD SWAP10 DUP11 MSTORE PUSH1 0x20 DUP11 ADD SWAP9 SWAP1 SWAP9 MSTORE SWAP7 DUP9 ADD SWAP6 SWAP1 SWAP6 MSTORE PUSH1 0x60 DUP8 ADD SWAP4 SWAP1 SWAP4 MSTORE PUSH1 0x80 DUP7 ADD SWAP2 SWAP1 SWAP2 MSTORE PUSH1 0xA0 DUP6 ADD MSTORE ISZERO ISZERO PUSH1 0xC0 DUP5 ADD MSTORE ISZERO ISZERO PUSH1 0xE0 DUP4 ADD MSTORE ISZERO ISZERO PUSH2 0x100 DUP3 ADD MSTORE PUSH2 0x120 ADD PUSH2 0xBF JUMP JUMPDEST PUSH2 0xB5 PUSH2 0x19C CALLDATASIZE PUSH1 0x4 PUSH2 0x371 JUMP JUMPDEST PUSH1 0x0 DUP2 PUSH1 0xFF AND DUP2 OR SWAP1 POP PUSH1 0x8 DUP4 PUSH1 0xFF AND SWAP1 SHL DUP2 OR SWAP1 POP PUSH1 0x10 DUP5 PUSH2 0xFFFF AND SWAP1 SHL DUP2 OR SWAP1 POP PUSH1 0x20 DUP6 PUSH2 0xFFFF AND SWAP1 SHL DUP2 OR SWAP1 POP PUSH1 0x30 DUP7 PUSH1 0x1 PUSH1 0x1 PUSH1 0x80 SHL SUB AND SWAP1 SHL DUP2 OR SWAP1 POP PUSH1 0xB0 DUP8 PUSH8 0xFFFFFFFFFFFFFFFF AND SWAP1 SHL DUP2 OR SWAP1 POP PUSH1 0xF0 DUP9 PUSH2 0xFFFF AND SWAP1 SHL DUP2 OR SWAP1 POP SWAP8 SWAP7 POP POP POP POP POP POP POP JUMP JUMPDEST PUSH2 0xB5 PUSH2 0x217 CALLDATASIZE PUSH1 0x4 PUSH2 0x358 JUMP JUMPDEST PUSH2 0x325 JUMP JUMPDEST PUSH2 0x22F PUSH2 0x22A CALLDATASIZE PUSH1 0x4 PUSH2 0x358 JUMP JUMPDEST PUSH2 0x33F JUMP JUMPDEST PUSH1 0x40 MLOAD SWAP1 ISZERO ISZERO DUP2 MSTORE PUSH1 0x20 ADD PUSH2 0xBF JUMP JUMPDEST PUSH1 0x0 PUSH2 0x24A DUP3 PUSH2 0x2C8 JUMP JUMPDEST POP SWAP4 SWAP10 SWAP9 POP POP POP POP POP POP POP POP POP JUMP JUMPDEST PUSH1 0x0 PUSH2 0x264 DUP3 PUSH2 0x2C8 JUMP JUMPDEST POP SWAP3 SWAP10 SWAP9 POP POP POP POP POP POP POP POP POP JUMP JUMPDEST PUSH1 0x0 PUSH2 0x27E DUP3 PUSH2 0x2C8 JUMP JUMPDEST POP SWAP6 SWAP10 SWAP9 POP POP POP POP POP POP POP POP POP JUMP JUMPDEST PUSH1 0x0 PUSH2 0x298 DUP3 PUSH2 0x2C8 JUMP JUMPDEST POP SWAP7 SWAP10 SWAP9 POP POP POP POP POP POP POP POP POP JUMP JUMPDEST PUSH1 0x0 DUP1 PUSH1 0x0 PUSH2 0x2B5 DUP5 PUSH2 0x2C8 JUMP JUMPDEST POP SWAP2 SWAP12 SWAP1 SWAP11 POP SWAP1 SWAP9 POP SWAP7 POP POP POP POP POP POP POP JUMP JUMPDEST PUSH1 0xF0 DUP2 SWAP1 SHR SWAP2 PUSH1 0xB0 DUP3 SWAP1 SHR PUSH8 0xFFFFFFFFFFFFFFFF AND SWAP2 PUSH1 0x30 DUP2 SWAP1 SHR PUSH1 0x1 PUSH1 0x1 PUSH1 0x80 SHL SUB AND SWAP2 PUSH2 0xFFFF PUSH1 0x20 DUP4 SWAP1 SHR DUP2 AND SWAP3 PUSH1 0x10 DUP2 SWAP1 SHR SWAP1 SWAP2 AND SWAP2 PUSH1 0x8 DUP3 SWAP1 SHR PUSH1 0x3F DUP2 AND SWAP3 PUSH1 0x80 DUP3 AND ISZERO ISZERO SWAP3 PUSH1 0x40 SWAP1 SWAP3 AND ISZERO ISZERO SWAP2 PUSH1 0xFF SWAP1 SWAP2 AND PUSH1 0x1 EQ SWAP1 JUMP JUMPDEST PUSH1 0x0 PUSH2 0x330 DUP3 PUSH2 0x2C8 JUMP JUMPDEST POP SWAP5 SWAP10 SWAP9 POP POP POP POP POP POP POP POP POP JUMP JUMPDEST PUSH1 0x0 PUSH2 0x34A DUP3 PUSH2 0x2C8 JUMP JUMPDEST SWAP11 SWAP10 POP POP POP POP POP POP POP POP POP POP JUMP JUMPDEST PUSH1 0x0 PUSH1 0x20 DUP3 DUP5 SUB SLT ISZERO PUSH2 0x36A JUMPI PUSH1 0x0 DUP1 REVERT JUMPDEST POP CALLDATALOAD SWAP2 SWAP1 POP JUMP JUMPDEST PUSH1 0x0 DUP1 PUSH1 0x0 DUP1 PUSH1 0x0 DUP1 PUSH1 0x0 PUSH1 0xE0 DUP9 DUP11 SUB SLT ISZERO PUSH2 0x38C JUMPI PUSH1 0x0 DUP1 REVERT JUMPDEST DUP8 CALLDATALOAD SWAP7 POP PUSH1 0x20 DUP9 ADD CALLDATALOAD SWAP6 POP PUSH1 0x40 DUP9 ADD CALLDATALOAD SWAP5 POP PUSH1 0x60 DUP9 ADD CALLDATALOAD SWAP4 POP PUSH1 0x80 DUP9 ADD CALLDATALOAD SWAP3 POP PUSH1 0xA0 DUP9 ADD CALLDATALOAD SWAP2 POP PUSH1 0xC0 DUP9 ADD CALLDATALOAD DUP1 ISZERO ISZERO DUP2 EQ PUSH2 0x3C6 JUMPI PUSH1 0x0 DUP1 REVERT JUMPDEST DUP1 SWAP2 POP POP SWAP3 SWAP6 SWAP9 SWAP2 SWAP5 SWAP8 POP SWAP3 SWAP6 POP JUMP INVALID LOG2 PUSH5 0x6970667358 0x22 SLT KECCAK256 0xEA 0x4F 0xED 0x25 DELEGATECALL 0xE0 0x2E 0xB9 DUP7 0xCC CALLDATALOAD DUP16 PREVRANDAO 0xC6 0x22 0x4F PUSH15 0x7BB1835FC752A76F5612E39695A31A PUSH5 0x736F6C6343 STOP ADDMOD SLT STOP CALLER "
		},
		"gasEstimates": {
			"creation": {
				"codeDepositCost": "207200",
				"executionCost": "282",
				"totalCost": "207482"
			},
			"external": {
				"decodeMintInfo(uint256)": "662",
				"encodeMintInfo(uint256,uint256,uint256,uint256,uint256,uint256,bool)": "692",
				"getAMP(uint256)": "512",
				"getClass(uint256)": "588",
				"getEAA(uint256)": "534",
				"getMaturityTs(uint256)": "556",
				"getRank(uint256)": "577",
				"getRedeemed(uint256)": "613",
				"getTerm(uint256)": "578"
			},
			"internal": {
				"toU256(bool)": "infinite"
			}
		},
		"methodIdentifiers": {
			"decodeMintInfo(uint256)": "88f882e8",
			"encodeMintInfo(uint256,uint256,uint256,uint256,uint256,uint256,bool)": "906029d9",
			"getAMP(uint256)": "15370046",
			"getClass(uint256)": "512d62df",
			"getEAA(uint256)": "243eb2c4",
			"getMaturityTs(uint256)": "24bf728e",
			"getRank(uint256)": "a5099bae",
			"getRedeemed(uint256)": "e90cdc89",
			"getTerm(uint256)": "346ba941"
		}
	},
	"abi": [
		{
			"inputs": [
				{
					"internalType": "uint256",
					"name": "info",
					"type": "uint256"
				}
			],
			"name": "decodeMintInfo",
			"outputs": [
				{
					"internalType": "uint256",
					"name": "term",
					"type": "uint256"
				},
				{
					"internalType": "uint256",
					"name": "maturityTs",
					"type": "uint256"
				},
				{
					"internalType": "uint256",
					"name": "rank",
					"type": "uint256"
				},
				{
					"internalType": "uint256",
					"name": "amp",
					"type": "uint256"
				},
				{
					"internalType": "uint256",
					"name": "eaa",
					"type": "uint256"
				},
				{
					"internalType": "uint256",
					"name": "class",
					"type": "uint256"
				},
				{
					"internalType": "bool",
					"name": "apex",
					"type": "bool"
				},
				{
					"internalType": "bool",
					"name": "limited",
					"type": "bool"
				},
				{
					"internalType": "bool",
					"name": "redeemed",
					"type": "bool"
				}
			],
			"stateMutability": "pure",
			"type": "function"
		},
		{
			"inputs": [
				{
					"internalType": "uint256",
					"name": "term",
					"type": "uint256"
				},
				{
					"internalType": "uint256",
					"name": "maturityTs",
					"type": "uint256"
				},
				{
					"internalType": "uint256",
					"name": "rank",
					"type": "uint256"
				},
				{
					"internalType": "uint256",
					"name": "amp",
					"type": "uint256"
				},
				{
					"internalType": "uint256",
					"name": "eaa",
					"type": "uint256"
				},
				{
					"internalType": "uint256",
					"name": "class_",
					"type": "uint256"
				},
				{
					"internalType": "bool",
					"name": "redeemed",
					"type": "bool"
				}
			],
			"name": "encodeMintInfo",
			"outputs": [
				{
					"internalType": "uint256",
					"name": "info",
					"type": "uint256"
				}
			],
			"stateMutability": "pure",
			"type": "function"
		},
		{
			"inputs": [
				{
					"internalType": "uint256",
					"name": "info",
					"type": "uint256"
				}
			],
			"name": "getAMP",
			"outputs": [
				{
					"internalType": "uint256",
					"name": "amp",
					"type": "uint256"
				}
			],
			"stateMutability": "pure",
			"type": "function"
		},
		{
			"inputs": [
				{
					"internalType": "uint256",
					"name": "info",
					"type": "uint256"
				}
			],
			"name": "getClass",
			"outputs": [
				{
					"internalType": "uint256",
					"name": "class_",
					"type": "uint256"
				},
				{
					"internalType": "bool",
					"name": "apex",
					"type": "bool"
				},
				{
					"internalType": "bool",
					"name": "limited",
					"type": "bool"
				}
			],
			"stateMutability": "pure",
			"type": "function"
		},
		{
			"inputs": [
				{
					"internalType": "uint256",
					"name": "info",
					"type": "uint256"
				}
			],
			"name": "getEAA",
			"outputs": [
				{
					"internalType": "uint256",
					"name": "eaa",
					"type": "uint256"
				}
			],
			"stateMutability": "pure",
			"type": "function"
		},
		{
			"inputs": [
				{
					"internalType": "uint256",
					"name": "info",
					"type": "uint256"
				}
			],
			"name": "getMaturityTs",
			"outputs": [
				{
					"internalType": "uint256",
					"name": "maturityTs",
					"type": "uint256"
				}
			],
			"stateMutability": "pure",
			"type": "function"
		},
		{
			"inputs": [
				{
					"internalType": "uint256",
					"name": "info",
					"type": "uint256"
				}
			],
			"name": "getRank",
			"outputs": [
				{
					"internalType": "uint256",
					"name": "rank",
					"type": "uint256"
				}
			],
			"stateMutability": "pure",
			"type": "function"
		},
		{
			"inputs": [
				{
					"internalType": "uint256",
					"name": "info",
					"type": "uint256"
				}
			],
			"name": "getRedeemed",
			"outputs": [
				{
					"internalType": "bool",
					"name": "redeemed",
					"type": "bool"
				}
			],
			"stateMutability": "pure",
			"type": "function"
		},
		{
			"inputs": [
				{
					"internalType": "uint256",
					"name": "info",
					"type": "uint256"
				}
			],
			"name": "getTerm",
			"outputs": [
				{
					"internalType": "uint256",
					"name": "term",
					"type": "uint256"
				}
			],
			"stateMutability": "pure",
			"type": "function"
		}
	]
}