{
	"data": {
		"bytecode": {
			"linkReferences": {
				"XENFT/Math.sol": {
					"Math": [
						{
							"length": 20,
							"start": 9446
						},
						{
							"length": 20,
							"start": 11080
						},
						{
							"length": 20,
							"start": 11655
						},
						{
							"length": 20,
							"start": 12356
						}
					]
				}
			},
			"object": "60a060405260016005553480156200001657600080fd5b506040518060400160405280600c81526020016b5445584c412043727970746f60a01b815250604051806040016040528060078152602001660e8cadccaa88ab60cb1b81525081600390816200006d91906200012e565b5060046200007c82826200012e565b50504260805250620001fa565b634e487b7160e01b600052604160045260246000fd5b600181811c90821680620000b457607f821691505b602082108103620000d557634e487b7160e01b600052602260045260246000fd5b50919050565b601f8211156200012957600081815260208120601f850160051c81016020861015620001045750805b601f850160051c820191505b81811015620001255782815560010162000110565b5050505b505050565b81516001600160401b038111156200014a576200014a62000089565b62000162816200015b84546200009f565b84620000db565b602080601f8311600181146200019a5760008415620001815750858301515b600019600386901b1c1916600185901b17855562000125565b600085815260208120601f198616915b82811015620001cb57888601518255948401946001909101908401620001aa565b5085821015620001ea5787850151600019600388901b60f8161c191681555b5050505050600190811b01905550565b6080516133d8620002246000396000818161082c01528181612ac30152612b2601526133d86000f3fe608060405234801561001057600080fd5b50600436106103ba5760003560e01c80637b0472f0116101f4578063b4800cdc1161011a578063df282331116100ad578063f029093e1161007c578063f029093e14610860578063f060482914610869578063f340faed14610871578063fed742691461087b57600080fd5b8063df282331146107a3578063e3af6d0a14610827578063e81917b41461084e578063ed2f23691461085757600080fd5b8063c56f0bab116100e9578063c56f0bab14610755578063ce653d5f1461075d578063d3fe46891461077d578063dd62ed3e1461079057600080fd5b8063b4800cdc1461073c578063ba3ec74114610745578063bcfe394f14610495578063c0c652591461074d57600080fd5b8063962ca49611610192578063a457c2d711610161578063a457c2d7146106fa578063a9059cbb1461070d578063b0fd1fc214610720578063b21d35f21461073357600080fd5b8063962ca496146106c457806399202454146106cc5780639dc29fac146106d45780639ff054df146106e757600080fd5b80638da5cb5b116101ce5780638da5cb5b146106345780638da7ad231461065f578063909a2ff6146106b457806395d89b41146106bc57600080fd5b80637b0472f0146106115780637e7aa62e146106245780638979c87c1461062c57600080fd5b8063313ce567116102e4578063543d3652116102775780636a5e0766116102465780636a5e0766146105685780637010d7a11461058857806370a08231146105e057806372475f941461060957600080fd5b8063543d365214610495578063583b912c146105385780635bccb4c41461054b57806361a52a361461055e57600080fd5b80633ccfd60b116102b35780633ccfd60b14610500578063451257151461050857806352c7f8dc14610510578063539313b81461051857600080fd5b8063313ce567146104c357806331b9e85d146104d257806332870fda146104e557806339509351146104ed57600080fd5b806316f9c8fd1161035c5780631c6f212e1161032b5780631c6f212e1461049557806323b872dd1461049d5780632a62d9661461042c578063310caf2d146104b057600080fd5b806316f9c8fd1461043457806318160ddd1461046f5780631c244082146104775780631c5603051461048057600080fd5b8063095ea7b311610398578063095ea7b3146103f95780630bfae56b1461041c5780630f2e122814610424578063110d7fc21461042c57600080fd5b806302378932146103bf578063069612a5146103db57806306fdde03146103e4575b600080fd5b6103c861016d81565b6040519081526020015b60405180910390f35b6103c860085481565b6103ec610883565b6040516103d29190612e7e565b61040c610407366004612ee8565b610915565b60405190151581526020016103d2565b6103c861092f565b6103c8606381565b6103c8600081565b61043c610940565b6040516103d291908151815260208083015190820152604080830151908201526060918201519181019190915260800190565b6002546103c8565b6103c860055481565b61049361048e366004612ee8565b6109b1565b005b6103c8600181565b61040c6104ab366004612f12565b610c12565b6104936104be366004612f12565b610c36565b604051601281526020016103d2565b6104936104e0366004612ee8565b610d6e565b6103c8605a81565b61040c6104fb366004612ee8565b610ea3565b610493610ec5565b6103c8611019565b610493611028565b6103c8610526366004612f4e565b600c6020526000908152604090205481565b610493610546366004612f12565b61114b565b610493610559366004612f69565b6112ce565b6103c86201518081565b6103c8610576366004612f4e565b600d6020526000908152604090205481565b610590611625565b6040516103d2919081516001600160a01b031681526020808301519082015260408083015190820152606080830151908201526080808301519082015260a0918201519181019190915260c00190565b6103c86105ee366004612f4e565b6001600160a01b031660009081526020819052604090205490565b6103c8600f81565b61049361061f366004612f69565b6116ca565b6103c8600281565b6103c86118e8565b600e54610647906001600160a01b031681565b6040516001600160a01b0390911681526020016103d2565b61069461066d366004612f4e565b600a6020526000908152604090208054600182015460028301546003909301549192909184565b6040805194855260208501939093529183015260608201526080016103d2565b6103c8606481565b6103ec6118f2565b6103c8611901565b6103c861190b565b6104936106e2366004612ee8565b611915565b6104936106f5366004612f8b565b611b0e565b61040c610708366004612ee8565b611e72565b61040c61071b366004612ee8565b611eed565b6103c861072e366004612fa4565b611efb565b6103c861138881565b6103c860065481565b6103ec611f8b565b6103c8611fa7565b6103c8600781565b6103c861076b366004612f4e565b600b6020526000908152604090205481565b61049361078b366004612ee8565b611fb6565b6103c861079e366004612fd6565b612139565b6107f06107b1366004612f4e565b6009602052600090815260409020805460018201546002830154600384015460048501546005909501546001600160a01b039094169492939192909186565b604080516001600160a01b0390971687526020870195909552938501929092526060840152608083015260a082015260c0016103d2565b6103c87f000000000000000000000000000000000000000000000000000000000000000081565b6103c861012c81565b6103c860075481565b6103c861271081565b6103c8612164565b6103c8620186a081565b6103c8601481565b60606003805461089290613009565b80601f01602080910402602001604051908101604052809291908181526020018280546108be90613009565b801561090b5780601f106108e05761010080835404028352916020019161090b565b820191906000526020600020905b8154815290600101906020018083116108ee57829003601f168201915b5050505050905090565b60003361092381858561217d565b60019150505b92915050565b61093d620151806064613059565b81565b61096b6040518060800160405280600081526020016000815260200160008152602001600081525090565b50336000908152600a6020908152604091829020825160808101845281548152600182015492810192909252600281015492820192909252600390910154606082015290565b33600090815260096020908152604091829020825160c08101845281546001600160a01b03908116825260018301549382019390935260028201549381019390935260038101546060840152600481015460808401526005015460a08301528316610a715760405162461bcd60e51b815260206004820152602560248201527f4352616e6b3a2043616e6e6f742073686172652077697468207a65726f206164604482015264647265737360d81b60648201526084015b60405180910390fd5b60008211610ac15760405162461bcd60e51b815260206004820181905260248201527f4352616e6b3a2043616e6e6f74207368617265207a65726f2070657263656e746044820152606401610a68565b60658210610b115760405162461bcd60e51b815260206004820181905260248201527f4352616e6b3a2043616e6e6f74207368617265203130302b2070657263656e746044820152606401610a68565b6000816060015111610b355760405162461bcd60e51b8152600401610a6890613070565b80604001514211610b585760405162461bcd60e51b8152600401610a689061309f565b6000610b7b82606001518360200151846040015185608001518660a001516122a2565b610b8d90670de0b6b3a7640000613059565b905060006064610b9d8584613059565b610ba791906130ea565b90506000610bb582846130fe565b9050610bc2335b826123a0565b610bcc86836123a0565b610bd461247f565b60405183815233907fd74752b13281df13701575f3a507e9b1242e0b5fb040143211c481c1fce573a6906020015b60405180910390a2505050505050565b600033610c208582856124d3565b610c2b85858561254d565b506001949350505050565b326001600160a01b03841614610c5e5760405162461bcd60e51b8152600401610a6890613111565b610c6a61271082613137565b15610c875760405162461bcd60e51b8152600401610a689061314b565b6001600160a01b038316610cad5760405162461bcd60e51b8152600401610a6890613195565b60008111610ccd5760405162461bcd60e51b8152600401610a68906131d7565b6000610cdb612710836130ea565b90506000610ceb6012600a6132ea565b610cf59084613059565b9050610d0385335b836124d3565b610d0d858261271b565b6001600160a01b0385166000908152600b602052604081208054859290610d359084906132f6565b90915550506001600160a01b0384166000908152600c602052604081208054849290610d629084906132f6565b90915550505050505050565b326001600160a01b03831614610d965760405162461bcd60e51b8152600401610a6890613111565b610da261271082613137565b15610dbf5760405162461bcd60e51b8152600401610a689061314b565b6001600160a01b038216610de55760405162461bcd60e51b8152600401610a6890613195565b60008111610e055760405162461bcd60e51b8152600401610a68906131d7565b6000610e13612710836130ea565b90506000610e236012600a6132ea565b610e2d9084613059565b9050610e398433610cfd565b610e43848261271b565b6001600160a01b0384166000908152600b602052604081208054859290610e6b9084906132f6565b90915550506001600160a01b0384166000908152600c602052604081208054849290610e989084906132f6565b909155505050505050565b600033610923818585610eb68383612139565b610ec091906132f6565b61217d565b336000908152600a6020908152604091829020825160808101845281548152600182015492810192909252600281015492820183905260030154606082015290610f485760405162461bcd60e51b81526020600482015260146024820152735445583a206e6f207374616b652065786973747360601b6044820152606401610a68565b6000610f668260400151836000015184602001518560600151612861565b600780549192506000610f7883613309565b9190505550816040015160086000828254610f9391906130fe565b90915550610fb2905033828460400151610fad91906132f6565b6123a0565b60408083015181519081526020810183905233917f92ccf450a286a957af52509bc1c9939d1a6a481783e142e41e2499f0bb66ebc6910160405180910390a25050336000908152600a60205260408120818155600181018290556002810182905560030155565b60006110236128bf565b905090565b33600090815260096020908152604091829020825160c08101845281546001600160a01b031681526001820154928101929092526002810154928201929092526003820154606082018190526004830154608083015260059092015460a0820152906110a65760405162461bcd60e51b8152600401610a6890613070565b806040015142116110c95760405162461bcd60e51b8152600401610a689061309f565b60006110ec82606001518360200151846040015185608001518660a001516122a2565b6110fe90670de0b6b3a7640000613059565b905061110933610bbc565b61111161247f565b60405181815233907fd74752b13281df13701575f3a507e9b1242e0b5fb040143211c481c1fce573a6906020015b60405180910390a25050565b326001600160a01b038416146111735760405162461bcd60e51b8152600401610a6890613111565b6001600160a01b0383166111995760405162461bcd60e51b8152600401610a6890613195565b600081116111b95760405162461bcd60e51b8152600401610a68906131d7565b6001600160a01b0383166000908152600c602052604090205481111561120e5760405162461bcd60e51b815260206004820152600a6024820152692732b2b2102837bbb2b960b11b6044820152606401610a68565b600061121c826103e8613059565b9050600061122c6012600a6132ea565b6112369083613059565b90506112428533610cfd565b61124c858261271b565b6001600160a01b0385166000908152600b6020526040812080548492906112749084906132f6565b90915550506001600160a01b0384166000908152600c6020526040812080548592906112a19084906132f6565b90915550506001600160a01b0385166000908152600c602052604081208054859290610d629084906130fe565b33600090815260096020908152604091829020825160c08101845281546001600160a01b03168152600182015492810192909252600281015492820192909252600382015460608201526004820154608082015260059091015460a08201526065831061137d5760405162461bcd60e51b815260206004820181905260248201527f4352616e6b3a2043616e6e6f74207368617265203e3130302070657263656e746044820152606401610a68565b60008160600151116113a15760405162461bcd60e51b8152600401610a6890613070565b806040015142116113c45760405162461bcd60e51b8152600401610a689061309f565b60006113e782606001518360200151846040015185608001518660a001516122a2565b6113f990670de0b6b3a7640000613059565b9050600060646114098684613059565b61141391906130ea565b9050600061142182846130fe565b905061142c33610bbc565b61143461247f565b60405183815233907fd74752b13281df13701575f3a507e9b1242e0b5fb040143211c481c1fce573a69060200160405180910390a2600082116114b05760405162461bcd60e51b81526020600482015260146024820152735445583a2042656c6f77206d696e207374616b6560601b6044820152606401610a68565b60016114bf6201518082613059565b6114c991906130fe565b6114d66201518087613059565b1161151f5760405162461bcd60e51b81526020600482015260196024820152785445583a2042656c6f77206d696e207374616b65207465726d60381b6044820152606401610a68565b61152e620151806103e8613059565b6115399060016132f6565b6115466201518087613059565b1061158f5760405162461bcd60e51b81526020600482015260196024820152785445583a2041626f7665206d6178207374616b65207465726d60381b6044820152606401610a68565b336000908152600a6020526040902060020154156115e35760405162461bcd60e51b81526020600482015260116024820152705445583a207374616b652065786973747360781b6044820152606401610a68565b6115ed82866129c6565b604080518381526020810187905233917f1449c6dd7851abc30abf37f57715f492010519147cc2652fbc38202c18a6ee909101610c02565b6116676040518060c0016040528060006001600160a01b0316815260200160008152602001600081526020016000815260200160008152602001600081525090565b5033600090815260096020908152604091829020825160c08101845281546001600160a01b03168152600182015492810192909252600281015492820192909252600382015460608201526004820154608082015260059091015460a082015290565b816116d4336105ee565b10156117225760405162461bcd60e51b815260206004820152601760248201527f5445583a206e6f7420656e6f7567682062616c616e63650000000000000000006044820152606401610a68565b600082116117695760405162461bcd60e51b81526020600482015260146024820152735445583a2042656c6f77206d696e207374616b6560601b6044820152606401610a68565b60016117786201518082613059565b61178291906130fe565b61178f6201518083613059565b116117d85760405162461bcd60e51b81526020600482015260196024820152785445583a2042656c6f77206d696e207374616b65207465726d60381b6044820152606401610a68565b6117e7620151806103e8613059565b6117f29060016132f6565b6117ff6201518083613059565b106118485760405162461bcd60e51b81526020600482015260196024820152785445583a2041626f7665206d6178207374616b65207465726d60381b6044820152606401610a68565b336000908152600a60205260409020600201541561189c5760405162461bcd60e51b81526020600482015260116024820152705445583a207374616b652065786973747360781b6044820152606401610a68565b6118a6338361271b565b6118b082826129c6565b604080518381526020810183905233917f1449c6dd7851abc30abf37f57715f492010519147cc2652fbc38202c18a6ee90910161113f565b6000611023612a69565b60606004805461089290613009565b6000611023612aad565b6000611023612b1a565b600081116119355760405162461bcd60e51b8152600401610a68906131d7565b336040516301ffc9a760e01b815263543746b160e01b60048201526001600160a01b0391909116906301ffc9a790602401602060405180830381865afa158015611983573d6000803e3d6000fd5b505050506040513d601f19601f820116820180604052508101906119a79190613320565b6119f35760405162461bcd60e51b815260206004820152601e60248201527f4275726e3a206e6f74206120737570706f7274656420636f6e747261637400006044820152606401610a68565b6000611a016012600a6132ea565b611a0b9083613059565b9050611a178333610cfd565b611a21838261271b565b6001600160a01b0383166000908152600b602052604081208054849290611a499084906132f6565b90915550611a5b905061271083613137565b600003611aa4576000611a70612710846130ea565b6001600160a01b0385166000908152600c6020526040812080549293508392909190611a9d9084906132f6565b9091555050505b3360405163543746b160e01b81526001600160a01b03858116600483015260248201849052919091169063543746b190604401600060405180830381600087803b158015611af157600080fd5b505af1158015611b05573d6000803e3d6000fd5b50505050505050565b326000611b1e6201518084613059565b90506001611b2f6201518082613059565b611b3991906130fe565b8111611b875760405162461bcd60e51b815260206004820152601960248201527f4352616e6b3a205465726d206c657373207468616e206d696e000000000000006044820152606401610a68565b611b8f6128bf565b611b9a9060016132f6565b8110611bf75760405162461bcd60e51b815260206004820152602660248201527f4352616e6b3a205465726d206d6f7265207468616e2063757272656e74206d6160448201526578207465726d60d01b6064820152608401610a68565b3360009081526009602052604090206003015415611c575760405162461bcd60e51b815260206004820152601f60248201527f4352616e6b3a204d696e7420616c726561647920696e2070726f6772657373006044820152606401610a68565b6298967f6005541080611c8157506001600160a01b0382166000908152600c602052604090205415155b611ce15760405162461bcd60e51b815260206004820152602b60248201527f4352616e6b3a20496e76616c696420676c6f62616c2072616e6b206f7220706f60448201526a7765722062616c616e636560a81b6064820152608401610a68565b60006040518060c00160405280611cf53390565b6001600160a01b0316815260208101869052604001611d1484426132f6565b81526020016005548152602001611d29612b1a565b8152602001611d36612a69565b90526001600160a01b0384166000908152600c602052604090205490915015801590611d6657506298967f600554115b15611d9a576001600160a01b0383166000908152600c60205260408120805460019290611d949084906130fe565b90915550505b336000908152600960209081526040808320845181546001600160a01b0319166001600160a01b039091161781559184015160018301558301516002820155606083015160038201556080830151600482015560a08301516005909101556006805491611e0683613342565b9190505550611e123390565b6001600160a01b03167fe9149e1b5059238baed02fa659dbf4bd932fbcf760a431330df4d934bc942f378560056000815480929190611e5090613342565b909155506040805192835260208301919091520160405180910390a250505050565b60003381611e808286612139565b905083811015611ee05760405162461bcd60e51b815260206004820152602560248201527f45524332303a2064656372656173656420616c6c6f77616e63652062656c6f77604482015264207a65726f60d81b6064820152608401610a68565b610c2b828686840361217d565b60003361092381858561254d565b600080611f12611f0a87612bf6565b600f0b612c14565b90506000611f4e611f2285612bf6565b611f45611f2e88612bf6565b611f45611f3a8b612bf6565b600f88900b90612cf8565b600f0b90612cf8565b9050611f74611f6c611f616103e8612bf6565b600f84900b90612d36565b600f0b612d8d565b67ffffffffffffffff16925050505b949350505050565b6040518060600160405280602e8152602001613375602e913981565b61093d620151806103e8613059565b326001600160a01b03831614611fde5760405162461bcd60e51b8152600401610a6890613111565b6001600160a01b0382166120045760405162461bcd60e51b8152600401610a6890613195565b600081116120245760405162461bcd60e51b8152600401610a68906131d7565b6001600160a01b0382166000908152600c60205260409020548111156120795760405162461bcd60e51b815260206004820152600a6024820152692732b2b2102837bbb2b960b11b6044820152606401610a68565b6000612087826103e8613059565b905060006120976012600a6132ea565b6120a19083613059565b90506120ad8433610cfd565b6120b7848261271b565b6001600160a01b0384166000908152600b6020526040812080548492906120df9084906132f6565b90915550506001600160a01b0384166000908152600c60205260408120805485929061210c9084906130fe565b90915550506001600160a01b0384166000908152600d602052604081208054859290610e989084906132f6565b6001600160a01b03918216600090815260016020908152604080832093909416825291909152205490565b60016121736201518082613059565b61093d91906130fe565b6001600160a01b0383166121df5760405162461bcd60e51b8152602060048201526024808201527f45524332303a20617070726f76652066726f6d20746865207a65726f206164646044820152637265737360e01b6064820152608401610a68565b6001600160a01b0382166122405760405162461bcd60e51b815260206004820152602260248201527f45524332303a20617070726f766520746f20746865207a65726f206164647265604482015261737360f01b6064820152608401610a68565b6001600160a01b0383811660008181526001602090815260408083209487168084529482529182902085905590518481527f8c5be1e5ebec7d5bd14f71427d1e84f3dd0314c0f7b2291e5b200ac8c7c3b92591015b60405180910390a3505050565b6000806122af85426130fe565b905060006122bc82612da9565b9050600073__$3da46b528bb3f2323e80ff907675ef0511$__636d5433e68a6005546122e891906130fe565b6040516001600160e01b031960e084901b168152600481019190915260026024820152604401602060405180830381865af415801561232b573d6000803e3d6000fd5b505050506040513d601f19601f8201168201806040525081019061234f919061335b565b9050600061235f866103e86132f6565b9050600061236f83898c85611efb565b9050606461237d85826130fe565b6123879083613059565b61239191906130ea565b9b9a5050505050505050505050565b6001600160a01b0382166123f65760405162461bcd60e51b815260206004820152601f60248201527f45524332303a206d696e7420746f20746865207a65726f2061646472657373006044820152606401610a68565b806002600082825461240891906132f6565b90915550506001600160a01b038216600090815260208190526040812080548392906124359084906132f6565b90915550506040518181526001600160a01b038316906000907fddf252ad1be2c89b69c2b068fc378daa952ba7f163c4a11628f55a4df523b3ef9060200160405180910390a35050565b33600090815260096020526040812080546001600160a01b03191681556001810182905560028101829055600381018290556004810182905560050181905560068054916124cc83613309565b9190505550565b60006124df8484612139565b90506000198114612547578181101561253a5760405162461bcd60e51b815260206004820152601d60248201527f45524332303a20696e73756666696369656e7420616c6c6f77616e63650000006044820152606401610a68565b612547848484840361217d565b50505050565b6001600160a01b0383166125b15760405162461bcd60e51b815260206004820152602560248201527f45524332303a207472616e736665722066726f6d20746865207a65726f206164604482015264647265737360d81b6064820152608401610a68565b6001600160a01b0382166126135760405162461bcd60e51b815260206004820152602360248201527f45524332303a207472616e7366657220746f20746865207a65726f206164647260448201526265737360e81b6064820152608401610a68565b6001600160a01b0383166000908152602081905260409020548181101561268b5760405162461bcd60e51b815260206004820152602660248201527f45524332303a207472616e7366657220616d6f756e7420657863656564732062604482015265616c616e636560d01b6064820152608401610a68565b6001600160a01b038085166000908152602081905260408082208585039055918516815290812080548492906126c29084906132f6565b92505081905550826001600160a01b0316846001600160a01b03167fddf252ad1be2c89b69c2b068fc378daa952ba7f163c4a11628f55a4df523b3ef8460405161270e91815260200190565b60405180910390a3612547565b6001600160a01b03821661277b5760405162461bcd60e51b815260206004820152602160248201527f45524332303a206275726e2066726f6d20746865207a65726f206164647265736044820152607360f81b6064820152608401610a68565b6001600160a01b038216600090815260208190526040902054818110156127ef5760405162461bcd60e51b815260206004820152602260248201527f45524332303a206275726e20616d6f756e7420657863656564732062616c616e604482015261636560f01b6064820152608401610a68565b6001600160a01b038316600090815260208190526040812083830390556002805484929061281e9084906130fe565b90915550506040518281526000906001600160a01b038516907fddf252ad1be2c89b69c2b068fc378daa952ba7f163c4a11628f55a4df523b3ef90602001612295565b6000824211156128b457600061016d61287a8685613059565b61288790620f4240613059565b61289191906130ea565b90506305f5e1006128a28288613059565b6128ac91906130ea565b915050611f83565b506000949350505050565b600061138860055411156129b85760006128ed611f6c6128df600f612bf6565b611f45611f0a600554612bf6565b67ffffffffffffffff16905060006129086201518083613059565b612916620151806064613059565b61292091906132f6565b905073__$3da46b528bb3f2323e80ff907675ef0511$__637ae2b5c78261294c620151806103e8613059565b6040516001600160e01b031960e085901b16815260048101929092526024820152604401602060405180830381865af415801561298d573d6000803e3d6000fd5b505050506040513d601f19601f820116820180604052508101906129b1919061335b565b9250505090565b611023620151806064613059565b604051806080016040528082815260200162015180836129e69190613059565b6129f090426132f6565b8152602001838152602001612a03612aad565b9052336000908152600a602090815260408083208451815591840151600183015583015160028201556060909201516003909201919091556007805491612a4983613342565b91905055508160086000828254612a6091906132f6565b90915550505050565b600080620186a06005546001612a7f9190613059565b612a8991906130ea565b90506064811115612a9c57600091505090565b612aa78160646130fe565b91505090565b600080612abe605a62015180613059565b612ae87f0000000000000000000000000000000000000000000000000000000000000000426130fe565b612af291906130ea565b905080612b01600260146130fe565b1015612b0f57600291505090565b612aa78160146130fe565b60008062015180612b4b7f0000000000000000000000000000000000000000000000000000000000000000426130fe565b612b5591906130ea565b905061012c811015612bee5773__$3da46b528bb3f2323e80ff907675ef0511$__636d5433e6612b878361012c6130fe565b6040516001600160e01b031960e084901b168152600481019190915260016024820152604401602060405180830381865af4158015612bca573d6000803e3d6000fd5b505050506040513d601f19601f82011682018060405250810190612aa7919061335b565b600191505090565b6000677fffffffffffffff821115612c0d57600080fd5b5060401b90565b60008082600f0b13612c2557600080fd5b6000600f83900b680100000000000000008112612c44576040918201911d5b6401000000008112612c58576020918201911d5b620100008112612c6a576010918201911d5b6101008112612c7b576008918201911d5b60108112612c8b576004918201911d5b60048112612c9b576002918201911d5b60028112612caa576001820191505b603f19820160401b600f85900b607f8490031b6780000000000000005b6000811315612ced5790800260ff81901c8281029390930192607f011c9060011d612cc7565b509095945050505050565b6000600f83810b9083900b0260401d60016001607f1b03198112801590612d26575060016001607f1b038113155b612d2f57600080fd5b9392505050565b600081600f0b600003612d4857600080fd5b600082600f0b604085600f0b901b81612d6357612d636130d4565b05905060016001607f1b03198112801590612d26575060016001607f1b03811315612d2f57600080fd5b60008082600f0b1215612d9f57600080fd5b50600f0b60401d90565b600080612db962015180846130ea565b9050612dc7600160076130fe565b811115612dd75750606392915050565b600060016007612de88460036132f6565b6001901b612df691906130ea565b612e0091906130fe565b604051637ae2b5c760e01b8152600481018290526063602482015290915073__$3da46b528bb3f2323e80ff907675ef0511$__90637ae2b5c790604401602060405180830381865af4158015612e5a573d6000803e3d6000fd5b505050506040513d601f19601f82011682018060405250810190611f83919061335b565b600060208083528351808285015260005b81811015612eab57858101830151858201604001528201612e8f565b506000604082860101526040601f19601f8301168501019250505092915050565b80356001600160a01b0381168114612ee357600080fd5b919050565b60008060408385031215612efb57600080fd5b612f0483612ecc565b946020939093013593505050565b600080600060608486031215612f2757600080fd5b612f3084612ecc565b9250612f3e60208501612ecc565b9150604084013590509250925092565b600060208284031215612f6057600080fd5b612d2f82612ecc565b60008060408385031215612f7c57600080fd5b50508035926020909101359150565b600060208284031215612f9d57600080fd5b5035919050565b60008060008060808587031215612fba57600080fd5b5050823594602084013594506040840135936060013592509050565b60008060408385031215612fe957600080fd5b612ff283612ecc565b915061300060208401612ecc565b90509250929050565b600181811c9082168061301d57607f821691505b60208210810361303d57634e487b7160e01b600052602260045260246000fd5b50919050565b634e487b7160e01b600052601160045260246000fd5b808202811582820484141761092957610929613043565b6020808252601590820152744352616e6b3a204e6f206d696e742065786973747360581b604082015260600190565b6020808252818101527f4352616e6b3a204d696e74206d61747572697479206e6f742072656163686564604082015260600190565b634e487b7160e01b600052601260045260246000fd5b6000826130f9576130f96130d4565b500490565b8181038181111561092957610929613043565b6020808252600c908201526b24b73b30b634b2102ab9b2b960a11b604082015260600190565b600082613146576131466130d4565b500690565b6020808252602a908201527f416d6f756e74206d7573742062652061206d756c7469706c65206f6620504f5760408201526922a92fa822a92fac22a760b11b606082015260800190565b60208082526022908201527f4275726e3a20596f752063616e74206275726e2066726f6d2061646472657373604082015261020360f41b606082015260800190565b602080825260159082015274109d5c9b8e8810995b1bddc81b5a5b881b1a5b5a5d605a1b604082015260600190565b600181815b8085111561324157816000190482111561322757613227613043565b8085161561323457918102915b93841c939080029061320b565b509250929050565b60008261325857506001610929565b8161326557506000610929565b816001811461327b5760028114613285576132a1565b6001915050610929565b60ff84111561329657613296613043565b50506001821b610929565b5060208310610133831016604e8410600b84101617156132c4575081810a610929565b6132ce8383613206565b80600019048211156132e2576132e2613043565b029392505050565b6000612d2f8383613249565b8082018082111561092957610929613043565b60008161331857613318613043565b506000190190565b60006020828403121561333257600080fd5b81518015158114612d2f57600080fd5b60006001820161335457613354613043565b5060010190565b60006020828403121561336d57600080fd5b505191905056fe50657073204c616220404d724a61636b4c6576696e20406c62656c79616576206661697263727970746f2e6f7267a2646970667358221220cf948a3077738375a850007e4f5f7f7f59e1cf019552f9d9c317521c233b7b2764736f6c63430008120033",
			"opcodes": "PUSH1 0xA0 PUSH1 0x40 MSTORE PUSH1 0x1 PUSH1 0x5 SSTORE CALLVALUE DUP1 ISZERO PUSH3 0x16 JUMPI PUSH1 0x0 DUP1 REVERT JUMPDEST POP PUSH1 0x40 MLOAD DUP1 PUSH1 0x40 ADD PUSH1 0x40 MSTORE DUP1 PUSH1 0xC DUP2 MSTORE PUSH1 0x20 ADD PUSH12 0x5445584C412043727970746F PUSH1 0xA0 SHL DUP2 MSTORE POP PUSH1 0x40 MLOAD DUP1 PUSH1 0x40 ADD PUSH1 0x40 MSTORE DUP1 PUSH1 0x7 DUP2 MSTORE PUSH1 0x20 ADD PUSH7 0xE8CADCCAA88AB PUSH1 0xCB SHL DUP2 MSTORE POP DUP2 PUSH1 0x3 SWAP1 DUP2 PUSH3 0x6D SWAP2 SWAP1 PUSH3 0x12E JUMP JUMPDEST POP PUSH1 0x4 PUSH3 0x7C DUP3 DUP3 PUSH3 0x12E JUMP JUMPDEST POP POP TIMESTAMP PUSH1 0x80 MSTORE POP PUSH3 0x1FA JUMP JUMPDEST PUSH4 0x4E487B71 PUSH1 0xE0 SHL PUSH1 0x0 MSTORE PUSH1 0x41 PUSH1 0x4 MSTORE PUSH1 0x24 PUSH1 0x0 REVERT JUMPDEST PUSH1 0x1 DUP2 DUP2 SHR SWAP1 DUP3 AND DUP1 PUSH3 0xB4 JUMPI PUSH1 0x7F DUP3 AND SWAP2 POP JUMPDEST PUSH1 0x20 DUP3 LT DUP2 SUB PUSH3 0xD5 JUMPI PUSH4 0x4E487B71 PUSH1 0xE0 SHL PUSH1 0x0 MSTORE PUSH1 0x22 PUSH1 0x4 MSTORE PUSH1 0x24 PUSH1 0x0 REVERT JUMPDEST POP SWAP2 SWAP1 POP JUMP JUMPDEST PUSH1 0x1F DUP3 GT ISZERO PUSH3 0x129 JUMPI PUSH1 0x0 DUP2 DUP2 MSTORE PUSH1 0x20 DUP2 KECCAK256 PUSH1 0x1F DUP6 ADD PUSH1 0x5 SHR DUP2 ADD PUSH1 0x20 DUP7 LT ISZERO PUSH3 0x104 JUMPI POP DUP1 JUMPDEST PUSH1 0x1F DUP6 ADD PUSH1 0x5 SHR DUP3 ADD SWAP2 POP JUMPDEST DUP2 DUP2 LT ISZERO PUSH3 0x125 JUMPI DUP3 DUP2 SSTORE PUSH1 0x1 ADD PUSH3 0x110 JUMP JUMPDEST POP POP POP JUMPDEST POP POP POP JUMP JUMPDEST DUP2 MLOAD PUSH1 0x1 PUSH1 0x1 PUSH1 0x40 SHL SUB DUP2 GT ISZERO PUSH3 0x14A JUMPI PUSH3 0x14A PUSH3 0x89 JUMP JUMPDEST PUSH3 0x162 DUP2 PUSH3 0x15B DUP5 SLOAD PUSH3 0x9F JUMP JUMPDEST DUP5 PUSH3 0xDB JUMP JUMPDEST PUSH1 0x20 DUP1 PUSH1 0x1F DUP4 GT PUSH1 0x1 DUP2 EQ PUSH3 0x19A JUMPI PUSH1 0x0 DUP5 ISZERO PUSH3 0x181 JUMPI POP DUP6 DUP4 ADD MLOAD JUMPDEST PUSH1 0x0 NOT PUSH1 0x3 DUP7 SWAP1 SHL SHR NOT AND PUSH1 0x1 DUP6 SWAP1 SHL OR DUP6 SSTORE PUSH3 0x125 JUMP JUMPDEST PUSH1 0x0 DUP6 DUP2 MSTORE PUSH1 0x20 DUP2 KECCAK256 PUSH1 0x1F NOT DUP7 AND SWAP2 JUMPDEST DUP3 DUP2 LT ISZERO PUSH3 0x1CB JUMPI DUP9 DUP7 ADD MLOAD DUP3 SSTORE SWAP5 DUP5 ADD SWAP5 PUSH1 0x1 SWAP1 SWAP2 ADD SWAP1 DUP5 ADD PUSH3 0x1AA JUMP JUMPDEST POP DUP6 DUP3 LT ISZERO PUSH3 0x1EA JUMPI DUP8 DUP6 ADD MLOAD PUSH1 0x0 NOT PUSH1 0x3 DUP9 SWAP1 SHL PUSH1 0xF8 AND SHR NOT AND DUP2 SSTORE JUMPDEST POP POP POP POP POP PUSH1 0x1 SWAP1 DUP2 SHL ADD SWAP1 SSTORE POP JUMP JUMPDEST PUSH1 0x80 MLOAD PUSH2 0x33D8 PUSH3 0x224 PUSH1 0x0 CODECOPY PUSH1 0x0 DUP2 DUP2 PUSH2 0x82C ADD MSTORE DUP2 DUP2 PUSH2 0x2AC3 ADD MSTORE PUSH2 0x2B26 ADD MSTORE PUSH2 0x33D8 PUSH1 0x0 RETURN INVALID PUSH1 0x80 PUSH1 0x40 MSTORE CALLVALUE DUP1 ISZERO PUSH2 0x10 JUMPI PUSH1 0x0 DUP1 REVERT JUMPDEST POP PUSH1 0x4 CALLDATASIZE LT PUSH2 0x3BA JUMPI PUSH1 0x0 CALLDATALOAD PUSH1 0xE0 SHR DUP1 PUSH4 0x7B0472F0 GT PUSH2 0x1F4 JUMPI DUP1 PUSH4 0xB4800CDC GT PUSH2 0x11A JUMPI DUP1 PUSH4 0xDF282331 GT PUSH2 0xAD JUMPI DUP1 PUSH4 0xF029093E GT PUSH2 0x7C JUMPI DUP1 PUSH4 0xF029093E EQ PUSH2 0x860 JUMPI DUP1 PUSH4 0xF0604829 EQ PUSH2 0x869 JUMPI DUP1 PUSH4 0xF340FAED EQ PUSH2 0x871 JUMPI DUP1 PUSH4 0xFED74269 EQ PUSH2 0x87B JUMPI PUSH1 0x0 DUP1 REVERT JUMPDEST DUP1 PUSH4 0xDF282331 EQ PUSH2 0x7A3 JUMPI DUP1 PUSH4 0xE3AF6D0A EQ PUSH2 0x827 JUMPI DUP1 PUSH4 0xE81917B4 EQ PUSH2 0x84E JUMPI DUP1 PUSH4 0xED2F2369 EQ PUSH2 0x857 JUMPI PUSH1 0x0 DUP1 REVERT JUMPDEST DUP1 PUSH4 0xC56F0BAB GT PUSH2 0xE9 JUMPI DUP1 PUSH4 0xC56F0BAB EQ PUSH2 0x755 JUMPI DUP1 PUSH4 0xCE653D5F EQ PUSH2 0x75D JUMPI DUP1 PUSH4 0xD3FE4689 EQ PUSH2 0x77D JUMPI DUP1 PUSH4 0xDD62ED3E EQ PUSH2 0x790 JUMPI PUSH1 0x0 DUP1 REVERT JUMPDEST DUP1 PUSH4 0xB4800CDC EQ PUSH2 0x73C JUMPI DUP1 PUSH4 0xBA3EC741 EQ PUSH2 0x745 JUMPI DUP1 PUSH4 0xBCFE394F EQ PUSH2 0x495 JUMPI DUP1 PUSH4 0xC0C65259 EQ PUSH2 0x74D JUMPI PUSH1 0x0 DUP1 REVERT JUMPDEST DUP1 PUSH4 0x962CA496 GT PUSH2 0x192 JUMPI DUP1 PUSH4 0xA457C2D7 GT PUSH2 0x161 JUMPI DUP1 PUSH4 0xA457C2D7 EQ PUSH2 0x6FA JUMPI DUP1 PUSH4 0xA9059CBB EQ PUSH2 0x70D JUMPI DUP1 PUSH4 0xB0FD1FC2 EQ PUSH2 0x720 JUMPI DUP1 PUSH4 0xB21D35F2 EQ PUSH2 0x733 JUMPI PUSH1 0x0 DUP1 REVERT JUMPDEST DUP1 PUSH4 0x962CA496 EQ PUSH2 0x6C4 JUMPI DUP1 PUSH4 0x99202454 EQ PUSH2 0x6CC JUMPI DUP1 PUSH4 0x9DC29FAC EQ PUSH2 0x6D4 JUMPI DUP1 PUSH4 0x9FF054DF EQ PUSH2 0x6E7 JUMPI PUSH1 0x0 DUP1 REVERT JUMPDEST DUP1 PUSH4 0x8DA5CB5B GT PUSH2 0x1CE JUMPI DUP1 PUSH4 0x8DA5CB5B EQ PUSH2 0x634 JUMPI DUP1 PUSH4 0x8DA7AD23 EQ PUSH2 0x65F JUMPI DUP1 PUSH4 0x909A2FF6 EQ PUSH2 0x6B4 JUMPI DUP1 PUSH4 0x95D89B41 EQ PUSH2 0x6BC JUMPI PUSH1 0x0 DUP1 REVERT JUMPDEST DUP1 PUSH4 0x7B0472F0 EQ PUSH2 0x611 JUMPI DUP1 PUSH4 0x7E7AA62E EQ PUSH2 0x624 JUMPI DUP1 PUSH4 0x8979C87C EQ PUSH2 0x62C JUMPI PUSH1 0x0 DUP1 REVERT JUMPDEST DUP1 PUSH4 0x313CE567 GT PUSH2 0x2E4 JUMPI DUP1 PUSH4 0x543D3652 GT PUSH2 0x277 JUMPI DUP1 PUSH4 0x6A5E0766 GT PUSH2 0x246 JUMPI DUP1 PUSH4 0x6A5E0766 EQ PUSH2 0x568 JUMPI DUP1 PUSH4 0x7010D7A1 EQ PUSH2 0x588 JUMPI DUP1 PUSH4 0x70A08231 EQ PUSH2 0x5E0 JUMPI DUP1 PUSH4 0x72475F94 EQ PUSH2 0x609 JUMPI PUSH1 0x0 DUP1 REVERT JUMPDEST DUP1 PUSH4 0x543D3652 EQ PUSH2 0x495 JUMPI DUP1 PUSH4 0x583B912C EQ PUSH2 0x538 JUMPI DUP1 PUSH4 0x5BCCB4C4 EQ PUSH2 0x54B JUMPI DUP1 PUSH4 0x61A52A36 EQ PUSH2 0x55E JUMPI PUSH1 0x0 DUP1 REVERT JUMPDEST DUP1 PUSH4 0x3CCFD60B GT PUSH2 0x2B3 JUMPI DUP1 PUSH4 0x3CCFD60B EQ PUSH2 0x500 JUMPI DUP1 PUSH4 0x45125715 EQ PUSH2 0x508 JUMPI DUP1 PUSH4 0x52C7F8DC EQ PUSH2 0x510 JUMPI DUP1 PUSH4 0x539313B8 EQ PUSH2 0x518 JUMPI PUSH1 0x0 DUP1 REVERT JUMPDEST DUP1 PUSH4 0x313CE567 EQ PUSH2 0x4C3 JUMPI DUP1 PUSH4 0x31B9E85D EQ PUSH2 0x4D2 JUMPI DUP1 PUSH4 0x32870FDA EQ PUSH2 0x4E5 JUMPI DUP1 PUSH4 0x39509351 EQ PUSH2 0x4ED JUMPI PUSH1 0x0 DUP1 REVERT JUMPDEST DUP1 PUSH4 0x16F9C8FD GT PUSH2 0x35C JUMPI DUP1 PUSH4 0x1C6F212E GT PUSH2 0x32B JUMPI DUP1 PUSH4 0x1C6F212E EQ PUSH2 0x495 JUMPI DUP1 PUSH4 0x23B872DD EQ PUSH2 0x49D JUMPI DUP1 PUSH4 0x2A62D966 EQ PUSH2 0x42C JUMPI DUP1 PUSH4 0x310CAF2D EQ PUSH2 0x4B0 JUMPI PUSH1 0x0 DUP1 REVERT JUMPDEST DUP1 PUSH4 0x16F9C8FD EQ PUSH2 0x434 JUMPI DUP1 PUSH4 0x18160DDD EQ PUSH2 0x46F JUMPI DUP1 PUSH4 0x1C244082 EQ PUSH2 0x477 JUMPI DUP1 PUSH4 0x1C560305 EQ PUSH2 0x480 JUMPI PUSH1 0x0 DUP1 REVERT JUMPDEST DUP1 PUSH4 0x95EA7B3 GT PUSH2 0x398 JUMPI DUP1 PUSH4 0x95EA7B3 EQ PUSH2 0x3F9 JUMPI DUP1 PUSH4 0xBFAE56B EQ PUSH2 0x41C JUMPI DUP1 PUSH4 0xF2E1228 EQ PUSH2 0x424 JUMPI DUP1 PUSH4 0x110D7FC2 EQ PUSH2 0x42C JUMPI PUSH1 0x0 DUP1 REVERT JUMPDEST DUP1 PUSH4 0x2378932 EQ PUSH2 0x3BF JUMPI DUP1 PUSH4 0x69612A5 EQ PUSH2 0x3DB JUMPI DUP1 PUSH4 0x6FDDE03 EQ PUSH2 0x3E4 JUMPI JUMPDEST PUSH1 0x0 DUP1 REVERT JUMPDEST PUSH2 0x3C8 PUSH2 0x16D DUP2 JUMP JUMPDEST PUSH1 0x40 MLOAD SWAP1 DUP2 MSTORE PUSH1 0x20 ADD JUMPDEST PUSH1 0x40 MLOAD DUP1 SWAP2 SUB SWAP1 RETURN JUMPDEST PUSH2 0x3C8 PUSH1 0x8 SLOAD DUP2 JUMP JUMPDEST PUSH2 0x3EC PUSH2 0x883 JUMP JUMPDEST PUSH1 0x40 MLOAD PUSH2 0x3D2 SWAP2 SWAP1 PUSH2 0x2E7E JUMP JUMPDEST PUSH2 0x40C PUSH2 0x407 CALLDATASIZE PUSH1 0x4 PUSH2 0x2EE8 JUMP JUMPDEST PUSH2 0x915 JUMP JUMPDEST PUSH1 0x40 MLOAD SWAP1 ISZERO ISZERO DUP2 MSTORE PUSH1 0x20 ADD PUSH2 0x3D2 JUMP JUMPDEST PUSH2 0x3C8 PUSH2 0x92F JUMP JUMPDEST PUSH2 0x3C8 PUSH1 0x63 DUP2 JUMP JUMPDEST PUSH2 0x3C8 PUSH1 0x0 DUP2 JUMP JUMPDEST PUSH2 0x43C PUSH2 0x940 JUMP JUMPDEST PUSH1 0x40 MLOAD PUSH2 0x3D2 SWAP2 SWAP1 DUP2 MLOAD DUP2 MSTORE PUSH1 0x20 DUP1 DUP4 ADD MLOAD SWAP1 DUP3 ADD MSTORE PUSH1 0x40 DUP1 DUP4 ADD MLOAD SWAP1 DUP3 ADD MSTORE PUSH1 0x60 SWAP2 DUP3 ADD MLOAD SWAP2 DUP2 ADD SWAP2 SWAP1 SWAP2 MSTORE PUSH1 0x80 ADD SWAP1 JUMP JUMPDEST PUSH1 0x2 SLOAD PUSH2 0x3C8 JUMP JUMPDEST PUSH2 0x3C8 PUSH1 0x5 SLOAD DUP2 JUMP JUMPDEST PUSH2 0x493 PUSH2 0x48E CALLDATASIZE PUSH1 0x4 PUSH2 0x2EE8 JUMP JUMPDEST PUSH2 0x9B1 JUMP JUMPDEST STOP JUMPDEST PUSH2 0x3C8 PUSH1 0x1 DUP2 JUMP JUMPDEST PUSH2 0x40C PUSH2 0x4AB CALLDATASIZE PUSH1 0x4 PUSH2 0x2F12 JUMP JUMPDEST PUSH2 0xC12 JUMP JUMPDEST PUSH2 0x493 PUSH2 0x4BE CALLDATASIZE PUSH1 0x4 PUSH2 0x2F12 JUMP JUMPDEST PUSH2 0xC36 JUMP JUMPDEST PUSH1 0x40 MLOAD PUSH1 0x12 DUP2 MSTORE PUSH1 0x20 ADD PUSH2 0x3D2 JUMP JUMPDEST PUSH2 0x493 PUSH2 0x4E0 CALLDATASIZE PUSH1 0x4 PUSH2 0x2EE8 JUMP JUMPDEST PUSH2 0xD6E JUMP JUMPDEST PUSH2 0x3C8 PUSH1 0x5A DUP2 JUMP JUMPDEST PUSH2 0x40C PUSH2 0x4FB CALLDATASIZE PUSH1 0x4 PUSH2 0x2EE8 JUMP JUMPDEST PUSH2 0xEA3 JUMP JUMPDEST PUSH2 0x493 PUSH2 0xEC5 JUMP JUMPDEST PUSH2 0x3C8 PUSH2 0x1019 JUMP JUMPDEST PUSH2 0x493 PUSH2 0x1028 JUMP JUMPDEST PUSH2 0x3C8 PUSH2 0x526 CALLDATASIZE PUSH1 0x4 PUSH2 0x2F4E JUMP JUMPDEST PUSH1 0xC PUSH1 0x20 MSTORE PUSH1 0x0 SWAP1 DUP2 MSTORE PUSH1 0x40 SWAP1 KECCAK256 SLOAD DUP2 JUMP JUMPDEST PUSH2 0x493 PUSH2 0x546 CALLDATASIZE PUSH1 0x4 PUSH2 0x2F12 JUMP JUMPDEST PUSH2 0x114B JUMP JUMPDEST PUSH2 0x493 PUSH2 0x559 CALLDATASIZE PUSH1 0x4 PUSH2 0x2F69 JUMP JUMPDEST PUSH2 0x12CE JUMP JUMPDEST PUSH2 0x3C8 PUSH3 0x15180 DUP2 JUMP JUMPDEST PUSH2 0x3C8 PUSH2 0x576 CALLDATASIZE PUSH1 0x4 PUSH2 0x2F4E JUMP JUMPDEST PUSH1 0xD PUSH1 0x20 MSTORE PUSH1 0x0 SWAP1 DUP2 MSTORE PUSH1 0x40 SWAP1 KECCAK256 SLOAD DUP2 JUMP JUMPDEST PUSH2 0x590 PUSH2 0x1625 JUMP JUMPDEST PUSH1 0x40 MLOAD PUSH2 0x3D2 SWAP2 SWAP1 DUP2 MLOAD PUSH1 0x1 PUSH1 0x1 PUSH1 0xA0 SHL SUB AND DUP2 MSTORE PUSH1 0x20 DUP1 DUP4 ADD MLOAD SWAP1 DUP3 ADD MSTORE PUSH1 0x40 DUP1 DUP4 ADD MLOAD SWAP1 DUP3 ADD MSTORE PUSH1 0x60 DUP1 DUP4 ADD MLOAD SWAP1 DUP3 ADD MSTORE PUSH1 0x80 DUP1 DUP4 ADD MLOAD SWAP1 DUP3 ADD MSTORE PUSH1 0xA0 SWAP2 DUP3 ADD MLOAD SWAP2 DUP2 ADD SWAP2 SWAP1 SWAP2 MSTORE PUSH1 0xC0 ADD SWAP1 JUMP JUMPDEST PUSH2 0x3C8 PUSH2 0x5EE CALLDATASIZE PUSH1 0x4 PUSH2 0x2F4E JUMP JUMPDEST PUSH1 0x1 PUSH1 0x1 PUSH1 0xA0 SHL SUB AND PUSH1 0x0 SWAP1 DUP2 MSTORE PUSH1 0x20 DUP2 SWAP1 MSTORE PUSH1 0x40 SWAP1 KECCAK256 SLOAD SWAP1 JUMP JUMPDEST PUSH2 0x3C8 PUSH1 0xF DUP2 JUMP JUMPDEST PUSH2 0x493 PUSH2 0x61F CALLDATASIZE PUSH1 0x4 PUSH2 0x2F69 JUMP JUMPDEST PUSH2 0x16CA JUMP JUMPDEST PUSH2 0x3C8 PUSH1 0x2 DUP2 JUMP JUMPDEST PUSH2 0x3C8 PUSH2 0x18E8 JUMP JUMPDEST PUSH1 0xE SLOAD PUSH2 0x647 SWAP1 PUSH1 0x1 PUSH1 0x1 PUSH1 0xA0 SHL SUB AND DUP2 JUMP JUMPDEST PUSH1 0x40 MLOAD PUSH1 0x1 PUSH1 0x1 PUSH1 0xA0 SHL SUB SWAP1 SWAP2 AND DUP2 MSTORE PUSH1 0x20 ADD PUSH2 0x3D2 JUMP JUMPDEST PUSH2 0x694 PUSH2 0x66D CALLDATASIZE PUSH1 0x4 PUSH2 0x2F4E JUMP JUMPDEST PUSH1 0xA PUSH1 0x20 MSTORE PUSH1 0x0 SWAP1 DUP2 MSTORE PUSH1 0x40 SWAP1 KECCAK256 DUP1 SLOAD PUSH1 0x1 DUP3 ADD SLOAD PUSH1 0x2 DUP4 ADD SLOAD PUSH1 0x3 SWAP1 SWAP4 ADD SLOAD SWAP2 SWAP3 SWAP1 SWAP2 DUP5 JUMP JUMPDEST PUSH1 0x40 DUP1 MLOAD SWAP5 DUP6 MSTORE PUSH1 0x20 DUP6 ADD SWAP4 SWAP1 SWAP4 MSTORE SWAP2 DUP4 ADD MSTORE PUSH1 0x60 DUP3 ADD MSTORE PUSH1 0x80 ADD PUSH2 0x3D2 JUMP JUMPDEST PUSH2 0x3C8 PUSH1 0x64 DUP2 JUMP JUMPDEST PUSH2 0x3EC PUSH2 0x18F2 JUMP JUMPDEST PUSH2 0x3C8 PUSH2 0x1901 JUMP JUMPDEST PUSH2 0x3C8 PUSH2 0x190B JUMP JUMPDEST PUSH2 0x493 PUSH2 0x6E2 CALLDATASIZE PUSH1 0x4 PUSH2 0x2EE8 JUMP JUMPDEST PUSH2 0x1915 JUMP JUMPDEST PUSH2 0x493 PUSH2 0x6F5 CALLDATASIZE PUSH1 0x4 PUSH2 0x2F8B JUMP JUMPDEST PUSH2 0x1B0E JUMP JUMPDEST PUSH2 0x40C PUSH2 0x708 CALLDATASIZE PUSH1 0x4 PUSH2 0x2EE8 JUMP JUMPDEST PUSH2 0x1E72 JUMP JUMPDEST PUSH2 0x40C PUSH2 0x71B CALLDATASIZE PUSH1 0x4 PUSH2 0x2EE8 JUMP JUMPDEST PUSH2 0x1EED JUMP JUMPDEST PUSH2 0x3C8 PUSH2 0x72E CALLDATASIZE PUSH1 0x4 PUSH2 0x2FA4 JUMP JUMPDEST PUSH2 0x1EFB JUMP JUMPDEST PUSH2 0x3C8 PUSH2 0x1388 DUP2 JUMP JUMPDEST PUSH2 0x3C8 PUSH1 0x6 SLOAD DUP2 JUMP JUMPDEST PUSH2 0x3EC PUSH2 0x1F8B JUMP JUMPDEST PUSH2 0x3C8 PUSH2 0x1FA7 JUMP JUMPDEST PUSH2 0x3C8 PUSH1 0x7 DUP2 JUMP JUMPDEST PUSH2 0x3C8 PUSH2 0x76B CALLDATASIZE PUSH1 0x4 PUSH2 0x2F4E JUMP JUMPDEST PUSH1 0xB PUSH1 0x20 MSTORE PUSH1 0x0 SWAP1 DUP2 MSTORE PUSH1 0x40 SWAP1 KECCAK256 SLOAD DUP2 JUMP JUMPDEST PUSH2 0x493 PUSH2 0x78B CALLDATASIZE PUSH1 0x4 PUSH2 0x2EE8 JUMP JUMPDEST PUSH2 0x1FB6 JUMP JUMPDEST PUSH2 0x3C8 PUSH2 0x79E CALLDATASIZE PUSH1 0x4 PUSH2 0x2FD6 JUMP JUMPDEST PUSH2 0x2139 JUMP JUMPDEST PUSH2 0x7F0 PUSH2 0x7B1 CALLDATASIZE PUSH1 0x4 PUSH2 0x2F4E JUMP JUMPDEST PUSH1 0x9 PUSH1 0x20 MSTORE PUSH1 0x0 SWAP1 DUP2 MSTORE PUSH1 0x40 SWAP1 KECCAK256 DUP1 SLOAD PUSH1 0x1 DUP3 ADD SLOAD PUSH1 0x2 DUP4 ADD SLOAD PUSH1 0x3 DUP5 ADD SLOAD PUSH1 0x4 DUP6 ADD SLOAD PUSH1 0x5 SWAP1 SWAP6 ADD SLOAD PUSH1 0x1 PUSH1 0x1 PUSH1 0xA0 SHL SUB SWAP1 SWAP5 AND SWAP5 SWAP3 SWAP4 SWAP2 SWAP3 SWAP1 SWAP2 DUP7 JUMP JUMPDEST PUSH1 0x40 DUP1 MLOAD PUSH1 0x1 PUSH1 0x1 PUSH1 0xA0 SHL SUB SWAP1 SWAP8 AND DUP8 MSTORE PUSH1 0x20 DUP8 ADD SWAP6 SWAP1 SWAP6 MSTORE SWAP4 DUP6 ADD SWAP3 SWAP1 SWAP3 MSTORE PUSH1 0x60 DUP5 ADD MSTORE PUSH1 0x80 DUP4 ADD MSTORE PUSH1 0xA0 DUP3 ADD MSTORE PUSH1 0xC0 ADD PUSH2 0x3D2 JUMP JUMPDEST PUSH2 0x3C8 PUSH32 0x0 DUP2 JUMP JUMPDEST PUSH2 0x3C8 PUSH2 0x12C DUP2 JUMP JUMPDEST PUSH2 0x3C8 PUSH1 0x7 SLOAD DUP2 JUMP JUMPDEST PUSH2 0x3C8 PUSH2 0x2710 DUP2 JUMP JUMPDEST PUSH2 0x3C8 PUSH2 0x2164 JUMP JUMPDEST PUSH2 0x3C8 PUSH3 0x186A0 DUP2 JUMP JUMPDEST PUSH2 0x3C8 PUSH1 0x14 DUP2 JUMP JUMPDEST PUSH1 0x60 PUSH1 0x3 DUP1 SLOAD PUSH2 0x892 SWAP1 PUSH2 0x3009 JUMP JUMPDEST DUP1 PUSH1 0x1F ADD PUSH1 0x20 DUP1 SWAP2 DIV MUL PUSH1 0x20 ADD PUSH1 0x40 MLOAD SWAP1 DUP2 ADD PUSH1 0x40 MSTORE DUP1 SWAP3 SWAP2 SWAP1 DUP2 DUP2 MSTORE PUSH1 0x20 ADD DUP3 DUP1 SLOAD PUSH2 0x8BE SWAP1 PUSH2 0x3009 JUMP JUMPDEST DUP1 ISZERO PUSH2 0x90B JUMPI DUP1 PUSH1 0x1F LT PUSH2 0x8E0 JUMPI PUSH2 0x100 DUP1 DUP4 SLOAD DIV MUL DUP4 MSTORE SWAP2 PUSH1 0x20 ADD SWAP2 PUSH2 0x90B JUMP JUMPDEST DUP3 ADD SWAP2 SWAP1 PUSH1 0x0 MSTORE PUSH1 0x20 PUSH1 0x0 KECCAK256 SWAP1 JUMPDEST DUP2 SLOAD DUP2 MSTORE SWAP1 PUSH1 0x1 ADD SWAP1 PUSH1 0x20 ADD DUP1 DUP4 GT PUSH2 0x8EE JUMPI DUP3 SWAP1 SUB PUSH1 0x1F AND DUP3 ADD SWAP2 JUMPDEST POP POP POP POP POP SWAP1 POP SWAP1 JUMP JUMPDEST PUSH1 0x0 CALLER PUSH2 0x923 DUP2 DUP6 DUP6 PUSH2 0x217D JUMP JUMPDEST PUSH1 0x1 SWAP2 POP POP JUMPDEST SWAP3 SWAP2 POP POP JUMP JUMPDEST PUSH2 0x93D PUSH3 0x15180 PUSH1 0x64 PUSH2 0x3059 JUMP JUMPDEST DUP2 JUMP JUMPDEST PUSH2 0x96B PUSH1 0x40 MLOAD DUP1 PUSH1 0x80 ADD PUSH1 0x40 MSTORE DUP1 PUSH1 0x0 DUP2 MSTORE PUSH1 0x20 ADD PUSH1 0x0 DUP2 MSTORE PUSH1 0x20 ADD PUSH1 0x0 DUP2 MSTORE PUSH1 0x20 ADD PUSH1 0x0 DUP2 MSTORE POP SWAP1 JUMP JUMPDEST POP CALLER PUSH1 0x0 SWAP1 DUP2 MSTORE PUSH1 0xA PUSH1 0x20 SWAP1 DUP2 MSTORE PUSH1 0x40 SWAP2 DUP3 SWAP1 KECCAK256 DUP3 MLOAD PUSH1 0x80 DUP2 ADD DUP5 MSTORE DUP2 SLOAD DUP2 MSTORE PUSH1 0x1 DUP3 ADD SLOAD SWAP3 DUP2 ADD SWAP3 SWAP1 SWAP3 MSTORE PUSH1 0x2 DUP2 ADD SLOAD SWAP3 DUP3 ADD SWAP3 SWAP1 SWAP3 MSTORE PUSH1 0x3 SWAP1 SWAP2 ADD SLOAD PUSH1 0x60 DUP3 ADD MSTORE SWAP1 JUMP JUMPDEST CALLER PUSH1 0x0 SWAP1 DUP2 MSTORE PUSH1 0x9 PUSH1 0x20 SWAP1 DUP2 MSTORE PUSH1 0x40 SWAP2 DUP3 SWAP1 KECCAK256 DUP3 MLOAD PUSH1 0xC0 DUP2 ADD DUP5 MSTORE DUP2 SLOAD PUSH1 0x1 PUSH1 0x1 PUSH1 0xA0 SHL SUB SWAP1 DUP2 AND DUP3 MSTORE PUSH1 0x1 DUP4 ADD SLOAD SWAP4 DUP3 ADD SWAP4 SWAP1 SWAP4 MSTORE PUSH1 0x2 DUP3 ADD SLOAD SWAP4 DUP2 ADD SWAP4 SWAP1 SWAP4 MSTORE PUSH1 0x3 DUP2 ADD SLOAD PUSH1 0x60 DUP5 ADD MSTORE PUSH1 0x4 DUP2 ADD SLOAD PUSH1 0x80 DUP5 ADD MSTORE PUSH1 0x5 ADD SLOAD PUSH1 0xA0 DUP4 ADD MSTORE DUP4 AND PUSH2 0xA71 JUMPI PUSH1 0x40 MLOAD PUSH3 0x461BCD PUSH1 0xE5 SHL DUP2 MSTORE PUSH1 0x20 PUSH1 0x4 DUP3 ADD MSTORE PUSH1 0x25 PUSH1 0x24 DUP3 ADD MSTORE PUSH32 0x4352616E6B3A2043616E6E6F742073686172652077697468207A65726F206164 PUSH1 0x44 DUP3 ADD MSTORE PUSH5 0x6472657373 PUSH1 0xD8 SHL PUSH1 0x64 DUP3 ADD MSTORE PUSH1 0x84 ADD JUMPDEST PUSH1 0x40 MLOAD DUP1 SWAP2 SUB SWAP1 REVERT JUMPDEST PUSH1 0x0 DUP3 GT PUSH2 0xAC1 JUMPI PUSH1 0x40 MLOAD PUSH3 0x461BCD PUSH1 0xE5 SHL DUP2 MSTORE PUSH1 0x20 PUSH1 0x4 DUP3 ADD DUP2 SWAP1 MSTORE PUSH1 0x24 DUP3 ADD MSTORE PUSH32 0x4352616E6B3A2043616E6E6F74207368617265207A65726F2070657263656E74 PUSH1 0x44 DUP3 ADD MSTORE PUSH1 0x64 ADD PUSH2 0xA68 JUMP JUMPDEST PUSH1 0x65 DUP3 LT PUSH2 0xB11 JUMPI PUSH1 0x40 MLOAD PUSH3 0x461BCD PUSH1 0xE5 SHL DUP2 MSTORE PUSH1 0x20 PUSH1 0x4 DUP3 ADD DUP2 SWAP1 MSTORE PUSH1 0x24 DUP3 ADD MSTORE PUSH32 0x4352616E6B3A2043616E6E6F74207368617265203130302B2070657263656E74 PUSH1 0x44 DUP3 ADD MSTORE PUSH1 0x64 ADD PUSH2 0xA68 JUMP JUMPDEST PUSH1 0x0 DUP2 PUSH1 0x60 ADD MLOAD GT PUSH2 0xB35 JUMPI PUSH1 0x40 MLOAD PUSH3 0x461BCD PUSH1 0xE5 SHL DUP2 MSTORE PUSH1 0x4 ADD PUSH2 0xA68 SWAP1 PUSH2 0x3070 JUMP JUMPDEST DUP1 PUSH1 0x40 ADD MLOAD TIMESTAMP GT PUSH2 0xB58 JUMPI PUSH1 0x40 MLOAD PUSH3 0x461BCD PUSH1 0xE5 SHL DUP2 MSTORE PUSH1 0x4 ADD PUSH2 0xA68 SWAP1 PUSH2 0x309F JUMP JUMPDEST PUSH1 0x0 PUSH2 0xB7B DUP3 PUSH1 0x60 ADD MLOAD DUP4 PUSH1 0x20 ADD MLOAD DUP5 PUSH1 0x40 ADD MLOAD DUP6 PUSH1 0x80 ADD MLOAD DUP7 PUSH1 0xA0 ADD MLOAD PUSH2 0x22A2 JUMP JUMPDEST PUSH2 0xB8D SWAP1 PUSH8 0xDE0B6B3A7640000 PUSH2 0x3059 JUMP JUMPDEST SWAP1 POP PUSH1 0x0 PUSH1 0x64 PUSH2 0xB9D DUP6 DUP5 PUSH2 0x3059 JUMP JUMPDEST PUSH2 0xBA7 SWAP2 SWAP1 PUSH2 0x30EA JUMP JUMPDEST SWAP1 POP PUSH1 0x0 PUSH2 0xBB5 DUP3 DUP5 PUSH2 0x30FE JUMP JUMPDEST SWAP1 POP PUSH2 0xBC2 CALLER JUMPDEST DUP3 PUSH2 0x23A0 JUMP JUMPDEST PUSH2 0xBCC DUP7 DUP4 PUSH2 0x23A0 JUMP JUMPDEST PUSH2 0xBD4 PUSH2 0x247F JUMP JUMPDEST PUSH1 0x40 MLOAD DUP4 DUP2 MSTORE CALLER SWAP1 PUSH32 0xD74752B13281DF13701575F3A507E9B1242E0B5FB040143211C481C1FCE573A6 SWAP1 PUSH1 0x20 ADD JUMPDEST PUSH1 0x40 MLOAD DUP1 SWAP2 SUB SWAP1 LOG2 POP POP POP POP POP POP JUMP JUMPDEST PUSH1 0x0 CALLER PUSH2 0xC20 DUP6 DUP3 DUP6 PUSH2 0x24D3 JUMP JUMPDEST PUSH2 0xC2B DUP6 DUP6 DUP6 PUSH2 0x254D JUMP JUMPDEST POP PUSH1 0x1 SWAP5 SWAP4 POP POP POP POP JUMP JUMPDEST ORIGIN PUSH1 0x1 PUSH1 0x1 PUSH1 0xA0 SHL SUB DUP5 AND EQ PUSH2 0xC5E JUMPI PUSH1 0x40 MLOAD PUSH3 0x461BCD PUSH1 0xE5 SHL DUP2 MSTORE PUSH1 0x4 ADD PUSH2 0xA68 SWAP1 PUSH2 0x3111 JUMP JUMPDEST PUSH2 0xC6A PUSH2 0x2710 DUP3 PUSH2 0x3137 JUMP JUMPDEST ISZERO PUSH2 0xC87 JUMPI PUSH1 0x40 MLOAD PUSH3 0x461BCD PUSH1 0xE5 SHL DUP2 MSTORE PUSH1 0x4 ADD PUSH2 0xA68 SWAP1 PUSH2 0x314B JUMP JUMPDEST PUSH1 0x1 PUSH1 0x1 PUSH1 0xA0 SHL SUB DUP4 AND PUSH2 0xCAD JUMPI PUSH1 0x40 MLOAD PUSH3 0x461BCD PUSH1 0xE5 SHL DUP2 MSTORE PUSH1 0x4 ADD PUSH2 0xA68 SWAP1 PUSH2 0x3195 JUMP JUMPDEST PUSH1 0x0 DUP2 GT PUSH2 0xCCD JUMPI PUSH1 0x40 MLOAD PUSH3 0x461BCD PUSH1 0xE5 SHL DUP2 MSTORE PUSH1 0x4 ADD PUSH2 0xA68 SWAP1 PUSH2 0x31D7 JUMP JUMPDEST PUSH1 0x0 PUSH2 0xCDB PUSH2 0x2710 DUP4 PUSH2 0x30EA JUMP JUMPDEST SWAP1 POP PUSH1 0x0 PUSH2 0xCEB PUSH1 0x12 PUSH1 0xA PUSH2 0x32EA JUMP JUMPDEST PUSH2 0xCF5 SWAP1 DUP5 PUSH2 0x3059 JUMP JUMPDEST SWAP1 POP PUSH2 0xD03 DUP6 CALLER JUMPDEST DUP4 PUSH2 0x24D3 JUMP JUMPDEST PUSH2 0xD0D DUP6 DUP3 PUSH2 0x271B JUMP JUMPDEST PUSH1 0x1 PUSH1 0x1 PUSH1 0xA0 SHL SUB DUP6 AND PUSH1 0x0 SWAP1 DUP2 MSTORE PUSH1 0xB PUSH1 0x20 MSTORE PUSH1 0x40 DUP2 KECCAK256 DUP1 SLOAD DUP6 SWAP3 SWAP1 PUSH2 0xD35 SWAP1 DUP5 SWAP1 PUSH2 0x32F6 JUMP JUMPDEST SWAP1 SWAP2 SSTORE POP POP PUSH1 0x1 PUSH1 0x1 PUSH1 0xA0 SHL SUB DUP5 AND PUSH1 0x0 SWAP1 DUP2 MSTORE PUSH1 0xC PUSH1 0x20 MSTORE PUSH1 0x40 DUP2 KECCAK256 DUP1 SLOAD DUP5 SWAP3 SWAP1 PUSH2 0xD62 SWAP1 DUP5 SWAP1 PUSH2 0x32F6 JUMP JUMPDEST SWAP1 SWAP2 SSTORE POP POP POP POP POP POP POP JUMP JUMPDEST ORIGIN PUSH1 0x1 PUSH1 0x1 PUSH1 0xA0 SHL SUB DUP4 AND EQ PUSH2 0xD96 JUMPI PUSH1 0x40 MLOAD PUSH3 0x461BCD PUSH1 0xE5 SHL DUP2 MSTORE PUSH1 0x4 ADD PUSH2 0xA68 SWAP1 PUSH2 0x3111 JUMP JUMPDEST PUSH2 0xDA2 PUSH2 0x2710 DUP3 PUSH2 0x3137 JUMP JUMPDEST ISZERO PUSH2 0xDBF JUMPI PUSH1 0x40 MLOAD PUSH3 0x461BCD PUSH1 0xE5 SHL DUP2 MSTORE PUSH1 0x4 ADD PUSH2 0xA68 SWAP1 PUSH2 0x314B JUMP JUMPDEST PUSH1 0x1 PUSH1 0x1 PUSH1 0xA0 SHL SUB DUP3 AND PUSH2 0xDE5 JUMPI PUSH1 0x40 MLOAD PUSH3 0x461BCD PUSH1 0xE5 SHL DUP2 MSTORE PUSH1 0x4 ADD PUSH2 0xA68 SWAP1 PUSH2 0x3195 JUMP JUMPDEST PUSH1 0x0 DUP2 GT PUSH2 0xE05 JUMPI PUSH1 0x40 MLOAD PUSH3 0x461BCD PUSH1 0xE5 SHL DUP2 MSTORE PUSH1 0x4 ADD PUSH2 0xA68 SWAP1 PUSH2 0x31D7 JUMP JUMPDEST PUSH1 0x0 PUSH2 0xE13 PUSH2 0x2710 DUP4 PUSH2 0x30EA JUMP JUMPDEST SWAP1 POP PUSH1 0x0 PUSH2 0xE23 PUSH1 0x12 PUSH1 0xA PUSH2 0x32EA JUMP JUMPDEST PUSH2 0xE2D SWAP1 DUP5 PUSH2 0x3059 JUMP JUMPDEST SWAP1 POP PUSH2 0xE39 DUP5 CALLER PUSH2 0xCFD JUMP JUMPDEST PUSH2 0xE43 DUP5 DUP3 PUSH2 0x271B JUMP JUMPDEST PUSH1 0x1 PUSH1 0x1 PUSH1 0xA0 SHL SUB DUP5 AND PUSH1 0x0 SWAP1 DUP2 MSTORE PUSH1 0xB PUSH1 0x20 MSTORE PUSH1 0x40 DUP2 KECCAK256 DUP1 SLOAD DUP6 SWAP3 SWAP1 PUSH2 0xE6B SWAP1 DUP5 SWAP1 PUSH2 0x32F6 JUMP JUMPDEST SWAP1 SWAP2 SSTORE POP POP PUSH1 0x1 PUSH1 0x1 PUSH1 0xA0 SHL SUB DUP5 AND PUSH1 0x0 SWAP1 DUP2 MSTORE PUSH1 0xC PUSH1 0x20 MSTORE PUSH1 0x40 DUP2 KECCAK256 DUP1 SLOAD DUP5 SWAP3 SWAP1 PUSH2 0xE98 SWAP1 DUP5 SWAP1 PUSH2 0x32F6 JUMP JUMPDEST SWAP1 SWAP2 SSTORE POP POP POP POP POP POP JUMP JUMPDEST PUSH1 0x0 CALLER PUSH2 0x923 DUP2 DUP6 DUP6 PUSH2 0xEB6 DUP4 DUP4 PUSH2 0x2139 JUMP JUMPDEST PUSH2 0xEC0 SWAP2 SWAP1 PUSH2 0x32F6 JUMP JUMPDEST PUSH2 0x217D JUMP JUMPDEST CALLER PUSH1 0x0 SWAP1 DUP2 MSTORE PUSH1 0xA PUSH1 0x20 SWAP1 DUP2 MSTORE PUSH1 0x40 SWAP2 DUP3 SWAP1 KECCAK256 DUP3 MLOAD PUSH1 0x80 DUP2 ADD DUP5 MSTORE DUP2 SLOAD DUP2 MSTORE PUSH1 0x1 DUP3 ADD SLOAD SWAP3 DUP2 ADD SWAP3 SWAP1 SWAP3 MSTORE PUSH1 0x2 DUP2 ADD SLOAD SWAP3 DUP3 ADD DUP4 SWAP1 MSTORE PUSH1 0x3 ADD SLOAD PUSH1 0x60 DUP3 ADD MSTORE SWAP1 PUSH2 0xF48 JUMPI PUSH1 0x40 MLOAD PUSH3 0x461BCD PUSH1 0xE5 SHL DUP2 MSTORE PUSH1 0x20 PUSH1 0x4 DUP3 ADD MSTORE PUSH1 0x14 PUSH1 0x24 DUP3 ADD MSTORE PUSH20 0x5445583A206E6F207374616B6520657869737473 PUSH1 0x60 SHL PUSH1 0x44 DUP3 ADD MSTORE PUSH1 0x64 ADD PUSH2 0xA68 JUMP JUMPDEST PUSH1 0x0 PUSH2 0xF66 DUP3 PUSH1 0x40 ADD MLOAD DUP4 PUSH1 0x0 ADD MLOAD DUP5 PUSH1 0x20 ADD MLOAD DUP6 PUSH1 0x60 ADD MLOAD PUSH2 0x2861 JUMP JUMPDEST PUSH1 0x7 DUP1 SLOAD SWAP2 SWAP3 POP PUSH1 0x0 PUSH2 0xF78 DUP4 PUSH2 0x3309 JUMP JUMPDEST SWAP2 SWAP1 POP SSTORE POP DUP2 PUSH1 0x40 ADD MLOAD PUSH1 0x8 PUSH1 0x0 DUP3 DUP3 SLOAD PUSH2 0xF93 SWAP2 SWAP1 PUSH2 0x30FE JUMP JUMPDEST SWAP1 SWAP2 SSTORE POP PUSH2 0xFB2 SWAP1 POP CALLER DUP3 DUP5 PUSH1 0x40 ADD MLOAD PUSH2 0xFAD SWAP2 SWAP1 PUSH2 0x32F6 JUMP JUMPDEST PUSH2 0x23A0 JUMP JUMPDEST PUSH1 0x40 DUP1 DUP4 ADD MLOAD DUP2 MLOAD SWAP1 DUP2 MSTORE PUSH1 0x20 DUP2 ADD DUP4 SWAP1 MSTORE CALLER SWAP2 PUSH32 0x92CCF450A286A957AF52509BC1C9939D1A6A481783E142E41E2499F0BB66EBC6 SWAP2 ADD PUSH1 0x40 MLOAD DUP1 SWAP2 SUB SWAP1 LOG2 POP POP CALLER PUSH1 0x0 SWAP1 DUP2 MSTORE PUSH1 0xA PUSH1 0x20 MSTORE PUSH1 0x40 DUP2 KECCAK256 DUP2 DUP2 SSTORE PUSH1 0x1 DUP2 ADD DUP3 SWAP1 SSTORE PUSH1 0x2 DUP2 ADD DUP3 SWAP1 SSTORE PUSH1 0x3 ADD SSTORE JUMP JUMPDEST PUSH1 0x0 PUSH2 0x1023 PUSH2 0x28BF JUMP JUMPDEST SWAP1 POP SWAP1 JUMP JUMPDEST CALLER PUSH1 0x0 SWAP1 DUP2 MSTORE PUSH1 0x9 PUSH1 0x20 SWAP1 DUP2 MSTORE PUSH1 0x40 SWAP2 DUP3 SWAP1 KECCAK256 DUP3 MLOAD PUSH1 0xC0 DUP2 ADD DUP5 MSTORE DUP2 SLOAD PUSH1 0x1 PUSH1 0x1 PUSH1 0xA0 SHL SUB AND DUP2 MSTORE PUSH1 0x1 DUP3 ADD SLOAD SWAP3 DUP2 ADD SWAP3 SWAP1 SWAP3 MSTORE PUSH1 0x2 DUP2 ADD SLOAD SWAP3 DUP3 ADD SWAP3 SWAP1 SWAP3 MSTORE PUSH1 0x3 DUP3 ADD SLOAD PUSH1 0x60 DUP3 ADD DUP2 SWAP1 MSTORE PUSH1 0x4 DUP4 ADD SLOAD PUSH1 0x80 DUP4 ADD MSTORE PUSH1 0x5 SWAP1 SWAP3 ADD SLOAD PUSH1 0xA0 DUP3 ADD MSTORE SWAP1 PUSH2 0x10A6 JUMPI PUSH1 0x40 MLOAD PUSH3 0x461BCD PUSH1 0xE5 SHL DUP2 MSTORE PUSH1 0x4 ADD PUSH2 0xA68 SWAP1 PUSH2 0x3070 JUMP JUMPDEST DUP1 PUSH1 0x40 ADD MLOAD TIMESTAMP GT PUSH2 0x10C9 JUMPI PUSH1 0x40 MLOAD PUSH3 0x461BCD PUSH1 0xE5 SHL DUP2 MSTORE PUSH1 0x4 ADD PUSH2 0xA68 SWAP1 PUSH2 0x309F JUMP JUMPDEST PUSH1 0x0 PUSH2 0x10EC DUP3 PUSH1 0x60 ADD MLOAD DUP4 PUSH1 0x20 ADD MLOAD DUP5 PUSH1 0x40 ADD MLOAD DUP6 PUSH1 0x80 ADD MLOAD DUP7 PUSH1 0xA0 ADD MLOAD PUSH2 0x22A2 JUMP JUMPDEST PUSH2 0x10FE SWAP1 PUSH8 0xDE0B6B3A7640000 PUSH2 0x3059 JUMP JUMPDEST SWAP1 POP PUSH2 0x1109 CALLER PUSH2 0xBBC JUMP JUMPDEST PUSH2 0x1111 PUSH2 0x247F JUMP JUMPDEST PUSH1 0x40 MLOAD DUP2 DUP2 MSTORE CALLER SWAP1 PUSH32 0xD74752B13281DF13701575F3A507E9B1242E0B5FB040143211C481C1FCE573A6 SWAP1 PUSH1 0x20 ADD JUMPDEST PUSH1 0x40 MLOAD DUP1 SWAP2 SUB SWAP1 LOG2 POP POP JUMP JUMPDEST ORIGIN PUSH1 0x1 PUSH1 0x1 PUSH1 0xA0 SHL SUB DUP5 AND EQ PUSH2 0x1173 JUMPI PUSH1 0x40 MLOAD PUSH3 0x461BCD PUSH1 0xE5 SHL DUP2 MSTORE PUSH1 0x4 ADD PUSH2 0xA68 SWAP1 PUSH2 0x3111 JUMP JUMPDEST PUSH1 0x1 PUSH1 0x1 PUSH1 0xA0 SHL SUB DUP4 AND PUSH2 0x1199 JUMPI PUSH1 0x40 MLOAD PUSH3 0x461BCD PUSH1 0xE5 SHL DUP2 MSTORE PUSH1 0x4 ADD PUSH2 0xA68 SWAP1 PUSH2 0x3195 JUMP JUMPDEST PUSH1 0x0 DUP2 GT PUSH2 0x11B9 JUMPI PUSH1 0x40 MLOAD PUSH3 0x461BCD PUSH1 0xE5 SHL DUP2 MSTORE PUSH1 0x4 ADD PUSH2 0xA68 SWAP1 PUSH2 0x31D7 JUMP JUMPDEST PUSH1 0x1 PUSH1 0x1 PUSH1 0xA0 SHL SUB DUP4 AND PUSH1 0x0 SWAP1 DUP2 MSTORE PUSH1 0xC PUSH1 0x20 MSTORE PUSH1 0x40 SWAP1 KECCAK256 SLOAD DUP2 GT ISZERO PUSH2 0x120E JUMPI PUSH1 0x40 MLOAD PUSH3 0x461BCD PUSH1 0xE5 SHL DUP2 MSTORE PUSH1 0x20 PUSH1 0x4 DUP3 ADD MSTORE PUSH1 0xA PUSH1 0x24 DUP3 ADD MSTORE PUSH10 0x2732B2B2102837BBB2B9 PUSH1 0xB1 SHL PUSH1 0x44 DUP3 ADD MSTORE PUSH1 0x64 ADD PUSH2 0xA68 JUMP JUMPDEST PUSH1 0x0 PUSH2 0x121C DUP3 PUSH2 0x3E8 PUSH2 0x3059 JUMP JUMPDEST SWAP1 POP PUSH1 0x0 PUSH2 0x122C PUSH1 0x12 PUSH1 0xA PUSH2 0x32EA JUMP JUMPDEST PUSH2 0x1236 SWAP1 DUP4 PUSH2 0x3059 JUMP JUMPDEST SWAP1 POP PUSH2 0x1242 DUP6 CALLER PUSH2 0xCFD JUMP JUMPDEST PUSH2 0x124C DUP6 DUP3 PUSH2 0x271B JUMP JUMPDEST PUSH1 0x1 PUSH1 0x1 PUSH1 0xA0 SHL SUB DUP6 AND PUSH1 0x0 SWAP1 DUP2 MSTORE PUSH1 0xB PUSH1 0x20 MSTORE PUSH1 0x40 DUP2 KECCAK256 DUP1 SLOAD DUP5 SWAP3 SWAP1 PUSH2 0x1274 SWAP1 DUP5 SWAP1 PUSH2 0x32F6 JUMP JUMPDEST SWAP1 SWAP2 SSTORE POP POP PUSH1 0x1 PUSH1 0x1 PUSH1 0xA0 SHL SUB DUP5 AND PUSH1 0x0 SWAP1 DUP2 MSTORE PUSH1 0xC PUSH1 0x20 MSTORE PUSH1 0x40 DUP2 KECCAK256 DUP1 SLOAD DUP6 SWAP3 SWAP1 PUSH2 0x12A1 SWAP1 DUP5 SWAP1 PUSH2 0x32F6 JUMP JUMPDEST SWAP1 SWAP2 SSTORE POP POP PUSH1 0x1 PUSH1 0x1 PUSH1 0xA0 SHL SUB DUP6 AND PUSH1 0x0 SWAP1 DUP2 MSTORE PUSH1 0xC PUSH1 0x20 MSTORE PUSH1 0x40 DUP2 KECCAK256 DUP1 SLOAD DUP6 SWAP3 SWAP1 PUSH2 0xD62 SWAP1 DUP5 SWAP1 PUSH2 0x30FE JUMP JUMPDEST CALLER PUSH1 0x0 SWAP1 DUP2 MSTORE PUSH1 0x9 PUSH1 0x20 SWAP1 DUP2 MSTORE PUSH1 0x40 SWAP2 DUP3 SWAP1 KECCAK256 DUP3 MLOAD PUSH1 0xC0 DUP2 ADD DUP5 MSTORE DUP2 SLOAD PUSH1 0x1 PUSH1 0x1 PUSH1 0xA0 SHL SUB AND DUP2 MSTORE PUSH1 0x1 DUP3 ADD SLOAD SWAP3 DUP2 ADD SWAP3 SWAP1 SWAP3 MSTORE PUSH1 0x2 DUP2 ADD SLOAD SWAP3 DUP3 ADD SWAP3 SWAP1 SWAP3 MSTORE PUSH1 0x3 DUP3 ADD SLOAD PUSH1 0x60 DUP3 ADD MSTORE PUSH1 0x4 DUP3 ADD SLOAD PUSH1 0x80 DUP3 ADD MSTORE PUSH1 0x5 SWAP1 SWAP2 ADD SLOAD PUSH1 0xA0 DUP3 ADD MSTORE PUSH1 0x65 DUP4 LT PUSH2 0x137D JUMPI PUSH1 0x40 MLOAD PUSH3 0x461BCD PUSH1 0xE5 SHL DUP2 MSTORE PUSH1 0x20 PUSH1 0x4 DUP3 ADD DUP2 SWAP1 MSTORE PUSH1 0x24 DUP3 ADD MSTORE PUSH32 0x4352616E6B3A2043616E6E6F74207368617265203E3130302070657263656E74 PUSH1 0x44 DUP3 ADD MSTORE PUSH1 0x64 ADD PUSH2 0xA68 JUMP JUMPDEST PUSH1 0x0 DUP2 PUSH1 0x60 ADD MLOAD GT PUSH2 0x13A1 JUMPI PUSH1 0x40 MLOAD PUSH3 0x461BCD PUSH1 0xE5 SHL DUP2 MSTORE PUSH1 0x4 ADD PUSH2 0xA68 SWAP1 PUSH2 0x3070 JUMP JUMPDEST DUP1 PUSH1 0x40 ADD MLOAD TIMESTAMP GT PUSH2 0x13C4 JUMPI PUSH1 0x40 MLOAD PUSH3 0x461BCD PUSH1 0xE5 SHL DUP2 MSTORE PUSH1 0x4 ADD PUSH2 0xA68 SWAP1 PUSH2 0x309F JUMP JUMPDEST PUSH1 0x0 PUSH2 0x13E7 DUP3 PUSH1 0x60 ADD MLOAD DUP4 PUSH1 0x20 ADD MLOAD DUP5 PUSH1 0x40 ADD MLOAD DUP6 PUSH1 0x80 ADD MLOAD DUP7 PUSH1 0xA0 ADD MLOAD PUSH2 0x22A2 JUMP JUMPDEST PUSH2 0x13F9 SWAP1 PUSH8 0xDE0B6B3A7640000 PUSH2 0x3059 JUMP JUMPDEST SWAP1 POP PUSH1 0x0 PUSH1 0x64 PUSH2 0x1409 DUP7 DUP5 PUSH2 0x3059 JUMP JUMPDEST PUSH2 0x1413 SWAP2 SWAP1 PUSH2 0x30EA JUMP JUMPDEST SWAP1 POP PUSH1 0x0 PUSH2 0x1421 DUP3 DUP5 PUSH2 0x30FE JUMP JUMPDEST SWAP1 POP PUSH2 0x142C CALLER PUSH2 0xBBC JUMP JUMPDEST PUSH2 0x1434 PUSH2 0x247F JUMP JUMPDEST PUSH1 0x40 MLOAD DUP4 DUP2 MSTORE CALLER SWAP1 PUSH32 0xD74752B13281DF13701575F3A507E9B1242E0B5FB040143211C481C1FCE573A6 SWAP1 PUSH1 0x20 ADD PUSH1 0x40 MLOAD DUP1 SWAP2 SUB SWAP1 LOG2 PUSH1 0x0 DUP3 GT PUSH2 0x14B0 JUMPI PUSH1 0x40 MLOAD PUSH3 0x461BCD PUSH1 0xE5 SHL DUP2 MSTORE PUSH1 0x20 PUSH1 0x4 DUP3 ADD MSTORE PUSH1 0x14 PUSH1 0x24 DUP3 ADD MSTORE PUSH20 0x5445583A2042656C6F77206D696E207374616B65 PUSH1 0x60 SHL PUSH1 0x44 DUP3 ADD MSTORE PUSH1 0x64 ADD PUSH2 0xA68 JUMP JUMPDEST PUSH1 0x1 PUSH2 0x14BF PUSH3 0x15180 DUP3 PUSH2 0x3059 JUMP JUMPDEST PUSH2 0x14C9 SWAP2 SWAP1 PUSH2 0x30FE JUMP JUMPDEST PUSH2 0x14D6 PUSH3 0x15180 DUP8 PUSH2 0x3059 JUMP JUMPDEST GT PUSH2 0x151F JUMPI PUSH1 0x40 MLOAD PUSH3 0x461BCD PUSH1 0xE5 SHL DUP2 MSTORE PUSH1 0x20 PUSH1 0x4 DUP3 ADD MSTORE PUSH1 0x19 PUSH1 0x24 DUP3 ADD MSTORE PUSH25 0x5445583A2042656C6F77206D696E207374616B65207465726D PUSH1 0x38 SHL PUSH1 0x44 DUP3 ADD MSTORE PUSH1 0x64 ADD PUSH2 0xA68 JUMP JUMPDEST PUSH2 0x152E PUSH3 0x15180 PUSH2 0x3E8 PUSH2 0x3059 JUMP JUMPDEST PUSH2 0x1539 SWAP1 PUSH1 0x1 PUSH2 0x32F6 JUMP JUMPDEST PUSH2 0x1546 PUSH3 0x15180 DUP8 PUSH2 0x3059 JUMP JUMPDEST LT PUSH2 0x158F JUMPI PUSH1 0x40 MLOAD PUSH3 0x461BCD PUSH1 0xE5 SHL DUP2 MSTORE PUSH1 0x20 PUSH1 0x4 DUP3 ADD MSTORE PUSH1 0x19 PUSH1 0x24 DUP3 ADD MSTORE PUSH25 0x5445583A2041626F7665206D6178207374616B65207465726D PUSH1 0x38 SHL PUSH1 0x44 DUP3 ADD MSTORE PUSH1 0x64 ADD PUSH2 0xA68 JUMP JUMPDEST CALLER PUSH1 0x0 SWAP1 DUP2 MSTORE PUSH1 0xA PUSH1 0x20 MSTORE PUSH1 0x40 SWAP1 KECCAK256 PUSH1 0x2 ADD SLOAD ISZERO PUSH2 0x15E3 JUMPI PUSH1 0x40 MLOAD PUSH3 0x461BCD PUSH1 0xE5 SHL DUP2 MSTORE PUSH1 0x20 PUSH1 0x4 DUP3 ADD MSTORE PUSH1 0x11 PUSH1 0x24 DUP3 ADD MSTORE PUSH17 0x5445583A207374616B6520657869737473 PUSH1 0x78 SHL PUSH1 0x44 DUP3 ADD MSTORE PUSH1 0x64 ADD PUSH2 0xA68 JUMP JUMPDEST PUSH2 0x15ED DUP3 DUP7 PUSH2 0x29C6 JUMP JUMPDEST PUSH1 0x40 DUP1 MLOAD DUP4 DUP2 MSTORE PUSH1 0x20 DUP2 ADD DUP8 SWAP1 MSTORE CALLER SWAP2 PUSH32 0x1449C6DD7851ABC30ABF37F57715F492010519147CC2652FBC38202C18A6EE90 SWAP2 ADD PUSH2 0xC02 JUMP JUMPDEST PUSH2 0x1667 PUSH1 0x40 MLOAD DUP1 PUSH1 0xC0 ADD PUSH1 0x40 MSTORE DUP1 PUSH1 0x0 PUSH1 0x1 PUSH1 0x1 PUSH1 0xA0 SHL SUB AND DUP2 MSTORE PUSH1 0x20 ADD PUSH1 0x0 DUP2 MSTORE PUSH1 0x20 ADD PUSH1 0x0 DUP2 MSTORE PUSH1 0x20 ADD PUSH1 0x0 DUP2 MSTORE PUSH1 0x20 ADD PUSH1 0x0 DUP2 MSTORE PUSH1 0x20 ADD PUSH1 0x0 DUP2 MSTORE POP SWAP1 JUMP JUMPDEST POP CALLER PUSH1 0x0 SWAP1 DUP2 MSTORE PUSH1 0x9 PUSH1 0x20 SWAP1 DUP2 MSTORE PUSH1 0x40 SWAP2 DUP3 SWAP1 KECCAK256 DUP3 MLOAD PUSH1 0xC0 DUP2 ADD DUP5 MSTORE DUP2 SLOAD PUSH1 0x1 PUSH1 0x1 PUSH1 0xA0 SHL SUB AND DUP2 MSTORE PUSH1 0x1 DUP3 ADD SLOAD SWAP3 DUP2 ADD SWAP3 SWAP1 SWAP3 MSTORE PUSH1 0x2 DUP2 ADD SLOAD SWAP3 DUP3 ADD SWAP3 SWAP1 SWAP3 MSTORE PUSH1 0x3 DUP3 ADD SLOAD PUSH1 0x60 DUP3 ADD MSTORE PUSH1 0x4 DUP3 ADD SLOAD PUSH1 0x80 DUP3 ADD MSTORE PUSH1 0x5 SWAP1 SWAP2 ADD SLOAD PUSH1 0xA0 DUP3 ADD MSTORE SWAP1 JUMP JUMPDEST DUP2 PUSH2 0x16D4 CALLER PUSH2 0x5EE JUMP JUMPDEST LT ISZERO PUSH2 0x1722 JUMPI PUSH1 0x40 MLOAD PUSH3 0x461BCD PUSH1 0xE5 SHL DUP2 MSTORE PUSH1 0x20 PUSH1 0x4 DUP3 ADD MSTORE PUSH1 0x17 PUSH1 0x24 DUP3 ADD MSTORE PUSH32 0x5445583A206E6F7420656E6F7567682062616C616E6365000000000000000000 PUSH1 0x44 DUP3 ADD MSTORE PUSH1 0x64 ADD PUSH2 0xA68 JUMP JUMPDEST PUSH1 0x0 DUP3 GT PUSH2 0x1769 JUMPI PUSH1 0x40 MLOAD PUSH3 0x461BCD PUSH1 0xE5 SHL DUP2 MSTORE PUSH1 0x20 PUSH1 0x4 DUP3 ADD MSTORE PUSH1 0x14 PUSH1 0x24 DUP3 ADD MSTORE PUSH20 0x5445583A2042656C6F77206D696E207374616B65 PUSH1 0x60 SHL PUSH1 0x44 DUP3 ADD MSTORE PUSH1 0x64 ADD PUSH2 0xA68 JUMP JUMPDEST PUSH1 0x1 PUSH2 0x1778 PUSH3 0x15180 DUP3 PUSH2 0x3059 JUMP JUMPDEST PUSH2 0x1782 SWAP2 SWAP1 PUSH2 0x30FE JUMP JUMPDEST PUSH2 0x178F PUSH3 0x15180 DUP4 PUSH2 0x3059 JUMP JUMPDEST GT PUSH2 0x17D8 JUMPI PUSH1 0x40 MLOAD PUSH3 0x461BCD PUSH1 0xE5 SHL DUP2 MSTORE PUSH1 0x20 PUSH1 0x4 DUP3 ADD MSTORE PUSH1 0x19 PUSH1 0x24 DUP3 ADD MSTORE PUSH25 0x5445583A2042656C6F77206D696E207374616B65207465726D PUSH1 0x38 SHL PUSH1 0x44 DUP3 ADD MSTORE PUSH1 0x64 ADD PUSH2 0xA68 JUMP JUMPDEST PUSH2 0x17E7 PUSH3 0x15180 PUSH2 0x3E8 PUSH2 0x3059 JUMP JUMPDEST PUSH2 0x17F2 SWAP1 PUSH1 0x1 PUSH2 0x32F6 JUMP JUMPDEST PUSH2 0x17FF PUSH3 0x15180 DUP4 PUSH2 0x3059 JUMP JUMPDEST LT PUSH2 0x1848 JUMPI PUSH1 0x40 MLOAD PUSH3 0x461BCD PUSH1 0xE5 SHL DUP2 MSTORE PUSH1 0x20 PUSH1 0x4 DUP3 ADD MSTORE PUSH1 0x19 PUSH1 0x24 DUP3 ADD MSTORE PUSH25 0x5445583A2041626F7665206D6178207374616B65207465726D PUSH1 0x38 SHL PUSH1 0x44 DUP3 ADD MSTORE PUSH1 0x64 ADD PUSH2 0xA68 JUMP JUMPDEST CALLER PUSH1 0x0 SWAP1 DUP2 MSTORE PUSH1 0xA PUSH1 0x20 MSTORE PUSH1 0x40 SWAP1 KECCAK256 PUSH1 0x2 ADD SLOAD ISZERO PUSH2 0x189C JUMPI PUSH1 0x40 MLOAD PUSH3 0x461BCD PUSH1 0xE5 SHL DUP2 MSTORE PUSH1 0x20 PUSH1 0x4 DUP3 ADD MSTORE PUSH1 0x11 PUSH1 0x24 DUP3 ADD MSTORE PUSH17 0x5445583A207374616B6520657869737473 PUSH1 0x78 SHL PUSH1 0x44 DUP3 ADD MSTORE PUSH1 0x64 ADD PUSH2 0xA68 JUMP JUMPDEST PUSH2 0x18A6 CALLER DUP4 PUSH2 0x271B JUMP JUMPDEST PUSH2 0x18B0 DUP3 DUP3 PUSH2 0x29C6 JUMP JUMPDEST PUSH1 0x40 DUP1 MLOAD DUP4 DUP2 MSTORE PUSH1 0x20 DUP2 ADD DUP4 SWAP1 MSTORE CALLER SWAP2 PUSH32 0x1449C6DD7851ABC30ABF37F57715F492010519147CC2652FBC38202C18A6EE90 SWAP2 ADD PUSH2 0x113F JUMP JUMPDEST PUSH1 0x0 PUSH2 0x1023 PUSH2 0x2A69 JUMP JUMPDEST PUSH1 0x60 PUSH1 0x4 DUP1 SLOAD PUSH2 0x892 SWAP1 PUSH2 0x3009 JUMP JUMPDEST PUSH1 0x0 PUSH2 0x1023 PUSH2 0x2AAD JUMP JUMPDEST PUSH1 0x0 PUSH2 0x1023 PUSH2 0x2B1A JUMP JUMPDEST PUSH1 0x0 DUP2 GT PUSH2 0x1935 JUMPI PUSH1 0x40 MLOAD PUSH3 0x461BCD PUSH1 0xE5 SHL DUP2 MSTORE PUSH1 0x4 ADD PUSH2 0xA68 SWAP1 PUSH2 0x31D7 JUMP JUMPDEST CALLER PUSH1 0x40 MLOAD PUSH4 0x1FFC9A7 PUSH1 0xE0 SHL DUP2 MSTORE PUSH4 0x543746B1 PUSH1 0xE0 SHL PUSH1 0x4 DUP3 ADD MSTORE PUSH1 0x1 PUSH1 0x1 PUSH1 0xA0 SHL SUB SWAP2 SWAP1 SWAP2 AND SWAP1 PUSH4 0x1FFC9A7 SWAP1 PUSH1 0x24 ADD PUSH1 0x20 PUSH1 0x40 MLOAD DUP1 DUP4 SUB DUP2 DUP7 GAS STATICCALL ISZERO DUP1 ISZERO PUSH2 0x1983 JUMPI RETURNDATASIZE PUSH1 0x0 DUP1 RETURNDATACOPY RETURNDATASIZE PUSH1 0x0 REVERT JUMPDEST POP POP POP POP PUSH1 0x40 MLOAD RETURNDATASIZE PUSH1 0x1F NOT PUSH1 0x1F DUP3 ADD AND DUP3 ADD DUP1 PUSH1 0x40 MSTORE POP DUP2 ADD SWAP1 PUSH2 0x19A7 SWAP2 SWAP1 PUSH2 0x3320 JUMP JUMPDEST PUSH2 0x19F3 JUMPI PUSH1 0x40 MLOAD PUSH3 0x461BCD PUSH1 0xE5 SHL DUP2 MSTORE PUSH1 0x20 PUSH1 0x4 DUP3 ADD MSTORE PUSH1 0x1E PUSH1 0x24 DUP3 ADD MSTORE PUSH32 0x4275726E3A206E6F74206120737570706F7274656420636F6E74726163740000 PUSH1 0x44 DUP3 ADD MSTORE PUSH1 0x64 ADD PUSH2 0xA68 JUMP JUMPDEST PUSH1 0x0 PUSH2 0x1A01 PUSH1 0x12 PUSH1 0xA PUSH2 0x32EA JUMP JUMPDEST PUSH2 0x1A0B SWAP1 DUP4 PUSH2 0x3059 JUMP JUMPDEST SWAP1 POP PUSH2 0x1A17 DUP4 CALLER PUSH2 0xCFD JUMP JUMPDEST PUSH2 0x1A21 DUP4 DUP3 PUSH2 0x271B JUMP JUMPDEST PUSH1 0x1 PUSH1 0x1 PUSH1 0xA0 SHL SUB DUP4 AND PUSH1 0x0 SWAP1 DUP2 MSTORE PUSH1 0xB PUSH1 0x20 MSTORE PUSH1 0x40 DUP2 KECCAK256 DUP1 SLOAD DUP5 SWAP3 SWAP1 PUSH2 0x1A49 SWAP1 DUP5 SWAP1 PUSH2 0x32F6 JUMP JUMPDEST SWAP1 SWAP2 SSTORE POP PUSH2 0x1A5B SWAP1 POP PUSH2 0x2710 DUP4 PUSH2 0x3137 JUMP JUMPDEST PUSH1 0x0 SUB PUSH2 0x1AA4 JUMPI PUSH1 0x0 PUSH2 0x1A70 PUSH2 0x2710 DUP5 PUSH2 0x30EA JUMP JUMPDEST PUSH1 0x1 PUSH1 0x1 PUSH1 0xA0 SHL SUB DUP6 AND PUSH1 0x0 SWAP1 DUP2 MSTORE PUSH1 0xC PUSH1 0x20 MSTORE PUSH1 0x40 DUP2 KECCAK256 DUP1 SLOAD SWAP3 SWAP4 POP DUP4 SWAP3 SWAP1 SWAP2 SWAP1 PUSH2 0x1A9D SWAP1 DUP5 SWAP1 PUSH2 0x32F6 JUMP JUMPDEST SWAP1 SWAP2 SSTORE POP POP POP JUMPDEST CALLER PUSH1 0x40 MLOAD PUSH4 0x543746B1 PUSH1 0xE0 SHL DUP2 MSTORE PUSH1 0x1 PUSH1 0x1 PUSH1 0xA0 SHL SUB DUP6 DUP2 AND PUSH1 0x4 DUP4 ADD MSTORE PUSH1 0x24 DUP3 ADD DUP5 SWAP1 MSTORE SWAP2 SWAP1 SWAP2 AND SWAP1 PUSH4 0x543746B1 SWAP1 PUSH1 0x44 ADD PUSH1 0x0 PUSH1 0x40 MLOAD DUP1 DUP4 SUB DUP2 PUSH1 0x0 DUP8 DUP1 EXTCODESIZE ISZERO DUP1 ISZERO PUSH2 0x1AF1 JUMPI PUSH1 0x0 DUP1 REVERT JUMPDEST POP GAS CALL ISZERO DUP1 ISZERO PUSH2 0x1B05 JUMPI RETURNDATASIZE PUSH1 0x0 DUP1 RETURNDATACOPY RETURNDATASIZE PUSH1 0x0 REVERT JUMPDEST POP POP POP POP POP POP POP JUMP JUMPDEST ORIGIN PUSH1 0x0 PUSH2 0x1B1E PUSH3 0x15180 DUP5 PUSH2 0x3059 JUMP JUMPDEST SWAP1 POP PUSH1 0x1 PUSH2 0x1B2F PUSH3 0x15180 DUP3 PUSH2 0x3059 JUMP JUMPDEST PUSH2 0x1B39 SWAP2 SWAP1 PUSH2 0x30FE JUMP JUMPDEST DUP2 GT PUSH2 0x1B87 JUMPI PUSH1 0x40 MLOAD PUSH3 0x461BCD PUSH1 0xE5 SHL DUP2 MSTORE PUSH1 0x20 PUSH1 0x4 DUP3 ADD MSTORE PUSH1 0x19 PUSH1 0x24 DUP3 ADD MSTORE PUSH32 0x4352616E6B3A205465726D206C657373207468616E206D696E00000000000000 PUSH1 0x44 DUP3 ADD MSTORE PUSH1 0x64 ADD PUSH2 0xA68 JUMP JUMPDEST PUSH2 0x1B8F PUSH2 0x28BF JUMP JUMPDEST PUSH2 0x1B9A SWAP1 PUSH1 0x1 PUSH2 0x32F6 JUMP JUMPDEST DUP2 LT PUSH2 0x1BF7 JUMPI PUSH1 0x40 MLOAD PUSH3 0x461BCD PUSH1 0xE5 SHL DUP2 MSTORE PUSH1 0x20 PUSH1 0x4 DUP3 ADD MSTORE PUSH1 0x26 PUSH1 0x24 DUP3 ADD MSTORE PUSH32 0x4352616E6B3A205465726D206D6F7265207468616E2063757272656E74206D61 PUSH1 0x44 DUP3 ADD MSTORE PUSH6 0x78207465726D PUSH1 0xD0 SHL PUSH1 0x64 DUP3 ADD MSTORE PUSH1 0x84 ADD PUSH2 0xA68 JUMP JUMPDEST CALLER PUSH1 0x0 SWAP1 DUP2 MSTORE PUSH1 0x9 PUSH1 0x20 MSTORE PUSH1 0x40 SWAP1 KECCAK256 PUSH1 0x3 ADD SLOAD ISZERO PUSH2 0x1C57 JUMPI PUSH1 0x40 MLOAD PUSH3 0x461BCD PUSH1 0xE5 SHL DUP2 MSTORE PUSH1 0x20 PUSH1 0x4 DUP3 ADD MSTORE PUSH1 0x1F PUSH1 0x24 DUP3 ADD MSTORE PUSH32 0x4352616E6B3A204D696E7420616C726561647920696E2070726F677265737300 PUSH1 0x44 DUP3 ADD MSTORE PUSH1 0x64 ADD PUSH2 0xA68 JUMP JUMPDEST PUSH3 0x98967F PUSH1 0x5 SLOAD LT DUP1 PUSH2 0x1C81 JUMPI POP PUSH1 0x1 PUSH1 0x1 PUSH1 0xA0 SHL SUB DUP3 AND PUSH1 0x0 SWAP1 DUP2 MSTORE PUSH1 0xC PUSH1 0x20 MSTORE PUSH1 0x40 SWAP1 KECCAK256 SLOAD ISZERO ISZERO JUMPDEST PUSH2 0x1CE1 JUMPI PUSH1 0x40 MLOAD PUSH3 0x461BCD PUSH1 0xE5 SHL DUP2 MSTORE PUSH1 0x20 PUSH1 0x4 DUP3 ADD MSTORE PUSH1 0x2B PUSH1 0x24 DUP3 ADD MSTORE PUSH32 0x4352616E6B3A20496E76616C696420676C6F62616C2072616E6B206F7220706F PUSH1 0x44 DUP3 ADD MSTORE PUSH11 0x7765722062616C616E6365 PUSH1 0xA8 SHL PUSH1 0x64 DUP3 ADD MSTORE PUSH1 0x84 ADD PUSH2 0xA68 JUMP JUMPDEST PUSH1 0x0 PUSH1 0x40 MLOAD DUP1 PUSH1 0xC0 ADD PUSH1 0x40 MSTORE DUP1 PUSH2 0x1CF5 CALLER SWAP1 JUMP JUMPDEST PUSH1 0x1 PUSH1 0x1 PUSH1 0xA0 SHL SUB AND DUP2 MSTORE PUSH1 0x20 DUP2 ADD DUP7 SWAP1 MSTORE PUSH1 0x40 ADD PUSH2 0x1D14 DUP5 TIMESTAMP PUSH2 0x32F6 JUMP JUMPDEST DUP2 MSTORE PUSH1 0x20 ADD PUSH1 0x5 SLOAD DUP2 MSTORE PUSH1 0x20 ADD PUSH2 0x1D29 PUSH2 0x2B1A JUMP JUMPDEST DUP2 MSTORE PUSH1 0x20 ADD PUSH2 0x1D36 PUSH2 0x2A69 JUMP JUMPDEST SWAP1 MSTORE PUSH1 0x1 PUSH1 0x1 PUSH1 0xA0 SHL SUB DUP5 AND PUSH1 0x0 SWAP1 DUP2 MSTORE PUSH1 0xC PUSH1 0x20 MSTORE PUSH1 0x40 SWAP1 KECCAK256 SLOAD SWAP1 SWAP2 POP ISZERO DUP1 ISZERO SWAP1 PUSH2 0x1D66 JUMPI POP PUSH3 0x98967F PUSH1 0x5 SLOAD GT JUMPDEST ISZERO PUSH2 0x1D9A JUMPI PUSH1 0x1 PUSH1 0x1 PUSH1 0xA0 SHL SUB DUP4 AND PUSH1 0x0 SWAP1 DUP2 MSTORE PUSH1 0xC PUSH1 0x20 MSTORE PUSH1 0x40 DUP2 KECCAK256 DUP1 SLOAD PUSH1 0x1 SWAP3 SWAP1 PUSH2 0x1D94 SWAP1 DUP5 SWAP1 PUSH2 0x30FE JUMP JUMPDEST SWAP1 SWAP2 SSTORE POP POP JUMPDEST CALLER PUSH1 0x0 SWAP1 DUP2 MSTORE PUSH1 0x9 PUSH1 0x20 SWAP1 DUP2 MSTORE PUSH1 0x40 DUP1 DUP4 KECCAK256 DUP5 MLOAD DUP2 SLOAD PUSH1 0x1 PUSH1 0x1 PUSH1 0xA0 SHL SUB NOT AND PUSH1 0x1 PUSH1 0x1 PUSH1 0xA0 SHL SUB SWAP1 SWAP2 AND OR DUP2 SSTORE SWAP2 DUP5 ADD MLOAD PUSH1 0x1 DUP4 ADD SSTORE DUP4 ADD MLOAD PUSH1 0x2 DUP3 ADD SSTORE PUSH1 0x60 DUP4 ADD MLOAD PUSH1 0x3 DUP3 ADD SSTORE PUSH1 0x80 DUP4 ADD MLOAD PUSH1 0x4 DUP3 ADD SSTORE PUSH1 0xA0 DUP4 ADD MLOAD PUSH1 0x5 SWAP1 SWAP2 ADD SSTORE PUSH1 0x6 DUP1 SLOAD SWAP2 PUSH2 0x1E06 DUP4 PUSH2 0x3342 JUMP JUMPDEST SWAP2 SWAP1 POP SSTORE POP PUSH2 0x1E12 CALLER SWAP1 JUMP JUMPDEST PUSH1 0x1 PUSH1 0x1 PUSH1 0xA0 SHL SUB AND PUSH32 0xE9149E1B5059238BAED02FA659DBF4BD932FBCF760A431330DF4D934BC942F37 DUP6 PUSH1 0x5 PUSH1 0x0 DUP2 SLOAD DUP1 SWAP3 SWAP2 SWAP1 PUSH2 0x1E50 SWAP1 PUSH2 0x3342 JUMP JUMPDEST SWAP1 SWAP2 SSTORE POP PUSH1 0x40 DUP1 MLOAD SWAP3 DUP4 MSTORE PUSH1 0x20 DUP4 ADD SWAP2 SWAP1 SWAP2 MSTORE ADD PUSH1 0x40 MLOAD DUP1 SWAP2 SUB SWAP1 LOG2 POP POP POP POP JUMP JUMPDEST PUSH1 0x0 CALLER DUP2 PUSH2 0x1E80 DUP3 DUP7 PUSH2 0x2139 JUMP JUMPDEST SWAP1 POP DUP4 DUP2 LT ISZERO PUSH2 0x1EE0 JUMPI PUSH1 0x40 MLOAD PUSH3 0x461BCD PUSH1 0xE5 SHL DUP2 MSTORE PUSH1 0x20 PUSH1 0x4 DUP3 ADD MSTORE PUSH1 0x25 PUSH1 0x24 DUP3 ADD MSTORE PUSH32 0x45524332303A2064656372656173656420616C6C6F77616E63652062656C6F77 PUSH1 0x44 DUP3 ADD MSTORE PUSH5 0x207A65726F PUSH1 0xD8 SHL PUSH1 0x64 DUP3 ADD MSTORE PUSH1 0x84 ADD PUSH2 0xA68 JUMP JUMPDEST PUSH2 0xC2B DUP3 DUP7 DUP7 DUP5 SUB PUSH2 0x217D JUMP JUMPDEST PUSH1 0x0 CALLER PUSH2 0x923 DUP2 DUP6 DUP6 PUSH2 0x254D JUMP JUMPDEST PUSH1 0x0 DUP1 PUSH2 0x1F12 PUSH2 0x1F0A DUP8 PUSH2 0x2BF6 JUMP JUMPDEST PUSH1 0xF SIGNEXTEND PUSH2 0x2C14 JUMP JUMPDEST SWAP1 POP PUSH1 0x0 PUSH2 0x1F4E PUSH2 0x1F22 DUP6 PUSH2 0x2BF6 JUMP JUMPDEST PUSH2 0x1F45 PUSH2 0x1F2E DUP9 PUSH2 0x2BF6 JUMP JUMPDEST PUSH2 0x1F45 PUSH2 0x1F3A DUP12 PUSH2 0x2BF6 JUMP JUMPDEST PUSH1 0xF DUP9 SWAP1 SIGNEXTEND SWAP1 PUSH2 0x2CF8 JUMP JUMPDEST PUSH1 0xF SIGNEXTEND SWAP1 PUSH2 0x2CF8 JUMP JUMPDEST SWAP1 POP PUSH2 0x1F74 PUSH2 0x1F6C PUSH2 0x1F61 PUSH2 0x3E8 PUSH2 0x2BF6 JUMP JUMPDEST PUSH1 0xF DUP5 SWAP1 SIGNEXTEND SWAP1 PUSH2 0x2D36 JUMP JUMPDEST PUSH1 0xF SIGNEXTEND PUSH2 0x2D8D JUMP JUMPDEST PUSH8 0xFFFFFFFFFFFFFFFF AND SWAP3 POP POP POP JUMPDEST SWAP5 SWAP4 POP POP POP POP JUMP JUMPDEST PUSH1 0x40 MLOAD DUP1 PUSH1 0x60 ADD PUSH1 0x40 MSTORE DUP1 PUSH1 0x2E DUP2 MSTORE PUSH1 0x20 ADD PUSH2 0x3375 PUSH1 0x2E SWAP2 CODECOPY DUP2 JUMP JUMPDEST PUSH2 0x93D PUSH3 0x15180 PUSH2 0x3E8 PUSH2 0x3059 JUMP JUMPDEST ORIGIN PUSH1 0x1 PUSH1 0x1 PUSH1 0xA0 SHL SUB DUP4 AND EQ PUSH2 0x1FDE JUMPI PUSH1 0x40 MLOAD PUSH3 0x461BCD PUSH1 0xE5 SHL DUP2 MSTORE PUSH1 0x4 ADD PUSH2 0xA68 SWAP1 PUSH2 0x3111 JUMP JUMPDEST PUSH1 0x1 PUSH1 0x1 PUSH1 0xA0 SHL SUB DUP3 AND PUSH2 0x2004 JUMPI PUSH1 0x40 MLOAD PUSH3 0x461BCD PUSH1 0xE5 SHL DUP2 MSTORE PUSH1 0x4 ADD PUSH2 0xA68 SWAP1 PUSH2 0x3195 JUMP JUMPDEST PUSH1 0x0 DUP2 GT PUSH2 0x2024 JUMPI PUSH1 0x40 MLOAD PUSH3 0x461BCD PUSH1 0xE5 SHL DUP2 MSTORE PUSH1 0x4 ADD PUSH2 0xA68 SWAP1 PUSH2 0x31D7 JUMP JUMPDEST PUSH1 0x1 PUSH1 0x1 PUSH1 0xA0 SHL SUB DUP3 AND PUSH1 0x0 SWAP1 DUP2 MSTORE PUSH1 0xC PUSH1 0x20 MSTORE PUSH1 0x40 SWAP1 KECCAK256 SLOAD DUP2 GT ISZERO PUSH2 0x2079 JUMPI PUSH1 0x40 MLOAD PUSH3 0x461BCD PUSH1 0xE5 SHL DUP2 MSTORE PUSH1 0x20 PUSH1 0x4 DUP3 ADD MSTORE PUSH1 0xA PUSH1 0x24 DUP3 ADD MSTORE PUSH10 0x2732B2B2102837BBB2B9 PUSH1 0xB1 SHL PUSH1 0x44 DUP3 ADD MSTORE PUSH1 0x64 ADD PUSH2 0xA68 JUMP JUMPDEST PUSH1 0x0 PUSH2 0x2087 DUP3 PUSH2 0x3E8 PUSH2 0x3059 JUMP JUMPDEST SWAP1 POP PUSH1 0x0 PUSH2 0x2097 PUSH1 0x12 PUSH1 0xA PUSH2 0x32EA JUMP JUMPDEST PUSH2 0x20A1 SWAP1 DUP4 PUSH2 0x3059 JUMP JUMPDEST SWAP1 POP PUSH2 0x20AD DUP5 CALLER PUSH2 0xCFD JUMP JUMPDEST PUSH2 0x20B7 DUP5 DUP3 PUSH2 0x271B JUMP JUMPDEST PUSH1 0x1 PUSH1 0x1 PUSH1 0xA0 SHL SUB DUP5 AND PUSH1 0x0 SWAP1 DUP2 MSTORE PUSH1 0xB PUSH1 0x20 MSTORE PUSH1 0x40 DUP2 KECCAK256 DUP1 SLOAD DUP5 SWAP3 SWAP1 PUSH2 0x20DF SWAP1 DUP5 SWAP1 PUSH2 0x32F6 JUMP JUMPDEST SWAP1 SWAP2 SSTORE POP POP PUSH1 0x1 PUSH1 0x1 PUSH1 0xA0 SHL SUB DUP5 AND PUSH1 0x0 SWAP1 DUP2 MSTORE PUSH1 0xC PUSH1 0x20 MSTORE PUSH1 0x40 DUP2 KECCAK256 DUP1 SLOAD DUP6 SWAP3 SWAP1 PUSH2 0x210C SWAP1 DUP5 SWAP1 PUSH2 0x30FE JUMP JUMPDEST SWAP1 SWAP2 SSTORE POP POP PUSH1 0x1 PUSH1 0x1 PUSH1 0xA0 SHL SUB DUP5 AND PUSH1 0x0 SWAP1 DUP2 MSTORE PUSH1 0xD PUSH1 0x20 MSTORE PUSH1 0x40 DUP2 KECCAK256 DUP1 SLOAD DUP6 SWAP3 SWAP1 PUSH2 0xE98 SWAP1 DUP5 SWAP1 PUSH2 0x32F6 JUMP JUMPDEST PUSH1 0x1 PUSH1 0x1 PUSH1 0xA0 SHL SUB SWAP2 DUP3 AND PUSH1 0x0 SWAP1 DUP2 MSTORE PUSH1 0x1 PUSH1 0x20 SWAP1 DUP2 MSTORE PUSH1 0x40 DUP1 DUP4 KECCAK256 SWAP4 SWAP1 SWAP5 AND DUP3 MSTORE SWAP2 SWAP1 SWAP2 MSTORE KECCAK256 SLOAD SWAP1 JUMP JUMPDEST PUSH1 0x1 PUSH2 0x2173 PUSH3 0x15180 DUP3 PUSH2 0x3059 JUMP JUMPDEST PUSH2 0x93D SWAP2 SWAP1 PUSH2 0x30FE JUMP JUMPDEST PUSH1 0x1 PUSH1 0x1 PUSH1 0xA0 SHL SUB DUP4 AND PUSH2 0x21DF JUMPI PUSH1 0x40 MLOAD PUSH3 0x461BCD PUSH1 0xE5 SHL DUP2 MSTORE PUSH1 0x20 PUSH1 0x4 DUP3 ADD MSTORE PUSH1 0x24 DUP1 DUP3 ADD MSTORE PUSH32 0x45524332303A20617070726F76652066726F6D20746865207A65726F20616464 PUSH1 0x44 DUP3 ADD MSTORE PUSH4 0x72657373 PUSH1 0xE0 SHL PUSH1 0x64 DUP3 ADD MSTORE PUSH1 0x84 ADD PUSH2 0xA68 JUMP JUMPDEST PUSH1 0x1 PUSH1 0x1 PUSH1 0xA0 SHL SUB DUP3 AND PUSH2 0x2240 JUMPI PUSH1 0x40 MLOAD PUSH3 0x461BCD PUSH1 0xE5 SHL DUP2 MSTORE PUSH1 0x20 PUSH1 0x4 DUP3 ADD MSTORE PUSH1 0x22 PUSH1 0x24 DUP3 ADD MSTORE PUSH32 0x45524332303A20617070726F766520746F20746865207A65726F206164647265 PUSH1 0x44 DUP3 ADD MSTORE PUSH2 0x7373 PUSH1 0xF0 SHL PUSH1 0x64 DUP3 ADD MSTORE PUSH1 0x84 ADD PUSH2 0xA68 JUMP JUMPDEST PUSH1 0x1 PUSH1 0x1 PUSH1 0xA0 SHL SUB DUP4 DUP2 AND PUSH1 0x0 DUP2 DUP2 MSTORE PUSH1 0x1 PUSH1 0x20 SWAP1 DUP2 MSTORE PUSH1 0x40 DUP1 DUP4 KECCAK256 SWAP5 DUP8 AND DUP1 DUP5 MSTORE SWAP5 DUP3 MSTORE SWAP2 DUP3 SWAP1 KECCAK256 DUP6 SWAP1 SSTORE SWAP1 MLOAD DUP5 DUP2 MSTORE PUSH32 0x8C5BE1E5EBEC7D5BD14F71427D1E84F3DD0314C0F7B2291E5B200AC8C7C3B925 SWAP2 ADD JUMPDEST PUSH1 0x40 MLOAD DUP1 SWAP2 SUB SWAP1 LOG3 POP POP POP JUMP JUMPDEST PUSH1 0x0 DUP1 PUSH2 0x22AF DUP6 TIMESTAMP PUSH2 0x30FE JUMP JUMPDEST SWAP1 POP PUSH1 0x0 PUSH2 0x22BC DUP3 PUSH2 0x2DA9 JUMP JUMPDEST SWAP1 POP PUSH1 0x0 PUSH20 0x0 PUSH4 0x6D5433E6 DUP11 PUSH1 0x5 SLOAD PUSH2 0x22E8 SWAP2 SWAP1 PUSH2 0x30FE JUMP JUMPDEST PUSH1 0x40 MLOAD PUSH1 0x1 PUSH1 0x1 PUSH1 0xE0 SHL SUB NOT PUSH1 0xE0 DUP5 SWAP1 SHL AND DUP2 MSTORE PUSH1 0x4 DUP2 ADD SWAP2 SWAP1 SWAP2 MSTORE PUSH1 0x2 PUSH1 0x24 DUP3 ADD MSTORE PUSH1 0x44 ADD PUSH1 0x20 PUSH1 0x40 MLOAD DUP1 DUP4 SUB DUP2 DUP7 GAS DELEGATECALL ISZERO DUP1 ISZERO PUSH2 0x232B JUMPI RETURNDATASIZE PUSH1 0x0 DUP1 RETURNDATACOPY RETURNDATASIZE PUSH1 0x0 REVERT JUMPDEST POP POP POP POP PUSH1 0x40 MLOAD RETURNDATASIZE PUSH1 0x1F NOT PUSH1 0x1F DUP3 ADD AND DUP3 ADD DUP1 PUSH1 0x40 MSTORE POP DUP2 ADD SWAP1 PUSH2 0x234F SWAP2 SWAP1 PUSH2 0x335B JUMP JUMPDEST SWAP1 POP PUSH1 0x0 PUSH2 0x235F DUP7 PUSH2 0x3E8 PUSH2 0x32F6 JUMP JUMPDEST SWAP1 POP PUSH1 0x0 PUSH2 0x236F DUP4 DUP10 DUP13 DUP6 PUSH2 0x1EFB JUMP JUMPDEST SWAP1 POP PUSH1 0x64 PUSH2 0x237D DUP6 DUP3 PUSH2 0x30FE JUMP JUMPDEST PUSH2 0x2387 SWAP1 DUP4 PUSH2 0x3059 JUMP JUMPDEST PUSH2 0x2391 SWAP2 SWAP1 PUSH2 0x30EA JUMP JUMPDEST SWAP12 SWAP11 POP POP POP POP POP POP POP POP POP POP POP JUMP JUMPDEST PUSH1 0x1 PUSH1 0x1 PUSH1 0xA0 SHL SUB DUP3 AND PUSH2 0x23F6 JUMPI PUSH1 0x40 MLOAD PUSH3 0x461BCD PUSH1 0xE5 SHL DUP2 MSTORE PUSH1 0x20 PUSH1 0x4 DUP3 ADD MSTORE PUSH1 0x1F PUSH1 0x24 DUP3 ADD MSTORE PUSH32 0x45524332303A206D696E7420746F20746865207A65726F206164647265737300 PUSH1 0x44 DUP3 ADD MSTORE PUSH1 0x64 ADD PUSH2 0xA68 JUMP JUMPDEST DUP1 PUSH1 0x2 PUSH1 0x0 DUP3 DUP3 SLOAD PUSH2 0x2408 SWAP2 SWAP1 PUSH2 0x32F6 JUMP JUMPDEST SWAP1 SWAP2 SSTORE POP POP PUSH1 0x1 PUSH1 0x1 PUSH1 0xA0 SHL SUB DUP3 AND PUSH1 0x0 SWAP1 DUP2 MSTORE PUSH1 0x20 DUP2 SWAP1 MSTORE PUSH1 0x40 DUP2 KECCAK256 DUP1 SLOAD DUP4 SWAP3 SWAP1 PUSH2 0x2435 SWAP1 DUP5 SWAP1 PUSH2 0x32F6 JUMP JUMPDEST SWAP1 SWAP2 SSTORE POP POP PUSH1 0x40 MLOAD DUP2 DUP2 MSTORE PUSH1 0x1 PUSH1 0x1 PUSH1 0xA0 SHL SUB DUP4 AND SWAP1 PUSH1 0x0 SWAP1 PUSH32 0xDDF252AD1BE2C89B69C2B068FC378DAA952BA7F163C4A11628F55A4DF523B3EF SWAP1 PUSH1 0x20 ADD PUSH1 0x40 MLOAD DUP1 SWAP2 SUB SWAP1 LOG3 POP POP JUMP JUMPDEST CALLER PUSH1 0x0 SWAP1 DUP2 MSTORE PUSH1 0x9 PUSH1 0x20 MSTORE PUSH1 0x40 DUP2 KECCAK256 DUP1 SLOAD PUSH1 0x1 PUSH1 0x1 PUSH1 0xA0 SHL SUB NOT AND DUP2 SSTORE PUSH1 0x1 DUP2 ADD DUP3 SWAP1 SSTORE PUSH1 0x2 DUP2 ADD DUP3 SWAP1 SSTORE PUSH1 0x3 DUP2 ADD DUP3 SWAP1 SSTORE PUSH1 0x4 DUP2 ADD DUP3 SWAP1 SSTORE PUSH1 0x5 ADD DUP2 SWAP1 SSTORE PUSH1 0x6 DUP1 SLOAD SWAP2 PUSH2 0x24CC DUP4 PUSH2 0x3309 JUMP JUMPDEST SWAP2 SWAP1 POP SSTORE POP JUMP JUMPDEST PUSH1 0x0 PUSH2 0x24DF DUP5 DUP5 PUSH2 0x2139 JUMP JUMPDEST SWAP1 POP PUSH1 0x0 NOT DUP2 EQ PUSH2 0x2547 JUMPI DUP2 DUP2 LT ISZERO PUSH2 0x253A JUMPI PUSH1 0x40 MLOAD PUSH3 0x461BCD PUSH1 0xE5 SHL DUP2 MSTORE PUSH1 0x20 PUSH1 0x4 DUP3 ADD MSTORE PUSH1 0x1D PUSH1 0x24 DUP3 ADD MSTORE PUSH32 0x45524332303A20696E73756666696369656E7420616C6C6F77616E6365000000 PUSH1 0x44 DUP3 ADD MSTORE PUSH1 0x64 ADD PUSH2 0xA68 JUMP JUMPDEST PUSH2 0x2547 DUP5 DUP5 DUP5 DUP5 SUB PUSH2 0x217D JUMP JUMPDEST POP POP POP POP JUMP JUMPDEST PUSH1 0x1 PUSH1 0x1 PUSH1 0xA0 SHL SUB DUP4 AND PUSH2 0x25B1 JUMPI PUSH1 0x40 MLOAD PUSH3 0x461BCD PUSH1 0xE5 SHL DUP2 MSTORE PUSH1 0x20 PUSH1 0x4 DUP3 ADD MSTORE PUSH1 0x25 PUSH1 0x24 DUP3 ADD MSTORE PUSH32 0x45524332303A207472616E736665722066726F6D20746865207A65726F206164 PUSH1 0x44 DUP3 ADD MSTORE PUSH5 0x6472657373 PUSH1 0xD8 SHL PUSH1 0x64 DUP3 ADD MSTORE PUSH1 0x84 ADD PUSH2 0xA68 JUMP JUMPDEST PUSH1 0x1 PUSH1 0x1 PUSH1 0xA0 SHL SUB DUP3 AND PUSH2 0x2613 JUMPI PUSH1 0x40 MLOAD PUSH3 0x461BCD PUSH1 0xE5 SHL DUP2 MSTORE PUSH1 0x20 PUSH1 0x4 DUP3 ADD MSTORE PUSH1 0x23 PUSH1 0x24 DUP3 ADD MSTORE PUSH32 0x45524332303A207472616E7366657220746F20746865207A65726F2061646472 PUSH1 0x44 DUP3 ADD MSTORE PUSH3 0x657373 PUSH1 0xE8 SHL PUSH1 0x64 DUP3 ADD MSTORE PUSH1 0x84 ADD PUSH2 0xA68 JUMP JUMPDEST PUSH1 0x1 PUSH1 0x1 PUSH1 0xA0 SHL SUB DUP4 AND PUSH1 0x0 SWAP1 DUP2 MSTORE PUSH1 0x20 DUP2 SWAP1 MSTORE PUSH1 0x40 SWAP1 KECCAK256 SLOAD DUP2 DUP2 LT ISZERO PUSH2 0x268B JUMPI PUSH1 0x40 MLOAD PUSH3 0x461BCD PUSH1 0xE5 SHL DUP2 MSTORE PUSH1 0x20 PUSH1 0x4 DUP3 ADD MSTORE PUSH1 0x26 PUSH1 0x24 DUP3 ADD MSTORE PUSH32 0x45524332303A207472616E7366657220616D6F756E7420657863656564732062 PUSH1 0x44 DUP3 ADD MSTORE PUSH6 0x616C616E6365 PUSH1 0xD0 SHL PUSH1 0x64 DUP3 ADD MSTORE PUSH1 0x84 ADD PUSH2 0xA68 JUMP JUMPDEST PUSH1 0x1 PUSH1 0x1 PUSH1 0xA0 SHL SUB DUP1 DUP6 AND PUSH1 0x0 SWAP1 DUP2 MSTORE PUSH1 0x20 DUP2 SWAP1 MSTORE PUSH1 0x40 DUP1 DUP3 KECCAK256 DUP6 DUP6 SUB SWAP1 SSTORE SWAP2 DUP6 AND DUP2 MSTORE SWAP1 DUP2 KECCAK256 DUP1 SLOAD DUP5 SWAP3 SWAP1 PUSH2 0x26C2 SWAP1 DUP5 SWAP1 PUSH2 0x32F6 JUMP JUMPDEST SWAP3 POP POP DUP2 SWAP1 SSTORE POP DUP3 PUSH1 0x1 PUSH1 0x1 PUSH1 0xA0 SHL SUB AND DUP5 PUSH1 0x1 PUSH1 0x1 PUSH1 0xA0 SHL SUB AND PUSH32 0xDDF252AD1BE2C89B69C2B068FC378DAA952BA7F163C4A11628F55A4DF523B3EF DUP5 PUSH1 0x40 MLOAD PUSH2 0x270E SWAP2 DUP2 MSTORE PUSH1 0x20 ADD SWAP1 JUMP JUMPDEST PUSH1 0x40 MLOAD DUP1 SWAP2 SUB SWAP1 LOG3 PUSH2 0x2547 JUMP JUMPDEST PUSH1 0x1 PUSH1 0x1 PUSH1 0xA0 SHL SUB DUP3 AND PUSH2 0x277B JUMPI PUSH1 0x40 MLOAD PUSH3 0x461BCD PUSH1 0xE5 SHL DUP2 MSTORE PUSH1 0x20 PUSH1 0x4 DUP3 ADD MSTORE PUSH1 0x21 PUSH1 0x24 DUP3 ADD MSTORE PUSH32 0x45524332303A206275726E2066726F6D20746865207A65726F20616464726573 PUSH1 0x44 DUP3 ADD MSTORE PUSH1 0x73 PUSH1 0xF8 SHL PUSH1 0x64 DUP3 ADD MSTORE PUSH1 0x84 ADD PUSH2 0xA68 JUMP JUMPDEST PUSH1 0x1 PUSH1 0x1 PUSH1 0xA0 SHL SUB DUP3 AND PUSH1 0x0 SWAP1 DUP2 MSTORE PUSH1 0x20 DUP2 SWAP1 MSTORE PUSH1 0x40 SWAP1 KECCAK256 SLOAD DUP2 DUP2 LT ISZERO PUSH2 0x27EF JUMPI PUSH1 0x40 MLOAD PUSH3 0x461BCD PUSH1 0xE5 SHL DUP2 MSTORE PUSH1 0x20 PUSH1 0x4 DUP3 ADD MSTORE PUSH1 0x22 PUSH1 0x24 DUP3 ADD MSTORE PUSH32 0x45524332303A206275726E20616D6F756E7420657863656564732062616C616E PUSH1 0x44 DUP3 ADD MSTORE PUSH2 0x6365 PUSH1 0xF0 SHL PUSH1 0x64 DUP3 ADD MSTORE PUSH1 0x84 ADD PUSH2 0xA68 JUMP JUMPDEST PUSH1 0x1 PUSH1 0x1 PUSH1 0xA0 SHL SUB DUP4 AND PUSH1 0x0 SWAP1 DUP2 MSTORE PUSH1 0x20 DUP2 SWAP1 MSTORE PUSH1 0x40 DUP2 KECCAK256 DUP4 DUP4 SUB SWAP1 SSTORE PUSH1 0x2 DUP1 SLOAD DUP5 SWAP3 SWAP1 PUSH2 0x281E SWAP1 DUP5 SWAP1 PUSH2 0x30FE JUMP JUMPDEST SWAP1 SWAP2 SSTORE POP POP PUSH1 0x40 MLOAD DUP3 DUP2 MSTORE PUSH1 0x0 SWAP1 PUSH1 0x1 PUSH1 0x1 PUSH1 0xA0 SHL SUB DUP6 AND SWAP1 PUSH32 0xDDF252AD1BE2C89B69C2B068FC378DAA952BA7F163C4A11628F55A4DF523B3EF SWAP1 PUSH1 0x20 ADD PUSH2 0x2295 JUMP JUMPDEST PUSH1 0x0 DUP3 TIMESTAMP GT ISZERO PUSH2 0x28B4 JUMPI PUSH1 0x0 PUSH2 0x16D PUSH2 0x287A DUP7 DUP6 PUSH2 0x3059 JUMP JUMPDEST PUSH2 0x2887 SWAP1 PUSH3 0xF4240 PUSH2 0x3059 JUMP JUMPDEST PUSH2 0x2891 SWAP2 SWAP1 PUSH2 0x30EA JUMP JUMPDEST SWAP1 POP PUSH4 0x5F5E100 PUSH2 0x28A2 DUP3 DUP9 PUSH2 0x3059 JUMP JUMPDEST PUSH2 0x28AC SWAP2 SWAP1 PUSH2 0x30EA JUMP JUMPDEST SWAP2 POP POP PUSH2 0x1F83 JUMP JUMPDEST POP PUSH1 0x0 SWAP5 SWAP4 POP POP POP POP JUMP JUMPDEST PUSH1 0x0 PUSH2 0x1388 PUSH1 0x5 SLOAD GT ISZERO PUSH2 0x29B8 JUMPI PUSH1 0x0 PUSH2 0x28ED PUSH2 0x1F6C PUSH2 0x28DF PUSH1 0xF PUSH2 0x2BF6 JUMP JUMPDEST PUSH2 0x1F45 PUSH2 0x1F0A PUSH1 0x5 SLOAD PUSH2 0x2BF6 JUMP JUMPDEST PUSH8 0xFFFFFFFFFFFFFFFF AND SWAP1 POP PUSH1 0x0 PUSH2 0x2908 PUSH3 0x15180 DUP4 PUSH2 0x3059 JUMP JUMPDEST PUSH2 0x2916 PUSH3 0x15180 PUSH1 0x64 PUSH2 0x3059 JUMP JUMPDEST PUSH2 0x2920 SWAP2 SWAP1 PUSH2 0x32F6 JUMP JUMPDEST SWAP1 POP PUSH20 0x0 PUSH4 0x7AE2B5C7 DUP3 PUSH2 0x294C PUSH3 0x15180 PUSH2 0x3E8 PUSH2 0x3059 JUMP JUMPDEST PUSH1 0x40 MLOAD PUSH1 0x1 PUSH1 0x1 PUSH1 0xE0 SHL SUB NOT PUSH1 0xE0 DUP6 SWAP1 SHL AND DUP2 MSTORE PUSH1 0x4 DUP2 ADD SWAP3 SWAP1 SWAP3 MSTORE PUSH1 0x24 DUP3 ADD MSTORE PUSH1 0x44 ADD PUSH1 0x20 PUSH1 0x40 MLOAD DUP1 DUP4 SUB DUP2 DUP7 GAS DELEGATECALL ISZERO DUP1 ISZERO PUSH2 0x298D JUMPI RETURNDATASIZE PUSH1 0x0 DUP1 RETURNDATACOPY RETURNDATASIZE PUSH1 0x0 REVERT JUMPDEST POP POP POP POP PUSH1 0x40 MLOAD RETURNDATASIZE PUSH1 0x1F NOT PUSH1 0x1F DUP3 ADD AND DUP3 ADD DUP1 PUSH1 0x40 MSTORE POP DUP2 ADD SWAP1 PUSH2 0x29B1 SWAP2 SWAP1 PUSH2 0x335B JUMP JUMPDEST SWAP3 POP POP POP SWAP1 JUMP JUMPDEST PUSH2 0x1023 PUSH3 0x15180 PUSH1 0x64 PUSH2 0x3059 JUMP JUMPDEST PUSH1 0x40 MLOAD DUP1 PUSH1 0x80 ADD PUSH1 0x40 MSTORE DUP1 DUP3 DUP2 MSTORE PUSH1 0x20 ADD PUSH3 0x15180 DUP4 PUSH2 0x29E6 SWAP2 SWAP1 PUSH2 0x3059 JUMP JUMPDEST PUSH2 0x29F0 SWAP1 TIMESTAMP PUSH2 0x32F6 JUMP JUMPDEST DUP2 MSTORE PUSH1 0x20 ADD DUP4 DUP2 MSTORE PUSH1 0x20 ADD PUSH2 0x2A03 PUSH2 0x2AAD JUMP JUMPDEST SWAP1 MSTORE CALLER PUSH1 0x0 SWAP1 DUP2 MSTORE PUSH1 0xA PUSH1 0x20 SWAP1 DUP2 MSTORE PUSH1 0x40 DUP1 DUP4 KECCAK256 DUP5 MLOAD DUP2 SSTORE SWAP2 DUP5 ADD MLOAD PUSH1 0x1 DUP4 ADD SSTORE DUP4 ADD MLOAD PUSH1 0x2 DUP3 ADD SSTORE PUSH1 0x60 SWAP1 SWAP3 ADD MLOAD PUSH1 0x3 SWAP1 SWAP3 ADD SWAP2 SWAP1 SWAP2 SSTORE PUSH1 0x7 DUP1 SLOAD SWAP2 PUSH2 0x2A49 DUP4 PUSH2 0x3342 JUMP JUMPDEST SWAP2 SWAP1 POP SSTORE POP DUP2 PUSH1 0x8 PUSH1 0x0 DUP3 DUP3 SLOAD PUSH2 0x2A60 SWAP2 SWAP1 PUSH2 0x32F6 JUMP JUMPDEST SWAP1 SWAP2 SSTORE POP POP POP POP JUMP JUMPDEST PUSH1 0x0 DUP1 PUSH3 0x186A0 PUSH1 0x5 SLOAD PUSH1 0x1 PUSH2 0x2A7F SWAP2 SWAP1 PUSH2 0x3059 JUMP JUMPDEST PUSH2 0x2A89 SWAP2 SWAP1 PUSH2 0x30EA JUMP JUMPDEST SWAP1 POP PUSH1 0x64 DUP2 GT ISZERO PUSH2 0x2A9C JUMPI PUSH1 0x0 SWAP2 POP POP SWAP1 JUMP JUMPDEST PUSH2 0x2AA7 DUP2 PUSH1 0x64 PUSH2 0x30FE JUMP JUMPDEST SWAP2 POP POP SWAP1 JUMP JUMPDEST PUSH1 0x0 DUP1 PUSH2 0x2ABE PUSH1 0x5A PUSH3 0x15180 PUSH2 0x3059 JUMP JUMPDEST PUSH2 0x2AE8 PUSH32 0x0 TIMESTAMP PUSH2 0x30FE JUMP JUMPDEST PUSH2 0x2AF2 SWAP2 SWAP1 PUSH2 0x30EA JUMP JUMPDEST SWAP1 POP DUP1 PUSH2 0x2B01 PUSH1 0x2 PUSH1 0x14 PUSH2 0x30FE JUMP JUMPDEST LT ISZERO PUSH2 0x2B0F JUMPI PUSH1 0x2 SWAP2 POP POP SWAP1 JUMP JUMPDEST PUSH2 0x2AA7 DUP2 PUSH1 0x14 PUSH2 0x30FE JUMP JUMPDEST PUSH1 0x0 DUP1 PUSH3 0x15180 PUSH2 0x2B4B PUSH32 0x0 TIMESTAMP PUSH2 0x30FE JUMP JUMPDEST PUSH2 0x2B55 SWAP2 SWAP1 PUSH2 0x30EA JUMP JUMPDEST SWAP1 POP PUSH2 0x12C DUP2 LT ISZERO PUSH2 0x2BEE JUMPI PUSH20 0x0 PUSH4 0x6D5433E6 PUSH2 0x2B87 DUP4 PUSH2 0x12C PUSH2 0x30FE JUMP JUMPDEST PUSH1 0x40 MLOAD PUSH1 0x1 PUSH1 0x1 PUSH1 0xE0 SHL SUB NOT PUSH1 0xE0 DUP5 SWAP1 SHL AND DUP2 MSTORE PUSH1 0x4 DUP2 ADD SWAP2 SWAP1 SWAP2 MSTORE PUSH1 0x1 PUSH1 0x24 DUP3 ADD MSTORE PUSH1 0x44 ADD PUSH1 0x20 PUSH1 0x40 MLOAD DUP1 DUP4 SUB DUP2 DUP7 GAS DELEGATECALL ISZERO DUP1 ISZERO PUSH2 0x2BCA JUMPI RETURNDATASIZE PUSH1 0x0 DUP1 RETURNDATACOPY RETURNDATASIZE PUSH1 0x0 REVERT JUMPDEST POP POP POP POP PUSH1 0x40 MLOAD RETURNDATASIZE PUSH1 0x1F NOT PUSH1 0x1F DUP3 ADD AND DUP3 ADD DUP1 PUSH1 0x40 MSTORE POP DUP2 ADD SWAP1 PUSH2 0x2AA7 SWAP2 SWAP1 PUSH2 0x335B JUMP JUMPDEST PUSH1 0x1 SWAP2 POP POP SWAP1 JUMP JUMPDEST PUSH1 0x0 PUSH8 0x7FFFFFFFFFFFFFFF DUP3 GT ISZERO PUSH2 0x2C0D JUMPI PUSH1 0x0 DUP1 REVERT JUMPDEST POP PUSH1 0x40 SHL SWAP1 JUMP JUMPDEST PUSH1 0x0 DUP1 DUP3 PUSH1 0xF SIGNEXTEND SGT PUSH2 0x2C25 JUMPI PUSH1 0x0 DUP1 REVERT JUMPDEST PUSH1 0x0 PUSH1 0xF DUP4 SWAP1 SIGNEXTEND PUSH9 0x10000000000000000 DUP2 SLT PUSH2 0x2C44 JUMPI PUSH1 0x40 SWAP2 DUP3 ADD SWAP2 SAR JUMPDEST PUSH5 0x100000000 DUP2 SLT PUSH2 0x2C58 JUMPI PUSH1 0x20 SWAP2 DUP3 ADD SWAP2 SAR JUMPDEST PUSH3 0x10000 DUP2 SLT PUSH2 0x2C6A JUMPI PUSH1 0x10 SWAP2 DUP3 ADD SWAP2 SAR JUMPDEST PUSH2 0x100 DUP2 SLT PUSH2 0x2C7B JUMPI PUSH1 0x8 SWAP2 DUP3 ADD SWAP2 SAR JUMPDEST PUSH1 0x10 DUP2 SLT PUSH2 0x2C8B JUMPI PUSH1 0x4 SWAP2 DUP3 ADD SWAP2 SAR JUMPDEST PUSH1 0x4 DUP2 SLT PUSH2 0x2C9B JUMPI PUSH1 0x2 SWAP2 DUP3 ADD SWAP2 SAR JUMPDEST PUSH1 0x2 DUP2 SLT PUSH2 0x2CAA JUMPI PUSH1 0x1 DUP3 ADD SWAP2 POP JUMPDEST PUSH1 0x3F NOT DUP3 ADD PUSH1 0x40 SHL PUSH1 0xF DUP6 SWAP1 SIGNEXTEND PUSH1 0x7F DUP5 SWAP1 SUB SHL PUSH8 0x8000000000000000 JUMPDEST PUSH1 0x0 DUP2 SGT ISZERO PUSH2 0x2CED JUMPI SWAP1 DUP1 MUL PUSH1 0xFF DUP2 SWAP1 SHR DUP3 DUP2 MUL SWAP4 SWAP1 SWAP4 ADD SWAP3 PUSH1 0x7F ADD SHR SWAP1 PUSH1 0x1 SAR PUSH2 0x2CC7 JUMP JUMPDEST POP SWAP1 SWAP6 SWAP5 POP POP POP POP POP JUMP JUMPDEST PUSH1 0x0 PUSH1 0xF DUP4 DUP2 SIGNEXTEND SWAP1 DUP4 SWAP1 SIGNEXTEND MUL PUSH1 0x40 SAR PUSH1 0x1 PUSH1 0x1 PUSH1 0x7F SHL SUB NOT DUP2 SLT DUP1 ISZERO SWAP1 PUSH2 0x2D26 JUMPI POP PUSH1 0x1 PUSH1 0x1 PUSH1 0x7F SHL SUB DUP2 SGT ISZERO JUMPDEST PUSH2 0x2D2F JUMPI PUSH1 0x0 DUP1 REVERT JUMPDEST SWAP4 SWAP3 POP POP POP JUMP JUMPDEST PUSH1 0x0 DUP2 PUSH1 0xF SIGNEXTEND PUSH1 0x0 SUB PUSH2 0x2D48 JUMPI PUSH1 0x0 DUP1 REVERT JUMPDEST PUSH1 0x0 DUP3 PUSH1 0xF SIGNEXTEND PUSH1 0x40 DUP6 PUSH1 0xF SIGNEXTEND SWAP1 SHL DUP2 PUSH2 0x2D63 JUMPI PUSH2 0x2D63 PUSH2 0x30D4 JUMP JUMPDEST SDIV SWAP1 POP PUSH1 0x1 PUSH1 0x1 PUSH1 0x7F SHL SUB NOT DUP2 SLT DUP1 ISZERO SWAP1 PUSH2 0x2D26 JUMPI POP PUSH1 0x1 PUSH1 0x1 PUSH1 0x7F SHL SUB DUP2 SGT ISZERO PUSH2 0x2D2F JUMPI PUSH1 0x0 DUP1 REVERT JUMPDEST PUSH1 0x0 DUP1 DUP3 PUSH1 0xF SIGNEXTEND SLT ISZERO PUSH2 0x2D9F JUMPI PUSH1 0x0 DUP1 REVERT JUMPDEST POP PUSH1 0xF SIGNEXTEND PUSH1 0x40 SAR SWAP1 JUMP JUMPDEST PUSH1 0x0 DUP1 PUSH2 0x2DB9 PUSH3 0x15180 DUP5 PUSH2 0x30EA JUMP JUMPDEST SWAP1 POP PUSH2 0x2DC7 PUSH1 0x1 PUSH1 0x7 PUSH2 0x30FE JUMP JUMPDEST DUP2 GT ISZERO PUSH2 0x2DD7 JUMPI POP PUSH1 0x63 SWAP3 SWAP2 POP POP JUMP JUMPDEST PUSH1 0x0 PUSH1 0x1 PUSH1 0x7 PUSH2 0x2DE8 DUP5 PUSH1 0x3 PUSH2 0x32F6 JUMP JUMPDEST PUSH1 0x1 SWAP1 SHL PUSH2 0x2DF6 SWAP2 SWAP1 PUSH2 0x30EA JUMP JUMPDEST PUSH2 0x2E00 SWAP2 SWAP1 PUSH2 0x30FE JUMP JUMPDEST PUSH1 0x40 MLOAD PUSH4 0x7AE2B5C7 PUSH1 0xE0 SHL DUP2 MSTORE PUSH1 0x4 DUP2 ADD DUP3 SWAP1 MSTORE PUSH1 0x63 PUSH1 0x24 DUP3 ADD MSTORE SWAP1 SWAP2 POP PUSH20 0x0 SWAP1 PUSH4 0x7AE2B5C7 SWAP1 PUSH1 0x44 ADD PUSH1 0x20 PUSH1 0x40 MLOAD DUP1 DUP4 SUB DUP2 DUP7 GAS DELEGATECALL ISZERO DUP1 ISZERO PUSH2 0x2E5A JUMPI RETURNDATASIZE PUSH1 0x0 DUP1 RETURNDATACOPY RETURNDATASIZE PUSH1 0x0 REVERT JUMPDEST POP POP POP POP PUSH1 0x40 MLOAD RETURNDATASIZE PUSH1 0x1F NOT PUSH1 0x1F DUP3 ADD AND DUP3 ADD DUP1 PUSH1 0x40 MSTORE POP DUP2 ADD SWAP1 PUSH2 0x1F83 SWAP2 SWAP1 PUSH2 0x335B JUMP JUMPDEST PUSH1 0x0 PUSH1 0x20 DUP1 DUP4 MSTORE DUP4 MLOAD DUP1 DUP3 DUP6 ADD MSTORE PUSH1 0x0 JUMPDEST DUP2 DUP2 LT ISZERO PUSH2 0x2EAB JUMPI DUP6 DUP2 ADD DUP4 ADD MLOAD DUP6 DUP3 ADD PUSH1 0x40 ADD MSTORE DUP3 ADD PUSH2 0x2E8F JUMP JUMPDEST POP PUSH1 0x0 PUSH1 0x40 DUP3 DUP7 ADD ADD MSTORE PUSH1 0x40 PUSH1 0x1F NOT PUSH1 0x1F DUP4 ADD AND DUP6 ADD ADD SWAP3 POP POP POP SWAP3 SWAP2 POP POP JUMP JUMPDEST DUP1 CALLDATALOAD PUSH1 0x1 PUSH1 0x1 PUSH1 0xA0 SHL SUB DUP2 AND DUP2 EQ PUSH2 0x2EE3 JUMPI PUSH1 0x0 DUP1 REVERT JUMPDEST SWAP2 SWAP1 POP JUMP JUMPDEST PUSH1 0x0 DUP1 PUSH1 0x40 DUP4 DUP6 SUB SLT ISZERO PUSH2 0x2EFB JUMPI PUSH1 0x0 DUP1 REVERT JUMPDEST PUSH2 0x2F04 DUP4 PUSH2 0x2ECC JUMP JUMPDEST SWAP5 PUSH1 0x20 SWAP4 SWAP1 SWAP4 ADD CALLDATALOAD SWAP4 POP POP POP JUMP JUMPDEST PUSH1 0x0 DUP1 PUSH1 0x0 PUSH1 0x60 DUP5 DUP7 SUB SLT ISZERO PUSH2 0x2F27 JUMPI PUSH1 0x0 DUP1 REVERT JUMPDEST PUSH2 0x2F30 DUP5 PUSH2 0x2ECC JUMP JUMPDEST SWAP3 POP PUSH2 0x2F3E PUSH1 0x20 DUP6 ADD PUSH2 0x2ECC JUMP JUMPDEST SWAP2 POP PUSH1 0x40 DUP5 ADD CALLDATALOAD SWAP1 POP SWAP3 POP SWAP3 POP SWAP3 JUMP JUMPDEST PUSH1 0x0 PUSH1 0x20 DUP3 DUP5 SUB SLT ISZERO PUSH2 0x2F60 JUMPI PUSH1 0x0 DUP1 REVERT JUMPDEST PUSH2 0x2D2F DUP3 PUSH2 0x2ECC JUMP JUMPDEST PUSH1 0x0 DUP1 PUSH1 0x40 DUP4 DUP6 SUB SLT ISZERO PUSH2 0x2F7C JUMPI PUSH1 0x0 DUP1 REVERT JUMPDEST POP POP DUP1 CALLDATALOAD SWAP3 PUSH1 0x20 SWAP1 SWAP2 ADD CALLDATALOAD SWAP2 POP JUMP JUMPDEST PUSH1 0x0 PUSH1 0x20 DUP3 DUP5 SUB SLT ISZERO PUSH2 0x2F9D JUMPI PUSH1 0x0 DUP1 REVERT JUMPDEST POP CALLDATALOAD SWAP2 SWAP1 POP JUMP JUMPDEST PUSH1 0x0 DUP1 PUSH1 0x0 DUP1 PUSH1 0x80 DUP6 DUP8 SUB SLT ISZERO PUSH2 0x2FBA JUMPI PUSH1 0x0 DUP1 REVERT JUMPDEST POP POP DUP3 CALLDATALOAD SWAP5 PUSH1 0x20 DUP5 ADD CALLDATALOAD SWAP5 POP PUSH1 0x40 DUP5 ADD CALLDATALOAD SWAP4 PUSH1 0x60 ADD CALLDATALOAD SWAP3 POP SWAP1 POP JUMP JUMPDEST PUSH1 0x0 DUP1 PUSH1 0x40 DUP4 DUP6 SUB SLT ISZERO PUSH2 0x2FE9 JUMPI PUSH1 0x0 DUP1 REVERT JUMPDEST PUSH2 0x2FF2 DUP4 PUSH2 0x2ECC JUMP JUMPDEST SWAP2 POP PUSH2 0x3000 PUSH1 0x20 DUP5 ADD PUSH2 0x2ECC JUMP JUMPDEST SWAP1 POP SWAP3 POP SWAP3 SWAP1 POP JUMP JUMPDEST PUSH1 0x1 DUP2 DUP2 SHR SWAP1 DUP3 AND DUP1 PUSH2 0x301D JUMPI PUSH1 0x7F DUP3 AND SWAP2 POP JUMPDEST PUSH1 0x20 DUP3 LT DUP2 SUB PUSH2 0x303D JUMPI PUSH4 0x4E487B71 PUSH1 0xE0 SHL PUSH1 0x0 MSTORE PUSH1 0x22 PUSH1 0x4 MSTORE PUSH1 0x24 PUSH1 0x0 REVERT JUMPDEST POP SWAP2 SWAP1 POP JUMP JUMPDEST PUSH4 0x4E487B71 PUSH1 0xE0 SHL PUSH1 0x0 MSTORE PUSH1 0x11 PUSH1 0x4 MSTORE PUSH1 0x24 PUSH1 0x0 REVERT JUMPDEST DUP1 DUP3 MUL DUP2 ISZERO DUP3 DUP3 DIV DUP5 EQ OR PUSH2 0x929 JUMPI PUSH2 0x929 PUSH2 0x3043 JUMP JUMPDEST PUSH1 0x20 DUP1 DUP3 MSTORE PUSH1 0x15 SWAP1 DUP3 ADD MSTORE PUSH21 0x4352616E6B3A204E6F206D696E7420657869737473 PUSH1 0x58 SHL PUSH1 0x40 DUP3 ADD MSTORE PUSH1 0x60 ADD SWAP1 JUMP JUMPDEST PUSH1 0x20 DUP1 DUP3 MSTORE DUP2 DUP2 ADD MSTORE PUSH32 0x4352616E6B3A204D696E74206D61747572697479206E6F742072656163686564 PUSH1 0x40 DUP3 ADD MSTORE PUSH1 0x60 ADD SWAP1 JUMP JUMPDEST PUSH4 0x4E487B71 PUSH1 0xE0 SHL PUSH1 0x0 MSTORE PUSH1 0x12 PUSH1 0x4 MSTORE PUSH1 0x24 PUSH1 0x0 REVERT JUMPDEST PUSH1 0x0 DUP3 PUSH2 0x30F9 JUMPI PUSH2 0x30F9 PUSH2 0x30D4 JUMP JUMPDEST POP DIV SWAP1 JUMP JUMPDEST DUP2 DUP2 SUB DUP2 DUP2 GT ISZERO PUSH2 0x929 JUMPI PUSH2 0x929 PUSH2 0x3043 JUMP JUMPDEST PUSH1 0x20 DUP1 DUP3 MSTORE PUSH1 0xC SWAP1 DUP3 ADD MSTORE PUSH12 0x24B73B30B634B2102AB9B2B9 PUSH1 0xA1 SHL PUSH1 0x40 DUP3 ADD MSTORE PUSH1 0x60 ADD SWAP1 JUMP JUMPDEST PUSH1 0x0 DUP3 PUSH2 0x3146 JUMPI PUSH2 0x3146 PUSH2 0x30D4 JUMP JUMPDEST POP MOD SWAP1 JUMP JUMPDEST PUSH1 0x20 DUP1 DUP3 MSTORE PUSH1 0x2A SWAP1 DUP3 ADD MSTORE PUSH32 0x416D6F756E74206D7573742062652061206D756C7469706C65206F6620504F57 PUSH1 0x40 DUP3 ADD MSTORE PUSH10 0x22A92FA822A92FAC22A7 PUSH1 0xB1 SHL PUSH1 0x60 DUP3 ADD MSTORE PUSH1 0x80 ADD SWAP1 JUMP JUMPDEST PUSH1 0x20 DUP1 DUP3 MSTORE PUSH1 0x22 SWAP1 DUP3 ADD MSTORE PUSH32 0x4275726E3A20596F752063616E74206275726E2066726F6D2061646472657373 PUSH1 0x40 DUP3 ADD MSTORE PUSH2 0x203 PUSH1 0xF4 SHL PUSH1 0x60 DUP3 ADD MSTORE PUSH1 0x80 ADD SWAP1 JUMP JUMPDEST PUSH1 0x20 DUP1 DUP3 MSTORE PUSH1 0x15 SWAP1 DUP3 ADD MSTORE PUSH21 0x109D5C9B8E8810995B1BDDC81B5A5B881B1A5B5A5D PUSH1 0x5A SHL PUSH1 0x40 DUP3 ADD MSTORE PUSH1 0x60 ADD SWAP1 JUMP JUMPDEST PUSH1 0x1 DUP2 DUP2 JUMPDEST DUP1 DUP6 GT ISZERO PUSH2 0x3241 JUMPI DUP2 PUSH1 0x0 NOT DIV DUP3 GT ISZERO PUSH2 0x3227 JUMPI PUSH2 0x3227 PUSH2 0x3043 JUMP JUMPDEST DUP1 DUP6 AND ISZERO PUSH2 0x3234 JUMPI SWAP2 DUP2 MUL SWAP2 JUMPDEST SWAP4 DUP5 SHR SWAP4 SWAP1 DUP1 MUL SWAP1 PUSH2 0x320B JUMP JUMPDEST POP SWAP3 POP SWAP3 SWAP1 POP JUMP JUMPDEST PUSH1 0x0 DUP3 PUSH2 0x3258 JUMPI POP PUSH1 0x1 PUSH2 0x929 JUMP JUMPDEST DUP2 PUSH2 0x3265 JUMPI POP PUSH1 0x0 PUSH2 0x929 JUMP JUMPDEST DUP2 PUSH1 0x1 DUP2 EQ PUSH2 0x327B JUMPI PUSH1 0x2 DUP2 EQ PUSH2 0x3285 JUMPI PUSH2 0x32A1 JUMP JUMPDEST PUSH1 0x1 SWAP2 POP POP PUSH2 0x929 JUMP JUMPDEST PUSH1 0xFF DUP5 GT ISZERO PUSH2 0x3296 JUMPI PUSH2 0x3296 PUSH2 0x3043 JUMP JUMPDEST POP POP PUSH1 0x1 DUP3 SHL PUSH2 0x929 JUMP JUMPDEST POP PUSH1 0x20 DUP4 LT PUSH2 0x133 DUP4 LT AND PUSH1 0x4E DUP5 LT PUSH1 0xB DUP5 LT AND OR ISZERO PUSH2 0x32C4 JUMPI POP DUP2 DUP2 EXP PUSH2 0x929 JUMP JUMPDEST PUSH2 0x32CE DUP4 DUP4 PUSH2 0x3206 JUMP JUMPDEST DUP1 PUSH1 0x0 NOT DIV DUP3 GT ISZERO PUSH2 0x32E2 JUMPI PUSH2 0x32E2 PUSH2 0x3043 JUMP JUMPDEST MUL SWAP4 SWAP3 POP POP POP JUMP JUMPDEST PUSH1 0x0 PUSH2 0x2D2F DUP4 DUP4 PUSH2 0x3249 JUMP JUMPDEST DUP1 DUP3 ADD DUP1 DUP3 GT ISZERO PUSH2 0x929 JUMPI PUSH2 0x929 PUSH2 0x3043 JUMP JUMPDEST PUSH1 0x0 DUP2 PUSH2 0x3318 JUMPI PUSH2 0x3318 PUSH2 0x3043 JUMP JUMPDEST POP PUSH1 0x0 NOT ADD SWAP1 JUMP JUMPDEST PUSH1 0x0 PUSH1 0x20 DUP3 DUP5 SUB SLT ISZERO PUSH2 0x3332 JUMPI PUSH1 0x0 DUP1 REVERT JUMPDEST DUP2 MLOAD DUP1 ISZERO ISZERO DUP2 EQ PUSH2 0x2D2F JUMPI PUSH1 0x0 DUP1 REVERT JUMPDEST PUSH1 0x0 PUSH1 0x1 DUP3 ADD PUSH2 0x3354 JUMPI PUSH2 0x3354 PUSH2 0x3043 JUMP JUMPDEST POP PUSH1 0x1 ADD SWAP1 JUMP JUMPDEST PUSH1 0x0 PUSH1 0x20 DUP3 DUP5 SUB SLT ISZERO PUSH2 0x336D JUMPI PUSH1 0x0 DUP1 REVERT JUMPDEST POP MLOAD SWAP2 SWAP1 POP JUMP INVALID POP PUSH6 0x7073204C6162 KECCAK256 BLOCKHASH 0x4D PUSH19 0x4A61636B4C6576696E20406C62656C79616576 KECCAK256 PUSH7 0x61697263727970 PUSH21 0x6F2E6F7267A2646970667358221220CF948A307773 DUP4 PUSH22 0xA850007E4F5F7F7F59E1CF019552F9D9C317521C233B PUSH28 0x2764736F6C6343000812003300000000000000000000000000000000 "
		},
		"gasEstimates": {
			"creation": {
				"codeDepositCost": "2654400",
				"executionCost": "infinite",
				"totalCost": "infinite"
			},
			"external": {
				"AUTHORS()": "infinite",
				"DAYS_IN_YEAR()": "254",
				"EAA_PM_START()": "296",
				"EAA_PM_STEP()": "296",
				"EAA_RANK_STEP()": "294",
				"GENESIS_RANK()": "252",
				"GetPower(address,uint256)": "infinite",
				"GetPowerandShare(address,address,uint256)": "infinite",
				"MAX_PENALTY_PCT()": "297",
				"MAX_TERM_END()": "418",
				"MAX_TERM_START()": "375",
				"MIN_TERM()": "infinite",
				"POWER_PER_XEN()": "250",
				"REWARD_AMPLIFIER_END()": "252",
				"REWARD_AMPLIFIER_START()": "295",
				"SECONDS_IN_DAY()": "318",
				"SacrifyPower(address,uint256)": "infinite",
				"SendPower(address,address,uint256)": "infinite",
				"TERM_AMPLIFIER()": "317",
				"TERM_AMPLIFIER_THRESHOLD()": "317",
				"WITHDRAWAL_WINDOW_DAYS()": "251",
				"XEN_APY_DAYS_STEP()": "297",
				"XEN_APY_END()": "275",
				"XEN_APY_START()": "316",
				"XEN_MIN_BURN()": "319",
				"XEN_MIN_STAKE()": "296",
				"activeMinters()": "2352",
				"activeStakes()": "2417",
				"allowance(address,address)": "infinite",
				"approve(address,uint256)": "24675",
				"balanceOf(address)": "2640",
				"burn(address,uint256)": "infinite",
				"claimMintReward()": "infinite",
				"claimMintRewardAndShare(address,uint256)": "infinite",
				"claimMintRewardAndStake(uint256,uint256)": "infinite",
				"claimRank(uint256)": "infinite",
				"decimals()": "246",
				"decreaseAllowance(address,uint256)": "27018",
				"genesisTs()": "infinite",
				"getCurrentAMP()": "infinite",
				"getCurrentAPY()": "infinite",
				"getCurrentEAAR()": "infinite",
				"getCurrentMaxTerm()": "infinite",
				"getGrossReward(uint256,uint256,uint256,uint256)": "infinite",
				"getUserMint()": "13520",
				"getUserStake()": "9102",
				"globalRank()": "2397",
				"increaseAllowance(address,uint256)": "infinite",
				"name()": "infinite",
				"owner()": "2405",
				"powerBalances(address)": "2642",
				"powerSacrify(address)": "2575",
				"stake(uint256,uint256)": "infinite",
				"symbol()": "infinite",
				"totalSupply()": "2372",
				"totalXenStaked()": "2376",
				"transfer(address,uint256)": "infinite",
				"transferFrom(address,address,uint256)": "infinite",
				"userBurns(address)": "2597",
				"userMints(address)": "13299",
				"userStakes(address)": "9011",
				"withdraw()": "infinite"
			},
			"internal": {
				"_calculateAPY()": "infinite",
				"_calculateEAARate()": "infinite",
				"_calculateMaxTerm()": "infinite",
				"_calculateMintReward(uint256,uint256,uint256,uint256,uint256)": "infinite",
				"_calculateRewardAmplifier()": "infinite",
				"_calculateStakeReward(uint256,uint256,uint256,uint256)": "infinite",
				"_cleanUpUserMint()": "73665",
				"_createStake(uint256,uint256)": "infinite",
				"_penalty(uint256)": "infinite"
			}
		},
		"methodIdentifiers": {
			"AUTHORS()": "ba3ec741",
			"DAYS_IN_YEAR()": "02378932",
			"EAA_PM_START()": "909a2ff6",
			"EAA_PM_STEP()": "bcfe394f",
			"EAA_RANK_STEP()": "f340faed",
			"GENESIS_RANK()": "1c6f212e",
			"GetPower(address,uint256)": "31b9e85d",
			"GetPowerandShare(address,address,uint256)": "310caf2d",
			"MAX_PENALTY_PCT()": "0f2e1228",
			"MAX_TERM_END()": "c0c65259",
			"MAX_TERM_START()": "0bfae56b",
			"MIN_TERM()": "f0604829",
			"POWER_PER_XEN()": "f029093e",
			"REWARD_AMPLIFIER_END()": "543d3652",
			"REWARD_AMPLIFIER_START()": "e81917b4",
			"SECONDS_IN_DAY()": "61a52a36",
			"SacrifyPower(address,uint256)": "d3fe4689",
			"SendPower(address,address,uint256)": "583b912c",
			"TERM_AMPLIFIER()": "72475f94",
			"TERM_AMPLIFIER_THRESHOLD()": "b21d35f2",
			"WITHDRAWAL_WINDOW_DAYS()": "c56f0bab",
			"XEN_APY_DAYS_STEP()": "32870fda",
			"XEN_APY_END()": "7e7aa62e",
			"XEN_APY_START()": "fed74269",
			"XEN_MIN_BURN()": "110d7fc2",
			"XEN_MIN_STAKE()": "2a62d966",
			"activeMinters()": "b4800cdc",
			"activeStakes()": "ed2f2369",
			"allowance(address,address)": "dd62ed3e",
			"approve(address,uint256)": "095ea7b3",
			"balanceOf(address)": "70a08231",
			"burn(address,uint256)": "9dc29fac",
			"claimMintReward()": "52c7f8dc",
			"claimMintRewardAndShare(address,uint256)": "1c560305",
			"claimMintRewardAndStake(uint256,uint256)": "5bccb4c4",
			"claimRank(uint256)": "9ff054df",
			"decimals()": "313ce567",
			"decreaseAllowance(address,uint256)": "a457c2d7",
			"genesisTs()": "e3af6d0a",
			"getCurrentAMP()": "99202454",
			"getCurrentAPY()": "962ca496",
			"getCurrentEAAR()": "8979c87c",
			"getCurrentMaxTerm()": "45125715",
			"getGrossReward(uint256,uint256,uint256,uint256)": "b0fd1fc2",
			"getUserMint()": "7010d7a1",
			"getUserStake()": "16f9c8fd",
			"globalRank()": "1c244082",
			"increaseAllowance(address,uint256)": "39509351",
			"name()": "06fdde03",
			"owner()": "8da5cb5b",
			"powerBalances(address)": "539313b8",
			"powerSacrify(address)": "6a5e0766",
			"stake(uint256,uint256)": "7b0472f0",
			"symbol()": "95d89b41",
			"totalSupply()": "18160ddd",
			"totalXenStaked()": "069612a5",
			"transfer(address,uint256)": "a9059cbb",
			"transferFrom(address,address,uint256)": "23b872dd",
			"userBurns(address)": "ce653d5f",
			"userMints(address)": "df282331",
			"userStakes(address)": "8da7ad23",
			"withdraw()": "3ccfd60b"
		}
	},
	"abi": [
		{
			"inputs": [],
			"stateMutability": "nonpayable",
			"type": "constructor"
		},
		{
			"anonymous": false,
			"inputs": [
				{
					"indexed": true,
					"internalType": "address",
					"name": "owner",
					"type": "address"
				},
				{
					"indexed": true,
					"internalType": "address",
					"name": "spender",
					"type": "address"
				},
				{
					"indexed": false,
					"internalType": "uint256",
					"name": "value",
					"type": "uint256"
				}
			],
			"name": "Approval",
			"type": "event"
		},
		{
			"anonymous": false,
			"inputs": [
				{
					"indexed": true,
					"internalType": "address",
					"name": "user",
					"type": "address"
				},
				{
					"indexed": false,
					"internalType": "uint256",
					"name": "rewardAmount",
					"type": "uint256"
				}
			],
			"name": "MintClaimed",
			"type": "event"
		},
		{
			"anonymous": false,
			"inputs": [
				{
					"indexed": true,
					"internalType": "address",
					"name": "user",
					"type": "address"
				},
				{
					"indexed": false,
					"internalType": "uint256",
					"name": "term",
					"type": "uint256"
				},
				{
					"indexed": false,
					"internalType": "uint256",
					"name": "rank",
					"type": "uint256"
				}
			],
			"name": "RankClaimed",
			"type": "event"
		},
		{
			"anonymous": false,
			"inputs": [
				{
					"indexed": true,
					"internalType": "address",
					"name": "user",
					"type": "address"
				},
				{
					"indexed": false,
					"internalType": "uint256",
					"name": "amount",
					"type": "uint256"
				},
				{
					"indexed": false,
					"internalType": "uint256",
					"name": "term",
					"type": "uint256"
				}
			],
			"name": "Staked",
			"type": "event"
		},
		{
			"anonymous": false,
			"inputs": [
				{
					"indexed": true,
					"internalType": "address",
					"name": "from",
					"type": "address"
				},
				{
					"indexed": true,
					"internalType": "address",
					"name": "to",
					"type": "address"
				},
				{
					"indexed": false,
					"internalType": "uint256",
					"name": "value",
					"type": "uint256"
				}
			],
			"name": "Transfer",
			"type": "event"
		},
		{
			"anonymous": false,
			"inputs": [
				{
					"indexed": true,
					"internalType": "address",
					"name": "user",
					"type": "address"
				},
				{
					"indexed": false,
					"internalType": "uint256",
					"name": "amount",
					"type": "uint256"
				},
				{
					"indexed": false,
					"internalType": "uint256",
					"name": "reward",
					"type": "uint256"
				}
			],
			"name": "Withdrawn",
			"type": "event"
		},
		{
			"inputs": [],
			"name": "AUTHORS",
			"outputs": [
				{
					"internalType": "string",
					"name": "",
					"type": "string"
				}
			],
			"stateMutability": "view",
			"type": "function"
		},
		{
			"inputs": [],
			"name": "DAYS_IN_YEAR",
			"outputs": [
				{
					"internalType": "uint256",
					"name": "",
					"type": "uint256"
				}
			],
			"stateMutability": "view",
			"type": "function"
		},
		{
			"inputs": [],
			"name": "EAA_PM_START",
			"outputs": [
				{
					"internalType": "uint256",
					"name": "",
					"type": "uint256"
				}
			],
			"stateMutability": "view",
			"type": "function"
		},
		{
			"inputs": [],
			"name": "EAA_PM_STEP",
			"outputs": [
				{
					"internalType": "uint256",
					"name": "",
					"type": "uint256"
				}
			],
			"stateMutability": "view",
			"type": "function"
		},
		{
			"inputs": [],
			"name": "EAA_RANK_STEP",
			"outputs": [
				{
					"internalType": "uint256",
					"name": "",
					"type": "uint256"
				}
			],
			"stateMutability": "view",
			"type": "function"
		},
		{
			"inputs": [],
			"name": "GENESIS_RANK",
			"outputs": [
				{
					"internalType": "uint256",
					"name": "",
					"type": "uint256"
				}
			],
			"stateMutability": "view",
			"type": "function"
		},
		{
			"inputs": [
				{
					"internalType": "address",
					"name": "user",
					"type": "address"
				},
				{
					"internalType": "uint256",
					"name": "amount",
					"type": "uint256"
				}
			],
			"name": "GetPower",
			"outputs": [],
			"stateMutability": "nonpayable",
			"type": "function"
		},
		{
			"inputs": [
				{
					"internalType": "address",
					"name": "user",
					"type": "address"
				},
				{
					"internalType": "address",
					"name": "share",
					"type": "address"
				},
				{
					"internalType": "uint256",
					"name": "amount",
					"type": "uint256"
				}
			],
			"name": "GetPowerandShare",
			"outputs": [],
			"stateMutability": "nonpayable",
			"type": "function"
		},
		{
			"inputs": [],
			"name": "MAX_PENALTY_PCT",
			"outputs": [
				{
					"internalType": "uint256",
					"name": "",
					"type": "uint256"
				}
			],
			"stateMutability": "view",
			"type": "function"
		},
		{
			"inputs": [],
			"name": "MAX_TERM_END",
			"outputs": [
				{
					"internalType": "uint256",
					"name": "",
					"type": "uint256"
				}
			],
			"stateMutability": "view",
			"type": "function"
		},
		{
			"inputs": [],
			"name": "MAX_TERM_START",
			"outputs": [
				{
					"internalType": "uint256",
					"name": "",
					"type": "uint256"
				}
			],
			"stateMutability": "view",
			"type": "function"
		},
		{
			"inputs": [],
			"name": "MIN_TERM",
			"outputs": [
				{
					"internalType": "uint256",
					"name": "",
					"type": "uint256"
				}
			],
			"stateMutability": "view",
			"type": "function"
		},
		{
			"inputs": [],
			"name": "POWER_PER_XEN",
			"outputs": [
				{
					"internalType": "uint256",
					"name": "",
					"type": "uint256"
				}
			],
			"stateMutability": "view",
			"type": "function"
		},
		{
			"inputs": [],
			"name": "REWARD_AMPLIFIER_END",
			"outputs": [
				{
					"internalType": "uint256",
					"name": "",
					"type": "uint256"
				}
			],
			"stateMutability": "view",
			"type": "function"
		},
		{
			"inputs": [],
			"name": "REWARD_AMPLIFIER_START",
			"outputs": [
				{
					"internalType": "uint256",
					"name": "",
					"type": "uint256"
				}
			],
			"stateMutability": "view",
			"type": "function"
		},
		{
			"inputs": [],
			"name": "SECONDS_IN_DAY",
			"outputs": [
				{
					"internalType": "uint256",
					"name": "",
					"type": "uint256"
				}
			],
			"stateMutability": "view",
			"type": "function"
		},
		{
			"inputs": [
				{
					"internalType": "address",
					"name": "user",
					"type": "address"
				},
				{
					"internalType": "uint256",
					"name": "power",
					"type": "uint256"
				}
			],
			"name": "SacrifyPower",
			"outputs": [],
			"stateMutability": "nonpayable",
			"type": "function"
		},
		{
			"inputs": [
				{
					"internalType": "address",
					"name": "user",
					"type": "address"
				},
				{
					"internalType": "address",
					"name": "share",
					"type": "address"
				},
				{
					"internalType": "uint256",
					"name": "power",
					"type": "uint256"
				}
			],
			"name": "SendPower",
			"outputs": [],
			"stateMutability": "nonpayable",
			"type": "function"
		},
		{
			"inputs": [],
			"name": "TERM_AMPLIFIER",
			"outputs": [
				{
					"internalType": "uint256",
					"name": "",
					"type": "uint256"
				}
			],
			"stateMutability": "view",
			"type": "function"
		},
		{
			"inputs": [],
			"name": "TERM_AMPLIFIER_THRESHOLD",
			"outputs": [
				{
					"internalType": "uint256",
					"name": "",
					"type": "uint256"
				}
			],
			"stateMutability": "view",
			"type": "function"
		},
		{
			"inputs": [],
			"name": "WITHDRAWAL_WINDOW_DAYS",
			"outputs": [
				{
					"internalType": "uint256",
					"name": "",
					"type": "uint256"
				}
			],
			"stateMutability": "view",
			"type": "function"
		},
		{
			"inputs": [],
			"name": "XEN_APY_DAYS_STEP",
			"outputs": [
				{
					"internalType": "uint256",
					"name": "",
					"type": "uint256"
				}
			],
			"stateMutability": "view",
			"type": "function"
		},
		{
			"inputs": [],
			"name": "XEN_APY_END",
			"outputs": [
				{
					"internalType": "uint256",
					"name": "",
					"type": "uint256"
				}
			],
			"stateMutability": "view",
			"type": "function"
		},
		{
			"inputs": [],
			"name": "XEN_APY_START",
			"outputs": [
				{
					"internalType": "uint256",
					"name": "",
					"type": "uint256"
				}
			],
			"stateMutability": "view",
			"type": "function"
		},
		{
			"inputs": [],
			"name": "XEN_MIN_BURN",
			"outputs": [
				{
					"internalType": "uint256",
					"name": "",
					"type": "uint256"
				}
			],
			"stateMutability": "view",
			"type": "function"
		},
		{
			"inputs": [],
			"name": "XEN_MIN_STAKE",
			"outputs": [
				{
					"internalType": "uint256",
					"name": "",
					"type": "uint256"
				}
			],
			"stateMutability": "view",
			"type": "function"
		},
		{
			"inputs": [],
			"name": "activeMinters",
			"outputs": [
				{
					"internalType": "uint256",
					"name": "",
					"type": "uint256"
				}
			],
			"stateMutability": "view",
			"type": "function"
		},
		{
			"inputs": [],
			"name": "activeStakes",
			"outputs": [
				{
					"internalType": "uint256",
					"name": "",
					"type": "uint256"
				}
			],
			"stateMutability": "view",
			"type": "function"
		},
		{
			"inputs": [
				{
					"internalType": "address",
					"name": "owner",
					"type": "address"
				},
				{
					"internalType": "address",
					"name": "spender",
					"type": "address"
				}
			],
			"name": "allowance",
			"outputs": [
				{
					"internalType": "uint256",
					"name": "",
					"type": "uint256"
				}
			],
			"stateMutability": "view",
			"type": "function"
		},
		{
			"inputs": [
				{
					"internalType": "address",
					"name": "spender",
					"type": "address"
				},
				{
					"internalType": "uint256",
					"name": "amount",
					"type": "uint256"
				}
			],
			"name": "approve",
			"outputs": [
				{
					"internalType": "bool",
					"name": "",
					"type": "bool"
				}
			],
			"stateMutability": "nonpayable",
			"type": "function"
		},
		{
			"inputs": [
				{
					"internalType": "address",
					"name": "account",
					"type": "address"
				}
			],
			"name": "balanceOf",
			"outputs": [
				{
					"internalType": "uint256",
					"name": "",
					"type": "uint256"
				}
			],
			"stateMutability": "view",
			"type": "function"
		},
		{
			"inputs": [
				{
					"internalType": "address",
					"name": "user",
					"type": "address"
				},
				{
					"internalType": "uint256",
					"name": "amount",
					"type": "uint256"
				}
			],
			"name": "burn",
			"outputs": [],
			"stateMutability": "nonpayable",
			"type": "function"
		},
		{
			"inputs": [],
			"name": "claimMintReward",
			"outputs": [],
			"stateMutability": "nonpayable",
			"type": "function"
		},
		{
			"inputs": [
				{
					"internalType": "address",
					"name": "other",
					"type": "address"
				},
				{
					"internalType": "uint256",
					"name": "pct",
					"type": "uint256"
				}
			],
			"name": "claimMintRewardAndShare",
			"outputs": [],
			"stateMutability": "nonpayable",
			"type": "function"
		},
		{
			"inputs": [
				{
					"internalType": "uint256",
					"name": "pct",
					"type": "uint256"
				},
				{
					"internalType": "uint256",
					"name": "term",
					"type": "uint256"
				}
			],
			"name": "claimMintRewardAndStake",
			"outputs": [],
			"stateMutability": "nonpayable",
			"type": "function"
		},
		{
			"inputs": [
				{
					"internalType": "uint256",
					"name": "term",
					"type": "uint256"
				}
			],
			"name": "claimRank",
			"outputs": [],
			"stateMutability": "nonpayable",
			"type": "function"
		},
		{
			"inputs": [],
			"name": "decimals",
			"outputs": [
				{
					"internalType": "uint8",
					"name": "",
					"type": "uint8"
				}
			],
			"stateMutability": "view",
			"type": "function"
		},
		{
			"inputs": [
				{
					"internalType": "address",
					"name": "spender",
					"type": "address"
				},
				{
					"internalType": "uint256",
					"name": "subtractedValue",
					"type": "uint256"
				}
			],
			"name": "decreaseAllowance",
			"outputs": [
				{
					"internalType": "bool",
					"name": "",
					"type": "bool"
				}
			],
			"stateMutability": "nonpayable",
			"type": "function"
		},
		{
			"inputs": [],
			"name": "genesisTs",
			"outputs": [
				{
					"internalType": "uint256",
					"name": "",
					"type": "uint256"
				}
			],
			"stateMutability": "view",
			"type": "function"
		},
		{
			"inputs": [],
			"name": "getCurrentAMP",
			"outputs": [
				{
					"internalType": "uint256",
					"name": "",
					"type": "uint256"
				}
			],
			"stateMutability": "view",
			"type": "function"
		},
		{
			"inputs": [],
			"name": "getCurrentAPY",
			"outputs": [
				{
					"internalType": "uint256",
					"name": "",
					"type": "uint256"
				}
			],
			"stateMutability": "view",
			"type": "function"
		},
		{
			"inputs": [],
			"name": "getCurrentEAAR",
			"outputs": [
				{
					"internalType": "uint256",
					"name": "",
					"type": "uint256"
				}
			],
			"stateMutability": "view",
			"type": "function"
		},
		{
			"inputs": [],
			"name": "getCurrentMaxTerm",
			"outputs": [
				{
					"internalType": "uint256",
					"name": "",
					"type": "uint256"
				}
			],
			"stateMutability": "view",
			"type": "function"
		},
		{
			"inputs": [
				{
					"internalType": "uint256",
					"name": "rankDelta",
					"type": "uint256"
				},
				{
					"internalType": "uint256",
					"name": "amplifier",
					"type": "uint256"
				},
				{
					"internalType": "uint256",
					"name": "term",
					"type": "uint256"
				},
				{
					"internalType": "uint256",
					"name": "eaa",
					"type": "uint256"
				}
			],
			"name": "getGrossReward",
			"outputs": [
				{
					"internalType": "uint256",
					"name": "",
					"type": "uint256"
				}
			],
			"stateMutability": "pure",
			"type": "function"
		},
		{
			"inputs": [],
			"name": "getUserMint",
			"outputs": [
				{
					"components": [
						{
							"internalType": "address",
							"name": "user",
							"type": "address"
						},
						{
							"internalType": "uint256",
							"name": "term",
							"type": "uint256"
						},
						{
							"internalType": "uint256",
							"name": "maturityTs",
							"type": "uint256"
						},
						{
							"internalType": "uint256",
							"name": "rank",
							"type": "uint256"
						},
						{
							"internalType": "uint256",
							"name": "amplifier",
							"type": "uint256"
						},
						{
							"internalType": "uint256",
							"name": "eaaRate",
							"type": "uint256"
						}
					],
					"internalType": "struct TEXLACrypto.MintInfo",
					"name": "",
					"type": "tuple"
				}
			],
			"stateMutability": "view",
			"type": "function"
		},
		{
			"inputs": [],
			"name": "getUserStake",
			"outputs": [
				{
					"components": [
						{
							"internalType": "uint256",
							"name": "term",
							"type": "uint256"
						},
						{
							"internalType": "uint256",
							"name": "maturityTs",
							"type": "uint256"
						},
						{
							"internalType": "uint256",
							"name": "amount",
							"type": "uint256"
						},
						{
							"internalType": "uint256",
							"name": "apy",
							"type": "uint256"
						}
					],
					"internalType": "struct TEXLACrypto.StakeInfo",
					"name": "",
					"type": "tuple"
				}
			],
			"stateMutability": "view",
			"type": "function"
		},
		{
			"inputs": [],
			"name": "globalRank",
			"outputs": [
				{
					"internalType": "uint256",
					"name": "",
					"type": "uint256"
				}
			],
			"stateMutability": "view",
			"type": "function"
		},
		{
			"inputs": [
				{
					"internalType": "address",
					"name": "spender",
					"type": "address"
				},
				{
					"internalType": "uint256",
					"name": "addedValue",
					"type": "uint256"
				}
			],
			"name": "increaseAllowance",
			"outputs": [
				{
					"internalType": "bool",
					"name": "",
					"type": "bool"
				}
			],
			"stateMutability": "nonpayable",
			"type": "function"
		},
		{
			"inputs": [],
			"name": "name",
			"outputs": [
				{
					"internalType": "string",
					"name": "",
					"type": "string"
				}
			],
			"stateMutability": "view",
			"type": "function"
		},
		{
			"inputs": [],
			"name": "owner",
			"outputs": [
				{
					"internalType": "address",
					"name": "",
					"type": "address"
				}
			],
			"stateMutability": "view",
			"type": "function"
		},
		{
			"inputs": [
				{
					"internalType": "address",
					"name": "",
					"type": "address"
				}
			],
			"name": "powerBalances",
			"outputs": [
				{
					"internalType": "uint256",
					"name": "",
					"type": "uint256"
				}
			],
			"stateMutability": "view",
			"type": "function"
		},
		{
			"inputs": [
				{
					"internalType": "address",
					"name": "",
					"type": "address"
				}
			],
			"name": "powerSacrify",
			"outputs": [
				{
					"internalType": "uint256",
					"name": "",
					"type": "uint256"
				}
			],
			"stateMutability": "view",
			"type": "function"
		},
		{
			"inputs": [
				{
					"internalType": "uint256",
					"name": "amount",
					"type": "uint256"
				},
				{
					"internalType": "uint256",
					"name": "term",
					"type": "uint256"
				}
			],
			"name": "stake",
			"outputs": [],
			"stateMutability": "nonpayable",
			"type": "function"
		},
		{
			"inputs": [],
			"name": "symbol",
			"outputs": [
				{
					"internalType": "string",
					"name": "",
					"type": "string"
				}
			],
			"stateMutability": "view",
			"type": "function"
		},
		{
			"inputs": [],
			"name": "totalSupply",
			"outputs": [
				{
					"internalType": "uint256",
					"name": "",
					"type": "uint256"
				}
			],
			"stateMutability": "view",
			"type": "function"
		},
		{
			"inputs": [],
			"name": "totalXenStaked",
			"outputs": [
				{
					"internalType": "uint256",
					"name": "",
					"type": "uint256"
				}
			],
			"stateMutability": "view",
			"type": "function"
		},
		{
			"inputs": [
				{
					"internalType": "address",
					"name": "to",
					"type": "address"
				},
				{
					"internalType": "uint256",
					"name": "amount",
					"type": "uint256"
				}
			],
			"name": "transfer",
			"outputs": [
				{
					"internalType": "bool",
					"name": "",
					"type": "bool"
				}
			],
			"stateMutability": "nonpayable",
			"type": "function"
		},
		{
			"inputs": [
				{
					"internalType": "address",
					"name": "from",
					"type": "address"
				},
				{
					"internalType": "address",
					"name": "to",
					"type": "address"
				},
				{
					"internalType": "uint256",
					"name": "amount",
					"type": "uint256"
				}
			],
			"name": "transferFrom",
			"outputs": [
				{
					"internalType": "bool",
					"name": "",
					"type": "bool"
				}
			],
			"stateMutability": "nonpayable",
			"type": "function"
		},
		{
			"inputs": [
				{
					"internalType": "address",
					"name": "",
					"type": "address"
				}
			],
			"name": "userBurns",
			"outputs": [
				{
					"internalType": "uint256",
					"name": "",
					"type": "uint256"
				}
			],
			"stateMutability": "view",
			"type": "function"
		},
		{
			"inputs": [
				{
					"internalType": "address",
					"name": "",
					"type": "address"
				}
			],
			"name": "userMints",
			"outputs": [
				{
					"internalType": "address",
					"name": "user",
					"type": "address"
				},
				{
					"internalType": "uint256",
					"name": "term",
					"type": "uint256"
				},
				{
					"internalType": "uint256",
					"name": "maturityTs",
					"type": "uint256"
				},
				{
					"internalType": "uint256",
					"name": "rank",
					"type": "uint256"
				},
				{
					"internalType": "uint256",
					"name": "amplifier",
					"type": "uint256"
				},
				{
					"internalType": "uint256",
					"name": "eaaRate",
					"type": "uint256"
				}
			],
			"stateMutability": "view",
			"type": "function"
		},
		{
			"inputs": [
				{
					"internalType": "address",
					"name": "",
					"type": "address"
				}
			],
			"name": "userStakes",
			"outputs": [
				{
					"internalType": "uint256",
					"name": "term",
					"type": "uint256"
				},
				{
					"internalType": "uint256",
					"name": "maturityTs",
					"type": "uint256"
				},
				{
					"internalType": "uint256",
					"name": "amount",
					"type": "uint256"
				},
				{
					"internalType": "uint256",
					"name": "apy",
					"type": "uint256"
				}
			],
			"stateMutability": "view",
			"type": "function"
		},
		{
			"inputs": [],
			"name": "withdraw",
			"outputs": [],
			"stateMutability": "nonpayable",
			"type": "function"
		}
	]
}