{
	"data": {
		"bytecode": {
			"linkReferences": {
				"XENEVFTorrent/Metadata.sol": {
					"Metadata": [
						{
							"length": 20,
							"start": 8135
						},
						{
							"length": 20,
							"start": 8274
						}
					]
				},
				"XENEVFTorrent/MintInfo.sol": {
					"MintInfo": [
						{
							"length": 20,
							"start": 6325
						},
						{
							"length": 20,
							"start": 9543
						},
						{
							"length": 20,
							"start": 14529
						},
						{
							"length": 20,
							"start": 14897
						}
					]
				}
			},
			"object": "6101406040526127116007553480156200001857600080fd5b5060405162004983380380620049838339810160408190526200003b9162000598565b604080518082018252600d81526c161153915588151bdc9c995b9d609a1b6020808301919091528251808401909352600683526516115391559560d21b90830152908373d7a62e4b044243fb49d9d71fbd4db46eaeb572dd60016daaeb6d7670e522a718067333cd4e3b15620001da5780156200012857604051633e9f1edf60e11b81523060048201526001600160a01b03831660248201526daaeb6d7670e522a718067333cd4e90637d3e3dbe906044015b600060405180830381600087803b1580156200010957600080fd5b505af11580156200011e573d6000803e3d6000fd5b50505050620001da565b6001600160a01b03821615620001795760405163a0af290360e01b81523060048201526001600160a01b03831660248201526daaeb6d7670e522a718067333cd4e9063a0af290390604401620000ee565b604051632210724360e11b81523060048201526daaeb6d7670e522a718067333cd4e90634420e48690602401600060405180830381600087803b158015620001c057600080fd5b505af1158015620001d5573d6000803e3d6000fd5b505050505b5050600080546001600160a01b0319166001600160a01b039290921691909117905560016200020a8382620006d2565b506002620002198282620006d2565b5050506001600160a01b038616620002665760405162461bcd60e51b815260206004820152600b60248201526a626164206164647265737360a81b60448201526064015b60405180910390fd5b8351855114801562000279575060008551115b620002b95760405162461bcd60e51b815260206004820152600f60248201526e0e0c2e4c2dae640dad2e6dac2e8c6d608b1b60448201526064016200025d565b600019600e553060e05233610100526001600160a01b03811615620002df5780620002e1565b335b6001600160a01b039081166101205260c08490524260a05286166080528451620003139060089060208801906200045a565b508351620003299060099060208701906200045a565b5083516001600160401b03811115620003465762000346620004de565b60405190808252806020026020018201604052801562000370578160200160208202803683370190505b5080516200038791600a916020909101906200045a565b5060025b6008546200039c90600190620007b4565b81101562000416576009620003b3826001620007d0565b81548110620003c657620003c6620007e6565b90600052602060002001546001620003df9190620007d0565b600a8281548110620003f557620003f5620007e6565b600091825260209091200155806200040d81620007fc565b9150506200038b565b50600854600190600a906200042d908390620007b4565b81548110620004405762000440620007e6565b906000526020600020018190555050505050505062000818565b82805482825590600052602060002090810192821562000498579160200282015b82811115620004985782518255916020019190600101906200047b565b50620004a6929150620004aa565b5090565b5b80821115620004a65760008155600101620004ab565b80516001600160a01b0381168114620004d957600080fd5b919050565b634e487b7160e01b600052604160045260246000fd5b600082601f8301126200050657600080fd5b815160206001600160401b0380831115620005255762000525620004de565b8260051b604051601f19603f830116810181811084821117156200054d576200054d620004de565b6040529384528581018301938381019250878511156200056c57600080fd5b83870191505b848210156200058d5781518352918301919083019062000572565b979650505050505050565b60008060008060008060c08789031215620005b257600080fd5b620005bd87620004c1565b60208801519096506001600160401b0380821115620005db57600080fd5b620005e98a838b01620004f4565b965060408901519150808211156200060057600080fd5b506200060f89828a01620004f4565b945050606087015192506200062760808801620004c1565b91506200063760a08801620004c1565b90509295509295509295565b600181811c908216806200065857607f821691505b6020821081036200067957634e487b7160e01b600052602260045260246000fd5b50919050565b601f821115620006cd57600081815260208120601f850160051c81016020861015620006a85750805b601f850160051c820191505b81811015620006c957828155600101620006b4565b5050505b505050565b81516001600160401b03811115620006ee57620006ee620004de565b6200070681620006ff845462000643565b846200067f565b602080601f8311600181146200073e5760008415620007255750858301515b600019600386901b1c1916600185901b178555620006c9565b600085815260208120601f198616915b828110156200076f578886015182559484019460019091019084016200074e565b50858210156200078e5787850151600019600388901b60f8161c191681555b5050505050600190811b01905550565b634e487b7160e01b600052601160045260246000fd5b81810381811115620007ca57620007ca6200079e565b92915050565b80820180821115620007ca57620007ca6200079e565b634e487b7160e01b600052603260045260246000fd5b6000600182016200081157620008116200079e565b5060010190565b60805160a05160c05160e05161010051610120516140b2620008d160003960006109bc0152600081816104e9015261106f01526000818161069301526118540152600081816103db01528181610a280152818161127f015281816119450152611af90152600081816105ef015261232e01526000818161049f0152818161074f01528181610bf201528181610cde01528181610dff01528181610ecf015281816116c4015281816119150152612f7901526140b26000f3fe608060405234801561001057600080fd5b506004361061027f5760003560e01c806370a082311161015c578063a22cb465116100ce578063df0030ef11610087578063df0030ef146105d7578063e3af6d0a146105ea578063e985e9c514610611578063ecef92011461064d578063ee8743d714610660578063f5878b9b1461067557600080fd5b8063a22cb46514610563578063b88d4fde14610576578063ba3ec74114610589578063bd33303314610591578063c87b56dd146105b1578063d0d5f5b4146105c457600080fd5b8063928dd2a711610120578063928dd2a71461050d57806395d89b411461051557806398bdf6f51461051d5780639dc29fac14610526578063a126ad1e14610539578063a1a53fa11461054357600080fd5b806370a082311461048757806371141a581461049a57806374a1dff2146104c157806389776eb0146104d45780638da5cb5b146104e757600080fd5b806342842e0e116101f5578063543746b1116101b9578063543746b11461041957806355ee08ba1461042c578063572b6c05146104345780635c41d2fe146104565780636352211e14610469578063700107af1461047c57600080fd5b806342842e0e146103a3578063443aa533146103b6578063498a4c2d146103d65780634d4b2be4146103fd57806353b18de41461040657600080fd5b8063095ea7b311610247578063095ea7b31461031857806319cba6b41461032b57806323b872dd146103405780632a55205a1461035357806341b169f31461038557806341f434341461038e57600080fd5b806301bb41161461028457806301ffc9a714610299578063044db8ba146102c157806306fdde03146102d8578063081812fc146102ed575b600080fd5b61029761029236600461365b565b610688565b005b6102ac6102a736600461368a565b610801565b60405190151581526020015b60405180910390f35b6102ca6101f481565b6040519081526020016102b8565b6102e0610862565b6040516102b891906136f7565b6103006102fb36600461365b565b6108f4565b6040516001600160a01b0390911681526020016102b8565b61029761032636600461371f565b61091b565b61033361092f565b6040516102b8919061374b565b61029761034e36600461378f565b61098f565b6103666103613660046137d0565b6109ba565b604080516001600160a01b0390931683526020830191909152016102b8565b6102ca61096081565b6103006daaeb6d7670e522a718067333cd4e81565b6102976103b136600461378f565b6109ff565b6102ca6103c436600461365b565b600d6020526000908152604090205481565b6102ca7f000000000000000000000000000000000000000000000000000000000000000081565b6102ca61271181565b6102ca6104143660046137f2565b610a24565b61029761042736600461371f565b610e71565b6102ca602581565b6102ac61044236600461381e565b6000546001600160a01b0391821691161490565b61029761046436600461381e565b611064565b61030061047736600461365b565b611157565b6102ca6301e1338081565b6102ca61049536600461381e565b6111b7565b6103007f000000000000000000000000000000000000000000000000000000000000000081565b6102ca6104cf36600461365b565b61123d565b6102ca6104e236600461365b565b61125e565b7f0000000000000000000000000000000000000000000000000000000000000000610300565b610297600080ff5b6102e061126e565b6102ca60075481565b61029761053436600461371f565b61127d565b6102ca62093a8081565b6102ca61055136600461365b565b600b6020526000908152604090205481565b610297610571366004613849565b6115ff565b6102976105843660046138f1565b611613565b6102e0611640565b6102ca61059f36600461365b565b600c6020526000908152604090205481565b6102e06105bf36600461365b565b61165c565b6102ca6105d236600461365b565b611839565b6102976105e536600461381e565b611849565b6102ca7f000000000000000000000000000000000000000000000000000000000000000081565b6102ac61061f3660046139a0565b6001600160a01b03918216600090815260066020908152604080832093909416825291909152205460ff1690565b6102ca61065b3660046137d0565b611941565b6102ac61066e36600461365b565b6127111190565b6102976106833660046139ce565b611af7565b336001600160a01b037f000000000000000000000000000000000000000000000000000000000000000016146106ff5760405162461bcd60e51b815260206004820152601760248201527615115608141c9bde1e4e881d5b985d5d1a1bdc9a5e9959604a1b60448201526064015b60405180910390fd5b60008160405160240161071491815260200190565b60408051601f198184030181529181526020820180516001600160e01b0316639ff054df60e01b179052519091506000906001600160a01b037f0000000000000000000000000000000000000000000000000000000000000000169061077b908490613a0f565b6000604051808303816000865af19150503d80600081146107b8576040519150601f19603f3d011682016040523d82523d6000602084013e6107bd565b606091505b50509050806107fc5760405162461bcd60e51b815260206004820152600b60248201526a18d85b1b0819985a5b195960aa1b60448201526064016106f6565b505050565b60006001600160e01b0319821663543746b160e01b148061083257506001600160e01b0319821663152a902d60e11b145b8061084d57506001600160e01b0319821663572b6c0560e01b145b8061085c575061085c82611fde565b92915050565b60606001805461087190613a2b565b80601f016020809104026020016040519081016040528092919081815260200182805461089d90613a2b565b80156108ea5780601f106108bf576101008083540402835291602001916108ea565b820191906000526020600020905b8154815290600101906020018083116108cd57829003601f168201915b5050505050905090565b60006108ff8261202e565b506000908152600560205260409020546001600160a01b031690565b8161092581612090565b6107fc8383612149565b336000908152600f60209081526040918290208054835181840281018401909452808452606093928301828280156108ea57602002820191906000526020600020905b815481526020019060010190808311610972575050505050905090565b826001600160a01b03811633146109a9576109a933612090565b6109b484848461226b565b50505050565b7f000000000000000000000000000000000000000000000000000000000000000060006127106109ec6101f485613a7b565b6109f69190613aa8565b90509250929050565b826001600160a01b0381163314610a1957610a1933612090565b6109b48484846122a3565b60007f00000000000000000000000000000000000000000000000000000000000000004311610a655760405162461bcd60e51b81526004016106f690613abc565b6000610a736012600a613bd0565b610a7d9084613a7b565b9050600019600e5414610ad25760405162461bcd60e51b815260206004820152601b60248201527f5445584e46543a207265656e7472616e6379206465746563746564000000000060448201526064016106f6565b60008511610b1a5760405162461bcd60e51b81526020600482015260156024820152741511561391950e88125b1b1959d85b0818dbdd5b9d605a1b60448201526064016106f6565b60008411610b615760405162461bcd60e51b81526020600482015260146024820152735445584e46543a20496c6c6567616c207465726d60601b60448201526064016106f6565b60016008600181548110610b7757610b77613bdc565b9060005260206000200154610b8c9190613bf2565b8311610bda5760405162461bcd60e51b815260206004820152601e60248201527f5445584e46543a206e6f7420656e6f756768206275726e20616d6f756e74000060448201526064016106f6565b6040516370a0823160e01b81523360048201526000907f00000000000000000000000000000000000000000000000000000000000000006001600160a01b0316906370a0823190602401602060405180830381865afa158015610c41573d6000803e3d6000fd5b505050506040513d601f19601f82011682018060405250810190610c659190613c05565b9050610c72600183613bf2565b8111610cc05760405162461bcd60e51b815260206004820152601e60248201527f5445584e46543a206e6f7420656e6f7567682058454e2062616c616e6365000060448201526064016106f6565b604051636eb1769f60e11b81523360048201523060248201526000907f00000000000000000000000000000000000000000000000000000000000000006001600160a01b03169063dd62ed3e90604401602060405180830381865afa158015610d2d573d6000803e3d6000fd5b505050506040513d601f19601f82011682018060405250810190610d519190613c05565b9050610d5e600184613bf2565b8111610dc55760405162461bcd60e51b815260206004820152603060248201527f5445584e46543a206e6f7420656e6f7567682058454e2062616c616e6365206160448201526f38383937bb32b2103337b910313ab93760811b60648201526084016106f6565b610dcf87866122be565b600e81905550610de38787600e548861254a565b604051632770a7eb60e21b8152336004820152602481018490527f00000000000000000000000000000000000000000000000000000000000000006001600160a01b031690639dc29fac90604401600060405180830381600087803b158015610e4b57600080fd5b505af1158015610e5f573d6000803e3d6000fd5b5050600e549998505050505050505050565b600019600e5403610ec45760405162461bcd60e51b815260206004820152601e60248201527f5445584e46543a20696c6c6567616c2063616c6c6261636b207374617465000060448201526064016106f6565b336001600160a01b037f00000000000000000000000000000000000000000000000000000000000000001614610f3c5760405162461bcd60e51b815260206004820152601f60248201527f5445584e46543a20696c6c6567616c2063616c6c6261636b2063616c6c65720060448201526064016106f6565b600e546001600160a01b0383166000908152600f60205260409020610f60916126ec565b600e80546000908152600c6020526040902082905554610f81908390612766565b600e546000908152600b6020908152604080832054600d9092529182902054915163346ba94160e01b815260048101929092526001600160a01b038416917ffbb2077593b3594fd0ac359a2d898268191a74843aaf1ba3f517b5514a1b0711919073__$c475fe196203479957993d89688be614cf$__9063346ba94190602401602060405180830381865af415801561101e573d6000803e3d6000fd5b505050506040513d601f19601f820116820180604052508101906110429190613c05565b6040805192835260208301919091520160405180910390a25050600019600e55565b336001600160a01b037f000000000000000000000000000000000000000000000000000000000000000016146110dc5760405162461bcd60e51b815260206004820152601760248201527f5445584e46543a206e6f7420616e206465706c6f79657200000000000000000060448201526064016106f6565b6000546001600160a01b0316156111355760405162461bcd60e51b815260206004820181905260248201527f5445584e46543a20466f7277617264657220697320616c72656164792073657460448201526064016106f6565b600080546001600160a01b0319166001600160a01b0392909216919091179055565b6000818152600360205260408120546001600160a01b03168061085c5760405162461bcd60e51b8152602060048201526018602482015277115490cdcc8c4e881a5b9d985b1a59081d1bdad95b88125160421b60448201526064016106f6565b60006001600160a01b0382166112215760405162461bcd60e51b815260206004820152602960248201527f4552433732313a2061646472657373207a65726f206973206e6f7420612076616044820152683634b21037bbb732b960b91b60648201526084016106f6565b506001600160a01b031660009081526004602052604090205490565b6009818154811061124d57600080fd5b600091825260209091200154905081565b600a818154811061124d57600080fd5b60606002805461087190613a2b565b7f000000000000000000000000000000000000000000000000000000000000000043116112bc5760405162461bcd60e51b81526004016106f690613abc565b600019600e541461130f5760405162461bcd60e51b815260206004820152601b60248201527f5445584e46543a205265656e7472616e6379206465746563746564000000000060448201526064016106f6565b61131c6001600019613bf2565b600e556040516301ffc9a760e01b815263543746b160e01b600482015233906301ffc9a790602401602060405180830381865afa158015611361573d6000803e3d6000fd5b505050506040513d601f19601f820116820180604052508101906113859190613c1e565b6113df5760405162461bcd60e51b815260206004820152602560248201527f5445584e4654206275726e3a206e6f74206120737570706f7274656420636f6e6044820152641d1c9858dd60da1b60648201526084016106f6565b6001600160a01b0382166114405760405162461bcd60e51b815260206004820152602260248201527f5445584e4654206275726e3a20696c6c6567616c206f776e6572206164647265604482015261737360f01b60648201526084016106f6565b600081116114905760405162461bcd60e51b815260206004820152601c60248201527f5445584e4654206275726e3a20696c6c6567616c20746f6b656e49640000000060448201526064016106f6565b61149a3382612780565b6114f25760405162461bcd60e51b8152602060048201526024808201527f58454e4654206275726e3a206e6f7420616e20617070726f766564206f70657260448201526330ba37b960e11b60648201526084016106f6565b816001600160a01b031661150582611157565b6001600160a01b03161461156a5760405162461bcd60e51b815260206004820152602660248201527f5445584e4654206275726e3a2075736572206973206e6f7420746f6b656e49646044820152651037bbb732b960d11b60648201526084016106f6565b6001600160a01b0382166000908152600f6020526040902061158c90826127ff565b611595816128e4565b60405163543746b160e01b81526001600160a01b038316600482015260248101829052339063543746b190604401600060405180830381600087803b1580156115dd57600080fd5b505af11580156115f1573d6000803e3d6000fd5b5050600019600e5550505050565b8161160981612090565b6107fc8383612993565b836001600160a01b038116331461162d5761162d33612090565b611639858585856129a5565b5050505050565b6040518060600160405280602e815260200161400f602e913981565b6000818152600b6020908152604080832054600d835281842054600c90935292205460609291908261168d57600080fd5b6000611698866129de565b604051631b9345fd60e01b81526004810188905260248101869052604481018590526001600160a01b037f00000000000000000000000000000000000000000000000000000000000000001660648201526084810184905261175d9073__$8e0f6ec82a7c2a67810acbd001a983dfdb$__90631b9345fd9060a401600060405180830381865af4158015611730573d6000803e3d6000fd5b505050506040513d6000823e601f3d908101601f191682016040526117589190810190613c3b565b612adf565b604051633c4a25e960e21b815260048101879052602481018590526044810186905273__$8e0f6ec82a7c2a67810acbd001a983dfdb$__9063f12897a490606401600060405180830381865af41580156117bb573d6000803e3d6000fd5b505050506040513d6000823e601f3d908101601f191682016040526117e39190810190613c3b565b6040516020016117f593929190613cb2565b604051602081830303815290604052905061180f81612adf565b60405160200161181f9190613ddc565b604051602081830303815290604052945050505050919050565b6008818154811061124d57600080fd5b336001600160a01b037f000000000000000000000000000000000000000000000000000000000000000016146118bb5760405162461bcd60e51b815260206004820152601760248201527615115608141c9bde1e4e881d5b985d5d1a1bdc9a5e9959604a1b60448201526064016106f6565b6040516001600160a01b03821660248201526064604482018190526000910160408051601f198184030181529181526020820180516001600160e01b0316631c56030560e01b179052519091506000906001600160a01b037f0000000000000000000000000000000000000000000000000000000000000000169061077b908490613a0f565b60007f000000000000000000000000000000000000000000000000000000000000000043116119825760405162461bcd60e51b81526004016106f690613abc565b600019600e54146119d55760405162461bcd60e51b815260206004820152601b60248201527f5445584e46543a207265656e7472616e6379206465746563746564000000000060448201526064016106f6565b60008311611a1d5760405162461bcd60e51b81526020600482015260156024820152741511561391950e88125b1b1959d85b0818dbdd5b9d605a1b60448201526064016106f6565b60008211611a645760405162461bcd60e51b81526020600482015260146024820152735445584e46543a20496c6c6567616c207465726d60601b60448201526064016106f6565b611a6f8360006122be565b600e81905550611a848383600e54600061254a565b600e54336000908152600f60205260409020611a9f916126ec565b611aab33600e54612766565b604080518481526020810184905233917ffbb2077593b3594fd0ac359a2d898268191a74843aaf1ba3f517b5514a1b0711910160405180910390a25050600e8054600019909155919050565b7f00000000000000000000000000000000000000000000000000000000000000004311611b365760405162461bcd60e51b81526004016106f690613abc565b600019600e5414611b895760405162461bcd60e51b815260206004820152601b60248201527f5445584e46543a205265656e7472616e6379206465746563746564000000000060448201526064016106f6565b611b966001600019613bf2565b600e5533611ba383611157565b6001600160a01b031614611bf95760405162461bcd60e51b815260206004820152601760248201527f5445584e46543a20496e636f7272656374206f776e657200000000000000000060448201526064016106f6565b6001600160a01b038116611c4f5760405162461bcd60e51b815260206004820152601760248201527f5445584e46543a20496c6c6567616c206164647265737300000000000000000060448201526064016106f6565b6000828152600d60205260409081902054905163e90cdc8960e01b8152600481019190915273__$c475fe196203479957993d89688be614cf$__9063e90cdc8990602401602060405180830381865af4158015611cb0573d6000803e3d6000fd5b505050506040513d601f19601f82011682018060405250810190611cd49190613c1e565b15611d215760405162461bcd60e51b815260206004820152601860248201527f5445584e46543a20416c72656164792072656465656d6564000000000000000060448201526064016106f6565b604051600090611d6590733d602d80600a3d3981f3363d3d373d3d3d363d7360601b903060601b906e5af43d82803e903d91602b57fd5bf360881b90602001613e21565b60408051601f198184030181529181526000858152600b6020529081205491925090611d92906001613e5e565b6040516001600160a01b038516602482015290915060009060440160408051601f19818403018152918152602080830180516001600160e01b0390811663df0030ef60e01b1790915282516004815260248101909352908201805190911663928dd2a760e01b17905290915060015b83811015611f77576040805160208082018490528183018a90528251808303840181526060808401855281519183019190912089518a8401206001600160f81b031960808601523090921b6bffffffffffffffffffffffff191660818501526095840181905260b5808501929092528451808503909201825260d5909301909352825192810192909220855191926000928291849182918a0182855af1925082611ef95760405162461bcd60e51b8152602060048201526024808201527f5445584e46543a204572726f72207768696c6520636c61696d696e67207265776044820152636172647360e01b60648201526084016106f6565b6000808751602089016000855af1925082611f605760405162461bcd60e51b815260206004820152602160248201527f5445584e46543a204572726f72207768696c6520706f776572696e6720646f776044820152603760f91b60648201526084016106f6565b505050508080611f6f90613e71565b915050611e01565b506000868152600d6020526040902080546001179055604080518781526001600160a01b038716602082015233917f7ae39cb5fb0bebb7775f35a0009e0c94f59c2e40c8967af20842619edac4694d910160405180910390a25050600019600e5550505050565b60006001600160e01b031982166380ac58cd60e01b148061200f57506001600160e01b03198216635b5e139f60e01b145b8061085c57506301ffc9a760e01b6001600160e01b031983161461085c565b6000818152600360205260409020546001600160a01b031661208d5760405162461bcd60e51b8152602060048201526018602482015277115490cdcc8c4e881a5b9d985b1a59081d1bdad95b88125160421b60448201526064016106f6565b50565b6daaeb6d7670e522a718067333cd4e3b1561208d57604051633185c44d60e21b81523060048201526001600160a01b03821660248201526daaeb6d7670e522a718067333cd4e9063c617113490604401602060405180830381865afa1580156120fd573d6000803e3d6000fd5b505050506040513d601f19601f820116820180604052508101906121219190613c1e565b61208d57604051633b79c77360e21b81526001600160a01b03821660048201526024016106f6565b600061215482611157565b9050806001600160a01b0316836001600160a01b0316036121c15760405162461bcd60e51b815260206004820152602160248201527f4552433732313a20617070726f76616c20746f2063757272656e74206f776e656044820152603960f91b60648201526084016106f6565b806001600160a01b03166121d3612c32565b6001600160a01b031614806121ef57506121ef8161061f612c32565b6122615760405162461bcd60e51b815260206004820152603e60248201527f4552433732313a20617070726f76652063616c6c6572206973206e6f7420746f60448201527f6b656e206f776e6572206e6f7220617070726f76656420666f7220616c6c000060648201526084016106f6565b6107fc8383612c41565b61227c612276612c32565b82612780565b6122985760405162461bcd60e51b81526004016106f690613e8a565b6107fc838383612caf565b6107fc83838360405180602001604052806000815250611613565b6000806122ca83612e5c565b9050806001036123bc57602584116123245760405162461bcd60e51b815260206004820152601b60248201527f5445584e46543a20756e6465722072657120564d5520636f756e74000000000060448201526064016106f6565b6123526301e133807f0000000000000000000000000000000000000000000000000000000000000000613e5e565b42106123a05760405162461bcd60e51b815260206004820152601b60248201527f58454e46543a206c696d697465642074696d652065787069726564000000000060448201526064016106f6565b600780549060006123b083613e71565b9190505591505061085c565b600181111561252e573332146124275760405162461bcd60e51b815260206004820152602a60248201527f5445584e46543a206f6e6c7920454f4120616c6c6f77656420666f7220746869604482015269732063617465676f727960b01b60648201526084016106f6565b602584116124775760405162461bcd60e51b815260206004820152601b60248201527f5445584e46543a20756e6465722072657120564d5520636f756e74000000000060448201526064016106f6565b6009818154811061248a5761248a613bdc565b906000526020600020015460016124a19190613e5e565b600a82815481106124b4576124b4613bdc565b9060005260206000200154106125055760405162461bcd60e51b81526020600482015260166024820152751511561391950e8818db185cdcc81cdbdb19081bdd5d60521b60448201526064016106f6565b600a818154811061251857612518613bdc565b600091825260208220018054916123b083613e71565b6007805490600061253e83613e71565b90915550949350505050565b60405160009061258e90733d602d80600a3d3981f3363d3d373d3d3d363d7360601b903060601b906e5af43d82803e903d91602b57fd5bf360881b90602001613e21565b60405160208183030381529060405290506000846040516024016125b491815260200190565b60408051601f198184030181529190526020810180516001600160e01b031662dda08b60e11b179052905060008060015b6125f0896001613e5e565b8110156126d1576040805160208101839052908101889052600090606001604051602081830303815290604052805190602001209050808651602088016000f593506000808651602088016000885af19250826126995760405162461bcd60e51b815260206004820152602160248201527f5445584e46543a204572726f72207768696c6520636c61696d696e672072616e6044820152606b60f81b60648201526084016106f6565b816001036126be576126ae848b8b8a8c612ef9565b6000898152600d60205260409020555b50806126c981613e71565b9150506125e5565b50505060009384525050600b60205250604090209190915550565b6127458280548060200260200160405190810160405280929190818152602001828054801561273a57602002820191906000526020600020905b815481526020019060010190808311612726575b5050505050826130b0565b600003612762578154600181018355600083815260209020018190555b5050565b6127628282604051806020016040528060008152506130f8565b60008061278c83611157565b9050806001600160a01b0316846001600160a01b031614806127d357506001600160a01b0380821660009081526006602090815260408083209388168352929052205460ff165b806127f75750836001600160a01b03166127ec846108f4565b6001600160a01b0316145b949350505050565b600061285a8380548060200260200160405190810160405280929190818152602001828054801561284f57602002820191906000526020600020905b81548152602001906001019080831161283b575b5050505050836130b0565b905080156107fc578254839061287290600190613bf2565b8154811061288257612882613bdc565b90600052602060002001548360018361289b9190613bf2565b815481106128ab576128ab613bdc565b9060005260206000200181905550828054806128c9576128c9613ed8565b60019003818190600052602060002001600090559055505050565b60006128ef82611157565b90506128fd8160008461312b565b612908600083612c41565b6001600160a01b0381166000908152600460205260408120805460019290612931908490613bf2565b909155505060008281526003602052604080822080546001600160a01b0319169055518391906001600160a01b038416907fddf252ad1be2c89b69c2b068fc378daa952ba7f163c4a11628f55a4df523b3ef908390a46127628160008461324d565b61276261299e612c32565b8383613291565b6129b66129b0612c32565b83612780565b6129d25760405162461bcd60e51b81526004016106f690613e8a565b6109b48484848461335f565b606081600003612a055750506040805180820190915260018152600360fc1b602082015290565b8160005b8115612a2f5780612a1981613e71565b9150612a289050600a83613aa8565b9150612a09565b60008167ffffffffffffffff811115612a4a57612a4a613882565b6040519080825280601f01601f191660200182016040528015612a74576020820181803683370190505b5090505b84156127f757612a89600183613bf2565b9150612a96600a86613eee565b612aa1906030613e5e565b60f81b818381518110612ab657612ab6613bdc565b60200101906001600160f81b031916908160001a905350612ad8600a86613aa8565b9450612a78565b60608151600003612afe57505060408051602081019091526000815290565b600060405180606001604052806040815260200161403d6040913990506000600384516002612b2d9190613e5e565b612b379190613aa8565b612b42906004613a7b565b67ffffffffffffffff811115612b5a57612b5a613882565b6040519080825280601f01601f191660200182016040528015612b84576020820181803683370190505b509050600182016020820185865187015b80821015612bf0576003820191508151603f8160121c168501518453600184019350603f81600c1c168501518453600184019350603f8160061c168501518453600184019350603f8116850151845350600183019250612b95565b5050600386510660018114612c0c5760028114612c1f57612c27565b603d6001830353603d6002830353612c27565b603d60018303535b509195945050505050565b6000612c3c613392565b905090565b600081815260056020526040902080546001600160a01b0319166001600160a01b0384169081179091558190612c7682611157565b6001600160a01b03167f8c5be1e5ebec7d5bd14f71427d1e84f3dd0314c0f7b2291e5b200ac8c7c3b92560405160405180910390a45050565b826001600160a01b0316612cc282611157565b6001600160a01b031614612d265760405162461bcd60e51b815260206004820152602560248201527f4552433732313a207472616e736665722066726f6d20696e636f72726563742060448201526437bbb732b960d91b60648201526084016106f6565b6001600160a01b038216612d885760405162461bcd60e51b8152602060048201526024808201527f4552433732313a207472616e7366657220746f20746865207a65726f206164646044820152637265737360e01b60648201526084016106f6565b612d9383838361312b565b612d9e600082612c41565b6001600160a01b0383166000908152600460205260408120805460019290612dc7908490613bf2565b90915550506001600160a01b0382166000908152600460205260408120805460019290612df5908490613e5e565b909155505060008181526003602052604080822080546001600160a01b0319166001600160a01b0386811691821790925591518493918716917fddf252ad1be2c89b69c2b068fc378daa952ba7f163c4a11628f55a4df523b3ef91a46107fc83838361324d565b6008546000908190612e7090600190613bf2565b90505b8015612ef05760088181548110612e8c57612e8c613bdc565b9060005260206000200154600003612ea75750600092915050565b600160088281548110612ebc57612ebc613bdc565b9060005260206000200154612ed19190613bf2565b831115612ede5792915050565b80612ee881613f02565b915050612e73565b50600092915050565b600080612f07836127111190565b90506000612f1587876133b7565b90508115612f3a57612f2685612e5c565b612f31906007613e5e565b60801760ff1690505b600085118015612f48575081155b15612f51575060485b60405163df28233160e01b81526001600160a01b0389811660048301526000918291829182917f0000000000000000000000000000000000000000000000000000000000000000169063df2823319060240160c060405180830381865afa158015612fc0573d6000803e3d6000fd5b505050506040513d601f19601f82011682018060405250810190612fe49190613f19565b9550955095509550505073__$c475fe196203479957993d89688be614cf$__63906029d98b868686868b60006040518863ffffffff1660e01b815260040161305f9796959493929190968752602087019590955260408601939093526060850191909152608084015260a0830152151560c082015260e00190565b602060405180830381865af415801561307c573d6000803e3d6000fd5b505050506040513d601f19601f820116820180604052508101906130a09190613c05565b9c9b505050505050505050505050565b60015b82518111612ef05781836130c8600184613bf2565b815181106130d8576130d8613bdc565b6020026020010151031561085c57806130f081613e71565b9150506130b3565b61310283836133e4565b61310f600084848461353a565b6107fc5760405162461bcd60e51b81526004016106f690613f6c565b6001600160a01b038316156107fc576000818152600d602052604080822054905163125fb94760e11b8152600481019190915273__$c475fe196203479957993d89688be614cf$__906324bf728e90602401602060405180830381865af415801561319a573d6000803e3d6000fd5b505050506040513d601f19601f820116820180604052508101906131be9190613c05565b905060004282116131d8576131d38242613bf2565b6131e2565b6131e24283613bf2565b905062093a8081116116395760405162461bcd60e51b815260206004820152602e60248201527f5445584e46543a207472616e736665722070726f6869626974656420696e206260448201526d1b1858dadbdd5d081c195c9a5bd960921b60648201526084016106f6565b6001600160a01b0383166000908152600f6020526040902061326f90826127ff565b6001600160a01b0382166000908152600f602052604090206107fc90826126ec565b816001600160a01b0316836001600160a01b0316036132f25760405162461bcd60e51b815260206004820152601960248201527f4552433732313a20617070726f766520746f2063616c6c65720000000000000060448201526064016106f6565b6001600160a01b03838116600081815260066020908152604080832094871680845294825291829020805460ff191686151590811790915591519182527f17307eab39ab6107e8899845ad3d59bd9653f200f220920489ca2b5937696c31910160405180910390a3505050565b61336a848484612caf565b6133768484848461353a565b6109b45760405162461bcd60e51b81526004016106f690613f6c565b600080546001600160a01b031633036133b2575060131936013560601c90565b503390565b600060076133c58484613642565b11156133d35750600761085c565b6133dd8383613642565b9392505050565b6001600160a01b03821661343a5760405162461bcd60e51b815260206004820181905260248201527f4552433732313a206d696e7420746f20746865207a65726f206164647265737360448201526064016106f6565b6000818152600360205260409020546001600160a01b03161561349f5760405162461bcd60e51b815260206004820152601c60248201527f4552433732313a20746f6b656e20616c7265616479206d696e7465640000000060448201526064016106f6565b6134ab6000838361312b565b6001600160a01b03821660009081526004602052604081208054600192906134d4908490613e5e565b909155505060008181526003602052604080822080546001600160a01b0319166001600160a01b03861690811790915590518392907fddf252ad1be2c89b69c2b068fc378daa952ba7f163c4a11628f55a4df523b3ef908290a46127626000838361324d565b60006001600160a01b0384163b1561363757836001600160a01b031663150b7a02613563612c32565b8786866040518563ffffffff1660e01b81526004016135859493929190613fbe565b6020604051808303816000875af19250505080156135c0575060408051601f3d908101601f191682019092526135bd91810190613ff1565b60015b61361d573d8080156135ee576040519150601f19603f3d011682016040523d82523d6000602084013e6135f3565b606091505b5080516000036136155760405162461bcd60e51b81526004016106f690613f6c565b805181602001fd5b6001600160e01b031916630a85bd0160e11b1490506127f7565b506001949350505050565b60006109606136518385613a7b565b6133dd9190613aa8565b60006020828403121561366d57600080fd5b5035919050565b6001600160e01b03198116811461208d57600080fd5b60006020828403121561369c57600080fd5b81356133dd81613674565b60005b838110156136c25781810151838201526020016136aa565b50506000910152565b600081518084526136e38160208601602086016136a7565b601f01601f19169290920160200192915050565b6020815260006133dd60208301846136cb565b6001600160a01b038116811461208d57600080fd5b6000806040838503121561373257600080fd5b823561373d8161370a565b946020939093013593505050565b6020808252825182820181905260009190848201906040850190845b8181101561378357835183529284019291840191600101613767565b50909695505050505050565b6000806000606084860312156137a457600080fd5b83356137af8161370a565b925060208401356137bf8161370a565b929592945050506040919091013590565b600080604083850312156137e357600080fd5b50508035926020909101359150565b60008060006060848603121561380757600080fd5b505081359360208301359350604090920135919050565b60006020828403121561383057600080fd5b81356133dd8161370a565b801515811461208d57600080fd5b6000806040838503121561385c57600080fd5b82356138678161370a565b915060208301356138778161383b565b809150509250929050565b634e487b7160e01b600052604160045260246000fd5b604051601f8201601f1916810167ffffffffffffffff811182821017156138c1576138c1613882565b604052919050565b600067ffffffffffffffff8211156138e3576138e3613882565b50601f01601f191660200190565b6000806000806080858703121561390757600080fd5b84356139128161370a565b935060208501356139228161370a565b925060408501359150606085013567ffffffffffffffff81111561394557600080fd5b8501601f8101871361395657600080fd5b8035613969613964826138c9565b613898565b81815288602083850101111561397e57600080fd5b8160208401602083013760006020838301015280935050505092959194509250565b600080604083850312156139b357600080fd5b82356139be8161370a565b915060208301356138778161370a565b600080604083850312156139e157600080fd5b8235915060208301356138778161370a565b60008151613a058185602086016136a7565b9290920192915050565b60008251613a218184602087016136a7565b9190910192915050565b600181811c90821680613a3f57607f821691505b602082108103613a5f57634e487b7160e01b600052602260045260246000fd5b50919050565b634e487b7160e01b600052601160045260246000fd5b808202811582820484141761085c5761085c613a65565b634e487b7160e01b600052601260045260246000fd5b600082613ab757613ab7613a92565b500490565b6020808252601690820152751511561391950e88139bdd081858dd1a5d99481e595d60521b604082015260600190565b600181815b80851115613b27578160001904821115613b0d57613b0d613a65565b80851615613b1a57918102915b93841c9390800290613af1565b509250929050565b600082613b3e5750600161085c565b81613b4b5750600061085c565b8160018114613b615760028114613b6b57613b87565b600191505061085c565b60ff841115613b7c57613b7c613a65565b50506001821b61085c565b5060208310610133831016604e8410600b8410161715613baa575081810a61085c565b613bb48383613aec565b8060001904821115613bc857613bc8613a65565b029392505050565b60006133dd8383613b2f565b634e487b7160e01b600052603260045260246000fd5b8181038181111561085c5761085c613a65565b600060208284031215613c1757600080fd5b5051919050565b600060208284031215613c3057600080fd5b81516133dd8161383b565b600060208284031215613c4d57600080fd5b815167ffffffffffffffff811115613c6457600080fd5b8201601f81018413613c7557600080fd5b8051613c83613964826138c9565b818152856020838501011115613c9857600080fd5b613ca98260208301602086016136a7565b95945050505050565b607b60f81b81527f226e616d65223a20225445584c4120546f7272656e7420230000000000000000600182015260008451613cf48160198501602089016136a7565b61088b60f21b60199184019182018190527f226465736372697074696f6e223a20225445584e46543a205445584c41204372601b830152751e5c1d1bc8135a5b9d1a5b99c8151bdc9c995b9d088b60521b603b830152691134b6b0b3b2911d101160b11b60518301527f646174613a696d6167652f7376672b786d6c3b6261736536342c000000000000605b8301528551613d96816075850160208a016136a7565b60759201918201526d01130ba3a3934b13aba32b9911d160951b6077820152613dd2613dc560858301866139f3565b607d60f81b815260010190565b9695505050505050565b7f646174613a6170706c69636174696f6e2f6a736f6e3b6261736536342c000000815260008251613e1481601d8501602087016136a7565b91909101601d0192915050565b6bffffffffffffffffffffffff19938416815291909216601482015270ffffffffffffffffffffffffffffffffff19909116602882015260370190565b8082018082111561085c5761085c613a65565b600060018201613e8357613e83613a65565b5060010190565b6020808252602e908201527f4552433732313a2063616c6c6572206973206e6f7420746f6b656e206f776e6560408201526d1c881b9bdc88185c1c1c9bdd995960921b606082015260800190565b634e487b7160e01b600052603160045260246000fd5b600082613efd57613efd613a92565b500690565b600081613f1157613f11613a65565b506000190190565b60008060008060008060c08789031215613f3257600080fd5b8651613f3d8161370a565b6020880151604089015160608a015160808b015160a0909b0151939c929b509099909850965090945092505050565b60208082526032908201527f4552433732313a207472616e7366657220746f206e6f6e20455243373231526560408201527131b2b4bb32b91034b6b83632b6b2b73a32b960711b606082015260800190565b6001600160a01b0385811682528416602082015260408101839052608060608201819052600090613dd2908301846136cb565b60006020828403121561400357600080fd5b81516133dd8161367456fe40506570734c616220404d724a61636b4c6576696e20406c62656c79616576206661697263727970746f2e6f72674142434445464748494a4b4c4d4e4f505152535455565758595a6162636465666768696a6b6c6d6e6f707172737475767778797a303132333435363738392b2fa26469706673582212204d6a0d767338d85a86ed1af90b692326b38652fe2aa04666055b940aadb538ff64736f6c63430008120033",
			"opcodes": "PUSH2 0x140 PUSH1 0x40 MSTORE PUSH2 0x2711 PUSH1 0x7 SSTORE CALLVALUE DUP1 ISZERO PUSH3 0x18 JUMPI PUSH1 0x0 DUP1 REVERT JUMPDEST POP PUSH1 0x40 MLOAD PUSH3 0x4983 CODESIZE SUB DUP1 PUSH3 0x4983 DUP4 CODECOPY DUP2 ADD PUSH1 0x40 DUP2 SWAP1 MSTORE PUSH3 0x3B SWAP2 PUSH3 0x598 JUMP JUMPDEST PUSH1 0x40 DUP1 MLOAD DUP1 DUP3 ADD DUP3 MSTORE PUSH1 0xD DUP2 MSTORE PUSH13 0x161153915588151BDC9C995B9D PUSH1 0x9A SHL PUSH1 0x20 DUP1 DUP4 ADD SWAP2 SWAP1 SWAP2 MSTORE DUP3 MLOAD DUP1 DUP5 ADD SWAP1 SWAP4 MSTORE PUSH1 0x6 DUP4 MSTORE PUSH6 0x161153915595 PUSH1 0xD2 SHL SWAP1 DUP4 ADD MSTORE SWAP1 DUP4 PUSH20 0xD7A62E4B044243FB49D9D71FBD4DB46EAEB572DD PUSH1 0x1 PUSH14 0xAAEB6D7670E522A718067333CD4E EXTCODESIZE ISZERO PUSH3 0x1DA JUMPI DUP1 ISZERO PUSH3 0x128 JUMPI PUSH1 0x40 MLOAD PUSH4 0x3E9F1EDF PUSH1 0xE1 SHL DUP2 MSTORE ADDRESS PUSH1 0x4 DUP3 ADD MSTORE PUSH1 0x1 PUSH1 0x1 PUSH1 0xA0 SHL SUB DUP4 AND PUSH1 0x24 DUP3 ADD MSTORE PUSH14 0xAAEB6D7670E522A718067333CD4E SWAP1 PUSH4 0x7D3E3DBE SWAP1 PUSH1 0x44 ADD JUMPDEST PUSH1 0x0 PUSH1 0x40 MLOAD DUP1 DUP4 SUB DUP2 PUSH1 0x0 DUP8 DUP1 EXTCODESIZE ISZERO DUP1 ISZERO PUSH3 0x109 JUMPI PUSH1 0x0 DUP1 REVERT JUMPDEST POP GAS CALL ISZERO DUP1 ISZERO PUSH3 0x11E JUMPI RETURNDATASIZE PUSH1 0x0 DUP1 RETURNDATACOPY RETURNDATASIZE PUSH1 0x0 REVERT JUMPDEST POP POP POP POP PUSH3 0x1DA JUMP JUMPDEST PUSH1 0x1 PUSH1 0x1 PUSH1 0xA0 SHL SUB DUP3 AND ISZERO PUSH3 0x179 JUMPI PUSH1 0x40 MLOAD PUSH4 0xA0AF2903 PUSH1 0xE0 SHL DUP2 MSTORE ADDRESS PUSH1 0x4 DUP3 ADD MSTORE PUSH1 0x1 PUSH1 0x1 PUSH1 0xA0 SHL SUB DUP4 AND PUSH1 0x24 DUP3 ADD MSTORE PUSH14 0xAAEB6D7670E522A718067333CD4E SWAP1 PUSH4 0xA0AF2903 SWAP1 PUSH1 0x44 ADD PUSH3 0xEE JUMP JUMPDEST PUSH1 0x40 MLOAD PUSH4 0x22107243 PUSH1 0xE1 SHL DUP2 MSTORE ADDRESS PUSH1 0x4 DUP3 ADD MSTORE PUSH14 0xAAEB6D7670E522A718067333CD4E SWAP1 PUSH4 0x4420E486 SWAP1 PUSH1 0x24 ADD PUSH1 0x0 PUSH1 0x40 MLOAD DUP1 DUP4 SUB DUP2 PUSH1 0x0 DUP8 DUP1 EXTCODESIZE ISZERO DUP1 ISZERO PUSH3 0x1C0 JUMPI PUSH1 0x0 DUP1 REVERT JUMPDEST POP GAS CALL ISZERO DUP1 ISZERO PUSH3 0x1D5 JUMPI RETURNDATASIZE PUSH1 0x0 DUP1 RETURNDATACOPY RETURNDATASIZE PUSH1 0x0 REVERT JUMPDEST POP POP POP POP JUMPDEST POP POP PUSH1 0x0 DUP1 SLOAD PUSH1 0x1 PUSH1 0x1 PUSH1 0xA0 SHL SUB NOT AND PUSH1 0x1 PUSH1 0x1 PUSH1 0xA0 SHL SUB SWAP3 SWAP1 SWAP3 AND SWAP2 SWAP1 SWAP2 OR SWAP1 SSTORE PUSH1 0x1 PUSH3 0x20A DUP4 DUP3 PUSH3 0x6D2 JUMP JUMPDEST POP PUSH1 0x2 PUSH3 0x219 DUP3 DUP3 PUSH3 0x6D2 JUMP JUMPDEST POP POP POP PUSH1 0x1 PUSH1 0x1 PUSH1 0xA0 SHL SUB DUP7 AND PUSH3 0x266 JUMPI PUSH1 0x40 MLOAD PUSH3 0x461BCD PUSH1 0xE5 SHL DUP2 MSTORE PUSH1 0x20 PUSH1 0x4 DUP3 ADD MSTORE PUSH1 0xB PUSH1 0x24 DUP3 ADD MSTORE PUSH11 0x6261642061646472657373 PUSH1 0xA8 SHL PUSH1 0x44 DUP3 ADD MSTORE PUSH1 0x64 ADD JUMPDEST PUSH1 0x40 MLOAD DUP1 SWAP2 SUB SWAP1 REVERT JUMPDEST DUP4 MLOAD DUP6 MLOAD EQ DUP1 ISZERO PUSH3 0x279 JUMPI POP PUSH1 0x0 DUP6 MLOAD GT JUMPDEST PUSH3 0x2B9 JUMPI PUSH1 0x40 MLOAD PUSH3 0x461BCD PUSH1 0xE5 SHL DUP2 MSTORE PUSH1 0x20 PUSH1 0x4 DUP3 ADD MSTORE PUSH1 0xF PUSH1 0x24 DUP3 ADD MSTORE PUSH15 0xE0C2E4C2DAE640DAD2E6DAC2E8C6D PUSH1 0x8B SHL PUSH1 0x44 DUP3 ADD MSTORE PUSH1 0x64 ADD PUSH3 0x25D JUMP JUMPDEST PUSH1 0x0 NOT PUSH1 0xE SSTORE ADDRESS PUSH1 0xE0 MSTORE CALLER PUSH2 0x100 MSTORE PUSH1 0x1 PUSH1 0x1 PUSH1 0xA0 SHL SUB DUP2 AND ISZERO PUSH3 0x2DF JUMPI DUP1 PUSH3 0x2E1 JUMP JUMPDEST CALLER JUMPDEST PUSH1 0x1 PUSH1 0x1 PUSH1 0xA0 SHL SUB SWAP1 DUP2 AND PUSH2 0x120 MSTORE PUSH1 0xC0 DUP5 SWAP1 MSTORE TIMESTAMP PUSH1 0xA0 MSTORE DUP7 AND PUSH1 0x80 MSTORE DUP5 MLOAD PUSH3 0x313 SWAP1 PUSH1 0x8 SWAP1 PUSH1 0x20 DUP9 ADD SWAP1 PUSH3 0x45A JUMP JUMPDEST POP DUP4 MLOAD PUSH3 0x329 SWAP1 PUSH1 0x9 SWAP1 PUSH1 0x20 DUP8 ADD SWAP1 PUSH3 0x45A JUMP JUMPDEST POP DUP4 MLOAD PUSH1 0x1 PUSH1 0x1 PUSH1 0x40 SHL SUB DUP2 GT ISZERO PUSH3 0x346 JUMPI PUSH3 0x346 PUSH3 0x4DE JUMP JUMPDEST PUSH1 0x40 MLOAD SWAP1 DUP1 DUP3 MSTORE DUP1 PUSH1 0x20 MUL PUSH1 0x20 ADD DUP3 ADD PUSH1 0x40 MSTORE DUP1 ISZERO PUSH3 0x370 JUMPI DUP2 PUSH1 0x20 ADD PUSH1 0x20 DUP3 MUL DUP1 CALLDATASIZE DUP4 CALLDATACOPY ADD SWAP1 POP JUMPDEST POP DUP1 MLOAD PUSH3 0x387 SWAP2 PUSH1 0xA SWAP2 PUSH1 0x20 SWAP1 SWAP2 ADD SWAP1 PUSH3 0x45A JUMP JUMPDEST POP PUSH1 0x2 JUMPDEST PUSH1 0x8 SLOAD PUSH3 0x39C SWAP1 PUSH1 0x1 SWAP1 PUSH3 0x7B4 JUMP JUMPDEST DUP2 LT ISZERO PUSH3 0x416 JUMPI PUSH1 0x9 PUSH3 0x3B3 DUP3 PUSH1 0x1 PUSH3 0x7D0 JUMP JUMPDEST DUP2 SLOAD DUP2 LT PUSH3 0x3C6 JUMPI PUSH3 0x3C6 PUSH3 0x7E6 JUMP JUMPDEST SWAP1 PUSH1 0x0 MSTORE PUSH1 0x20 PUSH1 0x0 KECCAK256 ADD SLOAD PUSH1 0x1 PUSH3 0x3DF SWAP2 SWAP1 PUSH3 0x7D0 JUMP JUMPDEST PUSH1 0xA DUP3 DUP2 SLOAD DUP2 LT PUSH3 0x3F5 JUMPI PUSH3 0x3F5 PUSH3 0x7E6 JUMP JUMPDEST PUSH1 0x0 SWAP2 DUP3 MSTORE PUSH1 0x20 SWAP1 SWAP2 KECCAK256 ADD SSTORE DUP1 PUSH3 0x40D DUP2 PUSH3 0x7FC JUMP JUMPDEST SWAP2 POP POP PUSH3 0x38B JUMP JUMPDEST POP PUSH1 0x8 SLOAD PUSH1 0x1 SWAP1 PUSH1 0xA SWAP1 PUSH3 0x42D SWAP1 DUP4 SWAP1 PUSH3 0x7B4 JUMP JUMPDEST DUP2 SLOAD DUP2 LT PUSH3 0x440 JUMPI PUSH3 0x440 PUSH3 0x7E6 JUMP JUMPDEST SWAP1 PUSH1 0x0 MSTORE PUSH1 0x20 PUSH1 0x0 KECCAK256 ADD DUP2 SWAP1 SSTORE POP POP POP POP POP POP POP PUSH3 0x818 JUMP JUMPDEST DUP3 DUP1 SLOAD DUP3 DUP3 SSTORE SWAP1 PUSH1 0x0 MSTORE PUSH1 0x20 PUSH1 0x0 KECCAK256 SWAP1 DUP2 ADD SWAP3 DUP3 ISZERO PUSH3 0x498 JUMPI SWAP2 PUSH1 0x20 MUL DUP3 ADD JUMPDEST DUP3 DUP2 GT ISZERO PUSH3 0x498 JUMPI DUP3 MLOAD DUP3 SSTORE SWAP2 PUSH1 0x20 ADD SWAP2 SWAP1 PUSH1 0x1 ADD SWAP1 PUSH3 0x47B JUMP JUMPDEST POP PUSH3 0x4A6 SWAP3 SWAP2 POP PUSH3 0x4AA JUMP JUMPDEST POP SWAP1 JUMP JUMPDEST JUMPDEST DUP1 DUP3 GT ISZERO PUSH3 0x4A6 JUMPI PUSH1 0x0 DUP2 SSTORE PUSH1 0x1 ADD PUSH3 0x4AB JUMP JUMPDEST DUP1 MLOAD PUSH1 0x1 PUSH1 0x1 PUSH1 0xA0 SHL SUB DUP2 AND DUP2 EQ PUSH3 0x4D9 JUMPI PUSH1 0x0 DUP1 REVERT JUMPDEST SWAP2 SWAP1 POP JUMP JUMPDEST PUSH4 0x4E487B71 PUSH1 0xE0 SHL PUSH1 0x0 MSTORE PUSH1 0x41 PUSH1 0x4 MSTORE PUSH1 0x24 PUSH1 0x0 REVERT JUMPDEST PUSH1 0x0 DUP3 PUSH1 0x1F DUP4 ADD SLT PUSH3 0x506 JUMPI PUSH1 0x0 DUP1 REVERT JUMPDEST DUP2 MLOAD PUSH1 0x20 PUSH1 0x1 PUSH1 0x1 PUSH1 0x40 SHL SUB DUP1 DUP4 GT ISZERO PUSH3 0x525 JUMPI PUSH3 0x525 PUSH3 0x4DE JUMP JUMPDEST DUP3 PUSH1 0x5 SHL PUSH1 0x40 MLOAD PUSH1 0x1F NOT PUSH1 0x3F DUP4 ADD AND DUP2 ADD DUP2 DUP2 LT DUP5 DUP3 GT OR ISZERO PUSH3 0x54D JUMPI PUSH3 0x54D PUSH3 0x4DE JUMP JUMPDEST PUSH1 0x40 MSTORE SWAP4 DUP5 MSTORE DUP6 DUP2 ADD DUP4 ADD SWAP4 DUP4 DUP2 ADD SWAP3 POP DUP8 DUP6 GT ISZERO PUSH3 0x56C JUMPI PUSH1 0x0 DUP1 REVERT JUMPDEST DUP4 DUP8 ADD SWAP2 POP JUMPDEST DUP5 DUP3 LT ISZERO PUSH3 0x58D JUMPI DUP2 MLOAD DUP4 MSTORE SWAP2 DUP4 ADD SWAP2 SWAP1 DUP4 ADD SWAP1 PUSH3 0x572 JUMP JUMPDEST SWAP8 SWAP7 POP POP POP POP POP POP POP JUMP JUMPDEST PUSH1 0x0 DUP1 PUSH1 0x0 DUP1 PUSH1 0x0 DUP1 PUSH1 0xC0 DUP8 DUP10 SUB SLT ISZERO PUSH3 0x5B2 JUMPI PUSH1 0x0 DUP1 REVERT JUMPDEST PUSH3 0x5BD DUP8 PUSH3 0x4C1 JUMP JUMPDEST PUSH1 0x20 DUP9 ADD MLOAD SWAP1 SWAP7 POP PUSH1 0x1 PUSH1 0x1 PUSH1 0x40 SHL SUB DUP1 DUP3 GT ISZERO PUSH3 0x5DB JUMPI PUSH1 0x0 DUP1 REVERT JUMPDEST PUSH3 0x5E9 DUP11 DUP4 DUP12 ADD PUSH3 0x4F4 JUMP JUMPDEST SWAP7 POP PUSH1 0x40 DUP10 ADD MLOAD SWAP2 POP DUP1 DUP3 GT ISZERO PUSH3 0x600 JUMPI PUSH1 0x0 DUP1 REVERT JUMPDEST POP PUSH3 0x60F DUP10 DUP3 DUP11 ADD PUSH3 0x4F4 JUMP JUMPDEST SWAP5 POP POP PUSH1 0x60 DUP8 ADD MLOAD SWAP3 POP PUSH3 0x627 PUSH1 0x80 DUP9 ADD PUSH3 0x4C1 JUMP JUMPDEST SWAP2 POP PUSH3 0x637 PUSH1 0xA0 DUP9 ADD PUSH3 0x4C1 JUMP JUMPDEST SWAP1 POP SWAP3 SWAP6 POP SWAP3 SWAP6 POP SWAP3 SWAP6 JUMP JUMPDEST PUSH1 0x1 DUP2 DUP2 SHR SWAP1 DUP3 AND DUP1 PUSH3 0x658 JUMPI PUSH1 0x7F DUP3 AND SWAP2 POP JUMPDEST PUSH1 0x20 DUP3 LT DUP2 SUB PUSH3 0x679 JUMPI PUSH4 0x4E487B71 PUSH1 0xE0 SHL PUSH1 0x0 MSTORE PUSH1 0x22 PUSH1 0x4 MSTORE PUSH1 0x24 PUSH1 0x0 REVERT JUMPDEST POP SWAP2 SWAP1 POP JUMP JUMPDEST PUSH1 0x1F DUP3 GT ISZERO PUSH3 0x6CD JUMPI PUSH1 0x0 DUP2 DUP2 MSTORE PUSH1 0x20 DUP2 KECCAK256 PUSH1 0x1F DUP6 ADD PUSH1 0x5 SHR DUP2 ADD PUSH1 0x20 DUP7 LT ISZERO PUSH3 0x6A8 JUMPI POP DUP1 JUMPDEST PUSH1 0x1F DUP6 ADD PUSH1 0x5 SHR DUP3 ADD SWAP2 POP JUMPDEST DUP2 DUP2 LT ISZERO PUSH3 0x6C9 JUMPI DUP3 DUP2 SSTORE PUSH1 0x1 ADD PUSH3 0x6B4 JUMP JUMPDEST POP POP POP JUMPDEST POP POP POP JUMP JUMPDEST DUP2 MLOAD PUSH1 0x1 PUSH1 0x1 PUSH1 0x40 SHL SUB DUP2 GT ISZERO PUSH3 0x6EE JUMPI PUSH3 0x6EE PUSH3 0x4DE JUMP JUMPDEST PUSH3 0x706 DUP2 PUSH3 0x6FF DUP5 SLOAD PUSH3 0x643 JUMP JUMPDEST DUP5 PUSH3 0x67F JUMP JUMPDEST PUSH1 0x20 DUP1 PUSH1 0x1F DUP4 GT PUSH1 0x1 DUP2 EQ PUSH3 0x73E JUMPI PUSH1 0x0 DUP5 ISZERO PUSH3 0x725 JUMPI POP DUP6 DUP4 ADD MLOAD JUMPDEST PUSH1 0x0 NOT PUSH1 0x3 DUP7 SWAP1 SHL SHR NOT AND PUSH1 0x1 DUP6 SWAP1 SHL OR DUP6 SSTORE PUSH3 0x6C9 JUMP JUMPDEST PUSH1 0x0 DUP6 DUP2 MSTORE PUSH1 0x20 DUP2 KECCAK256 PUSH1 0x1F NOT DUP7 AND SWAP2 JUMPDEST DUP3 DUP2 LT ISZERO PUSH3 0x76F JUMPI DUP9 DUP7 ADD MLOAD DUP3 SSTORE SWAP5 DUP5 ADD SWAP5 PUSH1 0x1 SWAP1 SWAP2 ADD SWAP1 DUP5 ADD PUSH3 0x74E JUMP JUMPDEST POP DUP6 DUP3 LT ISZERO PUSH3 0x78E JUMPI DUP8 DUP6 ADD MLOAD PUSH1 0x0 NOT PUSH1 0x3 DUP9 SWAP1 SHL PUSH1 0xF8 AND SHR NOT AND DUP2 SSTORE JUMPDEST POP POP POP POP POP PUSH1 0x1 SWAP1 DUP2 SHL ADD SWAP1 SSTORE POP JUMP JUMPDEST PUSH4 0x4E487B71 PUSH1 0xE0 SHL PUSH1 0x0 MSTORE PUSH1 0x11 PUSH1 0x4 MSTORE PUSH1 0x24 PUSH1 0x0 REVERT JUMPDEST DUP2 DUP2 SUB DUP2 DUP2 GT ISZERO PUSH3 0x7CA JUMPI PUSH3 0x7CA PUSH3 0x79E JUMP JUMPDEST SWAP3 SWAP2 POP POP JUMP JUMPDEST DUP1 DUP3 ADD DUP1 DUP3 GT ISZERO PUSH3 0x7CA JUMPI PUSH3 0x7CA PUSH3 0x79E JUMP JUMPDEST PUSH4 0x4E487B71 PUSH1 0xE0 SHL PUSH1 0x0 MSTORE PUSH1 0x32 PUSH1 0x4 MSTORE PUSH1 0x24 PUSH1 0x0 REVERT JUMPDEST PUSH1 0x0 PUSH1 0x1 DUP3 ADD PUSH3 0x811 JUMPI PUSH3 0x811 PUSH3 0x79E JUMP JUMPDEST POP PUSH1 0x1 ADD SWAP1 JUMP JUMPDEST PUSH1 0x80 MLOAD PUSH1 0xA0 MLOAD PUSH1 0xC0 MLOAD PUSH1 0xE0 MLOAD PUSH2 0x100 MLOAD PUSH2 0x120 MLOAD PUSH2 0x40B2 PUSH3 0x8D1 PUSH1 0x0 CODECOPY PUSH1 0x0 PUSH2 0x9BC ADD MSTORE PUSH1 0x0 DUP2 DUP2 PUSH2 0x4E9 ADD MSTORE PUSH2 0x106F ADD MSTORE PUSH1 0x0 DUP2 DUP2 PUSH2 0x693 ADD MSTORE PUSH2 0x1854 ADD MSTORE PUSH1 0x0 DUP2 DUP2 PUSH2 0x3DB ADD MSTORE DUP2 DUP2 PUSH2 0xA28 ADD MSTORE DUP2 DUP2 PUSH2 0x127F ADD MSTORE DUP2 DUP2 PUSH2 0x1945 ADD MSTORE PUSH2 0x1AF9 ADD MSTORE PUSH1 0x0 DUP2 DUP2 PUSH2 0x5EF ADD MSTORE PUSH2 0x232E ADD MSTORE PUSH1 0x0 DUP2 DUP2 PUSH2 0x49F ADD MSTORE DUP2 DUP2 PUSH2 0x74F ADD MSTORE DUP2 DUP2 PUSH2 0xBF2 ADD MSTORE DUP2 DUP2 PUSH2 0xCDE ADD MSTORE DUP2 DUP2 PUSH2 0xDFF ADD MSTORE DUP2 DUP2 PUSH2 0xECF ADD MSTORE DUP2 DUP2 PUSH2 0x16C4 ADD MSTORE DUP2 DUP2 PUSH2 0x1915 ADD MSTORE PUSH2 0x2F79 ADD MSTORE PUSH2 0x40B2 PUSH1 0x0 RETURN INVALID PUSH1 0x80 PUSH1 0x40 MSTORE CALLVALUE DUP1 ISZERO PUSH2 0x10 JUMPI PUSH1 0x0 DUP1 REVERT JUMPDEST POP PUSH1 0x4 CALLDATASIZE LT PUSH2 0x27F JUMPI PUSH1 0x0 CALLDATALOAD PUSH1 0xE0 SHR DUP1 PUSH4 0x70A08231 GT PUSH2 0x15C JUMPI DUP1 PUSH4 0xA22CB465 GT PUSH2 0xCE JUMPI DUP1 PUSH4 0xDF0030EF GT PUSH2 0x87 JUMPI DUP1 PUSH4 0xDF0030EF EQ PUSH2 0x5D7 JUMPI DUP1 PUSH4 0xE3AF6D0A EQ PUSH2 0x5EA JUMPI DUP1 PUSH4 0xE985E9C5 EQ PUSH2 0x611 JUMPI DUP1 PUSH4 0xECEF9201 EQ PUSH2 0x64D JUMPI DUP1 PUSH4 0xEE8743D7 EQ PUSH2 0x660 JUMPI DUP1 PUSH4 0xF5878B9B EQ PUSH2 0x675 JUMPI PUSH1 0x0 DUP1 REVERT JUMPDEST DUP1 PUSH4 0xA22CB465 EQ PUSH2 0x563 JUMPI DUP1 PUSH4 0xB88D4FDE EQ PUSH2 0x576 JUMPI DUP1 PUSH4 0xBA3EC741 EQ PUSH2 0x589 JUMPI DUP1 PUSH4 0xBD333033 EQ PUSH2 0x591 JUMPI DUP1 PUSH4 0xC87B56DD EQ PUSH2 0x5B1 JUMPI DUP1 PUSH4 0xD0D5F5B4 EQ PUSH2 0x5C4 JUMPI PUSH1 0x0 DUP1 REVERT JUMPDEST DUP1 PUSH4 0x928DD2A7 GT PUSH2 0x120 JUMPI DUP1 PUSH4 0x928DD2A7 EQ PUSH2 0x50D JUMPI DUP1 PUSH4 0x95D89B41 EQ PUSH2 0x515 JUMPI DUP1 PUSH4 0x98BDF6F5 EQ PUSH2 0x51D JUMPI DUP1 PUSH4 0x9DC29FAC EQ PUSH2 0x526 JUMPI DUP1 PUSH4 0xA126AD1E EQ PUSH2 0x539 JUMPI DUP1 PUSH4 0xA1A53FA1 EQ PUSH2 0x543 JUMPI PUSH1 0x0 DUP1 REVERT JUMPDEST DUP1 PUSH4 0x70A08231 EQ PUSH2 0x487 JUMPI DUP1 PUSH4 0x71141A58 EQ PUSH2 0x49A JUMPI DUP1 PUSH4 0x74A1DFF2 EQ PUSH2 0x4C1 JUMPI DUP1 PUSH4 0x89776EB0 EQ PUSH2 0x4D4 JUMPI DUP1 PUSH4 0x8DA5CB5B EQ PUSH2 0x4E7 JUMPI PUSH1 0x0 DUP1 REVERT JUMPDEST DUP1 PUSH4 0x42842E0E GT PUSH2 0x1F5 JUMPI DUP1 PUSH4 0x543746B1 GT PUSH2 0x1B9 JUMPI DUP1 PUSH4 0x543746B1 EQ PUSH2 0x419 JUMPI DUP1 PUSH4 0x55EE08BA EQ PUSH2 0x42C JUMPI DUP1 PUSH4 0x572B6C05 EQ PUSH2 0x434 JUMPI DUP1 PUSH4 0x5C41D2FE EQ PUSH2 0x456 JUMPI DUP1 PUSH4 0x6352211E EQ PUSH2 0x469 JUMPI DUP1 PUSH4 0x700107AF EQ PUSH2 0x47C JUMPI PUSH1 0x0 DUP1 REVERT JUMPDEST DUP1 PUSH4 0x42842E0E EQ PUSH2 0x3A3 JUMPI DUP1 PUSH4 0x443AA533 EQ PUSH2 0x3B6 JUMPI DUP1 PUSH4 0x498A4C2D EQ PUSH2 0x3D6 JUMPI DUP1 PUSH4 0x4D4B2BE4 EQ PUSH2 0x3FD JUMPI DUP1 PUSH4 0x53B18DE4 EQ PUSH2 0x406 JUMPI PUSH1 0x0 DUP1 REVERT JUMPDEST DUP1 PUSH4 0x95EA7B3 GT PUSH2 0x247 JUMPI DUP1 PUSH4 0x95EA7B3 EQ PUSH2 0x318 JUMPI DUP1 PUSH4 0x19CBA6B4 EQ PUSH2 0x32B JUMPI DUP1 PUSH4 0x23B872DD EQ PUSH2 0x340 JUMPI DUP1 PUSH4 0x2A55205A EQ PUSH2 0x353 JUMPI DUP1 PUSH4 0x41B169F3 EQ PUSH2 0x385 JUMPI DUP1 PUSH4 0x41F43434 EQ PUSH2 0x38E JUMPI PUSH1 0x0 DUP1 REVERT JUMPDEST DUP1 PUSH4 0x1BB4116 EQ PUSH2 0x284 JUMPI DUP1 PUSH4 0x1FFC9A7 EQ PUSH2 0x299 JUMPI DUP1 PUSH4 0x44DB8BA EQ PUSH2 0x2C1 JUMPI DUP1 PUSH4 0x6FDDE03 EQ PUSH2 0x2D8 JUMPI DUP1 PUSH4 0x81812FC EQ PUSH2 0x2ED JUMPI JUMPDEST PUSH1 0x0 DUP1 REVERT JUMPDEST PUSH2 0x297 PUSH2 0x292 CALLDATASIZE PUSH1 0x4 PUSH2 0x365B JUMP JUMPDEST PUSH2 0x688 JUMP JUMPDEST STOP JUMPDEST PUSH2 0x2AC PUSH2 0x2A7 CALLDATASIZE PUSH1 0x4 PUSH2 0x368A JUMP JUMPDEST PUSH2 0x801 JUMP JUMPDEST PUSH1 0x40 MLOAD SWAP1 ISZERO ISZERO DUP2 MSTORE PUSH1 0x20 ADD JUMPDEST PUSH1 0x40 MLOAD DUP1 SWAP2 SUB SWAP1 RETURN JUMPDEST PUSH2 0x2CA PUSH2 0x1F4 DUP2 JUMP JUMPDEST PUSH1 0x40 MLOAD SWAP1 DUP2 MSTORE PUSH1 0x20 ADD PUSH2 0x2B8 JUMP JUMPDEST PUSH2 0x2E0 PUSH2 0x862 JUMP JUMPDEST PUSH1 0x40 MLOAD PUSH2 0x2B8 SWAP2 SWAP1 PUSH2 0x36F7 JUMP JUMPDEST PUSH2 0x300 PUSH2 0x2FB CALLDATASIZE PUSH1 0x4 PUSH2 0x365B JUMP JUMPDEST PUSH2 0x8F4 JUMP JUMPDEST PUSH1 0x40 MLOAD PUSH1 0x1 PUSH1 0x1 PUSH1 0xA0 SHL SUB SWAP1 SWAP2 AND DUP2 MSTORE PUSH1 0x20 ADD PUSH2 0x2B8 JUMP JUMPDEST PUSH2 0x297 PUSH2 0x326 CALLDATASIZE PUSH1 0x4 PUSH2 0x371F JUMP JUMPDEST PUSH2 0x91B JUMP JUMPDEST PUSH2 0x333 PUSH2 0x92F JUMP JUMPDEST PUSH1 0x40 MLOAD PUSH2 0x2B8 SWAP2 SWAP1 PUSH2 0x374B JUMP JUMPDEST PUSH2 0x297 PUSH2 0x34E CALLDATASIZE PUSH1 0x4 PUSH2 0x378F JUMP JUMPDEST PUSH2 0x98F JUMP JUMPDEST PUSH2 0x366 PUSH2 0x361 CALLDATASIZE PUSH1 0x4 PUSH2 0x37D0 JUMP JUMPDEST PUSH2 0x9BA JUMP JUMPDEST PUSH1 0x40 DUP1 MLOAD PUSH1 0x1 PUSH1 0x1 PUSH1 0xA0 SHL SUB SWAP1 SWAP4 AND DUP4 MSTORE PUSH1 0x20 DUP4 ADD SWAP2 SWAP1 SWAP2 MSTORE ADD PUSH2 0x2B8 JUMP JUMPDEST PUSH2 0x2CA PUSH2 0x960 DUP2 JUMP JUMPDEST PUSH2 0x300 PUSH14 0xAAEB6D7670E522A718067333CD4E DUP2 JUMP JUMPDEST PUSH2 0x297 PUSH2 0x3B1 CALLDATASIZE PUSH1 0x4 PUSH2 0x378F JUMP JUMPDEST PUSH2 0x9FF JUMP JUMPDEST PUSH2 0x2CA PUSH2 0x3C4 CALLDATASIZE PUSH1 0x4 PUSH2 0x365B JUMP JUMPDEST PUSH1 0xD PUSH1 0x20 MSTORE PUSH1 0x0 SWAP1 DUP2 MSTORE PUSH1 0x40 SWAP1 KECCAK256 SLOAD DUP2 JUMP JUMPDEST PUSH2 0x2CA PUSH32 0x0 DUP2 JUMP JUMPDEST PUSH2 0x2CA PUSH2 0x2711 DUP2 JUMP JUMPDEST PUSH2 0x2CA PUSH2 0x414 CALLDATASIZE PUSH1 0x4 PUSH2 0x37F2 JUMP JUMPDEST PUSH2 0xA24 JUMP JUMPDEST PUSH2 0x297 PUSH2 0x427 CALLDATASIZE PUSH1 0x4 PUSH2 0x371F JUMP JUMPDEST PUSH2 0xE71 JUMP JUMPDEST PUSH2 0x2CA PUSH1 0x25 DUP2 JUMP JUMPDEST PUSH2 0x2AC PUSH2 0x442 CALLDATASIZE PUSH1 0x4 PUSH2 0x381E JUMP JUMPDEST PUSH1 0x0 SLOAD PUSH1 0x1 PUSH1 0x1 PUSH1 0xA0 SHL SUB SWAP2 DUP3 AND SWAP2 AND EQ SWAP1 JUMP JUMPDEST PUSH2 0x297 PUSH2 0x464 CALLDATASIZE PUSH1 0x4 PUSH2 0x381E JUMP JUMPDEST PUSH2 0x1064 JUMP JUMPDEST PUSH2 0x300 PUSH2 0x477 CALLDATASIZE PUSH1 0x4 PUSH2 0x365B JUMP JUMPDEST PUSH2 0x1157 JUMP JUMPDEST PUSH2 0x2CA PUSH4 0x1E13380 DUP2 JUMP JUMPDEST PUSH2 0x2CA PUSH2 0x495 CALLDATASIZE PUSH1 0x4 PUSH2 0x381E JUMP JUMPDEST PUSH2 0x11B7 JUMP JUMPDEST PUSH2 0x300 PUSH32 0x0 DUP2 JUMP JUMPDEST PUSH2 0x2CA PUSH2 0x4CF CALLDATASIZE PUSH1 0x4 PUSH2 0x365B JUMP JUMPDEST PUSH2 0x123D JUMP JUMPDEST PUSH2 0x2CA PUSH2 0x4E2 CALLDATASIZE PUSH1 0x4 PUSH2 0x365B JUMP JUMPDEST PUSH2 0x125E JUMP JUMPDEST PUSH32 0x0 PUSH2 0x300 JUMP JUMPDEST PUSH2 0x297 PUSH1 0x0 DUP1 SELFDESTRUCT JUMPDEST PUSH2 0x2E0 PUSH2 0x126E JUMP JUMPDEST PUSH2 0x2CA PUSH1 0x7 SLOAD DUP2 JUMP JUMPDEST PUSH2 0x297 PUSH2 0x534 CALLDATASIZE PUSH1 0x4 PUSH2 0x371F JUMP JUMPDEST PUSH2 0x127D JUMP JUMPDEST PUSH2 0x2CA PUSH3 0x93A80 DUP2 JUMP JUMPDEST PUSH2 0x2CA PUSH2 0x551 CALLDATASIZE PUSH1 0x4 PUSH2 0x365B JUMP JUMPDEST PUSH1 0xB PUSH1 0x20 MSTORE PUSH1 0x0 SWAP1 DUP2 MSTORE PUSH1 0x40 SWAP1 KECCAK256 SLOAD DUP2 JUMP JUMPDEST PUSH2 0x297 PUSH2 0x571 CALLDATASIZE PUSH1 0x4 PUSH2 0x3849 JUMP JUMPDEST PUSH2 0x15FF JUMP JUMPDEST PUSH2 0x297 PUSH2 0x584 CALLDATASIZE PUSH1 0x4 PUSH2 0x38F1 JUMP JUMPDEST PUSH2 0x1613 JUMP JUMPDEST PUSH2 0x2E0 PUSH2 0x1640 JUMP JUMPDEST PUSH2 0x2CA PUSH2 0x59F CALLDATASIZE PUSH1 0x4 PUSH2 0x365B JUMP JUMPDEST PUSH1 0xC PUSH1 0x20 MSTORE PUSH1 0x0 SWAP1 DUP2 MSTORE PUSH1 0x40 SWAP1 KECCAK256 SLOAD DUP2 JUMP JUMPDEST PUSH2 0x2E0 PUSH2 0x5BF CALLDATASIZE PUSH1 0x4 PUSH2 0x365B JUMP JUMPDEST PUSH2 0x165C JUMP JUMPDEST PUSH2 0x2CA PUSH2 0x5D2 CALLDATASIZE PUSH1 0x4 PUSH2 0x365B JUMP JUMPDEST PUSH2 0x1839 JUMP JUMPDEST PUSH2 0x297 PUSH2 0x5E5 CALLDATASIZE PUSH1 0x4 PUSH2 0x381E JUMP JUMPDEST PUSH2 0x1849 JUMP JUMPDEST PUSH2 0x2CA PUSH32 0x0 DUP2 JUMP JUMPDEST PUSH2 0x2AC PUSH2 0x61F CALLDATASIZE PUSH1 0x4 PUSH2 0x39A0 JUMP JUMPDEST PUSH1 0x1 PUSH1 0x1 PUSH1 0xA0 SHL SUB SWAP2 DUP3 AND PUSH1 0x0 SWAP1 DUP2 MSTORE PUSH1 0x6 PUSH1 0x20 SWAP1 DUP2 MSTORE PUSH1 0x40 DUP1 DUP4 KECCAK256 SWAP4 SWAP1 SWAP5 AND DUP3 MSTORE SWAP2 SWAP1 SWAP2 MSTORE KECCAK256 SLOAD PUSH1 0xFF AND SWAP1 JUMP JUMPDEST PUSH2 0x2CA PUSH2 0x65B CALLDATASIZE PUSH1 0x4 PUSH2 0x37D0 JUMP JUMPDEST PUSH2 0x1941 JUMP JUMPDEST PUSH2 0x2AC PUSH2 0x66E CALLDATASIZE PUSH1 0x4 PUSH2 0x365B JUMP JUMPDEST PUSH2 0x2711 GT SWAP1 JUMP JUMPDEST PUSH2 0x297 PUSH2 0x683 CALLDATASIZE PUSH1 0x4 PUSH2 0x39CE JUMP JUMPDEST PUSH2 0x1AF7 JUMP JUMPDEST CALLER PUSH1 0x1 PUSH1 0x1 PUSH1 0xA0 SHL SUB PUSH32 0x0 AND EQ PUSH2 0x6FF JUMPI PUSH1 0x40 MLOAD PUSH3 0x461BCD PUSH1 0xE5 SHL DUP2 MSTORE PUSH1 0x20 PUSH1 0x4 DUP3 ADD MSTORE PUSH1 0x17 PUSH1 0x24 DUP3 ADD MSTORE PUSH23 0x15115608141C9BDE1E4E881D5B985D5D1A1BDC9A5E9959 PUSH1 0x4A SHL PUSH1 0x44 DUP3 ADD MSTORE PUSH1 0x64 ADD JUMPDEST PUSH1 0x40 MLOAD DUP1 SWAP2 SUB SWAP1 REVERT JUMPDEST PUSH1 0x0 DUP2 PUSH1 0x40 MLOAD PUSH1 0x24 ADD PUSH2 0x714 SWAP2 DUP2 MSTORE PUSH1 0x20 ADD SWAP1 JUMP JUMPDEST PUSH1 0x40 DUP1 MLOAD PUSH1 0x1F NOT DUP2 DUP5 SUB ADD DUP2 MSTORE SWAP2 DUP2 MSTORE PUSH1 0x20 DUP3 ADD DUP1 MLOAD PUSH1 0x1 PUSH1 0x1 PUSH1 0xE0 SHL SUB AND PUSH4 0x9FF054DF PUSH1 0xE0 SHL OR SWAP1 MSTORE MLOAD SWAP1 SWAP2 POP PUSH1 0x0 SWAP1 PUSH1 0x1 PUSH1 0x1 PUSH1 0xA0 SHL SUB PUSH32 0x0 AND SWAP1 PUSH2 0x77B SWAP1 DUP5 SWAP1 PUSH2 0x3A0F JUMP JUMPDEST PUSH1 0x0 PUSH1 0x40 MLOAD DUP1 DUP4 SUB DUP2 PUSH1 0x0 DUP7 GAS CALL SWAP2 POP POP RETURNDATASIZE DUP1 PUSH1 0x0 DUP2 EQ PUSH2 0x7B8 JUMPI PUSH1 0x40 MLOAD SWAP2 POP PUSH1 0x1F NOT PUSH1 0x3F RETURNDATASIZE ADD AND DUP3 ADD PUSH1 0x40 MSTORE RETURNDATASIZE DUP3 MSTORE RETURNDATASIZE PUSH1 0x0 PUSH1 0x20 DUP5 ADD RETURNDATACOPY PUSH2 0x7BD JUMP JUMPDEST PUSH1 0x60 SWAP2 POP JUMPDEST POP POP SWAP1 POP DUP1 PUSH2 0x7FC JUMPI PUSH1 0x40 MLOAD PUSH3 0x461BCD PUSH1 0xE5 SHL DUP2 MSTORE PUSH1 0x20 PUSH1 0x4 DUP3 ADD MSTORE PUSH1 0xB PUSH1 0x24 DUP3 ADD MSTORE PUSH11 0x18D85B1B0819985A5B1959 PUSH1 0xAA SHL PUSH1 0x44 DUP3 ADD MSTORE PUSH1 0x64 ADD PUSH2 0x6F6 JUMP JUMPDEST POP POP POP JUMP JUMPDEST PUSH1 0x0 PUSH1 0x1 PUSH1 0x1 PUSH1 0xE0 SHL SUB NOT DUP3 AND PUSH4 0x543746B1 PUSH1 0xE0 SHL EQ DUP1 PUSH2 0x832 JUMPI POP PUSH1 0x1 PUSH1 0x1 PUSH1 0xE0 SHL SUB NOT DUP3 AND PUSH4 0x152A902D PUSH1 0xE1 SHL EQ JUMPDEST DUP1 PUSH2 0x84D JUMPI POP PUSH1 0x1 PUSH1 0x1 PUSH1 0xE0 SHL SUB NOT DUP3 AND PUSH4 0x572B6C05 PUSH1 0xE0 SHL EQ JUMPDEST DUP1 PUSH2 0x85C JUMPI POP PUSH2 0x85C DUP3 PUSH2 0x1FDE JUMP JUMPDEST SWAP3 SWAP2 POP POP JUMP JUMPDEST PUSH1 0x60 PUSH1 0x1 DUP1 SLOAD PUSH2 0x871 SWAP1 PUSH2 0x3A2B JUMP JUMPDEST DUP1 PUSH1 0x1F ADD PUSH1 0x20 DUP1 SWAP2 DIV MUL PUSH1 0x20 ADD PUSH1 0x40 MLOAD SWAP1 DUP2 ADD PUSH1 0x40 MSTORE DUP1 SWAP3 SWAP2 SWAP1 DUP2 DUP2 MSTORE PUSH1 0x20 ADD DUP3 DUP1 SLOAD PUSH2 0x89D SWAP1 PUSH2 0x3A2B JUMP JUMPDEST DUP1 ISZERO PUSH2 0x8EA JUMPI DUP1 PUSH1 0x1F LT PUSH2 0x8BF JUMPI PUSH2 0x100 DUP1 DUP4 SLOAD DIV MUL DUP4 MSTORE SWAP2 PUSH1 0x20 ADD SWAP2 PUSH2 0x8EA JUMP JUMPDEST DUP3 ADD SWAP2 SWAP1 PUSH1 0x0 MSTORE PUSH1 0x20 PUSH1 0x0 KECCAK256 SWAP1 JUMPDEST DUP2 SLOAD DUP2 MSTORE SWAP1 PUSH1 0x1 ADD SWAP1 PUSH1 0x20 ADD DUP1 DUP4 GT PUSH2 0x8CD JUMPI DUP3 SWAP1 SUB PUSH1 0x1F AND DUP3 ADD SWAP2 JUMPDEST POP POP POP POP POP SWAP1 POP SWAP1 JUMP JUMPDEST PUSH1 0x0 PUSH2 0x8FF DUP3 PUSH2 0x202E JUMP JUMPDEST POP PUSH1 0x0 SWAP1 DUP2 MSTORE PUSH1 0x5 PUSH1 0x20 MSTORE PUSH1 0x40 SWAP1 KECCAK256 SLOAD PUSH1 0x1 PUSH1 0x1 PUSH1 0xA0 SHL SUB AND SWAP1 JUMP JUMPDEST DUP2 PUSH2 0x925 DUP2 PUSH2 0x2090 JUMP JUMPDEST PUSH2 0x7FC DUP4 DUP4 PUSH2 0x2149 JUMP JUMPDEST CALLER PUSH1 0x0 SWAP1 DUP2 MSTORE PUSH1 0xF PUSH1 0x20 SWAP1 DUP2 MSTORE PUSH1 0x40 SWAP2 DUP3 SWAP1 KECCAK256 DUP1 SLOAD DUP4 MLOAD DUP2 DUP5 MUL DUP2 ADD DUP5 ADD SWAP1 SWAP5 MSTORE DUP1 DUP5 MSTORE PUSH1 0x60 SWAP4 SWAP3 DUP4 ADD DUP3 DUP3 DUP1 ISZERO PUSH2 0x8EA JUMPI PUSH1 0x20 MUL DUP3 ADD SWAP2 SWAP1 PUSH1 0x0 MSTORE PUSH1 0x20 PUSH1 0x0 KECCAK256 SWAP1 JUMPDEST DUP2 SLOAD DUP2 MSTORE PUSH1 0x20 ADD SWAP1 PUSH1 0x1 ADD SWAP1 DUP1 DUP4 GT PUSH2 0x972 JUMPI POP POP POP POP POP SWAP1 POP SWAP1 JUMP JUMPDEST DUP3 PUSH1 0x1 PUSH1 0x1 PUSH1 0xA0 SHL SUB DUP2 AND CALLER EQ PUSH2 0x9A9 JUMPI PUSH2 0x9A9 CALLER PUSH2 0x2090 JUMP JUMPDEST PUSH2 0x9B4 DUP5 DUP5 DUP5 PUSH2 0x226B JUMP JUMPDEST POP POP POP POP JUMP JUMPDEST PUSH32 0x0 PUSH1 0x0 PUSH2 0x2710 PUSH2 0x9EC PUSH2 0x1F4 DUP6 PUSH2 0x3A7B JUMP JUMPDEST PUSH2 0x9F6 SWAP2 SWAP1 PUSH2 0x3AA8 JUMP JUMPDEST SWAP1 POP SWAP3 POP SWAP3 SWAP1 POP JUMP JUMPDEST DUP3 PUSH1 0x1 PUSH1 0x1 PUSH1 0xA0 SHL SUB DUP2 AND CALLER EQ PUSH2 0xA19 JUMPI PUSH2 0xA19 CALLER PUSH2 0x2090 JUMP JUMPDEST PUSH2 0x9B4 DUP5 DUP5 DUP5 PUSH2 0x22A3 JUMP JUMPDEST PUSH1 0x0 PUSH32 0x0 NUMBER GT PUSH2 0xA65 JUMPI PUSH1 0x40 MLOAD PUSH3 0x461BCD PUSH1 0xE5 SHL DUP2 MSTORE PUSH1 0x4 ADD PUSH2 0x6F6 SWAP1 PUSH2 0x3ABC JUMP JUMPDEST PUSH1 0x0 PUSH2 0xA73 PUSH1 0x12 PUSH1 0xA PUSH2 0x3BD0 JUMP JUMPDEST PUSH2 0xA7D SWAP1 DUP5 PUSH2 0x3A7B JUMP JUMPDEST SWAP1 POP PUSH1 0x0 NOT PUSH1 0xE SLOAD EQ PUSH2 0xAD2 JUMPI PUSH1 0x40 MLOAD PUSH3 0x461BCD PUSH1 0xE5 SHL DUP2 MSTORE PUSH1 0x20 PUSH1 0x4 DUP3 ADD MSTORE PUSH1 0x1B PUSH1 0x24 DUP3 ADD MSTORE PUSH32 0x5445584E46543A207265656E7472616E63792064657465637465640000000000 PUSH1 0x44 DUP3 ADD MSTORE PUSH1 0x64 ADD PUSH2 0x6F6 JUMP JUMPDEST PUSH1 0x0 DUP6 GT PUSH2 0xB1A JUMPI PUSH1 0x40 MLOAD PUSH3 0x461BCD PUSH1 0xE5 SHL DUP2 MSTORE PUSH1 0x20 PUSH1 0x4 DUP3 ADD MSTORE PUSH1 0x15 PUSH1 0x24 DUP3 ADD MSTORE PUSH21 0x1511561391950E88125B1B1959D85B0818DBDD5B9D PUSH1 0x5A SHL PUSH1 0x44 DUP3 ADD MSTORE PUSH1 0x64 ADD PUSH2 0x6F6 JUMP JUMPDEST PUSH1 0x0 DUP5 GT PUSH2 0xB61 JUMPI PUSH1 0x40 MLOAD PUSH3 0x461BCD PUSH1 0xE5 SHL DUP2 MSTORE PUSH1 0x20 PUSH1 0x4 DUP3 ADD MSTORE PUSH1 0x14 PUSH1 0x24 DUP3 ADD MSTORE PUSH20 0x5445584E46543A20496C6C6567616C207465726D PUSH1 0x60 SHL PUSH1 0x44 DUP3 ADD MSTORE PUSH1 0x64 ADD PUSH2 0x6F6 JUMP JUMPDEST PUSH1 0x1 PUSH1 0x8 PUSH1 0x1 DUP2 SLOAD DUP2 LT PUSH2 0xB77 JUMPI PUSH2 0xB77 PUSH2 0x3BDC JUMP JUMPDEST SWAP1 PUSH1 0x0 MSTORE PUSH1 0x20 PUSH1 0x0 KECCAK256 ADD SLOAD PUSH2 0xB8C SWAP2 SWAP1 PUSH2 0x3BF2 JUMP JUMPDEST DUP4 GT PUSH2 0xBDA JUMPI PUSH1 0x40 MLOAD PUSH3 0x461BCD PUSH1 0xE5 SHL DUP2 MSTORE PUSH1 0x20 PUSH1 0x4 DUP3 ADD MSTORE PUSH1 0x1E PUSH1 0x24 DUP3 ADD MSTORE PUSH32 0x5445584E46543A206E6F7420656E6F756768206275726E20616D6F756E740000 PUSH1 0x44 DUP3 ADD MSTORE PUSH1 0x64 ADD PUSH2 0x6F6 JUMP JUMPDEST PUSH1 0x40 MLOAD PUSH4 0x70A08231 PUSH1 0xE0 SHL DUP2 MSTORE CALLER PUSH1 0x4 DUP3 ADD MSTORE PUSH1 0x0 SWAP1 PUSH32 0x0 PUSH1 0x1 PUSH1 0x1 PUSH1 0xA0 SHL SUB AND SWAP1 PUSH4 0x70A08231 SWAP1 PUSH1 0x24 ADD PUSH1 0x20 PUSH1 0x40 MLOAD DUP1 DUP4 SUB DUP2 DUP7 GAS STATICCALL ISZERO DUP1 ISZERO PUSH2 0xC41 JUMPI RETURNDATASIZE PUSH1 0x0 DUP1 RETURNDATACOPY RETURNDATASIZE PUSH1 0x0 REVERT JUMPDEST POP POP POP POP PUSH1 0x40 MLOAD RETURNDATASIZE PUSH1 0x1F NOT PUSH1 0x1F DUP3 ADD AND DUP3 ADD DUP1 PUSH1 0x40 MSTORE POP DUP2 ADD SWAP1 PUSH2 0xC65 SWAP2 SWAP1 PUSH2 0x3C05 JUMP JUMPDEST SWAP1 POP PUSH2 0xC72 PUSH1 0x1 DUP4 PUSH2 0x3BF2 JUMP JUMPDEST DUP2 GT PUSH2 0xCC0 JUMPI PUSH1 0x40 MLOAD PUSH3 0x461BCD PUSH1 0xE5 SHL DUP2 MSTORE PUSH1 0x20 PUSH1 0x4 DUP3 ADD MSTORE PUSH1 0x1E PUSH1 0x24 DUP3 ADD MSTORE PUSH32 0x5445584E46543A206E6F7420656E6F7567682058454E2062616C616E63650000 PUSH1 0x44 DUP3 ADD MSTORE PUSH1 0x64 ADD PUSH2 0x6F6 JUMP JUMPDEST PUSH1 0x40 MLOAD PUSH4 0x6EB1769F PUSH1 0xE1 SHL DUP2 MSTORE CALLER PUSH1 0x4 DUP3 ADD MSTORE ADDRESS PUSH1 0x24 DUP3 ADD MSTORE PUSH1 0x0 SWAP1 PUSH32 0x0 PUSH1 0x1 PUSH1 0x1 PUSH1 0xA0 SHL SUB AND SWAP1 PUSH4 0xDD62ED3E SWAP1 PUSH1 0x44 ADD PUSH1 0x20 PUSH1 0x40 MLOAD DUP1 DUP4 SUB DUP2 DUP7 GAS STATICCALL ISZERO DUP1 ISZERO PUSH2 0xD2D JUMPI RETURNDATASIZE PUSH1 0x0 DUP1 RETURNDATACOPY RETURNDATASIZE PUSH1 0x0 REVERT JUMPDEST POP POP POP POP PUSH1 0x40 MLOAD RETURNDATASIZE PUSH1 0x1F NOT PUSH1 0x1F DUP3 ADD AND DUP3 ADD DUP1 PUSH1 0x40 MSTORE POP DUP2 ADD SWAP1 PUSH2 0xD51 SWAP2 SWAP1 PUSH2 0x3C05 JUMP JUMPDEST SWAP1 POP PUSH2 0xD5E PUSH1 0x1 DUP5 PUSH2 0x3BF2 JUMP JUMPDEST DUP2 GT PUSH2 0xDC5 JUMPI PUSH1 0x40 MLOAD PUSH3 0x461BCD PUSH1 0xE5 SHL DUP2 MSTORE PUSH1 0x20 PUSH1 0x4 DUP3 ADD MSTORE PUSH1 0x30 PUSH1 0x24 DUP3 ADD MSTORE PUSH32 0x5445584E46543A206E6F7420656E6F7567682058454E2062616C616E63652061 PUSH1 0x44 DUP3 ADD MSTORE PUSH16 0x38383937BB32B2103337B910313AB937 PUSH1 0x81 SHL PUSH1 0x64 DUP3 ADD MSTORE PUSH1 0x84 ADD PUSH2 0x6F6 JUMP JUMPDEST PUSH2 0xDCF DUP8 DUP7 PUSH2 0x22BE JUMP JUMPDEST PUSH1 0xE DUP2 SWAP1 SSTORE POP PUSH2 0xDE3 DUP8 DUP8 PUSH1 0xE SLOAD DUP9 PUSH2 0x254A JUMP JUMPDEST PUSH1 0x40 MLOAD PUSH4 0x2770A7EB PUSH1 0xE2 SHL DUP2 MSTORE CALLER PUSH1 0x4 DUP3 ADD MSTORE PUSH1 0x24 DUP2 ADD DUP5 SWAP1 MSTORE PUSH32 0x0 PUSH1 0x1 PUSH1 0x1 PUSH1 0xA0 SHL SUB AND SWAP1 PUSH4 0x9DC29FAC SWAP1 PUSH1 0x44 ADD PUSH1 0x0 PUSH1 0x40 MLOAD DUP1 DUP4 SUB DUP2 PUSH1 0x0 DUP8 DUP1 EXTCODESIZE ISZERO DUP1 ISZERO PUSH2 0xE4B JUMPI PUSH1 0x0 DUP1 REVERT JUMPDEST POP GAS CALL ISZERO DUP1 ISZERO PUSH2 0xE5F JUMPI RETURNDATASIZE PUSH1 0x0 DUP1 RETURNDATACOPY RETURNDATASIZE PUSH1 0x0 REVERT JUMPDEST POP POP PUSH1 0xE SLOAD SWAP10 SWAP9 POP POP POP POP POP POP POP POP POP JUMP JUMPDEST PUSH1 0x0 NOT PUSH1 0xE SLOAD SUB PUSH2 0xEC4 JUMPI PUSH1 0x40 MLOAD PUSH3 0x461BCD PUSH1 0xE5 SHL DUP2 MSTORE PUSH1 0x20 PUSH1 0x4 DUP3 ADD MSTORE PUSH1 0x1E PUSH1 0x24 DUP3 ADD MSTORE PUSH32 0x5445584E46543A20696C6C6567616C2063616C6C6261636B2073746174650000 PUSH1 0x44 DUP3 ADD MSTORE PUSH1 0x64 ADD PUSH2 0x6F6 JUMP JUMPDEST CALLER PUSH1 0x1 PUSH1 0x1 PUSH1 0xA0 SHL SUB PUSH32 0x0 AND EQ PUSH2 0xF3C JUMPI PUSH1 0x40 MLOAD PUSH3 0x461BCD PUSH1 0xE5 SHL DUP2 MSTORE PUSH1 0x20 PUSH1 0x4 DUP3 ADD MSTORE PUSH1 0x1F PUSH1 0x24 DUP3 ADD MSTORE PUSH32 0x5445584E46543A20696C6C6567616C2063616C6C6261636B2063616C6C657200 PUSH1 0x44 DUP3 ADD MSTORE PUSH1 0x64 ADD PUSH2 0x6F6 JUMP JUMPDEST PUSH1 0xE SLOAD PUSH1 0x1 PUSH1 0x1 PUSH1 0xA0 SHL SUB DUP4 AND PUSH1 0x0 SWAP1 DUP2 MSTORE PUSH1 0xF PUSH1 0x20 MSTORE PUSH1 0x40 SWAP1 KECCAK256 PUSH2 0xF60 SWAP2 PUSH2 0x26EC JUMP JUMPDEST PUSH1 0xE DUP1 SLOAD PUSH1 0x0 SWAP1 DUP2 MSTORE PUSH1 0xC PUSH1 0x20 MSTORE PUSH1 0x40 SWAP1 KECCAK256 DUP3 SWAP1 SSTORE SLOAD PUSH2 0xF81 SWAP1 DUP4 SWAP1 PUSH2 0x2766 JUMP JUMPDEST PUSH1 0xE SLOAD PUSH1 0x0 SWAP1 DUP2 MSTORE PUSH1 0xB PUSH1 0x20 SWAP1 DUP2 MSTORE PUSH1 0x40 DUP1 DUP4 KECCAK256 SLOAD PUSH1 0xD SWAP1 SWAP3 MSTORE SWAP2 DUP3 SWAP1 KECCAK256 SLOAD SWAP2 MLOAD PUSH4 0x346BA941 PUSH1 0xE0 SHL DUP2 MSTORE PUSH1 0x4 DUP2 ADD SWAP3 SWAP1 SWAP3 MSTORE PUSH1 0x1 PUSH1 0x1 PUSH1 0xA0 SHL SUB DUP5 AND SWAP2 PUSH32 0xFBB2077593B3594FD0AC359A2D898268191A74843AAF1BA3F517B5514A1B0711 SWAP2 SWAP1 PUSH20 0x0 SWAP1 PUSH4 0x346BA941 SWAP1 PUSH1 0x24 ADD PUSH1 0x20 PUSH1 0x40 MLOAD DUP1 DUP4 SUB DUP2 DUP7 GAS DELEGATECALL ISZERO DUP1 ISZERO PUSH2 0x101E JUMPI RETURNDATASIZE PUSH1 0x0 DUP1 RETURNDATACOPY RETURNDATASIZE PUSH1 0x0 REVERT JUMPDEST POP POP POP POP PUSH1 0x40 MLOAD RETURNDATASIZE PUSH1 0x1F NOT PUSH1 0x1F DUP3 ADD AND DUP3 ADD DUP1 PUSH1 0x40 MSTORE POP DUP2 ADD SWAP1 PUSH2 0x1042 SWAP2 SWAP1 PUSH2 0x3C05 JUMP JUMPDEST PUSH1 0x40 DUP1 MLOAD SWAP3 DUP4 MSTORE PUSH1 0x20 DUP4 ADD SWAP2 SWAP1 SWAP2 MSTORE ADD PUSH1 0x40 MLOAD DUP1 SWAP2 SUB SWAP1 LOG2 POP POP PUSH1 0x0 NOT PUSH1 0xE SSTORE JUMP JUMPDEST CALLER PUSH1 0x1 PUSH1 0x1 PUSH1 0xA0 SHL SUB PUSH32 0x0 AND EQ PUSH2 0x10DC JUMPI PUSH1 0x40 MLOAD PUSH3 0x461BCD PUSH1 0xE5 SHL DUP2 MSTORE PUSH1 0x20 PUSH1 0x4 DUP3 ADD MSTORE PUSH1 0x17 PUSH1 0x24 DUP3 ADD MSTORE PUSH32 0x5445584E46543A206E6F7420616E206465706C6F796572000000000000000000 PUSH1 0x44 DUP3 ADD MSTORE PUSH1 0x64 ADD PUSH2 0x6F6 JUMP JUMPDEST PUSH1 0x0 SLOAD PUSH1 0x1 PUSH1 0x1 PUSH1 0xA0 SHL SUB AND ISZERO PUSH2 0x1135 JUMPI PUSH1 0x40 MLOAD PUSH3 0x461BCD PUSH1 0xE5 SHL DUP2 MSTORE PUSH1 0x20 PUSH1 0x4 DUP3 ADD DUP2 SWAP1 MSTORE PUSH1 0x24 DUP3 ADD MSTORE PUSH32 0x5445584E46543A20466F7277617264657220697320616C726561647920736574 PUSH1 0x44 DUP3 ADD MSTORE PUSH1 0x64 ADD PUSH2 0x6F6 JUMP JUMPDEST PUSH1 0x0 DUP1 SLOAD PUSH1 0x1 PUSH1 0x1 PUSH1 0xA0 SHL SUB NOT AND PUSH1 0x1 PUSH1 0x1 PUSH1 0xA0 SHL SUB SWAP3 SWAP1 SWAP3 AND SWAP2 SWAP1 SWAP2 OR SWAP1 SSTORE JUMP JUMPDEST PUSH1 0x0 DUP2 DUP2 MSTORE PUSH1 0x3 PUSH1 0x20 MSTORE PUSH1 0x40 DUP2 KECCAK256 SLOAD PUSH1 0x1 PUSH1 0x1 PUSH1 0xA0 SHL SUB AND DUP1 PUSH2 0x85C JUMPI PUSH1 0x40 MLOAD PUSH3 0x461BCD PUSH1 0xE5 SHL DUP2 MSTORE PUSH1 0x20 PUSH1 0x4 DUP3 ADD MSTORE PUSH1 0x18 PUSH1 0x24 DUP3 ADD MSTORE PUSH24 0x115490CDCC8C4E881A5B9D985B1A59081D1BDAD95B881251 PUSH1 0x42 SHL PUSH1 0x44 DUP3 ADD MSTORE PUSH1 0x64 ADD PUSH2 0x6F6 JUMP JUMPDEST PUSH1 0x0 PUSH1 0x1 PUSH1 0x1 PUSH1 0xA0 SHL SUB DUP3 AND PUSH2 0x1221 JUMPI PUSH1 0x40 MLOAD PUSH3 0x461BCD PUSH1 0xE5 SHL DUP2 MSTORE PUSH1 0x20 PUSH1 0x4 DUP3 ADD MSTORE PUSH1 0x29 PUSH1 0x24 DUP3 ADD MSTORE PUSH32 0x4552433732313A2061646472657373207A65726F206973206E6F742061207661 PUSH1 0x44 DUP3 ADD MSTORE PUSH9 0x3634B21037BBB732B9 PUSH1 0xB9 SHL PUSH1 0x64 DUP3 ADD MSTORE PUSH1 0x84 ADD PUSH2 0x6F6 JUMP JUMPDEST POP PUSH1 0x1 PUSH1 0x1 PUSH1 0xA0 SHL SUB AND PUSH1 0x0 SWAP1 DUP2 MSTORE PUSH1 0x4 PUSH1 0x20 MSTORE PUSH1 0x40 SWAP1 KECCAK256 SLOAD SWAP1 JUMP JUMPDEST PUSH1 0x9 DUP2 DUP2 SLOAD DUP2 LT PUSH2 0x124D JUMPI PUSH1 0x0 DUP1 REVERT JUMPDEST PUSH1 0x0 SWAP2 DUP3 MSTORE PUSH1 0x20 SWAP1 SWAP2 KECCAK256 ADD SLOAD SWAP1 POP DUP2 JUMP JUMPDEST PUSH1 0xA DUP2 DUP2 SLOAD DUP2 LT PUSH2 0x124D JUMPI PUSH1 0x0 DUP1 REVERT JUMPDEST PUSH1 0x60 PUSH1 0x2 DUP1 SLOAD PUSH2 0x871 SWAP1 PUSH2 0x3A2B JUMP JUMPDEST PUSH32 0x0 NUMBER GT PUSH2 0x12BC JUMPI PUSH1 0x40 MLOAD PUSH3 0x461BCD PUSH1 0xE5 SHL DUP2 MSTORE PUSH1 0x4 ADD PUSH2 0x6F6 SWAP1 PUSH2 0x3ABC JUMP JUMPDEST PUSH1 0x0 NOT PUSH1 0xE SLOAD EQ PUSH2 0x130F JUMPI PUSH1 0x40 MLOAD PUSH3 0x461BCD PUSH1 0xE5 SHL DUP2 MSTORE PUSH1 0x20 PUSH1 0x4 DUP3 ADD MSTORE PUSH1 0x1B PUSH1 0x24 DUP3 ADD MSTORE PUSH32 0x5445584E46543A205265656E7472616E63792064657465637465640000000000 PUSH1 0x44 DUP3 ADD MSTORE PUSH1 0x64 ADD PUSH2 0x6F6 JUMP JUMPDEST PUSH2 0x131C PUSH1 0x1 PUSH1 0x0 NOT PUSH2 0x3BF2 JUMP JUMPDEST PUSH1 0xE SSTORE PUSH1 0x40 MLOAD PUSH4 0x1FFC9A7 PUSH1 0xE0 SHL DUP2 MSTORE PUSH4 0x543746B1 PUSH1 0xE0 SHL PUSH1 0x4 DUP3 ADD MSTORE CALLER SWAP1 PUSH4 0x1FFC9A7 SWAP1 PUSH1 0x24 ADD PUSH1 0x20 PUSH1 0x40 MLOAD DUP1 DUP4 SUB DUP2 DUP7 GAS STATICCALL ISZERO DUP1 ISZERO PUSH2 0x1361 JUMPI RETURNDATASIZE PUSH1 0x0 DUP1 RETURNDATACOPY RETURNDATASIZE PUSH1 0x0 REVERT JUMPDEST POP POP POP POP PUSH1 0x40 MLOAD RETURNDATASIZE PUSH1 0x1F NOT PUSH1 0x1F DUP3 ADD AND DUP3 ADD DUP1 PUSH1 0x40 MSTORE POP DUP2 ADD SWAP1 PUSH2 0x1385 SWAP2 SWAP1 PUSH2 0x3C1E JUMP JUMPDEST PUSH2 0x13DF JUMPI PUSH1 0x40 MLOAD PUSH3 0x461BCD PUSH1 0xE5 SHL DUP2 MSTORE PUSH1 0x20 PUSH1 0x4 DUP3 ADD MSTORE PUSH1 0x25 PUSH1 0x24 DUP3 ADD MSTORE PUSH32 0x5445584E4654206275726E3A206E6F74206120737570706F7274656420636F6E PUSH1 0x44 DUP3 ADD MSTORE PUSH5 0x1D1C9858DD PUSH1 0xDA SHL PUSH1 0x64 DUP3 ADD MSTORE PUSH1 0x84 ADD PUSH2 0x6F6 JUMP JUMPDEST PUSH1 0x1 PUSH1 0x1 PUSH1 0xA0 SHL SUB DUP3 AND PUSH2 0x1440 JUMPI PUSH1 0x40 MLOAD PUSH3 0x461BCD PUSH1 0xE5 SHL DUP2 MSTORE PUSH1 0x20 PUSH1 0x4 DUP3 ADD MSTORE PUSH1 0x22 PUSH1 0x24 DUP3 ADD MSTORE PUSH32 0x5445584E4654206275726E3A20696C6C6567616C206F776E6572206164647265 PUSH1 0x44 DUP3 ADD MSTORE PUSH2 0x7373 PUSH1 0xF0 SHL PUSH1 0x64 DUP3 ADD MSTORE PUSH1 0x84 ADD PUSH2 0x6F6 JUMP JUMPDEST PUSH1 0x0 DUP2 GT PUSH2 0x1490 JUMPI PUSH1 0x40 MLOAD PUSH3 0x461BCD PUSH1 0xE5 SHL DUP2 MSTORE PUSH1 0x20 PUSH1 0x4 DUP3 ADD MSTORE PUSH1 0x1C PUSH1 0x24 DUP3 ADD MSTORE PUSH32 0x5445584E4654206275726E3A20696C6C6567616C20746F6B656E496400000000 PUSH1 0x44 DUP3 ADD MSTORE PUSH1 0x64 ADD PUSH2 0x6F6 JUMP JUMPDEST PUSH2 0x149A CALLER DUP3 PUSH2 0x2780 JUMP JUMPDEST PUSH2 0x14F2 JUMPI PUSH1 0x40 MLOAD PUSH3 0x461BCD PUSH1 0xE5 SHL DUP2 MSTORE PUSH1 0x20 PUSH1 0x4 DUP3 ADD MSTORE PUSH1 0x24 DUP1 DUP3 ADD MSTORE PUSH32 0x58454E4654206275726E3A206E6F7420616E20617070726F766564206F706572 PUSH1 0x44 DUP3 ADD MSTORE PUSH4 0x30BA37B9 PUSH1 0xE1 SHL PUSH1 0x64 DUP3 ADD MSTORE PUSH1 0x84 ADD PUSH2 0x6F6 JUMP JUMPDEST DUP2 PUSH1 0x1 PUSH1 0x1 PUSH1 0xA0 SHL SUB AND PUSH2 0x1505 DUP3 PUSH2 0x1157 JUMP JUMPDEST PUSH1 0x1 PUSH1 0x1 PUSH1 0xA0 SHL SUB AND EQ PUSH2 0x156A JUMPI PUSH1 0x40 MLOAD PUSH3 0x461BCD PUSH1 0xE5 SHL DUP2 MSTORE PUSH1 0x20 PUSH1 0x4 DUP3 ADD MSTORE PUSH1 0x26 PUSH1 0x24 DUP3 ADD MSTORE PUSH32 0x5445584E4654206275726E3A2075736572206973206E6F7420746F6B656E4964 PUSH1 0x44 DUP3 ADD MSTORE PUSH6 0x1037BBB732B9 PUSH1 0xD1 SHL PUSH1 0x64 DUP3 ADD MSTORE PUSH1 0x84 ADD PUSH2 0x6F6 JUMP JUMPDEST PUSH1 0x1 PUSH1 0x1 PUSH1 0xA0 SHL SUB DUP3 AND PUSH1 0x0 SWAP1 DUP2 MSTORE PUSH1 0xF PUSH1 0x20 MSTORE PUSH1 0x40 SWAP1 KECCAK256 PUSH2 0x158C SWAP1 DUP3 PUSH2 0x27FF JUMP JUMPDEST PUSH2 0x1595 DUP2 PUSH2 0x28E4 JUMP JUMPDEST PUSH1 0x40 MLOAD PUSH4 0x543746B1 PUSH1 0xE0 SHL DUP2 MSTORE PUSH1 0x1 PUSH1 0x1 PUSH1 0xA0 SHL SUB DUP4 AND PUSH1 0x4 DUP3 ADD MSTORE PUSH1 0x24 DUP2 ADD DUP3 SWAP1 MSTORE CALLER SWAP1 PUSH4 0x543746B1 SWAP1 PUSH1 0x44 ADD PUSH1 0x0 PUSH1 0x40 MLOAD DUP1 DUP4 SUB DUP2 PUSH1 0x0 DUP8 DUP1 EXTCODESIZE ISZERO DUP1 ISZERO PUSH2 0x15DD JUMPI PUSH1 0x0 DUP1 REVERT JUMPDEST POP GAS CALL ISZERO DUP1 ISZERO PUSH2 0x15F1 JUMPI RETURNDATASIZE PUSH1 0x0 DUP1 RETURNDATACOPY RETURNDATASIZE PUSH1 0x0 REVERT JUMPDEST POP POP PUSH1 0x0 NOT PUSH1 0xE SSTORE POP POP POP POP JUMP JUMPDEST DUP2 PUSH2 0x1609 DUP2 PUSH2 0x2090 JUMP JUMPDEST PUSH2 0x7FC DUP4 DUP4 PUSH2 0x2993 JUMP JUMPDEST DUP4 PUSH1 0x1 PUSH1 0x1 PUSH1 0xA0 SHL SUB DUP2 AND CALLER EQ PUSH2 0x162D JUMPI PUSH2 0x162D CALLER PUSH2 0x2090 JUMP JUMPDEST PUSH2 0x1639 DUP6 DUP6 DUP6 DUP6 PUSH2 0x29A5 JUMP JUMPDEST POP POP POP POP POP JUMP JUMPDEST PUSH1 0x40 MLOAD DUP1 PUSH1 0x60 ADD PUSH1 0x40 MSTORE DUP1 PUSH1 0x2E DUP2 MSTORE PUSH1 0x20 ADD PUSH2 0x400F PUSH1 0x2E SWAP2 CODECOPY DUP2 JUMP JUMPDEST PUSH1 0x0 DUP2 DUP2 MSTORE PUSH1 0xB PUSH1 0x20 SWAP1 DUP2 MSTORE PUSH1 0x40 DUP1 DUP4 KECCAK256 SLOAD PUSH1 0xD DUP4 MSTORE DUP2 DUP5 KECCAK256 SLOAD PUSH1 0xC SWAP1 SWAP4 MSTORE SWAP3 KECCAK256 SLOAD PUSH1 0x60 SWAP3 SWAP2 SWAP1 DUP3 PUSH2 0x168D JUMPI PUSH1 0x0 DUP1 REVERT JUMPDEST PUSH1 0x0 PUSH2 0x1698 DUP7 PUSH2 0x29DE JUMP JUMPDEST PUSH1 0x40 MLOAD PUSH4 0x1B9345FD PUSH1 0xE0 SHL DUP2 MSTORE PUSH1 0x4 DUP2 ADD DUP9 SWAP1 MSTORE PUSH1 0x24 DUP2 ADD DUP7 SWAP1 MSTORE PUSH1 0x44 DUP2 ADD DUP6 SWAP1 MSTORE PUSH1 0x1 PUSH1 0x1 PUSH1 0xA0 SHL SUB PUSH32 0x0 AND PUSH1 0x64 DUP3 ADD MSTORE PUSH1 0x84 DUP2 ADD DUP5 SWAP1 MSTORE PUSH2 0x175D SWAP1 PUSH20 0x0 SWAP1 PUSH4 0x1B9345FD SWAP1 PUSH1 0xA4 ADD PUSH1 0x0 PUSH1 0x40 MLOAD DUP1 DUP4 SUB DUP2 DUP7 GAS DELEGATECALL ISZERO DUP1 ISZERO PUSH2 0x1730 JUMPI RETURNDATASIZE PUSH1 0x0 DUP1 RETURNDATACOPY RETURNDATASIZE PUSH1 0x0 REVERT JUMPDEST POP POP POP POP PUSH1 0x40 MLOAD RETURNDATASIZE PUSH1 0x0 DUP3 RETURNDATACOPY PUSH1 0x1F RETURNDATASIZE SWAP1 DUP2 ADD PUSH1 0x1F NOT AND DUP3 ADD PUSH1 0x40 MSTORE PUSH2 0x1758 SWAP2 SWAP1 DUP2 ADD SWAP1 PUSH2 0x3C3B JUMP JUMPDEST PUSH2 0x2ADF JUMP JUMPDEST PUSH1 0x40 MLOAD PUSH4 0x3C4A25E9 PUSH1 0xE2 SHL DUP2 MSTORE PUSH1 0x4 DUP2 ADD DUP8 SWAP1 MSTORE PUSH1 0x24 DUP2 ADD DUP6 SWAP1 MSTORE PUSH1 0x44 DUP2 ADD DUP7 SWAP1 MSTORE PUSH20 0x0 SWAP1 PUSH4 0xF12897A4 SWAP1 PUSH1 0x64 ADD PUSH1 0x0 PUSH1 0x40 MLOAD DUP1 DUP4 SUB DUP2 DUP7 GAS DELEGATECALL ISZERO DUP1 ISZERO PUSH2 0x17BB JUMPI RETURNDATASIZE PUSH1 0x0 DUP1 RETURNDATACOPY RETURNDATASIZE PUSH1 0x0 REVERT JUMPDEST POP POP POP POP PUSH1 0x40 MLOAD RETURNDATASIZE PUSH1 0x0 DUP3 RETURNDATACOPY PUSH1 0x1F RETURNDATASIZE SWAP1 DUP2 ADD PUSH1 0x1F NOT AND DUP3 ADD PUSH1 0x40 MSTORE PUSH2 0x17E3 SWAP2 SWAP1 DUP2 ADD SWAP1 PUSH2 0x3C3B JUMP JUMPDEST PUSH1 0x40 MLOAD PUSH1 0x20 ADD PUSH2 0x17F5 SWAP4 SWAP3 SWAP2 SWAP1 PUSH2 0x3CB2 JUMP JUMPDEST PUSH1 0x40 MLOAD PUSH1 0x20 DUP2 DUP4 SUB SUB DUP2 MSTORE SWAP1 PUSH1 0x40 MSTORE SWAP1 POP PUSH2 0x180F DUP2 PUSH2 0x2ADF JUMP JUMPDEST PUSH1 0x40 MLOAD PUSH1 0x20 ADD PUSH2 0x181F SWAP2 SWAP1 PUSH2 0x3DDC JUMP JUMPDEST PUSH1 0x40 MLOAD PUSH1 0x20 DUP2 DUP4 SUB SUB DUP2 MSTORE SWAP1 PUSH1 0x40 MSTORE SWAP5 POP POP POP POP POP SWAP2 SWAP1 POP JUMP JUMPDEST PUSH1 0x8 DUP2 DUP2 SLOAD DUP2 LT PUSH2 0x124D JUMPI PUSH1 0x0 DUP1 REVERT JUMPDEST CALLER PUSH1 0x1 PUSH1 0x1 PUSH1 0xA0 SHL SUB PUSH32 0x0 AND EQ PUSH2 0x18BB JUMPI PUSH1 0x40 MLOAD PUSH3 0x461BCD PUSH1 0xE5 SHL DUP2 MSTORE PUSH1 0x20 PUSH1 0x4 DUP3 ADD MSTORE PUSH1 0x17 PUSH1 0x24 DUP3 ADD MSTORE PUSH23 0x15115608141C9BDE1E4E881D5B985D5D1A1BDC9A5E9959 PUSH1 0x4A SHL PUSH1 0x44 DUP3 ADD MSTORE PUSH1 0x64 ADD PUSH2 0x6F6 JUMP JUMPDEST PUSH1 0x40 MLOAD PUSH1 0x1 PUSH1 0x1 PUSH1 0xA0 SHL SUB DUP3 AND PUSH1 0x24 DUP3 ADD MSTORE PUSH1 0x64 PUSH1 0x44 DUP3 ADD DUP2 SWAP1 MSTORE PUSH1 0x0 SWAP2 ADD PUSH1 0x40 DUP1 MLOAD PUSH1 0x1F NOT DUP2 DUP5 SUB ADD DUP2 MSTORE SWAP2 DUP2 MSTORE PUSH1 0x20 DUP3 ADD DUP1 MLOAD PUSH1 0x1 PUSH1 0x1 PUSH1 0xE0 SHL SUB AND PUSH4 0x1C560305 PUSH1 0xE0 SHL OR SWAP1 MSTORE MLOAD SWAP1 SWAP2 POP PUSH1 0x0 SWAP1 PUSH1 0x1 PUSH1 0x1 PUSH1 0xA0 SHL SUB PUSH32 0x0 AND SWAP1 PUSH2 0x77B SWAP1 DUP5 SWAP1 PUSH2 0x3A0F JUMP JUMPDEST PUSH1 0x0 PUSH32 0x0 NUMBER GT PUSH2 0x1982 JUMPI PUSH1 0x40 MLOAD PUSH3 0x461BCD PUSH1 0xE5 SHL DUP2 MSTORE PUSH1 0x4 ADD PUSH2 0x6F6 SWAP1 PUSH2 0x3ABC JUMP JUMPDEST PUSH1 0x0 NOT PUSH1 0xE SLOAD EQ PUSH2 0x19D5 JUMPI PUSH1 0x40 MLOAD PUSH3 0x461BCD PUSH1 0xE5 SHL DUP2 MSTORE PUSH1 0x20 PUSH1 0x4 DUP3 ADD MSTORE PUSH1 0x1B PUSH1 0x24 DUP3 ADD MSTORE PUSH32 0x5445584E46543A207265656E7472616E63792064657465637465640000000000 PUSH1 0x44 DUP3 ADD MSTORE PUSH1 0x64 ADD PUSH2 0x6F6 JUMP JUMPDEST PUSH1 0x0 DUP4 GT PUSH2 0x1A1D JUMPI PUSH1 0x40 MLOAD PUSH3 0x461BCD PUSH1 0xE5 SHL DUP2 MSTORE PUSH1 0x20 PUSH1 0x4 DUP3 ADD MSTORE PUSH1 0x15 PUSH1 0x24 DUP3 ADD MSTORE PUSH21 0x1511561391950E88125B1B1959D85B0818DBDD5B9D PUSH1 0x5A SHL PUSH1 0x44 DUP3 ADD MSTORE PUSH1 0x64 ADD PUSH2 0x6F6 JUMP JUMPDEST PUSH1 0x0 DUP3 GT PUSH2 0x1A64 JUMPI PUSH1 0x40 MLOAD PUSH3 0x461BCD PUSH1 0xE5 SHL DUP2 MSTORE PUSH1 0x20 PUSH1 0x4 DUP3 ADD MSTORE PUSH1 0x14 PUSH1 0x24 DUP3 ADD MSTORE PUSH20 0x5445584E46543A20496C6C6567616C207465726D PUSH1 0x60 SHL PUSH1 0x44 DUP3 ADD MSTORE PUSH1 0x64 ADD PUSH2 0x6F6 JUMP JUMPDEST PUSH2 0x1A6F DUP4 PUSH1 0x0 PUSH2 0x22BE JUMP JUMPDEST PUSH1 0xE DUP2 SWAP1 SSTORE POP PUSH2 0x1A84 DUP4 DUP4 PUSH1 0xE SLOAD PUSH1 0x0 PUSH2 0x254A JUMP JUMPDEST PUSH1 0xE SLOAD CALLER PUSH1 0x0 SWAP1 DUP2 MSTORE PUSH1 0xF PUSH1 0x20 MSTORE PUSH1 0x40 SWAP1 KECCAK256 PUSH2 0x1A9F SWAP2 PUSH2 0x26EC JUMP JUMPDEST PUSH2 0x1AAB CALLER PUSH1 0xE SLOAD PUSH2 0x2766 JUMP JUMPDEST PUSH1 0x40 DUP1 MLOAD DUP5 DUP2 MSTORE PUSH1 0x20 DUP2 ADD DUP5 SWAP1 MSTORE CALLER SWAP2 PUSH32 0xFBB2077593B3594FD0AC359A2D898268191A74843AAF1BA3F517B5514A1B0711 SWAP2 ADD PUSH1 0x40 MLOAD DUP1 SWAP2 SUB SWAP1 LOG2 POP POP PUSH1 0xE DUP1 SLOAD PUSH1 0x0 NOT SWAP1 SWAP2 SSTORE SWAP2 SWAP1 POP JUMP JUMPDEST PUSH32 0x0 NUMBER GT PUSH2 0x1B36 JUMPI PUSH1 0x40 MLOAD PUSH3 0x461BCD PUSH1 0xE5 SHL DUP2 MSTORE PUSH1 0x4 ADD PUSH2 0x6F6 SWAP1 PUSH2 0x3ABC JUMP JUMPDEST PUSH1 0x0 NOT PUSH1 0xE SLOAD EQ PUSH2 0x1B89 JUMPI PUSH1 0x40 MLOAD PUSH3 0x461BCD PUSH1 0xE5 SHL DUP2 MSTORE PUSH1 0x20 PUSH1 0x4 DUP3 ADD MSTORE PUSH1 0x1B PUSH1 0x24 DUP3 ADD MSTORE PUSH32 0x5445584E46543A205265656E7472616E63792064657465637465640000000000 PUSH1 0x44 DUP3 ADD MSTORE PUSH1 0x64 ADD PUSH2 0x6F6 JUMP JUMPDEST PUSH2 0x1B96 PUSH1 0x1 PUSH1 0x0 NOT PUSH2 0x3BF2 JUMP JUMPDEST PUSH1 0xE SSTORE CALLER PUSH2 0x1BA3 DUP4 PUSH2 0x1157 JUMP JUMPDEST PUSH1 0x1 PUSH1 0x1 PUSH1 0xA0 SHL SUB AND EQ PUSH2 0x1BF9 JUMPI PUSH1 0x40 MLOAD PUSH3 0x461BCD PUSH1 0xE5 SHL DUP2 MSTORE PUSH1 0x20 PUSH1 0x4 DUP3 ADD MSTORE PUSH1 0x17 PUSH1 0x24 DUP3 ADD MSTORE PUSH32 0x5445584E46543A20496E636F7272656374206F776E6572000000000000000000 PUSH1 0x44 DUP3 ADD MSTORE PUSH1 0x64 ADD PUSH2 0x6F6 JUMP JUMPDEST PUSH1 0x1 PUSH1 0x1 PUSH1 0xA0 SHL SUB DUP2 AND PUSH2 0x1C4F JUMPI PUSH1 0x40 MLOAD PUSH3 0x461BCD PUSH1 0xE5 SHL DUP2 MSTORE PUSH1 0x20 PUSH1 0x4 DUP3 ADD MSTORE PUSH1 0x17 PUSH1 0x24 DUP3 ADD MSTORE PUSH32 0x5445584E46543A20496C6C6567616C2061646472657373000000000000000000 PUSH1 0x44 DUP3 ADD MSTORE PUSH1 0x64 ADD PUSH2 0x6F6 JUMP JUMPDEST PUSH1 0x0 DUP3 DUP2 MSTORE PUSH1 0xD PUSH1 0x20 MSTORE PUSH1 0x40 SWAP1 DUP2 SWAP1 KECCAK256 SLOAD SWAP1 MLOAD PUSH4 0xE90CDC89 PUSH1 0xE0 SHL DUP2 MSTORE PUSH1 0x4 DUP2 ADD SWAP2 SWAP1 SWAP2 MSTORE PUSH20 0x0 SWAP1 PUSH4 0xE90CDC89 SWAP1 PUSH1 0x24 ADD PUSH1 0x20 PUSH1 0x40 MLOAD DUP1 DUP4 SUB DUP2 DUP7 GAS DELEGATECALL ISZERO DUP1 ISZERO PUSH2 0x1CB0 JUMPI RETURNDATASIZE PUSH1 0x0 DUP1 RETURNDATACOPY RETURNDATASIZE PUSH1 0x0 REVERT JUMPDEST POP POP POP POP PUSH1 0x40 MLOAD RETURNDATASIZE PUSH1 0x1F NOT PUSH1 0x1F DUP3 ADD AND DUP3 ADD DUP1 PUSH1 0x40 MSTORE POP DUP2 ADD SWAP1 PUSH2 0x1CD4 SWAP2 SWAP1 PUSH2 0x3C1E JUMP JUMPDEST ISZERO PUSH2 0x1D21 JUMPI PUSH1 0x40 MLOAD PUSH3 0x461BCD PUSH1 0xE5 SHL DUP2 MSTORE PUSH1 0x20 PUSH1 0x4 DUP3 ADD MSTORE PUSH1 0x18 PUSH1 0x24 DUP3 ADD MSTORE PUSH32 0x5445584E46543A20416C72656164792072656465656D65640000000000000000 PUSH1 0x44 DUP3 ADD MSTORE PUSH1 0x64 ADD PUSH2 0x6F6 JUMP JUMPDEST PUSH1 0x40 MLOAD PUSH1 0x0 SWAP1 PUSH2 0x1D65 SWAP1 PUSH20 0x3D602D80600A3D3981F3363D3D373D3D3D363D73 PUSH1 0x60 SHL SWAP1 ADDRESS PUSH1 0x60 SHL SWAP1 PUSH15 0x5AF43D82803E903D91602B57FD5BF3 PUSH1 0x88 SHL SWAP1 PUSH1 0x20 ADD PUSH2 0x3E21 JUMP JUMPDEST PUSH1 0x40 DUP1 MLOAD PUSH1 0x1F NOT DUP2 DUP5 SUB ADD DUP2 MSTORE SWAP2 DUP2 MSTORE PUSH1 0x0 DUP6 DUP2 MSTORE PUSH1 0xB PUSH1 0x20 MSTORE SWAP1 DUP2 KECCAK256 SLOAD SWAP2 SWAP3 POP SWAP1 PUSH2 0x1D92 SWAP1 PUSH1 0x1 PUSH2 0x3E5E JUMP JUMPDEST PUSH1 0x40 MLOAD PUSH1 0x1 PUSH1 0x1 PUSH1 0xA0 SHL SUB DUP6 AND PUSH1 0x24 DUP3 ADD MSTORE SWAP1 SWAP2 POP PUSH1 0x0 SWAP1 PUSH1 0x44 ADD PUSH1 0x40 DUP1 MLOAD PUSH1 0x1F NOT DUP2 DUP5 SUB ADD DUP2 MSTORE SWAP2 DUP2 MSTORE PUSH1 0x20 DUP1 DUP4 ADD DUP1 MLOAD PUSH1 0x1 PUSH1 0x1 PUSH1 0xE0 SHL SUB SWAP1 DUP2 AND PUSH4 0xDF0030EF PUSH1 0xE0 SHL OR SWAP1 SWAP2 MSTORE DUP3 MLOAD PUSH1 0x4 DUP2 MSTORE PUSH1 0x24 DUP2 ADD SWAP1 SWAP4 MSTORE SWAP1 DUP3 ADD DUP1 MLOAD SWAP1 SWAP2 AND PUSH4 0x928DD2A7 PUSH1 0xE0 SHL OR SWAP1 MSTORE SWAP1 SWAP2 POP PUSH1 0x1 JUMPDEST DUP4 DUP2 LT ISZERO PUSH2 0x1F77 JUMPI PUSH1 0x40 DUP1 MLOAD PUSH1 0x20 DUP1 DUP3 ADD DUP5 SWAP1 MSTORE DUP2 DUP4 ADD DUP11 SWAP1 MSTORE DUP3 MLOAD DUP1 DUP4 SUB DUP5 ADD DUP2 MSTORE PUSH1 0x60 DUP1 DUP5 ADD DUP6 MSTORE DUP2 MLOAD SWAP2 DUP4 ADD SWAP2 SWAP1 SWAP2 KECCAK256 DUP10 MLOAD DUP11 DUP5 ADD KECCAK256 PUSH1 0x1 PUSH1 0x1 PUSH1 0xF8 SHL SUB NOT PUSH1 0x80 DUP7 ADD MSTORE ADDRESS SWAP1 SWAP3 SHL PUSH12 0xFFFFFFFFFFFFFFFFFFFFFFFF NOT AND PUSH1 0x81 DUP6 ADD MSTORE PUSH1 0x95 DUP5 ADD DUP2 SWAP1 MSTORE PUSH1 0xB5 DUP1 DUP6 ADD SWAP3 SWAP1 SWAP3 MSTORE DUP5 MLOAD DUP1 DUP6 SUB SWAP1 SWAP3 ADD DUP3 MSTORE PUSH1 0xD5 SWAP1 SWAP4 ADD SWAP1 SWAP4 MSTORE DUP3 MLOAD SWAP3 DUP2 ADD SWAP3 SWAP1 SWAP3 KECCAK256 DUP6 MLOAD SWAP2 SWAP3 PUSH1 0x0 SWAP3 DUP3 SWAP2 DUP5 SWAP2 DUP3 SWAP2 DUP11 ADD DUP3 DUP6 GAS CALL SWAP3 POP DUP3 PUSH2 0x1EF9 JUMPI PUSH1 0x40 MLOAD PUSH3 0x461BCD PUSH1 0xE5 SHL DUP2 MSTORE PUSH1 0x20 PUSH1 0x4 DUP3 ADD MSTORE PUSH1 0x24 DUP1 DUP3 ADD MSTORE PUSH32 0x5445584E46543A204572726F72207768696C6520636C61696D696E6720726577 PUSH1 0x44 DUP3 ADD MSTORE PUSH4 0x61726473 PUSH1 0xE0 SHL PUSH1 0x64 DUP3 ADD MSTORE PUSH1 0x84 ADD PUSH2 0x6F6 JUMP JUMPDEST PUSH1 0x0 DUP1 DUP8 MLOAD PUSH1 0x20 DUP10 ADD PUSH1 0x0 DUP6 GAS CALL SWAP3 POP DUP3 PUSH2 0x1F60 JUMPI PUSH1 0x40 MLOAD PUSH3 0x461BCD PUSH1 0xE5 SHL DUP2 MSTORE PUSH1 0x20 PUSH1 0x4 DUP3 ADD MSTORE PUSH1 0x21 PUSH1 0x24 DUP3 ADD MSTORE PUSH32 0x5445584E46543A204572726F72207768696C6520706F776572696E6720646F77 PUSH1 0x44 DUP3 ADD MSTORE PUSH1 0x37 PUSH1 0xF9 SHL PUSH1 0x64 DUP3 ADD MSTORE PUSH1 0x84 ADD PUSH2 0x6F6 JUMP JUMPDEST POP POP POP POP DUP1 DUP1 PUSH2 0x1F6F SWAP1 PUSH2 0x3E71 JUMP JUMPDEST SWAP2 POP POP PUSH2 0x1E01 JUMP JUMPDEST POP PUSH1 0x0 DUP7 DUP2 MSTORE PUSH1 0xD PUSH1 0x20 MSTORE PUSH1 0x40 SWAP1 KECCAK256 DUP1 SLOAD PUSH1 0x1 OR SWAP1 SSTORE PUSH1 0x40 DUP1 MLOAD DUP8 DUP2 MSTORE PUSH1 0x1 PUSH1 0x1 PUSH1 0xA0 SHL SUB DUP8 AND PUSH1 0x20 DUP3 ADD MSTORE CALLER SWAP2 PUSH32 0x7AE39CB5FB0BEBB7775F35A0009E0C94F59C2E40C8967AF20842619EDAC4694D SWAP2 ADD PUSH1 0x40 MLOAD DUP1 SWAP2 SUB SWAP1 LOG2 POP POP PUSH1 0x0 NOT PUSH1 0xE SSTORE POP POP POP POP JUMP JUMPDEST PUSH1 0x0 PUSH1 0x1 PUSH1 0x1 PUSH1 0xE0 SHL SUB NOT DUP3 AND PUSH4 0x80AC58CD PUSH1 0xE0 SHL EQ DUP1 PUSH2 0x200F JUMPI POP PUSH1 0x1 PUSH1 0x1 PUSH1 0xE0 SHL SUB NOT DUP3 AND PUSH4 0x5B5E139F PUSH1 0xE0 SHL EQ JUMPDEST DUP1 PUSH2 0x85C JUMPI POP PUSH4 0x1FFC9A7 PUSH1 0xE0 SHL PUSH1 0x1 PUSH1 0x1 PUSH1 0xE0 SHL SUB NOT DUP4 AND EQ PUSH2 0x85C JUMP JUMPDEST PUSH1 0x0 DUP2 DUP2 MSTORE PUSH1 0x3 PUSH1 0x20 MSTORE PUSH1 0x40 SWAP1 KECCAK256 SLOAD PUSH1 0x1 PUSH1 0x1 PUSH1 0xA0 SHL SUB AND PUSH2 0x208D JUMPI PUSH1 0x40 MLOAD PUSH3 0x461BCD PUSH1 0xE5 SHL DUP2 MSTORE PUSH1 0x20 PUSH1 0x4 DUP3 ADD MSTORE PUSH1 0x18 PUSH1 0x24 DUP3 ADD MSTORE PUSH24 0x115490CDCC8C4E881A5B9D985B1A59081D1BDAD95B881251 PUSH1 0x42 SHL PUSH1 0x44 DUP3 ADD MSTORE PUSH1 0x64 ADD PUSH2 0x6F6 JUMP JUMPDEST POP JUMP JUMPDEST PUSH14 0xAAEB6D7670E522A718067333CD4E EXTCODESIZE ISZERO PUSH2 0x208D JUMPI PUSH1 0x40 MLOAD PUSH4 0x3185C44D PUSH1 0xE2 SHL DUP2 MSTORE ADDRESS PUSH1 0x4 DUP3 ADD MSTORE PUSH1 0x1 PUSH1 0x1 PUSH1 0xA0 SHL SUB DUP3 AND PUSH1 0x24 DUP3 ADD MSTORE PUSH14 0xAAEB6D7670E522A718067333CD4E SWAP1 PUSH4 0xC6171134 SWAP1 PUSH1 0x44 ADD PUSH1 0x20 PUSH1 0x40 MLOAD DUP1 DUP4 SUB DUP2 DUP7 GAS STATICCALL ISZERO DUP1 ISZERO PUSH2 0x20FD JUMPI RETURNDATASIZE PUSH1 0x0 DUP1 RETURNDATACOPY RETURNDATASIZE PUSH1 0x0 REVERT JUMPDEST POP POP POP POP PUSH1 0x40 MLOAD RETURNDATASIZE PUSH1 0x1F NOT PUSH1 0x1F DUP3 ADD AND DUP3 ADD DUP1 PUSH1 0x40 MSTORE POP DUP2 ADD SWAP1 PUSH2 0x2121 SWAP2 SWAP1 PUSH2 0x3C1E JUMP JUMPDEST PUSH2 0x208D JUMPI PUSH1 0x40 MLOAD PUSH4 0x3B79C773 PUSH1 0xE2 SHL DUP2 MSTORE PUSH1 0x1 PUSH1 0x1 PUSH1 0xA0 SHL SUB DUP3 AND PUSH1 0x4 DUP3 ADD MSTORE PUSH1 0x24 ADD PUSH2 0x6F6 JUMP JUMPDEST PUSH1 0x0 PUSH2 0x2154 DUP3 PUSH2 0x1157 JUMP JUMPDEST SWAP1 POP DUP1 PUSH1 0x1 PUSH1 0x1 PUSH1 0xA0 SHL SUB AND DUP4 PUSH1 0x1 PUSH1 0x1 PUSH1 0xA0 SHL SUB AND SUB PUSH2 0x21C1 JUMPI PUSH1 0x40 MLOAD PUSH3 0x461BCD PUSH1 0xE5 SHL DUP2 MSTORE PUSH1 0x20 PUSH1 0x4 DUP3 ADD MSTORE PUSH1 0x21 PUSH1 0x24 DUP3 ADD MSTORE PUSH32 0x4552433732313A20617070726F76616C20746F2063757272656E74206F776E65 PUSH1 0x44 DUP3 ADD MSTORE PUSH1 0x39 PUSH1 0xF9 SHL PUSH1 0x64 DUP3 ADD MSTORE PUSH1 0x84 ADD PUSH2 0x6F6 JUMP JUMPDEST DUP1 PUSH1 0x1 PUSH1 0x1 PUSH1 0xA0 SHL SUB AND PUSH2 0x21D3 PUSH2 0x2C32 JUMP JUMPDEST PUSH1 0x1 PUSH1 0x1 PUSH1 0xA0 SHL SUB AND EQ DUP1 PUSH2 0x21EF JUMPI POP PUSH2 0x21EF DUP2 PUSH2 0x61F PUSH2 0x2C32 JUMP JUMPDEST PUSH2 0x2261 JUMPI PUSH1 0x40 MLOAD PUSH3 0x461BCD PUSH1 0xE5 SHL DUP2 MSTORE PUSH1 0x20 PUSH1 0x4 DUP3 ADD MSTORE PUSH1 0x3E PUSH1 0x24 DUP3 ADD MSTORE PUSH32 0x4552433732313A20617070726F76652063616C6C6572206973206E6F7420746F PUSH1 0x44 DUP3 ADD MSTORE PUSH32 0x6B656E206F776E6572206E6F7220617070726F76656420666F7220616C6C0000 PUSH1 0x64 DUP3 ADD MSTORE PUSH1 0x84 ADD PUSH2 0x6F6 JUMP JUMPDEST PUSH2 0x7FC DUP4 DUP4 PUSH2 0x2C41 JUMP JUMPDEST PUSH2 0x227C PUSH2 0x2276 PUSH2 0x2C32 JUMP JUMPDEST DUP3 PUSH2 0x2780 JUMP JUMPDEST PUSH2 0x2298 JUMPI PUSH1 0x40 MLOAD PUSH3 0x461BCD PUSH1 0xE5 SHL DUP2 MSTORE PUSH1 0x4 ADD PUSH2 0x6F6 SWAP1 PUSH2 0x3E8A JUMP JUMPDEST PUSH2 0x7FC DUP4 DUP4 DUP4 PUSH2 0x2CAF JUMP JUMPDEST PUSH2 0x7FC DUP4 DUP4 DUP4 PUSH1 0x40 MLOAD DUP1 PUSH1 0x20 ADD PUSH1 0x40 MSTORE DUP1 PUSH1 0x0 DUP2 MSTORE POP PUSH2 0x1613 JUMP JUMPDEST PUSH1 0x0 DUP1 PUSH2 0x22CA DUP4 PUSH2 0x2E5C JUMP JUMPDEST SWAP1 POP DUP1 PUSH1 0x1 SUB PUSH2 0x23BC JUMPI PUSH1 0x25 DUP5 GT PUSH2 0x2324 JUMPI PUSH1 0x40 MLOAD PUSH3 0x461BCD PUSH1 0xE5 SHL DUP2 MSTORE PUSH1 0x20 PUSH1 0x4 DUP3 ADD MSTORE PUSH1 0x1B PUSH1 0x24 DUP3 ADD MSTORE PUSH32 0x5445584E46543A20756E6465722072657120564D5520636F756E740000000000 PUSH1 0x44 DUP3 ADD MSTORE PUSH1 0x64 ADD PUSH2 0x6F6 JUMP JUMPDEST PUSH2 0x2352 PUSH4 0x1E13380 PUSH32 0x0 PUSH2 0x3E5E JUMP JUMPDEST TIMESTAMP LT PUSH2 0x23A0 JUMPI PUSH1 0x40 MLOAD PUSH3 0x461BCD PUSH1 0xE5 SHL DUP2 MSTORE PUSH1 0x20 PUSH1 0x4 DUP3 ADD MSTORE PUSH1 0x1B PUSH1 0x24 DUP3 ADD MSTORE PUSH32 0x58454E46543A206C696D697465642074696D6520657870697265640000000000 PUSH1 0x44 DUP3 ADD MSTORE PUSH1 0x64 ADD PUSH2 0x6F6 JUMP JUMPDEST PUSH1 0x7 DUP1 SLOAD SWAP1 PUSH1 0x0 PUSH2 0x23B0 DUP4 PUSH2 0x3E71 JUMP JUMPDEST SWAP2 SWAP1 POP SSTORE SWAP2 POP POP PUSH2 0x85C JUMP JUMPDEST PUSH1 0x1 DUP2 GT ISZERO PUSH2 0x252E JUMPI CALLER ORIGIN EQ PUSH2 0x2427 JUMPI PUSH1 0x40 MLOAD PUSH3 0x461BCD PUSH1 0xE5 SHL DUP2 MSTORE PUSH1 0x20 PUSH1 0x4 DUP3 ADD MSTORE PUSH1 0x2A PUSH1 0x24 DUP3 ADD MSTORE PUSH32 0x5445584E46543A206F6E6C7920454F4120616C6C6F77656420666F7220746869 PUSH1 0x44 DUP3 ADD MSTORE PUSH10 0x732063617465676F7279 PUSH1 0xB0 SHL PUSH1 0x64 DUP3 ADD MSTORE PUSH1 0x84 ADD PUSH2 0x6F6 JUMP JUMPDEST PUSH1 0x25 DUP5 GT PUSH2 0x2477 JUMPI PUSH1 0x40 MLOAD PUSH3 0x461BCD PUSH1 0xE5 SHL DUP2 MSTORE PUSH1 0x20 PUSH1 0x4 DUP3 ADD MSTORE PUSH1 0x1B PUSH1 0x24 DUP3 ADD MSTORE PUSH32 0x5445584E46543A20756E6465722072657120564D5520636F756E740000000000 PUSH1 0x44 DUP3 ADD MSTORE PUSH1 0x64 ADD PUSH2 0x6F6 JUMP JUMPDEST PUSH1 0x9 DUP2 DUP2 SLOAD DUP2 LT PUSH2 0x248A JUMPI PUSH2 0x248A PUSH2 0x3BDC JUMP JUMPDEST SWAP1 PUSH1 0x0 MSTORE PUSH1 0x20 PUSH1 0x0 KECCAK256 ADD SLOAD PUSH1 0x1 PUSH2 0x24A1 SWAP2 SWAP1 PUSH2 0x3E5E JUMP JUMPDEST PUSH1 0xA DUP3 DUP2 SLOAD DUP2 LT PUSH2 0x24B4 JUMPI PUSH2 0x24B4 PUSH2 0x3BDC JUMP JUMPDEST SWAP1 PUSH1 0x0 MSTORE PUSH1 0x20 PUSH1 0x0 KECCAK256 ADD SLOAD LT PUSH2 0x2505 JUMPI PUSH1 0x40 MLOAD PUSH3 0x461BCD PUSH1 0xE5 SHL DUP2 MSTORE PUSH1 0x20 PUSH1 0x4 DUP3 ADD MSTORE PUSH1 0x16 PUSH1 0x24 DUP3 ADD MSTORE PUSH22 0x1511561391950E8818DB185CDCC81CDBDB19081BDD5D PUSH1 0x52 SHL PUSH1 0x44 DUP3 ADD MSTORE PUSH1 0x64 ADD PUSH2 0x6F6 JUMP JUMPDEST PUSH1 0xA DUP2 DUP2 SLOAD DUP2 LT PUSH2 0x2518 JUMPI PUSH2 0x2518 PUSH2 0x3BDC JUMP JUMPDEST PUSH1 0x0 SWAP2 DUP3 MSTORE PUSH1 0x20 DUP3 KECCAK256 ADD DUP1 SLOAD SWAP2 PUSH2 0x23B0 DUP4 PUSH2 0x3E71 JUMP JUMPDEST PUSH1 0x7 DUP1 SLOAD SWAP1 PUSH1 0x0 PUSH2 0x253E DUP4 PUSH2 0x3E71 JUMP JUMPDEST SWAP1 SWAP2 SSTORE POP SWAP5 SWAP4 POP POP POP POP JUMP JUMPDEST PUSH1 0x40 MLOAD PUSH1 0x0 SWAP1 PUSH2 0x258E SWAP1 PUSH20 0x3D602D80600A3D3981F3363D3D373D3D3D363D73 PUSH1 0x60 SHL SWAP1 ADDRESS PUSH1 0x60 SHL SWAP1 PUSH15 0x5AF43D82803E903D91602B57FD5BF3 PUSH1 0x88 SHL SWAP1 PUSH1 0x20 ADD PUSH2 0x3E21 JUMP JUMPDEST PUSH1 0x40 MLOAD PUSH1 0x20 DUP2 DUP4 SUB SUB DUP2 MSTORE SWAP1 PUSH1 0x40 MSTORE SWAP1 POP PUSH1 0x0 DUP5 PUSH1 0x40 MLOAD PUSH1 0x24 ADD PUSH2 0x25B4 SWAP2 DUP2 MSTORE PUSH1 0x20 ADD SWAP1 JUMP JUMPDEST PUSH1 0x40 DUP1 MLOAD PUSH1 0x1F NOT DUP2 DUP5 SUB ADD DUP2 MSTORE SWAP2 SWAP1 MSTORE PUSH1 0x20 DUP2 ADD DUP1 MLOAD PUSH1 0x1 PUSH1 0x1 PUSH1 0xE0 SHL SUB AND PUSH3 0xDDA08B PUSH1 0xE1 SHL OR SWAP1 MSTORE SWAP1 POP PUSH1 0x0 DUP1 PUSH1 0x1 JUMPDEST PUSH2 0x25F0 DUP10 PUSH1 0x1 PUSH2 0x3E5E JUMP JUMPDEST DUP2 LT ISZERO PUSH2 0x26D1 JUMPI PUSH1 0x40 DUP1 MLOAD PUSH1 0x20 DUP2 ADD DUP4 SWAP1 MSTORE SWAP1 DUP2 ADD DUP9 SWAP1 MSTORE PUSH1 0x0 SWAP1 PUSH1 0x60 ADD PUSH1 0x40 MLOAD PUSH1 0x20 DUP2 DUP4 SUB SUB DUP2 MSTORE SWAP1 PUSH1 0x40 MSTORE DUP1 MLOAD SWAP1 PUSH1 0x20 ADD KECCAK256 SWAP1 POP DUP1 DUP7 MLOAD PUSH1 0x20 DUP9 ADD PUSH1 0x0 CREATE2 SWAP4 POP PUSH1 0x0 DUP1 DUP7 MLOAD PUSH1 0x20 DUP9 ADD PUSH1 0x0 DUP9 GAS CALL SWAP3 POP DUP3 PUSH2 0x2699 JUMPI PUSH1 0x40 MLOAD PUSH3 0x461BCD PUSH1 0xE5 SHL DUP2 MSTORE PUSH1 0x20 PUSH1 0x4 DUP3 ADD MSTORE PUSH1 0x21 PUSH1 0x24 DUP3 ADD MSTORE PUSH32 0x5445584E46543A204572726F72207768696C6520636C61696D696E672072616E PUSH1 0x44 DUP3 ADD MSTORE PUSH1 0x6B PUSH1 0xF8 SHL PUSH1 0x64 DUP3 ADD MSTORE PUSH1 0x84 ADD PUSH2 0x6F6 JUMP JUMPDEST DUP2 PUSH1 0x1 SUB PUSH2 0x26BE JUMPI PUSH2 0x26AE DUP5 DUP12 DUP12 DUP11 DUP13 PUSH2 0x2EF9 JUMP JUMPDEST PUSH1 0x0 DUP10 DUP2 MSTORE PUSH1 0xD PUSH1 0x20 MSTORE PUSH1 0x40 SWAP1 KECCAK256 SSTORE JUMPDEST POP DUP1 PUSH2 0x26C9 DUP2 PUSH2 0x3E71 JUMP JUMPDEST SWAP2 POP POP PUSH2 0x25E5 JUMP JUMPDEST POP POP POP PUSH1 0x0 SWAP4 DUP5 MSTORE POP POP PUSH1 0xB PUSH1 0x20 MSTORE POP PUSH1 0x40 SWAP1 KECCAK256 SWAP2 SWAP1 SWAP2 SSTORE POP JUMP JUMPDEST PUSH2 0x2745 DUP3 DUP1 SLOAD DUP1 PUSH1 0x20 MUL PUSH1 0x20 ADD PUSH1 0x40 MLOAD SWAP1 DUP2 ADD PUSH1 0x40 MSTORE DUP1 SWAP3 SWAP2 SWAP1 DUP2 DUP2 MSTORE PUSH1 0x20 ADD DUP3 DUP1 SLOAD DUP1 ISZERO PUSH2 0x273A JUMPI PUSH1 0x20 MUL DUP3 ADD SWAP2 SWAP1 PUSH1 0x0 MSTORE PUSH1 0x20 PUSH1 0x0 KECCAK256 SWAP1 JUMPDEST DUP2 SLOAD DUP2 MSTORE PUSH1 0x20 ADD SWAP1 PUSH1 0x1 ADD SWAP1 DUP1 DUP4 GT PUSH2 0x2726 JUMPI JUMPDEST POP POP POP POP POP DUP3 PUSH2 0x30B0 JUMP JUMPDEST PUSH1 0x0 SUB PUSH2 0x2762 JUMPI DUP2 SLOAD PUSH1 0x1 DUP2 ADD DUP4 SSTORE PUSH1 0x0 DUP4 DUP2 MSTORE PUSH1 0x20 SWAP1 KECCAK256 ADD DUP2 SWAP1 SSTORE JUMPDEST POP POP JUMP JUMPDEST PUSH2 0x2762 DUP3 DUP3 PUSH1 0x40 MLOAD DUP1 PUSH1 0x20 ADD PUSH1 0x40 MSTORE DUP1 PUSH1 0x0 DUP2 MSTORE POP PUSH2 0x30F8 JUMP JUMPDEST PUSH1 0x0 DUP1 PUSH2 0x278C DUP4 PUSH2 0x1157 JUMP JUMPDEST SWAP1 POP DUP1 PUSH1 0x1 PUSH1 0x1 PUSH1 0xA0 SHL SUB AND DUP5 PUSH1 0x1 PUSH1 0x1 PUSH1 0xA0 SHL SUB AND EQ DUP1 PUSH2 0x27D3 JUMPI POP PUSH1 0x1 PUSH1 0x1 PUSH1 0xA0 SHL SUB DUP1 DUP3 AND PUSH1 0x0 SWAP1 DUP2 MSTORE PUSH1 0x6 PUSH1 0x20 SWAP1 DUP2 MSTORE PUSH1 0x40 DUP1 DUP4 KECCAK256 SWAP4 DUP9 AND DUP4 MSTORE SWAP3 SWAP1 MSTORE KECCAK256 SLOAD PUSH1 0xFF AND JUMPDEST DUP1 PUSH2 0x27F7 JUMPI POP DUP4 PUSH1 0x1 PUSH1 0x1 PUSH1 0xA0 SHL SUB AND PUSH2 0x27EC DUP5 PUSH2 0x8F4 JUMP JUMPDEST PUSH1 0x1 PUSH1 0x1 PUSH1 0xA0 SHL SUB AND EQ JUMPDEST SWAP5 SWAP4 POP POP POP POP JUMP JUMPDEST PUSH1 0x0 PUSH2 0x285A DUP4 DUP1 SLOAD DUP1 PUSH1 0x20 MUL PUSH1 0x20 ADD PUSH1 0x40 MLOAD SWAP1 DUP2 ADD PUSH1 0x40 MSTORE DUP1 SWAP3 SWAP2 SWAP1 DUP2 DUP2 MSTORE PUSH1 0x20 ADD DUP3 DUP1 SLOAD DUP1 ISZERO PUSH2 0x284F JUMPI PUSH1 0x20 MUL DUP3 ADD SWAP2 SWAP1 PUSH1 0x0 MSTORE PUSH1 0x20 PUSH1 0x0 KECCAK256 SWAP1 JUMPDEST DUP2 SLOAD DUP2 MSTORE PUSH1 0x20 ADD SWAP1 PUSH1 0x1 ADD SWAP1 DUP1 DUP4 GT PUSH2 0x283B JUMPI JUMPDEST POP POP POP POP POP DUP4 PUSH2 0x30B0 JUMP JUMPDEST SWAP1 POP DUP1 ISZERO PUSH2 0x7FC JUMPI DUP3 SLOAD DUP4 SWAP1 PUSH2 0x2872 SWAP1 PUSH1 0x1 SWAP1 PUSH2 0x3BF2 JUMP JUMPDEST DUP2 SLOAD DUP2 LT PUSH2 0x2882 JUMPI PUSH2 0x2882 PUSH2 0x3BDC JUMP JUMPDEST SWAP1 PUSH1 0x0 MSTORE PUSH1 0x20 PUSH1 0x0 KECCAK256 ADD SLOAD DUP4 PUSH1 0x1 DUP4 PUSH2 0x289B SWAP2 SWAP1 PUSH2 0x3BF2 JUMP JUMPDEST DUP2 SLOAD DUP2 LT PUSH2 0x28AB JUMPI PUSH2 0x28AB PUSH2 0x3BDC JUMP JUMPDEST SWAP1 PUSH1 0x0 MSTORE PUSH1 0x20 PUSH1 0x0 KECCAK256 ADD DUP2 SWAP1 SSTORE POP DUP3 DUP1 SLOAD DUP1 PUSH2 0x28C9 JUMPI PUSH2 0x28C9 PUSH2 0x3ED8 JUMP JUMPDEST PUSH1 0x1 SWAP1 SUB DUP2 DUP2 SWAP1 PUSH1 0x0 MSTORE PUSH1 0x20 PUSH1 0x0 KECCAK256 ADD PUSH1 0x0 SWAP1 SSTORE SWAP1 SSTORE POP POP POP JUMP JUMPDEST PUSH1 0x0 PUSH2 0x28EF DUP3 PUSH2 0x1157 JUMP JUMPDEST SWAP1 POP PUSH2 0x28FD DUP2 PUSH1 0x0 DUP5 PUSH2 0x312B JUMP JUMPDEST PUSH2 0x2908 PUSH1 0x0 DUP4 PUSH2 0x2C41 JUMP JUMPDEST PUSH1 0x1 PUSH1 0x1 PUSH1 0xA0 SHL SUB DUP2 AND PUSH1 0x0 SWAP1 DUP2 MSTORE PUSH1 0x4 PUSH1 0x20 MSTORE PUSH1 0x40 DUP2 KECCAK256 DUP1 SLOAD PUSH1 0x1 SWAP3 SWAP1 PUSH2 0x2931 SWAP1 DUP5 SWAP1 PUSH2 0x3BF2 JUMP JUMPDEST SWAP1 SWAP2 SSTORE POP POP PUSH1 0x0 DUP3 DUP2 MSTORE PUSH1 0x3 PUSH1 0x20 MSTORE PUSH1 0x40 DUP1 DUP3 KECCAK256 DUP1 SLOAD PUSH1 0x1 PUSH1 0x1 PUSH1 0xA0 SHL SUB NOT AND SWAP1 SSTORE MLOAD DUP4 SWAP2 SWAP1 PUSH1 0x1 PUSH1 0x1 PUSH1 0xA0 SHL SUB DUP5 AND SWAP1 PUSH32 0xDDF252AD1BE2C89B69C2B068FC378DAA952BA7F163C4A11628F55A4DF523B3EF SWAP1 DUP4 SWAP1 LOG4 PUSH2 0x2762 DUP2 PUSH1 0x0 DUP5 PUSH2 0x324D JUMP JUMPDEST PUSH2 0x2762 PUSH2 0x299E PUSH2 0x2C32 JUMP JUMPDEST DUP4 DUP4 PUSH2 0x3291 JUMP JUMPDEST PUSH2 0x29B6 PUSH2 0x29B0 PUSH2 0x2C32 JUMP JUMPDEST DUP4 PUSH2 0x2780 JUMP JUMPDEST PUSH2 0x29D2 JUMPI PUSH1 0x40 MLOAD PUSH3 0x461BCD PUSH1 0xE5 SHL DUP2 MSTORE PUSH1 0x4 ADD PUSH2 0x6F6 SWAP1 PUSH2 0x3E8A JUMP JUMPDEST PUSH2 0x9B4 DUP5 DUP5 DUP5 DUP5 PUSH2 0x335F JUMP JUMPDEST PUSH1 0x60 DUP2 PUSH1 0x0 SUB PUSH2 0x2A05 JUMPI POP POP PUSH1 0x40 DUP1 MLOAD DUP1 DUP3 ADD SWAP1 SWAP2 MSTORE PUSH1 0x1 DUP2 MSTORE PUSH1 0x3 PUSH1 0xFC SHL PUSH1 0x20 DUP3 ADD MSTORE SWAP1 JUMP JUMPDEST DUP2 PUSH1 0x0 JUMPDEST DUP2 ISZERO PUSH2 0x2A2F JUMPI DUP1 PUSH2 0x2A19 DUP2 PUSH2 0x3E71 JUMP JUMPDEST SWAP2 POP PUSH2 0x2A28 SWAP1 POP PUSH1 0xA DUP4 PUSH2 0x3AA8 JUMP JUMPDEST SWAP2 POP PUSH2 0x2A09 JUMP JUMPDEST PUSH1 0x0 DUP2 PUSH8 0xFFFFFFFFFFFFFFFF DUP2 GT ISZERO PUSH2 0x2A4A JUMPI PUSH2 0x2A4A PUSH2 0x3882 JUMP JUMPDEST PUSH1 0x40 MLOAD SWAP1 DUP1 DUP3 MSTORE DUP1 PUSH1 0x1F ADD PUSH1 0x1F NOT AND PUSH1 0x20 ADD DUP3 ADD PUSH1 0x40 MSTORE DUP1 ISZERO PUSH2 0x2A74 JUMPI PUSH1 0x20 DUP3 ADD DUP2 DUP1 CALLDATASIZE DUP4 CALLDATACOPY ADD SWAP1 POP JUMPDEST POP SWAP1 POP JUMPDEST DUP5 ISZERO PUSH2 0x27F7 JUMPI PUSH2 0x2A89 PUSH1 0x1 DUP4 PUSH2 0x3BF2 JUMP JUMPDEST SWAP2 POP PUSH2 0x2A96 PUSH1 0xA DUP7 PUSH2 0x3EEE JUMP JUMPDEST PUSH2 0x2AA1 SWAP1 PUSH1 0x30 PUSH2 0x3E5E JUMP JUMPDEST PUSH1 0xF8 SHL DUP2 DUP4 DUP2 MLOAD DUP2 LT PUSH2 0x2AB6 JUMPI PUSH2 0x2AB6 PUSH2 0x3BDC JUMP JUMPDEST PUSH1 0x20 ADD ADD SWAP1 PUSH1 0x1 PUSH1 0x1 PUSH1 0xF8 SHL SUB NOT AND SWAP1 DUP2 PUSH1 0x0 BYTE SWAP1 MSTORE8 POP PUSH2 0x2AD8 PUSH1 0xA DUP7 PUSH2 0x3AA8 JUMP JUMPDEST SWAP5 POP PUSH2 0x2A78 JUMP JUMPDEST PUSH1 0x60 DUP2 MLOAD PUSH1 0x0 SUB PUSH2 0x2AFE JUMPI POP POP PUSH1 0x40 DUP1 MLOAD PUSH1 0x20 DUP2 ADD SWAP1 SWAP2 MSTORE PUSH1 0x0 DUP2 MSTORE SWAP1 JUMP JUMPDEST PUSH1 0x0 PUSH1 0x40 MLOAD DUP1 PUSH1 0x60 ADD PUSH1 0x40 MSTORE DUP1 PUSH1 0x40 DUP2 MSTORE PUSH1 0x20 ADD PUSH2 0x403D PUSH1 0x40 SWAP2 CODECOPY SWAP1 POP PUSH1 0x0 PUSH1 0x3 DUP5 MLOAD PUSH1 0x2 PUSH2 0x2B2D SWAP2 SWAP1 PUSH2 0x3E5E JUMP JUMPDEST PUSH2 0x2B37 SWAP2 SWAP1 PUSH2 0x3AA8 JUMP JUMPDEST PUSH2 0x2B42 SWAP1 PUSH1 0x4 PUSH2 0x3A7B JUMP JUMPDEST PUSH8 0xFFFFFFFFFFFFFFFF DUP2 GT ISZERO PUSH2 0x2B5A JUMPI PUSH2 0x2B5A PUSH2 0x3882 JUMP JUMPDEST PUSH1 0x40 MLOAD SWAP1 DUP1 DUP3 MSTORE DUP1 PUSH1 0x1F ADD PUSH1 0x1F NOT AND PUSH1 0x20 ADD DUP3 ADD PUSH1 0x40 MSTORE DUP1 ISZERO PUSH2 0x2B84 JUMPI PUSH1 0x20 DUP3 ADD DUP2 DUP1 CALLDATASIZE DUP4 CALLDATACOPY ADD SWAP1 POP JUMPDEST POP SWAP1 POP PUSH1 0x1 DUP3 ADD PUSH1 0x20 DUP3 ADD DUP6 DUP7 MLOAD DUP8 ADD JUMPDEST DUP1 DUP3 LT ISZERO PUSH2 0x2BF0 JUMPI PUSH1 0x3 DUP3 ADD SWAP2 POP DUP2 MLOAD PUSH1 0x3F DUP2 PUSH1 0x12 SHR AND DUP6 ADD MLOAD DUP5 MSTORE8 PUSH1 0x1 DUP5 ADD SWAP4 POP PUSH1 0x3F DUP2 PUSH1 0xC SHR AND DUP6 ADD MLOAD DUP5 MSTORE8 PUSH1 0x1 DUP5 ADD SWAP4 POP PUSH1 0x3F DUP2 PUSH1 0x6 SHR AND DUP6 ADD MLOAD DUP5 MSTORE8 PUSH1 0x1 DUP5 ADD SWAP4 POP PUSH1 0x3F DUP2 AND DUP6 ADD MLOAD DUP5 MSTORE8 POP PUSH1 0x1 DUP4 ADD SWAP3 POP PUSH2 0x2B95 JUMP JUMPDEST POP POP PUSH1 0x3 DUP7 MLOAD MOD PUSH1 0x1 DUP2 EQ PUSH2 0x2C0C JUMPI PUSH1 0x2 DUP2 EQ PUSH2 0x2C1F JUMPI PUSH2 0x2C27 JUMP JUMPDEST PUSH1 0x3D PUSH1 0x1 DUP4 SUB MSTORE8 PUSH1 0x3D PUSH1 0x2 DUP4 SUB MSTORE8 PUSH2 0x2C27 JUMP JUMPDEST PUSH1 0x3D PUSH1 0x1 DUP4 SUB MSTORE8 JUMPDEST POP SWAP2 SWAP6 SWAP5 POP POP POP POP POP JUMP JUMPDEST PUSH1 0x0 PUSH2 0x2C3C PUSH2 0x3392 JUMP JUMPDEST SWAP1 POP SWAP1 JUMP JUMPDEST PUSH1 0x0 DUP2 DUP2 MSTORE PUSH1 0x5 PUSH1 0x20 MSTORE PUSH1 0x40 SWAP1 KECCAK256 DUP1 SLOAD PUSH1 0x1 PUSH1 0x1 PUSH1 0xA0 SHL SUB NOT AND PUSH1 0x1 PUSH1 0x1 PUSH1 0xA0 SHL SUB DUP5 AND SWAP1 DUP2 OR SWAP1 SWAP2 SSTORE DUP2 SWAP1 PUSH2 0x2C76 DUP3 PUSH2 0x1157 JUMP JUMPDEST PUSH1 0x1 PUSH1 0x1 PUSH1 0xA0 SHL SUB AND PUSH32 0x8C5BE1E5EBEC7D5BD14F71427D1E84F3DD0314C0F7B2291E5B200AC8C7C3B925 PUSH1 0x40 MLOAD PUSH1 0x40 MLOAD DUP1 SWAP2 SUB SWAP1 LOG4 POP POP JUMP JUMPDEST DUP3 PUSH1 0x1 PUSH1 0x1 PUSH1 0xA0 SHL SUB AND PUSH2 0x2CC2 DUP3 PUSH2 0x1157 JUMP JUMPDEST PUSH1 0x1 PUSH1 0x1 PUSH1 0xA0 SHL SUB AND EQ PUSH2 0x2D26 JUMPI PUSH1 0x40 MLOAD PUSH3 0x461BCD PUSH1 0xE5 SHL DUP2 MSTORE PUSH1 0x20 PUSH1 0x4 DUP3 ADD MSTORE PUSH1 0x25 PUSH1 0x24 DUP3 ADD MSTORE PUSH32 0x4552433732313A207472616E736665722066726F6D20696E636F727265637420 PUSH1 0x44 DUP3 ADD MSTORE PUSH5 0x37BBB732B9 PUSH1 0xD9 SHL PUSH1 0x64 DUP3 ADD MSTORE PUSH1 0x84 ADD PUSH2 0x6F6 JUMP JUMPDEST PUSH1 0x1 PUSH1 0x1 PUSH1 0xA0 SHL SUB DUP3 AND PUSH2 0x2D88 JUMPI PUSH1 0x40 MLOAD PUSH3 0x461BCD PUSH1 0xE5 SHL DUP2 MSTORE PUSH1 0x20 PUSH1 0x4 DUP3 ADD MSTORE PUSH1 0x24 DUP1 DUP3 ADD MSTORE PUSH32 0x4552433732313A207472616E7366657220746F20746865207A65726F20616464 PUSH1 0x44 DUP3 ADD MSTORE PUSH4 0x72657373 PUSH1 0xE0 SHL PUSH1 0x64 DUP3 ADD MSTORE PUSH1 0x84 ADD PUSH2 0x6F6 JUMP JUMPDEST PUSH2 0x2D93 DUP4 DUP4 DUP4 PUSH2 0x312B JUMP JUMPDEST PUSH2 0x2D9E PUSH1 0x0 DUP3 PUSH2 0x2C41 JUMP JUMPDEST PUSH1 0x1 PUSH1 0x1 PUSH1 0xA0 SHL SUB DUP4 AND PUSH1 0x0 SWAP1 DUP2 MSTORE PUSH1 0x4 PUSH1 0x20 MSTORE PUSH1 0x40 DUP2 KECCAK256 DUP1 SLOAD PUSH1 0x1 SWAP3 SWAP1 PUSH2 0x2DC7 SWAP1 DUP5 SWAP1 PUSH2 0x3BF2 JUMP JUMPDEST SWAP1 SWAP2 SSTORE POP POP PUSH1 0x1 PUSH1 0x1 PUSH1 0xA0 SHL SUB DUP3 AND PUSH1 0x0 SWAP1 DUP2 MSTORE PUSH1 0x4 PUSH1 0x20 MSTORE PUSH1 0x40 DUP2 KECCAK256 DUP1 SLOAD PUSH1 0x1 SWAP3 SWAP1 PUSH2 0x2DF5 SWAP1 DUP5 SWAP1 PUSH2 0x3E5E JUMP JUMPDEST SWAP1 SWAP2 SSTORE POP POP PUSH1 0x0 DUP2 DUP2 MSTORE PUSH1 0x3 PUSH1 0x20 MSTORE PUSH1 0x40 DUP1 DUP3 KECCAK256 DUP1 SLOAD PUSH1 0x1 PUSH1 0x1 PUSH1 0xA0 SHL SUB NOT AND PUSH1 0x1 PUSH1 0x1 PUSH1 0xA0 SHL SUB DUP7 DUP2 AND SWAP2 DUP3 OR SWAP1 SWAP3 SSTORE SWAP2 MLOAD DUP5 SWAP4 SWAP2 DUP8 AND SWAP2 PUSH32 0xDDF252AD1BE2C89B69C2B068FC378DAA952BA7F163C4A11628F55A4DF523B3EF SWAP2 LOG4 PUSH2 0x7FC DUP4 DUP4 DUP4 PUSH2 0x324D JUMP JUMPDEST PUSH1 0x8 SLOAD PUSH1 0x0 SWAP1 DUP2 SWAP1 PUSH2 0x2E70 SWAP1 PUSH1 0x1 SWAP1 PUSH2 0x3BF2 JUMP JUMPDEST SWAP1 POP JUMPDEST DUP1 ISZERO PUSH2 0x2EF0 JUMPI PUSH1 0x8 DUP2 DUP2 SLOAD DUP2 LT PUSH2 0x2E8C JUMPI PUSH2 0x2E8C PUSH2 0x3BDC JUMP JUMPDEST SWAP1 PUSH1 0x0 MSTORE PUSH1 0x20 PUSH1 0x0 KECCAK256 ADD SLOAD PUSH1 0x0 SUB PUSH2 0x2EA7 JUMPI POP PUSH1 0x0 SWAP3 SWAP2 POP POP JUMP JUMPDEST PUSH1 0x1 PUSH1 0x8 DUP3 DUP2 SLOAD DUP2 LT PUSH2 0x2EBC JUMPI PUSH2 0x2EBC PUSH2 0x3BDC JUMP JUMPDEST SWAP1 PUSH1 0x0 MSTORE PUSH1 0x20 PUSH1 0x0 KECCAK256 ADD SLOAD PUSH2 0x2ED1 SWAP2 SWAP1 PUSH2 0x3BF2 JUMP JUMPDEST DUP4 GT ISZERO PUSH2 0x2EDE JUMPI SWAP3 SWAP2 POP POP JUMP JUMPDEST DUP1 PUSH2 0x2EE8 DUP2 PUSH2 0x3F02 JUMP JUMPDEST SWAP2 POP POP PUSH2 0x2E73 JUMP JUMPDEST POP PUSH1 0x0 SWAP3 SWAP2 POP POP JUMP JUMPDEST PUSH1 0x0 DUP1 PUSH2 0x2F07 DUP4 PUSH2 0x2711 GT SWAP1 JUMP JUMPDEST SWAP1 POP PUSH1 0x0 PUSH2 0x2F15 DUP8 DUP8 PUSH2 0x33B7 JUMP JUMPDEST SWAP1 POP DUP2 ISZERO PUSH2 0x2F3A JUMPI PUSH2 0x2F26 DUP6 PUSH2 0x2E5C JUMP JUMPDEST PUSH2 0x2F31 SWAP1 PUSH1 0x7 PUSH2 0x3E5E JUMP JUMPDEST PUSH1 0x80 OR PUSH1 0xFF AND SWAP1 POP JUMPDEST PUSH1 0x0 DUP6 GT DUP1 ISZERO PUSH2 0x2F48 JUMPI POP DUP2 ISZERO JUMPDEST ISZERO PUSH2 0x2F51 JUMPI POP PUSH1 0x48 JUMPDEST PUSH1 0x40 MLOAD PUSH4 0xDF282331 PUSH1 0xE0 SHL DUP2 MSTORE PUSH1 0x1 PUSH1 0x1 PUSH1 0xA0 SHL SUB DUP10 DUP2 AND PUSH1 0x4 DUP4 ADD MSTORE PUSH1 0x0 SWAP2 DUP3 SWAP2 DUP3 SWAP2 DUP3 SWAP2 PUSH32 0x0 AND SWAP1 PUSH4 0xDF282331 SWAP1 PUSH1 0x24 ADD PUSH1 0xC0 PUSH1 0x40 MLOAD DUP1 DUP4 SUB DUP2 DUP7 GAS STATICCALL ISZERO DUP1 ISZERO PUSH2 0x2FC0 JUMPI RETURNDATASIZE PUSH1 0x0 DUP1 RETURNDATACOPY RETURNDATASIZE PUSH1 0x0 REVERT JUMPDEST POP POP POP POP PUSH1 0x40 MLOAD RETURNDATASIZE PUSH1 0x1F NOT PUSH1 0x1F DUP3 ADD AND DUP3 ADD DUP1 PUSH1 0x40 MSTORE POP DUP2 ADD SWAP1 PUSH2 0x2FE4 SWAP2 SWAP1 PUSH2 0x3F19 JUMP JUMPDEST SWAP6 POP SWAP6 POP SWAP6 POP SWAP6 POP POP POP PUSH20 0x0 PUSH4 0x906029D9 DUP12 DUP7 DUP7 DUP7 DUP7 DUP12 PUSH1 0x0 PUSH1 0x40 MLOAD DUP9 PUSH4 0xFFFFFFFF AND PUSH1 0xE0 SHL DUP2 MSTORE PUSH1 0x4 ADD PUSH2 0x305F SWAP8 SWAP7 SWAP6 SWAP5 SWAP4 SWAP3 SWAP2 SWAP1 SWAP7 DUP8 MSTORE PUSH1 0x20 DUP8 ADD SWAP6 SWAP1 SWAP6 MSTORE PUSH1 0x40 DUP7 ADD SWAP4 SWAP1 SWAP4 MSTORE PUSH1 0x60 DUP6 ADD SWAP2 SWAP1 SWAP2 MSTORE PUSH1 0x80 DUP5 ADD MSTORE PUSH1 0xA0 DUP4 ADD MSTORE ISZERO ISZERO PUSH1 0xC0 DUP3 ADD MSTORE PUSH1 0xE0 ADD SWAP1 JUMP JUMPDEST PUSH1 0x20 PUSH1 0x40 MLOAD DUP1 DUP4 SUB DUP2 DUP7 GAS DELEGATECALL ISZERO DUP1 ISZERO PUSH2 0x307C JUMPI RETURNDATASIZE PUSH1 0x0 DUP1 RETURNDATACOPY RETURNDATASIZE PUSH1 0x0 REVERT JUMPDEST POP POP POP POP PUSH1 0x40 MLOAD RETURNDATASIZE PUSH1 0x1F NOT PUSH1 0x1F DUP3 ADD AND DUP3 ADD DUP1 PUSH1 0x40 MSTORE POP DUP2 ADD SWAP1 PUSH2 0x30A0 SWAP2 SWAP1 PUSH2 0x3C05 JUMP JUMPDEST SWAP13 SWAP12 POP POP POP POP POP POP POP POP POP POP POP POP JUMP JUMPDEST PUSH1 0x1 JUMPDEST DUP3 MLOAD DUP2 GT PUSH2 0x2EF0 JUMPI DUP2 DUP4 PUSH2 0x30C8 PUSH1 0x1 DUP5 PUSH2 0x3BF2 JUMP JUMPDEST DUP2 MLOAD DUP2 LT PUSH2 0x30D8 JUMPI PUSH2 0x30D8 PUSH2 0x3BDC JUMP JUMPDEST PUSH1 0x20 MUL PUSH1 0x20 ADD ADD MLOAD SUB ISZERO PUSH2 0x85C JUMPI DUP1 PUSH2 0x30F0 DUP2 PUSH2 0x3E71 JUMP JUMPDEST SWAP2 POP POP PUSH2 0x30B3 JUMP JUMPDEST PUSH2 0x3102 DUP4 DUP4 PUSH2 0x33E4 JUMP JUMPDEST PUSH2 0x310F PUSH1 0x0 DUP5 DUP5 DUP5 PUSH2 0x353A JUMP JUMPDEST PUSH2 0x7FC JUMPI PUSH1 0x40 MLOAD PUSH3 0x461BCD PUSH1 0xE5 SHL DUP2 MSTORE PUSH1 0x4 ADD PUSH2 0x6F6 SWAP1 PUSH2 0x3F6C JUMP JUMPDEST PUSH1 0x1 PUSH1 0x1 PUSH1 0xA0 SHL SUB DUP4 AND ISZERO PUSH2 0x7FC JUMPI PUSH1 0x0 DUP2 DUP2 MSTORE PUSH1 0xD PUSH1 0x20 MSTORE PUSH1 0x40 DUP1 DUP3 KECCAK256 SLOAD SWAP1 MLOAD PUSH4 0x125FB947 PUSH1 0xE1 SHL DUP2 MSTORE PUSH1 0x4 DUP2 ADD SWAP2 SWAP1 SWAP2 MSTORE PUSH20 0x0 SWAP1 PUSH4 0x24BF728E SWAP1 PUSH1 0x24 ADD PUSH1 0x20 PUSH1 0x40 MLOAD DUP1 DUP4 SUB DUP2 DUP7 GAS DELEGATECALL ISZERO DUP1 ISZERO PUSH2 0x319A JUMPI RETURNDATASIZE PUSH1 0x0 DUP1 RETURNDATACOPY RETURNDATASIZE PUSH1 0x0 REVERT JUMPDEST POP POP POP POP PUSH1 0x40 MLOAD RETURNDATASIZE PUSH1 0x1F NOT PUSH1 0x1F DUP3 ADD AND DUP3 ADD DUP1 PUSH1 0x40 MSTORE POP DUP2 ADD SWAP1 PUSH2 0x31BE SWAP2 SWAP1 PUSH2 0x3C05 JUMP JUMPDEST SWAP1 POP PUSH1 0x0 TIMESTAMP DUP3 GT PUSH2 0x31D8 JUMPI PUSH2 0x31D3 DUP3 TIMESTAMP PUSH2 0x3BF2 JUMP JUMPDEST PUSH2 0x31E2 JUMP JUMPDEST PUSH2 0x31E2 TIMESTAMP DUP4 PUSH2 0x3BF2 JUMP JUMPDEST SWAP1 POP PUSH3 0x93A80 DUP2 GT PUSH2 0x1639 JUMPI PUSH1 0x40 MLOAD PUSH3 0x461BCD PUSH1 0xE5 SHL DUP2 MSTORE PUSH1 0x20 PUSH1 0x4 DUP3 ADD MSTORE PUSH1 0x2E PUSH1 0x24 DUP3 ADD MSTORE PUSH32 0x5445584E46543A207472616E736665722070726F6869626974656420696E2062 PUSH1 0x44 DUP3 ADD MSTORE PUSH14 0x1B1858DADBDD5D081C195C9A5BD9 PUSH1 0x92 SHL PUSH1 0x64 DUP3 ADD MSTORE PUSH1 0x84 ADD PUSH2 0x6F6 JUMP JUMPDEST PUSH1 0x1 PUSH1 0x1 PUSH1 0xA0 SHL SUB DUP4 AND PUSH1 0x0 SWAP1 DUP2 MSTORE PUSH1 0xF PUSH1 0x20 MSTORE PUSH1 0x40 SWAP1 KECCAK256 PUSH2 0x326F SWAP1 DUP3 PUSH2 0x27FF JUMP JUMPDEST PUSH1 0x1 PUSH1 0x1 PUSH1 0xA0 SHL SUB DUP3 AND PUSH1 0x0 SWAP1 DUP2 MSTORE PUSH1 0xF PUSH1 0x20 MSTORE PUSH1 0x40 SWAP1 KECCAK256 PUSH2 0x7FC SWAP1 DUP3 PUSH2 0x26EC JUMP JUMPDEST DUP2 PUSH1 0x1 PUSH1 0x1 PUSH1 0xA0 SHL SUB AND DUP4 PUSH1 0x1 PUSH1 0x1 PUSH1 0xA0 SHL SUB AND SUB PUSH2 0x32F2 JUMPI PUSH1 0x40 MLOAD PUSH3 0x461BCD PUSH1 0xE5 SHL DUP2 MSTORE PUSH1 0x20 PUSH1 0x4 DUP3 ADD MSTORE PUSH1 0x19 PUSH1 0x24 DUP3 ADD MSTORE PUSH32 0x4552433732313A20617070726F766520746F2063616C6C657200000000000000 PUSH1 0x44 DUP3 ADD MSTORE PUSH1 0x64 ADD PUSH2 0x6F6 JUMP JUMPDEST PUSH1 0x1 PUSH1 0x1 PUSH1 0xA0 SHL SUB DUP4 DUP2 AND PUSH1 0x0 DUP2 DUP2 MSTORE PUSH1 0x6 PUSH1 0x20 SWAP1 DUP2 MSTORE PUSH1 0x40 DUP1 DUP4 KECCAK256 SWAP5 DUP8 AND DUP1 DUP5 MSTORE SWAP5 DUP3 MSTORE SWAP2 DUP3 SWAP1 KECCAK256 DUP1 SLOAD PUSH1 0xFF NOT AND DUP7 ISZERO ISZERO SWAP1 DUP2 OR SWAP1 SWAP2 SSTORE SWAP2 MLOAD SWAP2 DUP3 MSTORE PUSH32 0x17307EAB39AB6107E8899845AD3D59BD9653F200F220920489CA2B5937696C31 SWAP2 ADD PUSH1 0x40 MLOAD DUP1 SWAP2 SUB SWAP1 LOG3 POP POP POP JUMP JUMPDEST PUSH2 0x336A DUP5 DUP5 DUP5 PUSH2 0x2CAF JUMP JUMPDEST PUSH2 0x3376 DUP5 DUP5 DUP5 DUP5 PUSH2 0x353A JUMP JUMPDEST PUSH2 0x9B4 JUMPI PUSH1 0x40 MLOAD PUSH3 0x461BCD PUSH1 0xE5 SHL DUP2 MSTORE PUSH1 0x4 ADD PUSH2 0x6F6 SWAP1 PUSH2 0x3F6C JUMP JUMPDEST PUSH1 0x0 DUP1 SLOAD PUSH1 0x1 PUSH1 0x1 PUSH1 0xA0 SHL SUB AND CALLER SUB PUSH2 0x33B2 JUMPI POP PUSH1 0x13 NOT CALLDATASIZE ADD CALLDATALOAD PUSH1 0x60 SHR SWAP1 JUMP JUMPDEST POP CALLER SWAP1 JUMP JUMPDEST PUSH1 0x0 PUSH1 0x7 PUSH2 0x33C5 DUP5 DUP5 PUSH2 0x3642 JUMP JUMPDEST GT ISZERO PUSH2 0x33D3 JUMPI POP PUSH1 0x7 PUSH2 0x85C JUMP JUMPDEST PUSH2 0x33DD DUP4 DUP4 PUSH2 0x3642 JUMP JUMPDEST SWAP4 SWAP3 POP POP POP JUMP JUMPDEST PUSH1 0x1 PUSH1 0x1 PUSH1 0xA0 SHL SUB DUP3 AND PUSH2 0x343A JUMPI PUSH1 0x40 MLOAD PUSH3 0x461BCD PUSH1 0xE5 SHL DUP2 MSTORE PUSH1 0x20 PUSH1 0x4 DUP3 ADD DUP2 SWAP1 MSTORE PUSH1 0x24 DUP3 ADD MSTORE PUSH32 0x4552433732313A206D696E7420746F20746865207A65726F2061646472657373 PUSH1 0x44 DUP3 ADD MSTORE PUSH1 0x64 ADD PUSH2 0x6F6 JUMP JUMPDEST PUSH1 0x0 DUP2 DUP2 MSTORE PUSH1 0x3 PUSH1 0x20 MSTORE PUSH1 0x40 SWAP1 KECCAK256 SLOAD PUSH1 0x1 PUSH1 0x1 PUSH1 0xA0 SHL SUB AND ISZERO PUSH2 0x349F JUMPI PUSH1 0x40 MLOAD PUSH3 0x461BCD PUSH1 0xE5 SHL DUP2 MSTORE PUSH1 0x20 PUSH1 0x4 DUP3 ADD MSTORE PUSH1 0x1C PUSH1 0x24 DUP3 ADD MSTORE PUSH32 0x4552433732313A20746F6B656E20616C7265616479206D696E74656400000000 PUSH1 0x44 DUP3 ADD MSTORE PUSH1 0x64 ADD PUSH2 0x6F6 JUMP JUMPDEST PUSH2 0x34AB PUSH1 0x0 DUP4 DUP4 PUSH2 0x312B JUMP JUMPDEST PUSH1 0x1 PUSH1 0x1 PUSH1 0xA0 SHL SUB DUP3 AND PUSH1 0x0 SWAP1 DUP2 MSTORE PUSH1 0x4 PUSH1 0x20 MSTORE PUSH1 0x40 DUP2 KECCAK256 DUP1 SLOAD PUSH1 0x1 SWAP3 SWAP1 PUSH2 0x34D4 SWAP1 DUP5 SWAP1 PUSH2 0x3E5E JUMP JUMPDEST SWAP1 SWAP2 SSTORE POP POP PUSH1 0x0 DUP2 DUP2 MSTORE PUSH1 0x3 PUSH1 0x20 MSTORE PUSH1 0x40 DUP1 DUP3 KECCAK256 DUP1 SLOAD PUSH1 0x1 PUSH1 0x1 PUSH1 0xA0 SHL SUB NOT AND PUSH1 0x1 PUSH1 0x1 PUSH1 0xA0 SHL SUB DUP7 AND SWAP1 DUP2 OR SWAP1 SWAP2 SSTORE SWAP1 MLOAD DUP4 SWAP3 SWAP1 PUSH32 0xDDF252AD1BE2C89B69C2B068FC378DAA952BA7F163C4A11628F55A4DF523B3EF SWAP1 DUP3 SWAP1 LOG4 PUSH2 0x2762 PUSH1 0x0 DUP4 DUP4 PUSH2 0x324D JUMP JUMPDEST PUSH1 0x0 PUSH1 0x1 PUSH1 0x1 PUSH1 0xA0 SHL SUB DUP5 AND EXTCODESIZE ISZERO PUSH2 0x3637 JUMPI DUP4 PUSH1 0x1 PUSH1 0x1 PUSH1 0xA0 SHL SUB AND PUSH4 0x150B7A02 PUSH2 0x3563 PUSH2 0x2C32 JUMP JUMPDEST DUP8 DUP7 DUP7 PUSH1 0x40 MLOAD DUP6 PUSH4 0xFFFFFFFF AND PUSH1 0xE0 SHL DUP2 MSTORE PUSH1 0x4 ADD PUSH2 0x3585 SWAP5 SWAP4 SWAP3 SWAP2 SWAP1 PUSH2 0x3FBE JUMP JUMPDEST PUSH1 0x20 PUSH1 0x40 MLOAD DUP1 DUP4 SUB DUP2 PUSH1 0x0 DUP8 GAS CALL SWAP3 POP POP POP DUP1 ISZERO PUSH2 0x35C0 JUMPI POP PUSH1 0x40 DUP1 MLOAD PUSH1 0x1F RETURNDATASIZE SWAP1 DUP2 ADD PUSH1 0x1F NOT AND DUP3 ADD SWAP1 SWAP3 MSTORE PUSH2 0x35BD SWAP2 DUP2 ADD SWAP1 PUSH2 0x3FF1 JUMP JUMPDEST PUSH1 0x1 JUMPDEST PUSH2 0x361D JUMPI RETURNDATASIZE DUP1 DUP1 ISZERO PUSH2 0x35EE JUMPI PUSH1 0x40 MLOAD SWAP2 POP PUSH1 0x1F NOT PUSH1 0x3F RETURNDATASIZE ADD AND DUP3 ADD PUSH1 0x40 MSTORE RETURNDATASIZE DUP3 MSTORE RETURNDATASIZE PUSH1 0x0 PUSH1 0x20 DUP5 ADD RETURNDATACOPY PUSH2 0x35F3 JUMP JUMPDEST PUSH1 0x60 SWAP2 POP JUMPDEST POP DUP1 MLOAD PUSH1 0x0 SUB PUSH2 0x3615 JUMPI PUSH1 0x40 MLOAD PUSH3 0x461BCD PUSH1 0xE5 SHL DUP2 MSTORE PUSH1 0x4 ADD PUSH2 0x6F6 SWAP1 PUSH2 0x3F6C JUMP JUMPDEST DUP1 MLOAD DUP2 PUSH1 0x20 ADD REVERT JUMPDEST PUSH1 0x1 PUSH1 0x1 PUSH1 0xE0 SHL SUB NOT AND PUSH4 0xA85BD01 PUSH1 0xE1 SHL EQ SWAP1 POP PUSH2 0x27F7 JUMP JUMPDEST POP PUSH1 0x1 SWAP5 SWAP4 POP POP POP POP JUMP JUMPDEST PUSH1 0x0 PUSH2 0x960 PUSH2 0x3651 DUP4 DUP6 PUSH2 0x3A7B JUMP JUMPDEST PUSH2 0x33DD SWAP2 SWAP1 PUSH2 0x3AA8 JUMP JUMPDEST PUSH1 0x0 PUSH1 0x20 DUP3 DUP5 SUB SLT ISZERO PUSH2 0x366D JUMPI PUSH1 0x0 DUP1 REVERT JUMPDEST POP CALLDATALOAD SWAP2 SWAP1 POP JUMP JUMPDEST PUSH1 0x1 PUSH1 0x1 PUSH1 0xE0 SHL SUB NOT DUP2 AND DUP2 EQ PUSH2 0x208D JUMPI PUSH1 0x0 DUP1 REVERT JUMPDEST PUSH1 0x0 PUSH1 0x20 DUP3 DUP5 SUB SLT ISZERO PUSH2 0x369C JUMPI PUSH1 0x0 DUP1 REVERT JUMPDEST DUP2 CALLDATALOAD PUSH2 0x33DD DUP2 PUSH2 0x3674 JUMP JUMPDEST PUSH1 0x0 JUMPDEST DUP4 DUP2 LT ISZERO PUSH2 0x36C2 JUMPI DUP2 DUP2 ADD MLOAD DUP4 DUP3 ADD MSTORE PUSH1 0x20 ADD PUSH2 0x36AA JUMP JUMPDEST POP POP PUSH1 0x0 SWAP2 ADD MSTORE JUMP JUMPDEST PUSH1 0x0 DUP2 MLOAD DUP1 DUP5 MSTORE PUSH2 0x36E3 DUP2 PUSH1 0x20 DUP7 ADD PUSH1 0x20 DUP7 ADD PUSH2 0x36A7 JUMP JUMPDEST PUSH1 0x1F ADD PUSH1 0x1F NOT AND SWAP3 SWAP1 SWAP3 ADD PUSH1 0x20 ADD SWAP3 SWAP2 POP POP JUMP JUMPDEST PUSH1 0x20 DUP2 MSTORE PUSH1 0x0 PUSH2 0x33DD PUSH1 0x20 DUP4 ADD DUP5 PUSH2 0x36CB JUMP JUMPDEST PUSH1 0x1 PUSH1 0x1 PUSH1 0xA0 SHL SUB DUP2 AND DUP2 EQ PUSH2 0x208D JUMPI PUSH1 0x0 DUP1 REVERT JUMPDEST PUSH1 0x0 DUP1 PUSH1 0x40 DUP4 DUP6 SUB SLT ISZERO PUSH2 0x3732 JUMPI PUSH1 0x0 DUP1 REVERT JUMPDEST DUP3 CALLDATALOAD PUSH2 0x373D DUP2 PUSH2 0x370A JUMP JUMPDEST SWAP5 PUSH1 0x20 SWAP4 SWAP1 SWAP4 ADD CALLDATALOAD SWAP4 POP POP POP JUMP JUMPDEST PUSH1 0x20 DUP1 DUP3 MSTORE DUP3 MLOAD DUP3 DUP3 ADD DUP2 SWAP1 MSTORE PUSH1 0x0 SWAP2 SWAP1 DUP5 DUP3 ADD SWAP1 PUSH1 0x40 DUP6 ADD SWAP1 DUP5 JUMPDEST DUP2 DUP2 LT ISZERO PUSH2 0x3783 JUMPI DUP4 MLOAD DUP4 MSTORE SWAP3 DUP5 ADD SWAP3 SWAP2 DUP5 ADD SWAP2 PUSH1 0x1 ADD PUSH2 0x3767 JUMP JUMPDEST POP SWAP1 SWAP7 SWAP6 POP POP POP POP POP POP JUMP JUMPDEST PUSH1 0x0 DUP1 PUSH1 0x0 PUSH1 0x60 DUP5 DUP7 SUB SLT ISZERO PUSH2 0x37A4 JUMPI PUSH1 0x0 DUP1 REVERT JUMPDEST DUP4 CALLDATALOAD PUSH2 0x37AF DUP2 PUSH2 0x370A JUMP JUMPDEST SWAP3 POP PUSH1 0x20 DUP5 ADD CALLDATALOAD PUSH2 0x37BF DUP2 PUSH2 0x370A JUMP JUMPDEST SWAP3 SWAP6 SWAP3 SWAP5 POP POP POP PUSH1 0x40 SWAP2 SWAP1 SWAP2 ADD CALLDATALOAD SWAP1 JUMP JUMPDEST PUSH1 0x0 DUP1 PUSH1 0x40 DUP4 DUP6 SUB SLT ISZERO PUSH2 0x37E3 JUMPI PUSH1 0x0 DUP1 REVERT JUMPDEST POP POP DUP1 CALLDATALOAD SWAP3 PUSH1 0x20 SWAP1 SWAP2 ADD CALLDATALOAD SWAP2 POP JUMP JUMPDEST PUSH1 0x0 DUP1 PUSH1 0x0 PUSH1 0x60 DUP5 DUP7 SUB SLT ISZERO PUSH2 0x3807 JUMPI PUSH1 0x0 DUP1 REVERT JUMPDEST POP POP DUP2 CALLDATALOAD SWAP4 PUSH1 0x20 DUP4 ADD CALLDATALOAD SWAP4 POP PUSH1 0x40 SWAP1 SWAP3 ADD CALLDATALOAD SWAP2 SWAP1 POP JUMP JUMPDEST PUSH1 0x0 PUSH1 0x20 DUP3 DUP5 SUB SLT ISZERO PUSH2 0x3830 JUMPI PUSH1 0x0 DUP1 REVERT JUMPDEST DUP2 CALLDATALOAD PUSH2 0x33DD DUP2 PUSH2 0x370A JUMP JUMPDEST DUP1 ISZERO ISZERO DUP2 EQ PUSH2 0x208D JUMPI PUSH1 0x0 DUP1 REVERT JUMPDEST PUSH1 0x0 DUP1 PUSH1 0x40 DUP4 DUP6 SUB SLT ISZERO PUSH2 0x385C JUMPI PUSH1 0x0 DUP1 REVERT JUMPDEST DUP3 CALLDATALOAD PUSH2 0x3867 DUP2 PUSH2 0x370A JUMP JUMPDEST SWAP2 POP PUSH1 0x20 DUP4 ADD CALLDATALOAD PUSH2 0x3877 DUP2 PUSH2 0x383B JUMP JUMPDEST DUP1 SWAP2 POP POP SWAP3 POP SWAP3 SWAP1 POP JUMP JUMPDEST PUSH4 0x4E487B71 PUSH1 0xE0 SHL PUSH1 0x0 MSTORE PUSH1 0x41 PUSH1 0x4 MSTORE PUSH1 0x24 PUSH1 0x0 REVERT JUMPDEST PUSH1 0x40 MLOAD PUSH1 0x1F DUP3 ADD PUSH1 0x1F NOT AND DUP2 ADD PUSH8 0xFFFFFFFFFFFFFFFF DUP2 GT DUP3 DUP3 LT OR ISZERO PUSH2 0x38C1 JUMPI PUSH2 0x38C1 PUSH2 0x3882 JUMP JUMPDEST PUSH1 0x40 MSTORE SWAP2 SWAP1 POP JUMP JUMPDEST PUSH1 0x0 PUSH8 0xFFFFFFFFFFFFFFFF DUP3 GT ISZERO PUSH2 0x38E3 JUMPI PUSH2 0x38E3 PUSH2 0x3882 JUMP JUMPDEST POP PUSH1 0x1F ADD PUSH1 0x1F NOT AND PUSH1 0x20 ADD SWAP1 JUMP JUMPDEST PUSH1 0x0 DUP1 PUSH1 0x0 DUP1 PUSH1 0x80 DUP6 DUP8 SUB SLT ISZERO PUSH2 0x3907 JUMPI PUSH1 0x0 DUP1 REVERT JUMPDEST DUP5 CALLDATALOAD PUSH2 0x3912 DUP2 PUSH2 0x370A JUMP JUMPDEST SWAP4 POP PUSH1 0x20 DUP6 ADD CALLDATALOAD PUSH2 0x3922 DUP2 PUSH2 0x370A JUMP JUMPDEST SWAP3 POP PUSH1 0x40 DUP6 ADD CALLDATALOAD SWAP2 POP PUSH1 0x60 DUP6 ADD CALLDATALOAD PUSH8 0xFFFFFFFFFFFFFFFF DUP2 GT ISZERO PUSH2 0x3945 JUMPI PUSH1 0x0 DUP1 REVERT JUMPDEST DUP6 ADD PUSH1 0x1F DUP2 ADD DUP8 SGT PUSH2 0x3956 JUMPI PUSH1 0x0 DUP1 REVERT JUMPDEST DUP1 CALLDATALOAD PUSH2 0x3969 PUSH2 0x3964 DUP3 PUSH2 0x38C9 JUMP JUMPDEST PUSH2 0x3898 JUMP JUMPDEST DUP2 DUP2 MSTORE DUP9 PUSH1 0x20 DUP4 DUP6 ADD ADD GT ISZERO PUSH2 0x397E JUMPI PUSH1 0x0 DUP1 REVERT JUMPDEST DUP2 PUSH1 0x20 DUP5 ADD PUSH1 0x20 DUP4 ADD CALLDATACOPY PUSH1 0x0 PUSH1 0x20 DUP4 DUP4 ADD ADD MSTORE DUP1 SWAP4 POP POP POP POP SWAP3 SWAP6 SWAP2 SWAP5 POP SWAP3 POP JUMP JUMPDEST PUSH1 0x0 DUP1 PUSH1 0x40 DUP4 DUP6 SUB SLT ISZERO PUSH2 0x39B3 JUMPI PUSH1 0x0 DUP1 REVERT JUMPDEST DUP3 CALLDATALOAD PUSH2 0x39BE DUP2 PUSH2 0x370A JUMP JUMPDEST SWAP2 POP PUSH1 0x20 DUP4 ADD CALLDATALOAD PUSH2 0x3877 DUP2 PUSH2 0x370A JUMP JUMPDEST PUSH1 0x0 DUP1 PUSH1 0x40 DUP4 DUP6 SUB SLT ISZERO PUSH2 0x39E1 JUMPI PUSH1 0x0 DUP1 REVERT JUMPDEST DUP3 CALLDATALOAD SWAP2 POP PUSH1 0x20 DUP4 ADD CALLDATALOAD PUSH2 0x3877 DUP2 PUSH2 0x370A JUMP JUMPDEST PUSH1 0x0 DUP2 MLOAD PUSH2 0x3A05 DUP2 DUP6 PUSH1 0x20 DUP7 ADD PUSH2 0x36A7 JUMP JUMPDEST SWAP3 SWAP1 SWAP3 ADD SWAP3 SWAP2 POP POP JUMP JUMPDEST PUSH1 0x0 DUP3 MLOAD PUSH2 0x3A21 DUP2 DUP5 PUSH1 0x20 DUP8 ADD PUSH2 0x36A7 JUMP JUMPDEST SWAP2 SWAP1 SWAP2 ADD SWAP3 SWAP2 POP POP JUMP JUMPDEST PUSH1 0x1 DUP2 DUP2 SHR SWAP1 DUP3 AND DUP1 PUSH2 0x3A3F JUMPI PUSH1 0x7F DUP3 AND SWAP2 POP JUMPDEST PUSH1 0x20 DUP3 LT DUP2 SUB PUSH2 0x3A5F JUMPI PUSH4 0x4E487B71 PUSH1 0xE0 SHL PUSH1 0x0 MSTORE PUSH1 0x22 PUSH1 0x4 MSTORE PUSH1 0x24 PUSH1 0x0 REVERT JUMPDEST POP SWAP2 SWAP1 POP JUMP JUMPDEST PUSH4 0x4E487B71 PUSH1 0xE0 SHL PUSH1 0x0 MSTORE PUSH1 0x11 PUSH1 0x4 MSTORE PUSH1 0x24 PUSH1 0x0 REVERT JUMPDEST DUP1 DUP3 MUL DUP2 ISZERO DUP3 DUP3 DIV DUP5 EQ OR PUSH2 0x85C JUMPI PUSH2 0x85C PUSH2 0x3A65 JUMP JUMPDEST PUSH4 0x4E487B71 PUSH1 0xE0 SHL PUSH1 0x0 MSTORE PUSH1 0x12 PUSH1 0x4 MSTORE PUSH1 0x24 PUSH1 0x0 REVERT JUMPDEST PUSH1 0x0 DUP3 PUSH2 0x3AB7 JUMPI PUSH2 0x3AB7 PUSH2 0x3A92 JUMP JUMPDEST POP DIV SWAP1 JUMP JUMPDEST PUSH1 0x20 DUP1 DUP3 MSTORE PUSH1 0x16 SWAP1 DUP3 ADD MSTORE PUSH22 0x1511561391950E88139BDD081858DD1A5D99481E595D PUSH1 0x52 SHL PUSH1 0x40 DUP3 ADD MSTORE PUSH1 0x60 ADD SWAP1 JUMP JUMPDEST PUSH1 0x1 DUP2 DUP2 JUMPDEST DUP1 DUP6 GT ISZERO PUSH2 0x3B27 JUMPI DUP2 PUSH1 0x0 NOT DIV DUP3 GT ISZERO PUSH2 0x3B0D JUMPI PUSH2 0x3B0D PUSH2 0x3A65 JUMP JUMPDEST DUP1 DUP6 AND ISZERO PUSH2 0x3B1A JUMPI SWAP2 DUP2 MUL SWAP2 JUMPDEST SWAP4 DUP5 SHR SWAP4 SWAP1 DUP1 MUL SWAP1 PUSH2 0x3AF1 JUMP JUMPDEST POP SWAP3 POP SWAP3 SWAP1 POP JUMP JUMPDEST PUSH1 0x0 DUP3 PUSH2 0x3B3E JUMPI POP PUSH1 0x1 PUSH2 0x85C JUMP JUMPDEST DUP2 PUSH2 0x3B4B JUMPI POP PUSH1 0x0 PUSH2 0x85C JUMP JUMPDEST DUP2 PUSH1 0x1 DUP2 EQ PUSH2 0x3B61 JUMPI PUSH1 0x2 DUP2 EQ PUSH2 0x3B6B JUMPI PUSH2 0x3B87 JUMP JUMPDEST PUSH1 0x1 SWAP2 POP POP PUSH2 0x85C JUMP JUMPDEST PUSH1 0xFF DUP5 GT ISZERO PUSH2 0x3B7C JUMPI PUSH2 0x3B7C PUSH2 0x3A65 JUMP JUMPDEST POP POP PUSH1 0x1 DUP3 SHL PUSH2 0x85C JUMP JUMPDEST POP PUSH1 0x20 DUP4 LT PUSH2 0x133 DUP4 LT AND PUSH1 0x4E DUP5 LT PUSH1 0xB DUP5 LT AND OR ISZERO PUSH2 0x3BAA JUMPI POP DUP2 DUP2 EXP PUSH2 0x85C JUMP JUMPDEST PUSH2 0x3BB4 DUP4 DUP4 PUSH2 0x3AEC JUMP JUMPDEST DUP1 PUSH1 0x0 NOT DIV DUP3 GT ISZERO PUSH2 0x3BC8 JUMPI PUSH2 0x3BC8 PUSH2 0x3A65 JUMP JUMPDEST MUL SWAP4 SWAP3 POP POP POP JUMP JUMPDEST PUSH1 0x0 PUSH2 0x33DD DUP4 DUP4 PUSH2 0x3B2F JUMP JUMPDEST PUSH4 0x4E487B71 PUSH1 0xE0 SHL PUSH1 0x0 MSTORE PUSH1 0x32 PUSH1 0x4 MSTORE PUSH1 0x24 PUSH1 0x0 REVERT JUMPDEST DUP2 DUP2 SUB DUP2 DUP2 GT ISZERO PUSH2 0x85C JUMPI PUSH2 0x85C PUSH2 0x3A65 JUMP JUMPDEST PUSH1 0x0 PUSH1 0x20 DUP3 DUP5 SUB SLT ISZERO PUSH2 0x3C17 JUMPI PUSH1 0x0 DUP1 REVERT JUMPDEST POP MLOAD SWAP2 SWAP1 POP JUMP JUMPDEST PUSH1 0x0 PUSH1 0x20 DUP3 DUP5 SUB SLT ISZERO PUSH2 0x3C30 JUMPI PUSH1 0x0 DUP1 REVERT JUMPDEST DUP2 MLOAD PUSH2 0x33DD DUP2 PUSH2 0x383B JUMP JUMPDEST PUSH1 0x0 PUSH1 0x20 DUP3 DUP5 SUB SLT ISZERO PUSH2 0x3C4D JUMPI PUSH1 0x0 DUP1 REVERT JUMPDEST DUP2 MLOAD PUSH8 0xFFFFFFFFFFFFFFFF DUP2 GT ISZERO PUSH2 0x3C64 JUMPI PUSH1 0x0 DUP1 REVERT JUMPDEST DUP3 ADD PUSH1 0x1F DUP2 ADD DUP5 SGT PUSH2 0x3C75 JUMPI PUSH1 0x0 DUP1 REVERT JUMPDEST DUP1 MLOAD PUSH2 0x3C83 PUSH2 0x3964 DUP3 PUSH2 0x38C9 JUMP JUMPDEST DUP2 DUP2 MSTORE DUP6 PUSH1 0x20 DUP4 DUP6 ADD ADD GT ISZERO PUSH2 0x3C98 JUMPI PUSH1 0x0 DUP1 REVERT JUMPDEST PUSH2 0x3CA9 DUP3 PUSH1 0x20 DUP4 ADD PUSH1 0x20 DUP7 ADD PUSH2 0x36A7 JUMP JUMPDEST SWAP6 SWAP5 POP POP POP POP POP JUMP JUMPDEST PUSH1 0x7B PUSH1 0xF8 SHL DUP2 MSTORE PUSH32 0x226E616D65223A20225445584C4120546F7272656E7420230000000000000000 PUSH1 0x1 DUP3 ADD MSTORE PUSH1 0x0 DUP5 MLOAD PUSH2 0x3CF4 DUP2 PUSH1 0x19 DUP6 ADD PUSH1 0x20 DUP10 ADD PUSH2 0x36A7 JUMP JUMPDEST PUSH2 0x88B PUSH1 0xF2 SHL PUSH1 0x19 SWAP2 DUP5 ADD SWAP2 DUP3 ADD DUP2 SWAP1 MSTORE PUSH32 0x226465736372697074696F6E223A20225445584E46543A205445584C41204372 PUSH1 0x1B DUP4 ADD MSTORE PUSH22 0x1E5C1D1BC8135A5B9D1A5B99C8151BDC9C995B9D088B PUSH1 0x52 SHL PUSH1 0x3B DUP4 ADD MSTORE PUSH10 0x1134B6B0B3B2911D1011 PUSH1 0xB1 SHL PUSH1 0x51 DUP4 ADD MSTORE PUSH32 0x646174613A696D6167652F7376672B786D6C3B6261736536342C000000000000 PUSH1 0x5B DUP4 ADD MSTORE DUP6 MLOAD PUSH2 0x3D96 DUP2 PUSH1 0x75 DUP6 ADD PUSH1 0x20 DUP11 ADD PUSH2 0x36A7 JUMP JUMPDEST PUSH1 0x75 SWAP3 ADD SWAP2 DUP3 ADD MSTORE PUSH14 0x1130BA3A3934B13ABA32B9911D1 PUSH1 0x95 SHL PUSH1 0x77 DUP3 ADD MSTORE PUSH2 0x3DD2 PUSH2 0x3DC5 PUSH1 0x85 DUP4 ADD DUP7 PUSH2 0x39F3 JUMP JUMPDEST PUSH1 0x7D PUSH1 0xF8 SHL DUP2 MSTORE PUSH1 0x1 ADD SWAP1 JUMP JUMPDEST SWAP7 SWAP6 POP POP POP POP POP POP JUMP JUMPDEST PUSH32 0x646174613A6170706C69636174696F6E2F6A736F6E3B6261736536342C000000 DUP2 MSTORE PUSH1 0x0 DUP3 MLOAD PUSH2 0x3E14 DUP2 PUSH1 0x1D DUP6 ADD PUSH1 0x20 DUP8 ADD PUSH2 0x36A7 JUMP JUMPDEST SWAP2 SWAP1 SWAP2 ADD PUSH1 0x1D ADD SWAP3 SWAP2 POP POP JUMP JUMPDEST PUSH12 0xFFFFFFFFFFFFFFFFFFFFFFFF NOT SWAP4 DUP5 AND DUP2 MSTORE SWAP2 SWAP1 SWAP3 AND PUSH1 0x14 DUP3 ADD MSTORE PUSH17 0xFFFFFFFFFFFFFFFFFFFFFFFFFFFFFFFFFF NOT SWAP1 SWAP2 AND PUSH1 0x28 DUP3 ADD MSTORE PUSH1 0x37 ADD SWAP1 JUMP JUMPDEST DUP1 DUP3 ADD DUP1 DUP3 GT ISZERO PUSH2 0x85C JUMPI PUSH2 0x85C PUSH2 0x3A65 JUMP JUMPDEST PUSH1 0x0 PUSH1 0x1 DUP3 ADD PUSH2 0x3E83 JUMPI PUSH2 0x3E83 PUSH2 0x3A65 JUMP JUMPDEST POP PUSH1 0x1 ADD SWAP1 JUMP JUMPDEST PUSH1 0x20 DUP1 DUP3 MSTORE PUSH1 0x2E SWAP1 DUP3 ADD MSTORE PUSH32 0x4552433732313A2063616C6C6572206973206E6F7420746F6B656E206F776E65 PUSH1 0x40 DUP3 ADD MSTORE PUSH14 0x1C881B9BDC88185C1C1C9BDD9959 PUSH1 0x92 SHL PUSH1 0x60 DUP3 ADD MSTORE PUSH1 0x80 ADD SWAP1 JUMP JUMPDEST PUSH4 0x4E487B71 PUSH1 0xE0 SHL PUSH1 0x0 MSTORE PUSH1 0x31 PUSH1 0x4 MSTORE PUSH1 0x24 PUSH1 0x0 REVERT JUMPDEST PUSH1 0x0 DUP3 PUSH2 0x3EFD JUMPI PUSH2 0x3EFD PUSH2 0x3A92 JUMP JUMPDEST POP MOD SWAP1 JUMP JUMPDEST PUSH1 0x0 DUP2 PUSH2 0x3F11 JUMPI PUSH2 0x3F11 PUSH2 0x3A65 JUMP JUMPDEST POP PUSH1 0x0 NOT ADD SWAP1 JUMP JUMPDEST PUSH1 0x0 DUP1 PUSH1 0x0 DUP1 PUSH1 0x0 DUP1 PUSH1 0xC0 DUP8 DUP10 SUB SLT ISZERO PUSH2 0x3F32 JUMPI PUSH1 0x0 DUP1 REVERT JUMPDEST DUP7 MLOAD PUSH2 0x3F3D DUP2 PUSH2 0x370A JUMP JUMPDEST PUSH1 0x20 DUP9 ADD MLOAD PUSH1 0x40 DUP10 ADD MLOAD PUSH1 0x60 DUP11 ADD MLOAD PUSH1 0x80 DUP12 ADD MLOAD PUSH1 0xA0 SWAP1 SWAP12 ADD MLOAD SWAP4 SWAP13 SWAP3 SWAP12 POP SWAP1 SWAP10 SWAP1 SWAP9 POP SWAP7 POP SWAP1 SWAP5 POP SWAP3 POP POP POP JUMP JUMPDEST PUSH1 0x20 DUP1 DUP3 MSTORE PUSH1 0x32 SWAP1 DUP3 ADD MSTORE PUSH32 0x4552433732313A207472616E7366657220746F206E6F6E204552433732315265 PUSH1 0x40 DUP3 ADD MSTORE PUSH18 0x31B2B4BB32B91034B6B83632B6B2B73A32B9 PUSH1 0x71 SHL PUSH1 0x60 DUP3 ADD MSTORE PUSH1 0x80 ADD SWAP1 JUMP JUMPDEST PUSH1 0x1 PUSH1 0x1 PUSH1 0xA0 SHL SUB DUP6 DUP2 AND DUP3 MSTORE DUP5 AND PUSH1 0x20 DUP3 ADD MSTORE PUSH1 0x40 DUP2 ADD DUP4 SWAP1 MSTORE PUSH1 0x80 PUSH1 0x60 DUP3 ADD DUP2 SWAP1 MSTORE PUSH1 0x0 SWAP1 PUSH2 0x3DD2 SWAP1 DUP4 ADD DUP5 PUSH2 0x36CB JUMP JUMPDEST PUSH1 0x0 PUSH1 0x20 DUP3 DUP5 SUB SLT ISZERO PUSH2 0x4003 JUMPI PUSH1 0x0 DUP1 REVERT JUMPDEST DUP2 MLOAD PUSH2 0x33DD DUP2 PUSH2 0x3674 JUMP INVALID BLOCKHASH POP PUSH6 0x70734C616220 BLOCKHASH 0x4D PUSH19 0x4A61636B4C6576696E20406C62656C79616576 KECCAK256 PUSH7 0x61697263727970 PUSH21 0x6F2E6F72674142434445464748494A4B4C4D4E4F50 MLOAD MSTORE MSTORE8 SLOAD SSTORE JUMP JUMPI PC MSIZE GAS PUSH2 0x6263 PUSH5 0x6566676869 PUSH11 0x6B6C6D6E6F707172737475 PUSH23 0x7778797A303132333435363738392B2FA2646970667358 0x22 SLT KECCAK256 0x4D PUSH11 0xD767338D85A86ED1AF90B PUSH10 0x2326B38652FE2AA04666 SDIV JUMPDEST SWAP5 EXP 0xAD 0xB5 CODESIZE SELFDESTRUCT PUSH5 0x736F6C6343 STOP ADDMOD SLT STOP CALLER "
		},
		"gasEstimates": {
			"creation": {
				"codeDepositCost": "3312400",
				"executionCost": "infinite",
				"totalCost": "infinite"
			},
			"external": {
				"AUTHORS()": "infinite",
				"BLACKOUT_TERM()": "328",
				"COMMON_CATEGORY_COUNTER()": "307",
				"LIMITED_CATEGORY_TIME_THRESHOLD()": "350",
				"OPERATOR_FILTER_REGISTRY()": "372",
				"POWER_GROUP_SIZE()": "329",
				"ROYALTY_BP()": "286",
				"SPECIAL_CATEGORIES_VMU_THRESHOLD()": "262",
				"addForwarder(address)": "infinite",
				"approve(address,uint256)": "infinite",
				"balanceOf(address)": "2629",
				"bulkClaimMintReward(uint256,address)": "infinite",
				"bulkClaimRank(uint256,uint256)": "infinite",
				"bulkClaimRankLimited(uint256,uint256,uint256)": "infinite",
				"burn(address,uint256)": "infinite",
				"callClaimMintReward(address)": "infinite",
				"callClaimRank(uint256)": "infinite",
				"genesisTs()": "infinite",
				"getApproved(uint256)": "4859",
				"isApex(uint256)": "402",
				"isApprovedForAll(address,address)": "infinite",
				"isTrustedForwarder(address)": "2564",
				"mintInfo(uint256)": "2506",
				"name()": "infinite",
				"onTokenBurned(address,uint256)": "infinite",
				"ownedTokens()": "infinite",
				"owner()": "infinite",
				"ownerOf(uint256)": "2671",
				"powerDown()": "27774",
				"royaltyInfo(uint256,uint256)": "infinite",
				"safeTransferFrom(address,address,uint256)": "infinite",
				"safeTransferFrom(address,address,uint256,bytes)": "infinite",
				"setApprovalForAll(address,bool)": "infinite",
				"specialClassesBurnRates(uint256)": "4730",
				"specialClassesCounters(uint256)": "4687",
				"specialClassesTokenLimits(uint256)": "4665",
				"startBlockNumber()": "infinite",
				"supportsInterface(bytes4)": "infinite",
				"symbol()": "infinite",
				"tokenIdCounter()": "2384",
				"tokenURI(uint256)": "infinite",
				"transferFrom(address,address,uint256)": "infinite",
				"vmuCount(uint256)": "2593",
				"xenBurned(uint256)": "2549",
				"xenCrypto()": "infinite"
			},
			"internal": {
				"_afterTokenTransfer(address,address,uint256)": "infinite",
				"_beforeTokenTransfer(address,address,uint256)": "infinite",
				"_bulkClaimRank(uint256,uint256,uint256,uint256)": "infinite",
				"_classIdx(uint256,uint256)": "infinite",
				"_getTokenId(uint256,uint256)": "infinite",
				"_mintInfo(address,uint256,uint256,uint256,uint256)": "infinite",
				"_msgData()": "infinite",
				"_msgSender()": "2211",
				"_powerGroup(uint256,uint256)": "178",
				"_setRedeemed(uint256)": "infinite",
				"_specialTier(uint256)": "infinite"
			}
		},
		"methodIdentifiers": {
			"AUTHORS()": "ba3ec741",
			"BLACKOUT_TERM()": "a126ad1e",
			"COMMON_CATEGORY_COUNTER()": "4d4b2be4",
			"LIMITED_CATEGORY_TIME_THRESHOLD()": "700107af",
			"OPERATOR_FILTER_REGISTRY()": "41f43434",
			"POWER_GROUP_SIZE()": "41b169f3",
			"ROYALTY_BP()": "044db8ba",
			"SPECIAL_CATEGORIES_VMU_THRESHOLD()": "55ee08ba",
			"addForwarder(address)": "5c41d2fe",
			"approve(address,uint256)": "095ea7b3",
			"balanceOf(address)": "70a08231",
			"bulkClaimMintReward(uint256,address)": "f5878b9b",
			"bulkClaimRank(uint256,uint256)": "ecef9201",
			"bulkClaimRankLimited(uint256,uint256,uint256)": "53b18de4",
			"burn(address,uint256)": "9dc29fac",
			"callClaimMintReward(address)": "df0030ef",
			"callClaimRank(uint256)": "01bb4116",
			"genesisTs()": "e3af6d0a",
			"getApproved(uint256)": "081812fc",
			"isApex(uint256)": "ee8743d7",
			"isApprovedForAll(address,address)": "e985e9c5",
			"isTrustedForwarder(address)": "572b6c05",
			"mintInfo(uint256)": "443aa533",
			"name()": "06fdde03",
			"onTokenBurned(address,uint256)": "543746b1",
			"ownedTokens()": "19cba6b4",
			"owner()": "8da5cb5b",
			"ownerOf(uint256)": "6352211e",
			"powerDown()": "928dd2a7",
			"royaltyInfo(uint256,uint256)": "2a55205a",
			"safeTransferFrom(address,address,uint256)": "42842e0e",
			"safeTransferFrom(address,address,uint256,bytes)": "b88d4fde",
			"setApprovalForAll(address,bool)": "a22cb465",
			"specialClassesBurnRates(uint256)": "d0d5f5b4",
			"specialClassesCounters(uint256)": "89776eb0",
			"specialClassesTokenLimits(uint256)": "74a1dff2",
			"startBlockNumber()": "498a4c2d",
			"supportsInterface(bytes4)": "01ffc9a7",
			"symbol()": "95d89b41",
			"tokenIdCounter()": "98bdf6f5",
			"tokenURI(uint256)": "c87b56dd",
			"transferFrom(address,address,uint256)": "23b872dd",
			"vmuCount(uint256)": "a1a53fa1",
			"xenBurned(uint256)": "bd333033",
			"xenCrypto()": "71141a58"
		}
	},
	"abi": [
		{
			"inputs": [
				{
					"internalType": "address",
					"name": "xenCrypto_",
					"type": "address"
				},
				{
					"internalType": "uint256[]",
					"name": "burnRates_",
					"type": "uint256[]"
				},
				{
					"internalType": "uint256[]",
					"name": "tokenLimits_",
					"type": "uint256[]"
				},
				{
					"internalType": "uint256",
					"name": "startBlockNumber_",
					"type": "uint256"
				},
				{
					"internalType": "address",
					"name": "forwarder_",
					"type": "address"
				},
				{
					"internalType": "address",
					"name": "royaltyReceiver_",
					"type": "address"
				}
			],
			"stateMutability": "nonpayable",
			"type": "constructor"
		},
		{
			"inputs": [
				{
					"internalType": "address",
					"name": "operator",
					"type": "address"
				}
			],
			"name": "OperatorNotAllowed",
			"type": "error"
		},
		{
			"anonymous": false,
			"inputs": [
				{
					"indexed": true,
					"internalType": "address",
					"name": "owner",
					"type": "address"
				},
				{
					"indexed": true,
					"internalType": "address",
					"name": "approved",
					"type": "address"
				},
				{
					"indexed": true,
					"internalType": "uint256",
					"name": "tokenId",
					"type": "uint256"
				}
			],
			"name": "Approval",
			"type": "event"
		},
		{
			"anonymous": false,
			"inputs": [
				{
					"indexed": true,
					"internalType": "address",
					"name": "owner",
					"type": "address"
				},
				{
					"indexed": true,
					"internalType": "address",
					"name": "operator",
					"type": "address"
				},
				{
					"indexed": false,
					"internalType": "bool",
					"name": "approved",
					"type": "bool"
				}
			],
			"name": "ApprovalForAll",
			"type": "event"
		},
		{
			"anonymous": false,
			"inputs": [
				{
					"indexed": true,
					"internalType": "address",
					"name": "user",
					"type": "address"
				},
				{
					"indexed": false,
					"internalType": "uint256",
					"name": "tokenId",
					"type": "uint256"
				},
				{
					"indexed": false,
					"internalType": "address",
					"name": "to",
					"type": "address"
				}
			],
			"name": "EndTorrent",
			"type": "event"
		},
		{
			"anonymous": false,
			"inputs": [
				{
					"indexed": true,
					"internalType": "address",
					"name": "user",
					"type": "address"
				},
				{
					"indexed": true,
					"internalType": "address",
					"name": "xenContract",
					"type": "address"
				},
				{
					"indexed": true,
					"internalType": "address",
					"name": "tokenContract",
					"type": "address"
				},
				{
					"indexed": false,
					"internalType": "uint256",
					"name": "xenAmount",
					"type": "uint256"
				},
				{
					"indexed": false,
					"internalType": "uint256",
					"name": "tokenAmount",
					"type": "uint256"
				}
			],
			"name": "Redeemed",
			"type": "event"
		},
		{
			"anonymous": false,
			"inputs": [
				{
					"indexed": true,
					"internalType": "address",
					"name": "user",
					"type": "address"
				},
				{
					"indexed": false,
					"internalType": "uint256",
					"name": "count",
					"type": "uint256"
				},
				{
					"indexed": false,
					"internalType": "uint256",
					"name": "term",
					"type": "uint256"
				}
			],
			"name": "StartTorrent",
			"type": "event"
		},
		{
			"anonymous": false,
			"inputs": [
				{
					"indexed": true,
					"internalType": "address",
					"name": "from",
					"type": "address"
				},
				{
					"indexed": true,
					"internalType": "address",
					"name": "to",
					"type": "address"
				},
				{
					"indexed": true,
					"internalType": "uint256",
					"name": "tokenId",
					"type": "uint256"
				}
			],
			"name": "Transfer",
			"type": "event"
		},
		{
			"inputs": [],
			"name": "AUTHORS",
			"outputs": [
				{
					"internalType": "string",
					"name": "",
					"type": "string"
				}
			],
			"stateMutability": "view",
			"type": "function"
		},
		{
			"inputs": [],
			"name": "BLACKOUT_TERM",
			"outputs": [
				{
					"internalType": "uint256",
					"name": "",
					"type": "uint256"
				}
			],
			"stateMutability": "view",
			"type": "function"
		},
		{
			"inputs": [],
			"name": "COMMON_CATEGORY_COUNTER",
			"outputs": [
				{
					"internalType": "uint256",
					"name": "",
					"type": "uint256"
				}
			],
			"stateMutability": "view",
			"type": "function"
		},
		{
			"inputs": [],
			"name": "LIMITED_CATEGORY_TIME_THRESHOLD",
			"outputs": [
				{
					"internalType": "uint256",
					"name": "",
					"type": "uint256"
				}
			],
			"stateMutability": "view",
			"type": "function"
		},
		{
			"inputs": [],
			"name": "OPERATOR_FILTER_REGISTRY",
			"outputs": [
				{
					"internalType": "contract IOperatorFilterRegistry",
					"name": "",
					"type": "address"
				}
			],
			"stateMutability": "view",
			"type": "function"
		},
		{
			"inputs": [],
			"name": "POWER_GROUP_SIZE",
			"outputs": [
				{
					"internalType": "uint256",
					"name": "",
					"type": "uint256"
				}
			],
			"stateMutability": "view",
			"type": "function"
		},
		{
			"inputs": [],
			"name": "ROYALTY_BP",
			"outputs": [
				{
					"internalType": "uint256",
					"name": "",
					"type": "uint256"
				}
			],
			"stateMutability": "view",
			"type": "function"
		},
		{
			"inputs": [],
			"name": "SPECIAL_CATEGORIES_VMU_THRESHOLD",
			"outputs": [
				{
					"internalType": "uint256",
					"name": "",
					"type": "uint256"
				}
			],
			"stateMutability": "view",
			"type": "function"
		},
		{
			"inputs": [
				{
					"internalType": "address",
					"name": "trustedForwarder",
					"type": "address"
				}
			],
			"name": "addForwarder",
			"outputs": [],
			"stateMutability": "nonpayable",
			"type": "function"
		},
		{
			"inputs": [
				{
					"internalType": "address",
					"name": "operator",
					"type": "address"
				},
				{
					"internalType": "uint256",
					"name": "tokenId",
					"type": "uint256"
				}
			],
			"name": "approve",
			"outputs": [],
			"stateMutability": "nonpayable",
			"type": "function"
		},
		{
			"inputs": [
				{
					"internalType": "address",
					"name": "owner",
					"type": "address"
				}
			],
			"name": "balanceOf",
			"outputs": [
				{
					"internalType": "uint256",
					"name": "",
					"type": "uint256"
				}
			],
			"stateMutability": "view",
			"type": "function"
		},
		{
			"inputs": [
				{
					"internalType": "uint256",
					"name": "tokenId",
					"type": "uint256"
				},
				{
					"internalType": "address",
					"name": "to",
					"type": "address"
				}
			],
			"name": "bulkClaimMintReward",
			"outputs": [],
			"stateMutability": "nonpayable",
			"type": "function"
		},
		{
			"inputs": [
				{
					"internalType": "uint256",
					"name": "count",
					"type": "uint256"
				},
				{
					"internalType": "uint256",
					"name": "term",
					"type": "uint256"
				}
			],
			"name": "bulkClaimRank",
			"outputs": [
				{
					"internalType": "uint256",
					"name": "tokenId",
					"type": "uint256"
				}
			],
			"stateMutability": "nonpayable",
			"type": "function"
		},
		{
			"inputs": [
				{
					"internalType": "uint256",
					"name": "count",
					"type": "uint256"
				},
				{
					"internalType": "uint256",
					"name": "term",
					"type": "uint256"
				},
				{
					"internalType": "uint256",
					"name": "burning",
					"type": "uint256"
				}
			],
			"name": "bulkClaimRankLimited",
			"outputs": [
				{
					"internalType": "uint256",
					"name": "",
					"type": "uint256"
				}
			],
			"stateMutability": "nonpayable",
			"type": "function"
		},
		{
			"inputs": [
				{
					"internalType": "address",
					"name": "user",
					"type": "address"
				},
				{
					"internalType": "uint256",
					"name": "tokenId",
					"type": "uint256"
				}
			],
			"name": "burn",
			"outputs": [],
			"stateMutability": "nonpayable",
			"type": "function"
		},
		{
			"inputs": [
				{
					"internalType": "address",
					"name": "to",
					"type": "address"
				}
			],
			"name": "callClaimMintReward",
			"outputs": [],
			"stateMutability": "nonpayable",
			"type": "function"
		},
		{
			"inputs": [
				{
					"internalType": "uint256",
					"name": "term",
					"type": "uint256"
				}
			],
			"name": "callClaimRank",
			"outputs": [],
			"stateMutability": "nonpayable",
			"type": "function"
		},
		{
			"inputs": [],
			"name": "genesisTs",
			"outputs": [
				{
					"internalType": "uint256",
					"name": "",
					"type": "uint256"
				}
			],
			"stateMutability": "view",
			"type": "function"
		},
		{
			"inputs": [
				{
					"internalType": "uint256",
					"name": "tokenId",
					"type": "uint256"
				}
			],
			"name": "getApproved",
			"outputs": [
				{
					"internalType": "address",
					"name": "",
					"type": "address"
				}
			],
			"stateMutability": "view",
			"type": "function"
		},
		{
			"inputs": [
				{
					"internalType": "uint256",
					"name": "tokenId",
					"type": "uint256"
				}
			],
			"name": "isApex",
			"outputs": [
				{
					"internalType": "bool",
					"name": "apex",
					"type": "bool"
				}
			],
			"stateMutability": "pure",
			"type": "function"
		},
		{
			"inputs": [
				{
					"internalType": "address",
					"name": "owner",
					"type": "address"
				},
				{
					"internalType": "address",
					"name": "operator",
					"type": "address"
				}
			],
			"name": "isApprovedForAll",
			"outputs": [
				{
					"internalType": "bool",
					"name": "",
					"type": "bool"
				}
			],
			"stateMutability": "view",
			"type": "function"
		},
		{
			"inputs": [
				{
					"internalType": "address",
					"name": "forwarder",
					"type": "address"
				}
			],
			"name": "isTrustedForwarder",
			"outputs": [
				{
					"internalType": "bool",
					"name": "",
					"type": "bool"
				}
			],
			"stateMutability": "view",
			"type": "function"
		},
		{
			"inputs": [
				{
					"internalType": "uint256",
					"name": "",
					"type": "uint256"
				}
			],
			"name": "mintInfo",
			"outputs": [
				{
					"internalType": "uint256",
					"name": "",
					"type": "uint256"
				}
			],
			"stateMutability": "view",
			"type": "function"
		},
		{
			"inputs": [],
			"name": "name",
			"outputs": [
				{
					"internalType": "string",
					"name": "",
					"type": "string"
				}
			],
			"stateMutability": "view",
			"type": "function"
		},
		{
			"inputs": [
				{
					"internalType": "address",
					"name": "user",
					"type": "address"
				},
				{
					"internalType": "uint256",
					"name": "burned",
					"type": "uint256"
				}
			],
			"name": "onTokenBurned",
			"outputs": [],
			"stateMutability": "nonpayable",
			"type": "function"
		},
		{
			"inputs": [],
			"name": "ownedTokens",
			"outputs": [
				{
					"internalType": "uint256[]",
					"name": "",
					"type": "uint256[]"
				}
			],
			"stateMutability": "view",
			"type": "function"
		},
		{
			"inputs": [],
			"name": "owner",
			"outputs": [
				{
					"internalType": "address",
					"name": "",
					"type": "address"
				}
			],
			"stateMutability": "view",
			"type": "function"
		},
		{
			"inputs": [
				{
					"internalType": "uint256",
					"name": "tokenId",
					"type": "uint256"
				}
			],
			"name": "ownerOf",
			"outputs": [
				{
					"internalType": "address",
					"name": "",
					"type": "address"
				}
			],
			"stateMutability": "view",
			"type": "function"
		},
		{
			"inputs": [],
			"name": "powerDown",
			"outputs": [],
			"stateMutability": "nonpayable",
			"type": "function"
		},
		{
			"inputs": [
				{
					"internalType": "uint256",
					"name": "",
					"type": "uint256"
				},
				{
					"internalType": "uint256",
					"name": "salePrice",
					"type": "uint256"
				}
			],
			"name": "royaltyInfo",
			"outputs": [
				{
					"internalType": "address",
					"name": "receiver",
					"type": "address"
				},
				{
					"internalType": "uint256",
					"name": "royaltyAmount",
					"type": "uint256"
				}
			],
			"stateMutability": "view",
			"type": "function"
		},
		{
			"inputs": [
				{
					"internalType": "address",
					"name": "from",
					"type": "address"
				},
				{
					"internalType": "address",
					"name": "to",
					"type": "address"
				},
				{
					"internalType": "uint256",
					"name": "tokenId",
					"type": "uint256"
				}
			],
			"name": "safeTransferFrom",
			"outputs": [],
			"stateMutability": "nonpayable",
			"type": "function"
		},
		{
			"inputs": [
				{
					"internalType": "address",
					"name": "from",
					"type": "address"
				},
				{
					"internalType": "address",
					"name": "to",
					"type": "address"
				},
				{
					"internalType": "uint256",
					"name": "tokenId",
					"type": "uint256"
				},
				{
					"internalType": "bytes",
					"name": "data",
					"type": "bytes"
				}
			],
			"name": "safeTransferFrom",
			"outputs": [],
			"stateMutability": "nonpayable",
			"type": "function"
		},
		{
			"inputs": [
				{
					"internalType": "address",
					"name": "operator",
					"type": "address"
				},
				{
					"internalType": "bool",
					"name": "approved",
					"type": "bool"
				}
			],
			"name": "setApprovalForAll",
			"outputs": [],
			"stateMutability": "nonpayable",
			"type": "function"
		},
		{
			"inputs": [
				{
					"internalType": "uint256",
					"name": "",
					"type": "uint256"
				}
			],
			"name": "specialClassesBurnRates",
			"outputs": [
				{
					"internalType": "uint256",
					"name": "",
					"type": "uint256"
				}
			],
			"stateMutability": "view",
			"type": "function"
		},
		{
			"inputs": [
				{
					"internalType": "uint256",
					"name": "",
					"type": "uint256"
				}
			],
			"name": "specialClassesCounters",
			"outputs": [
				{
					"internalType": "uint256",
					"name": "",
					"type": "uint256"
				}
			],
			"stateMutability": "view",
			"type": "function"
		},
		{
			"inputs": [
				{
					"internalType": "uint256",
					"name": "",
					"type": "uint256"
				}
			],
			"name": "specialClassesTokenLimits",
			"outputs": [
				{
					"internalType": "uint256",
					"name": "",
					"type": "uint256"
				}
			],
			"stateMutability": "view",
			"type": "function"
		},
		{
			"inputs": [],
			"name": "startBlockNumber",
			"outputs": [
				{
					"internalType": "uint256",
					"name": "",
					"type": "uint256"
				}
			],
			"stateMutability": "view",
			"type": "function"
		},
		{
			"inputs": [
				{
					"internalType": "bytes4",
					"name": "interfaceId",
					"type": "bytes4"
				}
			],
			"name": "supportsInterface",
			"outputs": [
				{
					"internalType": "bool",
					"name": "",
					"type": "bool"
				}
			],
			"stateMutability": "view",
			"type": "function"
		},
		{
			"inputs": [],
			"name": "symbol",
			"outputs": [
				{
					"internalType": "string",
					"name": "",
					"type": "string"
				}
			],
			"stateMutability": "view",
			"type": "function"
		},
		{
			"inputs": [],
			"name": "tokenIdCounter",
			"outputs": [
				{
					"internalType": "uint256",
					"name": "",
					"type": "uint256"
				}
			],
			"stateMutability": "view",
			"type": "function"
		},
		{
			"inputs": [
				{
					"internalType": "uint256",
					"name": "tokenId",
					"type": "uint256"
				}
			],
			"name": "tokenURI",
			"outputs": [
				{
					"internalType": "string",
					"name": "",
					"type": "string"
				}
			],
			"stateMutability": "view",
			"type": "function"
		},
		{
			"inputs": [
				{
					"internalType": "address",
					"name": "from",
					"type": "address"
				},
				{
					"internalType": "address",
					"name": "to",
					"type": "address"
				},
				{
					"internalType": "uint256",
					"name": "tokenId",
					"type": "uint256"
				}
			],
			"name": "transferFrom",
			"outputs": [],
			"stateMutability": "nonpayable",
			"type": "function"
		},
		{
			"inputs": [
				{
					"internalType": "uint256",
					"name": "",
					"type": "uint256"
				}
			],
			"name": "vmuCount",
			"outputs": [
				{
					"internalType": "uint256",
					"name": "",
					"type": "uint256"
				}
			],
			"stateMutability": "view",
			"type": "function"
		},
		{
			"inputs": [
				{
					"internalType": "uint256",
					"name": "",
					"type": "uint256"
				}
			],
			"name": "xenBurned",
			"outputs": [
				{
					"internalType": "uint256",
					"name": "",
					"type": "uint256"
				}
			],
			"stateMutability": "view",
			"type": "function"
		},
		{
			"inputs": [],
			"name": "xenCrypto",
			"outputs": [
				{
					"internalType": "contract XENEVCrypto",
					"name": "",
					"type": "address"
				}
			],
			"stateMutability": "view",
			"type": "function"
		}
	]
}