{
	"data": {
		"bytecode": {
			"linkReferences": {
				"XENEVFTorrent/Math.sol": {
					"Math": [
						{
							"length": 20,
							"start": 10848
						},
						{
							"length": 20,
							"start": 12482
						},
						{
							"length": 20,
							"start": 13057
						},
						{
							"length": 20,
							"start": 13979
						}
					]
				}
			},
			"object": "60c0604052620000156201518061012c620001e7565b60055560016006553480156200002a57600080fd5b5060405162003c7738038062003c778339810160408190526200004d9162000213565b6040518060400160405280600b81526020016a58454e455643727970746f60a81b815250604051806040016040528060058152602001642c22a722ab60d91b8152508160039081620000a09190620002ea565b506004620000af8282620002ea565b5050506001600160a01b038116620000fb5760405162461bcd60e51b815260206004820152600b60248201526a626164206164647265737360a81b604482015260640160405180910390fd5b6001600160a01b03811660a081905260408051630e12204160e11b81529051631c244082916004808201926020929091908290030181865afa15801562000146573d6000803e3d6000fd5b505050506040513d601f19601f820116820180604052508101906200016c9190620003b6565b60068190555060a0516001600160a01b031663451257156040518163ffffffff1660e01b8152600401602060405180830381865afa158015620001b3573d6000803e3d6000fd5b505050506040513d601f19601f82011682018060405250810190620001d99190620003b6565b6005555042608052620003d0565b80820281158282048414176200020d57634e487b7160e01b600052601160045260246000fd5b92915050565b6000602082840312156200022657600080fd5b81516001600160a01b03811681146200023e57600080fd5b9392505050565b634e487b7160e01b600052604160045260246000fd5b600181811c908216806200027057607f821691505b6020821081036200029157634e487b7160e01b600052602260045260246000fd5b50919050565b601f821115620002e557600081815260208120601f850160051c81016020861015620002c05750805b601f850160051c820191505b81811015620002e157828155600101620002cc565b5050505b505050565b81516001600160401b0381111562000306576200030662000245565b6200031e816200031784546200025b565b8462000297565b602080601f8311600181146200035657600084156200033d5750858301515b600019600386901b1c1916600185901b178555620002e1565b600085815260208120601f198616915b82811015620003875788860151825594840194600190910190840162000366565b5085821015620003a65787850151600019600388901b60f8161c191681555b5050505050600190811b01905550565b600060208284031215620003c957600080fd5b5051919050565b60805160a051613850620004276000396000818161067e0152818161223a01528181612326015281816124280152612f710152600081816108e301528181612e3a01528181612e9d01526131c101526138506000f3fe608060405234801561001057600080fd5b50600436106103fc5760003560e01c806372475f9411610215578063ba3ec74111610125578063df282331116100b8578063f029093e11610087578063f029093e14610917578063f060482914610920578063f27a626414610928578063f340faed1461093b578063fed742691461094557600080fd5b8063df2823311461085a578063e3af6d0a146108de578063e81917b414610905578063ed2f23691461090e57600080fd5b8063ce653d5f116100f4578063ce653d5f146107f4578063cf7a862614610814578063d3fe468914610834578063dd62ed3e1461084757600080fd5b8063ba3ec741146107dc578063bcfe394f146104ea578063c0c65259146107e4578063c56f0bab146107ec57600080fd5b8063962ca496116101a8578063a457c2d711610177578063a457c2d714610791578063a9059cbb146107a4578063b0fd1fc2146107b7578063b21d35f2146107ca578063b4800cdc146107d357600080fd5b8063962ca4961461075b57806399202454146107635780639dc29fac1461076b5780639ff054df1461077e57600080fd5b80638da5cb5b116101e45780638da5cb5b146106e35780638da7ad23146106f6578063909a2ff61461074b57806395d89b411461075357600080fd5b806372475f94146106b85780637b0472f0146106c05780637e7aa62e146106d35780638979c87c146106db57600080fd5b8063313ce56711610310578063543746b1116102a357806361a52a361161027257806361a52a36146105ce5780636a5e0766146105d85780637010d7a1146105f857806370a082311461065057806371141a581461067957600080fd5b8063543746b114610596578063543d3652146104ea578063583b912c146105a85780635bccb4c4146105bb57600080fd5b80633ccfd60b116102df5780633ccfd60b1461055e578063451257151461056657806352c7f8dc1461056e578063539313b81461057657600080fd5b8063313ce5671461052157806331b9e85d1461053057806332870fda14610543578063395093511461054b57600080fd5b806316f9c8fd116103935780631c6f212e116103625780631c6f212e146104ea57806323b872dd146104f25780632a62d966146104815780632a6485a514610505578063310caf2d1461050e57600080fd5b806316f9c8fd1461048957806318160ddd146104c45780631c244082146104cc5780631c560305146104d557600080fd5b8063095ea7b3116103cf578063095ea7b31461045e5780630bfae56b146104715780630f2e122814610479578063110d7fc21461048157600080fd5b806301ffc9a7146104015780630237893214610429578063069612a51461044057806306fdde0314610449575b600080fd5b61041461040f3660046132d2565b61094d565b60405190151581526020015b60405180910390f35b61043261016d81565b604051908152602001610420565b61043260095481565b610451610984565b60405161042091906132fc565b61041461046c366004613366565b610a16565b610432610a2e565b610432606381565b610432600081565b610491610a3f565b60405161042091908151815260208083015190820152604080830151908201526060918201519181019190915260800190565b600254610432565b61043260065481565b6104e86104e3366004613366565b610ab0565b005b610432600181565b610414610500366004613390565b610d11565b61043260055481565b6104e861051c366004613390565b610d35565b60405160128152602001610420565b6104e861053e366004613366565b610e6d565b610432605a81565b610414610559366004613366565b610fa2565b6104e8610fc4565b61043261111a565b6104e8611129565b6104326105843660046133cc565b600e6020526000908152604090205481565b6104e86105a4366004613366565b5050565b6104e86105b6366004613390565b61124c565b6104e86105c93660046133e7565b6113cf565b6104326201518081565b6104326105e63660046133cc565b600f6020526000908152604090205481565b610600611732565b604051610420919081516001600160a01b031681526020808301519082015260408083015190820152606080830151908201526080808301519082015260a0918201519181019190915260c00190565b61043261065e3660046133cc565b6001600160a01b031660009081526020819052604090205490565b6106a07f000000000000000000000000000000000000000000000000000000000000000081565b6040516001600160a01b039091168152602001610420565b610432600f81565b6104e86106ce3660046133e7565b6117d7565b610432600281565b610432611a01565b6010546106a0906001600160a01b031681565b61072b6107043660046133cc565b600b6020526000908152604090208054600182015460028301546003909301549192909184565b604080519485526020850193909352918301526060820152608001610420565b610432606481565b610451611a0b565b610432611a1a565b610432611a24565b6104e8610779366004613366565b611a2e565b6104e861078c366004613409565b611bb7565b61041461079f366004613366565b611e38565b6104146107b2366004613366565b611eb3565b6104326107c5366004613422565b611ec1565b61043261138881565b61043260075481565b610451611f51565b610432611f6d565b610432600781565b6104326108023660046133cc565b600c6020526000908152604090205481565b6104326108223660046133cc565b600d6020526000908152604090205481565b6104e8610842366004613366565b611f7c565b610432610855366004613454565b6120ff565b6108a76108683660046133cc565b600a602052600090815260409020805460018201546002830154600384015460048501546005909501546001600160a01b039094169492939192909186565b604080516001600160a01b0390971687526020870195909552938501929092526060840152608083015260a082015260c001610420565b6104327f000000000000000000000000000000000000000000000000000000000000000081565b61043261012c81565b61043260085481565b61043261271081565b61043261212a565b6104e8610936366004613366565b612143565b610432620186a081565b610432601481565b60006001600160e01b0319821663543746b160e01b148061097e57506001600160e01b031982166301ffc9a760e01b145b92915050565b60606003805461099390613487565b80601f01602080910402602001604051908101604052809291908181526020018280546109bf90613487565b8015610a0c5780601f106109e157610100808354040283529160200191610a0c565b820191906000526020600020905b8154815290600101906020018083116109ef57829003601f168201915b5050505050905090565b600033610a248185856124f4565b5060019392505050565b610a3c6201518060646134d1565b81565b610a6a6040518060800160405280600081526020016000815260200160008152602001600081525090565b50336000908152600b6020908152604091829020825160808101845281548152600182015492810192909252600281015492820192909252600390910154606082015290565b336000908152600a6020908152604091829020825160c08101845281546001600160a01b03908116825260018301549382019390935260028201549381019390935260038101546060840152600481015460808401526005015460a08301528316610b705760405162461bcd60e51b815260206004820152602560248201527f4352616e6b3a2043616e6e6f742073686172652077697468207a65726f206164604482015264647265737360d81b60648201526084015b60405180910390fd5b60008211610bc05760405162461bcd60e51b815260206004820181905260248201527f4352616e6b3a2043616e6e6f74207368617265207a65726f2070657263656e746044820152606401610b67565b60658210610c105760405162461bcd60e51b815260206004820181905260248201527f4352616e6b3a2043616e6e6f74207368617265203130302b2070657263656e746044820152606401610b67565b6000816060015111610c345760405162461bcd60e51b8152600401610b67906134e8565b80604001514211610c575760405162461bcd60e51b8152600401610b6790613517565b6000610c7a82606001518360200151846040015185608001518660a00151612619565b610c8c90670de0b6b3a76400006134d1565b905060006064610c9c85846134d1565b610ca69190613562565b90506000610cb48284613576565b9050610cc1335b82612717565b610ccb8683612717565b610cd36127f6565b60405183815233907fd74752b13281df13701575f3a507e9b1242e0b5fb040143211c481c1fce573a6906020015b60405180910390a2505050505050565b600033610d1f85828561284a565b610d2a8585856128c4565b506001949350505050565b326001600160a01b03841614610d5d5760405162461bcd60e51b8152600401610b6790613589565b610d69612710826135af565b15610d865760405162461bcd60e51b8152600401610b67906135c3565b6001600160a01b038316610dac5760405162461bcd60e51b8152600401610b679061360d565b60008111610dcc5760405162461bcd60e51b8152600401610b679061364f565b6000610dda61271083613562565b90506000610dea6012600a613762565b610df490846134d1565b9050610e0285335b8361284a565b610e0c8582612a92565b6001600160a01b0385166000908152600c602052604081208054859290610e3490849061376e565b90915550506001600160a01b0384166000908152600e602052604081208054849290610e6190849061376e565b90915550505050505050565b326001600160a01b03831614610e955760405162461bcd60e51b8152600401610b6790613589565b610ea1612710826135af565b15610ebe5760405162461bcd60e51b8152600401610b67906135c3565b6001600160a01b038216610ee45760405162461bcd60e51b8152600401610b679061360d565b60008111610f045760405162461bcd60e51b8152600401610b679061364f565b6000610f1261271083613562565b90506000610f226012600a613762565b610f2c90846134d1565b9050610f388433610dfc565b610f428482612a92565b6001600160a01b0384166000908152600c602052604081208054859290610f6a90849061376e565b90915550506001600160a01b0384166000908152600e602052604081208054849290610f9790849061376e565b909155505050505050565b600033610a24818585610fb583836120ff565b610fbf919061376e565b6124f4565b336000908152600b60209081526040918290208251608081018452815481526001820154928101929092526002810154928201839052600301546060820152906110495760405162461bcd60e51b815260206004820152601660248201527558454e45563a206e6f207374616b652065786973747360501b6044820152606401610b67565b60006110678260400151836000015184602001518560600151612bd8565b60088054919250600061107983613781565b91905055508160400151600960008282546110949190613576565b909155506110b39050338284604001516110ae919061376e565b612717565b60408083015181519081526020810183905233917f92ccf450a286a957af52509bc1c9939d1a6a481783e142e41e2499f0bb66ebc6910160405180910390a25050336000908152600b60205260408120818155600181018290556002810182905560030155565b6000611124612c36565b905090565b336000908152600a6020908152604091829020825160c08101845281546001600160a01b031681526001820154928101929092526002810154928201929092526003820154606082018190526004830154608083015260059092015460a0820152906111a75760405162461bcd60e51b8152600401610b67906134e8565b806040015142116111ca5760405162461bcd60e51b8152600401610b6790613517565b60006111ed82606001518360200151846040015185608001518660a00151612619565b6111ff90670de0b6b3a76400006134d1565b905061120a33610cbb565b6112126127f6565b60405181815233907fd74752b13281df13701575f3a507e9b1242e0b5fb040143211c481c1fce573a6906020015b60405180910390a25050565b326001600160a01b038416146112745760405162461bcd60e51b8152600401610b6790613589565b6001600160a01b03831661129a5760405162461bcd60e51b8152600401610b679061360d565b600081116112ba5760405162461bcd60e51b8152600401610b679061364f565b6001600160a01b0383166000908152600e602052604090205481111561130f5760405162461bcd60e51b815260206004820152600a6024820152692732b2b2102837bbb2b960b11b6044820152606401610b67565b600061131d826103e86134d1565b9050600061132d6012600a613762565b61133790836134d1565b90506113438533610dfc565b61134d8582612a92565b6001600160a01b0385166000908152600c60205260408120805484929061137590849061376e565b90915550506001600160a01b0384166000908152600e6020526040812080548592906113a290849061376e565b90915550506001600160a01b0385166000908152600e602052604081208054859290610e61908490613576565b336000908152600a6020908152604091829020825160c08101845281546001600160a01b03168152600182015492810192909252600281015492820192909252600382015460608201526004820154608082015260059091015460a08201526065831061147e5760405162461bcd60e51b815260206004820181905260248201527f4352616e6b3a2043616e6e6f74207368617265203e3130302070657263656e746044820152606401610b67565b60008160600151116114a25760405162461bcd60e51b8152600401610b67906134e8565b806040015142116114c55760405162461bcd60e51b8152600401610b6790613517565b60006114e882606001518360200151846040015185608001518660a00151612619565b6114fa90670de0b6b3a76400006134d1565b90506000606461150a86846134d1565b6115149190613562565b905060006115228284613576565b905061152d33610cbb565b6115356127f6565b60405183815233907fd74752b13281df13701575f3a507e9b1242e0b5fb040143211c481c1fce573a69060200160405180910390a2600082116115b35760405162461bcd60e51b815260206004820152601660248201527558454e45563a2042656c6f77206d696e207374616b6560501b6044820152606401610b67565b60016115c262015180826134d1565b6115cc9190613576565b6115d962015180876134d1565b116116265760405162461bcd60e51b815260206004820152601b60248201527f58454e45563a2042656c6f77206d696e207374616b65207465726d00000000006044820152606401610b67565b611635620151806103e86134d1565b61164090600161376e565b61164d62015180876134d1565b1061169a5760405162461bcd60e51b815260206004820152601b60248201527f58454e454f3a2041626f7665206d6178207374616b65207465726d00000000006044820152606401610b67565b336000908152600b6020526040902060020154156116f05760405162461bcd60e51b815260206004820152601360248201527258454e45563a207374616b652065786973747360681b6044820152606401610b67565b6116fa8286612d3d565b604080518381526020810187905233917f1449c6dd7851abc30abf37f57715f492010519147cc2652fbc38202c18a6ee909101610d01565b6117746040518060c0016040528060006001600160a01b0316815260200160008152602001600081526020016000815260200160008152602001600081525090565b50336000908152600a6020908152604091829020825160c08101845281546001600160a01b03168152600182015492810192909252600281015492820192909252600382015460608201526004820154608082015260059091015460a082015290565b816117e13361065e565b101561182f5760405162461bcd60e51b815260206004820152601960248201527f58454e45563a206e6f7420656e6f7567682062616c616e6365000000000000006044820152606401610b67565b600082116118785760405162461bcd60e51b815260206004820152601660248201527558454e45563a2042656c6f77206d696e207374616b6560501b6044820152606401610b67565b600161188762015180826134d1565b6118919190613576565b61189e62015180836134d1565b116118eb5760405162461bcd60e51b815260206004820152601b60248201527f58454e45563a2042656c6f77206d696e207374616b65207465726d00000000006044820152606401610b67565b6118fa620151806103e86134d1565b61190590600161376e565b61191262015180836134d1565b1061195f5760405162461bcd60e51b815260206004820152601b60248201527f58454e45563a2041626f7665206d6178207374616b65207465726d00000000006044820152606401610b67565b336000908152600b6020526040902060020154156119b55760405162461bcd60e51b815260206004820152601360248201527258454e45563a207374616b652065786973747360681b6044820152606401610b67565b6119bf3383612a92565b6119c98282612d3d565b604080518381526020810183905233917f1449c6dd7851abc30abf37f57715f492010519147cc2652fbc38202c18a6ee909101611240565b6000611124612de0565b60606004805461099390613487565b6000611124612e24565b6000611124612e91565b60008111611a4e5760405162461bcd60e51b8152600401610b679061364f565b336040516301ffc9a760e01b815263543746b160e01b60048201526001600160a01b0391909116906301ffc9a790602401602060405180830381865afa158015611a9c573d6000803e3d6000fd5b505050506040513d601f19601f82011682018060405250810190611ac09190613798565b611b0c5760405162461bcd60e51b815260206004820152601e60248201527f4275726e3a206e6f74206120737570706f7274656420636f6e747261637400006044820152606401610b67565b611b168233610dfc565b611b208282612a92565b6001600160a01b0382166000908152600c602052604081208054839290611b4890849061376e565b9091555033905060405163543746b160e01b81526001600160a01b03848116600483015260248201849052919091169063543746b190604401600060405180830381600087803b158015611b9b57600080fd5b505af1158015611baf573d6000803e3d6000fd5b505050505050565b611bbf612f6d565b6000611bce62015180836134d1565b90506001611bdf62015180826134d1565b611be99190613576565b8111611c375760405162461bcd60e51b815260206004820152601960248201527f4352616e6b3a205465726d206c657373207468616e206d696e000000000000006044820152606401610b67565b611c3f612c36565b611c4a90600161376e565b8110611ca75760405162461bcd60e51b815260206004820152602660248201527f4352616e6b3a205465726d206d6f7265207468616e2063757272656e74206d6160448201526578207465726d60d01b6064820152608401610b67565b336000908152600a602052604090206003015415611d075760405162461bcd60e51b815260206004820152601f60248201527f4352616e6b3a204d696e7420616c726561647920696e2070726f6772657373006044820152606401610b67565b60006040518060c00160405280611d1b3390565b6001600160a01b0316815260208101859052604001611d3a844261376e565b81526020016006548152602001611d4f612e91565b8152602001611d5c612de0565b9052336000908152600a60209081526040808320845181546001600160a01b0319166001600160a01b039091161781559184015160018301558301516002820155606083015160038201556080830151600482015560a08301516005909101556007805492935090611dcd836137ba565b9190505550611dd93390565b6001600160a01b03167fe9149e1b5059238baed02fa659dbf4bd932fbcf760a431330df4d934bc942f378460066000815480929190611e17906137ba565b909155506040805192835260208301919091520160405180910390a2505050565b60003381611e4682866120ff565b905083811015611ea65760405162461bcd60e51b815260206004820152602560248201527f45524332303a2064656372656173656420616c6c6f77616e63652062656c6f77604482015264207a65726f60d81b6064820152608401610b67565b610d2a82868684036124f4565b600033610a248185856128c4565b600080611ed8611ed087613005565b600f0b613023565b90506000611f14611ee885613005565b611f0b611ef488613005565b611f0b611f008b613005565b600f88900b90613107565b600f0b90613107565b9050611f3a611f32611f276103e8613005565b600f84900b90613145565b600f0b61319c565b67ffffffffffffffff16925050505b949350505050565b6040518060600160405280602e81526020016137ed602e913981565b610a3c620151806103e86134d1565b326001600160a01b03831614611fa45760405162461bcd60e51b8152600401610b6790613589565b6001600160a01b038216611fca5760405162461bcd60e51b8152600401610b679061360d565b60008111611fea5760405162461bcd60e51b8152600401610b679061364f565b6001600160a01b0382166000908152600e602052604090205481111561203f5760405162461bcd60e51b815260206004820152600a6024820152692732b2b2102837bbb2b960b11b6044820152606401610b67565b600061204d826103e86134d1565b9050600061205d6012600a613762565b61206790836134d1565b90506120738433610dfc565b61207d8482612a92565b6001600160a01b0384166000908152600c6020526040812080548492906120a590849061376e565b90915550506001600160a01b0384166000908152600e6020526040812080548592906120d2908490613576565b90915550506001600160a01b0384166000908152600f602052604081208054859290610f9790849061376e565b6001600160a01b03918216600090815260016020908152604080832093909416825291909152205490565b600161213962015180826134d1565b610a3c9190613576565b600061214d6131b8565b9050600061215d6012600a613762565b61216790846134d1565b90506001821515146121b45760405162461bcd60e51b8152602060048201526016602482015275496e76616c69642074696d6520746f2062726964676560501b6044820152606401610b67565b326001600160a01b038516146121dc5760405162461bcd60e51b8152600401610b6790613589565b6001600160a01b0384166122025760405162461bcd60e51b8152600401610b679061360d565b600081116122225760405162461bcd60e51b8152600401610b679061364f565b6040516370a0823160e01b81523360048201526000907f00000000000000000000000000000000000000000000000000000000000000006001600160a01b0316906370a0823190602401602060405180830381865afa158015612289573d6000803e3d6000fd5b505050506040513d601f19601f820116820180604052508101906122ad91906137d3565b90506122ba600183613576565b81116123085760405162461bcd60e51b815260206004820152601d60248201527f58454e45563a206e6f7420656e6f7567682058454e2062616c616e63650000006044820152606401610b67565b604051636eb1769f60e11b81523360048201523060248201526000907f00000000000000000000000000000000000000000000000000000000000000006001600160a01b03169063dd62ed3e90604401602060405180830381865afa158015612375573d6000803e3d6000fd5b505050506040513d601f19601f8201168201806040525081019061239991906137d3565b90506123a6600184613576565b811161240c5760405162461bcd60e51b815260206004820152602f60248201527f58454e45563a206e6f7420656e6f7567682058454e2062616c616e636520617060448201526e383937bb32b2103337b910313ab93760891b6064820152608401610b67565b604051632770a7eb60e21b8152336004820152602481018490527f00000000000000000000000000000000000000000000000000000000000000006001600160a01b031690639dc29fac90604401600060405180830381600087803b15801561247457600080fd5b505af1158015612488573d6000803e3d6000fd5b505050506001600160a01b0386166000908152600d6020526040812080548792906124b490849061376e565b90915550600090506124c7600a87613562565b90506124d56012600a613762565b6124df90826134d1565b93506124eb3385612717565b50505050505050565b6001600160a01b0383166125565760405162461bcd60e51b8152602060048201526024808201527f45524332303a20617070726f76652066726f6d20746865207a65726f206164646044820152637265737360e01b6064820152608401610b67565b6001600160a01b0382166125b75760405162461bcd60e51b815260206004820152602260248201527f45524332303a20617070726f766520746f20746865207a65726f206164647265604482015261737360f01b6064820152608401610b67565b6001600160a01b0383811660008181526001602090815260408083209487168084529482529182902085905590518481527f8c5be1e5ebec7d5bd14f71427d1e84f3dd0314c0f7b2291e5b200ac8c7c3b92591015b60405180910390a3505050565b6000806126268542613576565b90506000612633826131fd565b9050600073__$2ec0ea19d1732d59f62249bcd981d1e322$__636d5433e68a60065461265f9190613576565b6040516001600160e01b031960e084901b168152600481019190915260026024820152604401602060405180830381865af41580156126a2573d6000803e3d6000fd5b505050506040513d601f19601f820116820180604052508101906126c691906137d3565b905060006126d6866103e861376e565b905060006126e683898c85611ec1565b905060646126f48582613576565b6126fe90836134d1565b6127089190613562565b9b9a5050505050505050505050565b6001600160a01b03821661276d5760405162461bcd60e51b815260206004820152601f60248201527f45524332303a206d696e7420746f20746865207a65726f2061646472657373006044820152606401610b67565b806002600082825461277f919061376e565b90915550506001600160a01b038216600090815260208190526040812080548392906127ac90849061376e565b90915550506040518181526001600160a01b038316906000907fddf252ad1be2c89b69c2b068fc378daa952ba7f163c4a11628f55a4df523b3ef9060200160405180910390a35050565b336000908152600a6020526040812080546001600160a01b031916815560018101829055600281018290556003810182905560048101829055600501819055600780549161284383613781565b9190505550565b600061285684846120ff565b905060001981146128be57818110156128b15760405162461bcd60e51b815260206004820152601d60248201527f45524332303a20696e73756666696369656e7420616c6c6f77616e63650000006044820152606401610b67565b6128be84848484036124f4565b50505050565b6001600160a01b0383166129285760405162461bcd60e51b815260206004820152602560248201527f45524332303a207472616e736665722066726f6d20746865207a65726f206164604482015264647265737360d81b6064820152608401610b67565b6001600160a01b03821661298a5760405162461bcd60e51b815260206004820152602360248201527f45524332303a207472616e7366657220746f20746865207a65726f206164647260448201526265737360e81b6064820152608401610b67565b6001600160a01b03831660009081526020819052604090205481811015612a025760405162461bcd60e51b815260206004820152602660248201527f45524332303a207472616e7366657220616d6f756e7420657863656564732062604482015265616c616e636560d01b6064820152608401610b67565b6001600160a01b03808516600090815260208190526040808220858503905591851681529081208054849290612a3990849061376e565b92505081905550826001600160a01b0316846001600160a01b03167fddf252ad1be2c89b69c2b068fc378daa952ba7f163c4a11628f55a4df523b3ef84604051612a8591815260200190565b60405180910390a36128be565b6001600160a01b038216612af25760405162461bcd60e51b815260206004820152602160248201527f45524332303a206275726e2066726f6d20746865207a65726f206164647265736044820152607360f81b6064820152608401610b67565b6001600160a01b03821660009081526020819052604090205481811015612b665760405162461bcd60e51b815260206004820152602260248201527f45524332303a206275726e20616d6f756e7420657863656564732062616c616e604482015261636560f01b6064820152608401610b67565b6001600160a01b0383166000908152602081905260408120838303905560028054849290612b95908490613576565b90915550506040518281526000906001600160a01b038516907fddf252ad1be2c89b69c2b068fc378daa952ba7f163c4a11628f55a4df523b3ef9060200161260c565b600082421115612c2b57600061016d612bf186856134d1565b612bfe90620f42406134d1565b612c089190613562565b90506305f5e100612c1982886134d1565b612c239190613562565b915050611f49565b506000949350505050565b60006113886006541115612d2f576000612c64611f32612c56600f613005565b611f0b611ed0600654613005565b67ffffffffffffffff1690506000612c7f62015180836134d1565b612c8d6201518060646134d1565b612c97919061376e565b905073__$2ec0ea19d1732d59f62249bcd981d1e322$__637ae2b5c782612cc3620151806103e86134d1565b6040516001600160e01b031960e085901b16815260048101929092526024820152604401602060405180830381865af4158015612d04573d6000803e3d6000fd5b505050506040513d601f19601f82011682018060405250810190612d2891906137d3565b9250505090565b6111246201518060646134d1565b60405180608001604052808281526020016201518083612d5d91906134d1565b612d67904261376e565b8152602001838152602001612d7a612e24565b9052336000908152600b602090815260408083208451815591840151600183015583015160028201556060909201516003909201919091556008805491612dc0836137ba565b91905055508160096000828254612dd7919061376e565b90915550505050565b600080620186a06006546001612df691906134d1565b612e009190613562565b90506064811115612e1357600091505090565b612e1e816064613576565b91505090565b600080612e35605a620151806134d1565b612e5f7f000000000000000000000000000000000000000000000000000000000000000042613576565b612e699190613562565b905080612e7860026014613576565b1015612e8657600291505090565b612e1e816014613576565b60008062015180612ec27f000000000000000000000000000000000000000000000000000000000000000042613576565b612ecc9190613562565b905061012c811015612f655773__$2ec0ea19d1732d59f62249bcd981d1e322$__636d5433e6612efe8361012c613576565b6040516001600160e01b031960e084901b168152600481019190915260016024820152604401602060405180830381865af4158015612f41573d6000803e3d6000fd5b505050506040513d601f19601f82011682018060405250810190612e1e91906137d3565b600191505090565b60007f00000000000000000000000000000000000000000000000000000000000000006001600160a01b0316631c2440826040518163ffffffff1660e01b8152600401602060405180830381865afa158015612fcd573d6000803e3d6000fd5b505050506040513d601f19601f82011682018060405250810190612ff191906137d3565b600654909150818110156105a45750600655565b6000677fffffffffffffff82111561301c57600080fd5b5060401b90565b60008082600f0b1361303457600080fd5b6000600f83900b680100000000000000008112613053576040918201911d5b6401000000008112613067576020918201911d5b620100008112613079576010918201911d5b610100811261308a576008918201911d5b6010811261309a576004918201911d5b600481126130aa576002918201911d5b600281126130b9576001820191505b603f19820160401b600f85900b607f8490031b6780000000000000005b60008113156130fc5790800260ff81901c8281029390930192607f011c9060011d6130d6565b509095945050505050565b6000600f83810b9083900b0260401d60016001607f1b03198112801590613135575060016001607f1b038113155b61313e57600080fd5b9392505050565b600081600f0b60000361315757600080fd5b600082600f0b604085600f0b901b816131725761317261354c565b05905060016001607f1b03198112801590613135575060016001607f1b0381131561313e57600080fd5b60008082600f0b12156131ae57600080fd5b50600f0b60401d90565b600080806131e67f000000000000000000000000000000000000000000000000000000000000000042613576565b90506005548110156131f757600191505b50919050565b60008061320d6201518084613562565b905061321b60016007613576565b81111561322b5750606392915050565b60006001600761323c84600361376e565b6001901b61324a9190613562565b6132549190613576565b604051637ae2b5c760e01b8152600481018290526063602482015290915073__$2ec0ea19d1732d59f62249bcd981d1e322$__90637ae2b5c790604401602060405180830381865af41580156132ae573d6000803e3d6000fd5b505050506040513d601f19601f82011682018060405250810190611f4991906137d3565b6000602082840312156132e457600080fd5b81356001600160e01b03198116811461313e57600080fd5b600060208083528351808285015260005b818110156133295785810183015185820160400152820161330d565b506000604082860101526040601f19601f8301168501019250505092915050565b80356001600160a01b038116811461336157600080fd5b919050565b6000806040838503121561337957600080fd5b6133828361334a565b946020939093013593505050565b6000806000606084860312156133a557600080fd5b6133ae8461334a565b92506133bc6020850161334a565b9150604084013590509250925092565b6000602082840312156133de57600080fd5b61313e8261334a565b600080604083850312156133fa57600080fd5b50508035926020909101359150565b60006020828403121561341b57600080fd5b5035919050565b6000806000806080858703121561343857600080fd5b5050823594602084013594506040840135936060013592509050565b6000806040838503121561346757600080fd5b6134708361334a565b915061347e6020840161334a565b90509250929050565b600181811c9082168061349b57607f821691505b6020821081036131f757634e487b7160e01b600052602260045260246000fd5b634e487b7160e01b600052601160045260246000fd5b808202811582820484141761097e5761097e6134bb565b6020808252601590820152744352616e6b3a204e6f206d696e742065786973747360581b604082015260600190565b6020808252818101527f4352616e6b3a204d696e74206d61747572697479206e6f742072656163686564604082015260600190565b634e487b7160e01b600052601260045260246000fd5b6000826135715761357161354c565b500490565b8181038181111561097e5761097e6134bb565b6020808252600c908201526b24b73b30b634b2102ab9b2b960a11b604082015260600190565b6000826135be576135be61354c565b500690565b6020808252602a908201527f416d6f756e74206d7573742062652061206d756c7469706c65206f6620504f5760408201526922a92fa822a92fac22a760b11b606082015260800190565b60208082526022908201527f4275726e3a20596f752063616e74206275726e2066726f6d2061646472657373604082015261020360f41b606082015260800190565b602080825260159082015274109d5c9b8e8810995b1bddc81b5a5b881b1a5b5a5d605a1b604082015260600190565b600181815b808511156136b957816000190482111561369f5761369f6134bb565b808516156136ac57918102915b93841c9390800290613683565b509250929050565b6000826136d05750600161097e565b816136dd5750600061097e565b81600181146136f357600281146136fd57613719565b600191505061097e565b60ff84111561370e5761370e6134bb565b50506001821b61097e565b5060208310610133831016604e8410600b841016171561373c575081810a61097e565b613746838361367e565b806000190482111561375a5761375a6134bb565b029392505050565b600061313e83836136c1565b8082018082111561097e5761097e6134bb565b600081613790576137906134bb565b506000190190565b6000602082840312156137aa57600080fd5b8151801515811461313e57600080fd5b6000600182016137cc576137cc6134bb565b5060010190565b6000602082840312156137e557600080fd5b505191905056fe50657073204c616220404d724a61636b4c6576696e20406c62656c79616576206661697263727970746f2e6f7267a26469706673582212202decc593aed8e05e2d1ed0b81478e3933d9d0f292d2bec94d45b871e039ef93a64736f6c63430008120033",
			"opcodes": "PUSH1 0xC0 PUSH1 0x40 MSTORE PUSH3 0x15 PUSH3 0x15180 PUSH2 0x12C PUSH3 0x1E7 JUMP JUMPDEST PUSH1 0x5 SSTORE PUSH1 0x1 PUSH1 0x6 SSTORE CALLVALUE DUP1 ISZERO PUSH3 0x2A JUMPI PUSH1 0x0 DUP1 REVERT JUMPDEST POP PUSH1 0x40 MLOAD PUSH3 0x3C77 CODESIZE SUB DUP1 PUSH3 0x3C77 DUP4 CODECOPY DUP2 ADD PUSH1 0x40 DUP2 SWAP1 MSTORE PUSH3 0x4D SWAP2 PUSH3 0x213 JUMP JUMPDEST PUSH1 0x40 MLOAD DUP1 PUSH1 0x40 ADD PUSH1 0x40 MSTORE DUP1 PUSH1 0xB DUP2 MSTORE PUSH1 0x20 ADD PUSH11 0x58454E455643727970746F PUSH1 0xA8 SHL DUP2 MSTORE POP PUSH1 0x40 MLOAD DUP1 PUSH1 0x40 ADD PUSH1 0x40 MSTORE DUP1 PUSH1 0x5 DUP2 MSTORE PUSH1 0x20 ADD PUSH5 0x2C22A722AB PUSH1 0xD9 SHL DUP2 MSTORE POP DUP2 PUSH1 0x3 SWAP1 DUP2 PUSH3 0xA0 SWAP2 SWAP1 PUSH3 0x2EA JUMP JUMPDEST POP PUSH1 0x4 PUSH3 0xAF DUP3 DUP3 PUSH3 0x2EA JUMP JUMPDEST POP POP POP PUSH1 0x1 PUSH1 0x1 PUSH1 0xA0 SHL SUB DUP2 AND PUSH3 0xFB JUMPI PUSH1 0x40 MLOAD PUSH3 0x461BCD PUSH1 0xE5 SHL DUP2 MSTORE PUSH1 0x20 PUSH1 0x4 DUP3 ADD MSTORE PUSH1 0xB PUSH1 0x24 DUP3 ADD MSTORE PUSH11 0x6261642061646472657373 PUSH1 0xA8 SHL PUSH1 0x44 DUP3 ADD MSTORE PUSH1 0x64 ADD PUSH1 0x40 MLOAD DUP1 SWAP2 SUB SWAP1 REVERT JUMPDEST PUSH1 0x1 PUSH1 0x1 PUSH1 0xA0 SHL SUB DUP2 AND PUSH1 0xA0 DUP2 SWAP1 MSTORE PUSH1 0x40 DUP1 MLOAD PUSH4 0xE122041 PUSH1 0xE1 SHL DUP2 MSTORE SWAP1 MLOAD PUSH4 0x1C244082 SWAP2 PUSH1 0x4 DUP1 DUP3 ADD SWAP3 PUSH1 0x20 SWAP3 SWAP1 SWAP2 SWAP1 DUP3 SWAP1 SUB ADD DUP2 DUP7 GAS STATICCALL ISZERO DUP1 ISZERO PUSH3 0x146 JUMPI RETURNDATASIZE PUSH1 0x0 DUP1 RETURNDATACOPY RETURNDATASIZE PUSH1 0x0 REVERT JUMPDEST POP POP POP POP PUSH1 0x40 MLOAD RETURNDATASIZE PUSH1 0x1F NOT PUSH1 0x1F DUP3 ADD AND DUP3 ADD DUP1 PUSH1 0x40 MSTORE POP DUP2 ADD SWAP1 PUSH3 0x16C SWAP2 SWAP1 PUSH3 0x3B6 JUMP JUMPDEST PUSH1 0x6 DUP2 SWAP1 SSTORE POP PUSH1 0xA0 MLOAD PUSH1 0x1 PUSH1 0x1 PUSH1 0xA0 SHL SUB AND PUSH4 0x45125715 PUSH1 0x40 MLOAD DUP2 PUSH4 0xFFFFFFFF AND PUSH1 0xE0 SHL DUP2 MSTORE PUSH1 0x4 ADD PUSH1 0x20 PUSH1 0x40 MLOAD DUP1 DUP4 SUB DUP2 DUP7 GAS STATICCALL ISZERO DUP1 ISZERO PUSH3 0x1B3 JUMPI RETURNDATASIZE PUSH1 0x0 DUP1 RETURNDATACOPY RETURNDATASIZE PUSH1 0x0 REVERT JUMPDEST POP POP POP POP PUSH1 0x40 MLOAD RETURNDATASIZE PUSH1 0x1F NOT PUSH1 0x1F DUP3 ADD AND DUP3 ADD DUP1 PUSH1 0x40 MSTORE POP DUP2 ADD SWAP1 PUSH3 0x1D9 SWAP2 SWAP1 PUSH3 0x3B6 JUMP JUMPDEST PUSH1 0x5 SSTORE POP TIMESTAMP PUSH1 0x80 MSTORE PUSH3 0x3D0 JUMP JUMPDEST DUP1 DUP3 MUL DUP2 ISZERO DUP3 DUP3 DIV DUP5 EQ OR PUSH3 0x20D JUMPI PUSH4 0x4E487B71 PUSH1 0xE0 SHL PUSH1 0x0 MSTORE PUSH1 0x11 PUSH1 0x4 MSTORE PUSH1 0x24 PUSH1 0x0 REVERT JUMPDEST SWAP3 SWAP2 POP POP JUMP JUMPDEST PUSH1 0x0 PUSH1 0x20 DUP3 DUP5 SUB SLT ISZERO PUSH3 0x226 JUMPI PUSH1 0x0 DUP1 REVERT JUMPDEST DUP2 MLOAD PUSH1 0x1 PUSH1 0x1 PUSH1 0xA0 SHL SUB DUP2 AND DUP2 EQ PUSH3 0x23E JUMPI PUSH1 0x0 DUP1 REVERT JUMPDEST SWAP4 SWAP3 POP POP POP JUMP JUMPDEST PUSH4 0x4E487B71 PUSH1 0xE0 SHL PUSH1 0x0 MSTORE PUSH1 0x41 PUSH1 0x4 MSTORE PUSH1 0x24 PUSH1 0x0 REVERT JUMPDEST PUSH1 0x1 DUP2 DUP2 SHR SWAP1 DUP3 AND DUP1 PUSH3 0x270 JUMPI PUSH1 0x7F DUP3 AND SWAP2 POP JUMPDEST PUSH1 0x20 DUP3 LT DUP2 SUB PUSH3 0x291 JUMPI PUSH4 0x4E487B71 PUSH1 0xE0 SHL PUSH1 0x0 MSTORE PUSH1 0x22 PUSH1 0x4 MSTORE PUSH1 0x24 PUSH1 0x0 REVERT JUMPDEST POP SWAP2 SWAP1 POP JUMP JUMPDEST PUSH1 0x1F DUP3 GT ISZERO PUSH3 0x2E5 JUMPI PUSH1 0x0 DUP2 DUP2 MSTORE PUSH1 0x20 DUP2 KECCAK256 PUSH1 0x1F DUP6 ADD PUSH1 0x5 SHR DUP2 ADD PUSH1 0x20 DUP7 LT ISZERO PUSH3 0x2C0 JUMPI POP DUP1 JUMPDEST PUSH1 0x1F DUP6 ADD PUSH1 0x5 SHR DUP3 ADD SWAP2 POP JUMPDEST DUP2 DUP2 LT ISZERO PUSH3 0x2E1 JUMPI DUP3 DUP2 SSTORE PUSH1 0x1 ADD PUSH3 0x2CC JUMP JUMPDEST POP POP POP JUMPDEST POP POP POP JUMP JUMPDEST DUP2 MLOAD PUSH1 0x1 PUSH1 0x1 PUSH1 0x40 SHL SUB DUP2 GT ISZERO PUSH3 0x306 JUMPI PUSH3 0x306 PUSH3 0x245 JUMP JUMPDEST PUSH3 0x31E DUP2 PUSH3 0x317 DUP5 SLOAD PUSH3 0x25B JUMP JUMPDEST DUP5 PUSH3 0x297 JUMP JUMPDEST PUSH1 0x20 DUP1 PUSH1 0x1F DUP4 GT PUSH1 0x1 DUP2 EQ PUSH3 0x356 JUMPI PUSH1 0x0 DUP5 ISZERO PUSH3 0x33D JUMPI POP DUP6 DUP4 ADD MLOAD JUMPDEST PUSH1 0x0 NOT PUSH1 0x3 DUP7 SWAP1 SHL SHR NOT AND PUSH1 0x1 DUP6 SWAP1 SHL OR DUP6 SSTORE PUSH3 0x2E1 JUMP JUMPDEST PUSH1 0x0 DUP6 DUP2 MSTORE PUSH1 0x20 DUP2 KECCAK256 PUSH1 0x1F NOT DUP7 AND SWAP2 JUMPDEST DUP3 DUP2 LT ISZERO PUSH3 0x387 JUMPI DUP9 DUP7 ADD MLOAD DUP3 SSTORE SWAP5 DUP5 ADD SWAP5 PUSH1 0x1 SWAP1 SWAP2 ADD SWAP1 DUP5 ADD PUSH3 0x366 JUMP JUMPDEST POP DUP6 DUP3 LT ISZERO PUSH3 0x3A6 JUMPI DUP8 DUP6 ADD MLOAD PUSH1 0x0 NOT PUSH1 0x3 DUP9 SWAP1 SHL PUSH1 0xF8 AND SHR NOT AND DUP2 SSTORE JUMPDEST POP POP POP POP POP PUSH1 0x1 SWAP1 DUP2 SHL ADD SWAP1 SSTORE POP JUMP JUMPDEST PUSH1 0x0 PUSH1 0x20 DUP3 DUP5 SUB SLT ISZERO PUSH3 0x3C9 JUMPI PUSH1 0x0 DUP1 REVERT JUMPDEST POP MLOAD SWAP2 SWAP1 POP JUMP JUMPDEST PUSH1 0x80 MLOAD PUSH1 0xA0 MLOAD PUSH2 0x3850 PUSH3 0x427 PUSH1 0x0 CODECOPY PUSH1 0x0 DUP2 DUP2 PUSH2 0x67E ADD MSTORE DUP2 DUP2 PUSH2 0x223A ADD MSTORE DUP2 DUP2 PUSH2 0x2326 ADD MSTORE DUP2 DUP2 PUSH2 0x2428 ADD MSTORE PUSH2 0x2F71 ADD MSTORE PUSH1 0x0 DUP2 DUP2 PUSH2 0x8E3 ADD MSTORE DUP2 DUP2 PUSH2 0x2E3A ADD MSTORE DUP2 DUP2 PUSH2 0x2E9D ADD MSTORE PUSH2 0x31C1 ADD MSTORE PUSH2 0x3850 PUSH1 0x0 RETURN INVALID PUSH1 0x80 PUSH1 0x40 MSTORE CALLVALUE DUP1 ISZERO PUSH2 0x10 JUMPI PUSH1 0x0 DUP1 REVERT JUMPDEST POP PUSH1 0x4 CALLDATASIZE LT PUSH2 0x3FC JUMPI PUSH1 0x0 CALLDATALOAD PUSH1 0xE0 SHR DUP1 PUSH4 0x72475F94 GT PUSH2 0x215 JUMPI DUP1 PUSH4 0xBA3EC741 GT PUSH2 0x125 JUMPI DUP1 PUSH4 0xDF282331 GT PUSH2 0xB8 JUMPI DUP1 PUSH4 0xF029093E GT PUSH2 0x87 JUMPI DUP1 PUSH4 0xF029093E EQ PUSH2 0x917 JUMPI DUP1 PUSH4 0xF0604829 EQ PUSH2 0x920 JUMPI DUP1 PUSH4 0xF27A6264 EQ PUSH2 0x928 JUMPI DUP1 PUSH4 0xF340FAED EQ PUSH2 0x93B JUMPI DUP1 PUSH4 0xFED74269 EQ PUSH2 0x945 JUMPI PUSH1 0x0 DUP1 REVERT JUMPDEST DUP1 PUSH4 0xDF282331 EQ PUSH2 0x85A JUMPI DUP1 PUSH4 0xE3AF6D0A EQ PUSH2 0x8DE JUMPI DUP1 PUSH4 0xE81917B4 EQ PUSH2 0x905 JUMPI DUP1 PUSH4 0xED2F2369 EQ PUSH2 0x90E JUMPI PUSH1 0x0 DUP1 REVERT JUMPDEST DUP1 PUSH4 0xCE653D5F GT PUSH2 0xF4 JUMPI DUP1 PUSH4 0xCE653D5F EQ PUSH2 0x7F4 JUMPI DUP1 PUSH4 0xCF7A8626 EQ PUSH2 0x814 JUMPI DUP1 PUSH4 0xD3FE4689 EQ PUSH2 0x834 JUMPI DUP1 PUSH4 0xDD62ED3E EQ PUSH2 0x847 JUMPI PUSH1 0x0 DUP1 REVERT JUMPDEST DUP1 PUSH4 0xBA3EC741 EQ PUSH2 0x7DC JUMPI DUP1 PUSH4 0xBCFE394F EQ PUSH2 0x4EA JUMPI DUP1 PUSH4 0xC0C65259 EQ PUSH2 0x7E4 JUMPI DUP1 PUSH4 0xC56F0BAB EQ PUSH2 0x7EC JUMPI PUSH1 0x0 DUP1 REVERT JUMPDEST DUP1 PUSH4 0x962CA496 GT PUSH2 0x1A8 JUMPI DUP1 PUSH4 0xA457C2D7 GT PUSH2 0x177 JUMPI DUP1 PUSH4 0xA457C2D7 EQ PUSH2 0x791 JUMPI DUP1 PUSH4 0xA9059CBB EQ PUSH2 0x7A4 JUMPI DUP1 PUSH4 0xB0FD1FC2 EQ PUSH2 0x7B7 JUMPI DUP1 PUSH4 0xB21D35F2 EQ PUSH2 0x7CA JUMPI DUP1 PUSH4 0xB4800CDC EQ PUSH2 0x7D3 JUMPI PUSH1 0x0 DUP1 REVERT JUMPDEST DUP1 PUSH4 0x962CA496 EQ PUSH2 0x75B JUMPI DUP1 PUSH4 0x99202454 EQ PUSH2 0x763 JUMPI DUP1 PUSH4 0x9DC29FAC EQ PUSH2 0x76B JUMPI DUP1 PUSH4 0x9FF054DF EQ PUSH2 0x77E JUMPI PUSH1 0x0 DUP1 REVERT JUMPDEST DUP1 PUSH4 0x8DA5CB5B GT PUSH2 0x1E4 JUMPI DUP1 PUSH4 0x8DA5CB5B EQ PUSH2 0x6E3 JUMPI DUP1 PUSH4 0x8DA7AD23 EQ PUSH2 0x6F6 JUMPI DUP1 PUSH4 0x909A2FF6 EQ PUSH2 0x74B JUMPI DUP1 PUSH4 0x95D89B41 EQ PUSH2 0x753 JUMPI PUSH1 0x0 DUP1 REVERT JUMPDEST DUP1 PUSH4 0x72475F94 EQ PUSH2 0x6B8 JUMPI DUP1 PUSH4 0x7B0472F0 EQ PUSH2 0x6C0 JUMPI DUP1 PUSH4 0x7E7AA62E EQ PUSH2 0x6D3 JUMPI DUP1 PUSH4 0x8979C87C EQ PUSH2 0x6DB JUMPI PUSH1 0x0 DUP1 REVERT JUMPDEST DUP1 PUSH4 0x313CE567 GT PUSH2 0x310 JUMPI DUP1 PUSH4 0x543746B1 GT PUSH2 0x2A3 JUMPI DUP1 PUSH4 0x61A52A36 GT PUSH2 0x272 JUMPI DUP1 PUSH4 0x61A52A36 EQ PUSH2 0x5CE JUMPI DUP1 PUSH4 0x6A5E0766 EQ PUSH2 0x5D8 JUMPI DUP1 PUSH4 0x7010D7A1 EQ PUSH2 0x5F8 JUMPI DUP1 PUSH4 0x70A08231 EQ PUSH2 0x650 JUMPI DUP1 PUSH4 0x71141A58 EQ PUSH2 0x679 JUMPI PUSH1 0x0 DUP1 REVERT JUMPDEST DUP1 PUSH4 0x543746B1 EQ PUSH2 0x596 JUMPI DUP1 PUSH4 0x543D3652 EQ PUSH2 0x4EA JUMPI DUP1 PUSH4 0x583B912C EQ PUSH2 0x5A8 JUMPI DUP1 PUSH4 0x5BCCB4C4 EQ PUSH2 0x5BB JUMPI PUSH1 0x0 DUP1 REVERT JUMPDEST DUP1 PUSH4 0x3CCFD60B GT PUSH2 0x2DF JUMPI DUP1 PUSH4 0x3CCFD60B EQ PUSH2 0x55E JUMPI DUP1 PUSH4 0x45125715 EQ PUSH2 0x566 JUMPI DUP1 PUSH4 0x52C7F8DC EQ PUSH2 0x56E JUMPI DUP1 PUSH4 0x539313B8 EQ PUSH2 0x576 JUMPI PUSH1 0x0 DUP1 REVERT JUMPDEST DUP1 PUSH4 0x313CE567 EQ PUSH2 0x521 JUMPI DUP1 PUSH4 0x31B9E85D EQ PUSH2 0x530 JUMPI DUP1 PUSH4 0x32870FDA EQ PUSH2 0x543 JUMPI DUP1 PUSH4 0x39509351 EQ PUSH2 0x54B JUMPI PUSH1 0x0 DUP1 REVERT JUMPDEST DUP1 PUSH4 0x16F9C8FD GT PUSH2 0x393 JUMPI DUP1 PUSH4 0x1C6F212E GT PUSH2 0x362 JUMPI DUP1 PUSH4 0x1C6F212E EQ PUSH2 0x4EA JUMPI DUP1 PUSH4 0x23B872DD EQ PUSH2 0x4F2 JUMPI DUP1 PUSH4 0x2A62D966 EQ PUSH2 0x481 JUMPI DUP1 PUSH4 0x2A6485A5 EQ PUSH2 0x505 JUMPI DUP1 PUSH4 0x310CAF2D EQ PUSH2 0x50E JUMPI PUSH1 0x0 DUP1 REVERT JUMPDEST DUP1 PUSH4 0x16F9C8FD EQ PUSH2 0x489 JUMPI DUP1 PUSH4 0x18160DDD EQ PUSH2 0x4C4 JUMPI DUP1 PUSH4 0x1C244082 EQ PUSH2 0x4CC JUMPI DUP1 PUSH4 0x1C560305 EQ PUSH2 0x4D5 JUMPI PUSH1 0x0 DUP1 REVERT JUMPDEST DUP1 PUSH4 0x95EA7B3 GT PUSH2 0x3CF JUMPI DUP1 PUSH4 0x95EA7B3 EQ PUSH2 0x45E JUMPI DUP1 PUSH4 0xBFAE56B EQ PUSH2 0x471 JUMPI DUP1 PUSH4 0xF2E1228 EQ PUSH2 0x479 JUMPI DUP1 PUSH4 0x110D7FC2 EQ PUSH2 0x481 JUMPI PUSH1 0x0 DUP1 REVERT JUMPDEST DUP1 PUSH4 0x1FFC9A7 EQ PUSH2 0x401 JUMPI DUP1 PUSH4 0x2378932 EQ PUSH2 0x429 JUMPI DUP1 PUSH4 0x69612A5 EQ PUSH2 0x440 JUMPI DUP1 PUSH4 0x6FDDE03 EQ PUSH2 0x449 JUMPI JUMPDEST PUSH1 0x0 DUP1 REVERT JUMPDEST PUSH2 0x414 PUSH2 0x40F CALLDATASIZE PUSH1 0x4 PUSH2 0x32D2 JUMP JUMPDEST PUSH2 0x94D JUMP JUMPDEST PUSH1 0x40 MLOAD SWAP1 ISZERO ISZERO DUP2 MSTORE PUSH1 0x20 ADD JUMPDEST PUSH1 0x40 MLOAD DUP1 SWAP2 SUB SWAP1 RETURN JUMPDEST PUSH2 0x432 PUSH2 0x16D DUP2 JUMP JUMPDEST PUSH1 0x40 MLOAD SWAP1 DUP2 MSTORE PUSH1 0x20 ADD PUSH2 0x420 JUMP JUMPDEST PUSH2 0x432 PUSH1 0x9 SLOAD DUP2 JUMP JUMPDEST PUSH2 0x451 PUSH2 0x984 JUMP JUMPDEST PUSH1 0x40 MLOAD PUSH2 0x420 SWAP2 SWAP1 PUSH2 0x32FC JUMP JUMPDEST PUSH2 0x414 PUSH2 0x46C CALLDATASIZE PUSH1 0x4 PUSH2 0x3366 JUMP JUMPDEST PUSH2 0xA16 JUMP JUMPDEST PUSH2 0x432 PUSH2 0xA2E JUMP JUMPDEST PUSH2 0x432 PUSH1 0x63 DUP2 JUMP JUMPDEST PUSH2 0x432 PUSH1 0x0 DUP2 JUMP JUMPDEST PUSH2 0x491 PUSH2 0xA3F JUMP JUMPDEST PUSH1 0x40 MLOAD PUSH2 0x420 SWAP2 SWAP1 DUP2 MLOAD DUP2 MSTORE PUSH1 0x20 DUP1 DUP4 ADD MLOAD SWAP1 DUP3 ADD MSTORE PUSH1 0x40 DUP1 DUP4 ADD MLOAD SWAP1 DUP3 ADD MSTORE PUSH1 0x60 SWAP2 DUP3 ADD MLOAD SWAP2 DUP2 ADD SWAP2 SWAP1 SWAP2 MSTORE PUSH1 0x80 ADD SWAP1 JUMP JUMPDEST PUSH1 0x2 SLOAD PUSH2 0x432 JUMP JUMPDEST PUSH2 0x432 PUSH1 0x6 SLOAD DUP2 JUMP JUMPDEST PUSH2 0x4E8 PUSH2 0x4E3 CALLDATASIZE PUSH1 0x4 PUSH2 0x3366 JUMP JUMPDEST PUSH2 0xAB0 JUMP JUMPDEST STOP JUMPDEST PUSH2 0x432 PUSH1 0x1 DUP2 JUMP JUMPDEST PUSH2 0x414 PUSH2 0x500 CALLDATASIZE PUSH1 0x4 PUSH2 0x3390 JUMP JUMPDEST PUSH2 0xD11 JUMP JUMPDEST PUSH2 0x432 PUSH1 0x5 SLOAD DUP2 JUMP JUMPDEST PUSH2 0x4E8 PUSH2 0x51C CALLDATASIZE PUSH1 0x4 PUSH2 0x3390 JUMP JUMPDEST PUSH2 0xD35 JUMP JUMPDEST PUSH1 0x40 MLOAD PUSH1 0x12 DUP2 MSTORE PUSH1 0x20 ADD PUSH2 0x420 JUMP JUMPDEST PUSH2 0x4E8 PUSH2 0x53E CALLDATASIZE PUSH1 0x4 PUSH2 0x3366 JUMP JUMPDEST PUSH2 0xE6D JUMP JUMPDEST PUSH2 0x432 PUSH1 0x5A DUP2 JUMP JUMPDEST PUSH2 0x414 PUSH2 0x559 CALLDATASIZE PUSH1 0x4 PUSH2 0x3366 JUMP JUMPDEST PUSH2 0xFA2 JUMP JUMPDEST PUSH2 0x4E8 PUSH2 0xFC4 JUMP JUMPDEST PUSH2 0x432 PUSH2 0x111A JUMP JUMPDEST PUSH2 0x4E8 PUSH2 0x1129 JUMP JUMPDEST PUSH2 0x432 PUSH2 0x584 CALLDATASIZE PUSH1 0x4 PUSH2 0x33CC JUMP JUMPDEST PUSH1 0xE PUSH1 0x20 MSTORE PUSH1 0x0 SWAP1 DUP2 MSTORE PUSH1 0x40 SWAP1 KECCAK256 SLOAD DUP2 JUMP JUMPDEST PUSH2 0x4E8 PUSH2 0x5A4 CALLDATASIZE PUSH1 0x4 PUSH2 0x3366 JUMP JUMPDEST POP POP JUMP JUMPDEST PUSH2 0x4E8 PUSH2 0x5B6 CALLDATASIZE PUSH1 0x4 PUSH2 0x3390 JUMP JUMPDEST PUSH2 0x124C JUMP JUMPDEST PUSH2 0x4E8 PUSH2 0x5C9 CALLDATASIZE PUSH1 0x4 PUSH2 0x33E7 JUMP JUMPDEST PUSH2 0x13CF JUMP JUMPDEST PUSH2 0x432 PUSH3 0x15180 DUP2 JUMP JUMPDEST PUSH2 0x432 PUSH2 0x5E6 CALLDATASIZE PUSH1 0x4 PUSH2 0x33CC JUMP JUMPDEST PUSH1 0xF PUSH1 0x20 MSTORE PUSH1 0x0 SWAP1 DUP2 MSTORE PUSH1 0x40 SWAP1 KECCAK256 SLOAD DUP2 JUMP JUMPDEST PUSH2 0x600 PUSH2 0x1732 JUMP JUMPDEST PUSH1 0x40 MLOAD PUSH2 0x420 SWAP2 SWAP1 DUP2 MLOAD PUSH1 0x1 PUSH1 0x1 PUSH1 0xA0 SHL SUB AND DUP2 MSTORE PUSH1 0x20 DUP1 DUP4 ADD MLOAD SWAP1 DUP3 ADD MSTORE PUSH1 0x40 DUP1 DUP4 ADD MLOAD SWAP1 DUP3 ADD MSTORE PUSH1 0x60 DUP1 DUP4 ADD MLOAD SWAP1 DUP3 ADD MSTORE PUSH1 0x80 DUP1 DUP4 ADD MLOAD SWAP1 DUP3 ADD MSTORE PUSH1 0xA0 SWAP2 DUP3 ADD MLOAD SWAP2 DUP2 ADD SWAP2 SWAP1 SWAP2 MSTORE PUSH1 0xC0 ADD SWAP1 JUMP JUMPDEST PUSH2 0x432 PUSH2 0x65E CALLDATASIZE PUSH1 0x4 PUSH2 0x33CC JUMP JUMPDEST PUSH1 0x1 PUSH1 0x1 PUSH1 0xA0 SHL SUB AND PUSH1 0x0 SWAP1 DUP2 MSTORE PUSH1 0x20 DUP2 SWAP1 MSTORE PUSH1 0x40 SWAP1 KECCAK256 SLOAD SWAP1 JUMP JUMPDEST PUSH2 0x6A0 PUSH32 0x0 DUP2 JUMP JUMPDEST PUSH1 0x40 MLOAD PUSH1 0x1 PUSH1 0x1 PUSH1 0xA0 SHL SUB SWAP1 SWAP2 AND DUP2 MSTORE PUSH1 0x20 ADD PUSH2 0x420 JUMP JUMPDEST PUSH2 0x432 PUSH1 0xF DUP2 JUMP JUMPDEST PUSH2 0x4E8 PUSH2 0x6CE CALLDATASIZE PUSH1 0x4 PUSH2 0x33E7 JUMP JUMPDEST PUSH2 0x17D7 JUMP JUMPDEST PUSH2 0x432 PUSH1 0x2 DUP2 JUMP JUMPDEST PUSH2 0x432 PUSH2 0x1A01 JUMP JUMPDEST PUSH1 0x10 SLOAD PUSH2 0x6A0 SWAP1 PUSH1 0x1 PUSH1 0x1 PUSH1 0xA0 SHL SUB AND DUP2 JUMP JUMPDEST PUSH2 0x72B PUSH2 0x704 CALLDATASIZE PUSH1 0x4 PUSH2 0x33CC JUMP JUMPDEST PUSH1 0xB PUSH1 0x20 MSTORE PUSH1 0x0 SWAP1 DUP2 MSTORE PUSH1 0x40 SWAP1 KECCAK256 DUP1 SLOAD PUSH1 0x1 DUP3 ADD SLOAD PUSH1 0x2 DUP4 ADD SLOAD PUSH1 0x3 SWAP1 SWAP4 ADD SLOAD SWAP2 SWAP3 SWAP1 SWAP2 DUP5 JUMP JUMPDEST PUSH1 0x40 DUP1 MLOAD SWAP5 DUP6 MSTORE PUSH1 0x20 DUP6 ADD SWAP4 SWAP1 SWAP4 MSTORE SWAP2 DUP4 ADD MSTORE PUSH1 0x60 DUP3 ADD MSTORE PUSH1 0x80 ADD PUSH2 0x420 JUMP JUMPDEST PUSH2 0x432 PUSH1 0x64 DUP2 JUMP JUMPDEST PUSH2 0x451 PUSH2 0x1A0B JUMP JUMPDEST PUSH2 0x432 PUSH2 0x1A1A JUMP JUMPDEST PUSH2 0x432 PUSH2 0x1A24 JUMP JUMPDEST PUSH2 0x4E8 PUSH2 0x779 CALLDATASIZE PUSH1 0x4 PUSH2 0x3366 JUMP JUMPDEST PUSH2 0x1A2E JUMP JUMPDEST PUSH2 0x4E8 PUSH2 0x78C CALLDATASIZE PUSH1 0x4 PUSH2 0x3409 JUMP JUMPDEST PUSH2 0x1BB7 JUMP JUMPDEST PUSH2 0x414 PUSH2 0x79F CALLDATASIZE PUSH1 0x4 PUSH2 0x3366 JUMP JUMPDEST PUSH2 0x1E38 JUMP JUMPDEST PUSH2 0x414 PUSH2 0x7B2 CALLDATASIZE PUSH1 0x4 PUSH2 0x3366 JUMP JUMPDEST PUSH2 0x1EB3 JUMP JUMPDEST PUSH2 0x432 PUSH2 0x7C5 CALLDATASIZE PUSH1 0x4 PUSH2 0x3422 JUMP JUMPDEST PUSH2 0x1EC1 JUMP JUMPDEST PUSH2 0x432 PUSH2 0x1388 DUP2 JUMP JUMPDEST PUSH2 0x432 PUSH1 0x7 SLOAD DUP2 JUMP JUMPDEST PUSH2 0x451 PUSH2 0x1F51 JUMP JUMPDEST PUSH2 0x432 PUSH2 0x1F6D JUMP JUMPDEST PUSH2 0x432 PUSH1 0x7 DUP2 JUMP JUMPDEST PUSH2 0x432 PUSH2 0x802 CALLDATASIZE PUSH1 0x4 PUSH2 0x33CC JUMP JUMPDEST PUSH1 0xC PUSH1 0x20 MSTORE PUSH1 0x0 SWAP1 DUP2 MSTORE PUSH1 0x40 SWAP1 KECCAK256 SLOAD DUP2 JUMP JUMPDEST PUSH2 0x432 PUSH2 0x822 CALLDATASIZE PUSH1 0x4 PUSH2 0x33CC JUMP JUMPDEST PUSH1 0xD PUSH1 0x20 MSTORE PUSH1 0x0 SWAP1 DUP2 MSTORE PUSH1 0x40 SWAP1 KECCAK256 SLOAD DUP2 JUMP JUMPDEST PUSH2 0x4E8 PUSH2 0x842 CALLDATASIZE PUSH1 0x4 PUSH2 0x3366 JUMP JUMPDEST PUSH2 0x1F7C JUMP JUMPDEST PUSH2 0x432 PUSH2 0x855 CALLDATASIZE PUSH1 0x4 PUSH2 0x3454 JUMP JUMPDEST PUSH2 0x20FF JUMP JUMPDEST PUSH2 0x8A7 PUSH2 0x868 CALLDATASIZE PUSH1 0x4 PUSH2 0x33CC JUMP JUMPDEST PUSH1 0xA PUSH1 0x20 MSTORE PUSH1 0x0 SWAP1 DUP2 MSTORE PUSH1 0x40 SWAP1 KECCAK256 DUP1 SLOAD PUSH1 0x1 DUP3 ADD SLOAD PUSH1 0x2 DUP4 ADD SLOAD PUSH1 0x3 DUP5 ADD SLOAD PUSH1 0x4 DUP6 ADD SLOAD PUSH1 0x5 SWAP1 SWAP6 ADD SLOAD PUSH1 0x1 PUSH1 0x1 PUSH1 0xA0 SHL SUB SWAP1 SWAP5 AND SWAP5 SWAP3 SWAP4 SWAP2 SWAP3 SWAP1 SWAP2 DUP7 JUMP JUMPDEST PUSH1 0x40 DUP1 MLOAD PUSH1 0x1 PUSH1 0x1 PUSH1 0xA0 SHL SUB SWAP1 SWAP8 AND DUP8 MSTORE PUSH1 0x20 DUP8 ADD SWAP6 SWAP1 SWAP6 MSTORE SWAP4 DUP6 ADD SWAP3 SWAP1 SWAP3 MSTORE PUSH1 0x60 DUP5 ADD MSTORE PUSH1 0x80 DUP4 ADD MSTORE PUSH1 0xA0 DUP3 ADD MSTORE PUSH1 0xC0 ADD PUSH2 0x420 JUMP JUMPDEST PUSH2 0x432 PUSH32 0x0 DUP2 JUMP JUMPDEST PUSH2 0x432 PUSH2 0x12C DUP2 JUMP JUMPDEST PUSH2 0x432 PUSH1 0x8 SLOAD DUP2 JUMP JUMPDEST PUSH2 0x432 PUSH2 0x2710 DUP2 JUMP JUMPDEST PUSH2 0x432 PUSH2 0x212A JUMP JUMPDEST PUSH2 0x4E8 PUSH2 0x936 CALLDATASIZE PUSH1 0x4 PUSH2 0x3366 JUMP JUMPDEST PUSH2 0x2143 JUMP JUMPDEST PUSH2 0x432 PUSH3 0x186A0 DUP2 JUMP JUMPDEST PUSH2 0x432 PUSH1 0x14 DUP2 JUMP JUMPDEST PUSH1 0x0 PUSH1 0x1 PUSH1 0x1 PUSH1 0xE0 SHL SUB NOT DUP3 AND PUSH4 0x543746B1 PUSH1 0xE0 SHL EQ DUP1 PUSH2 0x97E JUMPI POP PUSH1 0x1 PUSH1 0x1 PUSH1 0xE0 SHL SUB NOT DUP3 AND PUSH4 0x1FFC9A7 PUSH1 0xE0 SHL EQ JUMPDEST SWAP3 SWAP2 POP POP JUMP JUMPDEST PUSH1 0x60 PUSH1 0x3 DUP1 SLOAD PUSH2 0x993 SWAP1 PUSH2 0x3487 JUMP JUMPDEST DUP1 PUSH1 0x1F ADD PUSH1 0x20 DUP1 SWAP2 DIV MUL PUSH1 0x20 ADD PUSH1 0x40 MLOAD SWAP1 DUP2 ADD PUSH1 0x40 MSTORE DUP1 SWAP3 SWAP2 SWAP1 DUP2 DUP2 MSTORE PUSH1 0x20 ADD DUP3 DUP1 SLOAD PUSH2 0x9BF SWAP1 PUSH2 0x3487 JUMP JUMPDEST DUP1 ISZERO PUSH2 0xA0C JUMPI DUP1 PUSH1 0x1F LT PUSH2 0x9E1 JUMPI PUSH2 0x100 DUP1 DUP4 SLOAD DIV MUL DUP4 MSTORE SWAP2 PUSH1 0x20 ADD SWAP2 PUSH2 0xA0C JUMP JUMPDEST DUP3 ADD SWAP2 SWAP1 PUSH1 0x0 MSTORE PUSH1 0x20 PUSH1 0x0 KECCAK256 SWAP1 JUMPDEST DUP2 SLOAD DUP2 MSTORE SWAP1 PUSH1 0x1 ADD SWAP1 PUSH1 0x20 ADD DUP1 DUP4 GT PUSH2 0x9EF JUMPI DUP3 SWAP1 SUB PUSH1 0x1F AND DUP3 ADD SWAP2 JUMPDEST POP POP POP POP POP SWAP1 POP SWAP1 JUMP JUMPDEST PUSH1 0x0 CALLER PUSH2 0xA24 DUP2 DUP6 DUP6 PUSH2 0x24F4 JUMP JUMPDEST POP PUSH1 0x1 SWAP4 SWAP3 POP POP POP JUMP JUMPDEST PUSH2 0xA3C PUSH3 0x15180 PUSH1 0x64 PUSH2 0x34D1 JUMP JUMPDEST DUP2 JUMP JUMPDEST PUSH2 0xA6A PUSH1 0x40 MLOAD DUP1 PUSH1 0x80 ADD PUSH1 0x40 MSTORE DUP1 PUSH1 0x0 DUP2 MSTORE PUSH1 0x20 ADD PUSH1 0x0 DUP2 MSTORE PUSH1 0x20 ADD PUSH1 0x0 DUP2 MSTORE PUSH1 0x20 ADD PUSH1 0x0 DUP2 MSTORE POP SWAP1 JUMP JUMPDEST POP CALLER PUSH1 0x0 SWAP1 DUP2 MSTORE PUSH1 0xB PUSH1 0x20 SWAP1 DUP2 MSTORE PUSH1 0x40 SWAP2 DUP3 SWAP1 KECCAK256 DUP3 MLOAD PUSH1 0x80 DUP2 ADD DUP5 MSTORE DUP2 SLOAD DUP2 MSTORE PUSH1 0x1 DUP3 ADD SLOAD SWAP3 DUP2 ADD SWAP3 SWAP1 SWAP3 MSTORE PUSH1 0x2 DUP2 ADD SLOAD SWAP3 DUP3 ADD SWAP3 SWAP1 SWAP3 MSTORE PUSH1 0x3 SWAP1 SWAP2 ADD SLOAD PUSH1 0x60 DUP3 ADD MSTORE SWAP1 JUMP JUMPDEST CALLER PUSH1 0x0 SWAP1 DUP2 MSTORE PUSH1 0xA PUSH1 0x20 SWAP1 DUP2 MSTORE PUSH1 0x40 SWAP2 DUP3 SWAP1 KECCAK256 DUP3 MLOAD PUSH1 0xC0 DUP2 ADD DUP5 MSTORE DUP2 SLOAD PUSH1 0x1 PUSH1 0x1 PUSH1 0xA0 SHL SUB SWAP1 DUP2 AND DUP3 MSTORE PUSH1 0x1 DUP4 ADD SLOAD SWAP4 DUP3 ADD SWAP4 SWAP1 SWAP4 MSTORE PUSH1 0x2 DUP3 ADD SLOAD SWAP4 DUP2 ADD SWAP4 SWAP1 SWAP4 MSTORE PUSH1 0x3 DUP2 ADD SLOAD PUSH1 0x60 DUP5 ADD MSTORE PUSH1 0x4 DUP2 ADD SLOAD PUSH1 0x80 DUP5 ADD MSTORE PUSH1 0x5 ADD SLOAD PUSH1 0xA0 DUP4 ADD MSTORE DUP4 AND PUSH2 0xB70 JUMPI PUSH1 0x40 MLOAD PUSH3 0x461BCD PUSH1 0xE5 SHL DUP2 MSTORE PUSH1 0x20 PUSH1 0x4 DUP3 ADD MSTORE PUSH1 0x25 PUSH1 0x24 DUP3 ADD MSTORE PUSH32 0x4352616E6B3A2043616E6E6F742073686172652077697468207A65726F206164 PUSH1 0x44 DUP3 ADD MSTORE PUSH5 0x6472657373 PUSH1 0xD8 SHL PUSH1 0x64 DUP3 ADD MSTORE PUSH1 0x84 ADD JUMPDEST PUSH1 0x40 MLOAD DUP1 SWAP2 SUB SWAP1 REVERT JUMPDEST PUSH1 0x0 DUP3 GT PUSH2 0xBC0 JUMPI PUSH1 0x40 MLOAD PUSH3 0x461BCD PUSH1 0xE5 SHL DUP2 MSTORE PUSH1 0x20 PUSH1 0x4 DUP3 ADD DUP2 SWAP1 MSTORE PUSH1 0x24 DUP3 ADD MSTORE PUSH32 0x4352616E6B3A2043616E6E6F74207368617265207A65726F2070657263656E74 PUSH1 0x44 DUP3 ADD MSTORE PUSH1 0x64 ADD PUSH2 0xB67 JUMP JUMPDEST PUSH1 0x65 DUP3 LT PUSH2 0xC10 JUMPI PUSH1 0x40 MLOAD PUSH3 0x461BCD PUSH1 0xE5 SHL DUP2 MSTORE PUSH1 0x20 PUSH1 0x4 DUP3 ADD DUP2 SWAP1 MSTORE PUSH1 0x24 DUP3 ADD MSTORE PUSH32 0x4352616E6B3A2043616E6E6F74207368617265203130302B2070657263656E74 PUSH1 0x44 DUP3 ADD MSTORE PUSH1 0x64 ADD PUSH2 0xB67 JUMP JUMPDEST PUSH1 0x0 DUP2 PUSH1 0x60 ADD MLOAD GT PUSH2 0xC34 JUMPI PUSH1 0x40 MLOAD PUSH3 0x461BCD PUSH1 0xE5 SHL DUP2 MSTORE PUSH1 0x4 ADD PUSH2 0xB67 SWAP1 PUSH2 0x34E8 JUMP JUMPDEST DUP1 PUSH1 0x40 ADD MLOAD TIMESTAMP GT PUSH2 0xC57 JUMPI PUSH1 0x40 MLOAD PUSH3 0x461BCD PUSH1 0xE5 SHL DUP2 MSTORE PUSH1 0x4 ADD PUSH2 0xB67 SWAP1 PUSH2 0x3517 JUMP JUMPDEST PUSH1 0x0 PUSH2 0xC7A DUP3 PUSH1 0x60 ADD MLOAD DUP4 PUSH1 0x20 ADD MLOAD DUP5 PUSH1 0x40 ADD MLOAD DUP6 PUSH1 0x80 ADD MLOAD DUP7 PUSH1 0xA0 ADD MLOAD PUSH2 0x2619 JUMP JUMPDEST PUSH2 0xC8C SWAP1 PUSH8 0xDE0B6B3A7640000 PUSH2 0x34D1 JUMP JUMPDEST SWAP1 POP PUSH1 0x0 PUSH1 0x64 PUSH2 0xC9C DUP6 DUP5 PUSH2 0x34D1 JUMP JUMPDEST PUSH2 0xCA6 SWAP2 SWAP1 PUSH2 0x3562 JUMP JUMPDEST SWAP1 POP PUSH1 0x0 PUSH2 0xCB4 DUP3 DUP5 PUSH2 0x3576 JUMP JUMPDEST SWAP1 POP PUSH2 0xCC1 CALLER JUMPDEST DUP3 PUSH2 0x2717 JUMP JUMPDEST PUSH2 0xCCB DUP7 DUP4 PUSH2 0x2717 JUMP JUMPDEST PUSH2 0xCD3 PUSH2 0x27F6 JUMP JUMPDEST PUSH1 0x40 MLOAD DUP4 DUP2 MSTORE CALLER SWAP1 PUSH32 0xD74752B13281DF13701575F3A507E9B1242E0B5FB040143211C481C1FCE573A6 SWAP1 PUSH1 0x20 ADD JUMPDEST PUSH1 0x40 MLOAD DUP1 SWAP2 SUB SWAP1 LOG2 POP POP POP POP POP POP JUMP JUMPDEST PUSH1 0x0 CALLER PUSH2 0xD1F DUP6 DUP3 DUP6 PUSH2 0x284A JUMP JUMPDEST PUSH2 0xD2A DUP6 DUP6 DUP6 PUSH2 0x28C4 JUMP JUMPDEST POP PUSH1 0x1 SWAP5 SWAP4 POP POP POP POP JUMP JUMPDEST ORIGIN PUSH1 0x1 PUSH1 0x1 PUSH1 0xA0 SHL SUB DUP5 AND EQ PUSH2 0xD5D JUMPI PUSH1 0x40 MLOAD PUSH3 0x461BCD PUSH1 0xE5 SHL DUP2 MSTORE PUSH1 0x4 ADD PUSH2 0xB67 SWAP1 PUSH2 0x3589 JUMP JUMPDEST PUSH2 0xD69 PUSH2 0x2710 DUP3 PUSH2 0x35AF JUMP JUMPDEST ISZERO PUSH2 0xD86 JUMPI PUSH1 0x40 MLOAD PUSH3 0x461BCD PUSH1 0xE5 SHL DUP2 MSTORE PUSH1 0x4 ADD PUSH2 0xB67 SWAP1 PUSH2 0x35C3 JUMP JUMPDEST PUSH1 0x1 PUSH1 0x1 PUSH1 0xA0 SHL SUB DUP4 AND PUSH2 0xDAC JUMPI PUSH1 0x40 MLOAD PUSH3 0x461BCD PUSH1 0xE5 SHL DUP2 MSTORE PUSH1 0x4 ADD PUSH2 0xB67 SWAP1 PUSH2 0x360D JUMP JUMPDEST PUSH1 0x0 DUP2 GT PUSH2 0xDCC JUMPI PUSH1 0x40 MLOAD PUSH3 0x461BCD PUSH1 0xE5 SHL DUP2 MSTORE PUSH1 0x4 ADD PUSH2 0xB67 SWAP1 PUSH2 0x364F JUMP JUMPDEST PUSH1 0x0 PUSH2 0xDDA PUSH2 0x2710 DUP4 PUSH2 0x3562 JUMP JUMPDEST SWAP1 POP PUSH1 0x0 PUSH2 0xDEA PUSH1 0x12 PUSH1 0xA PUSH2 0x3762 JUMP JUMPDEST PUSH2 0xDF4 SWAP1 DUP5 PUSH2 0x34D1 JUMP JUMPDEST SWAP1 POP PUSH2 0xE02 DUP6 CALLER JUMPDEST DUP4 PUSH2 0x284A JUMP JUMPDEST PUSH2 0xE0C DUP6 DUP3 PUSH2 0x2A92 JUMP JUMPDEST PUSH1 0x1 PUSH1 0x1 PUSH1 0xA0 SHL SUB DUP6 AND PUSH1 0x0 SWAP1 DUP2 MSTORE PUSH1 0xC PUSH1 0x20 MSTORE PUSH1 0x40 DUP2 KECCAK256 DUP1 SLOAD DUP6 SWAP3 SWAP1 PUSH2 0xE34 SWAP1 DUP5 SWAP1 PUSH2 0x376E JUMP JUMPDEST SWAP1 SWAP2 SSTORE POP POP PUSH1 0x1 PUSH1 0x1 PUSH1 0xA0 SHL SUB DUP5 AND PUSH1 0x0 SWAP1 DUP2 MSTORE PUSH1 0xE PUSH1 0x20 MSTORE PUSH1 0x40 DUP2 KECCAK256 DUP1 SLOAD DUP5 SWAP3 SWAP1 PUSH2 0xE61 SWAP1 DUP5 SWAP1 PUSH2 0x376E JUMP JUMPDEST SWAP1 SWAP2 SSTORE POP POP POP POP POP POP POP JUMP JUMPDEST ORIGIN PUSH1 0x1 PUSH1 0x1 PUSH1 0xA0 SHL SUB DUP4 AND EQ PUSH2 0xE95 JUMPI PUSH1 0x40 MLOAD PUSH3 0x461BCD PUSH1 0xE5 SHL DUP2 MSTORE PUSH1 0x4 ADD PUSH2 0xB67 SWAP1 PUSH2 0x3589 JUMP JUMPDEST PUSH2 0xEA1 PUSH2 0x2710 DUP3 PUSH2 0x35AF JUMP JUMPDEST ISZERO PUSH2 0xEBE JUMPI PUSH1 0x40 MLOAD PUSH3 0x461BCD PUSH1 0xE5 SHL DUP2 MSTORE PUSH1 0x4 ADD PUSH2 0xB67 SWAP1 PUSH2 0x35C3 JUMP JUMPDEST PUSH1 0x1 PUSH1 0x1 PUSH1 0xA0 SHL SUB DUP3 AND PUSH2 0xEE4 JUMPI PUSH1 0x40 MLOAD PUSH3 0x461BCD PUSH1 0xE5 SHL DUP2 MSTORE PUSH1 0x4 ADD PUSH2 0xB67 SWAP1 PUSH2 0x360D JUMP JUMPDEST PUSH1 0x0 DUP2 GT PUSH2 0xF04 JUMPI PUSH1 0x40 MLOAD PUSH3 0x461BCD PUSH1 0xE5 SHL DUP2 MSTORE PUSH1 0x4 ADD PUSH2 0xB67 SWAP1 PUSH2 0x364F JUMP JUMPDEST PUSH1 0x0 PUSH2 0xF12 PUSH2 0x2710 DUP4 PUSH2 0x3562 JUMP JUMPDEST SWAP1 POP PUSH1 0x0 PUSH2 0xF22 PUSH1 0x12 PUSH1 0xA PUSH2 0x3762 JUMP JUMPDEST PUSH2 0xF2C SWAP1 DUP5 PUSH2 0x34D1 JUMP JUMPDEST SWAP1 POP PUSH2 0xF38 DUP5 CALLER PUSH2 0xDFC JUMP JUMPDEST PUSH2 0xF42 DUP5 DUP3 PUSH2 0x2A92 JUMP JUMPDEST PUSH1 0x1 PUSH1 0x1 PUSH1 0xA0 SHL SUB DUP5 AND PUSH1 0x0 SWAP1 DUP2 MSTORE PUSH1 0xC PUSH1 0x20 MSTORE PUSH1 0x40 DUP2 KECCAK256 DUP1 SLOAD DUP6 SWAP3 SWAP1 PUSH2 0xF6A SWAP1 DUP5 SWAP1 PUSH2 0x376E JUMP JUMPDEST SWAP1 SWAP2 SSTORE POP POP PUSH1 0x1 PUSH1 0x1 PUSH1 0xA0 SHL SUB DUP5 AND PUSH1 0x0 SWAP1 DUP2 MSTORE PUSH1 0xE PUSH1 0x20 MSTORE PUSH1 0x40 DUP2 KECCAK256 DUP1 SLOAD DUP5 SWAP3 SWAP1 PUSH2 0xF97 SWAP1 DUP5 SWAP1 PUSH2 0x376E JUMP JUMPDEST SWAP1 SWAP2 SSTORE POP POP POP POP POP POP JUMP JUMPDEST PUSH1 0x0 CALLER PUSH2 0xA24 DUP2 DUP6 DUP6 PUSH2 0xFB5 DUP4 DUP4 PUSH2 0x20FF JUMP JUMPDEST PUSH2 0xFBF SWAP2 SWAP1 PUSH2 0x376E JUMP JUMPDEST PUSH2 0x24F4 JUMP JUMPDEST CALLER PUSH1 0x0 SWAP1 DUP2 MSTORE PUSH1 0xB PUSH1 0x20 SWAP1 DUP2 MSTORE PUSH1 0x40 SWAP2 DUP3 SWAP1 KECCAK256 DUP3 MLOAD PUSH1 0x80 DUP2 ADD DUP5 MSTORE DUP2 SLOAD DUP2 MSTORE PUSH1 0x1 DUP3 ADD SLOAD SWAP3 DUP2 ADD SWAP3 SWAP1 SWAP3 MSTORE PUSH1 0x2 DUP2 ADD SLOAD SWAP3 DUP3 ADD DUP4 SWAP1 MSTORE PUSH1 0x3 ADD SLOAD PUSH1 0x60 DUP3 ADD MSTORE SWAP1 PUSH2 0x1049 JUMPI PUSH1 0x40 MLOAD PUSH3 0x461BCD PUSH1 0xE5 SHL DUP2 MSTORE PUSH1 0x20 PUSH1 0x4 DUP3 ADD MSTORE PUSH1 0x16 PUSH1 0x24 DUP3 ADD MSTORE PUSH22 0x58454E45563A206E6F207374616B6520657869737473 PUSH1 0x50 SHL PUSH1 0x44 DUP3 ADD MSTORE PUSH1 0x64 ADD PUSH2 0xB67 JUMP JUMPDEST PUSH1 0x0 PUSH2 0x1067 DUP3 PUSH1 0x40 ADD MLOAD DUP4 PUSH1 0x0 ADD MLOAD DUP5 PUSH1 0x20 ADD MLOAD DUP6 PUSH1 0x60 ADD MLOAD PUSH2 0x2BD8 JUMP JUMPDEST PUSH1 0x8 DUP1 SLOAD SWAP2 SWAP3 POP PUSH1 0x0 PUSH2 0x1079 DUP4 PUSH2 0x3781 JUMP JUMPDEST SWAP2 SWAP1 POP SSTORE POP DUP2 PUSH1 0x40 ADD MLOAD PUSH1 0x9 PUSH1 0x0 DUP3 DUP3 SLOAD PUSH2 0x1094 SWAP2 SWAP1 PUSH2 0x3576 JUMP JUMPDEST SWAP1 SWAP2 SSTORE POP PUSH2 0x10B3 SWAP1 POP CALLER DUP3 DUP5 PUSH1 0x40 ADD MLOAD PUSH2 0x10AE SWAP2 SWAP1 PUSH2 0x376E JUMP JUMPDEST PUSH2 0x2717 JUMP JUMPDEST PUSH1 0x40 DUP1 DUP4 ADD MLOAD DUP2 MLOAD SWAP1 DUP2 MSTORE PUSH1 0x20 DUP2 ADD DUP4 SWAP1 MSTORE CALLER SWAP2 PUSH32 0x92CCF450A286A957AF52509BC1C9939D1A6A481783E142E41E2499F0BB66EBC6 SWAP2 ADD PUSH1 0x40 MLOAD DUP1 SWAP2 SUB SWAP1 LOG2 POP POP CALLER PUSH1 0x0 SWAP1 DUP2 MSTORE PUSH1 0xB PUSH1 0x20 MSTORE PUSH1 0x40 DUP2 KECCAK256 DUP2 DUP2 SSTORE PUSH1 0x1 DUP2 ADD DUP3 SWAP1 SSTORE PUSH1 0x2 DUP2 ADD DUP3 SWAP1 SSTORE PUSH1 0x3 ADD SSTORE JUMP JUMPDEST PUSH1 0x0 PUSH2 0x1124 PUSH2 0x2C36 JUMP JUMPDEST SWAP1 POP SWAP1 JUMP JUMPDEST CALLER PUSH1 0x0 SWAP1 DUP2 MSTORE PUSH1 0xA PUSH1 0x20 SWAP1 DUP2 MSTORE PUSH1 0x40 SWAP2 DUP3 SWAP1 KECCAK256 DUP3 MLOAD PUSH1 0xC0 DUP2 ADD DUP5 MSTORE DUP2 SLOAD PUSH1 0x1 PUSH1 0x1 PUSH1 0xA0 SHL SUB AND DUP2 MSTORE PUSH1 0x1 DUP3 ADD SLOAD SWAP3 DUP2 ADD SWAP3 SWAP1 SWAP3 MSTORE PUSH1 0x2 DUP2 ADD SLOAD SWAP3 DUP3 ADD SWAP3 SWAP1 SWAP3 MSTORE PUSH1 0x3 DUP3 ADD SLOAD PUSH1 0x60 DUP3 ADD DUP2 SWAP1 MSTORE PUSH1 0x4 DUP4 ADD SLOAD PUSH1 0x80 DUP4 ADD MSTORE PUSH1 0x5 SWAP1 SWAP3 ADD SLOAD PUSH1 0xA0 DUP3 ADD MSTORE SWAP1 PUSH2 0x11A7 JUMPI PUSH1 0x40 MLOAD PUSH3 0x461BCD PUSH1 0xE5 SHL DUP2 MSTORE PUSH1 0x4 ADD PUSH2 0xB67 SWAP1 PUSH2 0x34E8 JUMP JUMPDEST DUP1 PUSH1 0x40 ADD MLOAD TIMESTAMP GT PUSH2 0x11CA JUMPI PUSH1 0x40 MLOAD PUSH3 0x461BCD PUSH1 0xE5 SHL DUP2 MSTORE PUSH1 0x4 ADD PUSH2 0xB67 SWAP1 PUSH2 0x3517 JUMP JUMPDEST PUSH1 0x0 PUSH2 0x11ED DUP3 PUSH1 0x60 ADD MLOAD DUP4 PUSH1 0x20 ADD MLOAD DUP5 PUSH1 0x40 ADD MLOAD DUP6 PUSH1 0x80 ADD MLOAD DUP7 PUSH1 0xA0 ADD MLOAD PUSH2 0x2619 JUMP JUMPDEST PUSH2 0x11FF SWAP1 PUSH8 0xDE0B6B3A7640000 PUSH2 0x34D1 JUMP JUMPDEST SWAP1 POP PUSH2 0x120A CALLER PUSH2 0xCBB JUMP JUMPDEST PUSH2 0x1212 PUSH2 0x27F6 JUMP JUMPDEST PUSH1 0x40 MLOAD DUP2 DUP2 MSTORE CALLER SWAP1 PUSH32 0xD74752B13281DF13701575F3A507E9B1242E0B5FB040143211C481C1FCE573A6 SWAP1 PUSH1 0x20 ADD JUMPDEST PUSH1 0x40 MLOAD DUP1 SWAP2 SUB SWAP1 LOG2 POP POP JUMP JUMPDEST ORIGIN PUSH1 0x1 PUSH1 0x1 PUSH1 0xA0 SHL SUB DUP5 AND EQ PUSH2 0x1274 JUMPI PUSH1 0x40 MLOAD PUSH3 0x461BCD PUSH1 0xE5 SHL DUP2 MSTORE PUSH1 0x4 ADD PUSH2 0xB67 SWAP1 PUSH2 0x3589 JUMP JUMPDEST PUSH1 0x1 PUSH1 0x1 PUSH1 0xA0 SHL SUB DUP4 AND PUSH2 0x129A JUMPI PUSH1 0x40 MLOAD PUSH3 0x461BCD PUSH1 0xE5 SHL DUP2 MSTORE PUSH1 0x4 ADD PUSH2 0xB67 SWAP1 PUSH2 0x360D JUMP JUMPDEST PUSH1 0x0 DUP2 GT PUSH2 0x12BA JUMPI PUSH1 0x40 MLOAD PUSH3 0x461BCD PUSH1 0xE5 SHL DUP2 MSTORE PUSH1 0x4 ADD PUSH2 0xB67 SWAP1 PUSH2 0x364F JUMP JUMPDEST PUSH1 0x1 PUSH1 0x1 PUSH1 0xA0 SHL SUB DUP4 AND PUSH1 0x0 SWAP1 DUP2 MSTORE PUSH1 0xE PUSH1 0x20 MSTORE PUSH1 0x40 SWAP1 KECCAK256 SLOAD DUP2 GT ISZERO PUSH2 0x130F JUMPI PUSH1 0x40 MLOAD PUSH3 0x461BCD PUSH1 0xE5 SHL DUP2 MSTORE PUSH1 0x20 PUSH1 0x4 DUP3 ADD MSTORE PUSH1 0xA PUSH1 0x24 DUP3 ADD MSTORE PUSH10 0x2732B2B2102837BBB2B9 PUSH1 0xB1 SHL PUSH1 0x44 DUP3 ADD MSTORE PUSH1 0x64 ADD PUSH2 0xB67 JUMP JUMPDEST PUSH1 0x0 PUSH2 0x131D DUP3 PUSH2 0x3E8 PUSH2 0x34D1 JUMP JUMPDEST SWAP1 POP PUSH1 0x0 PUSH2 0x132D PUSH1 0x12 PUSH1 0xA PUSH2 0x3762 JUMP JUMPDEST PUSH2 0x1337 SWAP1 DUP4 PUSH2 0x34D1 JUMP JUMPDEST SWAP1 POP PUSH2 0x1343 DUP6 CALLER PUSH2 0xDFC JUMP JUMPDEST PUSH2 0x134D DUP6 DUP3 PUSH2 0x2A92 JUMP JUMPDEST PUSH1 0x1 PUSH1 0x1 PUSH1 0xA0 SHL SUB DUP6 AND PUSH1 0x0 SWAP1 DUP2 MSTORE PUSH1 0xC PUSH1 0x20 MSTORE PUSH1 0x40 DUP2 KECCAK256 DUP1 SLOAD DUP5 SWAP3 SWAP1 PUSH2 0x1375 SWAP1 DUP5 SWAP1 PUSH2 0x376E JUMP JUMPDEST SWAP1 SWAP2 SSTORE POP POP PUSH1 0x1 PUSH1 0x1 PUSH1 0xA0 SHL SUB DUP5 AND PUSH1 0x0 SWAP1 DUP2 MSTORE PUSH1 0xE PUSH1 0x20 MSTORE PUSH1 0x40 DUP2 KECCAK256 DUP1 SLOAD DUP6 SWAP3 SWAP1 PUSH2 0x13A2 SWAP1 DUP5 SWAP1 PUSH2 0x376E JUMP JUMPDEST SWAP1 SWAP2 SSTORE POP POP PUSH1 0x1 PUSH1 0x1 PUSH1 0xA0 SHL SUB DUP6 AND PUSH1 0x0 SWAP1 DUP2 MSTORE PUSH1 0xE PUSH1 0x20 MSTORE PUSH1 0x40 DUP2 KECCAK256 DUP1 SLOAD DUP6 SWAP3 SWAP1 PUSH2 0xE61 SWAP1 DUP5 SWAP1 PUSH2 0x3576 JUMP JUMPDEST CALLER PUSH1 0x0 SWAP1 DUP2 MSTORE PUSH1 0xA PUSH1 0x20 SWAP1 DUP2 MSTORE PUSH1 0x40 SWAP2 DUP3 SWAP1 KECCAK256 DUP3 MLOAD PUSH1 0xC0 DUP2 ADD DUP5 MSTORE DUP2 SLOAD PUSH1 0x1 PUSH1 0x1 PUSH1 0xA0 SHL SUB AND DUP2 MSTORE PUSH1 0x1 DUP3 ADD SLOAD SWAP3 DUP2 ADD SWAP3 SWAP1 SWAP3 MSTORE PUSH1 0x2 DUP2 ADD SLOAD SWAP3 DUP3 ADD SWAP3 SWAP1 SWAP3 MSTORE PUSH1 0x3 DUP3 ADD SLOAD PUSH1 0x60 DUP3 ADD MSTORE PUSH1 0x4 DUP3 ADD SLOAD PUSH1 0x80 DUP3 ADD MSTORE PUSH1 0x5 SWAP1 SWAP2 ADD SLOAD PUSH1 0xA0 DUP3 ADD MSTORE PUSH1 0x65 DUP4 LT PUSH2 0x147E JUMPI PUSH1 0x40 MLOAD PUSH3 0x461BCD PUSH1 0xE5 SHL DUP2 MSTORE PUSH1 0x20 PUSH1 0x4 DUP3 ADD DUP2 SWAP1 MSTORE PUSH1 0x24 DUP3 ADD MSTORE PUSH32 0x4352616E6B3A2043616E6E6F74207368617265203E3130302070657263656E74 PUSH1 0x44 DUP3 ADD MSTORE PUSH1 0x64 ADD PUSH2 0xB67 JUMP JUMPDEST PUSH1 0x0 DUP2 PUSH1 0x60 ADD MLOAD GT PUSH2 0x14A2 JUMPI PUSH1 0x40 MLOAD PUSH3 0x461BCD PUSH1 0xE5 SHL DUP2 MSTORE PUSH1 0x4 ADD PUSH2 0xB67 SWAP1 PUSH2 0x34E8 JUMP JUMPDEST DUP1 PUSH1 0x40 ADD MLOAD TIMESTAMP GT PUSH2 0x14C5 JUMPI PUSH1 0x40 MLOAD PUSH3 0x461BCD PUSH1 0xE5 SHL DUP2 MSTORE PUSH1 0x4 ADD PUSH2 0xB67 SWAP1 PUSH2 0x3517 JUMP JUMPDEST PUSH1 0x0 PUSH2 0x14E8 DUP3 PUSH1 0x60 ADD MLOAD DUP4 PUSH1 0x20 ADD MLOAD DUP5 PUSH1 0x40 ADD MLOAD DUP6 PUSH1 0x80 ADD MLOAD DUP7 PUSH1 0xA0 ADD MLOAD PUSH2 0x2619 JUMP JUMPDEST PUSH2 0x14FA SWAP1 PUSH8 0xDE0B6B3A7640000 PUSH2 0x34D1 JUMP JUMPDEST SWAP1 POP PUSH1 0x0 PUSH1 0x64 PUSH2 0x150A DUP7 DUP5 PUSH2 0x34D1 JUMP JUMPDEST PUSH2 0x1514 SWAP2 SWAP1 PUSH2 0x3562 JUMP JUMPDEST SWAP1 POP PUSH1 0x0 PUSH2 0x1522 DUP3 DUP5 PUSH2 0x3576 JUMP JUMPDEST SWAP1 POP PUSH2 0x152D CALLER PUSH2 0xCBB JUMP JUMPDEST PUSH2 0x1535 PUSH2 0x27F6 JUMP JUMPDEST PUSH1 0x40 MLOAD DUP4 DUP2 MSTORE CALLER SWAP1 PUSH32 0xD74752B13281DF13701575F3A507E9B1242E0B5FB040143211C481C1FCE573A6 SWAP1 PUSH1 0x20 ADD PUSH1 0x40 MLOAD DUP1 SWAP2 SUB SWAP1 LOG2 PUSH1 0x0 DUP3 GT PUSH2 0x15B3 JUMPI PUSH1 0x40 MLOAD PUSH3 0x461BCD PUSH1 0xE5 SHL DUP2 MSTORE PUSH1 0x20 PUSH1 0x4 DUP3 ADD MSTORE PUSH1 0x16 PUSH1 0x24 DUP3 ADD MSTORE PUSH22 0x58454E45563A2042656C6F77206D696E207374616B65 PUSH1 0x50 SHL PUSH1 0x44 DUP3 ADD MSTORE PUSH1 0x64 ADD PUSH2 0xB67 JUMP JUMPDEST PUSH1 0x1 PUSH2 0x15C2 PUSH3 0x15180 DUP3 PUSH2 0x34D1 JUMP JUMPDEST PUSH2 0x15CC SWAP2 SWAP1 PUSH2 0x3576 JUMP JUMPDEST PUSH2 0x15D9 PUSH3 0x15180 DUP8 PUSH2 0x34D1 JUMP JUMPDEST GT PUSH2 0x1626 JUMPI PUSH1 0x40 MLOAD PUSH3 0x461BCD PUSH1 0xE5 SHL DUP2 MSTORE PUSH1 0x20 PUSH1 0x4 DUP3 ADD MSTORE PUSH1 0x1B PUSH1 0x24 DUP3 ADD MSTORE PUSH32 0x58454E45563A2042656C6F77206D696E207374616B65207465726D0000000000 PUSH1 0x44 DUP3 ADD MSTORE PUSH1 0x64 ADD PUSH2 0xB67 JUMP JUMPDEST PUSH2 0x1635 PUSH3 0x15180 PUSH2 0x3E8 PUSH2 0x34D1 JUMP JUMPDEST PUSH2 0x1640 SWAP1 PUSH1 0x1 PUSH2 0x376E JUMP JUMPDEST PUSH2 0x164D PUSH3 0x15180 DUP8 PUSH2 0x34D1 JUMP JUMPDEST LT PUSH2 0x169A JUMPI PUSH1 0x40 MLOAD PUSH3 0x461BCD PUSH1 0xE5 SHL DUP2 MSTORE PUSH1 0x20 PUSH1 0x4 DUP3 ADD MSTORE PUSH1 0x1B PUSH1 0x24 DUP3 ADD MSTORE PUSH32 0x58454E454F3A2041626F7665206D6178207374616B65207465726D0000000000 PUSH1 0x44 DUP3 ADD MSTORE PUSH1 0x64 ADD PUSH2 0xB67 JUMP JUMPDEST CALLER PUSH1 0x0 SWAP1 DUP2 MSTORE PUSH1 0xB PUSH1 0x20 MSTORE PUSH1 0x40 SWAP1 KECCAK256 PUSH1 0x2 ADD SLOAD ISZERO PUSH2 0x16F0 JUMPI PUSH1 0x40 MLOAD PUSH3 0x461BCD PUSH1 0xE5 SHL DUP2 MSTORE PUSH1 0x20 PUSH1 0x4 DUP3 ADD MSTORE PUSH1 0x13 PUSH1 0x24 DUP3 ADD MSTORE PUSH19 0x58454E45563A207374616B6520657869737473 PUSH1 0x68 SHL PUSH1 0x44 DUP3 ADD MSTORE PUSH1 0x64 ADD PUSH2 0xB67 JUMP JUMPDEST PUSH2 0x16FA DUP3 DUP7 PUSH2 0x2D3D JUMP JUMPDEST PUSH1 0x40 DUP1 MLOAD DUP4 DUP2 MSTORE PUSH1 0x20 DUP2 ADD DUP8 SWAP1 MSTORE CALLER SWAP2 PUSH32 0x1449C6DD7851ABC30ABF37F57715F492010519147CC2652FBC38202C18A6EE90 SWAP2 ADD PUSH2 0xD01 JUMP JUMPDEST PUSH2 0x1774 PUSH1 0x40 MLOAD DUP1 PUSH1 0xC0 ADD PUSH1 0x40 MSTORE DUP1 PUSH1 0x0 PUSH1 0x1 PUSH1 0x1 PUSH1 0xA0 SHL SUB AND DUP2 MSTORE PUSH1 0x20 ADD PUSH1 0x0 DUP2 MSTORE PUSH1 0x20 ADD PUSH1 0x0 DUP2 MSTORE PUSH1 0x20 ADD PUSH1 0x0 DUP2 MSTORE PUSH1 0x20 ADD PUSH1 0x0 DUP2 MSTORE PUSH1 0x20 ADD PUSH1 0x0 DUP2 MSTORE POP SWAP1 JUMP JUMPDEST POP CALLER PUSH1 0x0 SWAP1 DUP2 MSTORE PUSH1 0xA PUSH1 0x20 SWAP1 DUP2 MSTORE PUSH1 0x40 SWAP2 DUP3 SWAP1 KECCAK256 DUP3 MLOAD PUSH1 0xC0 DUP2 ADD DUP5 MSTORE DUP2 SLOAD PUSH1 0x1 PUSH1 0x1 PUSH1 0xA0 SHL SUB AND DUP2 MSTORE PUSH1 0x1 DUP3 ADD SLOAD SWAP3 DUP2 ADD SWAP3 SWAP1 SWAP3 MSTORE PUSH1 0x2 DUP2 ADD SLOAD SWAP3 DUP3 ADD SWAP3 SWAP1 SWAP3 MSTORE PUSH1 0x3 DUP3 ADD SLOAD PUSH1 0x60 DUP3 ADD MSTORE PUSH1 0x4 DUP3 ADD SLOAD PUSH1 0x80 DUP3 ADD MSTORE PUSH1 0x5 SWAP1 SWAP2 ADD SLOAD PUSH1 0xA0 DUP3 ADD MSTORE SWAP1 JUMP JUMPDEST DUP2 PUSH2 0x17E1 CALLER PUSH2 0x65E JUMP JUMPDEST LT ISZERO PUSH2 0x182F JUMPI PUSH1 0x40 MLOAD PUSH3 0x461BCD PUSH1 0xE5 SHL DUP2 MSTORE PUSH1 0x20 PUSH1 0x4 DUP3 ADD MSTORE PUSH1 0x19 PUSH1 0x24 DUP3 ADD MSTORE PUSH32 0x58454E45563A206E6F7420656E6F7567682062616C616E636500000000000000 PUSH1 0x44 DUP3 ADD MSTORE PUSH1 0x64 ADD PUSH2 0xB67 JUMP JUMPDEST PUSH1 0x0 DUP3 GT PUSH2 0x1878 JUMPI PUSH1 0x40 MLOAD PUSH3 0x461BCD PUSH1 0xE5 SHL DUP2 MSTORE PUSH1 0x20 PUSH1 0x4 DUP3 ADD MSTORE PUSH1 0x16 PUSH1 0x24 DUP3 ADD MSTORE PUSH22 0x58454E45563A2042656C6F77206D696E207374616B65 PUSH1 0x50 SHL PUSH1 0x44 DUP3 ADD MSTORE PUSH1 0x64 ADD PUSH2 0xB67 JUMP JUMPDEST PUSH1 0x1 PUSH2 0x1887 PUSH3 0x15180 DUP3 PUSH2 0x34D1 JUMP JUMPDEST PUSH2 0x1891 SWAP2 SWAP1 PUSH2 0x3576 JUMP JUMPDEST PUSH2 0x189E PUSH3 0x15180 DUP4 PUSH2 0x34D1 JUMP JUMPDEST GT PUSH2 0x18EB JUMPI PUSH1 0x40 MLOAD PUSH3 0x461BCD PUSH1 0xE5 SHL DUP2 MSTORE PUSH1 0x20 PUSH1 0x4 DUP3 ADD MSTORE PUSH1 0x1B PUSH1 0x24 DUP3 ADD MSTORE PUSH32 0x58454E45563A2042656C6F77206D696E207374616B65207465726D0000000000 PUSH1 0x44 DUP3 ADD MSTORE PUSH1 0x64 ADD PUSH2 0xB67 JUMP JUMPDEST PUSH2 0x18FA PUSH3 0x15180 PUSH2 0x3E8 PUSH2 0x34D1 JUMP JUMPDEST PUSH2 0x1905 SWAP1 PUSH1 0x1 PUSH2 0x376E JUMP JUMPDEST PUSH2 0x1912 PUSH3 0x15180 DUP4 PUSH2 0x34D1 JUMP JUMPDEST LT PUSH2 0x195F JUMPI PUSH1 0x40 MLOAD PUSH3 0x461BCD PUSH1 0xE5 SHL DUP2 MSTORE PUSH1 0x20 PUSH1 0x4 DUP3 ADD MSTORE PUSH1 0x1B PUSH1 0x24 DUP3 ADD MSTORE PUSH32 0x58454E45563A2041626F7665206D6178207374616B65207465726D0000000000 PUSH1 0x44 DUP3 ADD MSTORE PUSH1 0x64 ADD PUSH2 0xB67 JUMP JUMPDEST CALLER PUSH1 0x0 SWAP1 DUP2 MSTORE PUSH1 0xB PUSH1 0x20 MSTORE PUSH1 0x40 SWAP1 KECCAK256 PUSH1 0x2 ADD SLOAD ISZERO PUSH2 0x19B5 JUMPI PUSH1 0x40 MLOAD PUSH3 0x461BCD PUSH1 0xE5 SHL DUP2 MSTORE PUSH1 0x20 PUSH1 0x4 DUP3 ADD MSTORE PUSH1 0x13 PUSH1 0x24 DUP3 ADD MSTORE PUSH19 0x58454E45563A207374616B6520657869737473 PUSH1 0x68 SHL PUSH1 0x44 DUP3 ADD MSTORE PUSH1 0x64 ADD PUSH2 0xB67 JUMP JUMPDEST PUSH2 0x19BF CALLER DUP4 PUSH2 0x2A92 JUMP JUMPDEST PUSH2 0x19C9 DUP3 DUP3 PUSH2 0x2D3D JUMP JUMPDEST PUSH1 0x40 DUP1 MLOAD DUP4 DUP2 MSTORE PUSH1 0x20 DUP2 ADD DUP4 SWAP1 MSTORE CALLER SWAP2 PUSH32 0x1449C6DD7851ABC30ABF37F57715F492010519147CC2652FBC38202C18A6EE90 SWAP2 ADD PUSH2 0x1240 JUMP JUMPDEST PUSH1 0x0 PUSH2 0x1124 PUSH2 0x2DE0 JUMP JUMPDEST PUSH1 0x60 PUSH1 0x4 DUP1 SLOAD PUSH2 0x993 SWAP1 PUSH2 0x3487 JUMP JUMPDEST PUSH1 0x0 PUSH2 0x1124 PUSH2 0x2E24 JUMP JUMPDEST PUSH1 0x0 PUSH2 0x1124 PUSH2 0x2E91 JUMP JUMPDEST PUSH1 0x0 DUP2 GT PUSH2 0x1A4E JUMPI PUSH1 0x40 MLOAD PUSH3 0x461BCD PUSH1 0xE5 SHL DUP2 MSTORE PUSH1 0x4 ADD PUSH2 0xB67 SWAP1 PUSH2 0x364F JUMP JUMPDEST CALLER PUSH1 0x40 MLOAD PUSH4 0x1FFC9A7 PUSH1 0xE0 SHL DUP2 MSTORE PUSH4 0x543746B1 PUSH1 0xE0 SHL PUSH1 0x4 DUP3 ADD MSTORE PUSH1 0x1 PUSH1 0x1 PUSH1 0xA0 SHL SUB SWAP2 SWAP1 SWAP2 AND SWAP1 PUSH4 0x1FFC9A7 SWAP1 PUSH1 0x24 ADD PUSH1 0x20 PUSH1 0x40 MLOAD DUP1 DUP4 SUB DUP2 DUP7 GAS STATICCALL ISZERO DUP1 ISZERO PUSH2 0x1A9C JUMPI RETURNDATASIZE PUSH1 0x0 DUP1 RETURNDATACOPY RETURNDATASIZE PUSH1 0x0 REVERT JUMPDEST POP POP POP POP PUSH1 0x40 MLOAD RETURNDATASIZE PUSH1 0x1F NOT PUSH1 0x1F DUP3 ADD AND DUP3 ADD DUP1 PUSH1 0x40 MSTORE POP DUP2 ADD SWAP1 PUSH2 0x1AC0 SWAP2 SWAP1 PUSH2 0x3798 JUMP JUMPDEST PUSH2 0x1B0C JUMPI PUSH1 0x40 MLOAD PUSH3 0x461BCD PUSH1 0xE5 SHL DUP2 MSTORE PUSH1 0x20 PUSH1 0x4 DUP3 ADD MSTORE PUSH1 0x1E PUSH1 0x24 DUP3 ADD MSTORE PUSH32 0x4275726E3A206E6F74206120737570706F7274656420636F6E74726163740000 PUSH1 0x44 DUP3 ADD MSTORE PUSH1 0x64 ADD PUSH2 0xB67 JUMP JUMPDEST PUSH2 0x1B16 DUP3 CALLER PUSH2 0xDFC JUMP JUMPDEST PUSH2 0x1B20 DUP3 DUP3 PUSH2 0x2A92 JUMP JUMPDEST PUSH1 0x1 PUSH1 0x1 PUSH1 0xA0 SHL SUB DUP3 AND PUSH1 0x0 SWAP1 DUP2 MSTORE PUSH1 0xC PUSH1 0x20 MSTORE PUSH1 0x40 DUP2 KECCAK256 DUP1 SLOAD DUP4 SWAP3 SWAP1 PUSH2 0x1B48 SWAP1 DUP5 SWAP1 PUSH2 0x376E JUMP JUMPDEST SWAP1 SWAP2 SSTORE POP CALLER SWAP1 POP PUSH1 0x40 MLOAD PUSH4 0x543746B1 PUSH1 0xE0 SHL DUP2 MSTORE PUSH1 0x1 PUSH1 0x1 PUSH1 0xA0 SHL SUB DUP5 DUP2 AND PUSH1 0x4 DUP4 ADD MSTORE PUSH1 0x24 DUP3 ADD DUP5 SWAP1 MSTORE SWAP2 SWAP1 SWAP2 AND SWAP1 PUSH4 0x543746B1 SWAP1 PUSH1 0x44 ADD PUSH1 0x0 PUSH1 0x40 MLOAD DUP1 DUP4 SUB DUP2 PUSH1 0x0 DUP8 DUP1 EXTCODESIZE ISZERO DUP1 ISZERO PUSH2 0x1B9B JUMPI PUSH1 0x0 DUP1 REVERT JUMPDEST POP GAS CALL ISZERO DUP1 ISZERO PUSH2 0x1BAF JUMPI RETURNDATASIZE PUSH1 0x0 DUP1 RETURNDATACOPY RETURNDATASIZE PUSH1 0x0 REVERT JUMPDEST POP POP POP POP POP POP JUMP JUMPDEST PUSH2 0x1BBF PUSH2 0x2F6D JUMP JUMPDEST PUSH1 0x0 PUSH2 0x1BCE PUSH3 0x15180 DUP4 PUSH2 0x34D1 JUMP JUMPDEST SWAP1 POP PUSH1 0x1 PUSH2 0x1BDF PUSH3 0x15180 DUP3 PUSH2 0x34D1 JUMP JUMPDEST PUSH2 0x1BE9 SWAP2 SWAP1 PUSH2 0x3576 JUMP JUMPDEST DUP2 GT PUSH2 0x1C37 JUMPI PUSH1 0x40 MLOAD PUSH3 0x461BCD PUSH1 0xE5 SHL DUP2 MSTORE PUSH1 0x20 PUSH1 0x4 DUP3 ADD MSTORE PUSH1 0x19 PUSH1 0x24 DUP3 ADD MSTORE PUSH32 0x4352616E6B3A205465726D206C657373207468616E206D696E00000000000000 PUSH1 0x44 DUP3 ADD MSTORE PUSH1 0x64 ADD PUSH2 0xB67 JUMP JUMPDEST PUSH2 0x1C3F PUSH2 0x2C36 JUMP JUMPDEST PUSH2 0x1C4A SWAP1 PUSH1 0x1 PUSH2 0x376E JUMP JUMPDEST DUP2 LT PUSH2 0x1CA7 JUMPI PUSH1 0x40 MLOAD PUSH3 0x461BCD PUSH1 0xE5 SHL DUP2 MSTORE PUSH1 0x20 PUSH1 0x4 DUP3 ADD MSTORE PUSH1 0x26 PUSH1 0x24 DUP3 ADD MSTORE PUSH32 0x4352616E6B3A205465726D206D6F7265207468616E2063757272656E74206D61 PUSH1 0x44 DUP3 ADD MSTORE PUSH6 0x78207465726D PUSH1 0xD0 SHL PUSH1 0x64 DUP3 ADD MSTORE PUSH1 0x84 ADD PUSH2 0xB67 JUMP JUMPDEST CALLER PUSH1 0x0 SWAP1 DUP2 MSTORE PUSH1 0xA PUSH1 0x20 MSTORE PUSH1 0x40 SWAP1 KECCAK256 PUSH1 0x3 ADD SLOAD ISZERO PUSH2 0x1D07 JUMPI PUSH1 0x40 MLOAD PUSH3 0x461BCD PUSH1 0xE5 SHL DUP2 MSTORE PUSH1 0x20 PUSH1 0x4 DUP3 ADD MSTORE PUSH1 0x1F PUSH1 0x24 DUP3 ADD MSTORE PUSH32 0x4352616E6B3A204D696E7420616C726561647920696E2070726F677265737300 PUSH1 0x44 DUP3 ADD MSTORE PUSH1 0x64 ADD PUSH2 0xB67 JUMP JUMPDEST PUSH1 0x0 PUSH1 0x40 MLOAD DUP1 PUSH1 0xC0 ADD PUSH1 0x40 MSTORE DUP1 PUSH2 0x1D1B CALLER SWAP1 JUMP JUMPDEST PUSH1 0x1 PUSH1 0x1 PUSH1 0xA0 SHL SUB AND DUP2 MSTORE PUSH1 0x20 DUP2 ADD DUP6 SWAP1 MSTORE PUSH1 0x40 ADD PUSH2 0x1D3A DUP5 TIMESTAMP PUSH2 0x376E JUMP JUMPDEST DUP2 MSTORE PUSH1 0x20 ADD PUSH1 0x6 SLOAD DUP2 MSTORE PUSH1 0x20 ADD PUSH2 0x1D4F PUSH2 0x2E91 JUMP JUMPDEST DUP2 MSTORE PUSH1 0x20 ADD PUSH2 0x1D5C PUSH2 0x2DE0 JUMP JUMPDEST SWAP1 MSTORE CALLER PUSH1 0x0 SWAP1 DUP2 MSTORE PUSH1 0xA PUSH1 0x20 SWAP1 DUP2 MSTORE PUSH1 0x40 DUP1 DUP4 KECCAK256 DUP5 MLOAD DUP2 SLOAD PUSH1 0x1 PUSH1 0x1 PUSH1 0xA0 SHL SUB NOT AND PUSH1 0x1 PUSH1 0x1 PUSH1 0xA0 SHL SUB SWAP1 SWAP2 AND OR DUP2 SSTORE SWAP2 DUP5 ADD MLOAD PUSH1 0x1 DUP4 ADD SSTORE DUP4 ADD MLOAD PUSH1 0x2 DUP3 ADD SSTORE PUSH1 0x60 DUP4 ADD MLOAD PUSH1 0x3 DUP3 ADD SSTORE PUSH1 0x80 DUP4 ADD MLOAD PUSH1 0x4 DUP3 ADD SSTORE PUSH1 0xA0 DUP4 ADD MLOAD PUSH1 0x5 SWAP1 SWAP2 ADD SSTORE PUSH1 0x7 DUP1 SLOAD SWAP3 SWAP4 POP SWAP1 PUSH2 0x1DCD DUP4 PUSH2 0x37BA JUMP JUMPDEST SWAP2 SWAP1 POP SSTORE POP PUSH2 0x1DD9 CALLER SWAP1 JUMP JUMPDEST PUSH1 0x1 PUSH1 0x1 PUSH1 0xA0 SHL SUB AND PUSH32 0xE9149E1B5059238BAED02FA659DBF4BD932FBCF760A431330DF4D934BC942F37 DUP5 PUSH1 0x6 PUSH1 0x0 DUP2 SLOAD DUP1 SWAP3 SWAP2 SWAP1 PUSH2 0x1E17 SWAP1 PUSH2 0x37BA JUMP JUMPDEST SWAP1 SWAP2 SSTORE POP PUSH1 0x40 DUP1 MLOAD SWAP3 DUP4 MSTORE PUSH1 0x20 DUP4 ADD SWAP2 SWAP1 SWAP2 MSTORE ADD PUSH1 0x40 MLOAD DUP1 SWAP2 SUB SWAP1 LOG2 POP POP POP JUMP JUMPDEST PUSH1 0x0 CALLER DUP2 PUSH2 0x1E46 DUP3 DUP7 PUSH2 0x20FF JUMP JUMPDEST SWAP1 POP DUP4 DUP2 LT ISZERO PUSH2 0x1EA6 JUMPI PUSH1 0x40 MLOAD PUSH3 0x461BCD PUSH1 0xE5 SHL DUP2 MSTORE PUSH1 0x20 PUSH1 0x4 DUP3 ADD MSTORE PUSH1 0x25 PUSH1 0x24 DUP3 ADD MSTORE PUSH32 0x45524332303A2064656372656173656420616C6C6F77616E63652062656C6F77 PUSH1 0x44 DUP3 ADD MSTORE PUSH5 0x207A65726F PUSH1 0xD8 SHL PUSH1 0x64 DUP3 ADD MSTORE PUSH1 0x84 ADD PUSH2 0xB67 JUMP JUMPDEST PUSH2 0xD2A DUP3 DUP7 DUP7 DUP5 SUB PUSH2 0x24F4 JUMP JUMPDEST PUSH1 0x0 CALLER PUSH2 0xA24 DUP2 DUP6 DUP6 PUSH2 0x28C4 JUMP JUMPDEST PUSH1 0x0 DUP1 PUSH2 0x1ED8 PUSH2 0x1ED0 DUP8 PUSH2 0x3005 JUMP JUMPDEST PUSH1 0xF SIGNEXTEND PUSH2 0x3023 JUMP JUMPDEST SWAP1 POP PUSH1 0x0 PUSH2 0x1F14 PUSH2 0x1EE8 DUP6 PUSH2 0x3005 JUMP JUMPDEST PUSH2 0x1F0B PUSH2 0x1EF4 DUP9 PUSH2 0x3005 JUMP JUMPDEST PUSH2 0x1F0B PUSH2 0x1F00 DUP12 PUSH2 0x3005 JUMP JUMPDEST PUSH1 0xF DUP9 SWAP1 SIGNEXTEND SWAP1 PUSH2 0x3107 JUMP JUMPDEST PUSH1 0xF SIGNEXTEND SWAP1 PUSH2 0x3107 JUMP JUMPDEST SWAP1 POP PUSH2 0x1F3A PUSH2 0x1F32 PUSH2 0x1F27 PUSH2 0x3E8 PUSH2 0x3005 JUMP JUMPDEST PUSH1 0xF DUP5 SWAP1 SIGNEXTEND SWAP1 PUSH2 0x3145 JUMP JUMPDEST PUSH1 0xF SIGNEXTEND PUSH2 0x319C JUMP JUMPDEST PUSH8 0xFFFFFFFFFFFFFFFF AND SWAP3 POP POP POP JUMPDEST SWAP5 SWAP4 POP POP POP POP JUMP JUMPDEST PUSH1 0x40 MLOAD DUP1 PUSH1 0x60 ADD PUSH1 0x40 MSTORE DUP1 PUSH1 0x2E DUP2 MSTORE PUSH1 0x20 ADD PUSH2 0x37ED PUSH1 0x2E SWAP2 CODECOPY DUP2 JUMP JUMPDEST PUSH2 0xA3C PUSH3 0x15180 PUSH2 0x3E8 PUSH2 0x34D1 JUMP JUMPDEST ORIGIN PUSH1 0x1 PUSH1 0x1 PUSH1 0xA0 SHL SUB DUP4 AND EQ PUSH2 0x1FA4 JUMPI PUSH1 0x40 MLOAD PUSH3 0x461BCD PUSH1 0xE5 SHL DUP2 MSTORE PUSH1 0x4 ADD PUSH2 0xB67 SWAP1 PUSH2 0x3589 JUMP JUMPDEST PUSH1 0x1 PUSH1 0x1 PUSH1 0xA0 SHL SUB DUP3 AND PUSH2 0x1FCA JUMPI PUSH1 0x40 MLOAD PUSH3 0x461BCD PUSH1 0xE5 SHL DUP2 MSTORE PUSH1 0x4 ADD PUSH2 0xB67 SWAP1 PUSH2 0x360D JUMP JUMPDEST PUSH1 0x0 DUP2 GT PUSH2 0x1FEA JUMPI PUSH1 0x40 MLOAD PUSH3 0x461BCD PUSH1 0xE5 SHL DUP2 MSTORE PUSH1 0x4 ADD PUSH2 0xB67 SWAP1 PUSH2 0x364F JUMP JUMPDEST PUSH1 0x1 PUSH1 0x1 PUSH1 0xA0 SHL SUB DUP3 AND PUSH1 0x0 SWAP1 DUP2 MSTORE PUSH1 0xE PUSH1 0x20 MSTORE PUSH1 0x40 SWAP1 KECCAK256 SLOAD DUP2 GT ISZERO PUSH2 0x203F JUMPI PUSH1 0x40 MLOAD PUSH3 0x461BCD PUSH1 0xE5 SHL DUP2 MSTORE PUSH1 0x20 PUSH1 0x4 DUP3 ADD MSTORE PUSH1 0xA PUSH1 0x24 DUP3 ADD MSTORE PUSH10 0x2732B2B2102837BBB2B9 PUSH1 0xB1 SHL PUSH1 0x44 DUP3 ADD MSTORE PUSH1 0x64 ADD PUSH2 0xB67 JUMP JUMPDEST PUSH1 0x0 PUSH2 0x204D DUP3 PUSH2 0x3E8 PUSH2 0x34D1 JUMP JUMPDEST SWAP1 POP PUSH1 0x0 PUSH2 0x205D PUSH1 0x12 PUSH1 0xA PUSH2 0x3762 JUMP JUMPDEST PUSH2 0x2067 SWAP1 DUP4 PUSH2 0x34D1 JUMP JUMPDEST SWAP1 POP PUSH2 0x2073 DUP5 CALLER PUSH2 0xDFC JUMP JUMPDEST PUSH2 0x207D DUP5 DUP3 PUSH2 0x2A92 JUMP JUMPDEST PUSH1 0x1 PUSH1 0x1 PUSH1 0xA0 SHL SUB DUP5 AND PUSH1 0x0 SWAP1 DUP2 MSTORE PUSH1 0xC PUSH1 0x20 MSTORE PUSH1 0x40 DUP2 KECCAK256 DUP1 SLOAD DUP5 SWAP3 SWAP1 PUSH2 0x20A5 SWAP1 DUP5 SWAP1 PUSH2 0x376E JUMP JUMPDEST SWAP1 SWAP2 SSTORE POP POP PUSH1 0x1 PUSH1 0x1 PUSH1 0xA0 SHL SUB DUP5 AND PUSH1 0x0 SWAP1 DUP2 MSTORE PUSH1 0xE PUSH1 0x20 MSTORE PUSH1 0x40 DUP2 KECCAK256 DUP1 SLOAD DUP6 SWAP3 SWAP1 PUSH2 0x20D2 SWAP1 DUP5 SWAP1 PUSH2 0x3576 JUMP JUMPDEST SWAP1 SWAP2 SSTORE POP POP PUSH1 0x1 PUSH1 0x1 PUSH1 0xA0 SHL SUB DUP5 AND PUSH1 0x0 SWAP1 DUP2 MSTORE PUSH1 0xF PUSH1 0x20 MSTORE PUSH1 0x40 DUP2 KECCAK256 DUP1 SLOAD DUP6 SWAP3 SWAP1 PUSH2 0xF97 SWAP1 DUP5 SWAP1 PUSH2 0x376E JUMP JUMPDEST PUSH1 0x1 PUSH1 0x1 PUSH1 0xA0 SHL SUB SWAP2 DUP3 AND PUSH1 0x0 SWAP1 DUP2 MSTORE PUSH1 0x1 PUSH1 0x20 SWAP1 DUP2 MSTORE PUSH1 0x40 DUP1 DUP4 KECCAK256 SWAP4 SWAP1 SWAP5 AND DUP3 MSTORE SWAP2 SWAP1 SWAP2 MSTORE KECCAK256 SLOAD SWAP1 JUMP JUMPDEST PUSH1 0x1 PUSH2 0x2139 PUSH3 0x15180 DUP3 PUSH2 0x34D1 JUMP JUMPDEST PUSH2 0xA3C SWAP2 SWAP1 PUSH2 0x3576 JUMP JUMPDEST PUSH1 0x0 PUSH2 0x214D PUSH2 0x31B8 JUMP JUMPDEST SWAP1 POP PUSH1 0x0 PUSH2 0x215D PUSH1 0x12 PUSH1 0xA PUSH2 0x3762 JUMP JUMPDEST PUSH2 0x2167 SWAP1 DUP5 PUSH2 0x34D1 JUMP JUMPDEST SWAP1 POP PUSH1 0x1 DUP3 ISZERO ISZERO EQ PUSH2 0x21B4 JUMPI PUSH1 0x40 MLOAD PUSH3 0x461BCD PUSH1 0xE5 SHL DUP2 MSTORE PUSH1 0x20 PUSH1 0x4 DUP3 ADD MSTORE PUSH1 0x16 PUSH1 0x24 DUP3 ADD MSTORE PUSH22 0x496E76616C69642074696D6520746F20627269646765 PUSH1 0x50 SHL PUSH1 0x44 DUP3 ADD MSTORE PUSH1 0x64 ADD PUSH2 0xB67 JUMP JUMPDEST ORIGIN PUSH1 0x1 PUSH1 0x1 PUSH1 0xA0 SHL SUB DUP6 AND EQ PUSH2 0x21DC JUMPI PUSH1 0x40 MLOAD PUSH3 0x461BCD PUSH1 0xE5 SHL DUP2 MSTORE PUSH1 0x4 ADD PUSH2 0xB67 SWAP1 PUSH2 0x3589 JUMP JUMPDEST PUSH1 0x1 PUSH1 0x1 PUSH1 0xA0 SHL SUB DUP5 AND PUSH2 0x2202 JUMPI PUSH1 0x40 MLOAD PUSH3 0x461BCD PUSH1 0xE5 SHL DUP2 MSTORE PUSH1 0x4 ADD PUSH2 0xB67 SWAP1 PUSH2 0x360D JUMP JUMPDEST PUSH1 0x0 DUP2 GT PUSH2 0x2222 JUMPI PUSH1 0x40 MLOAD PUSH3 0x461BCD PUSH1 0xE5 SHL DUP2 MSTORE PUSH1 0x4 ADD PUSH2 0xB67 SWAP1 PUSH2 0x364F JUMP JUMPDEST PUSH1 0x40 MLOAD PUSH4 0x70A08231 PUSH1 0xE0 SHL DUP2 MSTORE CALLER PUSH1 0x4 DUP3 ADD MSTORE PUSH1 0x0 SWAP1 PUSH32 0x0 PUSH1 0x1 PUSH1 0x1 PUSH1 0xA0 SHL SUB AND SWAP1 PUSH4 0x70A08231 SWAP1 PUSH1 0x24 ADD PUSH1 0x20 PUSH1 0x40 MLOAD DUP1 DUP4 SUB DUP2 DUP7 GAS STATICCALL ISZERO DUP1 ISZERO PUSH2 0x2289 JUMPI RETURNDATASIZE PUSH1 0x0 DUP1 RETURNDATACOPY RETURNDATASIZE PUSH1 0x0 REVERT JUMPDEST POP POP POP POP PUSH1 0x40 MLOAD RETURNDATASIZE PUSH1 0x1F NOT PUSH1 0x1F DUP3 ADD AND DUP3 ADD DUP1 PUSH1 0x40 MSTORE POP DUP2 ADD SWAP1 PUSH2 0x22AD SWAP2 SWAP1 PUSH2 0x37D3 JUMP JUMPDEST SWAP1 POP PUSH2 0x22BA PUSH1 0x1 DUP4 PUSH2 0x3576 JUMP JUMPDEST DUP2 GT PUSH2 0x2308 JUMPI PUSH1 0x40 MLOAD PUSH3 0x461BCD PUSH1 0xE5 SHL DUP2 MSTORE PUSH1 0x20 PUSH1 0x4 DUP3 ADD MSTORE PUSH1 0x1D PUSH1 0x24 DUP3 ADD MSTORE PUSH32 0x58454E45563A206E6F7420656E6F7567682058454E2062616C616E6365000000 PUSH1 0x44 DUP3 ADD MSTORE PUSH1 0x64 ADD PUSH2 0xB67 JUMP JUMPDEST PUSH1 0x40 MLOAD PUSH4 0x6EB1769F PUSH1 0xE1 SHL DUP2 MSTORE CALLER PUSH1 0x4 DUP3 ADD MSTORE ADDRESS PUSH1 0x24 DUP3 ADD MSTORE PUSH1 0x0 SWAP1 PUSH32 0x0 PUSH1 0x1 PUSH1 0x1 PUSH1 0xA0 SHL SUB AND SWAP1 PUSH4 0xDD62ED3E SWAP1 PUSH1 0x44 ADD PUSH1 0x20 PUSH1 0x40 MLOAD DUP1 DUP4 SUB DUP2 DUP7 GAS STATICCALL ISZERO DUP1 ISZERO PUSH2 0x2375 JUMPI RETURNDATASIZE PUSH1 0x0 DUP1 RETURNDATACOPY RETURNDATASIZE PUSH1 0x0 REVERT JUMPDEST POP POP POP POP PUSH1 0x40 MLOAD RETURNDATASIZE PUSH1 0x1F NOT PUSH1 0x1F DUP3 ADD AND DUP3 ADD DUP1 PUSH1 0x40 MSTORE POP DUP2 ADD SWAP1 PUSH2 0x2399 SWAP2 SWAP1 PUSH2 0x37D3 JUMP JUMPDEST SWAP1 POP PUSH2 0x23A6 PUSH1 0x1 DUP5 PUSH2 0x3576 JUMP JUMPDEST DUP2 GT PUSH2 0x240C JUMPI PUSH1 0x40 MLOAD PUSH3 0x461BCD PUSH1 0xE5 SHL DUP2 MSTORE PUSH1 0x20 PUSH1 0x4 DUP3 ADD MSTORE PUSH1 0x2F PUSH1 0x24 DUP3 ADD MSTORE PUSH32 0x58454E45563A206E6F7420656E6F7567682058454E2062616C616E6365206170 PUSH1 0x44 DUP3 ADD MSTORE PUSH15 0x383937BB32B2103337B910313AB937 PUSH1 0x89 SHL PUSH1 0x64 DUP3 ADD MSTORE PUSH1 0x84 ADD PUSH2 0xB67 JUMP JUMPDEST PUSH1 0x40 MLOAD PUSH4 0x2770A7EB PUSH1 0xE2 SHL DUP2 MSTORE CALLER PUSH1 0x4 DUP3 ADD MSTORE PUSH1 0x24 DUP2 ADD DUP5 SWAP1 MSTORE PUSH32 0x0 PUSH1 0x1 PUSH1 0x1 PUSH1 0xA0 SHL SUB AND SWAP1 PUSH4 0x9DC29FAC SWAP1 PUSH1 0x44 ADD PUSH1 0x0 PUSH1 0x40 MLOAD DUP1 DUP4 SUB DUP2 PUSH1 0x0 DUP8 DUP1 EXTCODESIZE ISZERO DUP1 ISZERO PUSH2 0x2474 JUMPI PUSH1 0x0 DUP1 REVERT JUMPDEST POP GAS CALL ISZERO DUP1 ISZERO PUSH2 0x2488 JUMPI RETURNDATASIZE PUSH1 0x0 DUP1 RETURNDATACOPY RETURNDATASIZE PUSH1 0x0 REVERT JUMPDEST POP POP POP POP PUSH1 0x1 PUSH1 0x1 PUSH1 0xA0 SHL SUB DUP7 AND PUSH1 0x0 SWAP1 DUP2 MSTORE PUSH1 0xD PUSH1 0x20 MSTORE PUSH1 0x40 DUP2 KECCAK256 DUP1 SLOAD DUP8 SWAP3 SWAP1 PUSH2 0x24B4 SWAP1 DUP5 SWAP1 PUSH2 0x376E JUMP JUMPDEST SWAP1 SWAP2 SSTORE POP PUSH1 0x0 SWAP1 POP PUSH2 0x24C7 PUSH1 0xA DUP8 PUSH2 0x3562 JUMP JUMPDEST SWAP1 POP PUSH2 0x24D5 PUSH1 0x12 PUSH1 0xA PUSH2 0x3762 JUMP JUMPDEST PUSH2 0x24DF SWAP1 DUP3 PUSH2 0x34D1 JUMP JUMPDEST SWAP4 POP PUSH2 0x24EB CALLER DUP6 PUSH2 0x2717 JUMP JUMPDEST POP POP POP POP POP POP POP JUMP JUMPDEST PUSH1 0x1 PUSH1 0x1 PUSH1 0xA0 SHL SUB DUP4 AND PUSH2 0x2556 JUMPI PUSH1 0x40 MLOAD PUSH3 0x461BCD PUSH1 0xE5 SHL DUP2 MSTORE PUSH1 0x20 PUSH1 0x4 DUP3 ADD MSTORE PUSH1 0x24 DUP1 DUP3 ADD MSTORE PUSH32 0x45524332303A20617070726F76652066726F6D20746865207A65726F20616464 PUSH1 0x44 DUP3 ADD MSTORE PUSH4 0x72657373 PUSH1 0xE0 SHL PUSH1 0x64 DUP3 ADD MSTORE PUSH1 0x84 ADD PUSH2 0xB67 JUMP JUMPDEST PUSH1 0x1 PUSH1 0x1 PUSH1 0xA0 SHL SUB DUP3 AND PUSH2 0x25B7 JUMPI PUSH1 0x40 MLOAD PUSH3 0x461BCD PUSH1 0xE5 SHL DUP2 MSTORE PUSH1 0x20 PUSH1 0x4 DUP3 ADD MSTORE PUSH1 0x22 PUSH1 0x24 DUP3 ADD MSTORE PUSH32 0x45524332303A20617070726F766520746F20746865207A65726F206164647265 PUSH1 0x44 DUP3 ADD MSTORE PUSH2 0x7373 PUSH1 0xF0 SHL PUSH1 0x64 DUP3 ADD MSTORE PUSH1 0x84 ADD PUSH2 0xB67 JUMP JUMPDEST PUSH1 0x1 PUSH1 0x1 PUSH1 0xA0 SHL SUB DUP4 DUP2 AND PUSH1 0x0 DUP2 DUP2 MSTORE PUSH1 0x1 PUSH1 0x20 SWAP1 DUP2 MSTORE PUSH1 0x40 DUP1 DUP4 KECCAK256 SWAP5 DUP8 AND DUP1 DUP5 MSTORE SWAP5 DUP3 MSTORE SWAP2 DUP3 SWAP1 KECCAK256 DUP6 SWAP1 SSTORE SWAP1 MLOAD DUP5 DUP2 MSTORE PUSH32 0x8C5BE1E5EBEC7D5BD14F71427D1E84F3DD0314C0F7B2291E5B200AC8C7C3B925 SWAP2 ADD JUMPDEST PUSH1 0x40 MLOAD DUP1 SWAP2 SUB SWAP1 LOG3 POP POP POP JUMP JUMPDEST PUSH1 0x0 DUP1 PUSH2 0x2626 DUP6 TIMESTAMP PUSH2 0x3576 JUMP JUMPDEST SWAP1 POP PUSH1 0x0 PUSH2 0x2633 DUP3 PUSH2 0x31FD JUMP JUMPDEST SWAP1 POP PUSH1 0x0 PUSH20 0x0 PUSH4 0x6D5433E6 DUP11 PUSH1 0x6 SLOAD PUSH2 0x265F SWAP2 SWAP1 PUSH2 0x3576 JUMP JUMPDEST PUSH1 0x40 MLOAD PUSH1 0x1 PUSH1 0x1 PUSH1 0xE0 SHL SUB NOT PUSH1 0xE0 DUP5 SWAP1 SHL AND DUP2 MSTORE PUSH1 0x4 DUP2 ADD SWAP2 SWAP1 SWAP2 MSTORE PUSH1 0x2 PUSH1 0x24 DUP3 ADD MSTORE PUSH1 0x44 ADD PUSH1 0x20 PUSH1 0x40 MLOAD DUP1 DUP4 SUB DUP2 DUP7 GAS DELEGATECALL ISZERO DUP1 ISZERO PUSH2 0x26A2 JUMPI RETURNDATASIZE PUSH1 0x0 DUP1 RETURNDATACOPY RETURNDATASIZE PUSH1 0x0 REVERT JUMPDEST POP POP POP POP PUSH1 0x40 MLOAD RETURNDATASIZE PUSH1 0x1F NOT PUSH1 0x1F DUP3 ADD AND DUP3 ADD DUP1 PUSH1 0x40 MSTORE POP DUP2 ADD SWAP1 PUSH2 0x26C6 SWAP2 SWAP1 PUSH2 0x37D3 JUMP JUMPDEST SWAP1 POP PUSH1 0x0 PUSH2 0x26D6 DUP7 PUSH2 0x3E8 PUSH2 0x376E JUMP JUMPDEST SWAP1 POP PUSH1 0x0 PUSH2 0x26E6 DUP4 DUP10 DUP13 DUP6 PUSH2 0x1EC1 JUMP JUMPDEST SWAP1 POP PUSH1 0x64 PUSH2 0x26F4 DUP6 DUP3 PUSH2 0x3576 JUMP JUMPDEST PUSH2 0x26FE SWAP1 DUP4 PUSH2 0x34D1 JUMP JUMPDEST PUSH2 0x2708 SWAP2 SWAP1 PUSH2 0x3562 JUMP JUMPDEST SWAP12 SWAP11 POP POP POP POP POP POP POP POP POP POP POP JUMP JUMPDEST PUSH1 0x1 PUSH1 0x1 PUSH1 0xA0 SHL SUB DUP3 AND PUSH2 0x276D JUMPI PUSH1 0x40 MLOAD PUSH3 0x461BCD PUSH1 0xE5 SHL DUP2 MSTORE PUSH1 0x20 PUSH1 0x4 DUP3 ADD MSTORE PUSH1 0x1F PUSH1 0x24 DUP3 ADD MSTORE PUSH32 0x45524332303A206D696E7420746F20746865207A65726F206164647265737300 PUSH1 0x44 DUP3 ADD MSTORE PUSH1 0x64 ADD PUSH2 0xB67 JUMP JUMPDEST DUP1 PUSH1 0x2 PUSH1 0x0 DUP3 DUP3 SLOAD PUSH2 0x277F SWAP2 SWAP1 PUSH2 0x376E JUMP JUMPDEST SWAP1 SWAP2 SSTORE POP POP PUSH1 0x1 PUSH1 0x1 PUSH1 0xA0 SHL SUB DUP3 AND PUSH1 0x0 SWAP1 DUP2 MSTORE PUSH1 0x20 DUP2 SWAP1 MSTORE PUSH1 0x40 DUP2 KECCAK256 DUP1 SLOAD DUP4 SWAP3 SWAP1 PUSH2 0x27AC SWAP1 DUP5 SWAP1 PUSH2 0x376E JUMP JUMPDEST SWAP1 SWAP2 SSTORE POP POP PUSH1 0x40 MLOAD DUP2 DUP2 MSTORE PUSH1 0x1 PUSH1 0x1 PUSH1 0xA0 SHL SUB DUP4 AND SWAP1 PUSH1 0x0 SWAP1 PUSH32 0xDDF252AD1BE2C89B69C2B068FC378DAA952BA7F163C4A11628F55A4DF523B3EF SWAP1 PUSH1 0x20 ADD PUSH1 0x40 MLOAD DUP1 SWAP2 SUB SWAP1 LOG3 POP POP JUMP JUMPDEST CALLER PUSH1 0x0 SWAP1 DUP2 MSTORE PUSH1 0xA PUSH1 0x20 MSTORE PUSH1 0x40 DUP2 KECCAK256 DUP1 SLOAD PUSH1 0x1 PUSH1 0x1 PUSH1 0xA0 SHL SUB NOT AND DUP2 SSTORE PUSH1 0x1 DUP2 ADD DUP3 SWAP1 SSTORE PUSH1 0x2 DUP2 ADD DUP3 SWAP1 SSTORE PUSH1 0x3 DUP2 ADD DUP3 SWAP1 SSTORE PUSH1 0x4 DUP2 ADD DUP3 SWAP1 SSTORE PUSH1 0x5 ADD DUP2 SWAP1 SSTORE PUSH1 0x7 DUP1 SLOAD SWAP2 PUSH2 0x2843 DUP4 PUSH2 0x3781 JUMP JUMPDEST SWAP2 SWAP1 POP SSTORE POP JUMP JUMPDEST PUSH1 0x0 PUSH2 0x2856 DUP5 DUP5 PUSH2 0x20FF JUMP JUMPDEST SWAP1 POP PUSH1 0x0 NOT DUP2 EQ PUSH2 0x28BE JUMPI DUP2 DUP2 LT ISZERO PUSH2 0x28B1 JUMPI PUSH1 0x40 MLOAD PUSH3 0x461BCD PUSH1 0xE5 SHL DUP2 MSTORE PUSH1 0x20 PUSH1 0x4 DUP3 ADD MSTORE PUSH1 0x1D PUSH1 0x24 DUP3 ADD MSTORE PUSH32 0x45524332303A20696E73756666696369656E7420616C6C6F77616E6365000000 PUSH1 0x44 DUP3 ADD MSTORE PUSH1 0x64 ADD PUSH2 0xB67 JUMP JUMPDEST PUSH2 0x28BE DUP5 DUP5 DUP5 DUP5 SUB PUSH2 0x24F4 JUMP JUMPDEST POP POP POP POP JUMP JUMPDEST PUSH1 0x1 PUSH1 0x1 PUSH1 0xA0 SHL SUB DUP4 AND PUSH2 0x2928 JUMPI PUSH1 0x40 MLOAD PUSH3 0x461BCD PUSH1 0xE5 SHL DUP2 MSTORE PUSH1 0x20 PUSH1 0x4 DUP3 ADD MSTORE PUSH1 0x25 PUSH1 0x24 DUP3 ADD MSTORE PUSH32 0x45524332303A207472616E736665722066726F6D20746865207A65726F206164 PUSH1 0x44 DUP3 ADD MSTORE PUSH5 0x6472657373 PUSH1 0xD8 SHL PUSH1 0x64 DUP3 ADD MSTORE PUSH1 0x84 ADD PUSH2 0xB67 JUMP JUMPDEST PUSH1 0x1 PUSH1 0x1 PUSH1 0xA0 SHL SUB DUP3 AND PUSH2 0x298A JUMPI PUSH1 0x40 MLOAD PUSH3 0x461BCD PUSH1 0xE5 SHL DUP2 MSTORE PUSH1 0x20 PUSH1 0x4 DUP3 ADD MSTORE PUSH1 0x23 PUSH1 0x24 DUP3 ADD MSTORE PUSH32 0x45524332303A207472616E7366657220746F20746865207A65726F2061646472 PUSH1 0x44 DUP3 ADD MSTORE PUSH3 0x657373 PUSH1 0xE8 SHL PUSH1 0x64 DUP3 ADD MSTORE PUSH1 0x84 ADD PUSH2 0xB67 JUMP JUMPDEST PUSH1 0x1 PUSH1 0x1 PUSH1 0xA0 SHL SUB DUP4 AND PUSH1 0x0 SWAP1 DUP2 MSTORE PUSH1 0x20 DUP2 SWAP1 MSTORE PUSH1 0x40 SWAP1 KECCAK256 SLOAD DUP2 DUP2 LT ISZERO PUSH2 0x2A02 JUMPI PUSH1 0x40 MLOAD PUSH3 0x461BCD PUSH1 0xE5 SHL DUP2 MSTORE PUSH1 0x20 PUSH1 0x4 DUP3 ADD MSTORE PUSH1 0x26 PUSH1 0x24 DUP3 ADD MSTORE PUSH32 0x45524332303A207472616E7366657220616D6F756E7420657863656564732062 PUSH1 0x44 DUP3 ADD MSTORE PUSH6 0x616C616E6365 PUSH1 0xD0 SHL PUSH1 0x64 DUP3 ADD MSTORE PUSH1 0x84 ADD PUSH2 0xB67 JUMP JUMPDEST PUSH1 0x1 PUSH1 0x1 PUSH1 0xA0 SHL SUB DUP1 DUP6 AND PUSH1 0x0 SWAP1 DUP2 MSTORE PUSH1 0x20 DUP2 SWAP1 MSTORE PUSH1 0x40 DUP1 DUP3 KECCAK256 DUP6 DUP6 SUB SWAP1 SSTORE SWAP2 DUP6 AND DUP2 MSTORE SWAP1 DUP2 KECCAK256 DUP1 SLOAD DUP5 SWAP3 SWAP1 PUSH2 0x2A39 SWAP1 DUP5 SWAP1 PUSH2 0x376E JUMP JUMPDEST SWAP3 POP POP DUP2 SWAP1 SSTORE POP DUP3 PUSH1 0x1 PUSH1 0x1 PUSH1 0xA0 SHL SUB AND DUP5 PUSH1 0x1 PUSH1 0x1 PUSH1 0xA0 SHL SUB AND PUSH32 0xDDF252AD1BE2C89B69C2B068FC378DAA952BA7F163C4A11628F55A4DF523B3EF DUP5 PUSH1 0x40 MLOAD PUSH2 0x2A85 SWAP2 DUP2 MSTORE PUSH1 0x20 ADD SWAP1 JUMP JUMPDEST PUSH1 0x40 MLOAD DUP1 SWAP2 SUB SWAP1 LOG3 PUSH2 0x28BE JUMP JUMPDEST PUSH1 0x1 PUSH1 0x1 PUSH1 0xA0 SHL SUB DUP3 AND PUSH2 0x2AF2 JUMPI PUSH1 0x40 MLOAD PUSH3 0x461BCD PUSH1 0xE5 SHL DUP2 MSTORE PUSH1 0x20 PUSH1 0x4 DUP3 ADD MSTORE PUSH1 0x21 PUSH1 0x24 DUP3 ADD MSTORE PUSH32 0x45524332303A206275726E2066726F6D20746865207A65726F20616464726573 PUSH1 0x44 DUP3 ADD MSTORE PUSH1 0x73 PUSH1 0xF8 SHL PUSH1 0x64 DUP3 ADD MSTORE PUSH1 0x84 ADD PUSH2 0xB67 JUMP JUMPDEST PUSH1 0x1 PUSH1 0x1 PUSH1 0xA0 SHL SUB DUP3 AND PUSH1 0x0 SWAP1 DUP2 MSTORE PUSH1 0x20 DUP2 SWAP1 MSTORE PUSH1 0x40 SWAP1 KECCAK256 SLOAD DUP2 DUP2 LT ISZERO PUSH2 0x2B66 JUMPI PUSH1 0x40 MLOAD PUSH3 0x461BCD PUSH1 0xE5 SHL DUP2 MSTORE PUSH1 0x20 PUSH1 0x4 DUP3 ADD MSTORE PUSH1 0x22 PUSH1 0x24 DUP3 ADD MSTORE PUSH32 0x45524332303A206275726E20616D6F756E7420657863656564732062616C616E PUSH1 0x44 DUP3 ADD MSTORE PUSH2 0x6365 PUSH1 0xF0 SHL PUSH1 0x64 DUP3 ADD MSTORE PUSH1 0x84 ADD PUSH2 0xB67 JUMP JUMPDEST PUSH1 0x1 PUSH1 0x1 PUSH1 0xA0 SHL SUB DUP4 AND PUSH1 0x0 SWAP1 DUP2 MSTORE PUSH1 0x20 DUP2 SWAP1 MSTORE PUSH1 0x40 DUP2 KECCAK256 DUP4 DUP4 SUB SWAP1 SSTORE PUSH1 0x2 DUP1 SLOAD DUP5 SWAP3 SWAP1 PUSH2 0x2B95 SWAP1 DUP5 SWAP1 PUSH2 0x3576 JUMP JUMPDEST SWAP1 SWAP2 SSTORE POP POP PUSH1 0x40 MLOAD DUP3 DUP2 MSTORE PUSH1 0x0 SWAP1 PUSH1 0x1 PUSH1 0x1 PUSH1 0xA0 SHL SUB DUP6 AND SWAP1 PUSH32 0xDDF252AD1BE2C89B69C2B068FC378DAA952BA7F163C4A11628F55A4DF523B3EF SWAP1 PUSH1 0x20 ADD PUSH2 0x260C JUMP JUMPDEST PUSH1 0x0 DUP3 TIMESTAMP GT ISZERO PUSH2 0x2C2B JUMPI PUSH1 0x0 PUSH2 0x16D PUSH2 0x2BF1 DUP7 DUP6 PUSH2 0x34D1 JUMP JUMPDEST PUSH2 0x2BFE SWAP1 PUSH3 0xF4240 PUSH2 0x34D1 JUMP JUMPDEST PUSH2 0x2C08 SWAP2 SWAP1 PUSH2 0x3562 JUMP JUMPDEST SWAP1 POP PUSH4 0x5F5E100 PUSH2 0x2C19 DUP3 DUP9 PUSH2 0x34D1 JUMP JUMPDEST PUSH2 0x2C23 SWAP2 SWAP1 PUSH2 0x3562 JUMP JUMPDEST SWAP2 POP POP PUSH2 0x1F49 JUMP JUMPDEST POP PUSH1 0x0 SWAP5 SWAP4 POP POP POP POP JUMP JUMPDEST PUSH1 0x0 PUSH2 0x1388 PUSH1 0x6 SLOAD GT ISZERO PUSH2 0x2D2F JUMPI PUSH1 0x0 PUSH2 0x2C64 PUSH2 0x1F32 PUSH2 0x2C56 PUSH1 0xF PUSH2 0x3005 JUMP JUMPDEST PUSH2 0x1F0B PUSH2 0x1ED0 PUSH1 0x6 SLOAD PUSH2 0x3005 JUMP JUMPDEST PUSH8 0xFFFFFFFFFFFFFFFF AND SWAP1 POP PUSH1 0x0 PUSH2 0x2C7F PUSH3 0x15180 DUP4 PUSH2 0x34D1 JUMP JUMPDEST PUSH2 0x2C8D PUSH3 0x15180 PUSH1 0x64 PUSH2 0x34D1 JUMP JUMPDEST PUSH2 0x2C97 SWAP2 SWAP1 PUSH2 0x376E JUMP JUMPDEST SWAP1 POP PUSH20 0x0 PUSH4 0x7AE2B5C7 DUP3 PUSH2 0x2CC3 PUSH3 0x15180 PUSH2 0x3E8 PUSH2 0x34D1 JUMP JUMPDEST PUSH1 0x40 MLOAD PUSH1 0x1 PUSH1 0x1 PUSH1 0xE0 SHL SUB NOT PUSH1 0xE0 DUP6 SWAP1 SHL AND DUP2 MSTORE PUSH1 0x4 DUP2 ADD SWAP3 SWAP1 SWAP3 MSTORE PUSH1 0x24 DUP3 ADD MSTORE PUSH1 0x44 ADD PUSH1 0x20 PUSH1 0x40 MLOAD DUP1 DUP4 SUB DUP2 DUP7 GAS DELEGATECALL ISZERO DUP1 ISZERO PUSH2 0x2D04 JUMPI RETURNDATASIZE PUSH1 0x0 DUP1 RETURNDATACOPY RETURNDATASIZE PUSH1 0x0 REVERT JUMPDEST POP POP POP POP PUSH1 0x40 MLOAD RETURNDATASIZE PUSH1 0x1F NOT PUSH1 0x1F DUP3 ADD AND DUP3 ADD DUP1 PUSH1 0x40 MSTORE POP DUP2 ADD SWAP1 PUSH2 0x2D28 SWAP2 SWAP1 PUSH2 0x37D3 JUMP JUMPDEST SWAP3 POP POP POP SWAP1 JUMP JUMPDEST PUSH2 0x1124 PUSH3 0x15180 PUSH1 0x64 PUSH2 0x34D1 JUMP JUMPDEST PUSH1 0x40 MLOAD DUP1 PUSH1 0x80 ADD PUSH1 0x40 MSTORE DUP1 DUP3 DUP2 MSTORE PUSH1 0x20 ADD PUSH3 0x15180 DUP4 PUSH2 0x2D5D SWAP2 SWAP1 PUSH2 0x34D1 JUMP JUMPDEST PUSH2 0x2D67 SWAP1 TIMESTAMP PUSH2 0x376E JUMP JUMPDEST DUP2 MSTORE PUSH1 0x20 ADD DUP4 DUP2 MSTORE PUSH1 0x20 ADD PUSH2 0x2D7A PUSH2 0x2E24 JUMP JUMPDEST SWAP1 MSTORE CALLER PUSH1 0x0 SWAP1 DUP2 MSTORE PUSH1 0xB PUSH1 0x20 SWAP1 DUP2 MSTORE PUSH1 0x40 DUP1 DUP4 KECCAK256 DUP5 MLOAD DUP2 SSTORE SWAP2 DUP5 ADD MLOAD PUSH1 0x1 DUP4 ADD SSTORE DUP4 ADD MLOAD PUSH1 0x2 DUP3 ADD SSTORE PUSH1 0x60 SWAP1 SWAP3 ADD MLOAD PUSH1 0x3 SWAP1 SWAP3 ADD SWAP2 SWAP1 SWAP2 SSTORE PUSH1 0x8 DUP1 SLOAD SWAP2 PUSH2 0x2DC0 DUP4 PUSH2 0x37BA JUMP JUMPDEST SWAP2 SWAP1 POP SSTORE POP DUP2 PUSH1 0x9 PUSH1 0x0 DUP3 DUP3 SLOAD PUSH2 0x2DD7 SWAP2 SWAP1 PUSH2 0x376E JUMP JUMPDEST SWAP1 SWAP2 SSTORE POP POP POP POP JUMP JUMPDEST PUSH1 0x0 DUP1 PUSH3 0x186A0 PUSH1 0x6 SLOAD PUSH1 0x1 PUSH2 0x2DF6 SWAP2 SWAP1 PUSH2 0x34D1 JUMP JUMPDEST PUSH2 0x2E00 SWAP2 SWAP1 PUSH2 0x3562 JUMP JUMPDEST SWAP1 POP PUSH1 0x64 DUP2 GT ISZERO PUSH2 0x2E13 JUMPI PUSH1 0x0 SWAP2 POP POP SWAP1 JUMP JUMPDEST PUSH2 0x2E1E DUP2 PUSH1 0x64 PUSH2 0x3576 JUMP JUMPDEST SWAP2 POP POP SWAP1 JUMP JUMPDEST PUSH1 0x0 DUP1 PUSH2 0x2E35 PUSH1 0x5A PUSH3 0x15180 PUSH2 0x34D1 JUMP JUMPDEST PUSH2 0x2E5F PUSH32 0x0 TIMESTAMP PUSH2 0x3576 JUMP JUMPDEST PUSH2 0x2E69 SWAP2 SWAP1 PUSH2 0x3562 JUMP JUMPDEST SWAP1 POP DUP1 PUSH2 0x2E78 PUSH1 0x2 PUSH1 0x14 PUSH2 0x3576 JUMP JUMPDEST LT ISZERO PUSH2 0x2E86 JUMPI PUSH1 0x2 SWAP2 POP POP SWAP1 JUMP JUMPDEST PUSH2 0x2E1E DUP2 PUSH1 0x14 PUSH2 0x3576 JUMP JUMPDEST PUSH1 0x0 DUP1 PUSH3 0x15180 PUSH2 0x2EC2 PUSH32 0x0 TIMESTAMP PUSH2 0x3576 JUMP JUMPDEST PUSH2 0x2ECC SWAP2 SWAP1 PUSH2 0x3562 JUMP JUMPDEST SWAP1 POP PUSH2 0x12C DUP2 LT ISZERO PUSH2 0x2F65 JUMPI PUSH20 0x0 PUSH4 0x6D5433E6 PUSH2 0x2EFE DUP4 PUSH2 0x12C PUSH2 0x3576 JUMP JUMPDEST PUSH1 0x40 MLOAD PUSH1 0x1 PUSH1 0x1 PUSH1 0xE0 SHL SUB NOT PUSH1 0xE0 DUP5 SWAP1 SHL AND DUP2 MSTORE PUSH1 0x4 DUP2 ADD SWAP2 SWAP1 SWAP2 MSTORE PUSH1 0x1 PUSH1 0x24 DUP3 ADD MSTORE PUSH1 0x44 ADD PUSH1 0x20 PUSH1 0x40 MLOAD DUP1 DUP4 SUB DUP2 DUP7 GAS DELEGATECALL ISZERO DUP1 ISZERO PUSH2 0x2F41 JUMPI RETURNDATASIZE PUSH1 0x0 DUP1 RETURNDATACOPY RETURNDATASIZE PUSH1 0x0 REVERT JUMPDEST POP POP POP POP PUSH1 0x40 MLOAD RETURNDATASIZE PUSH1 0x1F NOT PUSH1 0x1F DUP3 ADD AND DUP3 ADD DUP1 PUSH1 0x40 MSTORE POP DUP2 ADD SWAP1 PUSH2 0x2E1E SWAP2 SWAP1 PUSH2 0x37D3 JUMP JUMPDEST PUSH1 0x1 SWAP2 POP POP SWAP1 JUMP JUMPDEST PUSH1 0x0 PUSH32 0x0 PUSH1 0x1 PUSH1 0x1 PUSH1 0xA0 SHL SUB AND PUSH4 0x1C244082 PUSH1 0x40 MLOAD DUP2 PUSH4 0xFFFFFFFF AND PUSH1 0xE0 SHL DUP2 MSTORE PUSH1 0x4 ADD PUSH1 0x20 PUSH1 0x40 MLOAD DUP1 DUP4 SUB DUP2 DUP7 GAS STATICCALL ISZERO DUP1 ISZERO PUSH2 0x2FCD JUMPI RETURNDATASIZE PUSH1 0x0 DUP1 RETURNDATACOPY RETURNDATASIZE PUSH1 0x0 REVERT JUMPDEST POP POP POP POP PUSH1 0x40 MLOAD RETURNDATASIZE PUSH1 0x1F NOT PUSH1 0x1F DUP3 ADD AND DUP3 ADD DUP1 PUSH1 0x40 MSTORE POP DUP2 ADD SWAP1 PUSH2 0x2FF1 SWAP2 SWAP1 PUSH2 0x37D3 JUMP JUMPDEST PUSH1 0x6 SLOAD SWAP1 SWAP2 POP DUP2 DUP2 LT ISZERO PUSH2 0x5A4 JUMPI POP PUSH1 0x6 SSTORE JUMP JUMPDEST PUSH1 0x0 PUSH8 0x7FFFFFFFFFFFFFFF DUP3 GT ISZERO PUSH2 0x301C JUMPI PUSH1 0x0 DUP1 REVERT JUMPDEST POP PUSH1 0x40 SHL SWAP1 JUMP JUMPDEST PUSH1 0x0 DUP1 DUP3 PUSH1 0xF SIGNEXTEND SGT PUSH2 0x3034 JUMPI PUSH1 0x0 DUP1 REVERT JUMPDEST PUSH1 0x0 PUSH1 0xF DUP4 SWAP1 SIGNEXTEND PUSH9 0x10000000000000000 DUP2 SLT PUSH2 0x3053 JUMPI PUSH1 0x40 SWAP2 DUP3 ADD SWAP2 SAR JUMPDEST PUSH5 0x100000000 DUP2 SLT PUSH2 0x3067 JUMPI PUSH1 0x20 SWAP2 DUP3 ADD SWAP2 SAR JUMPDEST PUSH3 0x10000 DUP2 SLT PUSH2 0x3079 JUMPI PUSH1 0x10 SWAP2 DUP3 ADD SWAP2 SAR JUMPDEST PUSH2 0x100 DUP2 SLT PUSH2 0x308A JUMPI PUSH1 0x8 SWAP2 DUP3 ADD SWAP2 SAR JUMPDEST PUSH1 0x10 DUP2 SLT PUSH2 0x309A JUMPI PUSH1 0x4 SWAP2 DUP3 ADD SWAP2 SAR JUMPDEST PUSH1 0x4 DUP2 SLT PUSH2 0x30AA JUMPI PUSH1 0x2 SWAP2 DUP3 ADD SWAP2 SAR JUMPDEST PUSH1 0x2 DUP2 SLT PUSH2 0x30B9 JUMPI PUSH1 0x1 DUP3 ADD SWAP2 POP JUMPDEST PUSH1 0x3F NOT DUP3 ADD PUSH1 0x40 SHL PUSH1 0xF DUP6 SWAP1 SIGNEXTEND PUSH1 0x7F DUP5 SWAP1 SUB SHL PUSH8 0x8000000000000000 JUMPDEST PUSH1 0x0 DUP2 SGT ISZERO PUSH2 0x30FC JUMPI SWAP1 DUP1 MUL PUSH1 0xFF DUP2 SWAP1 SHR DUP3 DUP2 MUL SWAP4 SWAP1 SWAP4 ADD SWAP3 PUSH1 0x7F ADD SHR SWAP1 PUSH1 0x1 SAR PUSH2 0x30D6 JUMP JUMPDEST POP SWAP1 SWAP6 SWAP5 POP POP POP POP POP JUMP JUMPDEST PUSH1 0x0 PUSH1 0xF DUP4 DUP2 SIGNEXTEND SWAP1 DUP4 SWAP1 SIGNEXTEND MUL PUSH1 0x40 SAR PUSH1 0x1 PUSH1 0x1 PUSH1 0x7F SHL SUB NOT DUP2 SLT DUP1 ISZERO SWAP1 PUSH2 0x3135 JUMPI POP PUSH1 0x1 PUSH1 0x1 PUSH1 0x7F SHL SUB DUP2 SGT ISZERO JUMPDEST PUSH2 0x313E JUMPI PUSH1 0x0 DUP1 REVERT JUMPDEST SWAP4 SWAP3 POP POP POP JUMP JUMPDEST PUSH1 0x0 DUP2 PUSH1 0xF SIGNEXTEND PUSH1 0x0 SUB PUSH2 0x3157 JUMPI PUSH1 0x0 DUP1 REVERT JUMPDEST PUSH1 0x0 DUP3 PUSH1 0xF SIGNEXTEND PUSH1 0x40 DUP6 PUSH1 0xF SIGNEXTEND SWAP1 SHL DUP2 PUSH2 0x3172 JUMPI PUSH2 0x3172 PUSH2 0x354C JUMP JUMPDEST SDIV SWAP1 POP PUSH1 0x1 PUSH1 0x1 PUSH1 0x7F SHL SUB NOT DUP2 SLT DUP1 ISZERO SWAP1 PUSH2 0x3135 JUMPI POP PUSH1 0x1 PUSH1 0x1 PUSH1 0x7F SHL SUB DUP2 SGT ISZERO PUSH2 0x313E JUMPI PUSH1 0x0 DUP1 REVERT JUMPDEST PUSH1 0x0 DUP1 DUP3 PUSH1 0xF SIGNEXTEND SLT ISZERO PUSH2 0x31AE JUMPI PUSH1 0x0 DUP1 REVERT JUMPDEST POP PUSH1 0xF SIGNEXTEND PUSH1 0x40 SAR SWAP1 JUMP JUMPDEST PUSH1 0x0 DUP1 DUP1 PUSH2 0x31E6 PUSH32 0x0 TIMESTAMP PUSH2 0x3576 JUMP JUMPDEST SWAP1 POP PUSH1 0x5 SLOAD DUP2 LT ISZERO PUSH2 0x31F7 JUMPI PUSH1 0x1 SWAP2 POP JUMPDEST POP SWAP2 SWAP1 POP JUMP JUMPDEST PUSH1 0x0 DUP1 PUSH2 0x320D PUSH3 0x15180 DUP5 PUSH2 0x3562 JUMP JUMPDEST SWAP1 POP PUSH2 0x321B PUSH1 0x1 PUSH1 0x7 PUSH2 0x3576 JUMP JUMPDEST DUP2 GT ISZERO PUSH2 0x322B JUMPI POP PUSH1 0x63 SWAP3 SWAP2 POP POP JUMP JUMPDEST PUSH1 0x0 PUSH1 0x1 PUSH1 0x7 PUSH2 0x323C DUP5 PUSH1 0x3 PUSH2 0x376E JUMP JUMPDEST PUSH1 0x1 SWAP1 SHL PUSH2 0x324A SWAP2 SWAP1 PUSH2 0x3562 JUMP JUMPDEST PUSH2 0x3254 SWAP2 SWAP1 PUSH2 0x3576 JUMP JUMPDEST PUSH1 0x40 MLOAD PUSH4 0x7AE2B5C7 PUSH1 0xE0 SHL DUP2 MSTORE PUSH1 0x4 DUP2 ADD DUP3 SWAP1 MSTORE PUSH1 0x63 PUSH1 0x24 DUP3 ADD MSTORE SWAP1 SWAP2 POP PUSH20 0x0 SWAP1 PUSH4 0x7AE2B5C7 SWAP1 PUSH1 0x44 ADD PUSH1 0x20 PUSH1 0x40 MLOAD DUP1 DUP4 SUB DUP2 DUP7 GAS DELEGATECALL ISZERO DUP1 ISZERO PUSH2 0x32AE JUMPI RETURNDATASIZE PUSH1 0x0 DUP1 RETURNDATACOPY RETURNDATASIZE PUSH1 0x0 REVERT JUMPDEST POP POP POP POP PUSH1 0x40 MLOAD RETURNDATASIZE PUSH1 0x1F NOT PUSH1 0x1F DUP3 ADD AND DUP3 ADD DUP1 PUSH1 0x40 MSTORE POP DUP2 ADD SWAP1 PUSH2 0x1F49 SWAP2 SWAP1 PUSH2 0x37D3 JUMP JUMPDEST PUSH1 0x0 PUSH1 0x20 DUP3 DUP5 SUB SLT ISZERO PUSH2 0x32E4 JUMPI PUSH1 0x0 DUP1 REVERT JUMPDEST DUP2 CALLDATALOAD PUSH1 0x1 PUSH1 0x1 PUSH1 0xE0 SHL SUB NOT DUP2 AND DUP2 EQ PUSH2 0x313E JUMPI PUSH1 0x0 DUP1 REVERT JUMPDEST PUSH1 0x0 PUSH1 0x20 DUP1 DUP4 MSTORE DUP4 MLOAD DUP1 DUP3 DUP6 ADD MSTORE PUSH1 0x0 JUMPDEST DUP2 DUP2 LT ISZERO PUSH2 0x3329 JUMPI DUP6 DUP2 ADD DUP4 ADD MLOAD DUP6 DUP3 ADD PUSH1 0x40 ADD MSTORE DUP3 ADD PUSH2 0x330D JUMP JUMPDEST POP PUSH1 0x0 PUSH1 0x40 DUP3 DUP7 ADD ADD MSTORE PUSH1 0x40 PUSH1 0x1F NOT PUSH1 0x1F DUP4 ADD AND DUP6 ADD ADD SWAP3 POP POP POP SWAP3 SWAP2 POP POP JUMP JUMPDEST DUP1 CALLDATALOAD PUSH1 0x1 PUSH1 0x1 PUSH1 0xA0 SHL SUB DUP2 AND DUP2 EQ PUSH2 0x3361 JUMPI PUSH1 0x0 DUP1 REVERT JUMPDEST SWAP2 SWAP1 POP JUMP JUMPDEST PUSH1 0x0 DUP1 PUSH1 0x40 DUP4 DUP6 SUB SLT ISZERO PUSH2 0x3379 JUMPI PUSH1 0x0 DUP1 REVERT JUMPDEST PUSH2 0x3382 DUP4 PUSH2 0x334A JUMP JUMPDEST SWAP5 PUSH1 0x20 SWAP4 SWAP1 SWAP4 ADD CALLDATALOAD SWAP4 POP POP POP JUMP JUMPDEST PUSH1 0x0 DUP1 PUSH1 0x0 PUSH1 0x60 DUP5 DUP7 SUB SLT ISZERO PUSH2 0x33A5 JUMPI PUSH1 0x0 DUP1 REVERT JUMPDEST PUSH2 0x33AE DUP5 PUSH2 0x334A JUMP JUMPDEST SWAP3 POP PUSH2 0x33BC PUSH1 0x20 DUP6 ADD PUSH2 0x334A JUMP JUMPDEST SWAP2 POP PUSH1 0x40 DUP5 ADD CALLDATALOAD SWAP1 POP SWAP3 POP SWAP3 POP SWAP3 JUMP JUMPDEST PUSH1 0x0 PUSH1 0x20 DUP3 DUP5 SUB SLT ISZERO PUSH2 0x33DE JUMPI PUSH1 0x0 DUP1 REVERT JUMPDEST PUSH2 0x313E DUP3 PUSH2 0x334A JUMP JUMPDEST PUSH1 0x0 DUP1 PUSH1 0x40 DUP4 DUP6 SUB SLT ISZERO PUSH2 0x33FA JUMPI PUSH1 0x0 DUP1 REVERT JUMPDEST POP POP DUP1 CALLDATALOAD SWAP3 PUSH1 0x20 SWAP1 SWAP2 ADD CALLDATALOAD SWAP2 POP JUMP JUMPDEST PUSH1 0x0 PUSH1 0x20 DUP3 DUP5 SUB SLT ISZERO PUSH2 0x341B JUMPI PUSH1 0x0 DUP1 REVERT JUMPDEST POP CALLDATALOAD SWAP2 SWAP1 POP JUMP JUMPDEST PUSH1 0x0 DUP1 PUSH1 0x0 DUP1 PUSH1 0x80 DUP6 DUP8 SUB SLT ISZERO PUSH2 0x3438 JUMPI PUSH1 0x0 DUP1 REVERT JUMPDEST POP POP DUP3 CALLDATALOAD SWAP5 PUSH1 0x20 DUP5 ADD CALLDATALOAD SWAP5 POP PUSH1 0x40 DUP5 ADD CALLDATALOAD SWAP4 PUSH1 0x60 ADD CALLDATALOAD SWAP3 POP SWAP1 POP JUMP JUMPDEST PUSH1 0x0 DUP1 PUSH1 0x40 DUP4 DUP6 SUB SLT ISZERO PUSH2 0x3467 JUMPI PUSH1 0x0 DUP1 REVERT JUMPDEST PUSH2 0x3470 DUP4 PUSH2 0x334A JUMP JUMPDEST SWAP2 POP PUSH2 0x347E PUSH1 0x20 DUP5 ADD PUSH2 0x334A JUMP JUMPDEST SWAP1 POP SWAP3 POP SWAP3 SWAP1 POP JUMP JUMPDEST PUSH1 0x1 DUP2 DUP2 SHR SWAP1 DUP3 AND DUP1 PUSH2 0x349B JUMPI PUSH1 0x7F DUP3 AND SWAP2 POP JUMPDEST PUSH1 0x20 DUP3 LT DUP2 SUB PUSH2 0x31F7 JUMPI PUSH4 0x4E487B71 PUSH1 0xE0 SHL PUSH1 0x0 MSTORE PUSH1 0x22 PUSH1 0x4 MSTORE PUSH1 0x24 PUSH1 0x0 REVERT JUMPDEST PUSH4 0x4E487B71 PUSH1 0xE0 SHL PUSH1 0x0 MSTORE PUSH1 0x11 PUSH1 0x4 MSTORE PUSH1 0x24 PUSH1 0x0 REVERT JUMPDEST DUP1 DUP3 MUL DUP2 ISZERO DUP3 DUP3 DIV DUP5 EQ OR PUSH2 0x97E JUMPI PUSH2 0x97E PUSH2 0x34BB JUMP JUMPDEST PUSH1 0x20 DUP1 DUP3 MSTORE PUSH1 0x15 SWAP1 DUP3 ADD MSTORE PUSH21 0x4352616E6B3A204E6F206D696E7420657869737473 PUSH1 0x58 SHL PUSH1 0x40 DUP3 ADD MSTORE PUSH1 0x60 ADD SWAP1 JUMP JUMPDEST PUSH1 0x20 DUP1 DUP3 MSTORE DUP2 DUP2 ADD MSTORE PUSH32 0x4352616E6B3A204D696E74206D61747572697479206E6F742072656163686564 PUSH1 0x40 DUP3 ADD MSTORE PUSH1 0x60 ADD SWAP1 JUMP JUMPDEST PUSH4 0x4E487B71 PUSH1 0xE0 SHL PUSH1 0x0 MSTORE PUSH1 0x12 PUSH1 0x4 MSTORE PUSH1 0x24 PUSH1 0x0 REVERT JUMPDEST PUSH1 0x0 DUP3 PUSH2 0x3571 JUMPI PUSH2 0x3571 PUSH2 0x354C JUMP JUMPDEST POP DIV SWAP1 JUMP JUMPDEST DUP2 DUP2 SUB DUP2 DUP2 GT ISZERO PUSH2 0x97E JUMPI PUSH2 0x97E PUSH2 0x34BB JUMP JUMPDEST PUSH1 0x20 DUP1 DUP3 MSTORE PUSH1 0xC SWAP1 DUP3 ADD MSTORE PUSH12 0x24B73B30B634B2102AB9B2B9 PUSH1 0xA1 SHL PUSH1 0x40 DUP3 ADD MSTORE PUSH1 0x60 ADD SWAP1 JUMP JUMPDEST PUSH1 0x0 DUP3 PUSH2 0x35BE JUMPI PUSH2 0x35BE PUSH2 0x354C JUMP JUMPDEST POP MOD SWAP1 JUMP JUMPDEST PUSH1 0x20 DUP1 DUP3 MSTORE PUSH1 0x2A SWAP1 DUP3 ADD MSTORE PUSH32 0x416D6F756E74206D7573742062652061206D756C7469706C65206F6620504F57 PUSH1 0x40 DUP3 ADD MSTORE PUSH10 0x22A92FA822A92FAC22A7 PUSH1 0xB1 SHL PUSH1 0x60 DUP3 ADD MSTORE PUSH1 0x80 ADD SWAP1 JUMP JUMPDEST PUSH1 0x20 DUP1 DUP3 MSTORE PUSH1 0x22 SWAP1 DUP3 ADD MSTORE PUSH32 0x4275726E3A20596F752063616E74206275726E2066726F6D2061646472657373 PUSH1 0x40 DUP3 ADD MSTORE PUSH2 0x203 PUSH1 0xF4 SHL PUSH1 0x60 DUP3 ADD MSTORE PUSH1 0x80 ADD SWAP1 JUMP JUMPDEST PUSH1 0x20 DUP1 DUP3 MSTORE PUSH1 0x15 SWAP1 DUP3 ADD MSTORE PUSH21 0x109D5C9B8E8810995B1BDDC81B5A5B881B1A5B5A5D PUSH1 0x5A SHL PUSH1 0x40 DUP3 ADD MSTORE PUSH1 0x60 ADD SWAP1 JUMP JUMPDEST PUSH1 0x1 DUP2 DUP2 JUMPDEST DUP1 DUP6 GT ISZERO PUSH2 0x36B9 JUMPI DUP2 PUSH1 0x0 NOT DIV DUP3 GT ISZERO PUSH2 0x369F JUMPI PUSH2 0x369F PUSH2 0x34BB JUMP JUMPDEST DUP1 DUP6 AND ISZERO PUSH2 0x36AC JUMPI SWAP2 DUP2 MUL SWAP2 JUMPDEST SWAP4 DUP5 SHR SWAP4 SWAP1 DUP1 MUL SWAP1 PUSH2 0x3683 JUMP JUMPDEST POP SWAP3 POP SWAP3 SWAP1 POP JUMP JUMPDEST PUSH1 0x0 DUP3 PUSH2 0x36D0 JUMPI POP PUSH1 0x1 PUSH2 0x97E JUMP JUMPDEST DUP2 PUSH2 0x36DD JUMPI POP PUSH1 0x0 PUSH2 0x97E JUMP JUMPDEST DUP2 PUSH1 0x1 DUP2 EQ PUSH2 0x36F3 JUMPI PUSH1 0x2 DUP2 EQ PUSH2 0x36FD JUMPI PUSH2 0x3719 JUMP JUMPDEST PUSH1 0x1 SWAP2 POP POP PUSH2 0x97E JUMP JUMPDEST PUSH1 0xFF DUP5 GT ISZERO PUSH2 0x370E JUMPI PUSH2 0x370E PUSH2 0x34BB JUMP JUMPDEST POP POP PUSH1 0x1 DUP3 SHL PUSH2 0x97E JUMP JUMPDEST POP PUSH1 0x20 DUP4 LT PUSH2 0x133 DUP4 LT AND PUSH1 0x4E DUP5 LT PUSH1 0xB DUP5 LT AND OR ISZERO PUSH2 0x373C JUMPI POP DUP2 DUP2 EXP PUSH2 0x97E JUMP JUMPDEST PUSH2 0x3746 DUP4 DUP4 PUSH2 0x367E JUMP JUMPDEST DUP1 PUSH1 0x0 NOT DIV DUP3 GT ISZERO PUSH2 0x375A JUMPI PUSH2 0x375A PUSH2 0x34BB JUMP JUMPDEST MUL SWAP4 SWAP3 POP POP POP JUMP JUMPDEST PUSH1 0x0 PUSH2 0x313E DUP4 DUP4 PUSH2 0x36C1 JUMP JUMPDEST DUP1 DUP3 ADD DUP1 DUP3 GT ISZERO PUSH2 0x97E JUMPI PUSH2 0x97E PUSH2 0x34BB JUMP JUMPDEST PUSH1 0x0 DUP2 PUSH2 0x3790 JUMPI PUSH2 0x3790 PUSH2 0x34BB JUMP JUMPDEST POP PUSH1 0x0 NOT ADD SWAP1 JUMP JUMPDEST PUSH1 0x0 PUSH1 0x20 DUP3 DUP5 SUB SLT ISZERO PUSH2 0x37AA JUMPI PUSH1 0x0 DUP1 REVERT JUMPDEST DUP2 MLOAD DUP1 ISZERO ISZERO DUP2 EQ PUSH2 0x313E JUMPI PUSH1 0x0 DUP1 REVERT JUMPDEST PUSH1 0x0 PUSH1 0x1 DUP3 ADD PUSH2 0x37CC JUMPI PUSH2 0x37CC PUSH2 0x34BB JUMP JUMPDEST POP PUSH1 0x1 ADD SWAP1 JUMP JUMPDEST PUSH1 0x0 PUSH1 0x20 DUP3 DUP5 SUB SLT ISZERO PUSH2 0x37E5 JUMPI PUSH1 0x0 DUP1 REVERT JUMPDEST POP MLOAD SWAP2 SWAP1 POP JUMP INVALID POP PUSH6 0x7073204C6162 KECCAK256 BLOCKHASH 0x4D PUSH19 0x4A61636B4C6576696E20406C62656C79616576 KECCAK256 PUSH7 0x61697263727970 PUSH21 0x6F2E6F7267A26469706673582212202DECC593AED8 0xE0 0x5E 0x2D 0x1E 0xD0 0xB8 EQ PUSH25 0xE3933D9D0F292D2BEC94D45B871E039EF93A64736F6C634300 ADDMOD SLT STOP CALLER "
		},
		"gasEstimates": {
			"creation": {
				"codeDepositCost": "2883200",
				"executionCost": "infinite",
				"totalCost": "infinite"
			},
			"external": {
				"AUTHORS()": "infinite",
				"DAYS_IN_YEAR()": "287",
				"EAA_PM_START()": "307",
				"EAA_PM_STEP()": "285",
				"EAA_RANK_STEP()": "327",
				"GENESIS_RANK()": "263",
				"GetPower(address,uint256)": "infinite",
				"GetPowerandShare(address,address,uint256)": "infinite",
				"GetXENEV(address,uint256)": "infinite",
				"MAX_PENALTY_PCT()": "308",
				"MAX_TERM_BRIDGE()": "2429",
				"MAX_TERM_END()": "407",
				"MAX_TERM_START()": "386",
				"MIN_TERM()": "infinite",
				"POWER_PER_XEN()": "261",
				"REWARD_AMPLIFIER_END()": "285",
				"REWARD_AMPLIFIER_START()": "306",
				"SECONDS_IN_DAY()": "262",
				"SacrifyPower(address,uint256)": "infinite",
				"SendPower(address,address,uint256)": "infinite",
				"TERM_AMPLIFIER()": "264",
				"TERM_AMPLIFIER_THRESHOLD()": "328",
				"WITHDRAWAL_WINDOW_DAYS()": "329",
				"XEN_APY_DAYS_STEP()": "308",
				"XEN_APY_END()": "308",
				"XEN_APY_START()": "349",
				"XEN_MIN_BURN()": "330",
				"XEN_MIN_STAKE()": "307",
				"activeMinters()": "2450",
				"activeStakes()": "2428",
				"allowance(address,address)": "infinite",
				"approve(address,uint256)": "24660",
				"balanceOf(address)": "2673",
				"burn(address,uint256)": "infinite",
				"claimMintReward()": "infinite",
				"claimMintRewardAndShare(address,uint256)": "infinite",
				"claimMintRewardAndStake(uint256,uint256)": "infinite",
				"claimRank(uint256)": "infinite",
				"decimals()": "246",
				"decreaseAllowance(address,uint256)": "27007",
				"genesisTs()": "infinite",
				"getCurrentAMP()": "infinite",
				"getCurrentAPY()": "infinite",
				"getCurrentEAAR()": "infinite",
				"getCurrentMaxTerm()": "infinite",
				"getGrossReward(uint256,uint256,uint256,uint256)": "infinite",
				"getUserMint()": "13542",
				"getUserStake()": "9102",
				"globalRank()": "2408",
				"increaseAllowance(address,uint256)": "27108",
				"name()": "infinite",
				"oldXenBurns(address)": "2608",
				"onTokenBurned(address,uint256)": "383",
				"owner()": "2405",
				"powerBalances(address)": "2653",
				"powerSacrify(address)": "2608",
				"stake(uint256,uint256)": "infinite",
				"supportsInterface(bytes4)": "496",
				"symbol()": "infinite",
				"totalSupply()": "2383",
				"totalXenStaked()": "2409",
				"transfer(address,uint256)": "51265",
				"transferFrom(address,address,uint256)": "infinite",
				"userBurns(address)": "2586",
				"userMints(address)": "13299",
				"userStakes(address)": "9011",
				"withdraw()": "infinite",
				"xenCrypto()": "infinite"
			},
			"internal": {
				"_calculateAPY()": "infinite",
				"_calculateEAARate()": "infinite",
				"_calculateMaxTerm()": "infinite",
				"_calculateMintReward(uint256,uint256,uint256,uint256,uint256)": "infinite",
				"_calculateRewardAmplifier()": "infinite",
				"_calculateStakeReward(uint256,uint256,uint256,uint256)": "infinite",
				"_cleanUpUserMint()": "73665",
				"_createStake(uint256,uint256)": "infinite",
				"_penalty(uint256)": "infinite",
				"canBridge()": "infinite",
				"pairGlobalRank()": "infinite"
			}
		},
		"methodIdentifiers": {
			"AUTHORS()": "ba3ec741",
			"DAYS_IN_YEAR()": "02378932",
			"EAA_PM_START()": "909a2ff6",
			"EAA_PM_STEP()": "bcfe394f",
			"EAA_RANK_STEP()": "f340faed",
			"GENESIS_RANK()": "1c6f212e",
			"GetPower(address,uint256)": "31b9e85d",
			"GetPowerandShare(address,address,uint256)": "310caf2d",
			"GetXENEV(address,uint256)": "f27a6264",
			"MAX_PENALTY_PCT()": "0f2e1228",
			"MAX_TERM_BRIDGE()": "2a6485a5",
			"MAX_TERM_END()": "c0c65259",
			"MAX_TERM_START()": "0bfae56b",
			"MIN_TERM()": "f0604829",
			"POWER_PER_XEN()": "f029093e",
			"REWARD_AMPLIFIER_END()": "543d3652",
			"REWARD_AMPLIFIER_START()": "e81917b4",
			"SECONDS_IN_DAY()": "61a52a36",
			"SacrifyPower(address,uint256)": "d3fe4689",
			"SendPower(address,address,uint256)": "583b912c",
			"TERM_AMPLIFIER()": "72475f94",
			"TERM_AMPLIFIER_THRESHOLD()": "b21d35f2",
			"WITHDRAWAL_WINDOW_DAYS()": "c56f0bab",
			"XEN_APY_DAYS_STEP()": "32870fda",
			"XEN_APY_END()": "7e7aa62e",
			"XEN_APY_START()": "fed74269",
			"XEN_MIN_BURN()": "110d7fc2",
			"XEN_MIN_STAKE()": "2a62d966",
			"activeMinters()": "b4800cdc",
			"activeStakes()": "ed2f2369",
			"allowance(address,address)": "dd62ed3e",
			"approve(address,uint256)": "095ea7b3",
			"balanceOf(address)": "70a08231",
			"burn(address,uint256)": "9dc29fac",
			"claimMintReward()": "52c7f8dc",
			"claimMintRewardAndShare(address,uint256)": "1c560305",
			"claimMintRewardAndStake(uint256,uint256)": "5bccb4c4",
			"claimRank(uint256)": "9ff054df",
			"decimals()": "313ce567",
			"decreaseAllowance(address,uint256)": "a457c2d7",
			"genesisTs()": "e3af6d0a",
			"getCurrentAMP()": "99202454",
			"getCurrentAPY()": "962ca496",
			"getCurrentEAAR()": "8979c87c",
			"getCurrentMaxTerm()": "45125715",
			"getGrossReward(uint256,uint256,uint256,uint256)": "b0fd1fc2",
			"getUserMint()": "7010d7a1",
			"getUserStake()": "16f9c8fd",
			"globalRank()": "1c244082",
			"increaseAllowance(address,uint256)": "39509351",
			"name()": "06fdde03",
			"oldXenBurns(address)": "cf7a8626",
			"onTokenBurned(address,uint256)": "543746b1",
			"owner()": "8da5cb5b",
			"powerBalances(address)": "539313b8",
			"powerSacrify(address)": "6a5e0766",
			"stake(uint256,uint256)": "7b0472f0",
			"supportsInterface(bytes4)": "01ffc9a7",
			"symbol()": "95d89b41",
			"totalSupply()": "18160ddd",
			"totalXenStaked()": "069612a5",
			"transfer(address,uint256)": "a9059cbb",
			"transferFrom(address,address,uint256)": "23b872dd",
			"userBurns(address)": "ce653d5f",
			"userMints(address)": "df282331",
			"userStakes(address)": "8da7ad23",
			"withdraw()": "3ccfd60b",
			"xenCrypto()": "71141a58"
		}
	},
	"abi": [
		{
			"inputs": [
				{
					"internalType": "address",
					"name": "XenCrypto_",
					"type": "address"
				}
			],
			"stateMutability": "nonpayable",
			"type": "constructor"
		},
		{
			"anonymous": false,
			"inputs": [
				{
					"indexed": true,
					"internalType": "address",
					"name": "owner",
					"type": "address"
				},
				{
					"indexed": true,
					"internalType": "address",
					"name": "spender",
					"type": "address"
				},
				{
					"indexed": false,
					"internalType": "uint256",
					"name": "value",
					"type": "uint256"
				}
			],
			"name": "Approval",
			"type": "event"
		},
		{
			"anonymous": false,
			"inputs": [
				{
					"indexed": true,
					"internalType": "address",
					"name": "user",
					"type": "address"
				},
				{
					"indexed": false,
					"internalType": "uint256",
					"name": "rewardAmount",
					"type": "uint256"
				}
			],
			"name": "MintClaimed",
			"type": "event"
		},
		{
			"anonymous": false,
			"inputs": [
				{
					"indexed": true,
					"internalType": "address",
					"name": "user",
					"type": "address"
				},
				{
					"indexed": false,
					"internalType": "uint256",
					"name": "term",
					"type": "uint256"
				},
				{
					"indexed": false,
					"internalType": "uint256",
					"name": "rank",
					"type": "uint256"
				}
			],
			"name": "RankClaimed",
			"type": "event"
		},
		{
			"anonymous": false,
			"inputs": [
				{
					"indexed": true,
					"internalType": "address",
					"name": "user",
					"type": "address"
				},
				{
					"indexed": true,
					"internalType": "address",
					"name": "xenContract",
					"type": "address"
				},
				{
					"indexed": true,
					"internalType": "address",
					"name": "tokenContract",
					"type": "address"
				},
				{
					"indexed": false,
					"internalType": "uint256",
					"name": "xenAmount",
					"type": "uint256"
				},
				{
					"indexed": false,
					"internalType": "uint256",
					"name": "tokenAmount",
					"type": "uint256"
				}
			],
			"name": "Redeemed",
			"type": "event"
		},
		{
			"anonymous": false,
			"inputs": [
				{
					"indexed": true,
					"internalType": "address",
					"name": "user",
					"type": "address"
				},
				{
					"indexed": false,
					"internalType": "uint256",
					"name": "amount",
					"type": "uint256"
				},
				{
					"indexed": false,
					"internalType": "uint256",
					"name": "term",
					"type": "uint256"
				}
			],
			"name": "Staked",
			"type": "event"
		},
		{
			"anonymous": false,
			"inputs": [
				{
					"indexed": true,
					"internalType": "address",
					"name": "from",
					"type": "address"
				},
				{
					"indexed": true,
					"internalType": "address",
					"name": "to",
					"type": "address"
				},
				{
					"indexed": false,
					"internalType": "uint256",
					"name": "value",
					"type": "uint256"
				}
			],
			"name": "Transfer",
			"type": "event"
		},
		{
			"anonymous": false,
			"inputs": [
				{
					"indexed": true,
					"internalType": "address",
					"name": "user",
					"type": "address"
				},
				{
					"indexed": false,
					"internalType": "uint256",
					"name": "amount",
					"type": "uint256"
				},
				{
					"indexed": false,
					"internalType": "uint256",
					"name": "reward",
					"type": "uint256"
				}
			],
			"name": "Withdrawn",
			"type": "event"
		},
		{
			"inputs": [],
			"name": "AUTHORS",
			"outputs": [
				{
					"internalType": "string",
					"name": "",
					"type": "string"
				}
			],
			"stateMutability": "view",
			"type": "function"
		},
		{
			"inputs": [],
			"name": "DAYS_IN_YEAR",
			"outputs": [
				{
					"internalType": "uint256",
					"name": "",
					"type": "uint256"
				}
			],
			"stateMutability": "view",
			"type": "function"
		},
		{
			"inputs": [],
			"name": "EAA_PM_START",
			"outputs": [
				{
					"internalType": "uint256",
					"name": "",
					"type": "uint256"
				}
			],
			"stateMutability": "view",
			"type": "function"
		},
		{
			"inputs": [],
			"name": "EAA_PM_STEP",
			"outputs": [
				{
					"internalType": "uint256",
					"name": "",
					"type": "uint256"
				}
			],
			"stateMutability": "view",
			"type": "function"
		},
		{
			"inputs": [],
			"name": "EAA_RANK_STEP",
			"outputs": [
				{
					"internalType": "uint256",
					"name": "",
					"type": "uint256"
				}
			],
			"stateMutability": "view",
			"type": "function"
		},
		{
			"inputs": [],
			"name": "GENESIS_RANK",
			"outputs": [
				{
					"internalType": "uint256",
					"name": "",
					"type": "uint256"
				}
			],
			"stateMutability": "view",
			"type": "function"
		},
		{
			"inputs": [
				{
					"internalType": "address",
					"name": "user",
					"type": "address"
				},
				{
					"internalType": "uint256",
					"name": "amount",
					"type": "uint256"
				}
			],
			"name": "GetPower",
			"outputs": [],
			"stateMutability": "nonpayable",
			"type": "function"
		},
		{
			"inputs": [
				{
					"internalType": "address",
					"name": "user",
					"type": "address"
				},
				{
					"internalType": "address",
					"name": "share",
					"type": "address"
				},
				{
					"internalType": "uint256",
					"name": "amount",
					"type": "uint256"
				}
			],
			"name": "GetPowerandShare",
			"outputs": [],
			"stateMutability": "nonpayable",
			"type": "function"
		},
		{
			"inputs": [
				{
					"internalType": "address",
					"name": "user",
					"type": "address"
				},
				{
					"internalType": "uint256",
					"name": "amount",
					"type": "uint256"
				}
			],
			"name": "GetXENEV",
			"outputs": [],
			"stateMutability": "nonpayable",
			"type": "function"
		},
		{
			"inputs": [],
			"name": "MAX_PENALTY_PCT",
			"outputs": [
				{
					"internalType": "uint256",
					"name": "",
					"type": "uint256"
				}
			],
			"stateMutability": "view",
			"type": "function"
		},
		{
			"inputs": [],
			"name": "MAX_TERM_BRIDGE",
			"outputs": [
				{
					"internalType": "uint256",
					"name": "",
					"type": "uint256"
				}
			],
			"stateMutability": "view",
			"type": "function"
		},
		{
			"inputs": [],
			"name": "MAX_TERM_END",
			"outputs": [
				{
					"internalType": "uint256",
					"name": "",
					"type": "uint256"
				}
			],
			"stateMutability": "view",
			"type": "function"
		},
		{
			"inputs": [],
			"name": "MAX_TERM_START",
			"outputs": [
				{
					"internalType": "uint256",
					"name": "",
					"type": "uint256"
				}
			],
			"stateMutability": "view",
			"type": "function"
		},
		{
			"inputs": [],
			"name": "MIN_TERM",
			"outputs": [
				{
					"internalType": "uint256",
					"name": "",
					"type": "uint256"
				}
			],
			"stateMutability": "view",
			"type": "function"
		},
		{
			"inputs": [],
			"name": "POWER_PER_XEN",
			"outputs": [
				{
					"internalType": "uint256",
					"name": "",
					"type": "uint256"
				}
			],
			"stateMutability": "view",
			"type": "function"
		},
		{
			"inputs": [],
			"name": "REWARD_AMPLIFIER_END",
			"outputs": [
				{
					"internalType": "uint256",
					"name": "",
					"type": "uint256"
				}
			],
			"stateMutability": "view",
			"type": "function"
		},
		{
			"inputs": [],
			"name": "REWARD_AMPLIFIER_START",
			"outputs": [
				{
					"internalType": "uint256",
					"name": "",
					"type": "uint256"
				}
			],
			"stateMutability": "view",
			"type": "function"
		},
		{
			"inputs": [],
			"name": "SECONDS_IN_DAY",
			"outputs": [
				{
					"internalType": "uint256",
					"name": "",
					"type": "uint256"
				}
			],
			"stateMutability": "view",
			"type": "function"
		},
		{
			"inputs": [
				{
					"internalType": "address",
					"name": "user",
					"type": "address"
				},
				{
					"internalType": "uint256",
					"name": "power",
					"type": "uint256"
				}
			],
			"name": "SacrifyPower",
			"outputs": [],
			"stateMutability": "nonpayable",
			"type": "function"
		},
		{
			"inputs": [
				{
					"internalType": "address",
					"name": "user",
					"type": "address"
				},
				{
					"internalType": "address",
					"name": "share",
					"type": "address"
				},
				{
					"internalType": "uint256",
					"name": "power",
					"type": "uint256"
				}
			],
			"name": "SendPower",
			"outputs": [],
			"stateMutability": "nonpayable",
			"type": "function"
		},
		{
			"inputs": [],
			"name": "TERM_AMPLIFIER",
			"outputs": [
				{
					"internalType": "uint256",
					"name": "",
					"type": "uint256"
				}
			],
			"stateMutability": "view",
			"type": "function"
		},
		{
			"inputs": [],
			"name": "TERM_AMPLIFIER_THRESHOLD",
			"outputs": [
				{
					"internalType": "uint256",
					"name": "",
					"type": "uint256"
				}
			],
			"stateMutability": "view",
			"type": "function"
		},
		{
			"inputs": [],
			"name": "WITHDRAWAL_WINDOW_DAYS",
			"outputs": [
				{
					"internalType": "uint256",
					"name": "",
					"type": "uint256"
				}
			],
			"stateMutability": "view",
			"type": "function"
		},
		{
			"inputs": [],
			"name": "XEN_APY_DAYS_STEP",
			"outputs": [
				{
					"internalType": "uint256",
					"name": "",
					"type": "uint256"
				}
			],
			"stateMutability": "view",
			"type": "function"
		},
		{
			"inputs": [],
			"name": "XEN_APY_END",
			"outputs": [
				{
					"internalType": "uint256",
					"name": "",
					"type": "uint256"
				}
			],
			"stateMutability": "view",
			"type": "function"
		},
		{
			"inputs": [],
			"name": "XEN_APY_START",
			"outputs": [
				{
					"internalType": "uint256",
					"name": "",
					"type": "uint256"
				}
			],
			"stateMutability": "view",
			"type": "function"
		},
		{
			"inputs": [],
			"name": "XEN_MIN_BURN",
			"outputs": [
				{
					"internalType": "uint256",
					"name": "",
					"type": "uint256"
				}
			],
			"stateMutability": "view",
			"type": "function"
		},
		{
			"inputs": [],
			"name": "XEN_MIN_STAKE",
			"outputs": [
				{
					"internalType": "uint256",
					"name": "",
					"type": "uint256"
				}
			],
			"stateMutability": "view",
			"type": "function"
		},
		{
			"inputs": [],
			"name": "activeMinters",
			"outputs": [
				{
					"internalType": "uint256",
					"name": "",
					"type": "uint256"
				}
			],
			"stateMutability": "view",
			"type": "function"
		},
		{
			"inputs": [],
			"name": "activeStakes",
			"outputs": [
				{
					"internalType": "uint256",
					"name": "",
					"type": "uint256"
				}
			],
			"stateMutability": "view",
			"type": "function"
		},
		{
			"inputs": [
				{
					"internalType": "address",
					"name": "owner",
					"type": "address"
				},
				{
					"internalType": "address",
					"name": "spender",
					"type": "address"
				}
			],
			"name": "allowance",
			"outputs": [
				{
					"internalType": "uint256",
					"name": "",
					"type": "uint256"
				}
			],
			"stateMutability": "view",
			"type": "function"
		},
		{
			"inputs": [
				{
					"internalType": "address",
					"name": "spender",
					"type": "address"
				},
				{
					"internalType": "uint256",
					"name": "amount",
					"type": "uint256"
				}
			],
			"name": "approve",
			"outputs": [
				{
					"internalType": "bool",
					"name": "",
					"type": "bool"
				}
			],
			"stateMutability": "nonpayable",
			"type": "function"
		},
		{
			"inputs": [
				{
					"internalType": "address",
					"name": "account",
					"type": "address"
				}
			],
			"name": "balanceOf",
			"outputs": [
				{
					"internalType": "uint256",
					"name": "",
					"type": "uint256"
				}
			],
			"stateMutability": "view",
			"type": "function"
		},
		{
			"inputs": [
				{
					"internalType": "address",
					"name": "user",
					"type": "address"
				},
				{
					"internalType": "uint256",
					"name": "amount",
					"type": "uint256"
				}
			],
			"name": "burn",
			"outputs": [],
			"stateMutability": "nonpayable",
			"type": "function"
		},
		{
			"inputs": [],
			"name": "claimMintReward",
			"outputs": [],
			"stateMutability": "nonpayable",
			"type": "function"
		},
		{
			"inputs": [
				{
					"internalType": "address",
					"name": "other",
					"type": "address"
				},
				{
					"internalType": "uint256",
					"name": "pct",
					"type": "uint256"
				}
			],
			"name": "claimMintRewardAndShare",
			"outputs": [],
			"stateMutability": "nonpayable",
			"type": "function"
		},
		{
			"inputs": [
				{
					"internalType": "uint256",
					"name": "pct",
					"type": "uint256"
				},
				{
					"internalType": "uint256",
					"name": "term",
					"type": "uint256"
				}
			],
			"name": "claimMintRewardAndStake",
			"outputs": [],
			"stateMutability": "nonpayable",
			"type": "function"
		},
		{
			"inputs": [
				{
					"internalType": "uint256",
					"name": "term",
					"type": "uint256"
				}
			],
			"name": "claimRank",
			"outputs": [],
			"stateMutability": "nonpayable",
			"type": "function"
		},
		{
			"inputs": [],
			"name": "decimals",
			"outputs": [
				{
					"internalType": "uint8",
					"name": "",
					"type": "uint8"
				}
			],
			"stateMutability": "view",
			"type": "function"
		},
		{
			"inputs": [
				{
					"internalType": "address",
					"name": "spender",
					"type": "address"
				},
				{
					"internalType": "uint256",
					"name": "subtractedValue",
					"type": "uint256"
				}
			],
			"name": "decreaseAllowance",
			"outputs": [
				{
					"internalType": "bool",
					"name": "",
					"type": "bool"
				}
			],
			"stateMutability": "nonpayable",
			"type": "function"
		},
		{
			"inputs": [],
			"name": "genesisTs",
			"outputs": [
				{
					"internalType": "uint256",
					"name": "",
					"type": "uint256"
				}
			],
			"stateMutability": "view",
			"type": "function"
		},
		{
			"inputs": [],
			"name": "getCurrentAMP",
			"outputs": [
				{
					"internalType": "uint256",
					"name": "",
					"type": "uint256"
				}
			],
			"stateMutability": "view",
			"type": "function"
		},
		{
			"inputs": [],
			"name": "getCurrentAPY",
			"outputs": [
				{
					"internalType": "uint256",
					"name": "",
					"type": "uint256"
				}
			],
			"stateMutability": "view",
			"type": "function"
		},
		{
			"inputs": [],
			"name": "getCurrentEAAR",
			"outputs": [
				{
					"internalType": "uint256",
					"name": "",
					"type": "uint256"
				}
			],
			"stateMutability": "view",
			"type": "function"
		},
		{
			"inputs": [],
			"name": "getCurrentMaxTerm",
			"outputs": [
				{
					"internalType": "uint256",
					"name": "",
					"type": "uint256"
				}
			],
			"stateMutability": "view",
			"type": "function"
		},
		{
			"inputs": [
				{
					"internalType": "uint256",
					"name": "rankDelta",
					"type": "uint256"
				},
				{
					"internalType": "uint256",
					"name": "amplifier",
					"type": "uint256"
				},
				{
					"internalType": "uint256",
					"name": "term",
					"type": "uint256"
				},
				{
					"internalType": "uint256",
					"name": "eaa",
					"type": "uint256"
				}
			],
			"name": "getGrossReward",
			"outputs": [
				{
					"internalType": "uint256",
					"name": "",
					"type": "uint256"
				}
			],
			"stateMutability": "pure",
			"type": "function"
		},
		{
			"inputs": [],
			"name": "getUserMint",
			"outputs": [
				{
					"components": [
						{
							"internalType": "address",
							"name": "user",
							"type": "address"
						},
						{
							"internalType": "uint256",
							"name": "term",
							"type": "uint256"
						},
						{
							"internalType": "uint256",
							"name": "maturityTs",
							"type": "uint256"
						},
						{
							"internalType": "uint256",
							"name": "rank",
							"type": "uint256"
						},
						{
							"internalType": "uint256",
							"name": "amplifier",
							"type": "uint256"
						},
						{
							"internalType": "uint256",
							"name": "eaaRate",
							"type": "uint256"
						}
					],
					"internalType": "struct XENEVCrypto.MintInfo",
					"name": "",
					"type": "tuple"
				}
			],
			"stateMutability": "view",
			"type": "function"
		},
		{
			"inputs": [],
			"name": "getUserStake",
			"outputs": [
				{
					"components": [
						{
							"internalType": "uint256",
							"name": "term",
							"type": "uint256"
						},
						{
							"internalType": "uint256",
							"name": "maturityTs",
							"type": "uint256"
						},
						{
							"internalType": "uint256",
							"name": "amount",
							"type": "uint256"
						},
						{
							"internalType": "uint256",
							"name": "apy",
							"type": "uint256"
						}
					],
					"internalType": "struct XENEVCrypto.StakeInfo",
					"name": "",
					"type": "tuple"
				}
			],
			"stateMutability": "view",
			"type": "function"
		},
		{
			"inputs": [],
			"name": "globalRank",
			"outputs": [
				{
					"internalType": "uint256",
					"name": "",
					"type": "uint256"
				}
			],
			"stateMutability": "view",
			"type": "function"
		},
		{
			"inputs": [
				{
					"internalType": "address",
					"name": "spender",
					"type": "address"
				},
				{
					"internalType": "uint256",
					"name": "addedValue",
					"type": "uint256"
				}
			],
			"name": "increaseAllowance",
			"outputs": [
				{
					"internalType": "bool",
					"name": "",
					"type": "bool"
				}
			],
			"stateMutability": "nonpayable",
			"type": "function"
		},
		{
			"inputs": [],
			"name": "name",
			"outputs": [
				{
					"internalType": "string",
					"name": "",
					"type": "string"
				}
			],
			"stateMutability": "view",
			"type": "function"
		},
		{
			"inputs": [
				{
					"internalType": "address",
					"name": "",
					"type": "address"
				}
			],
			"name": "oldXenBurns",
			"outputs": [
				{
					"internalType": "uint256",
					"name": "",
					"type": "uint256"
				}
			],
			"stateMutability": "view",
			"type": "function"
		},
		{
			"inputs": [
				{
					"internalType": "address",
					"name": "user",
					"type": "address"
				},
				{
					"internalType": "uint256",
					"name": "amount",
					"type": "uint256"
				}
			],
			"name": "onTokenBurned",
			"outputs": [],
			"stateMutability": "nonpayable",
			"type": "function"
		},
		{
			"inputs": [],
			"name": "owner",
			"outputs": [
				{
					"internalType": "address",
					"name": "",
					"type": "address"
				}
			],
			"stateMutability": "view",
			"type": "function"
		},
		{
			"inputs": [
				{
					"internalType": "address",
					"name": "",
					"type": "address"
				}
			],
			"name": "powerBalances",
			"outputs": [
				{
					"internalType": "uint256",
					"name": "",
					"type": "uint256"
				}
			],
			"stateMutability": "view",
			"type": "function"
		},
		{
			"inputs": [
				{
					"internalType": "address",
					"name": "",
					"type": "address"
				}
			],
			"name": "powerSacrify",
			"outputs": [
				{
					"internalType": "uint256",
					"name": "",
					"type": "uint256"
				}
			],
			"stateMutability": "view",
			"type": "function"
		},
		{
			"inputs": [
				{
					"internalType": "uint256",
					"name": "amount",
					"type": "uint256"
				},
				{
					"internalType": "uint256",
					"name": "term",
					"type": "uint256"
				}
			],
			"name": "stake",
			"outputs": [],
			"stateMutability": "nonpayable",
			"type": "function"
		},
		{
			"inputs": [
				{
					"internalType": "bytes4",
					"name": "interfaceId",
					"type": "bytes4"
				}
			],
			"name": "supportsInterface",
			"outputs": [
				{
					"internalType": "bool",
					"name": "",
					"type": "bool"
				}
			],
			"stateMutability": "view",
			"type": "function"
		},
		{
			"inputs": [],
			"name": "symbol",
			"outputs": [
				{
					"internalType": "string",
					"name": "",
					"type": "string"
				}
			],
			"stateMutability": "view",
			"type": "function"
		},
		{
			"inputs": [],
			"name": "totalSupply",
			"outputs": [
				{
					"internalType": "uint256",
					"name": "",
					"type": "uint256"
				}
			],
			"stateMutability": "view",
			"type": "function"
		},
		{
			"inputs": [],
			"name": "totalXenStaked",
			"outputs": [
				{
					"internalType": "uint256",
					"name": "",
					"type": "uint256"
				}
			],
			"stateMutability": "view",
			"type": "function"
		},
		{
			"inputs": [
				{
					"internalType": "address",
					"name": "to",
					"type": "address"
				},
				{
					"internalType": "uint256",
					"name": "amount",
					"type": "uint256"
				}
			],
			"name": "transfer",
			"outputs": [
				{
					"internalType": "bool",
					"name": "",
					"type": "bool"
				}
			],
			"stateMutability": "nonpayable",
			"type": "function"
		},
		{
			"inputs": [
				{
					"internalType": "address",
					"name": "from",
					"type": "address"
				},
				{
					"internalType": "address",
					"name": "to",
					"type": "address"
				},
				{
					"internalType": "uint256",
					"name": "amount",
					"type": "uint256"
				}
			],
			"name": "transferFrom",
			"outputs": [
				{
					"internalType": "bool",
					"name": "",
					"type": "bool"
				}
			],
			"stateMutability": "nonpayable",
			"type": "function"
		},
		{
			"inputs": [
				{
					"internalType": "address",
					"name": "",
					"type": "address"
				}
			],
			"name": "userBurns",
			"outputs": [
				{
					"internalType": "uint256",
					"name": "",
					"type": "uint256"
				}
			],
			"stateMutability": "view",
			"type": "function"
		},
		{
			"inputs": [
				{
					"internalType": "address",
					"name": "",
					"type": "address"
				}
			],
			"name": "userMints",
			"outputs": [
				{
					"internalType": "address",
					"name": "user",
					"type": "address"
				},
				{
					"internalType": "uint256",
					"name": "term",
					"type": "uint256"
				},
				{
					"internalType": "uint256",
					"name": "maturityTs",
					"type": "uint256"
				},
				{
					"internalType": "uint256",
					"name": "rank",
					"type": "uint256"
				},
				{
					"internalType": "uint256",
					"name": "amplifier",
					"type": "uint256"
				},
				{
					"internalType": "uint256",
					"name": "eaaRate",
					"type": "uint256"
				}
			],
			"stateMutability": "view",
			"type": "function"
		},
		{
			"inputs": [
				{
					"internalType": "address",
					"name": "",
					"type": "address"
				}
			],
			"name": "userStakes",
			"outputs": [
				{
					"internalType": "uint256",
					"name": "term",
					"type": "uint256"
				},
				{
					"internalType": "uint256",
					"name": "maturityTs",
					"type": "uint256"
				},
				{
					"internalType": "uint256",
					"name": "amount",
					"type": "uint256"
				},
				{
					"internalType": "uint256",
					"name": "apy",
					"type": "uint256"
				}
			],
			"stateMutability": "view",
			"type": "function"
		},
		{
			"inputs": [],
			"name": "withdraw",
			"outputs": [],
			"stateMutability": "nonpayable",
			"type": "function"
		},
		{
			"inputs": [],
			"name": "xenCrypto",
			"outputs": [
				{
					"internalType": "contract XENCrypto",
					"name": "",
					"type": "address"
				}
			],
			"stateMutability": "view",
			"type": "function"
		}
	]
}